{
	"contracts/PremaidV3.sol": {
		"PairFlash": {
			"abi": [
				{
					"inputs": [
						{
							"internalType": "contract ISwapRouter",
							"name": "_swapRouter",
							"type": "address"
						},
						{
							"internalType": "address",
							"name": "_factory",
							"type": "address"
						},
						{
							"internalType": "address",
							"name": "_WETH9",
							"type": "address"
						}
					],
					"stateMutability": "nonpayable",
					"type": "constructor"
				},
				{
					"inputs": [],
					"name": "WETH9",
					"outputs": [
						{
							"internalType": "address",
							"name": "",
							"type": "address"
						}
					],
					"stateMutability": "view",
					"type": "function"
				},
				{
					"inputs": [],
					"name": "factory",
					"outputs": [
						{
							"internalType": "address",
							"name": "",
							"type": "address"
						}
					],
					"stateMutability": "view",
					"type": "function"
				},
				{
					"inputs": [
						{
							"components": [
								{
									"internalType": "address",
									"name": "token0",
									"type": "address"
								},
								{
									"internalType": "address",
									"name": "token1",
									"type": "address"
								},
								{
									"internalType": "uint24",
									"name": "fee1",
									"type": "uint24"
								},
								{
									"internalType": "uint256",
									"name": "amount0",
									"type": "uint256"
								},
								{
									"internalType": "uint256",
									"name": "amount1",
									"type": "uint256"
								},
								{
									"internalType": "uint24",
									"name": "fee2",
									"type": "uint24"
								},
								{
									"internalType": "uint24",
									"name": "fee3",
									"type": "uint24"
								}
							],
							"internalType": "struct PairFlash.FlashParams",
							"name": "params",
							"type": "tuple"
						}
					],
					"name": "initFlash",
					"outputs": [],
					"stateMutability": "nonpayable",
					"type": "function"
				},
				{
					"inputs": [],
					"name": "refundETH",
					"outputs": [],
					"stateMutability": "payable",
					"type": "function"
				},
				{
					"inputs": [],
					"name": "swapRouter",
					"outputs": [
						{
							"internalType": "contract ISwapRouter",
							"name": "",
							"type": "address"
						}
					],
					"stateMutability": "view",
					"type": "function"
				},
				{
					"inputs": [
						{
							"internalType": "address",
							"name": "token",
							"type": "address"
						},
						{
							"internalType": "uint256",
							"name": "amountMinimum",
							"type": "uint256"
						},
						{
							"internalType": "address",
							"name": "recipient",
							"type": "address"
						}
					],
					"name": "sweepToken",
					"outputs": [],
					"stateMutability": "payable",
					"type": "function"
				},
				{
					"inputs": [
						{
							"internalType": "uint256",
							"name": "fee0",
							"type": "uint256"
						},
						{
							"internalType": "uint256",
							"name": "fee1",
							"type": "uint256"
						},
						{
							"internalType": "bytes",
							"name": "data",
							"type": "bytes"
						}
					],
					"name": "uniswapV3FlashCallback",
					"outputs": [],
					"stateMutability": "nonpayable",
					"type": "function"
				},
				{
					"inputs": [
						{
							"internalType": "uint256",
							"name": "amountMinimum",
							"type": "uint256"
						},
						{
							"internalType": "address",
							"name": "recipient",
							"type": "address"
						}
					],
					"name": "unwrapWETH9",
					"outputs": [],
					"stateMutability": "payable",
					"type": "function"
				},
				{
					"stateMutability": "payable",
					"type": "receive"
				}
			],
			"devdoc": {
				"kind": "dev",
				"methods": {
					"initFlash((address,address,uint24,uint256,uint256,uint24,uint24))": {
						"params": {
							"params": "The parameters necessary for flash and the callback, passed in as FlashParams"
						}
					},
					"refundETH()": {
						"details": "Useful for bundling with mint or increase liquidity that uses ether, or exact output swaps that use ether for the input amount"
					},
					"sweepToken(address,uint256,address)": {
						"details": "The amountMinimum parameter prevents malicious contracts from stealing the token from users",
						"params": {
							"amountMinimum": "The minimum amount of token required for a transfer",
							"recipient": "The destination address of the token",
							"token": "The contract address of the token which will be transferred to `recipient`"
						}
					},
					"uniswapV3FlashCallback(uint256,uint256,bytes)": {
						"details": "fails if the flash is not profitable, meaning the amountOut from the flash is less than the amount borrowed",
						"params": {
							"data": "The data needed in the callback passed as FlashCallbackData from `initFlash`",
							"fee0": "The fee from calling flash for token0",
							"fee1": "The fee from calling flash for token1"
						}
					},
					"unwrapWETH9(uint256,address)": {
						"details": "The amountMinimum parameter prevents malicious contracts from stealing WETH9 from users.",
						"params": {
							"amountMinimum": "The minimum amount of WETH9 to unwrap",
							"recipient": "The address receiving ETH"
						}
					}
				},
				"title": "Flash contract implementation",
				"version": 1
			},
			"evm": {
				"assembly": "    /* \"contracts/PremaidV3.sol\":797:6693  contract PairFlash is IUniswapV3FlashCallback, PeripheryImmutableState, PeripheryPayments {... */\n  mstore(0x40, 0xe0)\n    /* \"contracts/PremaidV3.sol\":1021:1211  constructor(... */\n  callvalue\n  dup1\n  iszero\n  tag_1\n  jumpi\n  0x00\n  dup1\n  revert\ntag_1:\n  pop\n  mload(0x40)\n  sub(codesize, bytecodeSize)\n  dup1\n  bytecodeSize\n  dup4\n  codecopy\n  dup2\n  dup2\n  add\n  0x40\n  mstore\n  dup2\n  add\n  swap1\n  tag_2\n  swap2\n  swap1\n  tag_3\n  jump\t// in\ntag_2:\n    /* \"contracts/PremaidV3.sol\":1150:1158  _factory */\n  dup2\n    /* \"contracts/PremaidV3.sol\":1160:1166  _WETH9 */\n  dup2\n    /* \"@uniswap/v3-periphery/contracts/base/PeripheryImmutableState.sol\":562:570  _factory */\n  dup2\n    /* \"@uniswap/v3-periphery/contracts/base/PeripheryImmutableState.sol\":552:570  factory = _factory */\n  0xffffffffffffffffffffffffffffffffffffffff\n  and\n  0x80\n  dup2\n  0xffffffffffffffffffffffffffffffffffffffff\n  and\n  dup2\n  mstore\n  pop\n  pop\n    /* \"@uniswap/v3-periphery/contracts/base/PeripheryImmutableState.sol\":588:594  _WETH9 */\n  dup1\n    /* \"@uniswap/v3-periphery/contracts/base/PeripheryImmutableState.sol\":580:594  WETH9 = _WETH9 */\n  0xffffffffffffffffffffffffffffffffffffffff\n  and\n  0xa0\n  dup2\n  0xffffffffffffffffffffffffffffffffffffffff\n  and\n  dup2\n  mstore\n  pop\n  pop\n    /* \"@uniswap/v3-periphery/contracts/base/PeripheryImmutableState.sol\":496:601  constructor(address _factory, address _WETH9) {... */\n  pop\n  pop\n    /* \"contracts/PremaidV3.sol\":1192:1203  _swapRouter */\n  dup3\n    /* \"contracts/PremaidV3.sol\":1179:1203  swapRouter = _swapRouter */\n  0xffffffffffffffffffffffffffffffffffffffff\n  and\n  0xc0\n  dup2\n  0xffffffffffffffffffffffffffffffffffffffff\n  and\n  dup2\n  mstore\n  pop\n  pop\n    /* \"contracts/PremaidV3.sol\":1021:1211  constructor(... */\n  pop\n  pop\n  pop\n    /* \"contracts/PremaidV3.sol\":797:6693  contract PairFlash is IUniswapV3FlashCallback, PeripheryImmutableState, PeripheryPayments {... */\n  jump(tag_8)\n    /* \"#utility.yul\":88:205   */\ntag_10:\n    /* \"#utility.yul\":197:198   */\n  0x00\n    /* \"#utility.yul\":194:195   */\n  dup1\n    /* \"#utility.yul\":187:199   */\n  revert\n    /* \"#utility.yul\":334:460   */\ntag_12:\n    /* \"#utility.yul\":371:378   */\n  0x00\n    /* \"#utility.yul\":411:453   */\n  0xffffffffffffffffffffffffffffffffffffffff\n    /* \"#utility.yul\":404:409   */\n  dup3\n    /* \"#utility.yul\":400:454   */\n  and\n    /* \"#utility.yul\":389:454   */\n  swap1\n  pop\n    /* \"#utility.yul\":334:460   */\n  swap2\n  swap1\n  pop\n  jump\t// out\n    /* \"#utility.yul\":466:562   */\ntag_13:\n    /* \"#utility.yul\":503:510   */\n  0x00\n    /* \"#utility.yul\":532:556   */\n  tag_25\n    /* \"#utility.yul\":550:555   */\n  dup3\n    /* \"#utility.yul\":532:556   */\n  tag_12\n  jump\t// in\ntag_25:\n    /* \"#utility.yul\":521:556   */\n  swap1\n  pop\n    /* \"#utility.yul\":466:562   */\n  swap2\n  swap1\n  pop\n  jump\t// out\n    /* \"#utility.yul\":568:684   */\ntag_14:\n    /* \"#utility.yul\":625:632   */\n  0x00\n    /* \"#utility.yul\":654:678   */\n  tag_27\n    /* \"#utility.yul\":672:677   */\n  dup3\n    /* \"#utility.yul\":654:678   */\n  tag_13\n  jump\t// in\ntag_27:\n    /* \"#utility.yul\":643:678   */\n  swap1\n  pop\n    /* \"#utility.yul\":568:684   */\n  swap2\n  swap1\n  pop\n  jump\t// out\n    /* \"#utility.yul\":690:852   */\ntag_15:\n    /* \"#utility.yul\":783:827   */\n  tag_29\n    /* \"#utility.yul\":821:826   */\n  dup2\n    /* \"#utility.yul\":783:827   */\n  tag_14\n  jump\t// in\ntag_29:\n    /* \"#utility.yul\":776:781   */\n  dup2\n    /* \"#utility.yul\":773:828   */\n  eq\n    /* \"#utility.yul\":763:846   */\n  tag_30\n  jumpi\n    /* \"#utility.yul\":842:843   */\n  0x00\n    /* \"#utility.yul\":839:840   */\n  dup1\n    /* \"#utility.yul\":832:844   */\n  revert\n    /* \"#utility.yul\":763:846   */\ntag_30:\n    /* \"#utility.yul\":690:852   */\n  pop\n  jump\t// out\n    /* \"#utility.yul\":858:1041   */\ntag_16:\n    /* \"#utility.yul\":935:940   */\n  0x00\n    /* \"#utility.yul\":966:972   */\n  dup2\n    /* \"#utility.yul\":960:973   */\n  mload\n    /* \"#utility.yul\":951:973   */\n  swap1\n  pop\n    /* \"#utility.yul\":982:1035   */\n  tag_32\n    /* \"#utility.yul\":1029:1034   */\n  dup2\n    /* \"#utility.yul\":982:1035   */\n  tag_15\n  jump\t// in\ntag_32:\n    /* \"#utility.yul\":858:1041   */\n  swap3\n  swap2\n  pop\n  pop\n  jump\t// out\n    /* \"#utility.yul\":1047:1169   */\ntag_17:\n    /* \"#utility.yul\":1120:1144   */\n  tag_34\n    /* \"#utility.yul\":1138:1143   */\n  dup2\n    /* \"#utility.yul\":1120:1144   */\n  tag_13\n  jump\t// in\ntag_34:\n    /* \"#utility.yul\":1113:1118   */\n  dup2\n    /* \"#utility.yul\":1110:1145   */\n  eq\n    /* \"#utility.yul\":1100:1163   */\n  tag_35\n  jumpi\n    /* \"#utility.yul\":1159:1160   */\n  0x00\n    /* \"#utility.yul\":1156:1157   */\n  dup1\n    /* \"#utility.yul\":1149:1161   */\n  revert\n    /* \"#utility.yul\":1100:1163   */\ntag_35:\n    /* \"#utility.yul\":1047:1169   */\n  pop\n  jump\t// out\n    /* \"#utility.yul\":1175:1318   */\ntag_18:\n    /* \"#utility.yul\":1232:1237   */\n  0x00\n    /* \"#utility.yul\":1263:1269   */\n  dup2\n    /* \"#utility.yul\":1257:1270   */\n  mload\n    /* \"#utility.yul\":1248:1270   */\n  swap1\n  pop\n    /* \"#utility.yul\":1279:1312   */\n  tag_37\n    /* \"#utility.yul\":1306:1311   */\n  dup2\n    /* \"#utility.yul\":1279:1312   */\n  tag_17\n  jump\t// in\ntag_37:\n    /* \"#utility.yul\":1175:1318   */\n  swap3\n  swap2\n  pop\n  pop\n  jump\t// out\n    /* \"#utility.yul\":1324:2027   */\ntag_3:\n    /* \"#utility.yul\":1432:1438   */\n  0x00\n    /* \"#utility.yul\":1440:1446   */\n  dup1\n    /* \"#utility.yul\":1448:1454   */\n  0x00\n    /* \"#utility.yul\":1497:1499   */\n  0x60\n    /* \"#utility.yul\":1485:1494   */\n  dup5\n    /* \"#utility.yul\":1476:1483   */\n  dup7\n    /* \"#utility.yul\":1472:1495   */\n  sub\n    /* \"#utility.yul\":1468:1500   */\n  slt\n    /* \"#utility.yul\":1465:1584   */\n  iszero\n  tag_39\n  jumpi\n    /* \"#utility.yul\":1503:1582   */\n  tag_40\n  tag_10\n  jump\t// in\ntag_40:\n    /* \"#utility.yul\":1465:1584   */\ntag_39:\n    /* \"#utility.yul\":1623:1624   */\n  0x00\n    /* \"#utility.yul\":1648:1732   */\n  tag_41\n    /* \"#utility.yul\":1724:1731   */\n  dup7\n    /* \"#utility.yul\":1715:1721   */\n  dup3\n    /* \"#utility.yul\":1704:1713   */\n  dup8\n    /* \"#utility.yul\":1700:1722   */\n  add\n    /* \"#utility.yul\":1648:1732   */\n  tag_16\n  jump\t// in\ntag_41:\n    /* \"#utility.yul\":1638:1732   */\n  swap4\n  pop\n    /* \"#utility.yul\":1594:1742   */\n  pop\n    /* \"#utility.yul\":1781:1783   */\n  0x20\n    /* \"#utility.yul\":1807:1871   */\n  tag_42\n    /* \"#utility.yul\":1863:1870   */\n  dup7\n    /* \"#utility.yul\":1854:1860   */\n  dup3\n    /* \"#utility.yul\":1843:1852   */\n  dup8\n    /* \"#utility.yul\":1839:1861   */\n  add\n    /* \"#utility.yul\":1807:1871   */\n  tag_18\n  jump\t// in\ntag_42:\n    /* \"#utility.yul\":1797:1871   */\n  swap3\n  pop\n    /* \"#utility.yul\":1752:1881   */\n  pop\n    /* \"#utility.yul\":1920:1922   */\n  0x40\n    /* \"#utility.yul\":1946:2010   */\n  tag_43\n    /* \"#utility.yul\":2002:2009   */\n  dup7\n    /* \"#utility.yul\":1993:1999   */\n  dup3\n    /* \"#utility.yul\":1982:1991   */\n  dup8\n    /* \"#utility.yul\":1978:2000   */\n  add\n    /* \"#utility.yul\":1946:2010   */\n  tag_18\n  jump\t// in\ntag_43:\n    /* \"#utility.yul\":1936:2010   */\n  swap2\n  pop\n    /* \"#utility.yul\":1891:2020   */\n  pop\n    /* \"#utility.yul\":1324:2027   */\n  swap3\n  pop\n  swap3\n  pop\n  swap3\n  jump\t// out\n    /* \"contracts/PremaidV3.sol\":797:6693  contract PairFlash is IUniswapV3FlashCallback, PeripheryImmutableState, PeripheryPayments {... */\ntag_8:\n  mload(0x80)\n  mload(0xa0)\n  mload(0xc0)\n  codecopy(0x00, dataOffset(sub_0), dataSize(sub_0))\n  0x00\n  assignImmutable(\"0x297f26e5f5f689c9c696c2b30e2448b2248065031e542a267cd018ed943fed46\")\n  0x00\n  assignImmutable(\"0x697b2229c654be6775095ebdd55318a4fcc425427cffac2b24bbf45b1574708c\")\n  0x00\n  assignImmutable(\"0x048f12d6654ff468c94a5fe76c9b74c1d8afe7efe30c47ac2460af02a58cdb97\")\n  return(0x00, dataSize(sub_0))\nstop\n\nsub_0: assembly {\n        /* \"contracts/PremaidV3.sol\":797:6693  contract PairFlash is IUniswapV3FlashCallback, PeripheryImmutableState, PeripheryPayments {... */\n      mstore(0x40, 0x80)\n      jumpi(tag_1, lt(calldatasize, 0x04))\n      shr(0xe0, calldataload(0x00))\n      dup1\n      0xc31c9c07\n      gt\n      tag_11\n      jumpi\n      dup1\n      0xc31c9c07\n      eq\n      tag_7\n      jumpi\n      dup1\n      0xc45a0155\n      eq\n      tag_8\n      jumpi\n      dup1\n      0xdf2ab5bb\n      eq\n      tag_9\n      jumpi\n      dup1\n      0xe9cbafb0\n      eq\n      tag_10\n      jumpi\n      jump(tag_2)\n    tag_11:\n      dup1\n      0x12210e8a\n      eq\n      tag_3\n      jumpi\n      dup1\n      0x2384463b\n      eq\n      tag_4\n      jumpi\n      dup1\n      0x49404b7c\n      eq\n      tag_5\n      jumpi\n      dup1\n      0x4aa4a4fc\n      eq\n      tag_6\n      jumpi\n      jump(tag_2)\n    tag_1:\n      jumpi(tag_2, calldatasize)\n        /* \"@uniswap/v3-periphery/contracts/base/PeripheryPayments.sol\":687:692  WETH9 */\n      immutable(\"0x697b2229c654be6775095ebdd55318a4fcc425427cffac2b24bbf45b1574708c\")\n        /* \"@uniswap/v3-periphery/contracts/base/PeripheryPayments.sol\":673:692  msg.sender == WETH9 */\n      0xffffffffffffffffffffffffffffffffffffffff\n      and\n        /* \"@uniswap/v3-periphery/contracts/base/PeripheryPayments.sol\":673:683  msg.sender */\n      caller\n        /* \"@uniswap/v3-periphery/contracts/base/PeripheryPayments.sol\":673:692  msg.sender == WETH9 */\n      0xffffffffffffffffffffffffffffffffffffffff\n      and\n      eq\n        /* \"@uniswap/v3-periphery/contracts/base/PeripheryPayments.sol\":665:706  require(msg.sender == WETH9, 'Not WETH9') */\n      tag_14\n      jumpi\n      mload(0x40)\n      0x08c379a000000000000000000000000000000000000000000000000000000000\n      dup2\n      mstore\n      0x04\n      add\n      tag_15\n      swap1\n      tag_16\n      jump\t// in\n    tag_15:\n      mload(0x40)\n      dup1\n      swap2\n      sub\n      swap1\n      revert\n    tag_14:\n        /* \"contracts/PremaidV3.sol\":797:6693  contract PairFlash is IUniswapV3FlashCallback, PeripheryImmutableState, PeripheryPayments {... */\n      stop\n    tag_2:\n      0x00\n      dup1\n      revert\n        /* \"@uniswap/v3-periphery/contracts/base/PeripheryPayments.sol\":1640:1800  function refundETH() external payable override {... */\n    tag_3:\n      tag_17\n      tag_18\n      jump\t// in\n    tag_17:\n      stop\n        /* \"contracts/PremaidV3.sol\":5652:6690  function initFlash(FlashParams memory params) external {... */\n    tag_4:\n      callvalue\n      dup1\n      iszero\n      tag_19\n      jumpi\n      0x00\n      dup1\n      revert\n    tag_19:\n      pop\n      tag_20\n      0x04\n      dup1\n      calldatasize\n      sub\n      dup2\n      add\n      swap1\n      tag_21\n      swap2\n      swap1\n      tag_22\n      jump\t// in\n    tag_21:\n      tag_23\n      jump\t// in\n    tag_20:\n      stop\n        /* \"@uniswap/v3-periphery/contracts/base/PeripheryPayments.sol\":758:1155  function unwrapWETH9(uint256 amountMinimum, address recipient) public payable override {... */\n    tag_5:\n      tag_24\n      0x04\n      dup1\n      calldatasize\n      sub\n      dup2\n      add\n      swap1\n      tag_25\n      swap2\n      swap1\n      tag_26\n      jump\t// in\n    tag_25:\n      tag_27\n      jump\t// in\n    tag_24:\n      stop\n        /* \"@uniswap/v3-periphery/contracts/base/PeripheryImmutableState.sol\":450:489  address public immutable override WETH9 */\n    tag_6:\n      callvalue\n      dup1\n      iszero\n      tag_28\n      jumpi\n      0x00\n      dup1\n      revert\n    tag_28:\n      pop\n      tag_29\n      tag_30\n      jump\t// in\n    tag_29:\n      mload(0x40)\n      tag_31\n      swap2\n      swap1\n      tag_32\n      jump\t// in\n    tag_31:\n      mload(0x40)\n      dup1\n      swap2\n      sub\n      swap1\n      return\n        /* \"contracts/PremaidV3.sol\":973:1012  ISwapRouter public immutable swapRouter */\n    tag_7:\n      callvalue\n      dup1\n      iszero\n      tag_33\n      jumpi\n      0x00\n      dup1\n      revert\n    tag_33:\n      pop\n      tag_34\n      tag_35\n      jump\t// in\n    tag_34:\n      mload(0x40)\n      tag_36\n      swap2\n      swap1\n      tag_37\n      jump\t// in\n    tag_36:\n      mload(0x40)\n      dup1\n      swap2\n      sub\n      swap1\n      return\n        /* \"@uniswap/v3-periphery/contracts/base/PeripheryImmutableState.sol\":358:399  address public immutable override factory */\n    tag_8:\n      callvalue\n      dup1\n      iszero\n      tag_38\n      jumpi\n      0x00\n      dup1\n      revert\n    tag_38:\n      pop\n      tag_39\n      tag_40\n      jump\t// in\n    tag_39:\n      mload(0x40)\n      tag_41\n      swap2\n      swap1\n      tag_32\n      jump\t// in\n    tag_41:\n      mload(0x40)\n      dup1\n      swap2\n      sub\n      swap1\n      return\n        /* \"@uniswap/v3-periphery/contracts/base/PeripheryPayments.sol\":1200:1595  function sweepToken(... */\n    tag_9:\n      tag_42\n      0x04\n      dup1\n      calldatasize\n      sub\n      dup2\n      add\n      swap1\n      tag_43\n      swap2\n      swap1\n      tag_44\n      jump\t// in\n    tag_43:\n      tag_45\n      jump\t// in\n    tag_42:\n      stop\n        /* \"contracts/PremaidV3.sol\":1616:4774  function uniswapV3FlashCallback(... */\n    tag_10:\n      callvalue\n      dup1\n      iszero\n      tag_46\n      jumpi\n      0x00\n      dup1\n      revert\n    tag_46:\n      pop\n      tag_47\n      0x04\n      dup1\n      calldatasize\n      sub\n      dup2\n      add\n      swap1\n      tag_48\n      swap2\n      swap1\n      tag_49\n      jump\t// in\n    tag_48:\n      tag_50\n      jump\t// in\n    tag_47:\n      stop\n        /* \"@uniswap/v3-periphery/contracts/base/PeripheryPayments.sol\":1640:1800  function refundETH() external payable override {... */\n    tag_18:\n        /* \"@uniswap/v3-periphery/contracts/base/PeripheryPayments.sol\":1725:1726  0 */\n      0x00\n        /* \"@uniswap/v3-periphery/contracts/base/PeripheryPayments.sol\":1701:1722  address(this).balance */\n      selfbalance\n        /* \"@uniswap/v3-periphery/contracts/base/PeripheryPayments.sol\":1701:1726  address(this).balance > 0 */\n      gt\n        /* \"@uniswap/v3-periphery/contracts/base/PeripheryPayments.sol\":1697:1793  if (address(this).balance > 0) TransferHelper.safeTransferETH(msg.sender, address(this).balance) */\n      iszero\n      tag_52\n      jumpi\n        /* \"@uniswap/v3-periphery/contracts/base/PeripheryPayments.sol\":1728:1793  TransferHelper.safeTransferETH(msg.sender, address(this).balance) */\n      tag_53\n        /* \"@uniswap/v3-periphery/contracts/base/PeripheryPayments.sol\":1759:1769  msg.sender */\n      caller\n        /* \"@uniswap/v3-periphery/contracts/base/PeripheryPayments.sol\":1771:1792  address(this).balance */\n      selfbalance\n        /* \"@uniswap/v3-periphery/contracts/base/PeripheryPayments.sol\":1728:1758  TransferHelper.safeTransferETH */\n      tag_54\n        /* \"@uniswap/v3-periphery/contracts/base/PeripheryPayments.sol\":1728:1793  TransferHelper.safeTransferETH(msg.sender, address(this).balance) */\n      jump\t// in\n    tag_53:\n        /* \"@uniswap/v3-periphery/contracts/base/PeripheryPayments.sol\":1697:1793  if (address(this).balance > 0) TransferHelper.safeTransferETH(msg.sender, address(this).balance) */\n    tag_52:\n        /* \"@uniswap/v3-periphery/contracts/base/PeripheryPayments.sol\":1640:1800  function refundETH() external payable override {... */\n      jump\t// out\n        /* \"contracts/PremaidV3.sol\":5652:6690  function initFlash(FlashParams memory params) external {... */\n    tag_23:\n        /* \"contracts/PremaidV3.sol\":5718:5752  PoolAddress.PoolKey memory poolKey */\n      0x00\n        /* \"contracts/PremaidV3.sol\":5768:5853  PoolAddress.PoolKey({token0: params.token0, token1: params.token1, fee: params.fee1}) */\n      mload(0x40)\n      dup1\n      0x60\n      add\n      0x40\n      mstore\n      dup1\n        /* \"contracts/PremaidV3.sol\":5797:5803  params */\n      dup4\n        /* \"contracts/PremaidV3.sol\":5797:5810  params.token0 */\n      0x00\n      add\n      mload\n        /* \"contracts/PremaidV3.sol\":5768:5853  PoolAddress.PoolKey({token0: params.token0, token1: params.token1, fee: params.fee1}) */\n      0xffffffffffffffffffffffffffffffffffffffff\n      and\n      dup2\n      mstore\n      0x20\n      add\n        /* \"contracts/PremaidV3.sol\":5820:5826  params */\n      dup4\n        /* \"contracts/PremaidV3.sol\":5820:5833  params.token1 */\n      0x20\n      add\n      mload\n        /* \"contracts/PremaidV3.sol\":5768:5853  PoolAddress.PoolKey({token0: params.token0, token1: params.token1, fee: params.fee1}) */\n      0xffffffffffffffffffffffffffffffffffffffff\n      and\n      dup2\n      mstore\n      0x20\n      add\n        /* \"contracts/PremaidV3.sol\":5840:5846  params */\n      dup4\n        /* \"contracts/PremaidV3.sol\":5840:5851  params.fee1 */\n      0x40\n      add\n      mload\n        /* \"contracts/PremaidV3.sol\":5768:5853  PoolAddress.PoolKey({token0: params.token0, token1: params.token1, fee: params.fee1}) */\n      0xffffff\n      and\n      dup2\n      mstore\n      pop\n        /* \"contracts/PremaidV3.sol\":5718:5853  PoolAddress.PoolKey memory poolKey =... */\n      swap1\n      pop\n        /* \"contracts/PremaidV3.sol\":5864:5883  IUniswapV3Pool pool */\n      0x00\n        /* \"contracts/PremaidV3.sol\":5901:5945  PoolAddress.computeAddress(factory, poolKey) */\n      tag_56\n        /* \"contracts/PremaidV3.sol\":5928:5935  factory */\n      immutable(\"0x048f12d6654ff468c94a5fe76c9b74c1d8afe7efe30c47ac2460af02a58cdb97\")\n        /* \"contracts/PremaidV3.sol\":5937:5944  poolKey */\n      dup4\n        /* \"contracts/PremaidV3.sol\":5901:5927  PoolAddress.computeAddress */\n      tag_57\n        /* \"contracts/PremaidV3.sol\":5901:5945  PoolAddress.computeAddress(factory, poolKey) */\n      jump\t// in\n    tag_56:\n        /* \"contracts/PremaidV3.sol\":5864:5946  IUniswapV3Pool pool = IUniswapV3Pool(PoolAddress.computeAddress(factory, poolKey)) */\n      swap1\n      pop\n        /* \"contracts/PremaidV3.sol\":6219:6223  pool */\n      dup1\n        /* \"contracts/PremaidV3.sol\":6219:6229  pool.flash */\n      0xffffffffffffffffffffffffffffffffffffffff\n      and\n      0x490e6cbc\n        /* \"contracts/PremaidV3.sol\":6252:6256  this */\n      address\n        /* \"contracts/PremaidV3.sol\":6272:6278  params */\n      dup6\n        /* \"contracts/PremaidV3.sol\":6272:6286  params.amount0 */\n      0x60\n      add\n      mload\n        /* \"contracts/PremaidV3.sol\":6301:6307  params */\n      dup7\n        /* \"contracts/PremaidV3.sol\":6301:6315  params.amount1 */\n      0x80\n      add\n      mload\n        /* \"contracts/PremaidV3.sol\":6359:6656  FlashCallbackData({... */\n      mload(0x40)\n      dup1\n      0xc0\n      add\n      0x40\n      mstore\n      dup1\n        /* \"contracts/PremaidV3.sol\":6409:6415  params */\n      dup10\n        /* \"contracts/PremaidV3.sol\":6409:6423  params.amount0 */\n      0x60\n      add\n      mload\n        /* \"contracts/PremaidV3.sol\":6359:6656  FlashCallbackData({... */\n      dup2\n      mstore\n      0x20\n      add\n        /* \"contracts/PremaidV3.sol\":6455:6461  params */\n      dup10\n        /* \"contracts/PremaidV3.sol\":6455:6469  params.amount1 */\n      0x80\n      add\n      mload\n        /* \"contracts/PremaidV3.sol\":6359:6656  FlashCallbackData({... */\n      dup2\n      mstore\n      0x20\n      add\n        /* \"contracts/PremaidV3.sol\":6499:6509  msg.sender */\n      caller\n        /* \"contracts/PremaidV3.sol\":6359:6656  FlashCallbackData({... */\n      0xffffffffffffffffffffffffffffffffffffffff\n      and\n      dup2\n      mstore\n      0x20\n      add\n        /* \"contracts/PremaidV3.sol\":6541:6548  poolKey */\n      dup9\n        /* \"contracts/PremaidV3.sol\":6359:6656  FlashCallbackData({... */\n      dup2\n      mstore\n      0x20\n      add\n        /* \"contracts/PremaidV3.sol\":6581:6587  params */\n      dup10\n        /* \"contracts/PremaidV3.sol\":6581:6592  params.fee2 */\n      0xa0\n      add\n      mload\n        /* \"contracts/PremaidV3.sol\":6359:6656  FlashCallbackData({... */\n      0xffffff\n      and\n      dup2\n      mstore\n      0x20\n      add\n        /* \"contracts/PremaidV3.sol\":6625:6631  params */\n      dup10\n        /* \"contracts/PremaidV3.sol\":6625:6636  params.fee3 */\n      0xc0\n      add\n      mload\n        /* \"contracts/PremaidV3.sol\":6359:6656  FlashCallbackData({... */\n      0xffffff\n      and\n      dup2\n      mstore\n      pop\n        /* \"contracts/PremaidV3.sol\":6330:6671  abi.encode(... */\n      add(0x20, mload(0x40))\n      tag_58\n      swap2\n      swap1\n      tag_59\n      jump\t// in\n    tag_58:\n      mload(0x40)\n      0x20\n      dup2\n      dup4\n      sub\n      sub\n      dup2\n      mstore\n      swap1\n      0x40\n      mstore\n        /* \"contracts/PremaidV3.sol\":6219:6682  pool.flash(... */\n      mload(0x40)\n      dup6\n      0xffffffff\n      and\n      0xe0\n      shl\n      dup2\n      mstore\n      0x04\n      add\n      tag_60\n      swap5\n      swap4\n      swap3\n      swap2\n      swap1\n      tag_61\n      jump\t// in\n    tag_60:\n      0x00\n      mload(0x40)\n      dup1\n      dup4\n      sub\n      dup2\n      0x00\n      dup8\n      dup1\n      extcodesize\n      iszero\n      dup1\n      iszero\n      tag_62\n      jumpi\n      0x00\n      dup1\n      revert\n    tag_62:\n      pop\n      gas\n      call\n      iszero\n      dup1\n      iszero\n      tag_64\n      jumpi\n      returndatasize\n      0x00\n      dup1\n      returndatacopy\n      revert(0x00, returndatasize)\n    tag_64:\n      pop\n      pop\n      pop\n      pop\n        /* \"contracts/PremaidV3.sol\":5707:6690  {... */\n      pop\n      pop\n        /* \"contracts/PremaidV3.sol\":5652:6690  function initFlash(FlashParams memory params) external {... */\n      pop\n      jump\t// out\n        /* \"@uniswap/v3-periphery/contracts/base/PeripheryPayments.sol\":758:1155  function unwrapWETH9(uint256 amountMinimum, address recipient) public payable override {... */\n    tag_27:\n        /* \"@uniswap/v3-periphery/contracts/base/PeripheryPayments.sol\":855:875  uint256 balanceWETH9 */\n      0x00\n        /* \"@uniswap/v3-periphery/contracts/base/PeripheryPayments.sol\":885:890  WETH9 */\n      immutable(\"0x697b2229c654be6775095ebdd55318a4fcc425427cffac2b24bbf45b1574708c\")\n        /* \"@uniswap/v3-periphery/contracts/base/PeripheryPayments.sol\":878:901  IWETH9(WETH9).balanceOf */\n      0xffffffffffffffffffffffffffffffffffffffff\n      and\n      0x70a08231\n        /* \"@uniswap/v3-periphery/contracts/base/PeripheryPayments.sol\":910:914  this */\n      address\n        /* \"@uniswap/v3-periphery/contracts/base/PeripheryPayments.sol\":878:916  IWETH9(WETH9).balanceOf(address(this)) */\n      mload(0x40)\n      dup3\n      0xffffffff\n      and\n      0xe0\n      shl\n      dup2\n      mstore\n      0x04\n      add\n      tag_66\n      swap2\n      swap1\n      tag_32\n      jump\t// in\n    tag_66:\n      0x20\n      mload(0x40)\n      dup1\n      dup4\n      sub\n      dup2\n      dup7\n      gas\n      staticcall\n      iszero\n      dup1\n      iszero\n      tag_68\n      jumpi\n      returndatasize\n      0x00\n      dup1\n      returndatacopy\n      revert(0x00, returndatasize)\n    tag_68:\n      pop\n      pop\n      pop\n      pop\n      mload(0x40)\n      returndatasize\n      not(0x1f)\n      0x1f\n      dup3\n      add\n      and\n      dup3\n      add\n      dup1\n      0x40\n      mstore\n      pop\n      dup2\n      add\n      swap1\n      tag_69\n      swap2\n      swap1\n      tag_70\n      jump\t// in\n    tag_69:\n        /* \"@uniswap/v3-periphery/contracts/base/PeripheryPayments.sol\":855:916  uint256 balanceWETH9 = IWETH9(WETH9).balanceOf(address(this)) */\n      swap1\n      pop\n        /* \"@uniswap/v3-periphery/contracts/base/PeripheryPayments.sol\":950:963  amountMinimum */\n      dup3\n        /* \"@uniswap/v3-periphery/contracts/base/PeripheryPayments.sol\":934:946  balanceWETH9 */\n      dup2\n        /* \"@uniswap/v3-periphery/contracts/base/PeripheryPayments.sol\":934:963  balanceWETH9 >= amountMinimum */\n      lt\n      iszero\n        /* \"@uniswap/v3-periphery/contracts/base/PeripheryPayments.sol\":926:986  require(balanceWETH9 >= amountMinimum, 'Insufficient WETH9') */\n      tag_71\n      jumpi\n      mload(0x40)\n      0x08c379a000000000000000000000000000000000000000000000000000000000\n      dup2\n      mstore\n      0x04\n      add\n      tag_72\n      swap1\n      tag_73\n      jump\t// in\n    tag_72:\n      mload(0x40)\n      dup1\n      swap2\n      sub\n      swap1\n      revert\n    tag_71:\n        /* \"@uniswap/v3-periphery/contracts/base/PeripheryPayments.sol\":1016:1017  0 */\n      0x00\n        /* \"@uniswap/v3-periphery/contracts/base/PeripheryPayments.sol\":1001:1013  balanceWETH9 */\n      dup2\n        /* \"@uniswap/v3-periphery/contracts/base/PeripheryPayments.sol\":1001:1017  balanceWETH9 > 0 */\n      gt\n        /* \"@uniswap/v3-periphery/contracts/base/PeripheryPayments.sol\":997:1149  if (balanceWETH9 > 0) {... */\n      iszero\n      tag_74\n      jumpi\n        /* \"@uniswap/v3-periphery/contracts/base/PeripheryPayments.sol\":1040:1045  WETH9 */\n      immutable(\"0x697b2229c654be6775095ebdd55318a4fcc425427cffac2b24bbf45b1574708c\")\n        /* \"@uniswap/v3-periphery/contracts/base/PeripheryPayments.sol\":1033:1055  IWETH9(WETH9).withdraw */\n      0xffffffffffffffffffffffffffffffffffffffff\n      and\n      0x2e1a7d4d\n        /* \"@uniswap/v3-periphery/contracts/base/PeripheryPayments.sol\":1056:1068  balanceWETH9 */\n      dup3\n        /* \"@uniswap/v3-periphery/contracts/base/PeripheryPayments.sol\":1033:1069  IWETH9(WETH9).withdraw(balanceWETH9) */\n      mload(0x40)\n      dup3\n      0xffffffff\n      and\n      0xe0\n      shl\n      dup2\n      mstore\n      0x04\n      add\n      tag_75\n      swap2\n      swap1\n      tag_76\n      jump\t// in\n    tag_75:\n      0x00\n      mload(0x40)\n      dup1\n      dup4\n      sub\n      dup2\n      0x00\n      dup8\n      dup1\n      extcodesize\n      iszero\n      dup1\n      iszero\n      tag_77\n      jumpi\n      0x00\n      dup1\n      revert\n    tag_77:\n      pop\n      gas\n      call\n      iszero\n      dup1\n      iszero\n      tag_79\n      jumpi\n      returndatasize\n      0x00\n      dup1\n      returndatacopy\n      revert(0x00, returndatasize)\n    tag_79:\n      pop\n      pop\n      pop\n      pop\n        /* \"@uniswap/v3-periphery/contracts/base/PeripheryPayments.sol\":1083:1138  TransferHelper.safeTransferETH(recipient, balanceWETH9) */\n      tag_80\n        /* \"@uniswap/v3-periphery/contracts/base/PeripheryPayments.sol\":1114:1123  recipient */\n      dup3\n        /* \"@uniswap/v3-periphery/contracts/base/PeripheryPayments.sol\":1125:1137  balanceWETH9 */\n      dup3\n        /* \"@uniswap/v3-periphery/contracts/base/PeripheryPayments.sol\":1083:1113  TransferHelper.safeTransferETH */\n      tag_54\n        /* \"@uniswap/v3-periphery/contracts/base/PeripheryPayments.sol\":1083:1138  TransferHelper.safeTransferETH(recipient, balanceWETH9) */\n      jump\t// in\n    tag_80:\n        /* \"@uniswap/v3-periphery/contracts/base/PeripheryPayments.sol\":997:1149  if (balanceWETH9 > 0) {... */\n    tag_74:\n        /* \"@uniswap/v3-periphery/contracts/base/PeripheryPayments.sol\":845:1155  {... */\n      pop\n        /* \"@uniswap/v3-periphery/contracts/base/PeripheryPayments.sol\":758:1155  function unwrapWETH9(uint256 amountMinimum, address recipient) public payable override {... */\n      pop\n      pop\n      jump\t// out\n        /* \"@uniswap/v3-periphery/contracts/base/PeripheryImmutableState.sol\":450:489  address public immutable override WETH9 */\n    tag_30:\n      immutable(\"0x697b2229c654be6775095ebdd55318a4fcc425427cffac2b24bbf45b1574708c\")\n      dup2\n      jump\t// out\n        /* \"contracts/PremaidV3.sol\":973:1012  ISwapRouter public immutable swapRouter */\n    tag_35:\n      immutable(\"0x297f26e5f5f689c9c696c2b30e2448b2248065031e542a267cd018ed943fed46\")\n      dup2\n      jump\t// out\n        /* \"@uniswap/v3-periphery/contracts/base/PeripheryImmutableState.sol\":358:399  address public immutable override factory */\n    tag_40:\n      immutable(\"0x048f12d6654ff468c94a5fe76c9b74c1d8afe7efe30c47ac2460af02a58cdb97\")\n      dup2\n      jump\t// out\n        /* \"@uniswap/v3-periphery/contracts/base/PeripheryPayments.sol\":1200:1595  function sweepToken(... */\n    tag_45:\n        /* \"@uniswap/v3-periphery/contracts/base/PeripheryPayments.sol\":1341:1361  uint256 balanceToken */\n      0x00\n        /* \"@uniswap/v3-periphery/contracts/base/PeripheryPayments.sol\":1371:1376  token */\n      dup4\n        /* \"@uniswap/v3-periphery/contracts/base/PeripheryPayments.sol\":1364:1387  IERC20(token).balanceOf */\n      0xffffffffffffffffffffffffffffffffffffffff\n      and\n      0x70a08231\n        /* \"@uniswap/v3-periphery/contracts/base/PeripheryPayments.sol\":1396:1400  this */\n      address\n        /* \"@uniswap/v3-periphery/contracts/base/PeripheryPayments.sol\":1364:1402  IERC20(token).balanceOf(address(this)) */\n      mload(0x40)\n      dup3\n      0xffffffff\n      and\n      0xe0\n      shl\n      dup2\n      mstore\n      0x04\n      add\n      tag_82\n      swap2\n      swap1\n      tag_32\n      jump\t// in\n    tag_82:\n      0x20\n      mload(0x40)\n      dup1\n      dup4\n      sub\n      dup2\n      dup7\n      gas\n      staticcall\n      iszero\n      dup1\n      iszero\n      tag_84\n      jumpi\n      returndatasize\n      0x00\n      dup1\n      returndatacopy\n      revert(0x00, returndatasize)\n    tag_84:\n      pop\n      pop\n      pop\n      pop\n      mload(0x40)\n      returndatasize\n      not(0x1f)\n      0x1f\n      dup3\n      add\n      and\n      dup3\n      add\n      dup1\n      0x40\n      mstore\n      pop\n      dup2\n      add\n      swap1\n      tag_85\n      swap2\n      swap1\n      tag_70\n      jump\t// in\n    tag_85:\n        /* \"@uniswap/v3-periphery/contracts/base/PeripheryPayments.sol\":1341:1402  uint256 balanceToken = IERC20(token).balanceOf(address(this)) */\n      swap1\n      pop\n        /* \"@uniswap/v3-periphery/contracts/base/PeripheryPayments.sol\":1436:1449  amountMinimum */\n      dup3\n        /* \"@uniswap/v3-periphery/contracts/base/PeripheryPayments.sol\":1420:1432  balanceToken */\n      dup2\n        /* \"@uniswap/v3-periphery/contracts/base/PeripheryPayments.sol\":1420:1449  balanceToken >= amountMinimum */\n      lt\n      iszero\n        /* \"@uniswap/v3-periphery/contracts/base/PeripheryPayments.sol\":1412:1472  require(balanceToken >= amountMinimum, 'Insufficient token') */\n      tag_86\n      jumpi\n      mload(0x40)\n      0x08c379a000000000000000000000000000000000000000000000000000000000\n      dup2\n      mstore\n      0x04\n      add\n      tag_87\n      swap1\n      tag_88\n      jump\t// in\n    tag_87:\n      mload(0x40)\n      dup1\n      swap2\n      sub\n      swap1\n      revert\n    tag_86:\n        /* \"@uniswap/v3-periphery/contracts/base/PeripheryPayments.sol\":1502:1503  0 */\n      0x00\n        /* \"@uniswap/v3-periphery/contracts/base/PeripheryPayments.sol\":1487:1499  balanceToken */\n      dup2\n        /* \"@uniswap/v3-periphery/contracts/base/PeripheryPayments.sol\":1487:1503  balanceToken > 0 */\n      gt\n        /* \"@uniswap/v3-periphery/contracts/base/PeripheryPayments.sol\":1483:1589  if (balanceToken > 0) {... */\n      iszero\n      tag_89\n      jumpi\n        /* \"@uniswap/v3-periphery/contracts/base/PeripheryPayments.sol\":1519:1578  TransferHelper.safeTransfer(token, recipient, balanceToken) */\n      tag_90\n        /* \"@uniswap/v3-periphery/contracts/base/PeripheryPayments.sol\":1547:1552  token */\n      dup5\n        /* \"@uniswap/v3-periphery/contracts/base/PeripheryPayments.sol\":1554:1563  recipient */\n      dup4\n        /* \"@uniswap/v3-periphery/contracts/base/PeripheryPayments.sol\":1565:1577  balanceToken */\n      dup4\n        /* \"@uniswap/v3-periphery/contracts/base/PeripheryPayments.sol\":1519:1546  TransferHelper.safeTransfer */\n      tag_91\n        /* \"@uniswap/v3-periphery/contracts/base/PeripheryPayments.sol\":1519:1578  TransferHelper.safeTransfer(token, recipient, balanceToken) */\n      jump\t// in\n    tag_90:\n        /* \"@uniswap/v3-periphery/contracts/base/PeripheryPayments.sol\":1483:1589  if (balanceToken > 0) {... */\n    tag_89:\n        /* \"@uniswap/v3-periphery/contracts/base/PeripheryPayments.sol\":1331:1595  {... */\n      pop\n        /* \"@uniswap/v3-periphery/contracts/base/PeripheryPayments.sol\":1200:1595  function sweepToken(... */\n      pop\n      pop\n      pop\n      jump\t// out\n        /* \"contracts/PremaidV3.sol\":1616:4774  function uniswapV3FlashCallback(... */\n    tag_50:\n        /* \"contracts/PremaidV3.sol\":1760:1792  FlashCallbackData memory decoded */\n      0x00\n        /* \"contracts/PremaidV3.sol\":1806:1810  data */\n      dup3\n      dup3\n        /* \"contracts/PremaidV3.sol\":1795:1832  abi.decode(data, (FlashCallbackData)) */\n      dup2\n      add\n      swap1\n      tag_93\n      swap2\n      swap1\n      tag_94\n      jump\t// in\n    tag_93:\n        /* \"contracts/PremaidV3.sol\":1760:1832  FlashCallbackData memory decoded = abi.decode(data, (FlashCallbackData)) */\n      swap1\n      pop\n        /* \"contracts/PremaidV3.sol\":1843:1902  CallbackValidation.verifyCallback(factory, decoded.poolKey) */\n      tag_95\n        /* \"contracts/PremaidV3.sol\":1877:1884  factory */\n      immutable(\"0x048f12d6654ff468c94a5fe76c9b74c1d8afe7efe30c47ac2460af02a58cdb97\")\n        /* \"contracts/PremaidV3.sol\":1886:1893  decoded */\n      dup3\n        /* \"contracts/PremaidV3.sol\":1886:1901  decoded.poolKey */\n      0x60\n      add\n      mload\n        /* \"contracts/PremaidV3.sol\":1843:1876  CallbackValidation.verifyCallback */\n      tag_96\n        /* \"contracts/PremaidV3.sol\":1843:1902  CallbackValidation.verifyCallback(factory, decoded.poolKey) */\n      jump\t// in\n    tag_95:\n      pop\n        /* \"contracts/PremaidV3.sol\":1915:1929  address token0 */\n      0x00\n        /* \"contracts/PremaidV3.sol\":1932:1939  decoded */\n      dup2\n        /* \"contracts/PremaidV3.sol\":1932:1947  decoded.poolKey */\n      0x60\n      add\n      mload\n        /* \"contracts/PremaidV3.sol\":1932:1954  decoded.poolKey.token0 */\n      0x00\n      add\n      mload\n        /* \"contracts/PremaidV3.sol\":1915:1954  address token0 = decoded.poolKey.token0 */\n      swap1\n      pop\n        /* \"contracts/PremaidV3.sol\":1965:1979  address token1 */\n      0x00\n        /* \"contracts/PremaidV3.sol\":1982:1989  decoded */\n      dup3\n        /* \"contracts/PremaidV3.sol\":1982:1997  decoded.poolKey */\n      0x60\n      add\n      mload\n        /* \"contracts/PremaidV3.sol\":1982:2004  decoded.poolKey.token1 */\n      0x20\n      add\n      mload\n        /* \"contracts/PremaidV3.sol\":1965:2004  address token1 = decoded.poolKey.token1 */\n      swap1\n      pop\n        /* \"contracts/PremaidV3.sol\":2017:2089  TransferHelper.safeApprove(token0, address(swapRouter), decoded.amount0) */\n      tag_97\n        /* \"contracts/PremaidV3.sol\":2044:2050  token0 */\n      dup3\n        /* \"contracts/PremaidV3.sol\":2060:2070  swapRouter */\n      immutable(\"0x297f26e5f5f689c9c696c2b30e2448b2248065031e542a267cd018ed943fed46\")\n        /* \"contracts/PremaidV3.sol\":2073:2080  decoded */\n      dup6\n        /* \"contracts/PremaidV3.sol\":2073:2088  decoded.amount0 */\n      0x00\n      add\n      mload\n        /* \"contracts/PremaidV3.sol\":2017:2043  TransferHelper.safeApprove */\n      tag_98\n        /* \"contracts/PremaidV3.sol\":2017:2089  TransferHelper.safeApprove(token0, address(swapRouter), decoded.amount0) */\n      jump\t// in\n    tag_97:\n        /* \"contracts/PremaidV3.sol\":2100:2172  TransferHelper.safeApprove(token1, address(swapRouter), decoded.amount1) */\n      tag_99\n        /* \"contracts/PremaidV3.sol\":2127:2133  token1 */\n      dup2\n        /* \"contracts/PremaidV3.sol\":2143:2153  swapRouter */\n      immutable(\"0x297f26e5f5f689c9c696c2b30e2448b2248065031e542a267cd018ed943fed46\")\n        /* \"contracts/PremaidV3.sol\":2156:2163  decoded */\n      dup6\n        /* \"contracts/PremaidV3.sol\":2156:2171  decoded.amount1 */\n      0x20\n      add\n      mload\n        /* \"contracts/PremaidV3.sol\":2100:2126  TransferHelper.safeApprove */\n      tag_98\n        /* \"contracts/PremaidV3.sol\":2100:2172  TransferHelper.safeApprove(token1, address(swapRouter), decoded.amount1) */\n      jump\t// in\n    tag_99:\n        /* \"contracts/PremaidV3.sol\":2276:2294  uint256 amount1Min */\n      0x00\n        /* \"contracts/PremaidV3.sol\":2297:2338  LowGasSafeMath.add(decoded.amount1, fee1) */\n      tag_100\n        /* \"contracts/PremaidV3.sol\":2316:2323  decoded */\n      dup5\n        /* \"contracts/PremaidV3.sol\":2316:2331  decoded.amount1 */\n      0x20\n      add\n      mload\n        /* \"contracts/PremaidV3.sol\":2333:2337  fee1 */\n      dup9\n        /* \"contracts/PremaidV3.sol\":2297:2315  LowGasSafeMath.add */\n      tag_101\n        /* \"contracts/PremaidV3.sol\":2297:2338  LowGasSafeMath.add(decoded.amount1, fee1) */\n      jump\t// in\n    tag_100:\n        /* \"contracts/PremaidV3.sol\":2276:2338  uint256 amount1Min = LowGasSafeMath.add(decoded.amount1, fee1) */\n      swap1\n      pop\n        /* \"contracts/PremaidV3.sol\":2349:2367  uint256 amount0Min */\n      0x00\n        /* \"contracts/PremaidV3.sol\":2370:2411  LowGasSafeMath.add(decoded.amount0, fee0) */\n      tag_102\n        /* \"contracts/PremaidV3.sol\":2389:2396  decoded */\n      dup6\n        /* \"contracts/PremaidV3.sol\":2389:2404  decoded.amount0 */\n      0x00\n      add\n      mload\n        /* \"contracts/PremaidV3.sol\":2406:2410  fee0 */\n      dup11\n        /* \"contracts/PremaidV3.sol\":2370:2388  LowGasSafeMath.add */\n      tag_101\n        /* \"contracts/PremaidV3.sol\":2370:2411  LowGasSafeMath.add(decoded.amount0, fee0) */\n      jump\t// in\n    tag_102:\n        /* \"contracts/PremaidV3.sol\":2349:2411  uint256 amount0Min = LowGasSafeMath.add(decoded.amount0, fee0) */\n      swap1\n      pop\n        /* \"contracts/PremaidV3.sol\":2504:2522  uint256 amountOut0 */\n      0x00\n        /* \"contracts/PremaidV3.sol\":2538:2548  swapRouter */\n      immutable(\"0x297f26e5f5f689c9c696c2b30e2448b2248065031e542a267cd018ed943fed46\")\n        /* \"contracts/PremaidV3.sol\":2538:2565  swapRouter.exactInputSingle */\n      0xffffffffffffffffffffffffffffffffffffffff\n      and\n      0x414bf389\n        /* \"contracts/PremaidV3.sol\":2584:2997  ISwapRouter.ExactInputSingleParams({... */\n      mload(0x40)\n      dup1\n      0x0100\n      add\n      0x40\n      mstore\n      dup1\n        /* \"contracts/PremaidV3.sol\":2651:2657  token1 */\n      dup8\n        /* \"contracts/PremaidV3.sol\":2584:2997  ISwapRouter.ExactInputSingleParams({... */\n      0xffffffffffffffffffffffffffffffffffffffff\n      and\n      dup2\n      mstore\n      0x20\n      add\n        /* \"contracts/PremaidV3.sol\":2690:2696  token0 */\n      dup9\n        /* \"contracts/PremaidV3.sol\":2584:2997  ISwapRouter.ExactInputSingleParams({... */\n      0xffffffffffffffffffffffffffffffffffffffff\n      and\n      dup2\n      mstore\n      0x20\n      add\n        /* \"contracts/PremaidV3.sol\":2724:2731  decoded */\n      dup10\n        /* \"contracts/PremaidV3.sol\":2724:2740  decoded.poolFee2 */\n      0x80\n      add\n      mload\n        /* \"contracts/PremaidV3.sol\":2584:2997  ISwapRouter.ExactInputSingleParams({... */\n      0xffffff\n      and\n      dup2\n      mstore\n      0x20\n      add\n        /* \"contracts/PremaidV3.sol\":2782:2786  this */\n      address\n        /* \"contracts/PremaidV3.sol\":2584:2997  ISwapRouter.ExactInputSingleParams({... */\n      0xffffffffffffffffffffffffffffffffffffffff\n      and\n      dup2\n      mstore\n      0x20\n      add\n        /* \"contracts/PremaidV3.sol\":2820:2835  block.timestamp */\n      timestamp\n        /* \"contracts/PremaidV3.sol\":2584:2997  ISwapRouter.ExactInputSingleParams({... */\n      dup2\n      mstore\n      0x20\n      add\n        /* \"contracts/PremaidV3.sol\":2868:2875  decoded */\n      dup10\n        /* \"contracts/PremaidV3.sol\":2868:2883  decoded.amount1 */\n      0x20\n      add\n      mload\n        /* \"contracts/PremaidV3.sol\":2584:2997  ISwapRouter.ExactInputSingleParams({... */\n      dup2\n      mstore\n      0x20\n      add\n        /* \"contracts/PremaidV3.sol\":2924:2934  amount0Min */\n      dup6\n        /* \"contracts/PremaidV3.sol\":2584:2997  ISwapRouter.ExactInputSingleParams({... */\n      dup2\n      mstore\n      0x20\n      add\n        /* \"contracts/PremaidV3.sol\":2976:2977  0 */\n      0x00\n        /* \"contracts/PremaidV3.sol\":2584:2997  ISwapRouter.ExactInputSingleParams({... */\n      0xffffffffffffffffffffffffffffffffffffffff\n      and\n      dup2\n      mstore\n      pop\n        /* \"contracts/PremaidV3.sol\":2538:3012  swapRouter.exactInputSingle(... */\n      mload(0x40)\n      dup3\n      0xffffffff\n      and\n      0xe0\n      shl\n      dup2\n      mstore\n      0x04\n      add\n      tag_103\n      swap2\n      swap1\n      tag_104\n      jump\t// in\n    tag_103:\n      0x20\n      mload(0x40)\n      dup1\n      dup4\n      sub\n      dup2\n      0x00\n      dup8\n      gas\n      call\n      iszero\n      dup1\n      iszero\n      tag_106\n      jumpi\n      returndatasize\n      0x00\n      dup1\n      returndatacopy\n      revert(0x00, returndatasize)\n    tag_106:\n      pop\n      pop\n      pop\n      pop\n      mload(0x40)\n      returndatasize\n      not(0x1f)\n      0x1f\n      dup3\n      add\n      and\n      dup3\n      add\n      dup1\n      0x40\n      mstore\n      pop\n      dup2\n      add\n      swap1\n      tag_107\n      swap2\n      swap1\n      tag_70\n      jump\t// in\n    tag_107:\n        /* \"contracts/PremaidV3.sol\":2504:3012  uint256 amountOut0 =... */\n      swap1\n      pop\n        /* \"contracts/PremaidV3.sol\":3106:3124  uint256 amountOut1 */\n      0x00\n        /* \"contracts/PremaidV3.sol\":3140:3150  swapRouter */\n      immutable(\"0x297f26e5f5f689c9c696c2b30e2448b2248065031e542a267cd018ed943fed46\")\n        /* \"contracts/PremaidV3.sol\":3140:3167  swapRouter.exactInputSingle */\n      0xffffffffffffffffffffffffffffffffffffffff\n      and\n      0x414bf389\n        /* \"contracts/PremaidV3.sol\":3186:3599  ISwapRouter.ExactInputSingleParams({... */\n      mload(0x40)\n      dup1\n      0x0100\n      add\n      0x40\n      mstore\n      dup1\n        /* \"contracts/PremaidV3.sol\":3253:3259  token0 */\n      dup10\n        /* \"contracts/PremaidV3.sol\":3186:3599  ISwapRouter.ExactInputSingleParams({... */\n      0xffffffffffffffffffffffffffffffffffffffff\n      and\n      dup2\n      mstore\n      0x20\n      add\n        /* \"contracts/PremaidV3.sol\":3292:3298  token1 */\n      dup9\n        /* \"contracts/PremaidV3.sol\":3186:3599  ISwapRouter.ExactInputSingleParams({... */\n      0xffffffffffffffffffffffffffffffffffffffff\n      and\n      dup2\n      mstore\n      0x20\n      add\n        /* \"contracts/PremaidV3.sol\":3326:3333  decoded */\n      dup11\n        /* \"contracts/PremaidV3.sol\":3326:3342  decoded.poolFee3 */\n      0xa0\n      add\n      mload\n        /* \"contracts/PremaidV3.sol\":3186:3599  ISwapRouter.ExactInputSingleParams({... */\n      0xffffff\n      and\n      dup2\n      mstore\n      0x20\n      add\n        /* \"contracts/PremaidV3.sol\":3384:3388  this */\n      address\n        /* \"contracts/PremaidV3.sol\":3186:3599  ISwapRouter.ExactInputSingleParams({... */\n      0xffffffffffffffffffffffffffffffffffffffff\n      and\n      dup2\n      mstore\n      0x20\n      add\n        /* \"contracts/PremaidV3.sol\":3422:3437  block.timestamp */\n      timestamp\n        /* \"contracts/PremaidV3.sol\":3186:3599  ISwapRouter.ExactInputSingleParams({... */\n      dup2\n      mstore\n      0x20\n      add\n        /* \"contracts/PremaidV3.sol\":3470:3477  decoded */\n      dup11\n        /* \"contracts/PremaidV3.sol\":3470:3485  decoded.amount0 */\n      0x00\n      add\n      mload\n        /* \"contracts/PremaidV3.sol\":3186:3599  ISwapRouter.ExactInputSingleParams({... */\n      dup2\n      mstore\n      0x20\n      add\n        /* \"contracts/PremaidV3.sol\":3526:3536  amount1Min */\n      dup8\n        /* \"contracts/PremaidV3.sol\":3186:3599  ISwapRouter.ExactInputSingleParams({... */\n      dup2\n      mstore\n      0x20\n      add\n        /* \"contracts/PremaidV3.sol\":3578:3579  0 */\n      0x00\n        /* \"contracts/PremaidV3.sol\":3186:3599  ISwapRouter.ExactInputSingleParams({... */\n      0xffffffffffffffffffffffffffffffffffffffff\n      and\n      dup2\n      mstore\n      pop\n        /* \"contracts/PremaidV3.sol\":3140:3614  swapRouter.exactInputSingle(... */\n      mload(0x40)\n      dup3\n      0xffffffff\n      and\n      0xe0\n      shl\n      dup2\n      mstore\n      0x04\n      add\n      tag_108\n      swap2\n      swap1\n      tag_104\n      jump\t// in\n    tag_108:\n      0x20\n      mload(0x40)\n      dup1\n      dup4\n      sub\n      dup2\n      0x00\n      dup8\n      gas\n      call\n      iszero\n      dup1\n      iszero\n      tag_110\n      jumpi\n      returndatasize\n      0x00\n      dup1\n      returndatacopy\n      revert(0x00, returndatasize)\n    tag_110:\n      pop\n      pop\n      pop\n      pop\n      mload(0x40)\n      returndatasize\n      not(0x1f)\n      0x1f\n      dup3\n      add\n      and\n      dup3\n      add\n      dup1\n      0x40\n      mstore\n      pop\n      dup2\n      add\n      swap1\n      tag_111\n      swap2\n      swap1\n      tag_70\n      jump\t// in\n    tag_111:\n        /* \"contracts/PremaidV3.sol\":3106:3614  uint256 amountOut1 =... */\n      swap1\n      pop\n        /* \"contracts/PremaidV3.sol\":3730:3749  uint256 amount0Owed */\n      0x00\n        /* \"contracts/PremaidV3.sol\":3752:3793  LowGasSafeMath.add(decoded.amount0, fee0) */\n      tag_112\n        /* \"contracts/PremaidV3.sol\":3771:3778  decoded */\n      dup9\n        /* \"contracts/PremaidV3.sol\":3771:3786  decoded.amount0 */\n      0x00\n      add\n      mload\n        /* \"contracts/PremaidV3.sol\":3788:3792  fee0 */\n      dup14\n        /* \"contracts/PremaidV3.sol\":3752:3770  LowGasSafeMath.add */\n      tag_101\n        /* \"contracts/PremaidV3.sol\":3752:3793  LowGasSafeMath.add(decoded.amount0, fee0) */\n      jump\t// in\n    tag_112:\n        /* \"contracts/PremaidV3.sol\":3730:3793  uint256 amount0Owed = LowGasSafeMath.add(decoded.amount0, fee0) */\n      swap1\n      pop\n        /* \"contracts/PremaidV3.sol\":3804:3823  uint256 amount1Owed */\n      0x00\n        /* \"contracts/PremaidV3.sol\":3826:3867  LowGasSafeMath.add(decoded.amount1, fee1) */\n      tag_113\n        /* \"contracts/PremaidV3.sol\":3845:3852  decoded */\n      dup10\n        /* \"contracts/PremaidV3.sol\":3845:3860  decoded.amount1 */\n      0x20\n      add\n      mload\n        /* \"contracts/PremaidV3.sol\":3862:3866  fee1 */\n      dup14\n        /* \"contracts/PremaidV3.sol\":3826:3844  LowGasSafeMath.add */\n      tag_101\n        /* \"contracts/PremaidV3.sol\":3826:3867  LowGasSafeMath.add(decoded.amount1, fee1) */\n      jump\t// in\n    tag_113:\n        /* \"contracts/PremaidV3.sol\":3804:3867  uint256 amount1Owed = LowGasSafeMath.add(decoded.amount1, fee1) */\n      swap1\n      pop\n        /* \"contracts/PremaidV3.sol\":3880:3942  TransferHelper.safeApprove(token0, address(this), amount0Owed) */\n      tag_114\n        /* \"contracts/PremaidV3.sol\":3907:3913  token0 */\n      dup9\n        /* \"contracts/PremaidV3.sol\":3923:3927  this */\n      address\n        /* \"contracts/PremaidV3.sol\":3930:3941  amount0Owed */\n      dup5\n        /* \"contracts/PremaidV3.sol\":3880:3906  TransferHelper.safeApprove */\n      tag_98\n        /* \"contracts/PremaidV3.sol\":3880:3942  TransferHelper.safeApprove(token0, address(this), amount0Owed) */\n      jump\t// in\n    tag_114:\n        /* \"contracts/PremaidV3.sol\":3953:4015  TransferHelper.safeApprove(token1, address(this), amount1Owed) */\n      tag_115\n        /* \"contracts/PremaidV3.sol\":3980:3986  token1 */\n      dup8\n        /* \"contracts/PremaidV3.sol\":3996:4000  this */\n      address\n        /* \"contracts/PremaidV3.sol\":4003:4014  amount1Owed */\n      dup4\n        /* \"contracts/PremaidV3.sol\":3953:3979  TransferHelper.safeApprove */\n      tag_98\n        /* \"contracts/PremaidV3.sol\":3953:4015  TransferHelper.safeApprove(token1, address(this), amount1Owed) */\n      jump\t// in\n    tag_115:\n        /* \"contracts/PremaidV3.sol\":4046:4047  0 */\n      0x00\n        /* \"contracts/PremaidV3.sol\":4032:4043  amount0Owed */\n      dup3\n        /* \"contracts/PremaidV3.sol\":4032:4047  amount0Owed > 0 */\n      gt\n        /* \"contracts/PremaidV3.sol\":4028:4100  if (amount0Owed > 0) pay(token0, address(this), msg.sender, amount0Owed) */\n      iszero\n      tag_116\n      jumpi\n        /* \"contracts/PremaidV3.sol\":4049:4100  pay(token0, address(this), msg.sender, amount0Owed) */\n      tag_117\n        /* \"contracts/PremaidV3.sol\":4053:4059  token0 */\n      dup9\n        /* \"contracts/PremaidV3.sol\":4069:4073  this */\n      address\n        /* \"contracts/PremaidV3.sol\":4076:4086  msg.sender */\n      caller\n        /* \"contracts/PremaidV3.sol\":4088:4099  amount0Owed */\n      dup6\n        /* \"contracts/PremaidV3.sol\":4049:4052  pay */\n      tag_118\n        /* \"contracts/PremaidV3.sol\":4049:4100  pay(token0, address(this), msg.sender, amount0Owed) */\n      jump\t// in\n    tag_117:\n        /* \"contracts/PremaidV3.sol\":4028:4100  if (amount0Owed > 0) pay(token0, address(this), msg.sender, amount0Owed) */\n    tag_116:\n        /* \"contracts/PremaidV3.sol\":4129:4130  0 */\n      0x00\n        /* \"contracts/PremaidV3.sol\":4115:4126  amount1Owed */\n      dup2\n        /* \"contracts/PremaidV3.sol\":4115:4130  amount1Owed > 0 */\n      gt\n        /* \"contracts/PremaidV3.sol\":4111:4183  if (amount1Owed > 0) pay(token1, address(this), msg.sender, amount1Owed) */\n      iszero\n      tag_119\n      jumpi\n        /* \"contracts/PremaidV3.sol\":4132:4183  pay(token1, address(this), msg.sender, amount1Owed) */\n      tag_120\n        /* \"contracts/PremaidV3.sol\":4136:4142  token1 */\n      dup8\n        /* \"contracts/PremaidV3.sol\":4152:4156  this */\n      address\n        /* \"contracts/PremaidV3.sol\":4159:4169  msg.sender */\n      caller\n        /* \"contracts/PremaidV3.sol\":4171:4182  amount1Owed */\n      dup5\n        /* \"contracts/PremaidV3.sol\":4132:4135  pay */\n      tag_118\n        /* \"contracts/PremaidV3.sol\":4132:4183  pay(token1, address(this), msg.sender, amount1Owed) */\n      jump\t// in\n    tag_120:\n        /* \"contracts/PremaidV3.sol\":4111:4183  if (amount1Owed > 0) pay(token1, address(this), msg.sender, amount1Owed) */\n    tag_119:\n        /* \"contracts/PremaidV3.sol\":4260:4271  amount0Owed */\n      dup2\n        /* \"contracts/PremaidV3.sol\":4247:4257  amountOut0 */\n      dup5\n        /* \"contracts/PremaidV3.sol\":4247:4271  amountOut0 > amount0Owed */\n      gt\n        /* \"contracts/PremaidV3.sol\":4243:4501  if (amountOut0 > amount0Owed) {... */\n      iszero\n      tag_121\n      jumpi\n        /* \"contracts/PremaidV3.sol\":4288:4303  uint256 profit0 */\n      0x00\n        /* \"contracts/PremaidV3.sol\":4306:4349  LowGasSafeMath.sub(amountOut0, amount0Owed) */\n      tag_122\n        /* \"contracts/PremaidV3.sol\":4325:4335  amountOut0 */\n      dup6\n        /* \"contracts/PremaidV3.sol\":4337:4348  amount0Owed */\n      dup5\n        /* \"contracts/PremaidV3.sol\":4306:4324  LowGasSafeMath.sub */\n      tag_123\n        /* \"contracts/PremaidV3.sol\":4306:4349  LowGasSafeMath.sub(amountOut0, amount0Owed) */\n      jump\t// in\n    tag_122:\n        /* \"contracts/PremaidV3.sol\":4288:4349  uint256 profit0 = LowGasSafeMath.sub(amountOut0, amount0Owed) */\n      swap1\n      pop\n        /* \"contracts/PremaidV3.sol\":4366:4424  TransferHelper.safeApprove(token0, address(this), profit0) */\n      tag_124\n        /* \"contracts/PremaidV3.sol\":4393:4399  token0 */\n      dup10\n        /* \"contracts/PremaidV3.sol\":4409:4413  this */\n      address\n        /* \"contracts/PremaidV3.sol\":4416:4423  profit0 */\n      dup4\n        /* \"contracts/PremaidV3.sol\":4366:4392  TransferHelper.safeApprove */\n      tag_98\n        /* \"contracts/PremaidV3.sol\":4366:4424  TransferHelper.safeApprove(token0, address(this), profit0) */\n      jump\t// in\n    tag_124:\n        /* \"contracts/PremaidV3.sol\":4439:4489  pay(token0, address(this), decoded.payer, profit0) */\n      tag_125\n        /* \"contracts/PremaidV3.sol\":4443:4449  token0 */\n      dup10\n        /* \"contracts/PremaidV3.sol\":4459:4463  this */\n      address\n        /* \"contracts/PremaidV3.sol\":4466:4473  decoded */\n      dup13\n        /* \"contracts/PremaidV3.sol\":4466:4479  decoded.payer */\n      0x40\n      add\n      mload\n        /* \"contracts/PremaidV3.sol\":4481:4488  profit0 */\n      dup5\n        /* \"contracts/PremaidV3.sol\":4439:4442  pay */\n      tag_118\n        /* \"contracts/PremaidV3.sol\":4439:4489  pay(token0, address(this), decoded.payer, profit0) */\n      jump\t// in\n    tag_125:\n        /* \"contracts/PremaidV3.sol\":4273:4501  {... */\n      pop\n        /* \"contracts/PremaidV3.sol\":4243:4501  if (amountOut0 > amount0Owed) {... */\n    tag_121:\n        /* \"contracts/PremaidV3.sol\":4528:4539  amount1Owed */\n      dup1\n        /* \"contracts/PremaidV3.sol\":4515:4525  amountOut1 */\n      dup4\n        /* \"contracts/PremaidV3.sol\":4515:4539  amountOut1 > amount1Owed */\n      gt\n        /* \"contracts/PremaidV3.sol\":4511:4767  if (amountOut1 > amount1Owed) {... */\n      iszero\n      tag_126\n      jumpi\n        /* \"contracts/PremaidV3.sol\":4556:4571  uint256 profit1 */\n      0x00\n        /* \"contracts/PremaidV3.sol\":4574:4617  LowGasSafeMath.sub(amountOut1, amount1Owed) */\n      tag_127\n        /* \"contracts/PremaidV3.sol\":4593:4603  amountOut1 */\n      dup5\n        /* \"contracts/PremaidV3.sol\":4605:4616  amount1Owed */\n      dup4\n        /* \"contracts/PremaidV3.sol\":4574:4592  LowGasSafeMath.sub */\n      tag_123\n        /* \"contracts/PremaidV3.sol\":4574:4617  LowGasSafeMath.sub(amountOut1, amount1Owed) */\n      jump\t// in\n    tag_127:\n        /* \"contracts/PremaidV3.sol\":4556:4617  uint256 profit1 = LowGasSafeMath.sub(amountOut1, amount1Owed) */\n      swap1\n      pop\n        /* \"contracts/PremaidV3.sol\":4632:4690  TransferHelper.safeApprove(token0, address(this), profit1) */\n      tag_128\n        /* \"contracts/PremaidV3.sol\":4659:4665  token0 */\n      dup10\n        /* \"contracts/PremaidV3.sol\":4675:4679  this */\n      address\n        /* \"contracts/PremaidV3.sol\":4682:4689  profit1 */\n      dup4\n        /* \"contracts/PremaidV3.sol\":4632:4658  TransferHelper.safeApprove */\n      tag_98\n        /* \"contracts/PremaidV3.sol\":4632:4690  TransferHelper.safeApprove(token0, address(this), profit1) */\n      jump\t// in\n    tag_128:\n        /* \"contracts/PremaidV3.sol\":4705:4755  pay(token1, address(this), decoded.payer, profit1) */\n      tag_129\n        /* \"contracts/PremaidV3.sol\":4709:4715  token1 */\n      dup9\n        /* \"contracts/PremaidV3.sol\":4725:4729  this */\n      address\n        /* \"contracts/PremaidV3.sol\":4732:4739  decoded */\n      dup13\n        /* \"contracts/PremaidV3.sol\":4732:4745  decoded.payer */\n      0x40\n      add\n      mload\n        /* \"contracts/PremaidV3.sol\":4747:4754  profit1 */\n      dup5\n        /* \"contracts/PremaidV3.sol\":4705:4708  pay */\n      tag_118\n        /* \"contracts/PremaidV3.sol\":4705:4755  pay(token1, address(this), decoded.payer, profit1) */\n      jump\t// in\n    tag_129:\n        /* \"contracts/PremaidV3.sol\":4541:4767  {... */\n      pop\n        /* \"contracts/PremaidV3.sol\":4511:4767  if (amountOut1 > amount1Owed) {... */\n    tag_126:\n        /* \"contracts/PremaidV3.sol\":1749:4774  {... */\n      pop\n      pop\n      pop\n      pop\n      pop\n      pop\n      pop\n      pop\n      pop\n        /* \"contracts/PremaidV3.sol\":1616:4774  function uniswapV3FlashCallback(... */\n      pop\n      pop\n      pop\n      pop\n      jump\t// out\n        /* \"@uniswap/v3-periphery/contracts/libraries/TransferHelper.sol\":2370:2535  function safeTransferETH(address to, uint256 value) internal {... */\n    tag_54:\n        /* \"@uniswap/v3-periphery/contracts/libraries/TransferHelper.sol\":2442:2454  bool success */\n      0x00\n        /* \"@uniswap/v3-periphery/contracts/libraries/TransferHelper.sol\":2460:2462  to */\n      dup3\n        /* \"@uniswap/v3-periphery/contracts/libraries/TransferHelper.sol\":2460:2467  to.call */\n      0xffffffffffffffffffffffffffffffffffffffff\n      and\n        /* \"@uniswap/v3-periphery/contracts/libraries/TransferHelper.sol\":2475:2480  value */\n      dup3\n        /* \"@uniswap/v3-periphery/contracts/libraries/TransferHelper.sol\":2492:2493  0 */\n      0x00\n        /* \"@uniswap/v3-periphery/contracts/libraries/TransferHelper.sol\":2482:2494  new bytes(0) */\n      0xffffffffffffffff\n      dup2\n      gt\n      iszero\n      tag_131\n      jumpi\n      tag_132\n      tag_133\n      jump\t// in\n    tag_132:\n    tag_131:\n      mload(0x40)\n      swap1\n      dup1\n      dup3\n      mstore\n      dup1\n      0x1f\n      add\n      not(0x1f)\n      and\n      0x20\n      add\n      dup3\n      add\n      0x40\n      mstore\n      dup1\n      iszero\n      tag_134\n      jumpi\n      dup2\n      0x20\n      add\n      0x01\n      dup3\n      mul\n      dup1\n      calldatasize\n      dup4\n      calldatacopy\n      dup1\n      dup3\n      add\n      swap2\n      pop\n      pop\n      swap1\n      pop\n    tag_134:\n      pop\n        /* \"@uniswap/v3-periphery/contracts/libraries/TransferHelper.sol\":2460:2495  to.call{value: value}(new bytes(0)) */\n      mload(0x40)\n      tag_135\n      swap2\n      swap1\n      tag_136\n      jump\t// in\n    tag_135:\n      0x00\n      mload(0x40)\n      dup1\n      dup4\n      sub\n      dup2\n      dup6\n      dup8\n      gas\n      call\n      swap3\n      pop\n      pop\n      pop\n      returndatasize\n      dup1\n      0x00\n      dup2\n      eq\n      tag_139\n      jumpi\n      mload(0x40)\n      swap2\n      pop\n      and(add(returndatasize, 0x3f), not(0x1f))\n      dup3\n      add\n      0x40\n      mstore\n      returndatasize\n      dup3\n      mstore\n      returndatasize\n      0x00\n      0x20\n      dup5\n      add\n      returndatacopy\n      jump(tag_138)\n    tag_139:\n      0x60\n      swap2\n      pop\n    tag_138:\n      pop\n        /* \"@uniswap/v3-periphery/contracts/libraries/TransferHelper.sol\":2441:2495  (bool success, ) = to.call{value: value}(new bytes(0)) */\n      pop\n      swap1\n      pop\n        /* \"@uniswap/v3-periphery/contracts/libraries/TransferHelper.sol\":2513:2520  success */\n      dup1\n        /* \"@uniswap/v3-periphery/contracts/libraries/TransferHelper.sol\":2505:2528  require(success, 'STE') */\n      tag_140\n      jumpi\n      mload(0x40)\n      0x08c379a000000000000000000000000000000000000000000000000000000000\n      dup2\n      mstore\n      0x04\n      add\n      tag_141\n      swap1\n      tag_142\n      jump\t// in\n    tag_141:\n      mload(0x40)\n      dup1\n      swap2\n      sub\n      swap1\n      revert\n    tag_140:\n        /* \"@uniswap/v3-periphery/contracts/libraries/TransferHelper.sol\":2431:2535  {... */\n      pop\n        /* \"@uniswap/v3-periphery/contracts/libraries/TransferHelper.sol\":2370:2535  function safeTransferETH(address to, uint256 value) internal {... */\n      pop\n      pop\n      jump\t// out\n        /* \"@uniswap/v3-periphery/contracts/libraries/PoolAddress.sol\":1305:1754  function computeAddress(address factory, PoolKey memory key) internal pure returns (address pool) {... */\n    tag_57:\n        /* \"@uniswap/v3-periphery/contracts/libraries/PoolAddress.sol\":1389:1401  address pool */\n      0x00\n        /* \"@uniswap/v3-periphery/contracts/libraries/PoolAddress.sol\":1434:1437  key */\n      dup2\n        /* \"@uniswap/v3-periphery/contracts/libraries/PoolAddress.sol\":1434:1444  key.token1 */\n      0x20\n      add\n      mload\n        /* \"@uniswap/v3-periphery/contracts/libraries/PoolAddress.sol\":1421:1444  key.token0 < key.token1 */\n      0xffffffffffffffffffffffffffffffffffffffff\n      and\n        /* \"@uniswap/v3-periphery/contracts/libraries/PoolAddress.sol\":1421:1424  key */\n      dup3\n        /* \"@uniswap/v3-periphery/contracts/libraries/PoolAddress.sol\":1421:1431  key.token0 */\n      0x00\n      add\n      mload\n        /* \"@uniswap/v3-periphery/contracts/libraries/PoolAddress.sol\":1421:1444  key.token0 < key.token1 */\n      0xffffffffffffffffffffffffffffffffffffffff\n      and\n      lt\n        /* \"@uniswap/v3-periphery/contracts/libraries/PoolAddress.sol\":1413:1445  require(key.token0 < key.token1) */\n      tag_144\n      jumpi\n      0x00\n      dup1\n      revert\n    tag_144:\n        /* \"@uniswap/v3-periphery/contracts/libraries/PoolAddress.sol\":1455:1471  bytes32 poolHash */\n      0x00\n        /* \"@uniswap/v3-periphery/contracts/libraries/PoolAddress.sol\":1555:1562  factory */\n      dup4\n        /* \"@uniswap/v3-periphery/contracts/libraries/PoolAddress.sol\":1601:1604  key */\n      dup4\n        /* \"@uniswap/v3-periphery/contracts/libraries/PoolAddress.sol\":1601:1611  key.token0 */\n      0x00\n      add\n      mload\n        /* \"@uniswap/v3-periphery/contracts/libraries/PoolAddress.sol\":1613:1616  key */\n      dup5\n        /* \"@uniswap/v3-periphery/contracts/libraries/PoolAddress.sol\":1613:1623  key.token1 */\n      0x20\n      add\n      mload\n        /* \"@uniswap/v3-periphery/contracts/libraries/PoolAddress.sol\":1625:1628  key */\n      dup6\n        /* \"@uniswap/v3-periphery/contracts/libraries/PoolAddress.sol\":1625:1632  key.fee */\n      0x40\n      add\n      mload\n        /* \"@uniswap/v3-periphery/contracts/libraries/PoolAddress.sol\":1590:1633  abi.encode(key.token0, key.token1, key.fee) */\n      add(0x20, mload(0x40))\n      tag_145\n      swap4\n      swap3\n      swap2\n      swap1\n      tag_146\n      jump\t// in\n    tag_145:\n      mload(0x40)\n      0x20\n      dup2\n      dup4\n      sub\n      sub\n      dup2\n      mstore\n      swap1\n      0x40\n      mstore\n        /* \"@uniswap/v3-periphery/contracts/libraries/PoolAddress.sol\":1580:1634  keccak256(abi.encode(key.token0, key.token1, key.fee)) */\n      dup1\n      mload\n      swap1\n      0x20\n      add\n      keccak256\n        /* \"@uniswap/v3-periphery/contracts/libraries/PoolAddress.sol\":241:307  0xe34f199b19b2b4f47f68442619d555527d244f78a3297ea89325f843f87b8b54 */\n      0xe34f199b19b2b4f47f68442619d555527d244f78a3297ea89325f843f87b8b54\n        /* \"@uniswap/v3-periphery/contracts/libraries/PoolAddress.sol\":1652:1671  POOL_INIT_CODE_HASH */\n      0x00\n      shl\n        /* \"@uniswap/v3-periphery/contracts/libraries/PoolAddress.sol\":1496:1685  abi.encodePacked(... */\n      add(0x20, mload(0x40))\n      tag_147\n      swap4\n      swap3\n      swap2\n      swap1\n      tag_148\n      jump\t// in\n    tag_147:\n      mload(0x40)\n      0x20\n      dup2\n      dup4\n      sub\n      sub\n      dup2\n      mstore\n      swap1\n      0x40\n      mstore\n        /* \"@uniswap/v3-periphery/contracts/libraries/PoolAddress.sol\":1473:1695  keccak256(... */\n      dup1\n      mload\n      swap1\n      0x20\n      add\n      keccak256\n        /* \"@uniswap/v3-periphery/contracts/libraries/PoolAddress.sol\":1455:1695  bytes32 poolHash =keccak256(... */\n      swap1\n      pop\n        /* \"@uniswap/v3-periphery/contracts/libraries/PoolAddress.sol\":1736:1744  poolHash */\n      dup1\n        /* \"@uniswap/v3-periphery/contracts/libraries/PoolAddress.sol\":1728:1745  uint256(poolHash) */\n      0x00\n      shr\n        /* \"@uniswap/v3-periphery/contracts/libraries/PoolAddress.sol\":1705:1747  pool = address(uint160(uint256(poolHash))) */\n      swap2\n      pop\n        /* \"@uniswap/v3-periphery/contracts/libraries/PoolAddress.sol\":1403:1754  {... */\n      pop\n        /* \"@uniswap/v3-periphery/contracts/libraries/PoolAddress.sol\":1305:1754  function computeAddress(address factory, PoolKey memory key) internal pure returns (address pool) {... */\n      swap3\n      swap2\n      pop\n      pop\n      jump\t// out\n        /* \"@uniswap/v3-periphery/contracts/libraries/TransferHelper.sol\":1211:1520  function safeTransfer(... */\n    tag_91:\n        /* \"@uniswap/v3-periphery/contracts/libraries/TransferHelper.sol\":1325:1337  bool success */\n      0x00\n        /* \"@uniswap/v3-periphery/contracts/libraries/TransferHelper.sol\":1339:1356  bytes memory data */\n      dup1\n        /* \"@uniswap/v3-periphery/contracts/libraries/TransferHelper.sol\":1360:1365  token */\n      dup5\n        /* \"@uniswap/v3-periphery/contracts/libraries/TransferHelper.sol\":1360:1370  token.call */\n      0xffffffffffffffffffffffffffffffffffffffff\n      and\n        /* \"@uniswap/v3-periphery/contracts/libraries/TransferHelper.sol\":1394:1418  IERC20.transfer.selector */\n      shl(0xe0, 0xa9059cbb)\n        /* \"@uniswap/v3-periphery/contracts/libraries/TransferHelper.sol\":1420:1422  to */\n      dup6\n        /* \"@uniswap/v3-periphery/contracts/libraries/TransferHelper.sol\":1424:1429  value */\n      dup6\n        /* \"@uniswap/v3-periphery/contracts/libraries/TransferHelper.sol\":1371:1430  abi.encodeWithSelector(IERC20.transfer.selector, to, value) */\n      add(0x24, mload(0x40))\n      tag_150\n      swap3\n      swap2\n      swap1\n      tag_151\n      jump\t// in\n    tag_150:\n      mload(0x40)\n      0x20\n      dup2\n      dup4\n      sub\n      sub\n      dup2\n      mstore\n      swap1\n      0x40\n      mstore\n      swap1\n      not(0xffffffffffffffffffffffffffffffffffffffffffffffffffffffff)\n      and\n      0x20\n      dup3\n      add\n      dup1\n      mload\n      0xffffffffffffffffffffffffffffffffffffffffffffffffffffffff\n      dup4\n      dup2\n      dup4\n      and\n      or\n      dup4\n      mstore\n      pop\n      pop\n      pop\n      pop\n        /* \"@uniswap/v3-periphery/contracts/libraries/TransferHelper.sol\":1360:1431  token.call(abi.encodeWithSelector(IERC20.transfer.selector, to, value)) */\n      mload(0x40)\n      tag_152\n      swap2\n      swap1\n      tag_136\n      jump\t// in\n    tag_152:\n      0x00\n      mload(0x40)\n      dup1\n      dup4\n      sub\n      dup2\n      0x00\n      dup7\n      gas\n      call\n      swap2\n      pop\n      pop\n      returndatasize\n      dup1\n      0x00\n      dup2\n      eq\n      tag_155\n      jumpi\n      mload(0x40)\n      swap2\n      pop\n      and(add(returndatasize, 0x3f), not(0x1f))\n      dup3\n      add\n      0x40\n      mstore\n      returndatasize\n      dup3\n      mstore\n      returndatasize\n      0x00\n      0x20\n      dup5\n      add\n      returndatacopy\n      jump(tag_154)\n    tag_155:\n      0x60\n      swap2\n      pop\n    tag_154:\n      pop\n        /* \"@uniswap/v3-periphery/contracts/libraries/TransferHelper.sol\":1324:1431  (bool success, bytes memory data) = token.call(abi.encodeWithSelector(IERC20.transfer.selector, to, value)) */\n      swap2\n      pop\n      swap2\n      pop\n        /* \"@uniswap/v3-periphery/contracts/libraries/TransferHelper.sol\":1449:1456  success */\n      dup2\n        /* \"@uniswap/v3-periphery/contracts/libraries/TransferHelper.sol\":1449:1506  success && (data.length == 0 || abi.decode(data, (bool))) */\n      dup1\n      iszero\n      tag_156\n      jumpi\n      pop\n        /* \"@uniswap/v3-periphery/contracts/libraries/TransferHelper.sol\":1476:1477  0 */\n      0x00\n        /* \"@uniswap/v3-periphery/contracts/libraries/TransferHelper.sol\":1461:1465  data */\n      dup2\n        /* \"@uniswap/v3-periphery/contracts/libraries/TransferHelper.sol\":1461:1472  data.length */\n      mload\n        /* \"@uniswap/v3-periphery/contracts/libraries/TransferHelper.sol\":1461:1477  data.length == 0 */\n      eq\n        /* \"@uniswap/v3-periphery/contracts/libraries/TransferHelper.sol\":1461:1505  data.length == 0 || abi.decode(data, (bool)) */\n      dup1\n      tag_157\n      jumpi\n      pop\n        /* \"@uniswap/v3-periphery/contracts/libraries/TransferHelper.sol\":1492:1496  data */\n      dup1\n        /* \"@uniswap/v3-periphery/contracts/libraries/TransferHelper.sol\":1481:1505  abi.decode(data, (bool)) */\n      dup1\n      0x20\n      add\n      swap1\n      mload\n      dup2\n      add\n      swap1\n      tag_158\n      swap2\n      swap1\n      tag_159\n      jump\t// in\n    tag_158:\n        /* \"@uniswap/v3-periphery/contracts/libraries/TransferHelper.sol\":1461:1505  data.length == 0 || abi.decode(data, (bool)) */\n    tag_157:\n        /* \"@uniswap/v3-periphery/contracts/libraries/TransferHelper.sol\":1449:1506  success && (data.length == 0 || abi.decode(data, (bool))) */\n    tag_156:\n        /* \"@uniswap/v3-periphery/contracts/libraries/TransferHelper.sol\":1441:1513  require(success && (data.length == 0 || abi.decode(data, (bool))), 'ST') */\n      tag_160\n      jumpi\n      mload(0x40)\n      0x08c379a000000000000000000000000000000000000000000000000000000000\n      dup2\n      mstore\n      0x04\n      add\n      tag_161\n      swap1\n      tag_162\n      jump\t// in\n    tag_161:\n      mload(0x40)\n      dup1\n      swap2\n      sub\n      swap1\n      revert\n    tag_160:\n        /* \"@uniswap/v3-periphery/contracts/libraries/TransferHelper.sol\":1314:1520  {... */\n      pop\n      pop\n        /* \"@uniswap/v3-periphery/contracts/libraries/TransferHelper.sol\":1211:1520  function safeTransfer(... */\n      pop\n      pop\n      pop\n      jump\t// out\n        /* \"@uniswap/v3-periphery/contracts/libraries/CallbackValidation.sol\":1190:1469  function verifyCallback(address factory, PoolAddress.PoolKey memory poolKey)... */\n    tag_96:\n        /* \"@uniswap/v3-periphery/contracts/libraries/CallbackValidation.sol\":1314:1333  IUniswapV3Pool pool */\n      0x00\n        /* \"@uniswap/v3-periphery/contracts/libraries/CallbackValidation.sol\":1371:1415  PoolAddress.computeAddress(factory, poolKey) */\n      tag_164\n        /* \"@uniswap/v3-periphery/contracts/libraries/CallbackValidation.sol\":1398:1405  factory */\n      dup4\n        /* \"@uniswap/v3-periphery/contracts/libraries/CallbackValidation.sol\":1407:1414  poolKey */\n      dup4\n        /* \"@uniswap/v3-periphery/contracts/libraries/CallbackValidation.sol\":1371:1397  PoolAddress.computeAddress */\n      tag_57\n        /* \"@uniswap/v3-periphery/contracts/libraries/CallbackValidation.sol\":1371:1415  PoolAddress.computeAddress(factory, poolKey) */\n      jump\t// in\n    tag_164:\n        /* \"@uniswap/v3-periphery/contracts/libraries/CallbackValidation.sol\":1349:1416  pool = IUniswapV3Pool(PoolAddress.computeAddress(factory, poolKey)) */\n      swap1\n      pop\n        /* \"@uniswap/v3-periphery/contracts/libraries/CallbackValidation.sol\":1456:1460  pool */\n      dup1\n        /* \"@uniswap/v3-periphery/contracts/libraries/CallbackValidation.sol\":1434:1461  msg.sender == address(pool) */\n      0xffffffffffffffffffffffffffffffffffffffff\n      and\n        /* \"@uniswap/v3-periphery/contracts/libraries/CallbackValidation.sol\":1434:1444  msg.sender */\n      caller\n        /* \"@uniswap/v3-periphery/contracts/libraries/CallbackValidation.sol\":1434:1461  msg.sender == address(pool) */\n      0xffffffffffffffffffffffffffffffffffffffff\n      and\n      eq\n        /* \"@uniswap/v3-periphery/contracts/libraries/CallbackValidation.sol\":1426:1462  require(msg.sender == address(pool)) */\n      tag_165\n      jumpi\n      0x00\n      dup1\n      revert\n    tag_165:\n        /* \"@uniswap/v3-periphery/contracts/libraries/CallbackValidation.sol\":1190:1469  function verifyCallback(address factory, PoolAddress.PoolKey memory poolKey)... */\n      swap3\n      swap2\n      pop\n      pop\n      jump\t// out\n        /* \"@uniswap/v3-periphery/contracts/libraries/TransferHelper.sol\":1873:2180  function safeApprove(... */\n    tag_98:\n        /* \"@uniswap/v3-periphery/contracts/libraries/TransferHelper.sol\":1986:1998  bool success */\n      0x00\n        /* \"@uniswap/v3-periphery/contracts/libraries/TransferHelper.sol\":2000:2017  bytes memory data */\n      dup1\n        /* \"@uniswap/v3-periphery/contracts/libraries/TransferHelper.sol\":2021:2026  token */\n      dup5\n        /* \"@uniswap/v3-periphery/contracts/libraries/TransferHelper.sol\":2021:2031  token.call */\n      0xffffffffffffffffffffffffffffffffffffffff\n      and\n        /* \"@uniswap/v3-periphery/contracts/libraries/TransferHelper.sol\":2055:2078  IERC20.approve.selector */\n      shl(0xe0, 0x095ea7b3)\n        /* \"@uniswap/v3-periphery/contracts/libraries/TransferHelper.sol\":2080:2082  to */\n      dup6\n        /* \"@uniswap/v3-periphery/contracts/libraries/TransferHelper.sol\":2084:2089  value */\n      dup6\n        /* \"@uniswap/v3-periphery/contracts/libraries/TransferHelper.sol\":2032:2090  abi.encodeWithSelector(IERC20.approve.selector, to, value) */\n      add(0x24, mload(0x40))\n      tag_167\n      swap3\n      swap2\n      swap1\n      tag_151\n      jump\t// in\n    tag_167:\n      mload(0x40)\n      0x20\n      dup2\n      dup4\n      sub\n      sub\n      dup2\n      mstore\n      swap1\n      0x40\n      mstore\n      swap1\n      not(0xffffffffffffffffffffffffffffffffffffffffffffffffffffffff)\n      and\n      0x20\n      dup3\n      add\n      dup1\n      mload\n      0xffffffffffffffffffffffffffffffffffffffffffffffffffffffff\n      dup4\n      dup2\n      dup4\n      and\n      or\n      dup4\n      mstore\n      pop\n      pop\n      pop\n      pop\n        /* \"@uniswap/v3-periphery/contracts/libraries/TransferHelper.sol\":2021:2091  token.call(abi.encodeWithSelector(IERC20.approve.selector, to, value)) */\n      mload(0x40)\n      tag_168\n      swap2\n      swap1\n      tag_136\n      jump\t// in\n    tag_168:\n      0x00\n      mload(0x40)\n      dup1\n      dup4\n      sub\n      dup2\n      0x00\n      dup7\n      gas\n      call\n      swap2\n      pop\n      pop\n      returndatasize\n      dup1\n      0x00\n      dup2\n      eq\n      tag_171\n      jumpi\n      mload(0x40)\n      swap2\n      pop\n      and(add(returndatasize, 0x3f), not(0x1f))\n      dup3\n      add\n      0x40\n      mstore\n      returndatasize\n      dup3\n      mstore\n      returndatasize\n      0x00\n      0x20\n      dup5\n      add\n      returndatacopy\n      jump(tag_170)\n    tag_171:\n      0x60\n      swap2\n      pop\n    tag_170:\n      pop\n        /* \"@uniswap/v3-periphery/contracts/libraries/TransferHelper.sol\":1985:2091  (bool success, bytes memory data) = token.call(abi.encodeWithSelector(IERC20.approve.selector, to, value)) */\n      swap2\n      pop\n      swap2\n      pop\n        /* \"@uniswap/v3-periphery/contracts/libraries/TransferHelper.sol\":2109:2116  success */\n      dup2\n        /* \"@uniswap/v3-periphery/contracts/libraries/TransferHelper.sol\":2109:2166  success && (data.length == 0 || abi.decode(data, (bool))) */\n      dup1\n      iszero\n      tag_172\n      jumpi\n      pop\n        /* \"@uniswap/v3-periphery/contracts/libraries/TransferHelper.sol\":2136:2137  0 */\n      0x00\n        /* \"@uniswap/v3-periphery/contracts/libraries/TransferHelper.sol\":2121:2125  data */\n      dup2\n        /* \"@uniswap/v3-periphery/contracts/libraries/TransferHelper.sol\":2121:2132  data.length */\n      mload\n        /* \"@uniswap/v3-periphery/contracts/libraries/TransferHelper.sol\":2121:2137  data.length == 0 */\n      eq\n        /* \"@uniswap/v3-periphery/contracts/libraries/TransferHelper.sol\":2121:2165  data.length == 0 || abi.decode(data, (bool)) */\n      dup1\n      tag_173\n      jumpi\n      pop\n        /* \"@uniswap/v3-periphery/contracts/libraries/TransferHelper.sol\":2152:2156  data */\n      dup1\n        /* \"@uniswap/v3-periphery/contracts/libraries/TransferHelper.sol\":2141:2165  abi.decode(data, (bool)) */\n      dup1\n      0x20\n      add\n      swap1\n      mload\n      dup2\n      add\n      swap1\n      tag_174\n      swap2\n      swap1\n      tag_159\n      jump\t// in\n    tag_174:\n        /* \"@uniswap/v3-periphery/contracts/libraries/TransferHelper.sol\":2121:2165  data.length == 0 || abi.decode(data, (bool)) */\n    tag_173:\n        /* \"@uniswap/v3-periphery/contracts/libraries/TransferHelper.sol\":2109:2166  success && (data.length == 0 || abi.decode(data, (bool))) */\n    tag_172:\n        /* \"@uniswap/v3-periphery/contracts/libraries/TransferHelper.sol\":2101:2173  require(success && (data.length == 0 || abi.decode(data, (bool))), 'SA') */\n      tag_175\n      jumpi\n      mload(0x40)\n      0x08c379a000000000000000000000000000000000000000000000000000000000\n      dup2\n      mstore\n      0x04\n      add\n      tag_176\n      swap1\n      tag_177\n      jump\t// in\n    tag_176:\n      mload(0x40)\n      dup1\n      swap2\n      sub\n      swap1\n      revert\n    tag_175:\n        /* \"@uniswap/v3-periphery/contracts/libraries/TransferHelper.sol\":1975:2180  {... */\n      pop\n      pop\n        /* \"@uniswap/v3-periphery/contracts/libraries/TransferHelper.sol\":1873:2180  function safeApprove(... */\n      pop\n      pop\n      pop\n      jump\t// out\n        /* \"@uniswap/v3-core/contracts/libraries/LowGasSafeMath.sol\":435:546  function add(uint256 x, uint256 y) internal pure returns (uint256 z) {... */\n    tag_101:\n        /* \"@uniswap/v3-core/contracts/libraries/LowGasSafeMath.sol\":493:502  uint256 z */\n      0x00\n        /* \"@uniswap/v3-core/contracts/libraries/LowGasSafeMath.sol\":537:538  x */\n      dup3\n        /* \"@uniswap/v3-core/contracts/libraries/LowGasSafeMath.sol\":531:532  y */\n      dup3\n        /* \"@uniswap/v3-core/contracts/libraries/LowGasSafeMath.sol\":527:528  x */\n      dup5\n        /* \"@uniswap/v3-core/contracts/libraries/LowGasSafeMath.sol\":527:532  x + y */\n      tag_179\n      swap2\n      swap1\n      tag_180\n      jump\t// in\n    tag_179:\n        /* \"@uniswap/v3-core/contracts/libraries/LowGasSafeMath.sol\":523:532  z = x + y */\n      swap2\n      pop\n      dup2\n        /* \"@uniswap/v3-core/contracts/libraries/LowGasSafeMath.sol\":522:538  (z = x + y) >= x */\n      lt\n      iszero\n        /* \"@uniswap/v3-core/contracts/libraries/LowGasSafeMath.sol\":514:539  require((z = x + y) >= x) */\n      tag_181\n      jumpi\n      0x00\n      dup1\n      revert\n    tag_181:\n        /* \"@uniswap/v3-core/contracts/libraries/LowGasSafeMath.sol\":435:546  function add(uint256 x, uint256 y) internal pure returns (uint256 z) {... */\n      swap3\n      swap2\n      pop\n      pop\n      jump\t// out\n        /* \"@uniswap/v3-periphery/contracts/base/PeripheryPayments.sol\":1991:2690  function pay(... */\n    tag_118:\n        /* \"@uniswap/v3-periphery/contracts/base/PeripheryPayments.sol\":2138:2143  WETH9 */\n      immutable(\"0x697b2229c654be6775095ebdd55318a4fcc425427cffac2b24bbf45b1574708c\")\n        /* \"@uniswap/v3-periphery/contracts/base/PeripheryPayments.sol\":2129:2143  token == WETH9 */\n      0xffffffffffffffffffffffffffffffffffffffff\n      and\n        /* \"@uniswap/v3-periphery/contracts/base/PeripheryPayments.sol\":2129:2134  token */\n      dup5\n        /* \"@uniswap/v3-periphery/contracts/base/PeripheryPayments.sol\":2129:2143  token == WETH9 */\n      0xffffffffffffffffffffffffffffffffffffffff\n      and\n      eq\n        /* \"@uniswap/v3-periphery/contracts/base/PeripheryPayments.sol\":2129:2177  token == WETH9 && address(this).balance >= value */\n      dup1\n      iszero\n      tag_183\n      jumpi\n      pop\n        /* \"@uniswap/v3-periphery/contracts/base/PeripheryPayments.sol\":2172:2177  value */\n      dup1\n        /* \"@uniswap/v3-periphery/contracts/base/PeripheryPayments.sol\":2147:2168  address(this).balance */\n      selfbalance\n        /* \"@uniswap/v3-periphery/contracts/base/PeripheryPayments.sol\":2147:2177  address(this).balance >= value */\n      lt\n      iszero\n        /* \"@uniswap/v3-periphery/contracts/base/PeripheryPayments.sol\":2129:2177  token == WETH9 && address(this).balance >= value */\n    tag_183:\n        /* \"@uniswap/v3-periphery/contracts/base/PeripheryPayments.sol\":2125:2684  if (token == WETH9 && address(this).balance >= value) {... */\n      iszero\n      tag_184\n      jumpi\n        /* \"@uniswap/v3-periphery/contracts/base/PeripheryPayments.sol\":2230:2235  WETH9 */\n      immutable(\"0x697b2229c654be6775095ebdd55318a4fcc425427cffac2b24bbf45b1574708c\")\n        /* \"@uniswap/v3-periphery/contracts/base/PeripheryPayments.sol\":2223:2244  IWETH9(WETH9).deposit */\n      0xffffffffffffffffffffffffffffffffffffffff\n      and\n      0xd0e30db0\n        /* \"@uniswap/v3-periphery/contracts/base/PeripheryPayments.sol\":2252:2257  value */\n      dup3\n        /* \"@uniswap/v3-periphery/contracts/base/PeripheryPayments.sol\":2223:2260  IWETH9(WETH9).deposit{value: value}() */\n      mload(0x40)\n      dup3\n      0xffffffff\n      and\n      0xe0\n      shl\n      dup2\n      mstore\n      0x04\n      add\n      0x00\n      mload(0x40)\n      dup1\n      dup4\n      sub\n      dup2\n      dup6\n      dup9\n      dup1\n      extcodesize\n      iszero\n      dup1\n      iszero\n      tag_185\n      jumpi\n      0x00\n      dup1\n      revert\n    tag_185:\n      pop\n      gas\n      call\n      iszero\n      dup1\n      iszero\n      tag_187\n      jumpi\n      returndatasize\n      0x00\n      dup1\n      returndatacopy\n      revert(0x00, returndatasize)\n    tag_187:\n      pop\n      pop\n      pop\n      pop\n      pop\n        /* \"@uniswap/v3-periphery/contracts/base/PeripheryPayments.sol\":2316:2321  WETH9 */\n      immutable(\"0x697b2229c654be6775095ebdd55318a4fcc425427cffac2b24bbf45b1574708c\")\n        /* \"@uniswap/v3-periphery/contracts/base/PeripheryPayments.sol\":2309:2331  IWETH9(WETH9).transfer */\n      0xffffffffffffffffffffffffffffffffffffffff\n      and\n      0xa9059cbb\n        /* \"@uniswap/v3-periphery/contracts/base/PeripheryPayments.sol\":2332:2341  recipient */\n      dup4\n        /* \"@uniswap/v3-periphery/contracts/base/PeripheryPayments.sol\":2343:2348  value */\n      dup4\n        /* \"@uniswap/v3-periphery/contracts/base/PeripheryPayments.sol\":2309:2349  IWETH9(WETH9).transfer(recipient, value) */\n      mload(0x40)\n      dup4\n      0xffffffff\n      and\n      0xe0\n      shl\n      dup2\n      mstore\n      0x04\n      add\n      tag_188\n      swap3\n      swap2\n      swap1\n      tag_151\n      jump\t// in\n    tag_188:\n      0x20\n      mload(0x40)\n      dup1\n      dup4\n      sub\n      dup2\n      0x00\n      dup8\n      gas\n      call\n      iszero\n      dup1\n      iszero\n      tag_190\n      jumpi\n      returndatasize\n      0x00\n      dup1\n      returndatacopy\n      revert(0x00, returndatasize)\n    tag_190:\n      pop\n      pop\n      pop\n      pop\n      mload(0x40)\n      returndatasize\n      not(0x1f)\n      0x1f\n      dup3\n      add\n      and\n      dup3\n      add\n      dup1\n      0x40\n      mstore\n      pop\n      dup2\n      add\n      swap1\n      tag_191\n      swap2\n      swap1\n      tag_159\n      jump\t// in\n    tag_191:\n      pop\n        /* \"@uniswap/v3-periphery/contracts/base/PeripheryPayments.sol\":2125:2684  if (token == WETH9 && address(this).balance >= value) {... */\n      jump(tag_192)\n    tag_184:\n        /* \"@uniswap/v3-periphery/contracts/base/PeripheryPayments.sol\":2387:2391  this */\n      address\n        /* \"@uniswap/v3-periphery/contracts/base/PeripheryPayments.sol\":2370:2392  payer == address(this) */\n      0xffffffffffffffffffffffffffffffffffffffff\n      and\n        /* \"@uniswap/v3-periphery/contracts/base/PeripheryPayments.sol\":2370:2375  payer */\n      dup4\n        /* \"@uniswap/v3-periphery/contracts/base/PeripheryPayments.sol\":2370:2392  payer == address(this) */\n      0xffffffffffffffffffffffffffffffffffffffff\n      and\n      sub\n        /* \"@uniswap/v3-periphery/contracts/base/PeripheryPayments.sol\":2366:2684  if (payer == address(this)) {... */\n      tag_193\n      jumpi\n        /* \"@uniswap/v3-periphery/contracts/base/PeripheryPayments.sol\":2499:2551  TransferHelper.safeTransfer(token, recipient, value) */\n      tag_194\n        /* \"@uniswap/v3-periphery/contracts/base/PeripheryPayments.sol\":2527:2532  token */\n      dup5\n        /* \"@uniswap/v3-periphery/contracts/base/PeripheryPayments.sol\":2534:2543  recipient */\n      dup4\n        /* \"@uniswap/v3-periphery/contracts/base/PeripheryPayments.sol\":2545:2550  value */\n      dup4\n        /* \"@uniswap/v3-periphery/contracts/base/PeripheryPayments.sol\":2499:2526  TransferHelper.safeTransfer */\n      tag_91\n        /* \"@uniswap/v3-periphery/contracts/base/PeripheryPayments.sol\":2499:2551  TransferHelper.safeTransfer(token, recipient, value) */\n      jump\t// in\n    tag_194:\n        /* \"@uniswap/v3-periphery/contracts/base/PeripheryPayments.sol\":2366:2684  if (payer == address(this)) {... */\n      jump(tag_195)\n    tag_193:\n        /* \"@uniswap/v3-periphery/contracts/base/PeripheryPayments.sol\":2610:2673  TransferHelper.safeTransferFrom(token, payer, recipient, value) */\n      tag_196\n        /* \"@uniswap/v3-periphery/contracts/base/PeripheryPayments.sol\":2642:2647  token */\n      dup5\n        /* \"@uniswap/v3-periphery/contracts/base/PeripheryPayments.sol\":2649:2654  payer */\n      dup5\n        /* \"@uniswap/v3-periphery/contracts/base/PeripheryPayments.sol\":2656:2665  recipient */\n      dup5\n        /* \"@uniswap/v3-periphery/contracts/base/PeripheryPayments.sol\":2667:2672  value */\n      dup5\n        /* \"@uniswap/v3-periphery/contracts/base/PeripheryPayments.sol\":2610:2641  TransferHelper.safeTransferFrom */\n      tag_197\n        /* \"@uniswap/v3-periphery/contracts/base/PeripheryPayments.sol\":2610:2673  TransferHelper.safeTransferFrom(token, payer, recipient, value) */\n      jump\t// in\n    tag_196:\n        /* \"@uniswap/v3-periphery/contracts/base/PeripheryPayments.sol\":2366:2684  if (payer == address(this)) {... */\n    tag_195:\n        /* \"@uniswap/v3-periphery/contracts/base/PeripheryPayments.sol\":2125:2684  if (token == WETH9 && address(this).balance >= value) {... */\n    tag_192:\n        /* \"@uniswap/v3-periphery/contracts/base/PeripheryPayments.sol\":1991:2690  function pay(... */\n      pop\n      pop\n      pop\n      pop\n      jump\t// out\n        /* \"@uniswap/v3-core/contracts/libraries/LowGasSafeMath.sol\":710:821  function sub(uint256 x, uint256 y) internal pure returns (uint256 z) {... */\n    tag_123:\n        /* \"@uniswap/v3-core/contracts/libraries/LowGasSafeMath.sol\":768:777  uint256 z */\n      0x00\n        /* \"@uniswap/v3-core/contracts/libraries/LowGasSafeMath.sol\":812:813  x */\n      dup3\n        /* \"@uniswap/v3-core/contracts/libraries/LowGasSafeMath.sol\":806:807  y */\n      dup3\n        /* \"@uniswap/v3-core/contracts/libraries/LowGasSafeMath.sol\":802:803  x */\n      dup5\n        /* \"@uniswap/v3-core/contracts/libraries/LowGasSafeMath.sol\":802:807  x - y */\n      tag_199\n      swap2\n      swap1\n      tag_200\n      jump\t// in\n    tag_199:\n        /* \"@uniswap/v3-core/contracts/libraries/LowGasSafeMath.sol\":798:807  z = x - y */\n      swap2\n      pop\n      dup2\n        /* \"@uniswap/v3-core/contracts/libraries/LowGasSafeMath.sol\":797:813  (z = x - y) <= x */\n      gt\n      iszero\n        /* \"@uniswap/v3-core/contracts/libraries/LowGasSafeMath.sol\":789:814  require((z = x - y) <= x) */\n      tag_201\n      jumpi\n      0x00\n      dup1\n      revert\n    tag_201:\n        /* \"@uniswap/v3-core/contracts/libraries/LowGasSafeMath.sol\":710:821  function sub(uint256 x, uint256 y) internal pure returns (uint256 z) {... */\n      swap3\n      swap2\n      pop\n      pop\n      jump\t// out\n        /* \"@uniswap/v3-periphery/contracts/libraries/TransferHelper.sol\":561:919  function safeTransferFrom(... */\n    tag_197:\n        /* \"@uniswap/v3-periphery/contracts/libraries/TransferHelper.sol\":701:713  bool success */\n      0x00\n        /* \"@uniswap/v3-periphery/contracts/libraries/TransferHelper.sol\":715:732  bytes memory data */\n      dup1\n        /* \"@uniswap/v3-periphery/contracts/libraries/TransferHelper.sol\":748:753  token */\n      dup6\n        /* \"@uniswap/v3-periphery/contracts/libraries/TransferHelper.sol\":748:758  token.call */\n      0xffffffffffffffffffffffffffffffffffffffff\n      and\n        /* \"@uniswap/v3-periphery/contracts/libraries/TransferHelper.sol\":782:810  IERC20.transferFrom.selector */\n      shl(0xe0, 0x23b872dd)\n        /* \"@uniswap/v3-periphery/contracts/libraries/TransferHelper.sol\":812:816  from */\n      dup7\n        /* \"@uniswap/v3-periphery/contracts/libraries/TransferHelper.sol\":818:820  to */\n      dup7\n        /* \"@uniswap/v3-periphery/contracts/libraries/TransferHelper.sol\":822:827  value */\n      dup7\n        /* \"@uniswap/v3-periphery/contracts/libraries/TransferHelper.sol\":759:828  abi.encodeWithSelector(IERC20.transferFrom.selector, from, to, value) */\n      add(0x24, mload(0x40))\n      tag_203\n      swap4\n      swap3\n      swap2\n      swap1\n      tag_204\n      jump\t// in\n    tag_203:\n      mload(0x40)\n      0x20\n      dup2\n      dup4\n      sub\n      sub\n      dup2\n      mstore\n      swap1\n      0x40\n      mstore\n      swap1\n      not(0xffffffffffffffffffffffffffffffffffffffffffffffffffffffff)\n      and\n      0x20\n      dup3\n      add\n      dup1\n      mload\n      0xffffffffffffffffffffffffffffffffffffffffffffffffffffffff\n      dup4\n      dup2\n      dup4\n      and\n      or\n      dup4\n      mstore\n      pop\n      pop\n      pop\n      pop\n        /* \"@uniswap/v3-periphery/contracts/libraries/TransferHelper.sol\":748:829  token.call(abi.encodeWithSelector(IERC20.transferFrom.selector, from, to, value)) */\n      mload(0x40)\n      tag_205\n      swap2\n      swap1\n      tag_136\n      jump\t// in\n    tag_205:\n      0x00\n      mload(0x40)\n      dup1\n      dup4\n      sub\n      dup2\n      0x00\n      dup7\n      gas\n      call\n      swap2\n      pop\n      pop\n      returndatasize\n      dup1\n      0x00\n      dup2\n      eq\n      tag_208\n      jumpi\n      mload(0x40)\n      swap2\n      pop\n      and(add(returndatasize, 0x3f), not(0x1f))\n      dup3\n      add\n      0x40\n      mstore\n      returndatasize\n      dup3\n      mstore\n      returndatasize\n      0x00\n      0x20\n      dup5\n      add\n      returndatacopy\n      jump(tag_207)\n    tag_208:\n      0x60\n      swap2\n      pop\n    tag_207:\n      pop\n        /* \"@uniswap/v3-periphery/contracts/libraries/TransferHelper.sol\":700:829  (bool success, bytes memory data) =... */\n      swap2\n      pop\n      swap2\n      pop\n        /* \"@uniswap/v3-periphery/contracts/libraries/TransferHelper.sol\":847:854  success */\n      dup2\n        /* \"@uniswap/v3-periphery/contracts/libraries/TransferHelper.sol\":847:904  success && (data.length == 0 || abi.decode(data, (bool))) */\n      dup1\n      iszero\n      tag_209\n      jumpi\n      pop\n        /* \"@uniswap/v3-periphery/contracts/libraries/TransferHelper.sol\":874:875  0 */\n      0x00\n        /* \"@uniswap/v3-periphery/contracts/libraries/TransferHelper.sol\":859:863  data */\n      dup2\n        /* \"@uniswap/v3-periphery/contracts/libraries/TransferHelper.sol\":859:870  data.length */\n      mload\n        /* \"@uniswap/v3-periphery/contracts/libraries/TransferHelper.sol\":859:875  data.length == 0 */\n      eq\n        /* \"@uniswap/v3-periphery/contracts/libraries/TransferHelper.sol\":859:903  data.length == 0 || abi.decode(data, (bool)) */\n      dup1\n      tag_210\n      jumpi\n      pop\n        /* \"@uniswap/v3-periphery/contracts/libraries/TransferHelper.sol\":890:894  data */\n      dup1\n        /* \"@uniswap/v3-periphery/contracts/libraries/TransferHelper.sol\":879:903  abi.decode(data, (bool)) */\n      dup1\n      0x20\n      add\n      swap1\n      mload\n      dup2\n      add\n      swap1\n      tag_211\n      swap2\n      swap1\n      tag_159\n      jump\t// in\n    tag_211:\n        /* \"@uniswap/v3-periphery/contracts/libraries/TransferHelper.sol\":859:903  data.length == 0 || abi.decode(data, (bool)) */\n    tag_210:\n        /* \"@uniswap/v3-periphery/contracts/libraries/TransferHelper.sol\":847:904  success && (data.length == 0 || abi.decode(data, (bool))) */\n    tag_209:\n        /* \"@uniswap/v3-periphery/contracts/libraries/TransferHelper.sol\":839:912  require(success && (data.length == 0 || abi.decode(data, (bool))), 'STF') */\n      tag_212\n      jumpi\n      mload(0x40)\n      0x08c379a000000000000000000000000000000000000000000000000000000000\n      dup2\n      mstore\n      0x04\n      add\n      tag_213\n      swap1\n      tag_214\n      jump\t// in\n    tag_213:\n      mload(0x40)\n      dup1\n      swap2\n      sub\n      swap1\n      revert\n    tag_212:\n        /* \"@uniswap/v3-periphery/contracts/libraries/TransferHelper.sol\":690:919  {... */\n      pop\n      pop\n        /* \"@uniswap/v3-periphery/contracts/libraries/TransferHelper.sol\":561:919  function safeTransferFrom(... */\n      pop\n      pop\n      pop\n      pop\n      jump\t// out\n        /* \"#utility.yul\":7:176   */\n    tag_215:\n        /* \"#utility.yul\":91:102   */\n      0x00\n        /* \"#utility.yul\":125:131   */\n      dup3\n        /* \"#utility.yul\":120:123   */\n      dup3\n        /* \"#utility.yul\":113:132   */\n      mstore\n        /* \"#utility.yul\":165:169   */\n      0x20\n        /* \"#utility.yul\":160:163   */\n      dup3\n        /* \"#utility.yul\":156:170   */\n      add\n        /* \"#utility.yul\":141:170   */\n      swap1\n      pop\n        /* \"#utility.yul\":7:176   */\n      swap3\n      swap2\n      pop\n      pop\n      jump\t// out\n        /* \"#utility.yul\":182:341   */\n    tag_216:\n        /* \"#utility.yul\":322:333   */\n      0x4e6f742057455448390000000000000000000000000000000000000000000000\n        /* \"#utility.yul\":318:319   */\n      0x00\n        /* \"#utility.yul\":310:316   */\n      dup3\n        /* \"#utility.yul\":306:320   */\n      add\n        /* \"#utility.yul\":299:334   */\n      mstore\n        /* \"#utility.yul\":182:341   */\n      pop\n      jump\t// out\n        /* \"#utility.yul\":347:712   */\n    tag_217:\n        /* \"#utility.yul\":489:492   */\n      0x00\n        /* \"#utility.yul\":510:576   */\n      tag_295\n        /* \"#utility.yul\":574:575   */\n      0x09\n        /* \"#utility.yul\":569:572   */\n      dup4\n        /* \"#utility.yul\":510:576   */\n      tag_215\n      jump\t// in\n    tag_295:\n        /* \"#utility.yul\":503:576   */\n      swap2\n      pop\n        /* \"#utility.yul\":585:678   */\n      tag_296\n        /* \"#utility.yul\":674:677   */\n      dup3\n        /* \"#utility.yul\":585:678   */\n      tag_216\n      jump\t// in\n    tag_296:\n        /* \"#utility.yul\":703:705   */\n      0x20\n        /* \"#utility.yul\":698:701   */\n      dup3\n        /* \"#utility.yul\":694:706   */\n      add\n        /* \"#utility.yul\":687:706   */\n      swap1\n      pop\n        /* \"#utility.yul\":347:712   */\n      swap2\n      swap1\n      pop\n      jump\t// out\n        /* \"#utility.yul\":718:1137   */\n    tag_16:\n        /* \"#utility.yul\":884:888   */\n      0x00\n        /* \"#utility.yul\":922:924   */\n      0x20\n        /* \"#utility.yul\":911:920   */\n      dup3\n        /* \"#utility.yul\":907:925   */\n      add\n        /* \"#utility.yul\":899:925   */\n      swap1\n      pop\n        /* \"#utility.yul\":971:980   */\n      dup2\n        /* \"#utility.yul\":965:969   */\n      dup2\n        /* \"#utility.yul\":961:981   */\n      sub\n        /* \"#utility.yul\":957:958   */\n      0x00\n        /* \"#utility.yul\":946:955   */\n      dup4\n        /* \"#utility.yul\":942:959   */\n      add\n        /* \"#utility.yul\":935:982   */\n      mstore\n        /* \"#utility.yul\":999:1130   */\n      tag_298\n        /* \"#utility.yul\":1125:1129   */\n      dup2\n        /* \"#utility.yul\":999:1130   */\n      tag_217\n      jump\t// in\n    tag_298:\n        /* \"#utility.yul\":991:1130   */\n      swap1\n      pop\n        /* \"#utility.yul\":718:1137   */\n      swap2\n      swap1\n      pop\n      jump\t// out\n        /* \"#utility.yul\":1143:1218   */\n    tag_218:\n        /* \"#utility.yul\":1176:1182   */\n      0x00\n        /* \"#utility.yul\":1209:1211   */\n      0x40\n        /* \"#utility.yul\":1203:1212   */\n      mload\n        /* \"#utility.yul\":1193:1212   */\n      swap1\n      pop\n        /* \"#utility.yul\":1143:1218   */\n      swap1\n      jump\t// out\n        /* \"#utility.yul\":1224:1341   */\n    tag_219:\n        /* \"#utility.yul\":1333:1334   */\n      0x00\n        /* \"#utility.yul\":1330:1331   */\n      dup1\n        /* \"#utility.yul\":1323:1335   */\n      revert\n        /* \"#utility.yul\":1347:1464   */\n    tag_220:\n        /* \"#utility.yul\":1456:1457   */\n      0x00\n        /* \"#utility.yul\":1453:1454   */\n      dup1\n        /* \"#utility.yul\":1446:1458   */\n      revert\n        /* \"#utility.yul\":1470:1587   */\n    tag_221:\n        /* \"#utility.yul\":1579:1580   */\n      0x00\n        /* \"#utility.yul\":1576:1577   */\n      dup1\n        /* \"#utility.yul\":1569:1581   */\n      revert\n        /* \"#utility.yul\":1593:1695   */\n    tag_222:\n        /* \"#utility.yul\":1634:1640   */\n      0x00\n        /* \"#utility.yul\":1685:1687   */\n      0x1f\n        /* \"#utility.yul\":1681:1688   */\n      not\n        /* \"#utility.yul\":1676:1678   */\n      0x1f\n        /* \"#utility.yul\":1669:1674   */\n      dup4\n        /* \"#utility.yul\":1665:1679   */\n      add\n        /* \"#utility.yul\":1661:1689   */\n      and\n        /* \"#utility.yul\":1651:1689   */\n      swap1\n      pop\n        /* \"#utility.yul\":1593:1695   */\n      swap2\n      swap1\n      pop\n      jump\t// out\n        /* \"#utility.yul\":1701:1881   */\n    tag_133:\n        /* \"#utility.yul\":1749:1826   */\n      0x4e487b7100000000000000000000000000000000000000000000000000000000\n        /* \"#utility.yul\":1746:1747   */\n      0x00\n        /* \"#utility.yul\":1739:1827   */\n      mstore\n        /* \"#utility.yul\":1846:1850   */\n      0x41\n        /* \"#utility.yul\":1843:1844   */\n      0x04\n        /* \"#utility.yul\":1836:1851   */\n      mstore\n        /* \"#utility.yul\":1870:1874   */\n      0x24\n        /* \"#utility.yul\":1867:1868   */\n      0x00\n        /* \"#utility.yul\":1860:1875   */\n      revert\n        /* \"#utility.yul\":1887:2168   */\n    tag_223:\n        /* \"#utility.yul\":1970:1997   */\n      tag_306\n        /* \"#utility.yul\":1992:1996   */\n      dup3\n        /* \"#utility.yul\":1970:1997   */\n      tag_222\n      jump\t// in\n    tag_306:\n        /* \"#utility.yul\":1962:1968   */\n      dup2\n        /* \"#utility.yul\":1958:1998   */\n      add\n        /* \"#utility.yul\":2100:2106   */\n      dup2\n        /* \"#utility.yul\":2088:2098   */\n      dup2\n        /* \"#utility.yul\":2085:2107   */\n      lt\n        /* \"#utility.yul\":2064:2082   */\n      0xffffffffffffffff\n        /* \"#utility.yul\":2052:2062   */\n      dup3\n        /* \"#utility.yul\":2049:2083   */\n      gt\n        /* \"#utility.yul\":2046:2108   */\n      or\n        /* \"#utility.yul\":2043:2131   */\n      iszero\n      tag_307\n      jumpi\n        /* \"#utility.yul\":2111:2129   */\n      tag_308\n      tag_133\n      jump\t// in\n    tag_308:\n        /* \"#utility.yul\":2043:2131   */\n    tag_307:\n        /* \"#utility.yul\":2151:2161   */\n      dup1\n        /* \"#utility.yul\":2147:2149   */\n      0x40\n        /* \"#utility.yul\":2140:2162   */\n      mstore\n        /* \"#utility.yul\":1930:2168   */\n      pop\n        /* \"#utility.yul\":1887:2168   */\n      pop\n      pop\n      jump\t// out\n        /* \"#utility.yul\":2174:2303   */\n    tag_224:\n        /* \"#utility.yul\":2208:2214   */\n      0x00\n        /* \"#utility.yul\":2235:2255   */\n      tag_310\n      tag_218\n      jump\t// in\n    tag_310:\n        /* \"#utility.yul\":2225:2255   */\n      swap1\n      pop\n        /* \"#utility.yul\":2264:2297   */\n      tag_311\n        /* \"#utility.yul\":2292:2296   */\n      dup3\n        /* \"#utility.yul\":2284:2290   */\n      dup3\n        /* \"#utility.yul\":2264:2297   */\n      tag_223\n      jump\t// in\n    tag_311:\n        /* \"#utility.yul\":2174:2303   */\n      swap2\n      swap1\n      pop\n      jump\t// out\n        /* \"#utility.yul\":2432:2558   */\n    tag_226:\n        /* \"#utility.yul\":2469:2476   */\n      0x00\n        /* \"#utility.yul\":2509:2551   */\n      0xffffffffffffffffffffffffffffffffffffffff\n        /* \"#utility.yul\":2502:2507   */\n      dup3\n        /* \"#utility.yul\":2498:2552   */\n      and\n        /* \"#utility.yul\":2487:2552   */\n      swap1\n      pop\n        /* \"#utility.yul\":2432:2558   */\n      swap2\n      swap1\n      pop\n      jump\t// out\n        /* \"#utility.yul\":2564:2660   */\n    tag_227:\n        /* \"#utility.yul\":2601:2608   */\n      0x00\n        /* \"#utility.yul\":2630:2654   */\n      tag_315\n        /* \"#utility.yul\":2648:2653   */\n      dup3\n        /* \"#utility.yul\":2630:2654   */\n      tag_226\n      jump\t// in\n    tag_315:\n        /* \"#utility.yul\":2619:2654   */\n      swap1\n      pop\n        /* \"#utility.yul\":2564:2660   */\n      swap2\n      swap1\n      pop\n      jump\t// out\n        /* \"#utility.yul\":2666:2788   */\n    tag_228:\n        /* \"#utility.yul\":2739:2763   */\n      tag_317\n        /* \"#utility.yul\":2757:2762   */\n      dup2\n        /* \"#utility.yul\":2739:2763   */\n      tag_227\n      jump\t// in\n    tag_317:\n        /* \"#utility.yul\":2732:2737   */\n      dup2\n        /* \"#utility.yul\":2729:2764   */\n      eq\n        /* \"#utility.yul\":2719:2782   */\n      tag_318\n      jumpi\n        /* \"#utility.yul\":2778:2779   */\n      0x00\n        /* \"#utility.yul\":2775:2776   */\n      dup1\n        /* \"#utility.yul\":2768:2780   */\n      revert\n        /* \"#utility.yul\":2719:2782   */\n    tag_318:\n        /* \"#utility.yul\":2666:2788   */\n      pop\n      jump\t// out\n        /* \"#utility.yul\":2794:2933   */\n    tag_229:\n        /* \"#utility.yul\":2840:2845   */\n      0x00\n        /* \"#utility.yul\":2878:2884   */\n      dup2\n        /* \"#utility.yul\":2865:2885   */\n      calldataload\n        /* \"#utility.yul\":2856:2885   */\n      swap1\n      pop\n        /* \"#utility.yul\":2894:2927   */\n      tag_320\n        /* \"#utility.yul\":2921:2926   */\n      dup2\n        /* \"#utility.yul\":2894:2927   */\n      tag_228\n      jump\t// in\n    tag_320:\n        /* \"#utility.yul\":2794:2933   */\n      swap3\n      swap2\n      pop\n      pop\n      jump\t// out\n        /* \"#utility.yul\":2939:3030   */\n    tag_230:\n        /* \"#utility.yul\":2975:2982   */\n      0x00\n        /* \"#utility.yul\":3015:3023   */\n      0xffffff\n        /* \"#utility.yul\":3008:3013   */\n      dup3\n        /* \"#utility.yul\":3004:3024   */\n      and\n        /* \"#utility.yul\":2993:3024   */\n      swap1\n      pop\n        /* \"#utility.yul\":2939:3030   */\n      swap2\n      swap1\n      pop\n      jump\t// out\n        /* \"#utility.yul\":3036:3156   */\n    tag_231:\n        /* \"#utility.yul\":3108:3131   */\n      tag_323\n        /* \"#utility.yul\":3125:3130   */\n      dup2\n        /* \"#utility.yul\":3108:3131   */\n      tag_230\n      jump\t// in\n    tag_323:\n        /* \"#utility.yul\":3101:3106   */\n      dup2\n        /* \"#utility.yul\":3098:3132   */\n      eq\n        /* \"#utility.yul\":3088:3150   */\n      tag_324\n      jumpi\n        /* \"#utility.yul\":3146:3147   */\n      0x00\n        /* \"#utility.yul\":3143:3144   */\n      dup1\n        /* \"#utility.yul\":3136:3148   */\n      revert\n        /* \"#utility.yul\":3088:3150   */\n    tag_324:\n        /* \"#utility.yul\":3036:3156   */\n      pop\n      jump\t// out\n        /* \"#utility.yul\":3162:3299   */\n    tag_232:\n        /* \"#utility.yul\":3207:3212   */\n      0x00\n        /* \"#utility.yul\":3245:3251   */\n      dup2\n        /* \"#utility.yul\":3232:3252   */\n      calldataload\n        /* \"#utility.yul\":3223:3252   */\n      swap1\n      pop\n        /* \"#utility.yul\":3261:3293   */\n      tag_326\n        /* \"#utility.yul\":3287:3292   */\n      dup2\n        /* \"#utility.yul\":3261:3293   */\n      tag_231\n      jump\t// in\n    tag_326:\n        /* \"#utility.yul\":3162:3299   */\n      swap3\n      swap2\n      pop\n      pop\n      jump\t// out\n        /* \"#utility.yul\":3305:3382   */\n    tag_233:\n        /* \"#utility.yul\":3342:3349   */\n      0x00\n        /* \"#utility.yul\":3371:3376   */\n      dup2\n        /* \"#utility.yul\":3360:3376   */\n      swap1\n      pop\n        /* \"#utility.yul\":3305:3382   */\n      swap2\n      swap1\n      pop\n      jump\t// out\n        /* \"#utility.yul\":3388:3510   */\n    tag_234:\n        /* \"#utility.yul\":3461:3485   */\n      tag_329\n        /* \"#utility.yul\":3479:3484   */\n      dup2\n        /* \"#utility.yul\":3461:3485   */\n      tag_233\n      jump\t// in\n    tag_329:\n        /* \"#utility.yul\":3454:3459   */\n      dup2\n        /* \"#utility.yul\":3451:3486   */\n      eq\n        /* \"#utility.yul\":3441:3504   */\n      tag_330\n      jumpi\n        /* \"#utility.yul\":3500:3501   */\n      0x00\n        /* \"#utility.yul\":3497:3498   */\n      dup1\n        /* \"#utility.yul\":3490:3502   */\n      revert\n        /* \"#utility.yul\":3441:3504   */\n    tag_330:\n        /* \"#utility.yul\":3388:3510   */\n      pop\n      jump\t// out\n        /* \"#utility.yul\":3516:3655   */\n    tag_235:\n        /* \"#utility.yul\":3562:3567   */\n      0x00\n        /* \"#utility.yul\":3600:3606   */\n      dup2\n        /* \"#utility.yul\":3587:3607   */\n      calldataload\n        /* \"#utility.yul\":3578:3607   */\n      swap1\n      pop\n        /* \"#utility.yul\":3616:3649   */\n      tag_332\n        /* \"#utility.yul\":3643:3648   */\n      dup2\n        /* \"#utility.yul\":3616:3649   */\n      tag_234\n      jump\t// in\n    tag_332:\n        /* \"#utility.yul\":3516:3655   */\n      swap3\n      swap2\n      pop\n      pop\n      jump\t// out\n        /* \"#utility.yul\":3697:5090   */\n    tag_236:\n        /* \"#utility.yul\":3775:3780   */\n      0x00\n        /* \"#utility.yul\":3819:3823   */\n      0xe0\n        /* \"#utility.yul\":3807:3816   */\n      dup3\n        /* \"#utility.yul\":3802:3805   */\n      dup5\n        /* \"#utility.yul\":3798:3817   */\n      sub\n        /* \"#utility.yul\":3794:3824   */\n      slt\n        /* \"#utility.yul\":3791:3908   */\n      iszero\n      tag_334\n      jumpi\n        /* \"#utility.yul\":3827:3906   */\n      tag_335\n      tag_221\n      jump\t// in\n    tag_335:\n        /* \"#utility.yul\":3791:3908   */\n    tag_334:\n        /* \"#utility.yul\":3926:3947   */\n      tag_336\n        /* \"#utility.yul\":3942:3946   */\n      0xe0\n        /* \"#utility.yul\":3926:3947   */\n      tag_224\n      jump\t// in\n    tag_336:\n        /* \"#utility.yul\":3917:3947   */\n      swap1\n      pop\n        /* \"#utility.yul\":4008:4009   */\n      0x00\n        /* \"#utility.yul\":4048:4097   */\n      tag_337\n        /* \"#utility.yul\":4093:4096   */\n      dup5\n        /* \"#utility.yul\":4084:4090   */\n      dup3\n        /* \"#utility.yul\":4073:4082   */\n      dup6\n        /* \"#utility.yul\":4069:4091   */\n      add\n        /* \"#utility.yul\":4048:4097   */\n      tag_229\n      jump\t// in\n    tag_337:\n        /* \"#utility.yul\":4041:4045   */\n      0x00\n        /* \"#utility.yul\":4034:4039   */\n      dup4\n        /* \"#utility.yul\":4030:4046   */\n      add\n        /* \"#utility.yul\":4023:4098   */\n      mstore\n        /* \"#utility.yul\":3957:4109   */\n      pop\n        /* \"#utility.yul\":4170:4172   */\n      0x20\n        /* \"#utility.yul\":4211:4260   */\n      tag_338\n        /* \"#utility.yul\":4256:4259   */\n      dup5\n        /* \"#utility.yul\":4247:4253   */\n      dup3\n        /* \"#utility.yul\":4236:4245   */\n      dup6\n        /* \"#utility.yul\":4232:4254   */\n      add\n        /* \"#utility.yul\":4211:4260   */\n      tag_229\n      jump\t// in\n    tag_338:\n        /* \"#utility.yul\":4204:4208   */\n      0x20\n        /* \"#utility.yul\":4197:4202   */\n      dup4\n        /* \"#utility.yul\":4193:4209   */\n      add\n        /* \"#utility.yul\":4186:4261   */\n      mstore\n        /* \"#utility.yul\":4119:4272   */\n      pop\n        /* \"#utility.yul\":4331:4333   */\n      0x40\n        /* \"#utility.yul\":4372:4420   */\n      tag_339\n        /* \"#utility.yul\":4416:4419   */\n      dup5\n        /* \"#utility.yul\":4407:4413   */\n      dup3\n        /* \"#utility.yul\":4396:4405   */\n      dup6\n        /* \"#utility.yul\":4392:4414   */\n      add\n        /* \"#utility.yul\":4372:4420   */\n      tag_232\n      jump\t// in\n    tag_339:\n        /* \"#utility.yul\":4365:4369   */\n      0x40\n        /* \"#utility.yul\":4358:4363   */\n      dup4\n        /* \"#utility.yul\":4354:4370   */\n      add\n        /* \"#utility.yul\":4347:4421   */\n      mstore\n        /* \"#utility.yul\":4282:4432   */\n      pop\n        /* \"#utility.yul\":4494:4496   */\n      0x60\n        /* \"#utility.yul\":4535:4584   */\n      tag_340\n        /* \"#utility.yul\":4580:4583   */\n      dup5\n        /* \"#utility.yul\":4571:4577   */\n      dup3\n        /* \"#utility.yul\":4560:4569   */\n      dup6\n        /* \"#utility.yul\":4556:4578   */\n      add\n        /* \"#utility.yul\":4535:4584   */\n      tag_235\n      jump\t// in\n    tag_340:\n        /* \"#utility.yul\":4528:4532   */\n      0x60\n        /* \"#utility.yul\":4521:4526   */\n      dup4\n        /* \"#utility.yul\":4517:4533   */\n      add\n        /* \"#utility.yul\":4510:4585   */\n      mstore\n        /* \"#utility.yul\":4442:4596   */\n      pop\n        /* \"#utility.yul\":4658:4661   */\n      0x80\n        /* \"#utility.yul\":4700:4749   */\n      tag_341\n        /* \"#utility.yul\":4745:4748   */\n      dup5\n        /* \"#utility.yul\":4736:4742   */\n      dup3\n        /* \"#utility.yul\":4725:4734   */\n      dup6\n        /* \"#utility.yul\":4721:4743   */\n      add\n        /* \"#utility.yul\":4700:4749   */\n      tag_235\n      jump\t// in\n    tag_341:\n        /* \"#utility.yul\":4693:4697   */\n      0x80\n        /* \"#utility.yul\":4686:4691   */\n      dup4\n        /* \"#utility.yul\":4682:4698   */\n      add\n        /* \"#utility.yul\":4675:4750   */\n      mstore\n        /* \"#utility.yul\":4606:4761   */\n      pop\n        /* \"#utility.yul\":4820:4823   */\n      0xa0\n        /* \"#utility.yul\":4862:4910   */\n      tag_342\n        /* \"#utility.yul\":4906:4909   */\n      dup5\n        /* \"#utility.yul\":4897:4903   */\n      dup3\n        /* \"#utility.yul\":4886:4895   */\n      dup6\n        /* \"#utility.yul\":4882:4904   */\n      add\n        /* \"#utility.yul\":4862:4910   */\n      tag_232\n      jump\t// in\n    tag_342:\n        /* \"#utility.yul\":4855:4859   */\n      0xa0\n        /* \"#utility.yul\":4848:4853   */\n      dup4\n        /* \"#utility.yul\":4844:4860   */\n      add\n        /* \"#utility.yul\":4837:4911   */\n      mstore\n        /* \"#utility.yul\":4771:4922   */\n      pop\n        /* \"#utility.yul\":4981:4984   */\n      0xc0\n        /* \"#utility.yul\":5023:5071   */\n      tag_343\n        /* \"#utility.yul\":5067:5070   */\n      dup5\n        /* \"#utility.yul\":5058:5064   */\n      dup3\n        /* \"#utility.yul\":5047:5056   */\n      dup6\n        /* \"#utility.yul\":5043:5065   */\n      add\n        /* \"#utility.yul\":5023:5071   */\n      tag_232\n      jump\t// in\n    tag_343:\n        /* \"#utility.yul\":5016:5020   */\n      0xc0\n        /* \"#utility.yul\":5009:5014   */\n      dup4\n        /* \"#utility.yul\":5005:5021   */\n      add\n        /* \"#utility.yul\":4998:5072   */\n      mstore\n        /* \"#utility.yul\":4932:5083   */\n      pop\n        /* \"#utility.yul\":3697:5090   */\n      swap3\n      swap2\n      pop\n      pop\n      jump\t// out\n        /* \"#utility.yul\":5096:5484   */\n    tag_22:\n        /* \"#utility.yul\":5184:5190   */\n      0x00\n        /* \"#utility.yul\":5233:5236   */\n      0xe0\n        /* \"#utility.yul\":5221:5230   */\n      dup3\n        /* \"#utility.yul\":5212:5219   */\n      dup5\n        /* \"#utility.yul\":5208:5231   */\n      sub\n        /* \"#utility.yul\":5204:5237   */\n      slt\n        /* \"#utility.yul\":5201:5321   */\n      iszero\n      tag_345\n      jumpi\n        /* \"#utility.yul\":5240:5319   */\n      tag_346\n      tag_219\n      jump\t// in\n    tag_346:\n        /* \"#utility.yul\":5201:5321   */\n    tag_345:\n        /* \"#utility.yul\":5360:5361   */\n      0x00\n        /* \"#utility.yul\":5385:5467   */\n      tag_347\n        /* \"#utility.yul\":5459:5466   */\n      dup5\n        /* \"#utility.yul\":5450:5456   */\n      dup3\n        /* \"#utility.yul\":5439:5448   */\n      dup6\n        /* \"#utility.yul\":5435:5457   */\n      add\n        /* \"#utility.yul\":5385:5467   */\n      tag_236\n      jump\t// in\n    tag_347:\n        /* \"#utility.yul\":5375:5467   */\n      swap2\n      pop\n        /* \"#utility.yul\":5331:5477   */\n      pop\n        /* \"#utility.yul\":5096:5484   */\n      swap3\n      swap2\n      pop\n      pop\n      jump\t// out\n        /* \"#utility.yul\":5490:5964   */\n    tag_26:\n        /* \"#utility.yul\":5558:5564   */\n      0x00\n        /* \"#utility.yul\":5566:5572   */\n      dup1\n        /* \"#utility.yul\":5615:5617   */\n      0x40\n        /* \"#utility.yul\":5603:5612   */\n      dup4\n        /* \"#utility.yul\":5594:5601   */\n      dup6\n        /* \"#utility.yul\":5590:5613   */\n      sub\n        /* \"#utility.yul\":5586:5618   */\n      slt\n        /* \"#utility.yul\":5583:5702   */\n      iszero\n      tag_349\n      jumpi\n        /* \"#utility.yul\":5621:5700   */\n      tag_350\n      tag_219\n      jump\t// in\n    tag_350:\n        /* \"#utility.yul\":5583:5702   */\n    tag_349:\n        /* \"#utility.yul\":5741:5742   */\n      0x00\n        /* \"#utility.yul\":5766:5819   */\n      tag_351\n        /* \"#utility.yul\":5811:5818   */\n      dup6\n        /* \"#utility.yul\":5802:5808   */\n      dup3\n        /* \"#utility.yul\":5791:5800   */\n      dup7\n        /* \"#utility.yul\":5787:5809   */\n      add\n        /* \"#utility.yul\":5766:5819   */\n      tag_235\n      jump\t// in\n    tag_351:\n        /* \"#utility.yul\":5756:5819   */\n      swap3\n      pop\n        /* \"#utility.yul\":5712:5829   */\n      pop\n        /* \"#utility.yul\":5868:5870   */\n      0x20\n        /* \"#utility.yul\":5894:5947   */\n      tag_352\n        /* \"#utility.yul\":5939:5946   */\n      dup6\n        /* \"#utility.yul\":5930:5936   */\n      dup3\n        /* \"#utility.yul\":5919:5928   */\n      dup7\n        /* \"#utility.yul\":5915:5937   */\n      add\n        /* \"#utility.yul\":5894:5947   */\n      tag_229\n      jump\t// in\n    tag_352:\n        /* \"#utility.yul\":5884:5947   */\n      swap2\n      pop\n        /* \"#utility.yul\":5839:5957   */\n      pop\n        /* \"#utility.yul\":5490:5964   */\n      swap3\n      pop\n      swap3\n      swap1\n      pop\n      jump\t// out\n        /* \"#utility.yul\":5970:6088   */\n    tag_237:\n        /* \"#utility.yul\":6057:6081   */\n      tag_354\n        /* \"#utility.yul\":6075:6080   */\n      dup2\n        /* \"#utility.yul\":6057:6081   */\n      tag_227\n      jump\t// in\n    tag_354:\n        /* \"#utility.yul\":6052:6055   */\n      dup3\n        /* \"#utility.yul\":6045:6082   */\n      mstore\n        /* \"#utility.yul\":5970:6088   */\n      pop\n      pop\n      jump\t// out\n        /* \"#utility.yul\":6094:6316   */\n    tag_32:\n        /* \"#utility.yul\":6187:6191   */\n      0x00\n        /* \"#utility.yul\":6225:6227   */\n      0x20\n        /* \"#utility.yul\":6214:6223   */\n      dup3\n        /* \"#utility.yul\":6210:6228   */\n      add\n        /* \"#utility.yul\":6202:6228   */\n      swap1\n      pop\n        /* \"#utility.yul\":6238:6309   */\n      tag_356\n        /* \"#utility.yul\":6306:6307   */\n      0x00\n        /* \"#utility.yul\":6295:6304   */\n      dup4\n        /* \"#utility.yul\":6291:6308   */\n      add\n        /* \"#utility.yul\":6282:6288   */\n      dup5\n        /* \"#utility.yul\":6238:6309   */\n      tag_237\n      jump\t// in\n    tag_356:\n        /* \"#utility.yul\":6094:6316   */\n      swap3\n      swap2\n      pop\n      pop\n      jump\t// out\n        /* \"#utility.yul\":6322:6382   */\n    tag_238:\n        /* \"#utility.yul\":6350:6353   */\n      0x00\n        /* \"#utility.yul\":6371:6376   */\n      dup2\n        /* \"#utility.yul\":6364:6376   */\n      swap1\n      pop\n        /* \"#utility.yul\":6322:6382   */\n      swap2\n      swap1\n      pop\n      jump\t// out\n        /* \"#utility.yul\":6388:6530   */\n    tag_239:\n        /* \"#utility.yul\":6438:6447   */\n      0x00\n        /* \"#utility.yul\":6471:6524   */\n      tag_359\n        /* \"#utility.yul\":6489:6523   */\n      tag_360\n        /* \"#utility.yul\":6498:6522   */\n      tag_361\n        /* \"#utility.yul\":6516:6521   */\n      dup5\n        /* \"#utility.yul\":6498:6522   */\n      tag_226\n      jump\t// in\n    tag_361:\n        /* \"#utility.yul\":6489:6523   */\n      tag_238\n      jump\t// in\n    tag_360:\n        /* \"#utility.yul\":6471:6524   */\n      tag_226\n      jump\t// in\n    tag_359:\n        /* \"#utility.yul\":6458:6524   */\n      swap1\n      pop\n        /* \"#utility.yul\":6388:6530   */\n      swap2\n      swap1\n      pop\n      jump\t// out\n        /* \"#utility.yul\":6536:6662   */\n    tag_240:\n        /* \"#utility.yul\":6586:6595   */\n      0x00\n        /* \"#utility.yul\":6619:6656   */\n      tag_363\n        /* \"#utility.yul\":6650:6655   */\n      dup3\n        /* \"#utility.yul\":6619:6656   */\n      tag_239\n      jump\t// in\n    tag_363:\n        /* \"#utility.yul\":6606:6656   */\n      swap1\n      pop\n        /* \"#utility.yul\":6536:6662   */\n      swap2\n      swap1\n      pop\n      jump\t// out\n        /* \"#utility.yul\":6668:6814   */\n    tag_241:\n        /* \"#utility.yul\":6738:6747   */\n      0x00\n        /* \"#utility.yul\":6771:6808   */\n      tag_365\n        /* \"#utility.yul\":6802:6807   */\n      dup3\n        /* \"#utility.yul\":6771:6808   */\n      tag_240\n      jump\t// in\n    tag_365:\n        /* \"#utility.yul\":6758:6808   */\n      swap1\n      pop\n        /* \"#utility.yul\":6668:6814   */\n      swap2\n      swap1\n      pop\n      jump\t// out\n        /* \"#utility.yul\":6820:6991   */\n    tag_242:\n        /* \"#utility.yul\":6927:6984   */\n      tag_367\n        /* \"#utility.yul\":6978:6983   */\n      dup2\n        /* \"#utility.yul\":6927:6984   */\n      tag_241\n      jump\t// in\n    tag_367:\n        /* \"#utility.yul\":6922:6925   */\n      dup3\n        /* \"#utility.yul\":6915:6985   */\n      mstore\n        /* \"#utility.yul\":6820:6991   */\n      pop\n      pop\n      jump\t// out\n        /* \"#utility.yul\":6997:7259   */\n    tag_37:\n        /* \"#utility.yul\":7110:7114   */\n      0x00\n        /* \"#utility.yul\":7148:7150   */\n      0x20\n        /* \"#utility.yul\":7137:7146   */\n      dup3\n        /* \"#utility.yul\":7133:7151   */\n      add\n        /* \"#utility.yul\":7125:7151   */\n      swap1\n      pop\n        /* \"#utility.yul\":7161:7252   */\n      tag_369\n        /* \"#utility.yul\":7249:7250   */\n      0x00\n        /* \"#utility.yul\":7238:7247   */\n      dup4\n        /* \"#utility.yul\":7234:7251   */\n      add\n        /* \"#utility.yul\":7225:7231   */\n      dup5\n        /* \"#utility.yul\":7161:7252   */\n      tag_242\n      jump\t// in\n    tag_369:\n        /* \"#utility.yul\":6997:7259   */\n      swap3\n      swap2\n      pop\n      pop\n      jump\t// out\n        /* \"#utility.yul\":7265:7884   */\n    tag_44:\n        /* \"#utility.yul\":7342:7348   */\n      0x00\n        /* \"#utility.yul\":7350:7356   */\n      dup1\n        /* \"#utility.yul\":7358:7364   */\n      0x00\n        /* \"#utility.yul\":7407:7409   */\n      0x60\n        /* \"#utility.yul\":7395:7404   */\n      dup5\n        /* \"#utility.yul\":7386:7393   */\n      dup7\n        /* \"#utility.yul\":7382:7405   */\n      sub\n        /* \"#utility.yul\":7378:7410   */\n      slt\n        /* \"#utility.yul\":7375:7494   */\n      iszero\n      tag_371\n      jumpi\n        /* \"#utility.yul\":7413:7492   */\n      tag_372\n      tag_219\n      jump\t// in\n    tag_372:\n        /* \"#utility.yul\":7375:7494   */\n    tag_371:\n        /* \"#utility.yul\":7533:7534   */\n      0x00\n        /* \"#utility.yul\":7558:7611   */\n      tag_373\n        /* \"#utility.yul\":7603:7610   */\n      dup7\n        /* \"#utility.yul\":7594:7600   */\n      dup3\n        /* \"#utility.yul\":7583:7592   */\n      dup8\n        /* \"#utility.yul\":7579:7601   */\n      add\n        /* \"#utility.yul\":7558:7611   */\n      tag_229\n      jump\t// in\n    tag_373:\n        /* \"#utility.yul\":7548:7611   */\n      swap4\n      pop\n        /* \"#utility.yul\":7504:7621   */\n      pop\n        /* \"#utility.yul\":7660:7662   */\n      0x20\n        /* \"#utility.yul\":7686:7739   */\n      tag_374\n        /* \"#utility.yul\":7731:7738   */\n      dup7\n        /* \"#utility.yul\":7722:7728   */\n      dup3\n        /* \"#utility.yul\":7711:7720   */\n      dup8\n        /* \"#utility.yul\":7707:7729   */\n      add\n        /* \"#utility.yul\":7686:7739   */\n      tag_235\n      jump\t// in\n    tag_374:\n        /* \"#utility.yul\":7676:7739   */\n      swap3\n      pop\n        /* \"#utility.yul\":7631:7749   */\n      pop\n        /* \"#utility.yul\":7788:7790   */\n      0x40\n        /* \"#utility.yul\":7814:7867   */\n      tag_375\n        /* \"#utility.yul\":7859:7866   */\n      dup7\n        /* \"#utility.yul\":7850:7856   */\n      dup3\n        /* \"#utility.yul\":7839:7848   */\n      dup8\n        /* \"#utility.yul\":7835:7857   */\n      add\n        /* \"#utility.yul\":7814:7867   */\n      tag_229\n      jump\t// in\n    tag_375:\n        /* \"#utility.yul\":7804:7867   */\n      swap2\n      pop\n        /* \"#utility.yul\":7759:7877   */\n      pop\n        /* \"#utility.yul\":7265:7884   */\n      swap3\n      pop\n      swap3\n      pop\n      swap3\n      jump\t// out\n        /* \"#utility.yul\":7890:8007   */\n    tag_243:\n        /* \"#utility.yul\":7999:8000   */\n      0x00\n        /* \"#utility.yul\":7996:7997   */\n      dup1\n        /* \"#utility.yul\":7989:8001   */\n      revert\n        /* \"#utility.yul\":8013:8130   */\n    tag_244:\n        /* \"#utility.yul\":8122:8123   */\n      0x00\n        /* \"#utility.yul\":8119:8120   */\n      dup1\n        /* \"#utility.yul\":8112:8124   */\n      revert\n        /* \"#utility.yul\":8136:8253   */\n    tag_245:\n        /* \"#utility.yul\":8245:8246   */\n      0x00\n        /* \"#utility.yul\":8242:8243   */\n      dup1\n        /* \"#utility.yul\":8235:8247   */\n      revert\n        /* \"#utility.yul\":8272:8824   */\n    tag_246:\n        /* \"#utility.yul\":8329:8337   */\n      0x00\n        /* \"#utility.yul\":8339:8345   */\n      dup1\n        /* \"#utility.yul\":8389:8392   */\n      dup4\n        /* \"#utility.yul\":8382:8386   */\n      0x1f\n        /* \"#utility.yul\":8374:8380   */\n      dup5\n        /* \"#utility.yul\":8370:8387   */\n      add\n        /* \"#utility.yul\":8366:8393   */\n      slt\n        /* \"#utility.yul\":8356:8478   */\n      tag_380\n      jumpi\n        /* \"#utility.yul\":8397:8476   */\n      tag_381\n      tag_243\n      jump\t// in\n    tag_381:\n        /* \"#utility.yul\":8356:8478   */\n    tag_380:\n        /* \"#utility.yul\":8510:8516   */\n      dup3\n        /* \"#utility.yul\":8497:8517   */\n      calldataload\n        /* \"#utility.yul\":8487:8517   */\n      swap1\n      pop\n        /* \"#utility.yul\":8540:8558   */\n      0xffffffffffffffff\n        /* \"#utility.yul\":8532:8538   */\n      dup2\n        /* \"#utility.yul\":8529:8559   */\n      gt\n        /* \"#utility.yul\":8526:8643   */\n      iszero\n      tag_382\n      jumpi\n        /* \"#utility.yul\":8562:8641   */\n      tag_383\n      tag_244\n      jump\t// in\n    tag_383:\n        /* \"#utility.yul\":8526:8643   */\n    tag_382:\n        /* \"#utility.yul\":8676:8680   */\n      0x20\n        /* \"#utility.yul\":8668:8674   */\n      dup4\n        /* \"#utility.yul\":8664:8681   */\n      add\n        /* \"#utility.yul\":8652:8681   */\n      swap2\n      pop\n        /* \"#utility.yul\":8730:8733   */\n      dup4\n        /* \"#utility.yul\":8722:8726   */\n      0x01\n        /* \"#utility.yul\":8714:8720   */\n      dup3\n        /* \"#utility.yul\":8710:8727   */\n      mul\n        /* \"#utility.yul\":8700:8708   */\n      dup4\n        /* \"#utility.yul\":8696:8728   */\n      add\n        /* \"#utility.yul\":8693:8734   */\n      gt\n        /* \"#utility.yul\":8690:8818   */\n      iszero\n      tag_384\n      jumpi\n        /* \"#utility.yul\":8737:8816   */\n      tag_385\n      tag_245\n      jump\t// in\n    tag_385:\n        /* \"#utility.yul\":8690:8818   */\n    tag_384:\n        /* \"#utility.yul\":8272:8824   */\n      swap3\n      pop\n      swap3\n      swap1\n      pop\n      jump\t// out\n        /* \"#utility.yul\":8830:9647   */\n    tag_49:\n        /* \"#utility.yul\":8918:8924   */\n      0x00\n        /* \"#utility.yul\":8926:8932   */\n      dup1\n        /* \"#utility.yul\":8934:8940   */\n      0x00\n        /* \"#utility.yul\":8942:8948   */\n      dup1\n        /* \"#utility.yul\":8991:8993   */\n      0x60\n        /* \"#utility.yul\":8979:8988   */\n      dup6\n        /* \"#utility.yul\":8970:8977   */\n      dup8\n        /* \"#utility.yul\":8966:8989   */\n      sub\n        /* \"#utility.yul\":8962:8994   */\n      slt\n        /* \"#utility.yul\":8959:9078   */\n      iszero\n      tag_387\n      jumpi\n        /* \"#utility.yul\":8997:9076   */\n      tag_388\n      tag_219\n      jump\t// in\n    tag_388:\n        /* \"#utility.yul\":8959:9078   */\n    tag_387:\n        /* \"#utility.yul\":9117:9118   */\n      0x00\n        /* \"#utility.yul\":9142:9195   */\n      tag_389\n        /* \"#utility.yul\":9187:9194   */\n      dup8\n        /* \"#utility.yul\":9178:9184   */\n      dup3\n        /* \"#utility.yul\":9167:9176   */\n      dup9\n        /* \"#utility.yul\":9163:9185   */\n      add\n        /* \"#utility.yul\":9142:9195   */\n      tag_235\n      jump\t// in\n    tag_389:\n        /* \"#utility.yul\":9132:9195   */\n      swap5\n      pop\n        /* \"#utility.yul\":9088:9205   */\n      pop\n        /* \"#utility.yul\":9244:9246   */\n      0x20\n        /* \"#utility.yul\":9270:9323   */\n      tag_390\n        /* \"#utility.yul\":9315:9322   */\n      dup8\n        /* \"#utility.yul\":9306:9312   */\n      dup3\n        /* \"#utility.yul\":9295:9304   */\n      dup9\n        /* \"#utility.yul\":9291:9313   */\n      add\n        /* \"#utility.yul\":9270:9323   */\n      tag_235\n      jump\t// in\n    tag_390:\n        /* \"#utility.yul\":9260:9323   */\n      swap4\n      pop\n        /* \"#utility.yul\":9215:9333   */\n      pop\n        /* \"#utility.yul\":9400:9402   */\n      0x40\n        /* \"#utility.yul\":9389:9398   */\n      dup6\n        /* \"#utility.yul\":9385:9403   */\n      add\n        /* \"#utility.yul\":9372:9404   */\n      calldataload\n        /* \"#utility.yul\":9431:9449   */\n      0xffffffffffffffff\n        /* \"#utility.yul\":9423:9429   */\n      dup2\n        /* \"#utility.yul\":9420:9450   */\n      gt\n        /* \"#utility.yul\":9417:9534   */\n      iszero\n      tag_391\n      jumpi\n        /* \"#utility.yul\":9453:9532   */\n      tag_392\n      tag_220\n      jump\t// in\n    tag_392:\n        /* \"#utility.yul\":9417:9534   */\n    tag_391:\n        /* \"#utility.yul\":9566:9630   */\n      tag_393\n        /* \"#utility.yul\":9622:9629   */\n      dup8\n        /* \"#utility.yul\":9613:9619   */\n      dup3\n        /* \"#utility.yul\":9602:9611   */\n      dup9\n        /* \"#utility.yul\":9598:9620   */\n      add\n        /* \"#utility.yul\":9566:9630   */\n      tag_246\n      jump\t// in\n    tag_393:\n        /* \"#utility.yul\":9548:9630   */\n      swap3\n      pop\n      swap3\n      pop\n        /* \"#utility.yul\":9343:9640   */\n      pop\n        /* \"#utility.yul\":8830:9647   */\n      swap3\n      swap6\n      swap2\n      swap5\n      pop\n      swap3\n      pop\n      jump\t// out\n        /* \"#utility.yul\":9653:9761   */\n    tag_247:\n        /* \"#utility.yul\":9730:9754   */\n      tag_395\n        /* \"#utility.yul\":9748:9753   */\n      dup2\n        /* \"#utility.yul\":9730:9754   */\n      tag_233\n      jump\t// in\n    tag_395:\n        /* \"#utility.yul\":9725:9728   */\n      dup3\n        /* \"#utility.yul\":9718:9755   */\n      mstore\n        /* \"#utility.yul\":9653:9761   */\n      pop\n      pop\n      jump\t// out\n        /* \"#utility.yul\":9767:9875   */\n    tag_248:\n        /* \"#utility.yul\":9844:9868   */\n      tag_397\n        /* \"#utility.yul\":9862:9867   */\n      dup2\n        /* \"#utility.yul\":9844:9868   */\n      tag_227\n      jump\t// in\n    tag_397:\n        /* \"#utility.yul\":9839:9842   */\n      dup3\n        /* \"#utility.yul\":9832:9869   */\n      mstore\n        /* \"#utility.yul\":9767:9875   */\n      pop\n      pop\n      jump\t// out\n        /* \"#utility.yul\":9881:9986   */\n    tag_249:\n        /* \"#utility.yul\":9956:9979   */\n      tag_399\n        /* \"#utility.yul\":9973:9978   */\n      dup2\n        /* \"#utility.yul\":9956:9979   */\n      tag_230\n      jump\t// in\n    tag_399:\n        /* \"#utility.yul\":9951:9954   */\n      dup3\n        /* \"#utility.yul\":9944:9980   */\n      mstore\n        /* \"#utility.yul\":9881:9986   */\n      pop\n      pop\n      jump\t// out\n        /* \"#utility.yul\":10056:10728   */\n    tag_250:\n        /* \"#utility.yul\":10193:10197   */\n      0x60\n        /* \"#utility.yul\":10188:10191   */\n      dup3\n        /* \"#utility.yul\":10184:10198   */\n      add\n        /* \"#utility.yul\":10282:10286   */\n      0x00\n        /* \"#utility.yul\":10275:10280   */\n      dup3\n        /* \"#utility.yul\":10271:10287   */\n      add\n        /* \"#utility.yul\":10265:10288   */\n      mload\n        /* \"#utility.yul\":10301:10364   */\n      tag_401\n        /* \"#utility.yul\":10358:10362   */\n      0x00\n        /* \"#utility.yul\":10353:10356   */\n      dup6\n        /* \"#utility.yul\":10349:10363   */\n      add\n        /* \"#utility.yul\":10335:10347   */\n      dup3\n        /* \"#utility.yul\":10301:10364   */\n      tag_248\n      jump\t// in\n    tag_401:\n        /* \"#utility.yul\":10208:10374   */\n      pop\n        /* \"#utility.yul\":10458:10462   */\n      0x20\n        /* \"#utility.yul\":10451:10456   */\n      dup3\n        /* \"#utility.yul\":10447:10463   */\n      add\n        /* \"#utility.yul\":10441:10464   */\n      mload\n        /* \"#utility.yul\":10477:10540   */\n      tag_402\n        /* \"#utility.yul\":10534:10538   */\n      0x20\n        /* \"#utility.yul\":10529:10532   */\n      dup6\n        /* \"#utility.yul\":10525:10539   */\n      add\n        /* \"#utility.yul\":10511:10523   */\n      dup3\n        /* \"#utility.yul\":10477:10540   */\n      tag_248\n      jump\t// in\n    tag_402:\n        /* \"#utility.yul\":10384:10550   */\n      pop\n        /* \"#utility.yul\":10631:10635   */\n      0x40\n        /* \"#utility.yul\":10624:10629   */\n      dup3\n        /* \"#utility.yul\":10620:10636   */\n      add\n        /* \"#utility.yul\":10614:10637   */\n      mload\n        /* \"#utility.yul\":10650:10711   */\n      tag_403\n        /* \"#utility.yul\":10705:10709   */\n      0x40\n        /* \"#utility.yul\":10700:10703   */\n      dup6\n        /* \"#utility.yul\":10696:10710   */\n      add\n        /* \"#utility.yul\":10682:10694   */\n      dup3\n        /* \"#utility.yul\":10650:10711   */\n      tag_249\n      jump\t// in\n    tag_403:\n        /* \"#utility.yul\":10560:10721   */\n      pop\n        /* \"#utility.yul\":10162:10728   */\n      pop\n        /* \"#utility.yul\":10056:10728   */\n      pop\n      pop\n      jump\t// out\n        /* \"#utility.yul\":10814:12103   */\n    tag_251:\n        /* \"#utility.yul\":10981:10987   */\n      0x0100\n        /* \"#utility.yul\":10976:10979   */\n      dup3\n        /* \"#utility.yul\":10972:10988   */\n      add\n        /* \"#utility.yul\":11073:11077   */\n      0x00\n        /* \"#utility.yul\":11066:11071   */\n      dup3\n        /* \"#utility.yul\":11062:11078   */\n      add\n        /* \"#utility.yul\":11056:11079   */\n      mload\n        /* \"#utility.yul\":11092:11155   */\n      tag_405\n        /* \"#utility.yul\":11149:11153   */\n      0x00\n        /* \"#utility.yul\":11144:11147   */\n      dup6\n        /* \"#utility.yul\":11140:11154   */\n      add\n        /* \"#utility.yul\":11126:11138   */\n      dup3\n        /* \"#utility.yul\":11092:11155   */\n      tag_247\n      jump\t// in\n    tag_405:\n        /* \"#utility.yul\":10998:11165   */\n      pop\n        /* \"#utility.yul\":11250:11254   */\n      0x20\n        /* \"#utility.yul\":11243:11248   */\n      dup3\n        /* \"#utility.yul\":11239:11255   */\n      add\n        /* \"#utility.yul\":11233:11256   */\n      mload\n        /* \"#utility.yul\":11269:11332   */\n      tag_406\n        /* \"#utility.yul\":11326:11330   */\n      0x20\n        /* \"#utility.yul\":11321:11324   */\n      dup6\n        /* \"#utility.yul\":11317:11331   */\n      add\n        /* \"#utility.yul\":11303:11315   */\n      dup3\n        /* \"#utility.yul\":11269:11332   */\n      tag_247\n      jump\t// in\n    tag_406:\n        /* \"#utility.yul\":11175:11342   */\n      pop\n        /* \"#utility.yul\":11425:11429   */\n      0x40\n        /* \"#utility.yul\":11418:11423   */\n      dup3\n        /* \"#utility.yul\":11414:11430   */\n      add\n        /* \"#utility.yul\":11408:11431   */\n      mload\n        /* \"#utility.yul\":11444:11507   */\n      tag_407\n        /* \"#utility.yul\":11501:11505   */\n      0x40\n        /* \"#utility.yul\":11496:11499   */\n      dup6\n        /* \"#utility.yul\":11492:11506   */\n      add\n        /* \"#utility.yul\":11478:11490   */\n      dup3\n        /* \"#utility.yul\":11444:11507   */\n      tag_248\n      jump\t// in\n    tag_407:\n        /* \"#utility.yul\":11352:11517   */\n      pop\n        /* \"#utility.yul\":11602:11606   */\n      0x60\n        /* \"#utility.yul\":11595:11600   */\n      dup3\n        /* \"#utility.yul\":11591:11607   */\n      add\n        /* \"#utility.yul\":11585:11608   */\n      mload\n        /* \"#utility.yul\":11621:11734   */\n      tag_408\n        /* \"#utility.yul\":11728:11732   */\n      0x60\n        /* \"#utility.yul\":11723:11726   */\n      dup6\n        /* \"#utility.yul\":11719:11733   */\n      add\n        /* \"#utility.yul\":11705:11717   */\n      dup3\n        /* \"#utility.yul\":11621:11734   */\n      tag_250\n      jump\t// in\n    tag_408:\n        /* \"#utility.yul\":11527:11744   */\n      pop\n        /* \"#utility.yul\":11830:11834   */\n      0x80\n        /* \"#utility.yul\":11823:11828   */\n      dup3\n        /* \"#utility.yul\":11819:11835   */\n      add\n        /* \"#utility.yul\":11813:11836   */\n      mload\n        /* \"#utility.yul\":11849:11910   */\n      tag_409\n        /* \"#utility.yul\":11904:11908   */\n      0xc0\n        /* \"#utility.yul\":11899:11902   */\n      dup6\n        /* \"#utility.yul\":11895:11909   */\n      add\n        /* \"#utility.yul\":11881:11893   */\n      dup3\n        /* \"#utility.yul\":11849:11910   */\n      tag_249\n      jump\t// in\n    tag_409:\n        /* \"#utility.yul\":11754:11920   */\n      pop\n        /* \"#utility.yul\":12006:12010   */\n      0xa0\n        /* \"#utility.yul\":11999:12004   */\n      dup3\n        /* \"#utility.yul\":11995:12011   */\n      add\n        /* \"#utility.yul\":11989:12012   */\n      mload\n        /* \"#utility.yul\":12025:12086   */\n      tag_410\n        /* \"#utility.yul\":12080:12084   */\n      0xe0\n        /* \"#utility.yul\":12075:12078   */\n      dup6\n        /* \"#utility.yul\":12071:12085   */\n      add\n        /* \"#utility.yul\":12057:12069   */\n      dup3\n        /* \"#utility.yul\":12025:12086   */\n      tag_249\n      jump\t// in\n    tag_410:\n        /* \"#utility.yul\":11930:12096   */\n      pop\n        /* \"#utility.yul\":10950:12103   */\n      pop\n        /* \"#utility.yul\":10814:12103   */\n      pop\n      pop\n      jump\t// out\n        /* \"#utility.yul\":12109:12472   */\n    tag_59:\n        /* \"#utility.yul\":12272:12276   */\n      0x00\n        /* \"#utility.yul\":12310:12313   */\n      0x0100\n        /* \"#utility.yul\":12299:12308   */\n      dup3\n        /* \"#utility.yul\":12295:12314   */\n      add\n        /* \"#utility.yul\":12287:12314   */\n      swap1\n      pop\n        /* \"#utility.yul\":12324:12465   */\n      tag_412\n        /* \"#utility.yul\":12462:12463   */\n      0x00\n        /* \"#utility.yul\":12451:12460   */\n      dup4\n        /* \"#utility.yul\":12447:12464   */\n      add\n        /* \"#utility.yul\":12438:12444   */\n      dup5\n        /* \"#utility.yul\":12324:12465   */\n      tag_251\n      jump\t// in\n    tag_412:\n        /* \"#utility.yul\":12109:12472   */\n      swap3\n      swap2\n      pop\n      pop\n      jump\t// out\n        /* \"#utility.yul\":12478:12596   */\n    tag_252:\n        /* \"#utility.yul\":12565:12589   */\n      tag_414\n        /* \"#utility.yul\":12583:12588   */\n      dup2\n        /* \"#utility.yul\":12565:12589   */\n      tag_233\n      jump\t// in\n    tag_414:\n        /* \"#utility.yul\":12560:12563   */\n      dup3\n        /* \"#utility.yul\":12553:12590   */\n      mstore\n        /* \"#utility.yul\":12478:12596   */\n      pop\n      pop\n      jump\t// out\n        /* \"#utility.yul\":12602:12700   */\n    tag_253:\n        /* \"#utility.yul\":12653:12659   */\n      0x00\n        /* \"#utility.yul\":12687:12692   */\n      dup2\n        /* \"#utility.yul\":12681:12693   */\n      mload\n        /* \"#utility.yul\":12671:12693   */\n      swap1\n      pop\n        /* \"#utility.yul\":12602:12700   */\n      swap2\n      swap1\n      pop\n      jump\t// out\n        /* \"#utility.yul\":12706:12874   */\n    tag_254:\n        /* \"#utility.yul\":12789:12800   */\n      0x00\n        /* \"#utility.yul\":12823:12829   */\n      dup3\n        /* \"#utility.yul\":12818:12821   */\n      dup3\n        /* \"#utility.yul\":12811:12830   */\n      mstore\n        /* \"#utility.yul\":12863:12867   */\n      0x20\n        /* \"#utility.yul\":12858:12861   */\n      dup3\n        /* \"#utility.yul\":12854:12868   */\n      add\n        /* \"#utility.yul\":12839:12868   */\n      swap1\n      pop\n        /* \"#utility.yul\":12706:12874   */\n      swap3\n      swap2\n      pop\n      pop\n      jump\t// out\n        /* \"#utility.yul\":12880:13126   */\n    tag_255:\n        /* \"#utility.yul\":12961:12962   */\n      0x00\n        /* \"#utility.yul\":12971:13084   */\n    tag_418:\n        /* \"#utility.yul\":12985:12991   */\n      dup4\n        /* \"#utility.yul\":12982:12983   */\n      dup2\n        /* \"#utility.yul\":12979:12992   */\n      lt\n        /* \"#utility.yul\":12971:13084   */\n      iszero\n      tag_420\n      jumpi\n        /* \"#utility.yul\":13070:13071   */\n      dup1\n        /* \"#utility.yul\":13065:13068   */\n      dup3\n        /* \"#utility.yul\":13061:13072   */\n      add\n        /* \"#utility.yul\":13055:13073   */\n      mload\n        /* \"#utility.yul\":13051:13052   */\n      dup2\n        /* \"#utility.yul\":13046:13049   */\n      dup5\n        /* \"#utility.yul\":13042:13053   */\n      add\n        /* \"#utility.yul\":13035:13074   */\n      mstore\n        /* \"#utility.yul\":13007:13009   */\n      0x20\n        /* \"#utility.yul\":13004:13005   */\n      dup2\n        /* \"#utility.yul\":13000:13010   */\n      add\n        /* \"#utility.yul\":12995:13010   */\n      swap1\n      pop\n        /* \"#utility.yul\":12971:13084   */\n      jump(tag_418)\n    tag_420:\n        /* \"#utility.yul\":13118:13119   */\n      0x00\n        /* \"#utility.yul\":13109:13115   */\n      dup5\n        /* \"#utility.yul\":13104:13107   */\n      dup5\n        /* \"#utility.yul\":13100:13116   */\n      add\n        /* \"#utility.yul\":13093:13120   */\n      mstore\n        /* \"#utility.yul\":12942:13126   */\n      pop\n        /* \"#utility.yul\":12880:13126   */\n      pop\n      pop\n      pop\n      jump\t// out\n        /* \"#utility.yul\":13132:13505   */\n    tag_256:\n        /* \"#utility.yul\":13218:13221   */\n      0x00\n        /* \"#utility.yul\":13246:13284   */\n      tag_422\n        /* \"#utility.yul\":13278:13283   */\n      dup3\n        /* \"#utility.yul\":13246:13284   */\n      tag_253\n      jump\t// in\n    tag_422:\n        /* \"#utility.yul\":13300:13370   */\n      tag_423\n        /* \"#utility.yul\":13363:13369   */\n      dup2\n        /* \"#utility.yul\":13358:13361   */\n      dup6\n        /* \"#utility.yul\":13300:13370   */\n      tag_254\n      jump\t// in\n    tag_423:\n        /* \"#utility.yul\":13293:13370   */\n      swap4\n      pop\n        /* \"#utility.yul\":13379:13444   */\n      tag_424\n        /* \"#utility.yul\":13437:13443   */\n      dup2\n        /* \"#utility.yul\":13432:13435   */\n      dup6\n        /* \"#utility.yul\":13425:13429   */\n      0x20\n        /* \"#utility.yul\":13418:13423   */\n      dup7\n        /* \"#utility.yul\":13414:13430   */\n      add\n        /* \"#utility.yul\":13379:13444   */\n      tag_255\n      jump\t// in\n    tag_424:\n        /* \"#utility.yul\":13469:13498   */\n      tag_425\n        /* \"#utility.yul\":13491:13497   */\n      dup2\n        /* \"#utility.yul\":13469:13498   */\n      tag_222\n      jump\t// in\n    tag_425:\n        /* \"#utility.yul\":13464:13467   */\n      dup5\n        /* \"#utility.yul\":13460:13499   */\n      add\n        /* \"#utility.yul\":13453:13499   */\n      swap2\n      pop\n        /* \"#utility.yul\":13222:13505   */\n      pop\n        /* \"#utility.yul\":13132:13505   */\n      swap3\n      swap2\n      pop\n      pop\n      jump\t// out\n        /* \"#utility.yul\":13511:14151   */\n    tag_61:\n        /* \"#utility.yul\":13706:13710   */\n      0x00\n        /* \"#utility.yul\":13744:13747   */\n      0x80\n        /* \"#utility.yul\":13733:13742   */\n      dup3\n        /* \"#utility.yul\":13729:13748   */\n      add\n        /* \"#utility.yul\":13721:13748   */\n      swap1\n      pop\n        /* \"#utility.yul\":13758:13829   */\n      tag_427\n        /* \"#utility.yul\":13826:13827   */\n      0x00\n        /* \"#utility.yul\":13815:13824   */\n      dup4\n        /* \"#utility.yul\":13811:13828   */\n      add\n        /* \"#utility.yul\":13802:13808   */\n      dup8\n        /* \"#utility.yul\":13758:13829   */\n      tag_237\n      jump\t// in\n    tag_427:\n        /* \"#utility.yul\":13839:13911   */\n      tag_428\n        /* \"#utility.yul\":13907:13909   */\n      0x20\n        /* \"#utility.yul\":13896:13905   */\n      dup4\n        /* \"#utility.yul\":13892:13910   */\n      add\n        /* \"#utility.yul\":13883:13889   */\n      dup7\n        /* \"#utility.yul\":13839:13911   */\n      tag_252\n      jump\t// in\n    tag_428:\n        /* \"#utility.yul\":13921:13993   */\n      tag_429\n        /* \"#utility.yul\":13989:13991   */\n      0x40\n        /* \"#utility.yul\":13978:13987   */\n      dup4\n        /* \"#utility.yul\":13974:13992   */\n      add\n        /* \"#utility.yul\":13965:13971   */\n      dup6\n        /* \"#utility.yul\":13921:13993   */\n      tag_252\n      jump\t// in\n    tag_429:\n        /* \"#utility.yul\":14040:14049   */\n      dup2\n        /* \"#utility.yul\":14034:14038   */\n      dup2\n        /* \"#utility.yul\":14030:14050   */\n      sub\n        /* \"#utility.yul\":14025:14027   */\n      0x60\n        /* \"#utility.yul\":14014:14023   */\n      dup4\n        /* \"#utility.yul\":14010:14028   */\n      add\n        /* \"#utility.yul\":14003:14051   */\n      mstore\n        /* \"#utility.yul\":14068:14144   */\n      tag_430\n        /* \"#utility.yul\":14139:14143   */\n      dup2\n        /* \"#utility.yul\":14130:14136   */\n      dup5\n        /* \"#utility.yul\":14068:14144   */\n      tag_256\n      jump\t// in\n    tag_430:\n        /* \"#utility.yul\":14060:14144   */\n      swap1\n      pop\n        /* \"#utility.yul\":13511:14151   */\n      swap6\n      swap5\n      pop\n      pop\n      pop\n      pop\n      pop\n      jump\t// out\n        /* \"#utility.yul\":14157:14300   */\n    tag_257:\n        /* \"#utility.yul\":14214:14219   */\n      0x00\n        /* \"#utility.yul\":14245:14251   */\n      dup2\n        /* \"#utility.yul\":14239:14252   */\n      mload\n        /* \"#utility.yul\":14230:14252   */\n      swap1\n      pop\n        /* \"#utility.yul\":14261:14294   */\n      tag_432\n        /* \"#utility.yul\":14288:14293   */\n      dup2\n        /* \"#utility.yul\":14261:14294   */\n      tag_234\n      jump\t// in\n    tag_432:\n        /* \"#utility.yul\":14157:14300   */\n      swap3\n      swap2\n      pop\n      pop\n      jump\t// out\n        /* \"#utility.yul\":14306:14657   */\n    tag_70:\n        /* \"#utility.yul\":14376:14382   */\n      0x00\n        /* \"#utility.yul\":14425:14427   */\n      0x20\n        /* \"#utility.yul\":14413:14422   */\n      dup3\n        /* \"#utility.yul\":14404:14411   */\n      dup5\n        /* \"#utility.yul\":14400:14423   */\n      sub\n        /* \"#utility.yul\":14396:14428   */\n      slt\n        /* \"#utility.yul\":14393:14512   */\n      iszero\n      tag_434\n      jumpi\n        /* \"#utility.yul\":14431:14510   */\n      tag_435\n      tag_219\n      jump\t// in\n    tag_435:\n        /* \"#utility.yul\":14393:14512   */\n    tag_434:\n        /* \"#utility.yul\":14551:14552   */\n      0x00\n        /* \"#utility.yul\":14576:14640   */\n      tag_436\n        /* \"#utility.yul\":14632:14639   */\n      dup5\n        /* \"#utility.yul\":14623:14629   */\n      dup3\n        /* \"#utility.yul\":14612:14621   */\n      dup6\n        /* \"#utility.yul\":14608:14630   */\n      add\n        /* \"#utility.yul\":14576:14640   */\n      tag_257\n      jump\t// in\n    tag_436:\n        /* \"#utility.yul\":14566:14640   */\n      swap2\n      pop\n        /* \"#utility.yul\":14522:14650   */\n      pop\n        /* \"#utility.yul\":14306:14657   */\n      swap3\n      swap2\n      pop\n      pop\n      jump\t// out\n        /* \"#utility.yul\":14663:14831   */\n    tag_258:\n        /* \"#utility.yul\":14803:14823   */\n      0x496e73756666696369656e742057455448390000000000000000000000000000\n        /* \"#utility.yul\":14799:14800   */\n      0x00\n        /* \"#utility.yul\":14791:14797   */\n      dup3\n        /* \"#utility.yul\":14787:14801   */\n      add\n        /* \"#utility.yul\":14780:14824   */\n      mstore\n        /* \"#utility.yul\":14663:14831   */\n      pop\n      jump\t// out\n        /* \"#utility.yul\":14837:15203   */\n    tag_259:\n        /* \"#utility.yul\":14979:14982   */\n      0x00\n        /* \"#utility.yul\":15000:15067   */\n      tag_439\n        /* \"#utility.yul\":15064:15066   */\n      0x12\n        /* \"#utility.yul\":15059:15062   */\n      dup4\n        /* \"#utility.yul\":15000:15067   */\n      tag_215\n      jump\t// in\n    tag_439:\n        /* \"#utility.yul\":14993:15067   */\n      swap2\n      pop\n        /* \"#utility.yul\":15076:15169   */\n      tag_440\n        /* \"#utility.yul\":15165:15168   */\n      dup3\n        /* \"#utility.yul\":15076:15169   */\n      tag_258\n      jump\t// in\n    tag_440:\n        /* \"#utility.yul\":15194:15196   */\n      0x20\n        /* \"#utility.yul\":15189:15192   */\n      dup3\n        /* \"#utility.yul\":15185:15197   */\n      add\n        /* \"#utility.yul\":15178:15197   */\n      swap1\n      pop\n        /* \"#utility.yul\":14837:15203   */\n      swap2\n      swap1\n      pop\n      jump\t// out\n        /* \"#utility.yul\":15209:15628   */\n    tag_73:\n        /* \"#utility.yul\":15375:15379   */\n      0x00\n        /* \"#utility.yul\":15413:15415   */\n      0x20\n        /* \"#utility.yul\":15402:15411   */\n      dup3\n        /* \"#utility.yul\":15398:15416   */\n      add\n        /* \"#utility.yul\":15390:15416   */\n      swap1\n      pop\n        /* \"#utility.yul\":15462:15471   */\n      dup2\n        /* \"#utility.yul\":15456:15460   */\n      dup2\n        /* \"#utility.yul\":15452:15472   */\n      sub\n        /* \"#utility.yul\":15448:15449   */\n      0x00\n        /* \"#utility.yul\":15437:15446   */\n      dup4\n        /* \"#utility.yul\":15433:15450   */\n      add\n        /* \"#utility.yul\":15426:15473   */\n      mstore\n        /* \"#utility.yul\":15490:15621   */\n      tag_442\n        /* \"#utility.yul\":15616:15620   */\n      dup2\n        /* \"#utility.yul\":15490:15621   */\n      tag_259\n      jump\t// in\n    tag_442:\n        /* \"#utility.yul\":15482:15621   */\n      swap1\n      pop\n        /* \"#utility.yul\":15209:15628   */\n      swap2\n      swap1\n      pop\n      jump\t// out\n        /* \"#utility.yul\":15634:15856   */\n    tag_76:\n        /* \"#utility.yul\":15727:15731   */\n      0x00\n        /* \"#utility.yul\":15765:15767   */\n      0x20\n        /* \"#utility.yul\":15754:15763   */\n      dup3\n        /* \"#utility.yul\":15750:15768   */\n      add\n        /* \"#utility.yul\":15742:15768   */\n      swap1\n      pop\n        /* \"#utility.yul\":15778:15849   */\n      tag_444\n        /* \"#utility.yul\":15846:15847   */\n      0x00\n        /* \"#utility.yul\":15835:15844   */\n      dup4\n        /* \"#utility.yul\":15831:15848   */\n      add\n        /* \"#utility.yul\":15822:15828   */\n      dup5\n        /* \"#utility.yul\":15778:15849   */\n      tag_252\n      jump\t// in\n    tag_444:\n        /* \"#utility.yul\":15634:15856   */\n      swap3\n      swap2\n      pop\n      pop\n      jump\t// out\n        /* \"#utility.yul\":15862:16030   */\n    tag_260:\n        /* \"#utility.yul\":16002:16022   */\n      0x496e73756666696369656e7420746f6b656e0000000000000000000000000000\n        /* \"#utility.yul\":15998:15999   */\n      0x00\n        /* \"#utility.yul\":15990:15996   */\n      dup3\n        /* \"#utility.yul\":15986:16000   */\n      add\n        /* \"#utility.yul\":15979:16023   */\n      mstore\n        /* \"#utility.yul\":15862:16030   */\n      pop\n      jump\t// out\n        /* \"#utility.yul\":16036:16402   */\n    tag_261:\n        /* \"#utility.yul\":16178:16181   */\n      0x00\n        /* \"#utility.yul\":16199:16266   */\n      tag_447\n        /* \"#utility.yul\":16263:16265   */\n      0x12\n        /* \"#utility.yul\":16258:16261   */\n      dup4\n        /* \"#utility.yul\":16199:16266   */\n      tag_215\n      jump\t// in\n    tag_447:\n        /* \"#utility.yul\":16192:16266   */\n      swap2\n      pop\n        /* \"#utility.yul\":16275:16368   */\n      tag_448\n        /* \"#utility.yul\":16364:16367   */\n      dup3\n        /* \"#utility.yul\":16275:16368   */\n      tag_260\n      jump\t// in\n    tag_448:\n        /* \"#utility.yul\":16393:16395   */\n      0x20\n        /* \"#utility.yul\":16388:16391   */\n      dup3\n        /* \"#utility.yul\":16384:16396   */\n      add\n        /* \"#utility.yul\":16377:16396   */\n      swap1\n      pop\n        /* \"#utility.yul\":16036:16402   */\n      swap2\n      swap1\n      pop\n      jump\t// out\n        /* \"#utility.yul\":16408:16827   */\n    tag_88:\n        /* \"#utility.yul\":16574:16578   */\n      0x00\n        /* \"#utility.yul\":16612:16614   */\n      0x20\n        /* \"#utility.yul\":16601:16610   */\n      dup3\n        /* \"#utility.yul\":16597:16615   */\n      add\n        /* \"#utility.yul\":16589:16615   */\n      swap1\n      pop\n        /* \"#utility.yul\":16661:16670   */\n      dup2\n        /* \"#utility.yul\":16655:16659   */\n      dup2\n        /* \"#utility.yul\":16651:16671   */\n      sub\n        /* \"#utility.yul\":16647:16648   */\n      0x00\n        /* \"#utility.yul\":16636:16645   */\n      dup4\n        /* \"#utility.yul\":16632:16649   */\n      add\n        /* \"#utility.yul\":16625:16672   */\n      mstore\n        /* \"#utility.yul\":16689:16820   */\n      tag_450\n        /* \"#utility.yul\":16815:16819   */\n      dup2\n        /* \"#utility.yul\":16689:16820   */\n      tag_261\n      jump\t// in\n    tag_450:\n        /* \"#utility.yul\":16681:16820   */\n      swap1\n      pop\n        /* \"#utility.yul\":16408:16827   */\n      swap2\n      swap1\n      pop\n      jump\t// out\n        /* \"#utility.yul\":16867:17604   */\n    tag_262:\n        /* \"#utility.yul\":16941:16946   */\n      0x00\n        /* \"#utility.yul\":16985:16989   */\n      0x60\n        /* \"#utility.yul\":16973:16982   */\n      dup3\n        /* \"#utility.yul\":16968:16971   */\n      dup5\n        /* \"#utility.yul\":16964:16983   */\n      sub\n        /* \"#utility.yul\":16960:16990   */\n      slt\n        /* \"#utility.yul\":16957:17074   */\n      iszero\n      tag_452\n      jumpi\n        /* \"#utility.yul\":16993:17072   */\n      tag_453\n      tag_221\n      jump\t// in\n    tag_453:\n        /* \"#utility.yul\":16957:17074   */\n    tag_452:\n        /* \"#utility.yul\":17092:17113   */\n      tag_454\n        /* \"#utility.yul\":17108:17112   */\n      0x60\n        /* \"#utility.yul\":17092:17113   */\n      tag_224\n      jump\t// in\n    tag_454:\n        /* \"#utility.yul\":17083:17113   */\n      swap1\n      pop\n        /* \"#utility.yul\":17174:17175   */\n      0x00\n        /* \"#utility.yul\":17214:17263   */\n      tag_455\n        /* \"#utility.yul\":17259:17262   */\n      dup5\n        /* \"#utility.yul\":17250:17256   */\n      dup3\n        /* \"#utility.yul\":17239:17248   */\n      dup6\n        /* \"#utility.yul\":17235:17257   */\n      add\n        /* \"#utility.yul\":17214:17263   */\n      tag_229\n      jump\t// in\n    tag_455:\n        /* \"#utility.yul\":17207:17211   */\n      0x00\n        /* \"#utility.yul\":17200:17205   */\n      dup4\n        /* \"#utility.yul\":17196:17212   */\n      add\n        /* \"#utility.yul\":17189:17264   */\n      mstore\n        /* \"#utility.yul\":17123:17275   */\n      pop\n        /* \"#utility.yul\":17336:17338   */\n      0x20\n        /* \"#utility.yul\":17377:17426   */\n      tag_456\n        /* \"#utility.yul\":17422:17425   */\n      dup5\n        /* \"#utility.yul\":17413:17419   */\n      dup3\n        /* \"#utility.yul\":17402:17411   */\n      dup6\n        /* \"#utility.yul\":17398:17420   */\n      add\n        /* \"#utility.yul\":17377:17426   */\n      tag_229\n      jump\t// in\n    tag_456:\n        /* \"#utility.yul\":17370:17374   */\n      0x20\n        /* \"#utility.yul\":17363:17368   */\n      dup4\n        /* \"#utility.yul\":17359:17375   */\n      add\n        /* \"#utility.yul\":17352:17427   */\n      mstore\n        /* \"#utility.yul\":17285:17438   */\n      pop\n        /* \"#utility.yul\":17496:17498   */\n      0x40\n        /* \"#utility.yul\":17537:17585   */\n      tag_457\n        /* \"#utility.yul\":17581:17584   */\n      dup5\n        /* \"#utility.yul\":17572:17578   */\n      dup3\n        /* \"#utility.yul\":17561:17570   */\n      dup6\n        /* \"#utility.yul\":17557:17579   */\n      add\n        /* \"#utility.yul\":17537:17585   */\n      tag_232\n      jump\t// in\n    tag_457:\n        /* \"#utility.yul\":17530:17534   */\n      0x40\n        /* \"#utility.yul\":17523:17528   */\n      dup4\n        /* \"#utility.yul\":17519:17535   */\n      add\n        /* \"#utility.yul\":17512:17586   */\n      mstore\n        /* \"#utility.yul\":17448:17597   */\n      pop\n        /* \"#utility.yul\":16867:17604   */\n      swap3\n      swap2\n      pop\n      pop\n      jump\t// out\n        /* \"#utility.yul\":17652:18925   */\n    tag_263:\n        /* \"#utility.yul\":17736:17741   */\n      0x00\n        /* \"#utility.yul\":17780:17786   */\n      0x0100\n        /* \"#utility.yul\":17768:17777   */\n      dup3\n        /* \"#utility.yul\":17763:17766   */\n      dup5\n        /* \"#utility.yul\":17759:17778   */\n      sub\n        /* \"#utility.yul\":17755:17787   */\n      slt\n        /* \"#utility.yul\":17752:17871   */\n      iszero\n      tag_459\n      jumpi\n        /* \"#utility.yul\":17790:17869   */\n      tag_460\n      tag_221\n      jump\t// in\n    tag_460:\n        /* \"#utility.yul\":17752:17871   */\n    tag_459:\n        /* \"#utility.yul\":17889:17910   */\n      tag_461\n        /* \"#utility.yul\":17905:17909   */\n      0xc0\n        /* \"#utility.yul\":17889:17910   */\n      tag_224\n      jump\t// in\n    tag_461:\n        /* \"#utility.yul\":17880:17910   */\n      swap1\n      pop\n        /* \"#utility.yul\":17972:17973   */\n      0x00\n        /* \"#utility.yul\":18012:18061   */\n      tag_462\n        /* \"#utility.yul\":18057:18060   */\n      dup5\n        /* \"#utility.yul\":18048:18054   */\n      dup3\n        /* \"#utility.yul\":18037:18046   */\n      dup6\n        /* \"#utility.yul\":18033:18055   */\n      add\n        /* \"#utility.yul\":18012:18061   */\n      tag_235\n      jump\t// in\n    tag_462:\n        /* \"#utility.yul\":18005:18009   */\n      0x00\n        /* \"#utility.yul\":17998:18003   */\n      dup4\n        /* \"#utility.yul\":17994:18010   */\n      add\n        /* \"#utility.yul\":17987:18062   */\n      mstore\n        /* \"#utility.yul\":17920:18073   */\n      pop\n        /* \"#utility.yul\":18135:18137   */\n      0x20\n        /* \"#utility.yul\":18176:18225   */\n      tag_463\n        /* \"#utility.yul\":18221:18224   */\n      dup5\n        /* \"#utility.yul\":18212:18218   */\n      dup3\n        /* \"#utility.yul\":18201:18210   */\n      dup6\n        /* \"#utility.yul\":18197:18219   */\n      add\n        /* \"#utility.yul\":18176:18225   */\n      tag_235\n      jump\t// in\n    tag_463:\n        /* \"#utility.yul\":18169:18173   */\n      0x20\n        /* \"#utility.yul\":18162:18167   */\n      dup4\n        /* \"#utility.yul\":18158:18174   */\n      add\n        /* \"#utility.yul\":18151:18226   */\n      mstore\n        /* \"#utility.yul\":18083:18237   */\n      pop\n        /* \"#utility.yul\":18297:18299   */\n      0x40\n        /* \"#utility.yul\":18338:18387   */\n      tag_464\n        /* \"#utility.yul\":18383:18386   */\n      dup5\n        /* \"#utility.yul\":18374:18380   */\n      dup3\n        /* \"#utility.yul\":18363:18372   */\n      dup6\n        /* \"#utility.yul\":18359:18381   */\n      add\n        /* \"#utility.yul\":18338:18387   */\n      tag_229\n      jump\t// in\n    tag_464:\n        /* \"#utility.yul\":18331:18335   */\n      0x40\n        /* \"#utility.yul\":18324:18329   */\n      dup4\n        /* \"#utility.yul\":18320:18336   */\n      add\n        /* \"#utility.yul\":18313:18388   */\n      mstore\n        /* \"#utility.yul\":18247:18399   */\n      pop\n        /* \"#utility.yul\":18461:18463   */\n      0x60\n        /* \"#utility.yul\":18502:18576   */\n      tag_465\n        /* \"#utility.yul\":18572:18575   */\n      dup5\n        /* \"#utility.yul\":18563:18569   */\n      dup3\n        /* \"#utility.yul\":18552:18561   */\n      dup6\n        /* \"#utility.yul\":18548:18570   */\n      add\n        /* \"#utility.yul\":18502:18576   */\n      tag_262\n      jump\t// in\n    tag_465:\n        /* \"#utility.yul\":18495:18499   */\n      0x60\n        /* \"#utility.yul\":18488:18493   */\n      dup4\n        /* \"#utility.yul\":18484:18500   */\n      add\n        /* \"#utility.yul\":18477:18577   */\n      mstore\n        /* \"#utility.yul\":18409:18588   */\n      pop\n        /* \"#utility.yul\":18651:18654   */\n      0xc0\n        /* \"#utility.yul\":18693:18741   */\n      tag_466\n        /* \"#utility.yul\":18737:18740   */\n      dup5\n        /* \"#utility.yul\":18728:18734   */\n      dup3\n        /* \"#utility.yul\":18717:18726   */\n      dup6\n        /* \"#utility.yul\":18713:18735   */\n      add\n        /* \"#utility.yul\":18693:18741   */\n      tag_232\n      jump\t// in\n    tag_466:\n        /* \"#utility.yul\":18686:18690   */\n      0x80\n        /* \"#utility.yul\":18679:18684   */\n      dup4\n        /* \"#utility.yul\":18675:18691   */\n      add\n        /* \"#utility.yul\":18668:18742   */\n      mstore\n        /* \"#utility.yul\":18598:18753   */\n      pop\n        /* \"#utility.yul\":18816:18819   */\n      0xe0\n        /* \"#utility.yul\":18858:18906   */\n      tag_467\n        /* \"#utility.yul\":18902:18905   */\n      dup5\n        /* \"#utility.yul\":18893:18899   */\n      dup3\n        /* \"#utility.yul\":18882:18891   */\n      dup6\n        /* \"#utility.yul\":18878:18900   */\n      add\n        /* \"#utility.yul\":18858:18906   */\n      tag_232\n      jump\t// in\n    tag_467:\n        /* \"#utility.yul\":18851:18855   */\n      0xa0\n        /* \"#utility.yul\":18844:18849   */\n      dup4\n        /* \"#utility.yul\":18840:18856   */\n      add\n        /* \"#utility.yul\":18833:18907   */\n      mstore\n        /* \"#utility.yul\":18763:18918   */\n      pop\n        /* \"#utility.yul\":17652:18925   */\n      swap3\n      swap2\n      pop\n      pop\n      jump\t// out\n        /* \"#utility.yul\":18931:19331   */\n    tag_94:\n        /* \"#utility.yul\":19025:19031   */\n      0x00\n        /* \"#utility.yul\":19074:19077   */\n      0x0100\n        /* \"#utility.yul\":19062:19071   */\n      dup3\n        /* \"#utility.yul\":19053:19060   */\n      dup5\n        /* \"#utility.yul\":19049:19072   */\n      sub\n        /* \"#utility.yul\":19045:19078   */\n      slt\n        /* \"#utility.yul\":19042:19162   */\n      iszero\n      tag_469\n      jumpi\n        /* \"#utility.yul\":19081:19160   */\n      tag_470\n      tag_219\n      jump\t// in\n    tag_470:\n        /* \"#utility.yul\":19042:19162   */\n    tag_469:\n        /* \"#utility.yul\":19201:19202   */\n      0x00\n        /* \"#utility.yul\":19226:19314   */\n      tag_471\n        /* \"#utility.yul\":19306:19313   */\n      dup5\n        /* \"#utility.yul\":19297:19303   */\n      dup3\n        /* \"#utility.yul\":19286:19295   */\n      dup6\n        /* \"#utility.yul\":19282:19304   */\n      add\n        /* \"#utility.yul\":19226:19314   */\n      tag_263\n      jump\t// in\n    tag_471:\n        /* \"#utility.yul\":19216:19314   */\n      swap2\n      pop\n        /* \"#utility.yul\":19172:19324   */\n      pop\n        /* \"#utility.yul\":18931:19331   */\n      swap3\n      swap2\n      pop\n      pop\n      jump\t// out\n        /* \"#utility.yul\":19337:19445   */\n    tag_264:\n        /* \"#utility.yul\":19414:19438   */\n      tag_473\n        /* \"#utility.yul\":19432:19437   */\n      dup2\n        /* \"#utility.yul\":19414:19438   */\n      tag_226\n      jump\t// in\n    tag_473:\n        /* \"#utility.yul\":19409:19412   */\n      dup3\n        /* \"#utility.yul\":19402:19439   */\n      mstore\n        /* \"#utility.yul\":19337:19445   */\n      pop\n      pop\n      jump\t// out\n        /* \"#utility.yul\":19545:21168   */\n    tag_265:\n        /* \"#utility.yul\":19720:19726   */\n      0x0100\n        /* \"#utility.yul\":19715:19718   */\n      dup3\n        /* \"#utility.yul\":19711:19727   */\n      add\n        /* \"#utility.yul\":19812:19816   */\n      0x00\n        /* \"#utility.yul\":19805:19810   */\n      dup3\n        /* \"#utility.yul\":19801:19817   */\n      add\n        /* \"#utility.yul\":19795:19818   */\n      mload\n        /* \"#utility.yul\":19831:19894   */\n      tag_475\n        /* \"#utility.yul\":19888:19892   */\n      0x00\n        /* \"#utility.yul\":19883:19886   */\n      dup6\n        /* \"#utility.yul\":19879:19893   */\n      add\n        /* \"#utility.yul\":19865:19877   */\n      dup3\n        /* \"#utility.yul\":19831:19894   */\n      tag_248\n      jump\t// in\n    tag_475:\n        /* \"#utility.yul\":19737:19904   */\n      pop\n        /* \"#utility.yul\":19990:19994   */\n      0x20\n        /* \"#utility.yul\":19983:19988   */\n      dup3\n        /* \"#utility.yul\":19979:19995   */\n      add\n        /* \"#utility.yul\":19973:19996   */\n      mload\n        /* \"#utility.yul\":20009:20072   */\n      tag_476\n        /* \"#utility.yul\":20066:20070   */\n      0x20\n        /* \"#utility.yul\":20061:20064   */\n      dup6\n        /* \"#utility.yul\":20057:20071   */\n      add\n        /* \"#utility.yul\":20043:20055   */\n      dup3\n        /* \"#utility.yul\":20009:20072   */\n      tag_248\n      jump\t// in\n    tag_476:\n        /* \"#utility.yul\":19914:20082   */\n      pop\n        /* \"#utility.yul\":20163:20167   */\n      0x40\n        /* \"#utility.yul\":20156:20161   */\n      dup3\n        /* \"#utility.yul\":20152:20168   */\n      add\n        /* \"#utility.yul\":20146:20169   */\n      mload\n        /* \"#utility.yul\":20182:20243   */\n      tag_477\n        /* \"#utility.yul\":20237:20241   */\n      0x40\n        /* \"#utility.yul\":20232:20235   */\n      dup6\n        /* \"#utility.yul\":20228:20242   */\n      add\n        /* \"#utility.yul\":20214:20226   */\n      dup3\n        /* \"#utility.yul\":20182:20243   */\n      tag_249\n      jump\t// in\n    tag_477:\n        /* \"#utility.yul\":20092:20253   */\n      pop\n        /* \"#utility.yul\":20340:20344   */\n      0x60\n        /* \"#utility.yul\":20333:20338   */\n      dup3\n        /* \"#utility.yul\":20329:20345   */\n      add\n        /* \"#utility.yul\":20323:20346   */\n      mload\n        /* \"#utility.yul\":20359:20422   */\n      tag_478\n        /* \"#utility.yul\":20416:20420   */\n      0x60\n        /* \"#utility.yul\":20411:20414   */\n      dup6\n        /* \"#utility.yul\":20407:20421   */\n      add\n        /* \"#utility.yul\":20393:20405   */\n      dup3\n        /* \"#utility.yul\":20359:20422   */\n      tag_248\n      jump\t// in\n    tag_478:\n        /* \"#utility.yul\":20263:20432   */\n      pop\n        /* \"#utility.yul\":20518:20522   */\n      0x80\n        /* \"#utility.yul\":20511:20516   */\n      dup3\n        /* \"#utility.yul\":20507:20523   */\n      add\n        /* \"#utility.yul\":20501:20524   */\n      mload\n        /* \"#utility.yul\":20537:20600   */\n      tag_479\n        /* \"#utility.yul\":20594:20598   */\n      0x80\n        /* \"#utility.yul\":20589:20592   */\n      dup6\n        /* \"#utility.yul\":20585:20599   */\n      add\n        /* \"#utility.yul\":20571:20583   */\n      dup3\n        /* \"#utility.yul\":20537:20600   */\n      tag_247\n      jump\t// in\n    tag_479:\n        /* \"#utility.yul\":20442:20610   */\n      pop\n        /* \"#utility.yul\":20696:20700   */\n      0xa0\n        /* \"#utility.yul\":20689:20694   */\n      dup3\n        /* \"#utility.yul\":20685:20701   */\n      add\n        /* \"#utility.yul\":20679:20702   */\n      mload\n        /* \"#utility.yul\":20715:20778   */\n      tag_480\n        /* \"#utility.yul\":20772:20776   */\n      0xa0\n        /* \"#utility.yul\":20767:20770   */\n      dup6\n        /* \"#utility.yul\":20763:20777   */\n      add\n        /* \"#utility.yul\":20749:20761   */\n      dup3\n        /* \"#utility.yul\":20715:20778   */\n      tag_247\n      jump\t// in\n    tag_480:\n        /* \"#utility.yul\":20620:20788   */\n      pop\n        /* \"#utility.yul\":20882:20886   */\n      0xc0\n        /* \"#utility.yul\":20875:20880   */\n      dup3\n        /* \"#utility.yul\":20871:20887   */\n      add\n        /* \"#utility.yul\":20865:20888   */\n      mload\n        /* \"#utility.yul\":20901:20964   */\n      tag_481\n        /* \"#utility.yul\":20958:20962   */\n      0xc0\n        /* \"#utility.yul\":20953:20956   */\n      dup6\n        /* \"#utility.yul\":20949:20963   */\n      add\n        /* \"#utility.yul\":20935:20947   */\n      dup3\n        /* \"#utility.yul\":20901:20964   */\n      tag_247\n      jump\t// in\n    tag_481:\n        /* \"#utility.yul\":20798:20974   */\n      pop\n        /* \"#utility.yul\":21069:21073   */\n      0xe0\n        /* \"#utility.yul\":21062:21067   */\n      dup3\n        /* \"#utility.yul\":21058:21074   */\n      add\n        /* \"#utility.yul\":21052:21075   */\n      mload\n        /* \"#utility.yul\":21088:21151   */\n      tag_482\n        /* \"#utility.yul\":21145:21149   */\n      0xe0\n        /* \"#utility.yul\":21140:21143   */\n      dup6\n        /* \"#utility.yul\":21136:21150   */\n      add\n        /* \"#utility.yul\":21122:21134   */\n      dup3\n        /* \"#utility.yul\":21088:21151   */\n      tag_264\n      jump\t// in\n    tag_482:\n        /* \"#utility.yul\":20984:21161   */\n      pop\n        /* \"#utility.yul\":19689:21168   */\n      pop\n        /* \"#utility.yul\":19545:21168   */\n      pop\n      pop\n      jump\t// out\n        /* \"#utility.yul\":21174:21553   */\n    tag_104:\n        /* \"#utility.yul\":21345:21349   */\n      0x00\n        /* \"#utility.yul\":21383:21386   */\n      0x0100\n        /* \"#utility.yul\":21372:21381   */\n      dup3\n        /* \"#utility.yul\":21368:21387   */\n      add\n        /* \"#utility.yul\":21360:21387   */\n      swap1\n      pop\n        /* \"#utility.yul\":21397:21546   */\n      tag_484\n        /* \"#utility.yul\":21543:21544   */\n      0x00\n        /* \"#utility.yul\":21532:21541   */\n      dup4\n        /* \"#utility.yul\":21528:21545   */\n      add\n        /* \"#utility.yul\":21519:21525   */\n      dup5\n        /* \"#utility.yul\":21397:21546   */\n      tag_265\n      jump\t// in\n    tag_484:\n        /* \"#utility.yul\":21174:21553   */\n      swap3\n      swap2\n      pop\n      pop\n      jump\t// out\n        /* \"#utility.yul\":21559:21706   */\n    tag_266:\n        /* \"#utility.yul\":21660:21671   */\n      0x00\n        /* \"#utility.yul\":21697:21700   */\n      dup2\n        /* \"#utility.yul\":21682:21700   */\n      swap1\n      pop\n        /* \"#utility.yul\":21559:21706   */\n      swap3\n      swap2\n      pop\n      pop\n      jump\t// out\n        /* \"#utility.yul\":21712:22098   */\n    tag_267:\n        /* \"#utility.yul\":21816:21819   */\n      0x00\n        /* \"#utility.yul\":21844:21882   */\n      tag_487\n        /* \"#utility.yul\":21876:21881   */\n      dup3\n        /* \"#utility.yul\":21844:21882   */\n      tag_253\n      jump\t// in\n    tag_487:\n        /* \"#utility.yul\":21898:21986   */\n      tag_488\n        /* \"#utility.yul\":21979:21985   */\n      dup2\n        /* \"#utility.yul\":21974:21977   */\n      dup6\n        /* \"#utility.yul\":21898:21986   */\n      tag_266\n      jump\t// in\n    tag_488:\n        /* \"#utility.yul\":21891:21986   */\n      swap4\n      pop\n        /* \"#utility.yul\":21995:22060   */\n      tag_489\n        /* \"#utility.yul\":22053:22059   */\n      dup2\n        /* \"#utility.yul\":22048:22051   */\n      dup6\n        /* \"#utility.yul\":22041:22045   */\n      0x20\n        /* \"#utility.yul\":22034:22039   */\n      dup7\n        /* \"#utility.yul\":22030:22046   */\n      add\n        /* \"#utility.yul\":21995:22060   */\n      tag_255\n      jump\t// in\n    tag_489:\n        /* \"#utility.yul\":22085:22091   */\n      dup1\n        /* \"#utility.yul\":22080:22083   */\n      dup5\n        /* \"#utility.yul\":22076:22092   */\n      add\n        /* \"#utility.yul\":22069:22092   */\n      swap2\n      pop\n        /* \"#utility.yul\":21820:22098   */\n      pop\n        /* \"#utility.yul\":21712:22098   */\n      swap3\n      swap2\n      pop\n      pop\n      jump\t// out\n        /* \"#utility.yul\":22104:22375   */\n    tag_136:\n        /* \"#utility.yul\":22234:22237   */\n      0x00\n        /* \"#utility.yul\":22256:22349   */\n      tag_491\n        /* \"#utility.yul\":22345:22348   */\n      dup3\n        /* \"#utility.yul\":22336:22342   */\n      dup5\n        /* \"#utility.yul\":22256:22349   */\n      tag_267\n      jump\t// in\n    tag_491:\n        /* \"#utility.yul\":22249:22349   */\n      swap2\n      pop\n        /* \"#utility.yul\":22366:22369   */\n      dup2\n        /* \"#utility.yul\":22359:22369   */\n      swap1\n      pop\n        /* \"#utility.yul\":22104:22375   */\n      swap3\n      swap2\n      pop\n      pop\n      jump\t// out\n        /* \"#utility.yul\":22381:22534   */\n    tag_268:\n        /* \"#utility.yul\":22521:22526   */\n      0x5354450000000000000000000000000000000000000000000000000000000000\n        /* \"#utility.yul\":22517:22518   */\n      0x00\n        /* \"#utility.yul\":22509:22515   */\n      dup3\n        /* \"#utility.yul\":22505:22519   */\n      add\n        /* \"#utility.yul\":22498:22527   */\n      mstore\n        /* \"#utility.yul\":22381:22534   */\n      pop\n      jump\t// out\n        /* \"#utility.yul\":22540:22905   */\n    tag_269:\n        /* \"#utility.yul\":22682:22685   */\n      0x00\n        /* \"#utility.yul\":22703:22769   */\n      tag_494\n        /* \"#utility.yul\":22767:22768   */\n      0x03\n        /* \"#utility.yul\":22762:22765   */\n      dup4\n        /* \"#utility.yul\":22703:22769   */\n      tag_215\n      jump\t// in\n    tag_494:\n        /* \"#utility.yul\":22696:22769   */\n      swap2\n      pop\n        /* \"#utility.yul\":22778:22871   */\n      tag_495\n        /* \"#utility.yul\":22867:22870   */\n      dup3\n        /* \"#utility.yul\":22778:22871   */\n      tag_268\n      jump\t// in\n    tag_495:\n        /* \"#utility.yul\":22896:22898   */\n      0x20\n        /* \"#utility.yul\":22891:22894   */\n      dup3\n        /* \"#utility.yul\":22887:22899   */\n      add\n        /* \"#utility.yul\":22880:22899   */\n      swap1\n      pop\n        /* \"#utility.yul\":22540:22905   */\n      swap2\n      swap1\n      pop\n      jump\t// out\n        /* \"#utility.yul\":22911:23330   */\n    tag_142:\n        /* \"#utility.yul\":23077:23081   */\n      0x00\n        /* \"#utility.yul\":23115:23117   */\n      0x20\n        /* \"#utility.yul\":23104:23113   */\n      dup3\n        /* \"#utility.yul\":23100:23118   */\n      add\n        /* \"#utility.yul\":23092:23118   */\n      swap1\n      pop\n        /* \"#utility.yul\":23164:23173   */\n      dup2\n        /* \"#utility.yul\":23158:23162   */\n      dup2\n        /* \"#utility.yul\":23154:23174   */\n      sub\n        /* \"#utility.yul\":23150:23151   */\n      0x00\n        /* \"#utility.yul\":23139:23148   */\n      dup4\n        /* \"#utility.yul\":23135:23152   */\n      add\n        /* \"#utility.yul\":23128:23175   */\n      mstore\n        /* \"#utility.yul\":23192:23323   */\n      tag_497\n        /* \"#utility.yul\":23318:23322   */\n      dup2\n        /* \"#utility.yul\":23192:23323   */\n      tag_269\n      jump\t// in\n    tag_497:\n        /* \"#utility.yul\":23184:23323   */\n      swap1\n      pop\n        /* \"#utility.yul\":22911:23330   */\n      swap2\n      swap1\n      pop\n      jump\t// out\n        /* \"#utility.yul\":23336:23451   */\n    tag_270:\n        /* \"#utility.yul\":23421:23444   */\n      tag_499\n        /* \"#utility.yul\":23438:23443   */\n      dup2\n        /* \"#utility.yul\":23421:23444   */\n      tag_230\n      jump\t// in\n    tag_499:\n        /* \"#utility.yul\":23416:23419   */\n      dup3\n        /* \"#utility.yul\":23409:23445   */\n      mstore\n        /* \"#utility.yul\":23336:23451   */\n      pop\n      pop\n      jump\t// out\n        /* \"#utility.yul\":23457:23895   */\n    tag_146:\n        /* \"#utility.yul\":23604:23608   */\n      0x00\n        /* \"#utility.yul\":23642:23644   */\n      0x60\n        /* \"#utility.yul\":23631:23640   */\n      dup3\n        /* \"#utility.yul\":23627:23645   */\n      add\n        /* \"#utility.yul\":23619:23645   */\n      swap1\n      pop\n        /* \"#utility.yul\":23655:23726   */\n      tag_501\n        /* \"#utility.yul\":23723:23724   */\n      0x00\n        /* \"#utility.yul\":23712:23721   */\n      dup4\n        /* \"#utility.yul\":23708:23725   */\n      add\n        /* \"#utility.yul\":23699:23705   */\n      dup7\n        /* \"#utility.yul\":23655:23726   */\n      tag_237\n      jump\t// in\n    tag_501:\n        /* \"#utility.yul\":23736:23808   */\n      tag_502\n        /* \"#utility.yul\":23804:23806   */\n      0x20\n        /* \"#utility.yul\":23793:23802   */\n      dup4\n        /* \"#utility.yul\":23789:23807   */\n      add\n        /* \"#utility.yul\":23780:23786   */\n      dup6\n        /* \"#utility.yul\":23736:23808   */\n      tag_237\n      jump\t// in\n    tag_502:\n        /* \"#utility.yul\":23818:23888   */\n      tag_503\n        /* \"#utility.yul\":23884:23886   */\n      0x40\n        /* \"#utility.yul\":23873:23882   */\n      dup4\n        /* \"#utility.yul\":23869:23887   */\n      add\n        /* \"#utility.yul\":23860:23866   */\n      dup5\n        /* \"#utility.yul\":23818:23888   */\n      tag_270\n      jump\t// in\n    tag_503:\n        /* \"#utility.yul\":23457:23895   */\n      swap5\n      swap4\n      pop\n      pop\n      pop\n      pop\n      jump\t// out\n        /* \"#utility.yul\":23901:24049   */\n    tag_271:\n        /* \"#utility.yul\":24003:24014   */\n      0x00\n        /* \"#utility.yul\":24040:24043   */\n      dup2\n        /* \"#utility.yul\":24025:24043   */\n      swap1\n      pop\n        /* \"#utility.yul\":23901:24049   */\n      swap3\n      swap2\n      pop\n      pop\n      jump\t// out\n        /* \"#utility.yul\":24055:24269   */\n    tag_272:\n        /* \"#utility.yul\":24195:24261   */\n      0xff00000000000000000000000000000000000000000000000000000000000000\n        /* \"#utility.yul\":24191:24192   */\n      0x00\n        /* \"#utility.yul\":24183:24189   */\n      dup3\n        /* \"#utility.yul\":24179:24193   */\n      add\n        /* \"#utility.yul\":24172:24262   */\n      mstore\n        /* \"#utility.yul\":24055:24269   */\n      pop\n      jump\t// out\n        /* \"#utility.yul\":24275:24675   */\n    tag_273:\n        /* \"#utility.yul\":24435:24438   */\n      0x00\n        /* \"#utility.yul\":24456:24540   */\n      tag_507\n        /* \"#utility.yul\":24538:24539   */\n      0x01\n        /* \"#utility.yul\":24533:24536   */\n      dup4\n        /* \"#utility.yul\":24456:24540   */\n      tag_271\n      jump\t// in\n    tag_507:\n        /* \"#utility.yul\":24449:24540   */\n      swap2\n      pop\n        /* \"#utility.yul\":24549:24642   */\n      tag_508\n        /* \"#utility.yul\":24638:24641   */\n      dup3\n        /* \"#utility.yul\":24549:24642   */\n      tag_272\n      jump\t// in\n    tag_508:\n        /* \"#utility.yul\":24667:24668   */\n      0x01\n        /* \"#utility.yul\":24662:24665   */\n      dup3\n        /* \"#utility.yul\":24658:24669   */\n      add\n        /* \"#utility.yul\":24651:24669   */\n      swap1\n      pop\n        /* \"#utility.yul\":24275:24675   */\n      swap2\n      swap1\n      pop\n      jump\t// out\n        /* \"#utility.yul\":24681:24775   */\n    tag_274:\n        /* \"#utility.yul\":24714:24722   */\n      0x00\n        /* \"#utility.yul\":24762:24767   */\n      dup2\n        /* \"#utility.yul\":24758:24760   */\n      0x60\n        /* \"#utility.yul\":24754:24768   */\n      shl\n        /* \"#utility.yul\":24733:24768   */\n      swap1\n      pop\n        /* \"#utility.yul\":24681:24775   */\n      swap2\n      swap1\n      pop\n      jump\t// out\n        /* \"#utility.yul\":24781:24875   */\n    tag_275:\n        /* \"#utility.yul\":24820:24827   */\n      0x00\n        /* \"#utility.yul\":24849:24869   */\n      tag_511\n        /* \"#utility.yul\":24863:24868   */\n      dup3\n        /* \"#utility.yul\":24849:24869   */\n      tag_274\n      jump\t// in\n    tag_511:\n        /* \"#utility.yul\":24838:24869   */\n      swap1\n      pop\n        /* \"#utility.yul\":24781:24875   */\n      swap2\n      swap1\n      pop\n      jump\t// out\n        /* \"#utility.yul\":24881:24981   */\n    tag_276:\n        /* \"#utility.yul\":24920:24927   */\n      0x00\n        /* \"#utility.yul\":24949:24975   */\n      tag_513\n        /* \"#utility.yul\":24969:24974   */\n      dup3\n        /* \"#utility.yul\":24949:24975   */\n      tag_275\n      jump\t// in\n    tag_513:\n        /* \"#utility.yul\":24938:24975   */\n      swap1\n      pop\n        /* \"#utility.yul\":24881:24981   */\n      swap2\n      swap1\n      pop\n      jump\t// out\n        /* \"#utility.yul\":24987:25144   */\n    tag_277:\n        /* \"#utility.yul\":25092:25137   */\n      tag_515\n        /* \"#utility.yul\":25112:25136   */\n      tag_516\n        /* \"#utility.yul\":25130:25135   */\n      dup3\n        /* \"#utility.yul\":25112:25136   */\n      tag_227\n      jump\t// in\n    tag_516:\n        /* \"#utility.yul\":25092:25137   */\n      tag_276\n      jump\t// in\n    tag_515:\n        /* \"#utility.yul\":25087:25090   */\n      dup3\n        /* \"#utility.yul\":25080:25138   */\n      mstore\n        /* \"#utility.yul\":24987:25144   */\n      pop\n      pop\n      jump\t// out\n        /* \"#utility.yul\":25150:25227   */\n    tag_278:\n        /* \"#utility.yul\":25187:25194   */\n      0x00\n        /* \"#utility.yul\":25216:25221   */\n      dup2\n        /* \"#utility.yul\":25205:25221   */\n      swap1\n      pop\n        /* \"#utility.yul\":25150:25227   */\n      swap2\n      swap1\n      pop\n      jump\t// out\n        /* \"#utility.yul\":25233:25312   */\n    tag_279:\n        /* \"#utility.yul\":25272:25279   */\n      0x00\n        /* \"#utility.yul\":25301:25306   */\n      dup2\n        /* \"#utility.yul\":25290:25306   */\n      swap1\n      pop\n        /* \"#utility.yul\":25233:25312   */\n      swap2\n      swap1\n      pop\n      jump\t// out\n        /* \"#utility.yul\":25318:25475   */\n    tag_280:\n        /* \"#utility.yul\":25423:25468   */\n      tag_520\n        /* \"#utility.yul\":25443:25467   */\n      tag_521\n        /* \"#utility.yul\":25461:25466   */\n      dup3\n        /* \"#utility.yul\":25443:25467   */\n      tag_278\n      jump\t// in\n    tag_521:\n        /* \"#utility.yul\":25423:25468   */\n      tag_279\n      jump\t// in\n    tag_520:\n        /* \"#utility.yul\":25418:25421   */\n      dup3\n        /* \"#utility.yul\":25411:25469   */\n      mstore\n        /* \"#utility.yul\":25318:25475   */\n      pop\n      pop\n      jump\t// out\n        /* \"#utility.yul\":25481:26285   */\n    tag_148:\n        /* \"#utility.yul\":25750:25753   */\n      0x00\n        /* \"#utility.yul\":25772:25920   */\n      tag_523\n        /* \"#utility.yul\":25916:25919   */\n      dup3\n        /* \"#utility.yul\":25772:25920   */\n      tag_273\n      jump\t// in\n    tag_523:\n        /* \"#utility.yul\":25765:25920   */\n      swap2\n      pop\n        /* \"#utility.yul\":25930:26005   */\n      tag_524\n        /* \"#utility.yul\":26001:26004   */\n      dup3\n        /* \"#utility.yul\":25992:25998   */\n      dup7\n        /* \"#utility.yul\":25930:26005   */\n      tag_277\n      jump\t// in\n    tag_524:\n        /* \"#utility.yul\":26030:26032   */\n      0x14\n        /* \"#utility.yul\":26025:26028   */\n      dup3\n        /* \"#utility.yul\":26021:26033   */\n      add\n        /* \"#utility.yul\":26014:26033   */\n      swap2\n      pop\n        /* \"#utility.yul\":26043:26118   */\n      tag_525\n        /* \"#utility.yul\":26114:26117   */\n      dup3\n        /* \"#utility.yul\":26105:26111   */\n      dup6\n        /* \"#utility.yul\":26043:26118   */\n      tag_280\n      jump\t// in\n    tag_525:\n        /* \"#utility.yul\":26143:26145   */\n      0x20\n        /* \"#utility.yul\":26138:26141   */\n      dup3\n        /* \"#utility.yul\":26134:26146   */\n      add\n        /* \"#utility.yul\":26127:26146   */\n      swap2\n      pop\n        /* \"#utility.yul\":26156:26231   */\n      tag_526\n        /* \"#utility.yul\":26227:26230   */\n      dup3\n        /* \"#utility.yul\":26218:26224   */\n      dup5\n        /* \"#utility.yul\":26156:26231   */\n      tag_280\n      jump\t// in\n    tag_526:\n        /* \"#utility.yul\":26256:26258   */\n      0x20\n        /* \"#utility.yul\":26251:26254   */\n      dup3\n        /* \"#utility.yul\":26247:26259   */\n      add\n        /* \"#utility.yul\":26240:26259   */\n      swap2\n      pop\n        /* \"#utility.yul\":26276:26279   */\n      dup2\n        /* \"#utility.yul\":26269:26279   */\n      swap1\n      pop\n        /* \"#utility.yul\":25481:26285   */\n      swap5\n      swap4\n      pop\n      pop\n      pop\n      pop\n      jump\t// out\n        /* \"#utility.yul\":26291:26623   */\n    tag_151:\n        /* \"#utility.yul\":26412:26416   */\n      0x00\n        /* \"#utility.yul\":26450:26452   */\n      0x40\n        /* \"#utility.yul\":26439:26448   */\n      dup3\n        /* \"#utility.yul\":26435:26453   */\n      add\n        /* \"#utility.yul\":26427:26453   */\n      swap1\n      pop\n        /* \"#utility.yul\":26463:26534   */\n      tag_528\n        /* \"#utility.yul\":26531:26532   */\n      0x00\n        /* \"#utility.yul\":26520:26529   */\n      dup4\n        /* \"#utility.yul\":26516:26533   */\n      add\n        /* \"#utility.yul\":26507:26513   */\n      dup6\n        /* \"#utility.yul\":26463:26534   */\n      tag_237\n      jump\t// in\n    tag_528:\n        /* \"#utility.yul\":26544:26616   */\n      tag_529\n        /* \"#utility.yul\":26612:26614   */\n      0x20\n        /* \"#utility.yul\":26601:26610   */\n      dup4\n        /* \"#utility.yul\":26597:26615   */\n      add\n        /* \"#utility.yul\":26588:26594   */\n      dup5\n        /* \"#utility.yul\":26544:26616   */\n      tag_252\n      jump\t// in\n    tag_529:\n        /* \"#utility.yul\":26291:26623   */\n      swap4\n      swap3\n      pop\n      pop\n      pop\n      jump\t// out\n        /* \"#utility.yul\":26629:26719   */\n    tag_281:\n        /* \"#utility.yul\":26663:26670   */\n      0x00\n        /* \"#utility.yul\":26706:26711   */\n      dup2\n        /* \"#utility.yul\":26699:26712   */\n      iszero\n        /* \"#utility.yul\":26692:26713   */\n      iszero\n        /* \"#utility.yul\":26681:26713   */\n      swap1\n      pop\n        /* \"#utility.yul\":26629:26719   */\n      swap2\n      swap1\n      pop\n      jump\t// out\n        /* \"#utility.yul\":26725:26841   */\n    tag_282:\n        /* \"#utility.yul\":26795:26816   */\n      tag_532\n        /* \"#utility.yul\":26810:26815   */\n      dup2\n        /* \"#utility.yul\":26795:26816   */\n      tag_281\n      jump\t// in\n    tag_532:\n        /* \"#utility.yul\":26788:26793   */\n      dup2\n        /* \"#utility.yul\":26785:26817   */\n      eq\n        /* \"#utility.yul\":26775:26835   */\n      tag_533\n      jumpi\n        /* \"#utility.yul\":26831:26832   */\n      0x00\n        /* \"#utility.yul\":26828:26829   */\n      dup1\n        /* \"#utility.yul\":26821:26833   */\n      revert\n        /* \"#utility.yul\":26775:26835   */\n    tag_533:\n        /* \"#utility.yul\":26725:26841   */\n      pop\n      jump\t// out\n        /* \"#utility.yul\":26847:26984   */\n    tag_283:\n        /* \"#utility.yul\":26901:26906   */\n      0x00\n        /* \"#utility.yul\":26932:26938   */\n      dup2\n        /* \"#utility.yul\":26926:26939   */\n      mload\n        /* \"#utility.yul\":26917:26939   */\n      swap1\n      pop\n        /* \"#utility.yul\":26948:26978   */\n      tag_535\n        /* \"#utility.yul\":26972:26977   */\n      dup2\n        /* \"#utility.yul\":26948:26978   */\n      tag_282\n      jump\t// in\n    tag_535:\n        /* \"#utility.yul\":26847:26984   */\n      swap3\n      swap2\n      pop\n      pop\n      jump\t// out\n        /* \"#utility.yul\":26990:27335   */\n    tag_159:\n        /* \"#utility.yul\":27057:27063   */\n      0x00\n        /* \"#utility.yul\":27106:27108   */\n      0x20\n        /* \"#utility.yul\":27094:27103   */\n      dup3\n        /* \"#utility.yul\":27085:27092   */\n      dup5\n        /* \"#utility.yul\":27081:27104   */\n      sub\n        /* \"#utility.yul\":27077:27109   */\n      slt\n        /* \"#utility.yul\":27074:27193   */\n      iszero\n      tag_537\n      jumpi\n        /* \"#utility.yul\":27112:27191   */\n      tag_538\n      tag_219\n      jump\t// in\n    tag_538:\n        /* \"#utility.yul\":27074:27193   */\n    tag_537:\n        /* \"#utility.yul\":27232:27233   */\n      0x00\n        /* \"#utility.yul\":27257:27318   */\n      tag_539\n        /* \"#utility.yul\":27310:27317   */\n      dup5\n        /* \"#utility.yul\":27301:27307   */\n      dup3\n        /* \"#utility.yul\":27290:27299   */\n      dup6\n        /* \"#utility.yul\":27286:27308   */\n      add\n        /* \"#utility.yul\":27257:27318   */\n      tag_283\n      jump\t// in\n    tag_539:\n        /* \"#utility.yul\":27247:27318   */\n      swap2\n      pop\n        /* \"#utility.yul\":27203:27328   */\n      pop\n        /* \"#utility.yul\":26990:27335   */\n      swap3\n      swap2\n      pop\n      pop\n      jump\t// out\n        /* \"#utility.yul\":27341:27493   */\n    tag_284:\n        /* \"#utility.yul\":27481:27485   */\n      0x5354000000000000000000000000000000000000000000000000000000000000\n        /* \"#utility.yul\":27477:27478   */\n      0x00\n        /* \"#utility.yul\":27469:27475   */\n      dup3\n        /* \"#utility.yul\":27465:27479   */\n      add\n        /* \"#utility.yul\":27458:27486   */\n      mstore\n        /* \"#utility.yul\":27341:27493   */\n      pop\n      jump\t// out\n        /* \"#utility.yul\":27499:27864   */\n    tag_285:\n        /* \"#utility.yul\":27641:27644   */\n      0x00\n        /* \"#utility.yul\":27662:27728   */\n      tag_542\n        /* \"#utility.yul\":27726:27727   */\n      0x02\n        /* \"#utility.yul\":27721:27724   */\n      dup4\n        /* \"#utility.yul\":27662:27728   */\n      tag_215\n      jump\t// in\n    tag_542:\n        /* \"#utility.yul\":27655:27728   */\n      swap2\n      pop\n        /* \"#utility.yul\":27737:27830   */\n      tag_543\n        /* \"#utility.yul\":27826:27829   */\n      dup3\n        /* \"#utility.yul\":27737:27830   */\n      tag_284\n      jump\t// in\n    tag_543:\n        /* \"#utility.yul\":27855:27857   */\n      0x20\n        /* \"#utility.yul\":27850:27853   */\n      dup3\n        /* \"#utility.yul\":27846:27858   */\n      add\n        /* \"#utility.yul\":27839:27858   */\n      swap1\n      pop\n        /* \"#utility.yul\":27499:27864   */\n      swap2\n      swap1\n      pop\n      jump\t// out\n        /* \"#utility.yul\":27870:28289   */\n    tag_162:\n        /* \"#utility.yul\":28036:28040   */\n      0x00\n        /* \"#utility.yul\":28074:28076   */\n      0x20\n        /* \"#utility.yul\":28063:28072   */\n      dup3\n        /* \"#utility.yul\":28059:28077   */\n      add\n        /* \"#utility.yul\":28051:28077   */\n      swap1\n      pop\n        /* \"#utility.yul\":28123:28132   */\n      dup2\n        /* \"#utility.yul\":28117:28121   */\n      dup2\n        /* \"#utility.yul\":28113:28133   */\n      sub\n        /* \"#utility.yul\":28109:28110   */\n      0x00\n        /* \"#utility.yul\":28098:28107   */\n      dup4\n        /* \"#utility.yul\":28094:28111   */\n      add\n        /* \"#utility.yul\":28087:28134   */\n      mstore\n        /* \"#utility.yul\":28151:28282   */\n      tag_545\n        /* \"#utility.yul\":28277:28281   */\n      dup2\n        /* \"#utility.yul\":28151:28282   */\n      tag_285\n      jump\t// in\n    tag_545:\n        /* \"#utility.yul\":28143:28282   */\n      swap1\n      pop\n        /* \"#utility.yul\":27870:28289   */\n      swap2\n      swap1\n      pop\n      jump\t// out\n        /* \"#utility.yul\":28295:28447   */\n    tag_286:\n        /* \"#utility.yul\":28435:28439   */\n      0x5341000000000000000000000000000000000000000000000000000000000000\n        /* \"#utility.yul\":28431:28432   */\n      0x00\n        /* \"#utility.yul\":28423:28429   */\n      dup3\n        /* \"#utility.yul\":28419:28433   */\n      add\n        /* \"#utility.yul\":28412:28440   */\n      mstore\n        /* \"#utility.yul\":28295:28447   */\n      pop\n      jump\t// out\n        /* \"#utility.yul\":28453:28818   */\n    tag_287:\n        /* \"#utility.yul\":28595:28598   */\n      0x00\n        /* \"#utility.yul\":28616:28682   */\n      tag_548\n        /* \"#utility.yul\":28680:28681   */\n      0x02\n        /* \"#utility.yul\":28675:28678   */\n      dup4\n        /* \"#utility.yul\":28616:28682   */\n      tag_215\n      jump\t// in\n    tag_548:\n        /* \"#utility.yul\":28609:28682   */\n      swap2\n      pop\n        /* \"#utility.yul\":28691:28784   */\n      tag_549\n        /* \"#utility.yul\":28780:28783   */\n      dup3\n        /* \"#utility.yul\":28691:28784   */\n      tag_286\n      jump\t// in\n    tag_549:\n        /* \"#utility.yul\":28809:28811   */\n      0x20\n        /* \"#utility.yul\":28804:28807   */\n      dup3\n        /* \"#utility.yul\":28800:28812   */\n      add\n        /* \"#utility.yul\":28793:28812   */\n      swap1\n      pop\n        /* \"#utility.yul\":28453:28818   */\n      swap2\n      swap1\n      pop\n      jump\t// out\n        /* \"#utility.yul\":28824:29243   */\n    tag_177:\n        /* \"#utility.yul\":28990:28994   */\n      0x00\n        /* \"#utility.yul\":29028:29030   */\n      0x20\n        /* \"#utility.yul\":29017:29026   */\n      dup3\n        /* \"#utility.yul\":29013:29031   */\n      add\n        /* \"#utility.yul\":29005:29031   */\n      swap1\n      pop\n        /* \"#utility.yul\":29077:29086   */\n      dup2\n        /* \"#utility.yul\":29071:29075   */\n      dup2\n        /* \"#utility.yul\":29067:29087   */\n      sub\n        /* \"#utility.yul\":29063:29064   */\n      0x00\n        /* \"#utility.yul\":29052:29061   */\n      dup4\n        /* \"#utility.yul\":29048:29065   */\n      add\n        /* \"#utility.yul\":29041:29088   */\n      mstore\n        /* \"#utility.yul\":29105:29236   */\n      tag_551\n        /* \"#utility.yul\":29231:29235   */\n      dup2\n        /* \"#utility.yul\":29105:29236   */\n      tag_287\n      jump\t// in\n    tag_551:\n        /* \"#utility.yul\":29097:29236   */\n      swap1\n      pop\n        /* \"#utility.yul\":28824:29243   */\n      swap2\n      swap1\n      pop\n      jump\t// out\n        /* \"#utility.yul\":29249:29429   */\n    tag_288:\n        /* \"#utility.yul\":29297:29374   */\n      0x4e487b7100000000000000000000000000000000000000000000000000000000\n        /* \"#utility.yul\":29294:29295   */\n      0x00\n        /* \"#utility.yul\":29287:29375   */\n      mstore\n        /* \"#utility.yul\":29394:29398   */\n      0x11\n        /* \"#utility.yul\":29391:29392   */\n      0x04\n        /* \"#utility.yul\":29384:29399   */\n      mstore\n        /* \"#utility.yul\":29418:29422   */\n      0x24\n        /* \"#utility.yul\":29415:29416   */\n      0x00\n        /* \"#utility.yul\":29408:29423   */\n      revert\n        /* \"#utility.yul\":29435:29626   */\n    tag_180:\n        /* \"#utility.yul\":29475:29478   */\n      0x00\n        /* \"#utility.yul\":29494:29514   */\n      tag_554\n        /* \"#utility.yul\":29512:29513   */\n      dup3\n        /* \"#utility.yul\":29494:29514   */\n      tag_233\n      jump\t// in\n    tag_554:\n        /* \"#utility.yul\":29489:29514   */\n      swap2\n      pop\n        /* \"#utility.yul\":29528:29548   */\n      tag_555\n        /* \"#utility.yul\":29546:29547   */\n      dup4\n        /* \"#utility.yul\":29528:29548   */\n      tag_233\n      jump\t// in\n    tag_555:\n        /* \"#utility.yul\":29523:29548   */\n      swap3\n      pop\n        /* \"#utility.yul\":29571:29572   */\n      dup3\n        /* \"#utility.yul\":29568:29569   */\n      dup3\n        /* \"#utility.yul\":29564:29573   */\n      add\n        /* \"#utility.yul\":29557:29573   */\n      swap1\n      pop\n        /* \"#utility.yul\":29592:29595   */\n      dup1\n        /* \"#utility.yul\":29589:29590   */\n      dup3\n        /* \"#utility.yul\":29586:29596   */\n      gt\n        /* \"#utility.yul\":29583:29619   */\n      iszero\n      tag_556\n      jumpi\n        /* \"#utility.yul\":29599:29617   */\n      tag_557\n      tag_288\n      jump\t// in\n    tag_557:\n        /* \"#utility.yul\":29583:29619   */\n    tag_556:\n        /* \"#utility.yul\":29435:29626   */\n      swap3\n      swap2\n      pop\n      pop\n      jump\t// out\n        /* \"#utility.yul\":29632:29826   */\n    tag_200:\n        /* \"#utility.yul\":29672:29676   */\n      0x00\n        /* \"#utility.yul\":29692:29712   */\n      tag_559\n        /* \"#utility.yul\":29710:29711   */\n      dup3\n        /* \"#utility.yul\":29692:29712   */\n      tag_233\n      jump\t// in\n    tag_559:\n        /* \"#utility.yul\":29687:29712   */\n      swap2\n      pop\n        /* \"#utility.yul\":29726:29746   */\n      tag_560\n        /* \"#utility.yul\":29744:29745   */\n      dup4\n        /* \"#utility.yul\":29726:29746   */\n      tag_233\n      jump\t// in\n    tag_560:\n        /* \"#utility.yul\":29721:29746   */\n      swap3\n      pop\n        /* \"#utility.yul\":29770:29771   */\n      dup3\n        /* \"#utility.yul\":29767:29768   */\n      dup3\n        /* \"#utility.yul\":29763:29772   */\n      sub\n        /* \"#utility.yul\":29755:29772   */\n      swap1\n      pop\n        /* \"#utility.yul\":29794:29795   */\n      dup2\n        /* \"#utility.yul\":29788:29792   */\n      dup2\n        /* \"#utility.yul\":29785:29796   */\n      gt\n        /* \"#utility.yul\":29782:29819   */\n      iszero\n      tag_561\n      jumpi\n        /* \"#utility.yul\":29799:29817   */\n      tag_562\n      tag_288\n      jump\t// in\n    tag_562:\n        /* \"#utility.yul\":29782:29819   */\n    tag_561:\n        /* \"#utility.yul\":29632:29826   */\n      swap3\n      swap2\n      pop\n      pop\n      jump\t// out\n        /* \"#utility.yul\":29832:30274   */\n    tag_204:\n        /* \"#utility.yul\":29981:29985   */\n      0x00\n        /* \"#utility.yul\":30019:30021   */\n      0x60\n        /* \"#utility.yul\":30008:30017   */\n      dup3\n        /* \"#utility.yul\":30004:30022   */\n      add\n        /* \"#utility.yul\":29996:30022   */\n      swap1\n      pop\n        /* \"#utility.yul\":30032:30103   */\n      tag_564\n        /* \"#utility.yul\":30100:30101   */\n      0x00\n        /* \"#utility.yul\":30089:30098   */\n      dup4\n        /* \"#utility.yul\":30085:30102   */\n      add\n        /* \"#utility.yul\":30076:30082   */\n      dup7\n        /* \"#utility.yul\":30032:30103   */\n      tag_237\n      jump\t// in\n    tag_564:\n        /* \"#utility.yul\":30113:30185   */\n      tag_565\n        /* \"#utility.yul\":30181:30183   */\n      0x20\n        /* \"#utility.yul\":30170:30179   */\n      dup4\n        /* \"#utility.yul\":30166:30184   */\n      add\n        /* \"#utility.yul\":30157:30163   */\n      dup6\n        /* \"#utility.yul\":30113:30185   */\n      tag_237\n      jump\t// in\n    tag_565:\n        /* \"#utility.yul\":30195:30267   */\n      tag_566\n        /* \"#utility.yul\":30263:30265   */\n      0x40\n        /* \"#utility.yul\":30252:30261   */\n      dup4\n        /* \"#utility.yul\":30248:30266   */\n      add\n        /* \"#utility.yul\":30239:30245   */\n      dup5\n        /* \"#utility.yul\":30195:30267   */\n      tag_252\n      jump\t// in\n    tag_566:\n        /* \"#utility.yul\":29832:30274   */\n      swap5\n      swap4\n      pop\n      pop\n      pop\n      pop\n      jump\t// out\n        /* \"#utility.yul\":30280:30433   */\n    tag_289:\n        /* \"#utility.yul\":30420:30425   */\n      0x5354460000000000000000000000000000000000000000000000000000000000\n        /* \"#utility.yul\":30416:30417   */\n      0x00\n        /* \"#utility.yul\":30408:30414   */\n      dup3\n        /* \"#utility.yul\":30404:30418   */\n      add\n        /* \"#utility.yul\":30397:30426   */\n      mstore\n        /* \"#utility.yul\":30280:30433   */\n      pop\n      jump\t// out\n        /* \"#utility.yul\":30439:30804   */\n    tag_290:\n        /* \"#utility.yul\":30581:30584   */\n      0x00\n        /* \"#utility.yul\":30602:30668   */\n      tag_569\n        /* \"#utility.yul\":30666:30667   */\n      0x03\n        /* \"#utility.yul\":30661:30664   */\n      dup4\n        /* \"#utility.yul\":30602:30668   */\n      tag_215\n      jump\t// in\n    tag_569:\n        /* \"#utility.yul\":30595:30668   */\n      swap2\n      pop\n        /* \"#utility.yul\":30677:30770   */\n      tag_570\n        /* \"#utility.yul\":30766:30769   */\n      dup3\n        /* \"#utility.yul\":30677:30770   */\n      tag_289\n      jump\t// in\n    tag_570:\n        /* \"#utility.yul\":30795:30797   */\n      0x20\n        /* \"#utility.yul\":30790:30793   */\n      dup3\n        /* \"#utility.yul\":30786:30798   */\n      add\n        /* \"#utility.yul\":30779:30798   */\n      swap1\n      pop\n        /* \"#utility.yul\":30439:30804   */\n      swap2\n      swap1\n      pop\n      jump\t// out\n        /* \"#utility.yul\":30810:31229   */\n    tag_214:\n        /* \"#utility.yul\":30976:30980   */\n      0x00\n        /* \"#utility.yul\":31014:31016   */\n      0x20\n        /* \"#utility.yul\":31003:31012   */\n      dup3\n        /* \"#utility.yul\":30999:31017   */\n      add\n        /* \"#utility.yul\":30991:31017   */\n      swap1\n      pop\n        /* \"#utility.yul\":31063:31072   */\n      dup2\n        /* \"#utility.yul\":31057:31061   */\n      dup2\n        /* \"#utility.yul\":31053:31073   */\n      sub\n        /* \"#utility.yul\":31049:31050   */\n      0x00\n        /* \"#utility.yul\":31038:31047   */\n      dup4\n        /* \"#utility.yul\":31034:31051   */\n      add\n        /* \"#utility.yul\":31027:31074   */\n      mstore\n        /* \"#utility.yul\":31091:31222   */\n      tag_572\n        /* \"#utility.yul\":31217:31221   */\n      dup2\n        /* \"#utility.yul\":31091:31222   */\n      tag_290\n      jump\t// in\n    tag_572:\n        /* \"#utility.yul\":31083:31222   */\n      swap1\n      pop\n        /* \"#utility.yul\":30810:31229   */\n      swap2\n      swap1\n      pop\n      jump\t// out\n\n    auxdata: 0xa2646970667358221220c7ce187d1f04b1e8f5719844d3f5b1930afc963c9d59f495a4f35a92b35082f264736f6c63430008140033\n}\n",
				"bytecode": {
					"linkReferences": {},
					"object": "60e060405234801562000010575f80fd5b506040516200237138038062002371833981810160405281019062000036919062000186565b81818173ffffffffffffffffffffffffffffffffffffffff1660808173ffffffffffffffffffffffffffffffffffffffff16815250508073ffffffffffffffffffffffffffffffffffffffff1660a08173ffffffffffffffffffffffffffffffffffffffff168152505050508273ffffffffffffffffffffffffffffffffffffffff1660c08173ffffffffffffffffffffffffffffffffffffffff1681525050505050620001df565b5f80fd5b5f73ffffffffffffffffffffffffffffffffffffffff82169050919050565b5f6200010e82620000e3565b9050919050565b5f620001218262000102565b9050919050565b620001338162000115565b81146200013e575f80fd5b50565b5f81519050620001518162000128565b92915050565b620001628162000102565b81146200016d575f80fd5b50565b5f81519050620001808162000157565b92915050565b5f805f60608486031215620001a0576200019f620000df565b5b5f620001af8682870162000141565b9350506020620001c28682870162000170565b9250506040620001d58682870162000170565b9150509250925092565b60805160a05160c0516121146200025d5f395f8181610559015281816106d50152818161070301528181610750015261088a01525f81816085015281816103ba0152818161049f0152818161053501528181610f6a01528181610fca015261104701525f818161029c0152818161057d015261068e01526121145ff3fe60806040526004361061007e575f3560e01c8063c31c9c071161004d578063c31c9c071461018f578063c45a0155146101b9578063df2ab5bb146101e3578063e9cbafb0146101ff57610113565b806312210e8a146101175780632384463b1461012157806349404b7c146101495780634aa4a4fc1461016557610113565b36610113577f000000000000000000000000000000000000000000000000000000000000000073ffffffffffffffffffffffffffffffffffffffff163373ffffffffffffffffffffffffffffffffffffffff1614610111576040517f08c379a00000000000000000000000000000000000000000000000000000000081526004016101089061130a565b60405180910390fd5b005b5f80fd5b61011f610227565b005b34801561012c575f80fd5b506101476004803603810190610142919061153b565b61023c565b005b610163600480360381019061015e9190611566565b6103b7565b005b348015610170575f80fd5b50610179610533565b60405161018691906115b3565b60405180910390f35b34801561019a575f80fd5b506101a3610557565b6040516101b09190611627565b60405180910390f35b3480156101c4575f80fd5b506101cd61057b565b6040516101da91906115b3565b60405180910390f35b6101fd60048036038101906101f89190611640565b61059f565b005b34801561020a575f80fd5b50610225600480360381019061022091906116f1565b610677565b005b5f47111561023a576102393347610a94565b5b565b5f6040518060600160405280835f015173ffffffffffffffffffffffffffffffffffffffff168152602001836020015173ffffffffffffffffffffffffffffffffffffffff168152602001836040015162ffffff1681525090505f6102c17f000000000000000000000000000000000000000000000000000000000000000083610b8f565b90508073ffffffffffffffffffffffffffffffffffffffff1663490e6cbc30856060015186608001516040518060c0016040528089606001518152602001896080015181526020013373ffffffffffffffffffffffffffffffffffffffff1681526020018881526020018960a0015162ffffff1681526020018960c0015162ffffff168152506040516020016103579190611849565b6040516020818303038152906040526040518563ffffffff1660e01b815260040161038594939291906118ec565b5f604051808303815f87803b15801561039c575f80fd5b505af11580156103ae573d5f803e3d5ffd5b50505050505050565b5f7f000000000000000000000000000000000000000000000000000000000000000073ffffffffffffffffffffffffffffffffffffffff166370a08231306040518263ffffffff1660e01b815260040161041191906115b3565b602060405180830381865afa15801561042c573d5f803e3d5ffd5b505050506040513d601f19601f82011682018060405250810190610450919061194a565b905082811015610495576040517f08c379a000000000000000000000000000000000000000000000000000000000815260040161048c906119bf565b60405180910390fd5b5f81111561052e577f000000000000000000000000000000000000000000000000000000000000000073ffffffffffffffffffffffffffffffffffffffff16632e1a7d4d826040518263ffffffff1660e01b81526004016104f691906119dd565b5f604051808303815f87803b15801561050d575f80fd5b505af115801561051f573d5f803e3d5ffd5b5050505061052d8282610a94565b5b505050565b7f000000000000000000000000000000000000000000000000000000000000000081565b7f000000000000000000000000000000000000000000000000000000000000000081565b7f000000000000000000000000000000000000000000000000000000000000000081565b5f8373ffffffffffffffffffffffffffffffffffffffff166370a08231306040518263ffffffff1660e01b81526004016105d991906115b3565b602060405180830381865afa1580156105f4573d5f803e3d5ffd5b505050506040513d601f19601f82011682018060405250810190610618919061194a565b90508281101561065d576040517f08c379a000000000000000000000000000000000000000000000000000000000815260040161065490611a40565b60405180910390fd5b5f81111561067157610670848383610c5f565b5b50505050565b5f82828101906106879190611b5d565b90506106b77f00000000000000000000000000000000000000000000000000000000000000008260600151610dae565b505f81606001515f015190505f82606001516020015190506106fd827f0000000000000000000000000000000000000000000000000000000000000000855f0151610df8565b61072c817f00000000000000000000000000000000000000000000000000000000000000008560200151610df8565b5f61073b846020015188610f47565b90505f61074b855f01518a610f47565b90505f7f000000000000000000000000000000000000000000000000000000000000000073ffffffffffffffffffffffffffffffffffffffff1663414bf3896040518061010001604052808773ffffffffffffffffffffffffffffffffffffffff1681526020018873ffffffffffffffffffffffffffffffffffffffff168152602001896080015162ffffff1681526020013073ffffffffffffffffffffffffffffffffffffffff168152602001428152602001896020015181526020018581526020015f73ffffffffffffffffffffffffffffffffffffffff168152506040518263ffffffff1660e01b81526004016108459190611c38565b6020604051808303815f875af1158015610861573d5f803e3d5ffd5b505050506040513d601f19601f82011682018060405250810190610885919061194a565b90505f7f000000000000000000000000000000000000000000000000000000000000000073ffffffffffffffffffffffffffffffffffffffff1663414bf3896040518061010001604052808973ffffffffffffffffffffffffffffffffffffffff1681526020018873ffffffffffffffffffffffffffffffffffffffff1681526020018a60a0015162ffffff1681526020013073ffffffffffffffffffffffffffffffffffffffff1681526020014281526020018a5f015181526020018781526020015f73ffffffffffffffffffffffffffffffffffffffff168152506040518263ffffffff1660e01b815260040161097e9190611c38565b6020604051808303815f875af115801561099a573d5f803e3d5ffd5b505050506040513d601f19601f820116820180604052508101906109be919061194a565b90505f6109ce885f01518d610f47565b90505f6109df89602001518d610f47565b90506109ec883084610df8565b6109f7873083610df8565b5f821115610a0c57610a0b88303385610f68565b5b5f811115610a2157610a2087303384610f68565b5b81841115610a53575f610a34858461113d565b9050610a41893083610df8565b610a5189308c6040015184610f68565b505b80831115610a85575f610a66848361113d565b9050610a73893083610df8565b610a8388308c6040015184610f68565b505b50505050505050505050505050565b5f8273ffffffffffffffffffffffffffffffffffffffff16825f67ffffffffffffffff811115610ac757610ac661134d565b5b6040519080825280601f01601f191660200182016040528015610af95781602001600182028036833780820191505090505b50604051610b079190611c8c565b5f6040518083038185875af1925050503d805f8114610b41576040519150601f19603f3d011682016040523d82523d5f602084013e610b46565b606091505b5050905080610b8a576040517f08c379a0000000000000000000000000000000000000000000000000000000008152600401610b8190611cec565b60405180910390fd5b505050565b5f816020015173ffffffffffffffffffffffffffffffffffffffff16825f015173ffffffffffffffffffffffffffffffffffffffff1610610bce575f80fd5b5f83835f015184602001518560400151604051602001610bf093929190611d19565b604051602081830303815290604052805190602001207fe34f199b19b2b4f47f68442619d555527d244f78a3297ea89325f843f87b8b545f1b604051602001610c3b93929190611e10565b604051602081830303815290604052805190602001209050805f1c91505092915050565b5f808473ffffffffffffffffffffffffffffffffffffffff1663a9059cbb60e01b8585604051602401610c93929190611e57565b604051602081830303815290604052907bffffffffffffffffffffffffffffffffffffffffffffffffffffffff19166020820180517bffffffffffffffffffffffffffffffffffffffffffffffffffffffff8381831617835250505050604051610cfd9190611c8c565b5f604051808303815f865af19150503d805f8114610d36576040519150601f19603f3d011682016040523d82523d5f602084013e610d3b565b606091505b5091509150818015610d6857505f81511480610d67575080806020019051810190610d669190611eb3565b5b5b610da7576040517f08c379a0000000000000000000000000000000000000000000000000000000008152600401610d9e90611f28565b60405180910390fd5b5050505050565b5f610db98383610b8f565b90508073ffffffffffffffffffffffffffffffffffffffff163373ffffffffffffffffffffffffffffffffffffffff1614610df2575f80fd5b92915050565b5f808473ffffffffffffffffffffffffffffffffffffffff1663095ea7b360e01b8585604051602401610e2c929190611e57565b604051602081830303815290604052907bffffffffffffffffffffffffffffffffffffffffffffffffffffffff19166020820180517bffffffffffffffffffffffffffffffffffffffffffffffffffffffff8381831617835250505050604051610e969190611c8c565b5f604051808303815f865af19150503d805f8114610ecf576040519150601f19603f3d011682016040523d82523d5f602084013e610ed4565b606091505b5091509150818015610f0157505f81511480610f00575080806020019051810190610eff9190611eb3565b5b5b610f40576040517f08c379a0000000000000000000000000000000000000000000000000000000008152600401610f3790611f90565b60405180910390fd5b5050505050565b5f828284610f559190611fdb565b9150811015610f62575f80fd5b92915050565b7f000000000000000000000000000000000000000000000000000000000000000073ffffffffffffffffffffffffffffffffffffffff168473ffffffffffffffffffffffffffffffffffffffff16148015610fc35750804710155b156110e6577f000000000000000000000000000000000000000000000000000000000000000073ffffffffffffffffffffffffffffffffffffffff1663d0e30db0826040518263ffffffff1660e01b81526004015f604051808303818588803b15801561102e575f80fd5b505af1158015611040573d5f803e3d5ffd5b50505050507f000000000000000000000000000000000000000000000000000000000000000073ffffffffffffffffffffffffffffffffffffffff1663a9059cbb83836040518363ffffffff1660e01b81526004016110a0929190611e57565b6020604051808303815f875af11580156110bc573d5f803e3d5ffd5b505050506040513d601f19601f820116820180604052508101906110e09190611eb3565b50611137565b3073ffffffffffffffffffffffffffffffffffffffff168373ffffffffffffffffffffffffffffffffffffffff160361112957611124848383610c5f565b611136565b6111358484848461115e565b5b5b50505050565b5f82828461114b919061200e565b9150811115611158575f80fd5b92915050565b5f808573ffffffffffffffffffffffffffffffffffffffff166323b872dd60e01b86868660405160240161119493929190612041565b604051602081830303815290604052907bffffffffffffffffffffffffffffffffffffffffffffffffffffffff19166020820180517bffffffffffffffffffffffffffffffffffffffffffffffffffffffff83818316178352505050506040516111fe9190611c8c565b5f604051808303815f865af19150503d805f8114611237576040519150601f19603f3d011682016040523d82523d5f602084013e61123c565b606091505b509150915081801561126957505f815114806112685750808060200190518101906112679190611eb3565b5b5b6112a8576040517f08c379a000000000000000000000000000000000000000000000000000000000815260040161129f906120c0565b60405180910390fd5b505050505050565b5f82825260208201905092915050565b7f4e6f7420574554483900000000000000000000000000000000000000000000005f82015250565b5f6112f46009836112b0565b91506112ff826112c0565b602082019050919050565b5f6020820190508181035f830152611321816112e8565b9050919050565b5f604051905090565b5f80fd5b5f80fd5b5f80fd5b5f601f19601f8301169050919050565b7f4e487b71000000000000000000000000000000000000000000000000000000005f52604160045260245ffd5b6113838261133d565b810181811067ffffffffffffffff821117156113a2576113a161134d565b5b80604052505050565b5f6113b4611328565b90506113c0828261137a565b919050565b5f73ffffffffffffffffffffffffffffffffffffffff82169050919050565b5f6113ee826113c5565b9050919050565b6113fe816113e4565b8114611408575f80fd5b50565b5f81359050611419816113f5565b92915050565b5f62ffffff82169050919050565b6114368161141f565b8114611440575f80fd5b50565b5f813590506114518161142d565b92915050565b5f819050919050565b61146981611457565b8114611473575f80fd5b50565b5f8135905061148481611460565b92915050565b5f60e0828403121561149f5761149e611339565b5b6114a960e06113ab565b90505f6114b88482850161140b565b5f8301525060206114cb8482850161140b565b60208301525060406114df84828501611443565b60408301525060606114f384828501611476565b606083015250608061150784828501611476565b60808301525060a061151b84828501611443565b60a08301525060c061152f84828501611443565b60c08301525092915050565b5f60e082840312156115505761154f611331565b5b5f61155d8482850161148a565b91505092915050565b5f806040838503121561157c5761157b611331565b5b5f61158985828601611476565b925050602061159a8582860161140b565b9150509250929050565b6115ad816113e4565b82525050565b5f6020820190506115c65f8301846115a4565b92915050565b5f819050919050565b5f6115ef6115ea6115e5846113c5565b6115cc565b6113c5565b9050919050565b5f611600826115d5565b9050919050565b5f611611826115f6565b9050919050565b61162181611607565b82525050565b5f60208201905061163a5f830184611618565b92915050565b5f805f6060848603121561165757611656611331565b5b5f6116648682870161140b565b935050602061167586828701611476565b92505060406116868682870161140b565b9150509250925092565b5f80fd5b5f80fd5b5f80fd5b5f8083601f8401126116b1576116b0611690565b5b8235905067ffffffffffffffff8111156116ce576116cd611694565b5b6020830191508360018202830111156116ea576116e9611698565b5b9250929050565b5f805f806060858703121561170957611708611331565b5b5f61171687828801611476565b945050602061172787828801611476565b935050604085013567ffffffffffffffff81111561174857611747611335565b5b6117548782880161169c565b925092505092959194509250565b61176b81611457565b82525050565b61177a816113e4565b82525050565b6117898161141f565b82525050565b606082015f8201516117a35f850182611771565b5060208201516117b66020850182611771565b5060408201516117c96040850182611780565b50505050565b61010082015f8201516117e45f850182611762565b5060208201516117f76020850182611762565b50604082015161180a6040850182611771565b50606082015161181d606085018261178f565b50608082015161183060c0850182611780565b5060a082015161184360e0850182611780565b50505050565b5f6101008201905061185d5f8301846117cf565b92915050565b61186c81611457565b82525050565b5f81519050919050565b5f82825260208201905092915050565b5f5b838110156118a957808201518184015260208101905061188e565b5f8484015250505050565b5f6118be82611872565b6118c8818561187c565b93506118d881856020860161188c565b6118e18161133d565b840191505092915050565b5f6080820190506118ff5f8301876115a4565b61190c6020830186611863565b6119196040830185611863565b818103606083015261192b81846118b4565b905095945050505050565b5f8151905061194481611460565b92915050565b5f6020828403121561195f5761195e611331565b5b5f61196c84828501611936565b91505092915050565b7f496e73756666696369656e7420574554483900000000000000000000000000005f82015250565b5f6119a96012836112b0565b91506119b482611975565b602082019050919050565b5f6020820190508181035f8301526119d68161199d565b9050919050565b5f6020820190506119f05f830184611863565b92915050565b7f496e73756666696369656e7420746f6b656e00000000000000000000000000005f82015250565b5f611a2a6012836112b0565b9150611a35826119f6565b602082019050919050565b5f6020820190508181035f830152611a5781611a1e565b9050919050565b5f60608284031215611a7357611a72611339565b5b611a7d60606113ab565b90505f611a8c8482850161140b565b5f830152506020611a9f8482850161140b565b6020830152506040611ab384828501611443565b60408301525092915050565b5f6101008284031215611ad557611ad4611339565b5b611adf60c06113ab565b90505f611aee84828501611476565b5f830152506020611b0184828501611476565b6020830152506040611b158482850161140b565b6040830152506060611b2984828501611a5e565b60608301525060c0611b3d84828501611443565b60808301525060e0611b5184828501611443565b60a08301525092915050565b5f6101008284031215611b7357611b72611331565b5b5f611b8084828501611abf565b91505092915050565b611b92816113c5565b82525050565b61010082015f820151611bad5f850182611771565b506020820151611bc06020850182611771565b506040820151611bd36040850182611780565b506060820151611be66060850182611771565b506080820151611bf96080850182611762565b5060a0820151611c0c60a0850182611762565b5060c0820151611c1f60c0850182611762565b5060e0820151611c3260e0850182611b89565b50505050565b5f61010082019050611c4c5f830184611b98565b92915050565b5f81905092915050565b5f611c6682611872565b611c708185611c52565b9350611c8081856020860161188c565b80840191505092915050565b5f611c978284611c5c565b915081905092915050565b7f53544500000000000000000000000000000000000000000000000000000000005f82015250565b5f611cd66003836112b0565b9150611ce182611ca2565b602082019050919050565b5f6020820190508181035f830152611d0381611cca565b9050919050565b611d138161141f565b82525050565b5f606082019050611d2c5f8301866115a4565b611d3960208301856115a4565b611d466040830184611d0a565b949350505050565b5f81905092915050565b7fff000000000000000000000000000000000000000000000000000000000000005f82015250565b5f611d8c600183611d4e565b9150611d9782611d58565b600182019050919050565b5f8160601b9050919050565b5f611db882611da2565b9050919050565b5f611dc982611dae565b9050919050565b611de1611ddc826113e4565b611dbf565b82525050565b5f819050919050565b5f819050919050565b611e0a611e0582611de7565b611df0565b82525050565b5f611e1a82611d80565b9150611e268286611dd0565b601482019150611e368285611df9565b602082019150611e468284611df9565b602082019150819050949350505050565b5f604082019050611e6a5f8301856115a4565b611e776020830184611863565b9392505050565b5f8115159050919050565b611e9281611e7e565b8114611e9c575f80fd5b50565b5f81519050611ead81611e89565b92915050565b5f60208284031215611ec857611ec7611331565b5b5f611ed584828501611e9f565b91505092915050565b7f53540000000000000000000000000000000000000000000000000000000000005f82015250565b5f611f126002836112b0565b9150611f1d82611ede565b602082019050919050565b5f6020820190508181035f830152611f3f81611f06565b9050919050565b7f53410000000000000000000000000000000000000000000000000000000000005f82015250565b5f611f7a6002836112b0565b9150611f8582611f46565b602082019050919050565b5f6020820190508181035f830152611fa781611f6e565b9050919050565b7f4e487b71000000000000000000000000000000000000000000000000000000005f52601160045260245ffd5b5f611fe582611457565b9150611ff083611457565b925082820190508082111561200857612007611fae565b5b92915050565b5f61201882611457565b915061202383611457565b925082820390508181111561203b5761203a611fae565b5b92915050565b5f6060820190506120545f8301866115a4565b61206160208301856115a4565b61206e6040830184611863565b949350505050565b7f53544600000000000000000000000000000000000000000000000000000000005f82015250565b5f6120aa6003836112b0565b91506120b582612076565b602082019050919050565b5f6020820190508181035f8301526120d78161209e565b905091905056fea2646970667358221220c7ce187d1f04b1e8f5719844d3f5b1930afc963c9d59f495a4f35a92b35082f264736f6c63430008140033",
					"opcodes": "PUSH1 0xE0 PUSH1 0x40 MSTORE CALLVALUE DUP1 ISZERO PUSH3 0x10 JUMPI PUSH0 DUP1 REVERT JUMPDEST POP PUSH1 0x40 MLOAD PUSH3 0x2371 CODESIZE SUB DUP1 PUSH3 0x2371 DUP4 CODECOPY DUP2 DUP2 ADD PUSH1 0x40 MSTORE DUP2 ADD SWAP1 PUSH3 0x36 SWAP2 SWAP1 PUSH3 0x186 JUMP JUMPDEST DUP2 DUP2 DUP2 PUSH20 0xFFFFFFFFFFFFFFFFFFFFFFFFFFFFFFFFFFFFFFFF AND PUSH1 0x80 DUP2 PUSH20 0xFFFFFFFFFFFFFFFFFFFFFFFFFFFFFFFFFFFFFFFF AND DUP2 MSTORE POP POP DUP1 PUSH20 0xFFFFFFFFFFFFFFFFFFFFFFFFFFFFFFFFFFFFFFFF AND PUSH1 0xA0 DUP2 PUSH20 0xFFFFFFFFFFFFFFFFFFFFFFFFFFFFFFFFFFFFFFFF AND DUP2 MSTORE POP POP POP POP DUP3 PUSH20 0xFFFFFFFFFFFFFFFFFFFFFFFFFFFFFFFFFFFFFFFF AND PUSH1 0xC0 DUP2 PUSH20 0xFFFFFFFFFFFFFFFFFFFFFFFFFFFFFFFFFFFFFFFF AND DUP2 MSTORE POP POP POP POP POP PUSH3 0x1DF JUMP JUMPDEST PUSH0 DUP1 REVERT JUMPDEST PUSH0 PUSH20 0xFFFFFFFFFFFFFFFFFFFFFFFFFFFFFFFFFFFFFFFF DUP3 AND SWAP1 POP SWAP2 SWAP1 POP JUMP JUMPDEST PUSH0 PUSH3 0x10E DUP3 PUSH3 0xE3 JUMP JUMPDEST SWAP1 POP SWAP2 SWAP1 POP JUMP JUMPDEST PUSH0 PUSH3 0x121 DUP3 PUSH3 0x102 JUMP JUMPDEST SWAP1 POP SWAP2 SWAP1 POP JUMP JUMPDEST PUSH3 0x133 DUP2 PUSH3 0x115 JUMP JUMPDEST DUP2 EQ PUSH3 0x13E JUMPI PUSH0 DUP1 REVERT JUMPDEST POP JUMP JUMPDEST PUSH0 DUP2 MLOAD SWAP1 POP PUSH3 0x151 DUP2 PUSH3 0x128 JUMP JUMPDEST SWAP3 SWAP2 POP POP JUMP JUMPDEST PUSH3 0x162 DUP2 PUSH3 0x102 JUMP JUMPDEST DUP2 EQ PUSH3 0x16D JUMPI PUSH0 DUP1 REVERT JUMPDEST POP JUMP JUMPDEST PUSH0 DUP2 MLOAD SWAP1 POP PUSH3 0x180 DUP2 PUSH3 0x157 JUMP JUMPDEST SWAP3 SWAP2 POP POP JUMP JUMPDEST PUSH0 DUP1 PUSH0 PUSH1 0x60 DUP5 DUP7 SUB SLT ISZERO PUSH3 0x1A0 JUMPI PUSH3 0x19F PUSH3 0xDF JUMP JUMPDEST JUMPDEST PUSH0 PUSH3 0x1AF DUP7 DUP3 DUP8 ADD PUSH3 0x141 JUMP JUMPDEST SWAP4 POP POP PUSH1 0x20 PUSH3 0x1C2 DUP7 DUP3 DUP8 ADD PUSH3 0x170 JUMP JUMPDEST SWAP3 POP POP PUSH1 0x40 PUSH3 0x1D5 DUP7 DUP3 DUP8 ADD PUSH3 0x170 JUMP JUMPDEST SWAP2 POP POP SWAP3 POP SWAP3 POP SWAP3 JUMP JUMPDEST PUSH1 0x80 MLOAD PUSH1 0xA0 MLOAD PUSH1 0xC0 MLOAD PUSH2 0x2114 PUSH3 0x25D PUSH0 CODECOPY PUSH0 DUP2 DUP2 PUSH2 0x559 ADD MSTORE DUP2 DUP2 PUSH2 0x6D5 ADD MSTORE DUP2 DUP2 PUSH2 0x703 ADD MSTORE DUP2 DUP2 PUSH2 0x750 ADD MSTORE PUSH2 0x88A ADD MSTORE PUSH0 DUP2 DUP2 PUSH1 0x85 ADD MSTORE DUP2 DUP2 PUSH2 0x3BA ADD MSTORE DUP2 DUP2 PUSH2 0x49F ADD MSTORE DUP2 DUP2 PUSH2 0x535 ADD MSTORE DUP2 DUP2 PUSH2 0xF6A ADD MSTORE DUP2 DUP2 PUSH2 0xFCA ADD MSTORE PUSH2 0x1047 ADD MSTORE PUSH0 DUP2 DUP2 PUSH2 0x29C ADD MSTORE DUP2 DUP2 PUSH2 0x57D ADD MSTORE PUSH2 0x68E ADD MSTORE PUSH2 0x2114 PUSH0 RETURN INVALID PUSH1 0x80 PUSH1 0x40 MSTORE PUSH1 0x4 CALLDATASIZE LT PUSH2 0x7E JUMPI PUSH0 CALLDATALOAD PUSH1 0xE0 SHR DUP1 PUSH4 0xC31C9C07 GT PUSH2 0x4D JUMPI DUP1 PUSH4 0xC31C9C07 EQ PUSH2 0x18F JUMPI DUP1 PUSH4 0xC45A0155 EQ PUSH2 0x1B9 JUMPI DUP1 PUSH4 0xDF2AB5BB EQ PUSH2 0x1E3 JUMPI DUP1 PUSH4 0xE9CBAFB0 EQ PUSH2 0x1FF JUMPI PUSH2 0x113 JUMP JUMPDEST DUP1 PUSH4 0x12210E8A EQ PUSH2 0x117 JUMPI DUP1 PUSH4 0x2384463B EQ PUSH2 0x121 JUMPI DUP1 PUSH4 0x49404B7C EQ PUSH2 0x149 JUMPI DUP1 PUSH4 0x4AA4A4FC EQ PUSH2 0x165 JUMPI PUSH2 0x113 JUMP JUMPDEST CALLDATASIZE PUSH2 0x113 JUMPI PUSH32 0x0 PUSH20 0xFFFFFFFFFFFFFFFFFFFFFFFFFFFFFFFFFFFFFFFF AND CALLER PUSH20 0xFFFFFFFFFFFFFFFFFFFFFFFFFFFFFFFFFFFFFFFF AND EQ PUSH2 0x111 JUMPI PUSH1 0x40 MLOAD PUSH32 0x8C379A000000000000000000000000000000000000000000000000000000000 DUP2 MSTORE PUSH1 0x4 ADD PUSH2 0x108 SWAP1 PUSH2 0x130A JUMP JUMPDEST PUSH1 0x40 MLOAD DUP1 SWAP2 SUB SWAP1 REVERT JUMPDEST STOP JUMPDEST PUSH0 DUP1 REVERT JUMPDEST PUSH2 0x11F PUSH2 0x227 JUMP JUMPDEST STOP JUMPDEST CALLVALUE DUP1 ISZERO PUSH2 0x12C JUMPI PUSH0 DUP1 REVERT JUMPDEST POP PUSH2 0x147 PUSH1 0x4 DUP1 CALLDATASIZE SUB DUP2 ADD SWAP1 PUSH2 0x142 SWAP2 SWAP1 PUSH2 0x153B JUMP JUMPDEST PUSH2 0x23C JUMP JUMPDEST STOP JUMPDEST PUSH2 0x163 PUSH1 0x4 DUP1 CALLDATASIZE SUB DUP2 ADD SWAP1 PUSH2 0x15E SWAP2 SWAP1 PUSH2 0x1566 JUMP JUMPDEST PUSH2 0x3B7 JUMP JUMPDEST STOP JUMPDEST CALLVALUE DUP1 ISZERO PUSH2 0x170 JUMPI PUSH0 DUP1 REVERT JUMPDEST POP PUSH2 0x179 PUSH2 0x533 JUMP JUMPDEST PUSH1 0x40 MLOAD PUSH2 0x186 SWAP2 SWAP1 PUSH2 0x15B3 JUMP JUMPDEST PUSH1 0x40 MLOAD DUP1 SWAP2 SUB SWAP1 RETURN JUMPDEST CALLVALUE DUP1 ISZERO PUSH2 0x19A JUMPI PUSH0 DUP1 REVERT JUMPDEST POP PUSH2 0x1A3 PUSH2 0x557 JUMP JUMPDEST PUSH1 0x40 MLOAD PUSH2 0x1B0 SWAP2 SWAP1 PUSH2 0x1627 JUMP JUMPDEST PUSH1 0x40 MLOAD DUP1 SWAP2 SUB SWAP1 RETURN JUMPDEST CALLVALUE DUP1 ISZERO PUSH2 0x1C4 JUMPI PUSH0 DUP1 REVERT JUMPDEST POP PUSH2 0x1CD PUSH2 0x57B JUMP JUMPDEST PUSH1 0x40 MLOAD PUSH2 0x1DA SWAP2 SWAP1 PUSH2 0x15B3 JUMP JUMPDEST PUSH1 0x40 MLOAD DUP1 SWAP2 SUB SWAP1 RETURN JUMPDEST PUSH2 0x1FD PUSH1 0x4 DUP1 CALLDATASIZE SUB DUP2 ADD SWAP1 PUSH2 0x1F8 SWAP2 SWAP1 PUSH2 0x1640 JUMP JUMPDEST PUSH2 0x59F JUMP JUMPDEST STOP JUMPDEST CALLVALUE DUP1 ISZERO PUSH2 0x20A JUMPI PUSH0 DUP1 REVERT JUMPDEST POP PUSH2 0x225 PUSH1 0x4 DUP1 CALLDATASIZE SUB DUP2 ADD SWAP1 PUSH2 0x220 SWAP2 SWAP1 PUSH2 0x16F1 JUMP JUMPDEST PUSH2 0x677 JUMP JUMPDEST STOP JUMPDEST PUSH0 SELFBALANCE GT ISZERO PUSH2 0x23A JUMPI PUSH2 0x239 CALLER SELFBALANCE PUSH2 0xA94 JUMP JUMPDEST JUMPDEST JUMP JUMPDEST PUSH0 PUSH1 0x40 MLOAD DUP1 PUSH1 0x60 ADD PUSH1 0x40 MSTORE DUP1 DUP4 PUSH0 ADD MLOAD PUSH20 0xFFFFFFFFFFFFFFFFFFFFFFFFFFFFFFFFFFFFFFFF AND DUP2 MSTORE PUSH1 0x20 ADD DUP4 PUSH1 0x20 ADD MLOAD PUSH20 0xFFFFFFFFFFFFFFFFFFFFFFFFFFFFFFFFFFFFFFFF AND DUP2 MSTORE PUSH1 0x20 ADD DUP4 PUSH1 0x40 ADD MLOAD PUSH3 0xFFFFFF AND DUP2 MSTORE POP SWAP1 POP PUSH0 PUSH2 0x2C1 PUSH32 0x0 DUP4 PUSH2 0xB8F JUMP JUMPDEST SWAP1 POP DUP1 PUSH20 0xFFFFFFFFFFFFFFFFFFFFFFFFFFFFFFFFFFFFFFFF AND PUSH4 0x490E6CBC ADDRESS DUP6 PUSH1 0x60 ADD MLOAD DUP7 PUSH1 0x80 ADD MLOAD PUSH1 0x40 MLOAD DUP1 PUSH1 0xC0 ADD PUSH1 0x40 MSTORE DUP1 DUP10 PUSH1 0x60 ADD MLOAD DUP2 MSTORE PUSH1 0x20 ADD DUP10 PUSH1 0x80 ADD MLOAD DUP2 MSTORE PUSH1 0x20 ADD CALLER PUSH20 0xFFFFFFFFFFFFFFFFFFFFFFFFFFFFFFFFFFFFFFFF AND DUP2 MSTORE PUSH1 0x20 ADD DUP9 DUP2 MSTORE PUSH1 0x20 ADD DUP10 PUSH1 0xA0 ADD MLOAD PUSH3 0xFFFFFF AND DUP2 MSTORE PUSH1 0x20 ADD DUP10 PUSH1 0xC0 ADD MLOAD PUSH3 0xFFFFFF AND DUP2 MSTORE POP PUSH1 0x40 MLOAD PUSH1 0x20 ADD PUSH2 0x357 SWAP2 SWAP1 PUSH2 0x1849 JUMP JUMPDEST PUSH1 0x40 MLOAD PUSH1 0x20 DUP2 DUP4 SUB SUB DUP2 MSTORE SWAP1 PUSH1 0x40 MSTORE PUSH1 0x40 MLOAD DUP6 PUSH4 0xFFFFFFFF AND PUSH1 0xE0 SHL DUP2 MSTORE PUSH1 0x4 ADD PUSH2 0x385 SWAP5 SWAP4 SWAP3 SWAP2 SWAP1 PUSH2 0x18EC JUMP JUMPDEST PUSH0 PUSH1 0x40 MLOAD DUP1 DUP4 SUB DUP2 PUSH0 DUP8 DUP1 EXTCODESIZE ISZERO DUP1 ISZERO PUSH2 0x39C JUMPI PUSH0 DUP1 REVERT JUMPDEST POP GAS CALL ISZERO DUP1 ISZERO PUSH2 0x3AE JUMPI RETURNDATASIZE PUSH0 DUP1 RETURNDATACOPY RETURNDATASIZE PUSH0 REVERT JUMPDEST POP POP POP POP POP POP POP JUMP JUMPDEST PUSH0 PUSH32 0x0 PUSH20 0xFFFFFFFFFFFFFFFFFFFFFFFFFFFFFFFFFFFFFFFF AND PUSH4 0x70A08231 ADDRESS PUSH1 0x40 MLOAD DUP3 PUSH4 0xFFFFFFFF AND PUSH1 0xE0 SHL DUP2 MSTORE PUSH1 0x4 ADD PUSH2 0x411 SWAP2 SWAP1 PUSH2 0x15B3 JUMP JUMPDEST PUSH1 0x20 PUSH1 0x40 MLOAD DUP1 DUP4 SUB DUP2 DUP7 GAS STATICCALL ISZERO DUP1 ISZERO PUSH2 0x42C JUMPI RETURNDATASIZE PUSH0 DUP1 RETURNDATACOPY RETURNDATASIZE PUSH0 REVERT JUMPDEST POP POP POP POP PUSH1 0x40 MLOAD RETURNDATASIZE PUSH1 0x1F NOT PUSH1 0x1F DUP3 ADD AND DUP3 ADD DUP1 PUSH1 0x40 MSTORE POP DUP2 ADD SWAP1 PUSH2 0x450 SWAP2 SWAP1 PUSH2 0x194A JUMP JUMPDEST SWAP1 POP DUP3 DUP2 LT ISZERO PUSH2 0x495 JUMPI PUSH1 0x40 MLOAD PUSH32 0x8C379A000000000000000000000000000000000000000000000000000000000 DUP2 MSTORE PUSH1 0x4 ADD PUSH2 0x48C SWAP1 PUSH2 0x19BF JUMP JUMPDEST PUSH1 0x40 MLOAD DUP1 SWAP2 SUB SWAP1 REVERT JUMPDEST PUSH0 DUP2 GT ISZERO PUSH2 0x52E JUMPI PUSH32 0x0 PUSH20 0xFFFFFFFFFFFFFFFFFFFFFFFFFFFFFFFFFFFFFFFF AND PUSH4 0x2E1A7D4D DUP3 PUSH1 0x40 MLOAD DUP3 PUSH4 0xFFFFFFFF AND PUSH1 0xE0 SHL DUP2 MSTORE PUSH1 0x4 ADD PUSH2 0x4F6 SWAP2 SWAP1 PUSH2 0x19DD JUMP JUMPDEST PUSH0 PUSH1 0x40 MLOAD DUP1 DUP4 SUB DUP2 PUSH0 DUP8 DUP1 EXTCODESIZE ISZERO DUP1 ISZERO PUSH2 0x50D JUMPI PUSH0 DUP1 REVERT JUMPDEST POP GAS CALL ISZERO DUP1 ISZERO PUSH2 0x51F JUMPI RETURNDATASIZE PUSH0 DUP1 RETURNDATACOPY RETURNDATASIZE PUSH0 REVERT JUMPDEST POP POP POP POP PUSH2 0x52D DUP3 DUP3 PUSH2 0xA94 JUMP JUMPDEST JUMPDEST POP POP POP JUMP JUMPDEST PUSH32 0x0 DUP2 JUMP JUMPDEST PUSH32 0x0 DUP2 JUMP JUMPDEST PUSH32 0x0 DUP2 JUMP JUMPDEST PUSH0 DUP4 PUSH20 0xFFFFFFFFFFFFFFFFFFFFFFFFFFFFFFFFFFFFFFFF AND PUSH4 0x70A08231 ADDRESS PUSH1 0x40 MLOAD DUP3 PUSH4 0xFFFFFFFF AND PUSH1 0xE0 SHL DUP2 MSTORE PUSH1 0x4 ADD PUSH2 0x5D9 SWAP2 SWAP1 PUSH2 0x15B3 JUMP JUMPDEST PUSH1 0x20 PUSH1 0x40 MLOAD DUP1 DUP4 SUB DUP2 DUP7 GAS STATICCALL ISZERO DUP1 ISZERO PUSH2 0x5F4 JUMPI RETURNDATASIZE PUSH0 DUP1 RETURNDATACOPY RETURNDATASIZE PUSH0 REVERT JUMPDEST POP POP POP POP PUSH1 0x40 MLOAD RETURNDATASIZE PUSH1 0x1F NOT PUSH1 0x1F DUP3 ADD AND DUP3 ADD DUP1 PUSH1 0x40 MSTORE POP DUP2 ADD SWAP1 PUSH2 0x618 SWAP2 SWAP1 PUSH2 0x194A JUMP JUMPDEST SWAP1 POP DUP3 DUP2 LT ISZERO PUSH2 0x65D JUMPI PUSH1 0x40 MLOAD PUSH32 0x8C379A000000000000000000000000000000000000000000000000000000000 DUP2 MSTORE PUSH1 0x4 ADD PUSH2 0x654 SWAP1 PUSH2 0x1A40 JUMP JUMPDEST PUSH1 0x40 MLOAD DUP1 SWAP2 SUB SWAP1 REVERT JUMPDEST PUSH0 DUP2 GT ISZERO PUSH2 0x671 JUMPI PUSH2 0x670 DUP5 DUP4 DUP4 PUSH2 0xC5F JUMP JUMPDEST JUMPDEST POP POP POP POP JUMP JUMPDEST PUSH0 DUP3 DUP3 DUP2 ADD SWAP1 PUSH2 0x687 SWAP2 SWAP1 PUSH2 0x1B5D JUMP JUMPDEST SWAP1 POP PUSH2 0x6B7 PUSH32 0x0 DUP3 PUSH1 0x60 ADD MLOAD PUSH2 0xDAE JUMP JUMPDEST POP PUSH0 DUP2 PUSH1 0x60 ADD MLOAD PUSH0 ADD MLOAD SWAP1 POP PUSH0 DUP3 PUSH1 0x60 ADD MLOAD PUSH1 0x20 ADD MLOAD SWAP1 POP PUSH2 0x6FD DUP3 PUSH32 0x0 DUP6 PUSH0 ADD MLOAD PUSH2 0xDF8 JUMP JUMPDEST PUSH2 0x72C DUP2 PUSH32 0x0 DUP6 PUSH1 0x20 ADD MLOAD PUSH2 0xDF8 JUMP JUMPDEST PUSH0 PUSH2 0x73B DUP5 PUSH1 0x20 ADD MLOAD DUP9 PUSH2 0xF47 JUMP JUMPDEST SWAP1 POP PUSH0 PUSH2 0x74B DUP6 PUSH0 ADD MLOAD DUP11 PUSH2 0xF47 JUMP JUMPDEST SWAP1 POP PUSH0 PUSH32 0x0 PUSH20 0xFFFFFFFFFFFFFFFFFFFFFFFFFFFFFFFFFFFFFFFF AND PUSH4 0x414BF389 PUSH1 0x40 MLOAD DUP1 PUSH2 0x100 ADD PUSH1 0x40 MSTORE DUP1 DUP8 PUSH20 0xFFFFFFFFFFFFFFFFFFFFFFFFFFFFFFFFFFFFFFFF AND DUP2 MSTORE PUSH1 0x20 ADD DUP9 PUSH20 0xFFFFFFFFFFFFFFFFFFFFFFFFFFFFFFFFFFFFFFFF AND DUP2 MSTORE PUSH1 0x20 ADD DUP10 PUSH1 0x80 ADD MLOAD PUSH3 0xFFFFFF AND DUP2 MSTORE PUSH1 0x20 ADD ADDRESS PUSH20 0xFFFFFFFFFFFFFFFFFFFFFFFFFFFFFFFFFFFFFFFF AND DUP2 MSTORE PUSH1 0x20 ADD TIMESTAMP DUP2 MSTORE PUSH1 0x20 ADD DUP10 PUSH1 0x20 ADD MLOAD DUP2 MSTORE PUSH1 0x20 ADD DUP6 DUP2 MSTORE PUSH1 0x20 ADD PUSH0 PUSH20 0xFFFFFFFFFFFFFFFFFFFFFFFFFFFFFFFFFFFFFFFF AND DUP2 MSTORE POP PUSH1 0x40 MLOAD DUP3 PUSH4 0xFFFFFFFF AND PUSH1 0xE0 SHL DUP2 MSTORE PUSH1 0x4 ADD PUSH2 0x845 SWAP2 SWAP1 PUSH2 0x1C38 JUMP JUMPDEST PUSH1 0x20 PUSH1 0x40 MLOAD DUP1 DUP4 SUB DUP2 PUSH0 DUP8 GAS CALL ISZERO DUP1 ISZERO PUSH2 0x861 JUMPI RETURNDATASIZE PUSH0 DUP1 RETURNDATACOPY RETURNDATASIZE PUSH0 REVERT JUMPDEST POP POP POP POP PUSH1 0x40 MLOAD RETURNDATASIZE PUSH1 0x1F NOT PUSH1 0x1F DUP3 ADD AND DUP3 ADD DUP1 PUSH1 0x40 MSTORE POP DUP2 ADD SWAP1 PUSH2 0x885 SWAP2 SWAP1 PUSH2 0x194A JUMP JUMPDEST SWAP1 POP PUSH0 PUSH32 0x0 PUSH20 0xFFFFFFFFFFFFFFFFFFFFFFFFFFFFFFFFFFFFFFFF AND PUSH4 0x414BF389 PUSH1 0x40 MLOAD DUP1 PUSH2 0x100 ADD PUSH1 0x40 MSTORE DUP1 DUP10 PUSH20 0xFFFFFFFFFFFFFFFFFFFFFFFFFFFFFFFFFFFFFFFF AND DUP2 MSTORE PUSH1 0x20 ADD DUP9 PUSH20 0xFFFFFFFFFFFFFFFFFFFFFFFFFFFFFFFFFFFFFFFF AND DUP2 MSTORE PUSH1 0x20 ADD DUP11 PUSH1 0xA0 ADD MLOAD PUSH3 0xFFFFFF AND DUP2 MSTORE PUSH1 0x20 ADD ADDRESS PUSH20 0xFFFFFFFFFFFFFFFFFFFFFFFFFFFFFFFFFFFFFFFF AND DUP2 MSTORE PUSH1 0x20 ADD TIMESTAMP DUP2 MSTORE PUSH1 0x20 ADD DUP11 PUSH0 ADD MLOAD DUP2 MSTORE PUSH1 0x20 ADD DUP8 DUP2 MSTORE PUSH1 0x20 ADD PUSH0 PUSH20 0xFFFFFFFFFFFFFFFFFFFFFFFFFFFFFFFFFFFFFFFF AND DUP2 MSTORE POP PUSH1 0x40 MLOAD DUP3 PUSH4 0xFFFFFFFF AND PUSH1 0xE0 SHL DUP2 MSTORE PUSH1 0x4 ADD PUSH2 0x97E SWAP2 SWAP1 PUSH2 0x1C38 JUMP JUMPDEST PUSH1 0x20 PUSH1 0x40 MLOAD DUP1 DUP4 SUB DUP2 PUSH0 DUP8 GAS CALL ISZERO DUP1 ISZERO PUSH2 0x99A JUMPI RETURNDATASIZE PUSH0 DUP1 RETURNDATACOPY RETURNDATASIZE PUSH0 REVERT JUMPDEST POP POP POP POP PUSH1 0x40 MLOAD RETURNDATASIZE PUSH1 0x1F NOT PUSH1 0x1F DUP3 ADD AND DUP3 ADD DUP1 PUSH1 0x40 MSTORE POP DUP2 ADD SWAP1 PUSH2 0x9BE SWAP2 SWAP1 PUSH2 0x194A JUMP JUMPDEST SWAP1 POP PUSH0 PUSH2 0x9CE DUP9 PUSH0 ADD MLOAD DUP14 PUSH2 0xF47 JUMP JUMPDEST SWAP1 POP PUSH0 PUSH2 0x9DF DUP10 PUSH1 0x20 ADD MLOAD DUP14 PUSH2 0xF47 JUMP JUMPDEST SWAP1 POP PUSH2 0x9EC DUP9 ADDRESS DUP5 PUSH2 0xDF8 JUMP JUMPDEST PUSH2 0x9F7 DUP8 ADDRESS DUP4 PUSH2 0xDF8 JUMP JUMPDEST PUSH0 DUP3 GT ISZERO PUSH2 0xA0C JUMPI PUSH2 0xA0B DUP9 ADDRESS CALLER DUP6 PUSH2 0xF68 JUMP JUMPDEST JUMPDEST PUSH0 DUP2 GT ISZERO PUSH2 0xA21 JUMPI PUSH2 0xA20 DUP8 ADDRESS CALLER DUP5 PUSH2 0xF68 JUMP JUMPDEST JUMPDEST DUP2 DUP5 GT ISZERO PUSH2 0xA53 JUMPI PUSH0 PUSH2 0xA34 DUP6 DUP5 PUSH2 0x113D JUMP JUMPDEST SWAP1 POP PUSH2 0xA41 DUP10 ADDRESS DUP4 PUSH2 0xDF8 JUMP JUMPDEST PUSH2 0xA51 DUP10 ADDRESS DUP13 PUSH1 0x40 ADD MLOAD DUP5 PUSH2 0xF68 JUMP JUMPDEST POP JUMPDEST DUP1 DUP4 GT ISZERO PUSH2 0xA85 JUMPI PUSH0 PUSH2 0xA66 DUP5 DUP4 PUSH2 0x113D JUMP JUMPDEST SWAP1 POP PUSH2 0xA73 DUP10 ADDRESS DUP4 PUSH2 0xDF8 JUMP JUMPDEST PUSH2 0xA83 DUP9 ADDRESS DUP13 PUSH1 0x40 ADD MLOAD DUP5 PUSH2 0xF68 JUMP JUMPDEST POP JUMPDEST POP POP POP POP POP POP POP POP POP POP POP POP POP JUMP JUMPDEST PUSH0 DUP3 PUSH20 0xFFFFFFFFFFFFFFFFFFFFFFFFFFFFFFFFFFFFFFFF AND DUP3 PUSH0 PUSH8 0xFFFFFFFFFFFFFFFF DUP2 GT ISZERO PUSH2 0xAC7 JUMPI PUSH2 0xAC6 PUSH2 0x134D JUMP JUMPDEST JUMPDEST PUSH1 0x40 MLOAD SWAP1 DUP1 DUP3 MSTORE DUP1 PUSH1 0x1F ADD PUSH1 0x1F NOT AND PUSH1 0x20 ADD DUP3 ADD PUSH1 0x40 MSTORE DUP1 ISZERO PUSH2 0xAF9 JUMPI DUP2 PUSH1 0x20 ADD PUSH1 0x1 DUP3 MUL DUP1 CALLDATASIZE DUP4 CALLDATACOPY DUP1 DUP3 ADD SWAP2 POP POP SWAP1 POP JUMPDEST POP PUSH1 0x40 MLOAD PUSH2 0xB07 SWAP2 SWAP1 PUSH2 0x1C8C JUMP JUMPDEST PUSH0 PUSH1 0x40 MLOAD DUP1 DUP4 SUB DUP2 DUP6 DUP8 GAS CALL SWAP3 POP POP POP RETURNDATASIZE DUP1 PUSH0 DUP2 EQ PUSH2 0xB41 JUMPI PUSH1 0x40 MLOAD SWAP2 POP PUSH1 0x1F NOT PUSH1 0x3F RETURNDATASIZE ADD AND DUP3 ADD PUSH1 0x40 MSTORE RETURNDATASIZE DUP3 MSTORE RETURNDATASIZE PUSH0 PUSH1 0x20 DUP5 ADD RETURNDATACOPY PUSH2 0xB46 JUMP JUMPDEST PUSH1 0x60 SWAP2 POP JUMPDEST POP POP SWAP1 POP DUP1 PUSH2 0xB8A JUMPI PUSH1 0x40 MLOAD PUSH32 0x8C379A000000000000000000000000000000000000000000000000000000000 DUP2 MSTORE PUSH1 0x4 ADD PUSH2 0xB81 SWAP1 PUSH2 0x1CEC JUMP JUMPDEST PUSH1 0x40 MLOAD DUP1 SWAP2 SUB SWAP1 REVERT JUMPDEST POP POP POP JUMP JUMPDEST PUSH0 DUP2 PUSH1 0x20 ADD MLOAD PUSH20 0xFFFFFFFFFFFFFFFFFFFFFFFFFFFFFFFFFFFFFFFF AND DUP3 PUSH0 ADD MLOAD PUSH20 0xFFFFFFFFFFFFFFFFFFFFFFFFFFFFFFFFFFFFFFFF AND LT PUSH2 0xBCE JUMPI PUSH0 DUP1 REVERT JUMPDEST PUSH0 DUP4 DUP4 PUSH0 ADD MLOAD DUP5 PUSH1 0x20 ADD MLOAD DUP6 PUSH1 0x40 ADD MLOAD PUSH1 0x40 MLOAD PUSH1 0x20 ADD PUSH2 0xBF0 SWAP4 SWAP3 SWAP2 SWAP1 PUSH2 0x1D19 JUMP JUMPDEST PUSH1 0x40 MLOAD PUSH1 0x20 DUP2 DUP4 SUB SUB DUP2 MSTORE SWAP1 PUSH1 0x40 MSTORE DUP1 MLOAD SWAP1 PUSH1 0x20 ADD KECCAK256 PUSH32 0xE34F199B19B2B4F47F68442619D555527D244F78A3297EA89325F843F87B8B54 PUSH0 SHL PUSH1 0x40 MLOAD PUSH1 0x20 ADD PUSH2 0xC3B SWAP4 SWAP3 SWAP2 SWAP1 PUSH2 0x1E10 JUMP JUMPDEST PUSH1 0x40 MLOAD PUSH1 0x20 DUP2 DUP4 SUB SUB DUP2 MSTORE SWAP1 PUSH1 0x40 MSTORE DUP1 MLOAD SWAP1 PUSH1 0x20 ADD KECCAK256 SWAP1 POP DUP1 PUSH0 SHR SWAP2 POP POP SWAP3 SWAP2 POP POP JUMP JUMPDEST PUSH0 DUP1 DUP5 PUSH20 0xFFFFFFFFFFFFFFFFFFFFFFFFFFFFFFFFFFFFFFFF AND PUSH4 0xA9059CBB PUSH1 0xE0 SHL DUP6 DUP6 PUSH1 0x40 MLOAD PUSH1 0x24 ADD PUSH2 0xC93 SWAP3 SWAP2 SWAP1 PUSH2 0x1E57 JUMP JUMPDEST PUSH1 0x40 MLOAD PUSH1 0x20 DUP2 DUP4 SUB SUB DUP2 MSTORE SWAP1 PUSH1 0x40 MSTORE SWAP1 PUSH28 0xFFFFFFFFFFFFFFFFFFFFFFFFFFFFFFFFFFFFFFFFFFFFFFFFFFFFFFFF NOT AND PUSH1 0x20 DUP3 ADD DUP1 MLOAD PUSH28 0xFFFFFFFFFFFFFFFFFFFFFFFFFFFFFFFFFFFFFFFFFFFFFFFFFFFFFFFF DUP4 DUP2 DUP4 AND OR DUP4 MSTORE POP POP POP POP PUSH1 0x40 MLOAD PUSH2 0xCFD SWAP2 SWAP1 PUSH2 0x1C8C JUMP JUMPDEST PUSH0 PUSH1 0x40 MLOAD DUP1 DUP4 SUB DUP2 PUSH0 DUP7 GAS CALL SWAP2 POP POP RETURNDATASIZE DUP1 PUSH0 DUP2 EQ PUSH2 0xD36 JUMPI PUSH1 0x40 MLOAD SWAP2 POP PUSH1 0x1F NOT PUSH1 0x3F RETURNDATASIZE ADD AND DUP3 ADD PUSH1 0x40 MSTORE RETURNDATASIZE DUP3 MSTORE RETURNDATASIZE PUSH0 PUSH1 0x20 DUP5 ADD RETURNDATACOPY PUSH2 0xD3B JUMP JUMPDEST PUSH1 0x60 SWAP2 POP JUMPDEST POP SWAP2 POP SWAP2 POP DUP2 DUP1 ISZERO PUSH2 0xD68 JUMPI POP PUSH0 DUP2 MLOAD EQ DUP1 PUSH2 0xD67 JUMPI POP DUP1 DUP1 PUSH1 0x20 ADD SWAP1 MLOAD DUP2 ADD SWAP1 PUSH2 0xD66 SWAP2 SWAP1 PUSH2 0x1EB3 JUMP JUMPDEST JUMPDEST JUMPDEST PUSH2 0xDA7 JUMPI PUSH1 0x40 MLOAD PUSH32 0x8C379A000000000000000000000000000000000000000000000000000000000 DUP2 MSTORE PUSH1 0x4 ADD PUSH2 0xD9E SWAP1 PUSH2 0x1F28 JUMP JUMPDEST PUSH1 0x40 MLOAD DUP1 SWAP2 SUB SWAP1 REVERT JUMPDEST POP POP POP POP POP JUMP JUMPDEST PUSH0 PUSH2 0xDB9 DUP4 DUP4 PUSH2 0xB8F JUMP JUMPDEST SWAP1 POP DUP1 PUSH20 0xFFFFFFFFFFFFFFFFFFFFFFFFFFFFFFFFFFFFFFFF AND CALLER PUSH20 0xFFFFFFFFFFFFFFFFFFFFFFFFFFFFFFFFFFFFFFFF AND EQ PUSH2 0xDF2 JUMPI PUSH0 DUP1 REVERT JUMPDEST SWAP3 SWAP2 POP POP JUMP JUMPDEST PUSH0 DUP1 DUP5 PUSH20 0xFFFFFFFFFFFFFFFFFFFFFFFFFFFFFFFFFFFFFFFF AND PUSH4 0x95EA7B3 PUSH1 0xE0 SHL DUP6 DUP6 PUSH1 0x40 MLOAD PUSH1 0x24 ADD PUSH2 0xE2C SWAP3 SWAP2 SWAP1 PUSH2 0x1E57 JUMP JUMPDEST PUSH1 0x40 MLOAD PUSH1 0x20 DUP2 DUP4 SUB SUB DUP2 MSTORE SWAP1 PUSH1 0x40 MSTORE SWAP1 PUSH28 0xFFFFFFFFFFFFFFFFFFFFFFFFFFFFFFFFFFFFFFFFFFFFFFFFFFFFFFFF NOT AND PUSH1 0x20 DUP3 ADD DUP1 MLOAD PUSH28 0xFFFFFFFFFFFFFFFFFFFFFFFFFFFFFFFFFFFFFFFFFFFFFFFFFFFFFFFF DUP4 DUP2 DUP4 AND OR DUP4 MSTORE POP POP POP POP PUSH1 0x40 MLOAD PUSH2 0xE96 SWAP2 SWAP1 PUSH2 0x1C8C JUMP JUMPDEST PUSH0 PUSH1 0x40 MLOAD DUP1 DUP4 SUB DUP2 PUSH0 DUP7 GAS CALL SWAP2 POP POP RETURNDATASIZE DUP1 PUSH0 DUP2 EQ PUSH2 0xECF JUMPI PUSH1 0x40 MLOAD SWAP2 POP PUSH1 0x1F NOT PUSH1 0x3F RETURNDATASIZE ADD AND DUP3 ADD PUSH1 0x40 MSTORE RETURNDATASIZE DUP3 MSTORE RETURNDATASIZE PUSH0 PUSH1 0x20 DUP5 ADD RETURNDATACOPY PUSH2 0xED4 JUMP JUMPDEST PUSH1 0x60 SWAP2 POP JUMPDEST POP SWAP2 POP SWAP2 POP DUP2 DUP1 ISZERO PUSH2 0xF01 JUMPI POP PUSH0 DUP2 MLOAD EQ DUP1 PUSH2 0xF00 JUMPI POP DUP1 DUP1 PUSH1 0x20 ADD SWAP1 MLOAD DUP2 ADD SWAP1 PUSH2 0xEFF SWAP2 SWAP1 PUSH2 0x1EB3 JUMP JUMPDEST JUMPDEST JUMPDEST PUSH2 0xF40 JUMPI PUSH1 0x40 MLOAD PUSH32 0x8C379A000000000000000000000000000000000000000000000000000000000 DUP2 MSTORE PUSH1 0x4 ADD PUSH2 0xF37 SWAP1 PUSH2 0x1F90 JUMP JUMPDEST PUSH1 0x40 MLOAD DUP1 SWAP2 SUB SWAP1 REVERT JUMPDEST POP POP POP POP POP JUMP JUMPDEST PUSH0 DUP3 DUP3 DUP5 PUSH2 0xF55 SWAP2 SWAP1 PUSH2 0x1FDB JUMP JUMPDEST SWAP2 POP DUP2 LT ISZERO PUSH2 0xF62 JUMPI PUSH0 DUP1 REVERT JUMPDEST SWAP3 SWAP2 POP POP JUMP JUMPDEST PUSH32 0x0 PUSH20 0xFFFFFFFFFFFFFFFFFFFFFFFFFFFFFFFFFFFFFFFF AND DUP5 PUSH20 0xFFFFFFFFFFFFFFFFFFFFFFFFFFFFFFFFFFFFFFFF AND EQ DUP1 ISZERO PUSH2 0xFC3 JUMPI POP DUP1 SELFBALANCE LT ISZERO JUMPDEST ISZERO PUSH2 0x10E6 JUMPI PUSH32 0x0 PUSH20 0xFFFFFFFFFFFFFFFFFFFFFFFFFFFFFFFFFFFFFFFF AND PUSH4 0xD0E30DB0 DUP3 PUSH1 0x40 MLOAD DUP3 PUSH4 0xFFFFFFFF AND PUSH1 0xE0 SHL DUP2 MSTORE PUSH1 0x4 ADD PUSH0 PUSH1 0x40 MLOAD DUP1 DUP4 SUB DUP2 DUP6 DUP9 DUP1 EXTCODESIZE ISZERO DUP1 ISZERO PUSH2 0x102E JUMPI PUSH0 DUP1 REVERT JUMPDEST POP GAS CALL ISZERO DUP1 ISZERO PUSH2 0x1040 JUMPI RETURNDATASIZE PUSH0 DUP1 RETURNDATACOPY RETURNDATASIZE PUSH0 REVERT JUMPDEST POP POP POP POP POP PUSH32 0x0 PUSH20 0xFFFFFFFFFFFFFFFFFFFFFFFFFFFFFFFFFFFFFFFF AND PUSH4 0xA9059CBB DUP4 DUP4 PUSH1 0x40 MLOAD DUP4 PUSH4 0xFFFFFFFF AND PUSH1 0xE0 SHL DUP2 MSTORE PUSH1 0x4 ADD PUSH2 0x10A0 SWAP3 SWAP2 SWAP1 PUSH2 0x1E57 JUMP JUMPDEST PUSH1 0x20 PUSH1 0x40 MLOAD DUP1 DUP4 SUB DUP2 PUSH0 DUP8 GAS CALL ISZERO DUP1 ISZERO PUSH2 0x10BC JUMPI RETURNDATASIZE PUSH0 DUP1 RETURNDATACOPY RETURNDATASIZE PUSH0 REVERT JUMPDEST POP POP POP POP PUSH1 0x40 MLOAD RETURNDATASIZE PUSH1 0x1F NOT PUSH1 0x1F DUP3 ADD AND DUP3 ADD DUP1 PUSH1 0x40 MSTORE POP DUP2 ADD SWAP1 PUSH2 0x10E0 SWAP2 SWAP1 PUSH2 0x1EB3 JUMP JUMPDEST POP PUSH2 0x1137 JUMP JUMPDEST ADDRESS PUSH20 0xFFFFFFFFFFFFFFFFFFFFFFFFFFFFFFFFFFFFFFFF AND DUP4 PUSH20 0xFFFFFFFFFFFFFFFFFFFFFFFFFFFFFFFFFFFFFFFF AND SUB PUSH2 0x1129 JUMPI PUSH2 0x1124 DUP5 DUP4 DUP4 PUSH2 0xC5F JUMP JUMPDEST PUSH2 0x1136 JUMP JUMPDEST PUSH2 0x1135 DUP5 DUP5 DUP5 DUP5 PUSH2 0x115E JUMP JUMPDEST JUMPDEST JUMPDEST POP POP POP POP JUMP JUMPDEST PUSH0 DUP3 DUP3 DUP5 PUSH2 0x114B SWAP2 SWAP1 PUSH2 0x200E JUMP JUMPDEST SWAP2 POP DUP2 GT ISZERO PUSH2 0x1158 JUMPI PUSH0 DUP1 REVERT JUMPDEST SWAP3 SWAP2 POP POP JUMP JUMPDEST PUSH0 DUP1 DUP6 PUSH20 0xFFFFFFFFFFFFFFFFFFFFFFFFFFFFFFFFFFFFFFFF AND PUSH4 0x23B872DD PUSH1 0xE0 SHL DUP7 DUP7 DUP7 PUSH1 0x40 MLOAD PUSH1 0x24 ADD PUSH2 0x1194 SWAP4 SWAP3 SWAP2 SWAP1 PUSH2 0x2041 JUMP JUMPDEST PUSH1 0x40 MLOAD PUSH1 0x20 DUP2 DUP4 SUB SUB DUP2 MSTORE SWAP1 PUSH1 0x40 MSTORE SWAP1 PUSH28 0xFFFFFFFFFFFFFFFFFFFFFFFFFFFFFFFFFFFFFFFFFFFFFFFFFFFFFFFF NOT AND PUSH1 0x20 DUP3 ADD DUP1 MLOAD PUSH28 0xFFFFFFFFFFFFFFFFFFFFFFFFFFFFFFFFFFFFFFFFFFFFFFFFFFFFFFFF DUP4 DUP2 DUP4 AND OR DUP4 MSTORE POP POP POP POP PUSH1 0x40 MLOAD PUSH2 0x11FE SWAP2 SWAP1 PUSH2 0x1C8C JUMP JUMPDEST PUSH0 PUSH1 0x40 MLOAD DUP1 DUP4 SUB DUP2 PUSH0 DUP7 GAS CALL SWAP2 POP POP RETURNDATASIZE DUP1 PUSH0 DUP2 EQ PUSH2 0x1237 JUMPI PUSH1 0x40 MLOAD SWAP2 POP PUSH1 0x1F NOT PUSH1 0x3F RETURNDATASIZE ADD AND DUP3 ADD PUSH1 0x40 MSTORE RETURNDATASIZE DUP3 MSTORE RETURNDATASIZE PUSH0 PUSH1 0x20 DUP5 ADD RETURNDATACOPY PUSH2 0x123C JUMP JUMPDEST PUSH1 0x60 SWAP2 POP JUMPDEST POP SWAP2 POP SWAP2 POP DUP2 DUP1 ISZERO PUSH2 0x1269 JUMPI POP PUSH0 DUP2 MLOAD EQ DUP1 PUSH2 0x1268 JUMPI POP DUP1 DUP1 PUSH1 0x20 ADD SWAP1 MLOAD DUP2 ADD SWAP1 PUSH2 0x1267 SWAP2 SWAP1 PUSH2 0x1EB3 JUMP JUMPDEST JUMPDEST JUMPDEST PUSH2 0x12A8 JUMPI PUSH1 0x40 MLOAD PUSH32 0x8C379A000000000000000000000000000000000000000000000000000000000 DUP2 MSTORE PUSH1 0x4 ADD PUSH2 0x129F SWAP1 PUSH2 0x20C0 JUMP JUMPDEST PUSH1 0x40 MLOAD DUP1 SWAP2 SUB SWAP1 REVERT JUMPDEST POP POP POP POP POP POP JUMP JUMPDEST PUSH0 DUP3 DUP3 MSTORE PUSH1 0x20 DUP3 ADD SWAP1 POP SWAP3 SWAP2 POP POP JUMP JUMPDEST PUSH32 0x4E6F742057455448390000000000000000000000000000000000000000000000 PUSH0 DUP3 ADD MSTORE POP JUMP JUMPDEST PUSH0 PUSH2 0x12F4 PUSH1 0x9 DUP4 PUSH2 0x12B0 JUMP JUMPDEST SWAP2 POP PUSH2 0x12FF DUP3 PUSH2 0x12C0 JUMP JUMPDEST PUSH1 0x20 DUP3 ADD SWAP1 POP SWAP2 SWAP1 POP JUMP JUMPDEST PUSH0 PUSH1 0x20 DUP3 ADD SWAP1 POP DUP2 DUP2 SUB PUSH0 DUP4 ADD MSTORE PUSH2 0x1321 DUP2 PUSH2 0x12E8 JUMP JUMPDEST SWAP1 POP SWAP2 SWAP1 POP JUMP JUMPDEST PUSH0 PUSH1 0x40 MLOAD SWAP1 POP SWAP1 JUMP JUMPDEST PUSH0 DUP1 REVERT JUMPDEST PUSH0 DUP1 REVERT JUMPDEST PUSH0 DUP1 REVERT JUMPDEST PUSH0 PUSH1 0x1F NOT PUSH1 0x1F DUP4 ADD AND SWAP1 POP SWAP2 SWAP1 POP JUMP JUMPDEST PUSH32 0x4E487B7100000000000000000000000000000000000000000000000000000000 PUSH0 MSTORE PUSH1 0x41 PUSH1 0x4 MSTORE PUSH1 0x24 PUSH0 REVERT JUMPDEST PUSH2 0x1383 DUP3 PUSH2 0x133D JUMP JUMPDEST DUP2 ADD DUP2 DUP2 LT PUSH8 0xFFFFFFFFFFFFFFFF DUP3 GT OR ISZERO PUSH2 0x13A2 JUMPI PUSH2 0x13A1 PUSH2 0x134D JUMP JUMPDEST JUMPDEST DUP1 PUSH1 0x40 MSTORE POP POP POP JUMP JUMPDEST PUSH0 PUSH2 0x13B4 PUSH2 0x1328 JUMP JUMPDEST SWAP1 POP PUSH2 0x13C0 DUP3 DUP3 PUSH2 0x137A JUMP JUMPDEST SWAP2 SWAP1 POP JUMP JUMPDEST PUSH0 PUSH20 0xFFFFFFFFFFFFFFFFFFFFFFFFFFFFFFFFFFFFFFFF DUP3 AND SWAP1 POP SWAP2 SWAP1 POP JUMP JUMPDEST PUSH0 PUSH2 0x13EE DUP3 PUSH2 0x13C5 JUMP JUMPDEST SWAP1 POP SWAP2 SWAP1 POP JUMP JUMPDEST PUSH2 0x13FE DUP2 PUSH2 0x13E4 JUMP JUMPDEST DUP2 EQ PUSH2 0x1408 JUMPI PUSH0 DUP1 REVERT JUMPDEST POP JUMP JUMPDEST PUSH0 DUP2 CALLDATALOAD SWAP1 POP PUSH2 0x1419 DUP2 PUSH2 0x13F5 JUMP JUMPDEST SWAP3 SWAP2 POP POP JUMP JUMPDEST PUSH0 PUSH3 0xFFFFFF DUP3 AND SWAP1 POP SWAP2 SWAP1 POP JUMP JUMPDEST PUSH2 0x1436 DUP2 PUSH2 0x141F JUMP JUMPDEST DUP2 EQ PUSH2 0x1440 JUMPI PUSH0 DUP1 REVERT JUMPDEST POP JUMP JUMPDEST PUSH0 DUP2 CALLDATALOAD SWAP1 POP PUSH2 0x1451 DUP2 PUSH2 0x142D JUMP JUMPDEST SWAP3 SWAP2 POP POP JUMP JUMPDEST PUSH0 DUP2 SWAP1 POP SWAP2 SWAP1 POP JUMP JUMPDEST PUSH2 0x1469 DUP2 PUSH2 0x1457 JUMP JUMPDEST DUP2 EQ PUSH2 0x1473 JUMPI PUSH0 DUP1 REVERT JUMPDEST POP JUMP JUMPDEST PUSH0 DUP2 CALLDATALOAD SWAP1 POP PUSH2 0x1484 DUP2 PUSH2 0x1460 JUMP JUMPDEST SWAP3 SWAP2 POP POP JUMP JUMPDEST PUSH0 PUSH1 0xE0 DUP3 DUP5 SUB SLT ISZERO PUSH2 0x149F JUMPI PUSH2 0x149E PUSH2 0x1339 JUMP JUMPDEST JUMPDEST PUSH2 0x14A9 PUSH1 0xE0 PUSH2 0x13AB JUMP JUMPDEST SWAP1 POP PUSH0 PUSH2 0x14B8 DUP5 DUP3 DUP6 ADD PUSH2 0x140B JUMP JUMPDEST PUSH0 DUP4 ADD MSTORE POP PUSH1 0x20 PUSH2 0x14CB DUP5 DUP3 DUP6 ADD PUSH2 0x140B JUMP JUMPDEST PUSH1 0x20 DUP4 ADD MSTORE POP PUSH1 0x40 PUSH2 0x14DF DUP5 DUP3 DUP6 ADD PUSH2 0x1443 JUMP JUMPDEST PUSH1 0x40 DUP4 ADD MSTORE POP PUSH1 0x60 PUSH2 0x14F3 DUP5 DUP3 DUP6 ADD PUSH2 0x1476 JUMP JUMPDEST PUSH1 0x60 DUP4 ADD MSTORE POP PUSH1 0x80 PUSH2 0x1507 DUP5 DUP3 DUP6 ADD PUSH2 0x1476 JUMP JUMPDEST PUSH1 0x80 DUP4 ADD MSTORE POP PUSH1 0xA0 PUSH2 0x151B DUP5 DUP3 DUP6 ADD PUSH2 0x1443 JUMP JUMPDEST PUSH1 0xA0 DUP4 ADD MSTORE POP PUSH1 0xC0 PUSH2 0x152F DUP5 DUP3 DUP6 ADD PUSH2 0x1443 JUMP JUMPDEST PUSH1 0xC0 DUP4 ADD MSTORE POP SWAP3 SWAP2 POP POP JUMP JUMPDEST PUSH0 PUSH1 0xE0 DUP3 DUP5 SUB SLT ISZERO PUSH2 0x1550 JUMPI PUSH2 0x154F PUSH2 0x1331 JUMP JUMPDEST JUMPDEST PUSH0 PUSH2 0x155D DUP5 DUP3 DUP6 ADD PUSH2 0x148A JUMP JUMPDEST SWAP2 POP POP SWAP3 SWAP2 POP POP JUMP JUMPDEST PUSH0 DUP1 PUSH1 0x40 DUP4 DUP6 SUB SLT ISZERO PUSH2 0x157C JUMPI PUSH2 0x157B PUSH2 0x1331 JUMP JUMPDEST JUMPDEST PUSH0 PUSH2 0x1589 DUP6 DUP3 DUP7 ADD PUSH2 0x1476 JUMP JUMPDEST SWAP3 POP POP PUSH1 0x20 PUSH2 0x159A DUP6 DUP3 DUP7 ADD PUSH2 0x140B JUMP JUMPDEST SWAP2 POP POP SWAP3 POP SWAP3 SWAP1 POP JUMP JUMPDEST PUSH2 0x15AD DUP2 PUSH2 0x13E4 JUMP JUMPDEST DUP3 MSTORE POP POP JUMP JUMPDEST PUSH0 PUSH1 0x20 DUP3 ADD SWAP1 POP PUSH2 0x15C6 PUSH0 DUP4 ADD DUP5 PUSH2 0x15A4 JUMP JUMPDEST SWAP3 SWAP2 POP POP JUMP JUMPDEST PUSH0 DUP2 SWAP1 POP SWAP2 SWAP1 POP JUMP JUMPDEST PUSH0 PUSH2 0x15EF PUSH2 0x15EA PUSH2 0x15E5 DUP5 PUSH2 0x13C5 JUMP JUMPDEST PUSH2 0x15CC JUMP JUMPDEST PUSH2 0x13C5 JUMP JUMPDEST SWAP1 POP SWAP2 SWAP1 POP JUMP JUMPDEST PUSH0 PUSH2 0x1600 DUP3 PUSH2 0x15D5 JUMP JUMPDEST SWAP1 POP SWAP2 SWAP1 POP JUMP JUMPDEST PUSH0 PUSH2 0x1611 DUP3 PUSH2 0x15F6 JUMP JUMPDEST SWAP1 POP SWAP2 SWAP1 POP JUMP JUMPDEST PUSH2 0x1621 DUP2 PUSH2 0x1607 JUMP JUMPDEST DUP3 MSTORE POP POP JUMP JUMPDEST PUSH0 PUSH1 0x20 DUP3 ADD SWAP1 POP PUSH2 0x163A PUSH0 DUP4 ADD DUP5 PUSH2 0x1618 JUMP JUMPDEST SWAP3 SWAP2 POP POP JUMP JUMPDEST PUSH0 DUP1 PUSH0 PUSH1 0x60 DUP5 DUP7 SUB SLT ISZERO PUSH2 0x1657 JUMPI PUSH2 0x1656 PUSH2 0x1331 JUMP JUMPDEST JUMPDEST PUSH0 PUSH2 0x1664 DUP7 DUP3 DUP8 ADD PUSH2 0x140B JUMP JUMPDEST SWAP4 POP POP PUSH1 0x20 PUSH2 0x1675 DUP7 DUP3 DUP8 ADD PUSH2 0x1476 JUMP JUMPDEST SWAP3 POP POP PUSH1 0x40 PUSH2 0x1686 DUP7 DUP3 DUP8 ADD PUSH2 0x140B JUMP JUMPDEST SWAP2 POP POP SWAP3 POP SWAP3 POP SWAP3 JUMP JUMPDEST PUSH0 DUP1 REVERT JUMPDEST PUSH0 DUP1 REVERT JUMPDEST PUSH0 DUP1 REVERT JUMPDEST PUSH0 DUP1 DUP4 PUSH1 0x1F DUP5 ADD SLT PUSH2 0x16B1 JUMPI PUSH2 0x16B0 PUSH2 0x1690 JUMP JUMPDEST JUMPDEST DUP3 CALLDATALOAD SWAP1 POP PUSH8 0xFFFFFFFFFFFFFFFF DUP2 GT ISZERO PUSH2 0x16CE JUMPI PUSH2 0x16CD PUSH2 0x1694 JUMP JUMPDEST JUMPDEST PUSH1 0x20 DUP4 ADD SWAP2 POP DUP4 PUSH1 0x1 DUP3 MUL DUP4 ADD GT ISZERO PUSH2 0x16EA JUMPI PUSH2 0x16E9 PUSH2 0x1698 JUMP JUMPDEST JUMPDEST SWAP3 POP SWAP3 SWAP1 POP JUMP JUMPDEST PUSH0 DUP1 PUSH0 DUP1 PUSH1 0x60 DUP6 DUP8 SUB SLT ISZERO PUSH2 0x1709 JUMPI PUSH2 0x1708 PUSH2 0x1331 JUMP JUMPDEST JUMPDEST PUSH0 PUSH2 0x1716 DUP8 DUP3 DUP9 ADD PUSH2 0x1476 JUMP JUMPDEST SWAP5 POP POP PUSH1 0x20 PUSH2 0x1727 DUP8 DUP3 DUP9 ADD PUSH2 0x1476 JUMP JUMPDEST SWAP4 POP POP PUSH1 0x40 DUP6 ADD CALLDATALOAD PUSH8 0xFFFFFFFFFFFFFFFF DUP2 GT ISZERO PUSH2 0x1748 JUMPI PUSH2 0x1747 PUSH2 0x1335 JUMP JUMPDEST JUMPDEST PUSH2 0x1754 DUP8 DUP3 DUP9 ADD PUSH2 0x169C JUMP JUMPDEST SWAP3 POP SWAP3 POP POP SWAP3 SWAP6 SWAP2 SWAP5 POP SWAP3 POP JUMP JUMPDEST PUSH2 0x176B DUP2 PUSH2 0x1457 JUMP JUMPDEST DUP3 MSTORE POP POP JUMP JUMPDEST PUSH2 0x177A DUP2 PUSH2 0x13E4 JUMP JUMPDEST DUP3 MSTORE POP POP JUMP JUMPDEST PUSH2 0x1789 DUP2 PUSH2 0x141F JUMP JUMPDEST DUP3 MSTORE POP POP JUMP JUMPDEST PUSH1 0x60 DUP3 ADD PUSH0 DUP3 ADD MLOAD PUSH2 0x17A3 PUSH0 DUP6 ADD DUP3 PUSH2 0x1771 JUMP JUMPDEST POP PUSH1 0x20 DUP3 ADD MLOAD PUSH2 0x17B6 PUSH1 0x20 DUP6 ADD DUP3 PUSH2 0x1771 JUMP JUMPDEST POP PUSH1 0x40 DUP3 ADD MLOAD PUSH2 0x17C9 PUSH1 0x40 DUP6 ADD DUP3 PUSH2 0x1780 JUMP JUMPDEST POP POP POP POP JUMP JUMPDEST PUSH2 0x100 DUP3 ADD PUSH0 DUP3 ADD MLOAD PUSH2 0x17E4 PUSH0 DUP6 ADD DUP3 PUSH2 0x1762 JUMP JUMPDEST POP PUSH1 0x20 DUP3 ADD MLOAD PUSH2 0x17F7 PUSH1 0x20 DUP6 ADD DUP3 PUSH2 0x1762 JUMP JUMPDEST POP PUSH1 0x40 DUP3 ADD MLOAD PUSH2 0x180A PUSH1 0x40 DUP6 ADD DUP3 PUSH2 0x1771 JUMP JUMPDEST POP PUSH1 0x60 DUP3 ADD MLOAD PUSH2 0x181D PUSH1 0x60 DUP6 ADD DUP3 PUSH2 0x178F JUMP JUMPDEST POP PUSH1 0x80 DUP3 ADD MLOAD PUSH2 0x1830 PUSH1 0xC0 DUP6 ADD DUP3 PUSH2 0x1780 JUMP JUMPDEST POP PUSH1 0xA0 DUP3 ADD MLOAD PUSH2 0x1843 PUSH1 0xE0 DUP6 ADD DUP3 PUSH2 0x1780 JUMP JUMPDEST POP POP POP POP JUMP JUMPDEST PUSH0 PUSH2 0x100 DUP3 ADD SWAP1 POP PUSH2 0x185D PUSH0 DUP4 ADD DUP5 PUSH2 0x17CF JUMP JUMPDEST SWAP3 SWAP2 POP POP JUMP JUMPDEST PUSH2 0x186C DUP2 PUSH2 0x1457 JUMP JUMPDEST DUP3 MSTORE POP POP JUMP JUMPDEST PUSH0 DUP2 MLOAD SWAP1 POP SWAP2 SWAP1 POP JUMP JUMPDEST PUSH0 DUP3 DUP3 MSTORE PUSH1 0x20 DUP3 ADD SWAP1 POP SWAP3 SWAP2 POP POP JUMP JUMPDEST PUSH0 JUMPDEST DUP4 DUP2 LT ISZERO PUSH2 0x18A9 JUMPI DUP1 DUP3 ADD MLOAD DUP2 DUP5 ADD MSTORE PUSH1 0x20 DUP2 ADD SWAP1 POP PUSH2 0x188E JUMP JUMPDEST PUSH0 DUP5 DUP5 ADD MSTORE POP POP POP POP JUMP JUMPDEST PUSH0 PUSH2 0x18BE DUP3 PUSH2 0x1872 JUMP JUMPDEST PUSH2 0x18C8 DUP2 DUP6 PUSH2 0x187C JUMP JUMPDEST SWAP4 POP PUSH2 0x18D8 DUP2 DUP6 PUSH1 0x20 DUP7 ADD PUSH2 0x188C JUMP JUMPDEST PUSH2 0x18E1 DUP2 PUSH2 0x133D JUMP JUMPDEST DUP5 ADD SWAP2 POP POP SWAP3 SWAP2 POP POP JUMP JUMPDEST PUSH0 PUSH1 0x80 DUP3 ADD SWAP1 POP PUSH2 0x18FF PUSH0 DUP4 ADD DUP8 PUSH2 0x15A4 JUMP JUMPDEST PUSH2 0x190C PUSH1 0x20 DUP4 ADD DUP7 PUSH2 0x1863 JUMP JUMPDEST PUSH2 0x1919 PUSH1 0x40 DUP4 ADD DUP6 PUSH2 0x1863 JUMP JUMPDEST DUP2 DUP2 SUB PUSH1 0x60 DUP4 ADD MSTORE PUSH2 0x192B DUP2 DUP5 PUSH2 0x18B4 JUMP JUMPDEST SWAP1 POP SWAP6 SWAP5 POP POP POP POP POP JUMP JUMPDEST PUSH0 DUP2 MLOAD SWAP1 POP PUSH2 0x1944 DUP2 PUSH2 0x1460 JUMP JUMPDEST SWAP3 SWAP2 POP POP JUMP JUMPDEST PUSH0 PUSH1 0x20 DUP3 DUP5 SUB SLT ISZERO PUSH2 0x195F JUMPI PUSH2 0x195E PUSH2 0x1331 JUMP JUMPDEST JUMPDEST PUSH0 PUSH2 0x196C DUP5 DUP3 DUP6 ADD PUSH2 0x1936 JUMP JUMPDEST SWAP2 POP POP SWAP3 SWAP2 POP POP JUMP JUMPDEST PUSH32 0x496E73756666696369656E742057455448390000000000000000000000000000 PUSH0 DUP3 ADD MSTORE POP JUMP JUMPDEST PUSH0 PUSH2 0x19A9 PUSH1 0x12 DUP4 PUSH2 0x12B0 JUMP JUMPDEST SWAP2 POP PUSH2 0x19B4 DUP3 PUSH2 0x1975 JUMP JUMPDEST PUSH1 0x20 DUP3 ADD SWAP1 POP SWAP2 SWAP1 POP JUMP JUMPDEST PUSH0 PUSH1 0x20 DUP3 ADD SWAP1 POP DUP2 DUP2 SUB PUSH0 DUP4 ADD MSTORE PUSH2 0x19D6 DUP2 PUSH2 0x199D JUMP JUMPDEST SWAP1 POP SWAP2 SWAP1 POP JUMP JUMPDEST PUSH0 PUSH1 0x20 DUP3 ADD SWAP1 POP PUSH2 0x19F0 PUSH0 DUP4 ADD DUP5 PUSH2 0x1863 JUMP JUMPDEST SWAP3 SWAP2 POP POP JUMP JUMPDEST PUSH32 0x496E73756666696369656E7420746F6B656E0000000000000000000000000000 PUSH0 DUP3 ADD MSTORE POP JUMP JUMPDEST PUSH0 PUSH2 0x1A2A PUSH1 0x12 DUP4 PUSH2 0x12B0 JUMP JUMPDEST SWAP2 POP PUSH2 0x1A35 DUP3 PUSH2 0x19F6 JUMP JUMPDEST PUSH1 0x20 DUP3 ADD SWAP1 POP SWAP2 SWAP1 POP JUMP JUMPDEST PUSH0 PUSH1 0x20 DUP3 ADD SWAP1 POP DUP2 DUP2 SUB PUSH0 DUP4 ADD MSTORE PUSH2 0x1A57 DUP2 PUSH2 0x1A1E JUMP JUMPDEST SWAP1 POP SWAP2 SWAP1 POP JUMP JUMPDEST PUSH0 PUSH1 0x60 DUP3 DUP5 SUB SLT ISZERO PUSH2 0x1A73 JUMPI PUSH2 0x1A72 PUSH2 0x1339 JUMP JUMPDEST JUMPDEST PUSH2 0x1A7D PUSH1 0x60 PUSH2 0x13AB JUMP JUMPDEST SWAP1 POP PUSH0 PUSH2 0x1A8C DUP5 DUP3 DUP6 ADD PUSH2 0x140B JUMP JUMPDEST PUSH0 DUP4 ADD MSTORE POP PUSH1 0x20 PUSH2 0x1A9F DUP5 DUP3 DUP6 ADD PUSH2 0x140B JUMP JUMPDEST PUSH1 0x20 DUP4 ADD MSTORE POP PUSH1 0x40 PUSH2 0x1AB3 DUP5 DUP3 DUP6 ADD PUSH2 0x1443 JUMP JUMPDEST PUSH1 0x40 DUP4 ADD MSTORE POP SWAP3 SWAP2 POP POP JUMP JUMPDEST PUSH0 PUSH2 0x100 DUP3 DUP5 SUB SLT ISZERO PUSH2 0x1AD5 JUMPI PUSH2 0x1AD4 PUSH2 0x1339 JUMP JUMPDEST JUMPDEST PUSH2 0x1ADF PUSH1 0xC0 PUSH2 0x13AB JUMP JUMPDEST SWAP1 POP PUSH0 PUSH2 0x1AEE DUP5 DUP3 DUP6 ADD PUSH2 0x1476 JUMP JUMPDEST PUSH0 DUP4 ADD MSTORE POP PUSH1 0x20 PUSH2 0x1B01 DUP5 DUP3 DUP6 ADD PUSH2 0x1476 JUMP JUMPDEST PUSH1 0x20 DUP4 ADD MSTORE POP PUSH1 0x40 PUSH2 0x1B15 DUP5 DUP3 DUP6 ADD PUSH2 0x140B JUMP JUMPDEST PUSH1 0x40 DUP4 ADD MSTORE POP PUSH1 0x60 PUSH2 0x1B29 DUP5 DUP3 DUP6 ADD PUSH2 0x1A5E JUMP JUMPDEST PUSH1 0x60 DUP4 ADD MSTORE POP PUSH1 0xC0 PUSH2 0x1B3D DUP5 DUP3 DUP6 ADD PUSH2 0x1443 JUMP JUMPDEST PUSH1 0x80 DUP4 ADD MSTORE POP PUSH1 0xE0 PUSH2 0x1B51 DUP5 DUP3 DUP6 ADD PUSH2 0x1443 JUMP JUMPDEST PUSH1 0xA0 DUP4 ADD MSTORE POP SWAP3 SWAP2 POP POP JUMP JUMPDEST PUSH0 PUSH2 0x100 DUP3 DUP5 SUB SLT ISZERO PUSH2 0x1B73 JUMPI PUSH2 0x1B72 PUSH2 0x1331 JUMP JUMPDEST JUMPDEST PUSH0 PUSH2 0x1B80 DUP5 DUP3 DUP6 ADD PUSH2 0x1ABF JUMP JUMPDEST SWAP2 POP POP SWAP3 SWAP2 POP POP JUMP JUMPDEST PUSH2 0x1B92 DUP2 PUSH2 0x13C5 JUMP JUMPDEST DUP3 MSTORE POP POP JUMP JUMPDEST PUSH2 0x100 DUP3 ADD PUSH0 DUP3 ADD MLOAD PUSH2 0x1BAD PUSH0 DUP6 ADD DUP3 PUSH2 0x1771 JUMP JUMPDEST POP PUSH1 0x20 DUP3 ADD MLOAD PUSH2 0x1BC0 PUSH1 0x20 DUP6 ADD DUP3 PUSH2 0x1771 JUMP JUMPDEST POP PUSH1 0x40 DUP3 ADD MLOAD PUSH2 0x1BD3 PUSH1 0x40 DUP6 ADD DUP3 PUSH2 0x1780 JUMP JUMPDEST POP PUSH1 0x60 DUP3 ADD MLOAD PUSH2 0x1BE6 PUSH1 0x60 DUP6 ADD DUP3 PUSH2 0x1771 JUMP JUMPDEST POP PUSH1 0x80 DUP3 ADD MLOAD PUSH2 0x1BF9 PUSH1 0x80 DUP6 ADD DUP3 PUSH2 0x1762 JUMP JUMPDEST POP PUSH1 0xA0 DUP3 ADD MLOAD PUSH2 0x1C0C PUSH1 0xA0 DUP6 ADD DUP3 PUSH2 0x1762 JUMP JUMPDEST POP PUSH1 0xC0 DUP3 ADD MLOAD PUSH2 0x1C1F PUSH1 0xC0 DUP6 ADD DUP3 PUSH2 0x1762 JUMP JUMPDEST POP PUSH1 0xE0 DUP3 ADD MLOAD PUSH2 0x1C32 PUSH1 0xE0 DUP6 ADD DUP3 PUSH2 0x1B89 JUMP JUMPDEST POP POP POP POP JUMP JUMPDEST PUSH0 PUSH2 0x100 DUP3 ADD SWAP1 POP PUSH2 0x1C4C PUSH0 DUP4 ADD DUP5 PUSH2 0x1B98 JUMP JUMPDEST SWAP3 SWAP2 POP POP JUMP JUMPDEST PUSH0 DUP2 SWAP1 POP SWAP3 SWAP2 POP POP JUMP JUMPDEST PUSH0 PUSH2 0x1C66 DUP3 PUSH2 0x1872 JUMP JUMPDEST PUSH2 0x1C70 DUP2 DUP6 PUSH2 0x1C52 JUMP JUMPDEST SWAP4 POP PUSH2 0x1C80 DUP2 DUP6 PUSH1 0x20 DUP7 ADD PUSH2 0x188C JUMP JUMPDEST DUP1 DUP5 ADD SWAP2 POP POP SWAP3 SWAP2 POP POP JUMP JUMPDEST PUSH0 PUSH2 0x1C97 DUP3 DUP5 PUSH2 0x1C5C JUMP JUMPDEST SWAP2 POP DUP2 SWAP1 POP SWAP3 SWAP2 POP POP JUMP JUMPDEST PUSH32 0x5354450000000000000000000000000000000000000000000000000000000000 PUSH0 DUP3 ADD MSTORE POP JUMP JUMPDEST PUSH0 PUSH2 0x1CD6 PUSH1 0x3 DUP4 PUSH2 0x12B0 JUMP JUMPDEST SWAP2 POP PUSH2 0x1CE1 DUP3 PUSH2 0x1CA2 JUMP JUMPDEST PUSH1 0x20 DUP3 ADD SWAP1 POP SWAP2 SWAP1 POP JUMP JUMPDEST PUSH0 PUSH1 0x20 DUP3 ADD SWAP1 POP DUP2 DUP2 SUB PUSH0 DUP4 ADD MSTORE PUSH2 0x1D03 DUP2 PUSH2 0x1CCA JUMP JUMPDEST SWAP1 POP SWAP2 SWAP1 POP JUMP JUMPDEST PUSH2 0x1D13 DUP2 PUSH2 0x141F JUMP JUMPDEST DUP3 MSTORE POP POP JUMP JUMPDEST PUSH0 PUSH1 0x60 DUP3 ADD SWAP1 POP PUSH2 0x1D2C PUSH0 DUP4 ADD DUP7 PUSH2 0x15A4 JUMP JUMPDEST PUSH2 0x1D39 PUSH1 0x20 DUP4 ADD DUP6 PUSH2 0x15A4 JUMP JUMPDEST PUSH2 0x1D46 PUSH1 0x40 DUP4 ADD DUP5 PUSH2 0x1D0A JUMP JUMPDEST SWAP5 SWAP4 POP POP POP POP JUMP JUMPDEST PUSH0 DUP2 SWAP1 POP SWAP3 SWAP2 POP POP JUMP JUMPDEST PUSH32 0xFF00000000000000000000000000000000000000000000000000000000000000 PUSH0 DUP3 ADD MSTORE POP JUMP JUMPDEST PUSH0 PUSH2 0x1D8C PUSH1 0x1 DUP4 PUSH2 0x1D4E JUMP JUMPDEST SWAP2 POP PUSH2 0x1D97 DUP3 PUSH2 0x1D58 JUMP JUMPDEST PUSH1 0x1 DUP3 ADD SWAP1 POP SWAP2 SWAP1 POP JUMP JUMPDEST PUSH0 DUP2 PUSH1 0x60 SHL SWAP1 POP SWAP2 SWAP1 POP JUMP JUMPDEST PUSH0 PUSH2 0x1DB8 DUP3 PUSH2 0x1DA2 JUMP JUMPDEST SWAP1 POP SWAP2 SWAP1 POP JUMP JUMPDEST PUSH0 PUSH2 0x1DC9 DUP3 PUSH2 0x1DAE JUMP JUMPDEST SWAP1 POP SWAP2 SWAP1 POP JUMP JUMPDEST PUSH2 0x1DE1 PUSH2 0x1DDC DUP3 PUSH2 0x13E4 JUMP JUMPDEST PUSH2 0x1DBF JUMP JUMPDEST DUP3 MSTORE POP POP JUMP JUMPDEST PUSH0 DUP2 SWAP1 POP SWAP2 SWAP1 POP JUMP JUMPDEST PUSH0 DUP2 SWAP1 POP SWAP2 SWAP1 POP JUMP JUMPDEST PUSH2 0x1E0A PUSH2 0x1E05 DUP3 PUSH2 0x1DE7 JUMP JUMPDEST PUSH2 0x1DF0 JUMP JUMPDEST DUP3 MSTORE POP POP JUMP JUMPDEST PUSH0 PUSH2 0x1E1A DUP3 PUSH2 0x1D80 JUMP JUMPDEST SWAP2 POP PUSH2 0x1E26 DUP3 DUP7 PUSH2 0x1DD0 JUMP JUMPDEST PUSH1 0x14 DUP3 ADD SWAP2 POP PUSH2 0x1E36 DUP3 DUP6 PUSH2 0x1DF9 JUMP JUMPDEST PUSH1 0x20 DUP3 ADD SWAP2 POP PUSH2 0x1E46 DUP3 DUP5 PUSH2 0x1DF9 JUMP JUMPDEST PUSH1 0x20 DUP3 ADD SWAP2 POP DUP2 SWAP1 POP SWAP5 SWAP4 POP POP POP POP JUMP JUMPDEST PUSH0 PUSH1 0x40 DUP3 ADD SWAP1 POP PUSH2 0x1E6A PUSH0 DUP4 ADD DUP6 PUSH2 0x15A4 JUMP JUMPDEST PUSH2 0x1E77 PUSH1 0x20 DUP4 ADD DUP5 PUSH2 0x1863 JUMP JUMPDEST SWAP4 SWAP3 POP POP POP JUMP JUMPDEST PUSH0 DUP2 ISZERO ISZERO SWAP1 POP SWAP2 SWAP1 POP JUMP JUMPDEST PUSH2 0x1E92 DUP2 PUSH2 0x1E7E JUMP JUMPDEST DUP2 EQ PUSH2 0x1E9C JUMPI PUSH0 DUP1 REVERT JUMPDEST POP JUMP JUMPDEST PUSH0 DUP2 MLOAD SWAP1 POP PUSH2 0x1EAD DUP2 PUSH2 0x1E89 JUMP JUMPDEST SWAP3 SWAP2 POP POP JUMP JUMPDEST PUSH0 PUSH1 0x20 DUP3 DUP5 SUB SLT ISZERO PUSH2 0x1EC8 JUMPI PUSH2 0x1EC7 PUSH2 0x1331 JUMP JUMPDEST JUMPDEST PUSH0 PUSH2 0x1ED5 DUP5 DUP3 DUP6 ADD PUSH2 0x1E9F JUMP JUMPDEST SWAP2 POP POP SWAP3 SWAP2 POP POP JUMP JUMPDEST PUSH32 0x5354000000000000000000000000000000000000000000000000000000000000 PUSH0 DUP3 ADD MSTORE POP JUMP JUMPDEST PUSH0 PUSH2 0x1F12 PUSH1 0x2 DUP4 PUSH2 0x12B0 JUMP JUMPDEST SWAP2 POP PUSH2 0x1F1D DUP3 PUSH2 0x1EDE JUMP JUMPDEST PUSH1 0x20 DUP3 ADD SWAP1 POP SWAP2 SWAP1 POP JUMP JUMPDEST PUSH0 PUSH1 0x20 DUP3 ADD SWAP1 POP DUP2 DUP2 SUB PUSH0 DUP4 ADD MSTORE PUSH2 0x1F3F DUP2 PUSH2 0x1F06 JUMP JUMPDEST SWAP1 POP SWAP2 SWAP1 POP JUMP JUMPDEST PUSH32 0x5341000000000000000000000000000000000000000000000000000000000000 PUSH0 DUP3 ADD MSTORE POP JUMP JUMPDEST PUSH0 PUSH2 0x1F7A PUSH1 0x2 DUP4 PUSH2 0x12B0 JUMP JUMPDEST SWAP2 POP PUSH2 0x1F85 DUP3 PUSH2 0x1F46 JUMP JUMPDEST PUSH1 0x20 DUP3 ADD SWAP1 POP SWAP2 SWAP1 POP JUMP JUMPDEST PUSH0 PUSH1 0x20 DUP3 ADD SWAP1 POP DUP2 DUP2 SUB PUSH0 DUP4 ADD MSTORE PUSH2 0x1FA7 DUP2 PUSH2 0x1F6E JUMP JUMPDEST SWAP1 POP SWAP2 SWAP1 POP JUMP JUMPDEST PUSH32 0x4E487B7100000000000000000000000000000000000000000000000000000000 PUSH0 MSTORE PUSH1 0x11 PUSH1 0x4 MSTORE PUSH1 0x24 PUSH0 REVERT JUMPDEST PUSH0 PUSH2 0x1FE5 DUP3 PUSH2 0x1457 JUMP JUMPDEST SWAP2 POP PUSH2 0x1FF0 DUP4 PUSH2 0x1457 JUMP JUMPDEST SWAP3 POP DUP3 DUP3 ADD SWAP1 POP DUP1 DUP3 GT ISZERO PUSH2 0x2008 JUMPI PUSH2 0x2007 PUSH2 0x1FAE JUMP JUMPDEST JUMPDEST SWAP3 SWAP2 POP POP JUMP JUMPDEST PUSH0 PUSH2 0x2018 DUP3 PUSH2 0x1457 JUMP JUMPDEST SWAP2 POP PUSH2 0x2023 DUP4 PUSH2 0x1457 JUMP JUMPDEST SWAP3 POP DUP3 DUP3 SUB SWAP1 POP DUP2 DUP2 GT ISZERO PUSH2 0x203B JUMPI PUSH2 0x203A PUSH2 0x1FAE JUMP JUMPDEST JUMPDEST SWAP3 SWAP2 POP POP JUMP JUMPDEST PUSH0 PUSH1 0x60 DUP3 ADD SWAP1 POP PUSH2 0x2054 PUSH0 DUP4 ADD DUP7 PUSH2 0x15A4 JUMP JUMPDEST PUSH2 0x2061 PUSH1 0x20 DUP4 ADD DUP6 PUSH2 0x15A4 JUMP JUMPDEST PUSH2 0x206E PUSH1 0x40 DUP4 ADD DUP5 PUSH2 0x1863 JUMP JUMPDEST SWAP5 SWAP4 POP POP POP POP JUMP JUMPDEST PUSH32 0x5354460000000000000000000000000000000000000000000000000000000000 PUSH0 DUP3 ADD MSTORE POP JUMP JUMPDEST PUSH0 PUSH2 0x20AA PUSH1 0x3 DUP4 PUSH2 0x12B0 JUMP JUMPDEST SWAP2 POP PUSH2 0x20B5 DUP3 PUSH2 0x2076 JUMP JUMPDEST PUSH1 0x20 DUP3 ADD SWAP1 POP SWAP2 SWAP1 POP JUMP JUMPDEST PUSH0 PUSH1 0x20 DUP3 ADD SWAP1 POP DUP2 DUP2 SUB PUSH0 DUP4 ADD MSTORE PUSH2 0x20D7 DUP2 PUSH2 0x209E JUMP JUMPDEST SWAP1 POP SWAP2 SWAP1 POP JUMP INVALID LOG2 PUSH5 0x6970667358 0x22 SLT KECCAK256 0xC7 0xCE XOR PUSH30 0x1F04B1E8F5719844D3F5B1930AFC963C9D59F495A4F35A92B35082F26473 PUSH16 0x6C634300081400330000000000000000 "
				},
				"gasEstimates": {
					"creation": {
						"codeDepositCost": "1693600",
						"executionCost": "infinite",
						"totalCost": "infinite"
					},
					"external": {
						"WETH9()": "infinite",
						"factory()": "infinite",
						"initFlash((address,address,uint24,uint256,uint256,uint24,uint24))": "infinite",
						"refundETH()": "infinite",
						"swapRouter()": "infinite",
						"sweepToken(address,uint256,address)": "infinite",
						"uniswapV3FlashCallback(uint256,uint256,bytes)": "infinite",
						"unwrapWETH9(uint256,address)": "infinite"
					}
				},
				"methodIdentifiers": {
					"WETH9()": "4aa4a4fc",
					"factory()": "c45a0155",
					"initFlash((address,address,uint24,uint256,uint256,uint24,uint24))": "2384463b",
					"refundETH()": "12210e8a",
					"swapRouter()": "c31c9c07",
					"sweepToken(address,uint256,address)": "df2ab5bb",
					"uniswapV3FlashCallback(uint256,uint256,bytes)": "e9cbafb0",
					"unwrapWETH9(uint256,address)": "49404b7c"
				}
			},
			"storageLayout": {
				"storage": [],
				"types": null
			},
			"userdoc": {
				"kind": "user",
				"methods": {
					"initFlash((address,address,uint24,uint256,uint256,uint24,uint24))": {
						"notice": "Calls the pools flash function with data needed in `uniswapV3FlashCallback`"
					},
					"refundETH()": {
						"notice": "Refunds any ETH balance held by this contract to the `msg.sender`"
					},
					"sweepToken(address,uint256,address)": {
						"notice": "Transfers the full amount of a token held by this contract to recipient"
					},
					"uniswapV3FlashCallback(uint256,uint256,bytes)": {
						"notice": "implements the callback called from flash"
					},
					"unwrapWETH9(uint256,address)": {
						"notice": "Unwraps the contract's WETH9 balance and sends it to recipient as ETH."
					}
				},
				"notice": "An example contract using the Uniswap V3 flash function",
				"version": 1
			}
		}
	}
}