{
	"contracts/ArbCalc.sol": {
		"ArbitrageCalculator": {
			"abi": [
				{
					"inputs": [
						{
							"internalType": "address",
							"name": "lowerPool",
							"type": "address"
						},
						{
							"internalType": "address",
							"name": "higherPool",
							"type": "address"
						}
					],
					"name": "getBorrowAmountV2",
					"outputs": [
						{
							"internalType": "uint256",
							"name": "amount",
							"type": "uint256"
						}
					],
					"stateMutability": "view",
					"type": "function"
				},
				{
					"inputs": [
						{
							"internalType": "address",
							"name": "lowerPool",
							"type": "address"
						},
						{
							"internalType": "address",
							"name": "higherPool",
							"type": "address"
						}
					],
					"name": "getBorrowAmountV3",
					"outputs": [
						{
							"internalType": "uint256",
							"name": "amount",
							"type": "uint256"
						}
					],
					"stateMutability": "view",
					"type": "function"
				},
				{
					"inputs": [
						{
							"internalType": "address",
							"name": "poolAddress",
							"type": "address"
						}
					],
					"name": "getLiquidityAndPrice",
					"outputs": [
						{
							"internalType": "uint256",
							"name": "_liquidity",
							"type": "uint256"
						},
						{
							"internalType": "uint256",
							"name": "_priceX96",
							"type": "uint256"
						}
					],
					"stateMutability": "view",
					"type": "function"
				},
				{
					"inputs": [
						{
							"internalType": "address",
							"name": "lowPoolAddress",
							"type": "address"
						},
						{
							"internalType": "address",
							"name": "highPoolAddress",
							"type": "address"
						}
					],
					"name": "getMaxProfitableAmount",
					"outputs": [
						{
							"internalType": "uint256",
							"name": "_mpa",
							"type": "uint256"
						}
					],
					"stateMutability": "view",
					"type": "function"
				},
				{
					"inputs": [
						{
							"internalType": "address",
							"name": "poolHigh",
							"type": "address"
						},
						{
							"internalType": "address",
							"name": "poolLow",
							"type": "address"
						}
					],
					"name": "getPriceRatio",
					"outputs": [
						{
							"internalType": "uint256",
							"name": "rel",
							"type": "uint256"
						}
					],
					"stateMutability": "view",
					"type": "function"
				},
				{
					"inputs": [
						{
							"internalType": "address",
							"name": "poolA",
							"type": "address"
						},
						{
							"internalType": "address",
							"name": "poolB",
							"type": "address"
						}
					],
					"name": "getRelativeLiquidity",
					"outputs": [
						{
							"internalType": "uint256",
							"name": "_rel",
							"type": "uint256"
						}
					],
					"stateMutability": "view",
					"type": "function"
				},
				{
					"inputs": [
						{
							"internalType": "address",
							"name": "pair",
							"type": "address"
						}
					],
					"name": "getReservesV2",
					"outputs": [
						{
							"internalType": "uint256",
							"name": "reserve0",
							"type": "uint256"
						},
						{
							"internalType": "uint256",
							"name": "reserve1",
							"type": "uint256"
						}
					],
					"stateMutability": "view",
					"type": "function"
				},
				{
					"inputs": [
						{
							"internalType": "address",
							"name": "pair",
							"type": "address"
						}
					],
					"name": "getReservesV3",
					"outputs": [
						{
							"internalType": "uint256",
							"name": "reserve0",
							"type": "uint256"
						},
						{
							"internalType": "uint256",
							"name": "reserve1",
							"type": "uint256"
						}
					],
					"stateMutability": "view",
					"type": "function"
				},
				{
					"inputs": [
						{
							"internalType": "address",
							"name": "pair",
							"type": "address"
						}
					],
					"name": "reserves0",
					"outputs": [
						{
							"internalType": "uint256",
							"name": "reserve",
							"type": "uint256"
						}
					],
					"stateMutability": "view",
					"type": "function"
				},
				{
					"inputs": [
						{
							"internalType": "address",
							"name": "pair",
							"type": "address"
						}
					],
					"name": "reserves1",
					"outputs": [
						{
							"internalType": "uint256",
							"name": "reserve",
							"type": "uint256"
						}
					],
					"stateMutability": "view",
					"type": "function"
				}
			],
			"devdoc": {
				"kind": "dev",
				"methods": {},
				"version": 1
			},
			"evm": {
				"assembly": "    /* \"contracts/ArbCalc.sol\":304:4413  contract ArbitrageCalculator is Reserves {... */\n  mstore(0x40, 0x80)\n  callvalue\n  dup1\n  iszero\n  tag_1\n  jumpi\n  0x00\n  dup1\n  revert\ntag_1:\n  pop\n  dataSize(sub_0)\n  dup1\n  dataOffset(sub_0)\n  0x00\n  codecopy\n  0x00\n  return\nstop\n\nsub_0: assembly {\n        /* \"contracts/ArbCalc.sol\":304:4413  contract ArbitrageCalculator is Reserves {... */\n      mstore(0x40, 0x80)\n      callvalue\n      dup1\n      iszero\n      tag_1\n      jumpi\n      0x00\n      dup1\n      revert\n    tag_1:\n      pop\n      jumpi(tag_2, lt(calldatasize, 0x04))\n      shr(0xe0, calldataload(0x00))\n      dup1\n      0x7232688e\n      gt\n      tag_13\n      jumpi\n      dup1\n      0x7232688e\n      eq\n      tag_8\n      jumpi\n      dup1\n      0x7d9ada3e\n      eq\n      tag_9\n      jumpi\n      dup1\n      0x9872971a\n      eq\n      tag_10\n      jumpi\n      dup1\n      0xb49bbce5\n      eq\n      tag_11\n      jumpi\n      dup1\n      0xec0a63d8\n      eq\n      tag_12\n      jumpi\n      jump(tag_2)\n    tag_13:\n      dup1\n      0x0d83825b\n      eq\n      tag_3\n      jumpi\n      dup1\n      0x1e953b15\n      eq\n      tag_4\n      jumpi\n      dup1\n      0x1fdd03cb\n      eq\n      tag_5\n      jumpi\n      dup1\n      0x21fef881\n      eq\n      tag_6\n      jumpi\n      dup1\n      0x44401a24\n      eq\n      tag_7\n      jumpi\n    tag_2:\n      0x00\n      dup1\n      revert\n        /* \"contracts/ArbCalc.sol\":1459:1774  function getPriceRatio(address poolHigh, address poolLow) public view returns (uint256 rel)... */\n    tag_3:\n      tag_14\n      0x04\n      dup1\n      calldatasize\n      sub\n      dup2\n      add\n      swap1\n      tag_15\n      swap2\n      swap1\n      tag_16\n      jump\t// in\n    tag_15:\n      tag_17\n      jump\t// in\n    tag_14:\n      mload(0x40)\n      tag_18\n      swap2\n      swap1\n      tag_19\n      jump\t// in\n    tag_18:\n      mload(0x40)\n      dup1\n      swap2\n      sub\n      swap1\n      return\n        /* \"contracts/ArbCalc.sol\":392:669  function getLiquidityAndPrice(address poolAddress) public view returns (uint256 _liquidity, uint256 _priceX96)... */\n    tag_4:\n      tag_20\n      0x04\n      dup1\n      calldatasize\n      sub\n      dup2\n      add\n      swap1\n      tag_21\n      swap2\n      swap1\n      tag_22\n      jump\t// in\n    tag_21:\n      tag_23\n      jump\t// in\n    tag_20:\n      mload(0x40)\n      tag_24\n      swap3\n      swap2\n      swap1\n      tag_25\n      jump\t// in\n    tag_24:\n      mload(0x40)\n      dup1\n      swap2\n      sub\n      swap1\n      return\n        /* \"contracts/Reserves.sol\":342:569  function reserves0(address pair) external view returns ( uint256 reserve) {... */\n    tag_5:\n      tag_26\n      0x04\n      dup1\n      calldatasize\n      sub\n      dup2\n      add\n      swap1\n      tag_27\n      swap2\n      swap1\n      tag_22\n      jump\t// in\n    tag_27:\n      tag_28\n      jump\t// in\n    tag_26:\n      mload(0x40)\n      tag_29\n      swap2\n      swap1\n      tag_19\n      jump\t// in\n    tag_29:\n      mload(0x40)\n      dup1\n      swap2\n      sub\n      swap1\n      return\n        /* \"contracts/ArbCalc.sol\":677:1094  function getMaxProfitableAmount(address lowPoolAddress, address highPoolAddress) public view returns (uint256 _mpa)... */\n    tag_6:\n      tag_30\n      0x04\n      dup1\n      calldatasize\n      sub\n      dup2\n      add\n      swap1\n      tag_31\n      swap2\n      swap1\n      tag_16\n      jump\t// in\n    tag_31:\n      tag_32\n      jump\t// in\n    tag_30:\n      mload(0x40)\n      tag_33\n      swap2\n      swap1\n      tag_19\n      jump\t// in\n    tag_33:\n      mload(0x40)\n      dup1\n      swap2\n      sub\n      swap1\n      return\n        /* \"contracts/ArbCalc.sol\":2135:2474  function getBorrowAmountV3(address lowerPool, address higherPool) external view returns(uint256 amount){... */\n    tag_7:\n      tag_34\n      0x04\n      dup1\n      calldatasize\n      sub\n      dup2\n      add\n      swap1\n      tag_35\n      swap2\n      swap1\n      tag_16\n      jump\t// in\n    tag_35:\n      tag_36\n      jump\t// in\n    tag_34:\n      mload(0x40)\n      tag_37\n      swap2\n      swap1\n      tag_19\n      jump\t// in\n    tag_37:\n      mload(0x40)\n      dup1\n      swap2\n      sub\n      swap1\n      return\n        /* \"contracts/Reserves.sol\":816:1156  function getReservesV3(address pair) public view returns (uint256 reserve0, uint256 reserve1){... */\n    tag_8:\n      tag_38\n      0x04\n      dup1\n      calldatasize\n      sub\n      dup2\n      add\n      swap1\n      tag_39\n      swap2\n      swap1\n      tag_22\n      jump\t// in\n    tag_39:\n      tag_40\n      jump\t// in\n    tag_38:\n      mload(0x40)\n      tag_41\n      swap3\n      swap2\n      swap1\n      tag_25\n      jump\t// in\n    tag_41:\n      mload(0x40)\n      dup1\n      swap2\n      sub\n      swap1\n      return\n        /* \"contracts/ArbCalc.sol\":1788:2127  function getBorrowAmountV2(address lowerPool, address higherPool) external view returns(uint256 amount){... */\n    tag_9:\n      tag_42\n      0x04\n      dup1\n      calldatasize\n      sub\n      dup2\n      add\n      swap1\n      tag_43\n      swap2\n      swap1\n      tag_16\n      jump\t// in\n    tag_43:\n      tag_44\n      jump\t// in\n    tag_42:\n      mload(0x40)\n      tag_45\n      swap2\n      swap1\n      tag_19\n      jump\t// in\n    tag_45:\n      mload(0x40)\n      dup1\n      swap2\n      sub\n      swap1\n      return\n        /* \"contracts/ArbCalc.sol\":1102:1451  function getRelativeLiquidity(address poolA, address poolB) public view returns (uint256 _rel)... */\n    tag_10:\n      tag_46\n      0x04\n      dup1\n      calldatasize\n      sub\n      dup2\n      add\n      swap1\n      tag_47\n      swap2\n      swap1\n      tag_16\n      jump\t// in\n    tag_47:\n      tag_48\n      jump\t// in\n    tag_46:\n      mload(0x40)\n      tag_49\n      swap2\n      swap1\n      tag_19\n      jump\t// in\n    tag_49:\n      mload(0x40)\n      dup1\n      swap2\n      sub\n      swap1\n      return\n        /* \"contracts/Reserves.sol\":581:808  function reserves1(address pair) external view returns ( uint256 reserve) {... */\n    tag_11:\n      tag_50\n      0x04\n      dup1\n      calldatasize\n      sub\n      dup2\n      add\n      swap1\n      tag_51\n      swap2\n      swap1\n      tag_22\n      jump\t// in\n    tag_51:\n      tag_52\n      jump\t// in\n    tag_50:\n      mload(0x40)\n      tag_53\n      swap2\n      swap1\n      tag_19\n      jump\t// in\n    tag_53:\n      mload(0x40)\n      dup1\n      swap2\n      sub\n      swap1\n      return\n        /* \"contracts/Reserves.sol\":1164:1504  function getReservesV2(address pair) public view returns (uint256 reserve0, uint256 reserve1){... */\n    tag_12:\n      tag_54\n      0x04\n      dup1\n      calldatasize\n      sub\n      dup2\n      add\n      swap1\n      tag_55\n      swap2\n      swap1\n      tag_22\n      jump\t// in\n    tag_55:\n      tag_56\n      jump\t// in\n    tag_54:\n      mload(0x40)\n      tag_57\n      swap3\n      swap2\n      swap1\n      tag_25\n      jump\t// in\n    tag_57:\n      mload(0x40)\n      dup1\n      swap2\n      sub\n      swap1\n      return\n        /* \"contracts/ArbCalc.sol\":1459:1774  function getPriceRatio(address poolHigh, address poolLow) public view returns (uint256 rel)... */\n    tag_17:\n        /* \"contracts/ArbCalc.sol\":1538:1549  uint256 rel */\n      0x00\n        /* \"contracts/ArbCalc.sol\":1569:1586  uint256 highQuote */\n      dup1\n        /* \"contracts/ArbCalc.sol\":1590:1620  getLiquidityAndPrice(poolHigh) */\n      tag_59\n        /* \"contracts/ArbCalc.sol\":1611:1619  poolHigh */\n      dup5\n        /* \"contracts/ArbCalc.sol\":1590:1610  getLiquidityAndPrice */\n      tag_23\n        /* \"contracts/ArbCalc.sol\":1590:1620  getLiquidityAndPrice(poolHigh) */\n      jump\t// in\n    tag_59:\n        /* \"contracts/ArbCalc.sol\":1567:1620  (,uint256 highQuote) = getLiquidityAndPrice(poolHigh) */\n      swap2\n      pop\n      pop\n        /* \"contracts/ArbCalc.sol\":1633:1649  uint256 lowQuote */\n      0x00\n        /* \"contracts/ArbCalc.sol\":1653:1682  getLiquidityAndPrice(poolLow) */\n      tag_60\n        /* \"contracts/ArbCalc.sol\":1674:1681  poolLow */\n      dup5\n        /* \"contracts/ArbCalc.sol\":1653:1673  getLiquidityAndPrice */\n      tag_23\n        /* \"contracts/ArbCalc.sol\":1653:1682  getLiquidityAndPrice(poolLow) */\n      jump\t// in\n    tag_60:\n        /* \"contracts/ArbCalc.sol\":1631:1682  (,uint256 lowQuote) = getLiquidityAndPrice(poolLow) */\n      swap2\n      pop\n      pop\n        /* \"contracts/ArbCalc.sol\":1764:1765  2 */\n      0x02\n        /* \"contracts/ArbCalc.sol\":1753:1762  highQuote */\n      dup3\n        /* \"contracts/ArbCalc.sol\":1743:1751  lowQuote */\n      dup3\n        /* \"contracts/ArbCalc.sol\":1743:1762  lowQuote +highQuote */\n      tag_61\n      swap2\n      swap1\n      tag_62\n      jump\t// in\n    tag_61:\n        /* \"contracts/ArbCalc.sol\":1731:1739  lowQuote */\n      dup3\n        /* \"contracts/ArbCalc.sol\":1721:1728  1000000 */\n      0x0f4240\n        /* \"contracts/ArbCalc.sol\":1714:1718  1e18 */\n      0x0de0b6b3a7640000\n        /* \"contracts/ArbCalc.sol\":1702:1711  highQuote */\n      dup7\n        /* \"contracts/ArbCalc.sol\":1702:1718  highQuote / 1e18 */\n      tag_63\n      swap2\n      swap1\n      tag_64\n      jump\t// in\n    tag_63:\n        /* \"contracts/ArbCalc.sol\":1702:1728  highQuote / 1e18 * 1000000 */\n      tag_65\n      swap2\n      swap1\n      tag_66\n      jump\t// in\n    tag_65:\n        /* \"contracts/ArbCalc.sol\":1702:1739  highQuote / 1e18 * 1000000 - lowQuote */\n      tag_67\n      swap2\n      swap1\n      tag_68\n      jump\t// in\n    tag_67:\n        /* \"contracts/ArbCalc.sol\":1701:1763  (highQuote / 1e18 * 1000000 - lowQuote )/(lowQuote +highQuote) */\n      tag_69\n      swap2\n      swap1\n      tag_64\n      jump\t// in\n    tag_69:\n        /* \"contracts/ArbCalc.sol\":1701:1765  (highQuote / 1e18 * 1000000 - lowQuote )/(lowQuote +highQuote)/2 */\n      tag_70\n      swap2\n      swap1\n      tag_64\n      jump\t// in\n    tag_70:\n        /* \"contracts/ArbCalc.sol\":1695:1765  rel = (highQuote / 1e18 * 1000000 - lowQuote )/(lowQuote +highQuote)/2 */\n      swap3\n      pop\n        /* \"contracts/ArbCalc.sol\":1556:1774  {... */\n      pop\n      pop\n        /* \"contracts/ArbCalc.sol\":1459:1774  function getPriceRatio(address poolHigh, address poolLow) public view returns (uint256 rel)... */\n      swap3\n      swap2\n      pop\n      pop\n      jump\t// out\n        /* \"contracts/ArbCalc.sol\":392:669  function getLiquidityAndPrice(address poolAddress) public view returns (uint256 _liquidity, uint256 _priceX96)... */\n    tag_23:\n        /* \"contracts/ArbCalc.sol\":464:482  uint256 _liquidity */\n      0x00\n        /* \"contracts/ArbCalc.sol\":484:501  uint256 _priceX96 */\n      dup1\n        /* \"contracts/ArbCalc.sol\":519:538  IUniswapV3Pool pool */\n      0x00\n        /* \"contracts/ArbCalc.sol\":556:567  poolAddress */\n      dup4\n        /* \"contracts/ArbCalc.sol\":519:568  IUniswapV3Pool pool = IUniswapV3Pool(poolAddress) */\n      swap1\n      pop\n        /* \"contracts/ArbCalc.sol\":599:603  pool */\n      dup1\n        /* \"contracts/ArbCalc.sol\":599:609  pool.slot0 */\n      0xffffffffffffffffffffffffffffffffffffffff\n      and\n      0x3850c7bd\n        /* \"contracts/ArbCalc.sol\":599:611  pool.slot0() */\n      mload(0x40)\n      dup2\n      0xffffffff\n      and\n      0xe0\n      shl\n      dup2\n      mstore\n      0x04\n      add\n      0xe0\n      mload(0x40)\n      dup1\n      dup4\n      sub\n      dup2\n      dup7\n      gas\n      staticcall\n      iszero\n      dup1\n      iszero\n      tag_73\n      jumpi\n      returndatasize\n      0x00\n      dup1\n      returndatacopy\n      revert(0x00, returndatasize)\n    tag_73:\n      pop\n      pop\n      pop\n      pop\n      mload(0x40)\n      returndatasize\n      not(0x1f)\n      0x1f\n      dup3\n      add\n      and\n      dup3\n      add\n      dup1\n      0x40\n      mstore\n      pop\n      dup2\n      add\n      swap1\n      tag_74\n      swap2\n      swap1\n      tag_75\n      jump\t// in\n    tag_74:\n        /* \"contracts/ArbCalc.sol\":579:611  (_priceX96,,,,,,) = pool.slot0() */\n      dup7\n      0xffffffffffffffffffffffffffffffffffffffff\n      and\n      swap7\n      pop\n      swap1\n      swap2\n      swap3\n      swap4\n      swap5\n      pop\n      swap1\n      swap2\n      swap3\n      swap4\n      pop\n      swap1\n      swap2\n      swap3\n      pop\n      swap1\n      swap2\n      pop\n      swap1\n      pop\n      pop\n      dup1\n      swap3\n      pop\n      pop\n        /* \"contracts/ArbCalc.sol\":635:639  pool */\n      dup1\n        /* \"contracts/ArbCalc.sol\":635:649  pool.liquidity */\n      0xffffffffffffffffffffffffffffffffffffffff\n      and\n      0x1a686502\n        /* \"contracts/ArbCalc.sol\":635:651  pool.liquidity() */\n      mload(0x40)\n      dup2\n      0xffffffff\n      and\n      0xe0\n      shl\n      dup2\n      mstore\n      0x04\n      add\n      0x20\n      mload(0x40)\n      dup1\n      dup4\n      sub\n      dup2\n      dup7\n      gas\n      staticcall\n      iszero\n      dup1\n      iszero\n      tag_77\n      jumpi\n      returndatasize\n      0x00\n      dup1\n      returndatacopy\n      revert(0x00, returndatasize)\n    tag_77:\n      pop\n      pop\n      pop\n      pop\n      mload(0x40)\n      returndatasize\n      not(0x1f)\n      0x1f\n      dup3\n      add\n      and\n      dup3\n      add\n      dup1\n      0x40\n      mstore\n      pop\n      dup2\n      add\n      swap1\n      tag_78\n      swap2\n      swap1\n      tag_79\n      jump\t// in\n    tag_78:\n        /* \"contracts/ArbCalc.sol\":622:651  _liquidity = pool.liquidity() */\n      0xffffffffffffffffffffffffffffffff\n      and\n      swap3\n      pop\n        /* \"contracts/ArbCalc.sol\":508:669  {... */\n      pop\n        /* \"contracts/ArbCalc.sol\":392:669  function getLiquidityAndPrice(address poolAddress) public view returns (uint256 _liquidity, uint256 _priceX96)... */\n      swap2\n      pop\n      swap2\n      jump\t// out\n        /* \"contracts/Reserves.sol\":342:569  function reserves0(address pair) external view returns ( uint256 reserve) {... */\n    tag_28:\n        /* \"contracts/Reserves.sol\":399:414  uint256 reserve */\n      0x00\n        /* \"contracts/Reserves.sol\":427:446  IUniswapV3Pool pool */\n      dup1\n        /* \"contracts/Reserves.sol\":464:468  pair */\n      dup3\n        /* \"contracts/Reserves.sol\":427:469  IUniswapV3Pool pool = IUniswapV3Pool(pair) */\n      swap1\n      pop\n        /* \"contracts/Reserves.sol\":480:494  address token0 */\n      0x00\n        /* \"contracts/Reserves.sol\":497:501  pool */\n      dup2\n        /* \"contracts/Reserves.sol\":497:508  pool.token0 */\n      0xffffffffffffffffffffffffffffffffffffffff\n      and\n      0x0dfe1681\n        /* \"contracts/Reserves.sol\":497:510  pool.token0() */\n      mload(0x40)\n      dup2\n      0xffffffff\n      and\n      0xe0\n      shl\n      dup2\n      mstore\n      0x04\n      add\n      0x20\n      mload(0x40)\n      dup1\n      dup4\n      sub\n      dup2\n      dup7\n      gas\n      staticcall\n      iszero\n      dup1\n      iszero\n      tag_82\n      jumpi\n      returndatasize\n      0x00\n      dup1\n      returndatacopy\n      revert(0x00, returndatasize)\n    tag_82:\n      pop\n      pop\n      pop\n      pop\n      mload(0x40)\n      returndatasize\n      not(0x1f)\n      0x1f\n      dup3\n      add\n      and\n      dup3\n      add\n      dup1\n      0x40\n      mstore\n      pop\n      dup2\n      add\n      swap1\n      tag_83\n      swap2\n      swap1\n      tag_84\n      jump\t// in\n    tag_83:\n        /* \"contracts/Reserves.sol\":480:510  address token0 = pool.token0() */\n      swap1\n      pop\n        /* \"contracts/Reserves.sol\":538:544  token0 */\n      dup1\n        /* \"contracts/Reserves.sol\":531:555  IERC20(token0).balanceOf */\n      0xffffffffffffffffffffffffffffffffffffffff\n      and\n      0x70a08231\n        /* \"contracts/Reserves.sol\":556:560  pair */\n      dup6\n        /* \"contracts/Reserves.sol\":531:561  IERC20(token0).balanceOf(pair) */\n      mload(0x40)\n      dup3\n      0xffffffff\n      and\n      0xe0\n      shl\n      dup2\n      mstore\n      0x04\n      add\n      tag_85\n      swap2\n      swap1\n      tag_86\n      jump\t// in\n    tag_85:\n      0x20\n      mload(0x40)\n      dup1\n      dup4\n      sub\n      dup2\n      dup7\n      gas\n      staticcall\n      iszero\n      dup1\n      iszero\n      tag_88\n      jumpi\n      returndatasize\n      0x00\n      dup1\n      returndatacopy\n      revert(0x00, returndatasize)\n    tag_88:\n      pop\n      pop\n      pop\n      pop\n      mload(0x40)\n      returndatasize\n      not(0x1f)\n      0x1f\n      dup3\n      add\n      and\n      dup3\n      add\n      dup1\n      0x40\n      mstore\n      pop\n      dup2\n      add\n      swap1\n      tag_89\n      swap2\n      swap1\n      tag_90\n      jump\t// in\n    tag_89:\n        /* \"contracts/Reserves.sol\":521:561  reserve = IERC20(token0).balanceOf(pair) */\n      swap3\n      pop\n        /* \"contracts/Reserves.sol\":416:569  {... */\n      pop\n      pop\n        /* \"contracts/Reserves.sol\":342:569  function reserves0(address pair) external view returns ( uint256 reserve) {... */\n      swap2\n      swap1\n      pop\n      jump\t// out\n        /* \"contracts/ArbCalc.sol\":677:1094  function getMaxProfitableAmount(address lowPoolAddress, address highPoolAddress) public view returns (uint256 _mpa)... */\n    tag_32:\n        /* \"contracts/ArbCalc.sol\":779:791  uint256 _mpa */\n      0x00\n        /* \"contracts/ArbCalc.sol\":855:875  uint256 relLiquidity */\n      dup1\n        /* \"contracts/ArbCalc.sol\":878:931  getRelativeLiquidity(lowPoolAddress, highPoolAddress) */\n      tag_92\n        /* \"contracts/ArbCalc.sol\":899:913  lowPoolAddress */\n      dup5\n        /* \"contracts/ArbCalc.sol\":915:930  highPoolAddress */\n      dup5\n        /* \"contracts/ArbCalc.sol\":878:898  getRelativeLiquidity */\n      tag_48\n        /* \"contracts/ArbCalc.sol\":878:931  getRelativeLiquidity(lowPoolAddress, highPoolAddress) */\n      jump\t// in\n    tag_92:\n        /* \"contracts/ArbCalc.sol\":855:931  uint256 relLiquidity = getRelativeLiquidity(lowPoolAddress, highPoolAddress) */\n      swap1\n      pop\n        /* \"contracts/ArbCalc.sol\":942:970  uint256 relPriceQuoteLowHigh */\n      0x00\n        /* \"contracts/ArbCalc.sol\":973:1019  getPriceRatio(highPoolAddress, lowPoolAddress) */\n      tag_93\n        /* \"contracts/ArbCalc.sol\":987:1002  highPoolAddress */\n      dup5\n        /* \"contracts/ArbCalc.sol\":1004:1018  lowPoolAddress */\n      dup7\n        /* \"contracts/ArbCalc.sol\":973:986  getPriceRatio */\n      tag_17\n        /* \"contracts/ArbCalc.sol\":973:1019  getPriceRatio(highPoolAddress, lowPoolAddress) */\n      jump\t// in\n    tag_93:\n        /* \"contracts/ArbCalc.sol\":942:1019  uint256 relPriceQuoteLowHigh = getPriceRatio(highPoolAddress, lowPoolAddress) */\n      swap1\n      pop\n        /* \"contracts/ArbCalc.sol\":1080:1084  1e18 */\n      0x0de0b6b3a7640000\n        /* \"contracts/ArbCalc.sol\":1055:1075  relPriceQuoteLowHigh */\n      dup2\n        /* \"contracts/ArbCalc.sol\":1040:1052  relLiquidity */\n      dup4\n        /* \"contracts/ArbCalc.sol\":1040:1075  relLiquidity * relPriceQuoteLowHigh */\n      tag_94\n      swap2\n      swap1\n      tag_66\n      jump\t// in\n    tag_94:\n        /* \"contracts/ArbCalc.sol\":1039:1085  (relLiquidity * relPriceQuoteLowHigh) / (1e18) */\n      tag_95\n      swap2\n      swap1\n      tag_64\n      jump\t// in\n    tag_95:\n        /* \"contracts/ArbCalc.sol\":1032:1085  return (relLiquidity * relPriceQuoteLowHigh) / (1e18) */\n      swap3\n      pop\n      pop\n      pop\n        /* \"contracts/ArbCalc.sol\":677:1094  function getMaxProfitableAmount(address lowPoolAddress, address highPoolAddress) public view returns (uint256 _mpa)... */\n      swap3\n      swap2\n      pop\n      pop\n      jump\t// out\n        /* \"contracts/ArbCalc.sol\":2135:2474  function getBorrowAmountV3(address lowerPool, address higherPool) external view returns(uint256 amount){... */\n    tag_36:\n        /* \"contracts/ArbCalc.sol\":2223:2237  uint256 amount */\n      0x00\n        /* \"contracts/ArbCalc.sol\":2249:2280  OrderedReserves memory reserves */\n      tag_97\n      tag_98\n      jump\t// in\n    tag_97:\n        /* \"contracts/ArbCalc.sol\":2322:2346  getReservesV3(lowerPool) */\n      tag_99\n        /* \"contracts/ArbCalc.sol\":2336:2345  lowerPool */\n      dup5\n        /* \"contracts/ArbCalc.sol\":2322:2335  getReservesV3 */\n      tag_40\n        /* \"contracts/ArbCalc.sol\":2322:2346  getReservesV3(lowerPool) */\n      jump\t// in\n    tag_99:\n        /* \"contracts/ArbCalc.sol\":2294:2302  reserves */\n      dup3\n        /* \"contracts/ArbCalc.sol\":2294:2305  reserves.a1 */\n      0x00\n      add\n        /* \"contracts/ArbCalc.sol\":2307:2315  reserves */\n      dup4\n        /* \"contracts/ArbCalc.sol\":2307:2318  reserves.b1 */\n      0x20\n      add\n        /* \"contracts/ArbCalc.sol\":2293:2346  (reserves.a1, reserves.b1) = getReservesV3(lowerPool) */\n      dup3\n      dup2\n      mstore\n      pop\n      dup3\n      dup2\n      mstore\n      pop\n      pop\n      pop\n        /* \"contracts/ArbCalc.sol\":2386:2411  getReservesV3(higherPool) */\n      tag_100\n        /* \"contracts/ArbCalc.sol\":2400:2410  higherPool */\n      dup4\n        /* \"contracts/ArbCalc.sol\":2386:2399  getReservesV3 */\n      tag_40\n        /* \"contracts/ArbCalc.sol\":2386:2411  getReservesV3(higherPool) */\n      jump\t// in\n    tag_100:\n        /* \"contracts/ArbCalc.sol\":2358:2366  reserves */\n      dup3\n        /* \"contracts/ArbCalc.sol\":2358:2369  reserves.a2 */\n      0x40\n      add\n        /* \"contracts/ArbCalc.sol\":2371:2379  reserves */\n      dup4\n        /* \"contracts/ArbCalc.sol\":2371:2382  reserves.b2 */\n      0x60\n      add\n        /* \"contracts/ArbCalc.sol\":2357:2411  (reserves.a2, reserves.b2) = getReservesV3(higherPool) */\n      dup3\n      dup2\n      mstore\n      pop\n      dup3\n      dup2\n      mstore\n      pop\n      pop\n      pop\n        /* \"contracts/ArbCalc.sol\":2433:2466  calcMaxBorrowableAmount(reserves) */\n      tag_101\n        /* \"contracts/ArbCalc.sol\":2457:2465  reserves */\n      dup2\n        /* \"contracts/ArbCalc.sol\":2433:2456  calcMaxBorrowableAmount */\n      tag_102\n        /* \"contracts/ArbCalc.sol\":2433:2466  calcMaxBorrowableAmount(reserves) */\n      jump\t// in\n    tag_101:\n        /* \"contracts/ArbCalc.sol\":2424:2466  amount = calcMaxBorrowableAmount(reserves) */\n      swap2\n      pop\n        /* \"contracts/ArbCalc.sol\":2238:2474  {... */\n      pop\n        /* \"contracts/ArbCalc.sol\":2135:2474  function getBorrowAmountV3(address lowerPool, address higherPool) external view returns(uint256 amount){... */\n      swap3\n      swap2\n      pop\n      pop\n      jump\t// out\n        /* \"contracts/Reserves.sol\":816:1156  function getReservesV3(address pair) public view returns (uint256 reserve0, uint256 reserve1){... */\n    tag_40:\n        /* \"contracts/Reserves.sol\":874:890  uint256 reserve0 */\n      0x00\n        /* \"contracts/Reserves.sol\":892:908  uint256 reserve1 */\n      dup1\n        /* \"contracts/Reserves.sol\":920:939  IUniswapV3Pool pool */\n      0x00\n        /* \"contracts/Reserves.sol\":957:961  pair */\n      dup4\n        /* \"contracts/Reserves.sol\":920:962  IUniswapV3Pool pool = IUniswapV3Pool(pair) */\n      swap1\n      pop\n        /* \"contracts/Reserves.sol\":973:987  address token0 */\n      0x00\n        /* \"contracts/Reserves.sol\":990:994  pool */\n      dup2\n        /* \"contracts/Reserves.sol\":990:1001  pool.token0 */\n      0xffffffffffffffffffffffffffffffffffffffff\n      and\n      0x0dfe1681\n        /* \"contracts/Reserves.sol\":990:1003  pool.token0() */\n      mload(0x40)\n      dup2\n      0xffffffff\n      and\n      0xe0\n      shl\n      dup2\n      mstore\n      0x04\n      add\n      0x20\n      mload(0x40)\n      dup1\n      dup4\n      sub\n      dup2\n      dup7\n      gas\n      staticcall\n      iszero\n      dup1\n      iszero\n      tag_105\n      jumpi\n      returndatasize\n      0x00\n      dup1\n      returndatacopy\n      revert(0x00, returndatasize)\n    tag_105:\n      pop\n      pop\n      pop\n      pop\n      mload(0x40)\n      returndatasize\n      not(0x1f)\n      0x1f\n      dup3\n      add\n      and\n      dup3\n      add\n      dup1\n      0x40\n      mstore\n      pop\n      dup2\n      add\n      swap1\n      tag_106\n      swap2\n      swap1\n      tag_84\n      jump\t// in\n    tag_106:\n        /* \"contracts/Reserves.sol\":973:1003  address token0 = pool.token0() */\n      swap1\n      pop\n        /* \"contracts/Reserves.sol\":1014:1028  address token1 */\n      0x00\n        /* \"contracts/Reserves.sol\":1031:1035  pool */\n      dup3\n        /* \"contracts/Reserves.sol\":1031:1042  pool.token1 */\n      0xffffffffffffffffffffffffffffffffffffffff\n      and\n      0xd21220a7\n        /* \"contracts/Reserves.sol\":1031:1044  pool.token1() */\n      mload(0x40)\n      dup2\n      0xffffffff\n      and\n      0xe0\n      shl\n      dup2\n      mstore\n      0x04\n      add\n      0x20\n      mload(0x40)\n      dup1\n      dup4\n      sub\n      dup2\n      dup7\n      gas\n      staticcall\n      iszero\n      dup1\n      iszero\n      tag_108\n      jumpi\n      returndatasize\n      0x00\n      dup1\n      returndatacopy\n      revert(0x00, returndatasize)\n    tag_108:\n      pop\n      pop\n      pop\n      pop\n      mload(0x40)\n      returndatasize\n      not(0x1f)\n      0x1f\n      dup3\n      add\n      and\n      dup3\n      add\n      dup1\n      0x40\n      mstore\n      pop\n      dup2\n      add\n      swap1\n      tag_109\n      swap2\n      swap1\n      tag_84\n      jump\t// in\n    tag_109:\n        /* \"contracts/Reserves.sol\":1014:1044  address token1 = pool.token1() */\n      swap1\n      pop\n        /* \"contracts/Reserves.sol\":1073:1079  token0 */\n      dup2\n        /* \"contracts/Reserves.sol\":1066:1090  IERC20(token0).balanceOf */\n      0xffffffffffffffffffffffffffffffffffffffff\n      and\n      0x70a08231\n        /* \"contracts/Reserves.sol\":1091:1095  pair */\n      dup8\n        /* \"contracts/Reserves.sol\":1066:1096  IERC20(token0).balanceOf(pair) */\n      mload(0x40)\n      dup3\n      0xffffffff\n      and\n      0xe0\n      shl\n      dup2\n      mstore\n      0x04\n      add\n      tag_110\n      swap2\n      swap1\n      tag_86\n      jump\t// in\n    tag_110:\n      0x20\n      mload(0x40)\n      dup1\n      dup4\n      sub\n      dup2\n      dup7\n      gas\n      staticcall\n      iszero\n      dup1\n      iszero\n      tag_112\n      jumpi\n      returndatasize\n      0x00\n      dup1\n      returndatacopy\n      revert(0x00, returndatasize)\n    tag_112:\n      pop\n      pop\n      pop\n      pop\n      mload(0x40)\n      returndatasize\n      not(0x1f)\n      0x1f\n      dup3\n      add\n      and\n      dup3\n      add\n      dup1\n      0x40\n      mstore\n      pop\n      dup2\n      add\n      swap1\n      tag_113\n      swap2\n      swap1\n      tag_90\n      jump\t// in\n    tag_113:\n        /* \"contracts/Reserves.sol\":1055:1096  reserve0 = IERC20(token0).balanceOf(pair) */\n      swap5\n      pop\n        /* \"contracts/Reserves.sol\":1125:1131  token1 */\n      dup1\n        /* \"contracts/Reserves.sol\":1118:1142  IERC20(token1).balanceOf */\n      0xffffffffffffffffffffffffffffffffffffffff\n      and\n      0x70a08231\n        /* \"contracts/Reserves.sol\":1143:1147  pair */\n      dup8\n        /* \"contracts/Reserves.sol\":1118:1148  IERC20(token1).balanceOf(pair) */\n      mload(0x40)\n      dup3\n      0xffffffff\n      and\n      0xe0\n      shl\n      dup2\n      mstore\n      0x04\n      add\n      tag_114\n      swap2\n      swap1\n      tag_86\n      jump\t// in\n    tag_114:\n      0x20\n      mload(0x40)\n      dup1\n      dup4\n      sub\n      dup2\n      dup7\n      gas\n      staticcall\n      iszero\n      dup1\n      iszero\n      tag_116\n      jumpi\n      returndatasize\n      0x00\n      dup1\n      returndatacopy\n      revert(0x00, returndatasize)\n    tag_116:\n      pop\n      pop\n      pop\n      pop\n      mload(0x40)\n      returndatasize\n      not(0x1f)\n      0x1f\n      dup3\n      add\n      and\n      dup3\n      add\n      dup1\n      0x40\n      mstore\n      pop\n      dup2\n      add\n      swap1\n      tag_117\n      swap2\n      swap1\n      tag_90\n      jump\t// in\n    tag_117:\n        /* \"contracts/Reserves.sol\":1107:1148  reserve1 = IERC20(token1).balanceOf(pair) */\n      swap4\n      pop\n        /* \"contracts/Reserves.sol\":909:1156  {... */\n      pop\n      pop\n      pop\n        /* \"contracts/Reserves.sol\":816:1156  function getReservesV3(address pair) public view returns (uint256 reserve0, uint256 reserve1){... */\n      swap2\n      pop\n      swap2\n      jump\t// out\n        /* \"contracts/ArbCalc.sol\":1788:2127  function getBorrowAmountV2(address lowerPool, address higherPool) external view returns(uint256 amount){... */\n    tag_44:\n        /* \"contracts/ArbCalc.sol\":1876:1890  uint256 amount */\n      0x00\n        /* \"contracts/ArbCalc.sol\":1902:1933  OrderedReserves memory reserves */\n      tag_119\n      tag_98\n      jump\t// in\n    tag_119:\n        /* \"contracts/ArbCalc.sol\":1975:1999  getReservesV2(lowerPool) */\n      tag_120\n        /* \"contracts/ArbCalc.sol\":1989:1998  lowerPool */\n      dup5\n        /* \"contracts/ArbCalc.sol\":1975:1988  getReservesV2 */\n      tag_56\n        /* \"contracts/ArbCalc.sol\":1975:1999  getReservesV2(lowerPool) */\n      jump\t// in\n    tag_120:\n        /* \"contracts/ArbCalc.sol\":1947:1955  reserves */\n      dup3\n        /* \"contracts/ArbCalc.sol\":1947:1958  reserves.a1 */\n      0x00\n      add\n        /* \"contracts/ArbCalc.sol\":1960:1968  reserves */\n      dup4\n        /* \"contracts/ArbCalc.sol\":1960:1971  reserves.b1 */\n      0x20\n      add\n        /* \"contracts/ArbCalc.sol\":1946:1999  (reserves.a1, reserves.b1) = getReservesV2(lowerPool) */\n      dup3\n      dup2\n      mstore\n      pop\n      dup3\n      dup2\n      mstore\n      pop\n      pop\n      pop\n        /* \"contracts/ArbCalc.sol\":2039:2064  getReservesV2(higherPool) */\n      tag_121\n        /* \"contracts/ArbCalc.sol\":2053:2063  higherPool */\n      dup4\n        /* \"contracts/ArbCalc.sol\":2039:2052  getReservesV2 */\n      tag_56\n        /* \"contracts/ArbCalc.sol\":2039:2064  getReservesV2(higherPool) */\n      jump\t// in\n    tag_121:\n        /* \"contracts/ArbCalc.sol\":2011:2019  reserves */\n      dup3\n        /* \"contracts/ArbCalc.sol\":2011:2022  reserves.a2 */\n      0x40\n      add\n        /* \"contracts/ArbCalc.sol\":2024:2032  reserves */\n      dup4\n        /* \"contracts/ArbCalc.sol\":2024:2035  reserves.b2 */\n      0x60\n      add\n        /* \"contracts/ArbCalc.sol\":2010:2064  (reserves.a2, reserves.b2) = getReservesV2(higherPool) */\n      dup3\n      dup2\n      mstore\n      pop\n      dup3\n      dup2\n      mstore\n      pop\n      pop\n      pop\n        /* \"contracts/ArbCalc.sol\":2086:2119  calcMaxBorrowableAmount(reserves) */\n      tag_122\n        /* \"contracts/ArbCalc.sol\":2110:2118  reserves */\n      dup2\n        /* \"contracts/ArbCalc.sol\":2086:2109  calcMaxBorrowableAmount */\n      tag_102\n        /* \"contracts/ArbCalc.sol\":2086:2119  calcMaxBorrowableAmount(reserves) */\n      jump\t// in\n    tag_122:\n        /* \"contracts/ArbCalc.sol\":2077:2119  amount = calcMaxBorrowableAmount(reserves) */\n      swap2\n      pop\n        /* \"contracts/ArbCalc.sol\":1891:2127  {... */\n      pop\n        /* \"contracts/ArbCalc.sol\":1788:2127  function getBorrowAmountV2(address lowerPool, address higherPool) external view returns(uint256 amount){... */\n      swap3\n      swap2\n      pop\n      pop\n      jump\t// out\n        /* \"contracts/ArbCalc.sol\":1102:1451  function getRelativeLiquidity(address poolA, address poolB) public view returns (uint256 _rel)... */\n    tag_48:\n        /* \"contracts/ArbCalc.sol\":1183:1195  uint256 _rel */\n      0x00\n        /* \"contracts/ArbCalc.sol\":1214:1236  uint256 liquidityPoolA */\n      dup1\n        /* \"contracts/ArbCalc.sol\":1241:1268  getLiquidityAndPrice(poolA) */\n      tag_124\n        /* \"contracts/ArbCalc.sol\":1262:1267  poolA */\n      dup5\n        /* \"contracts/ArbCalc.sol\":1241:1261  getLiquidityAndPrice */\n      tag_23\n        /* \"contracts/ArbCalc.sol\":1241:1268  getLiquidityAndPrice(poolA) */\n      jump\t// in\n    tag_124:\n        /* \"contracts/ArbCalc.sol\":1213:1268  (uint256 liquidityPoolA,) = getLiquidityAndPrice(poolA) */\n      pop\n      swap1\n      pop\n        /* \"contracts/ArbCalc.sol\":1280:1302  uint256 liquidityPoolB */\n      0x00\n        /* \"contracts/ArbCalc.sol\":1307:1334  getLiquidityAndPrice(poolB) */\n      tag_125\n        /* \"contracts/ArbCalc.sol\":1328:1333  poolB */\n      dup5\n        /* \"contracts/ArbCalc.sol\":1307:1327  getLiquidityAndPrice */\n      tag_23\n        /* \"contracts/ArbCalc.sol\":1307:1334  getLiquidityAndPrice(poolB) */\n      jump\t// in\n    tag_125:\n        /* \"contracts/ArbCalc.sol\":1279:1334  (uint256 liquidityPoolB,) = getLiquidityAndPrice(poolB) */\n      pop\n      swap1\n      pop\n        /* \"contracts/ArbCalc.sol\":1440:1441  2 */\n      0x02\n        /* \"contracts/ArbCalc.sol\":1425:1439  liquidityPoolA */\n      dup3\n        /* \"contracts/ArbCalc.sol\":1425:1441  liquidityPoolA/2 */\n      tag_126\n      swap2\n      swap1\n      tag_64\n      jump\t// in\n    tag_126:\n        /* \"contracts/ArbCalc.sol\":1408:1422  liquidityPoolB */\n      dup2\n        /* \"contracts/ArbCalc.sol\":1408:1441  liquidityPoolB + liquidityPoolA/2 */\n      tag_127\n      swap2\n      swap1\n      tag_62\n      jump\t// in\n    tag_127:\n        /* \"contracts/ArbCalc.sol\":1389:1403  liquidityPoolB */\n      dup2\n        /* \"contracts/ArbCalc.sol\":1379:1386  1000000 */\n      0x0f4240\n        /* \"contracts/ArbCalc.sol\":1372:1376  1e18 */\n      0x0de0b6b3a7640000\n        /* \"contracts/ArbCalc.sol\":1355:1369  liquidityPoolA */\n      dup6\n        /* \"contracts/ArbCalc.sol\":1355:1376  liquidityPoolA / 1e18 */\n      tag_128\n      swap2\n      swap1\n      tag_64\n      jump\t// in\n    tag_128:\n        /* \"contracts/ArbCalc.sol\":1355:1386  liquidityPoolA / 1e18 * 1000000 */\n      tag_129\n      swap2\n      swap1\n      tag_66\n      jump\t// in\n    tag_129:\n        /* \"contracts/ArbCalc.sol\":1355:1403  liquidityPoolA / 1e18 * 1000000 - liquidityPoolB */\n      tag_130\n      swap2\n      swap1\n      tag_68\n      jump\t// in\n    tag_130:\n        /* \"contracts/ArbCalc.sol\":1354:1442  (liquidityPoolA / 1e18 * 1000000 - liquidityPoolB) / (liquidityPoolB + liquidityPoolA/2) */\n      tag_131\n      swap2\n      swap1\n      tag_64\n      jump\t// in\n    tag_131:\n        /* \"contracts/ArbCalc.sol\":1347:1442  return (liquidityPoolA / 1e18 * 1000000 - liquidityPoolB) / (liquidityPoolB + liquidityPoolA/2) */\n      swap3\n      pop\n      pop\n      pop\n        /* \"contracts/ArbCalc.sol\":1102:1451  function getRelativeLiquidity(address poolA, address poolB) public view returns (uint256 _rel)... */\n      swap3\n      swap2\n      pop\n      pop\n      jump\t// out\n        /* \"contracts/Reserves.sol\":581:808  function reserves1(address pair) external view returns ( uint256 reserve) {... */\n    tag_52:\n        /* \"contracts/Reserves.sol\":638:653  uint256 reserve */\n      0x00\n        /* \"contracts/Reserves.sol\":666:685  IUniswapV3Pool pool */\n      dup1\n        /* \"contracts/Reserves.sol\":703:707  pair */\n      dup3\n        /* \"contracts/Reserves.sol\":666:708  IUniswapV3Pool pool = IUniswapV3Pool(pair) */\n      swap1\n      pop\n        /* \"contracts/Reserves.sol\":719:733  address token1 */\n      0x00\n        /* \"contracts/Reserves.sol\":736:740  pool */\n      dup2\n        /* \"contracts/Reserves.sol\":736:747  pool.token1 */\n      0xffffffffffffffffffffffffffffffffffffffff\n      and\n      0xd21220a7\n        /* \"contracts/Reserves.sol\":736:749  pool.token1() */\n      mload(0x40)\n      dup2\n      0xffffffff\n      and\n      0xe0\n      shl\n      dup2\n      mstore\n      0x04\n      add\n      0x20\n      mload(0x40)\n      dup1\n      dup4\n      sub\n      dup2\n      dup7\n      gas\n      staticcall\n      iszero\n      dup1\n      iszero\n      tag_134\n      jumpi\n      returndatasize\n      0x00\n      dup1\n      returndatacopy\n      revert(0x00, returndatasize)\n    tag_134:\n      pop\n      pop\n      pop\n      pop\n      mload(0x40)\n      returndatasize\n      not(0x1f)\n      0x1f\n      dup3\n      add\n      and\n      dup3\n      add\n      dup1\n      0x40\n      mstore\n      pop\n      dup2\n      add\n      swap1\n      tag_135\n      swap2\n      swap1\n      tag_84\n      jump\t// in\n    tag_135:\n        /* \"contracts/Reserves.sol\":719:749  address token1 = pool.token1() */\n      swap1\n      pop\n        /* \"contracts/Reserves.sol\":777:783  token1 */\n      dup1\n        /* \"contracts/Reserves.sol\":770:794  IERC20(token1).balanceOf */\n      0xffffffffffffffffffffffffffffffffffffffff\n      and\n      0x70a08231\n        /* \"contracts/Reserves.sol\":795:799  pair */\n      dup6\n        /* \"contracts/Reserves.sol\":770:800  IERC20(token1).balanceOf(pair) */\n      mload(0x40)\n      dup3\n      0xffffffff\n      and\n      0xe0\n      shl\n      dup2\n      mstore\n      0x04\n      add\n      tag_136\n      swap2\n      swap1\n      tag_86\n      jump\t// in\n    tag_136:\n      0x20\n      mload(0x40)\n      dup1\n      dup4\n      sub\n      dup2\n      dup7\n      gas\n      staticcall\n      iszero\n      dup1\n      iszero\n      tag_138\n      jumpi\n      returndatasize\n      0x00\n      dup1\n      returndatacopy\n      revert(0x00, returndatasize)\n    tag_138:\n      pop\n      pop\n      pop\n      pop\n      mload(0x40)\n      returndatasize\n      not(0x1f)\n      0x1f\n      dup3\n      add\n      and\n      dup3\n      add\n      dup1\n      0x40\n      mstore\n      pop\n      dup2\n      add\n      swap1\n      tag_139\n      swap2\n      swap1\n      tag_90\n      jump\t// in\n    tag_139:\n        /* \"contracts/Reserves.sol\":760:800  reserve = IERC20(token1).balanceOf(pair) */\n      swap3\n      pop\n        /* \"contracts/Reserves.sol\":655:808  {... */\n      pop\n      pop\n        /* \"contracts/Reserves.sol\":581:808  function reserves1(address pair) external view returns ( uint256 reserve) {... */\n      swap2\n      swap1\n      pop\n      jump\t// out\n        /* \"contracts/Reserves.sol\":1164:1504  function getReservesV2(address pair) public view returns (uint256 reserve0, uint256 reserve1){... */\n    tag_56:\n        /* \"contracts/Reserves.sol\":1222:1238  uint256 reserve0 */\n      0x00\n        /* \"contracts/Reserves.sol\":1240:1256  uint256 reserve1 */\n      dup1\n        /* \"contracts/Reserves.sol\":1268:1287  IUniswapV2Pair pool */\n      0x00\n        /* \"contracts/Reserves.sol\":1305:1309  pair */\n      dup4\n        /* \"contracts/Reserves.sol\":1268:1310  IUniswapV2Pair pool = IUniswapV2Pair(pair) */\n      swap1\n      pop\n        /* \"contracts/Reserves.sol\":1321:1335  address token0 */\n      0x00\n        /* \"contracts/Reserves.sol\":1338:1342  pool */\n      dup2\n        /* \"contracts/Reserves.sol\":1338:1349  pool.token0 */\n      0xffffffffffffffffffffffffffffffffffffffff\n      and\n      0x0dfe1681\n        /* \"contracts/Reserves.sol\":1338:1351  pool.token0() */\n      mload(0x40)\n      dup2\n      0xffffffff\n      and\n      0xe0\n      shl\n      dup2\n      mstore\n      0x04\n      add\n      0x20\n      mload(0x40)\n      dup1\n      dup4\n      sub\n      dup2\n      dup7\n      gas\n      staticcall\n      iszero\n      dup1\n      iszero\n      tag_142\n      jumpi\n      returndatasize\n      0x00\n      dup1\n      returndatacopy\n      revert(0x00, returndatasize)\n    tag_142:\n      pop\n      pop\n      pop\n      pop\n      mload(0x40)\n      returndatasize\n      not(0x1f)\n      0x1f\n      dup3\n      add\n      and\n      dup3\n      add\n      dup1\n      0x40\n      mstore\n      pop\n      dup2\n      add\n      swap1\n      tag_143\n      swap2\n      swap1\n      tag_84\n      jump\t// in\n    tag_143:\n        /* \"contracts/Reserves.sol\":1321:1351  address token0 = pool.token0() */\n      swap1\n      pop\n        /* \"contracts/Reserves.sol\":1362:1376  address token1 */\n      0x00\n        /* \"contracts/Reserves.sol\":1379:1383  pool */\n      dup3\n        /* \"contracts/Reserves.sol\":1379:1390  pool.token1 */\n      0xffffffffffffffffffffffffffffffffffffffff\n      and\n      0xd21220a7\n        /* \"contracts/Reserves.sol\":1379:1392  pool.token1() */\n      mload(0x40)\n      dup2\n      0xffffffff\n      and\n      0xe0\n      shl\n      dup2\n      mstore\n      0x04\n      add\n      0x20\n      mload(0x40)\n      dup1\n      dup4\n      sub\n      dup2\n      dup7\n      gas\n      staticcall\n      iszero\n      dup1\n      iszero\n      tag_145\n      jumpi\n      returndatasize\n      0x00\n      dup1\n      returndatacopy\n      revert(0x00, returndatasize)\n    tag_145:\n      pop\n      pop\n      pop\n      pop\n      mload(0x40)\n      returndatasize\n      not(0x1f)\n      0x1f\n      dup3\n      add\n      and\n      dup3\n      add\n      dup1\n      0x40\n      mstore\n      pop\n      dup2\n      add\n      swap1\n      tag_146\n      swap2\n      swap1\n      tag_84\n      jump\t// in\n    tag_146:\n        /* \"contracts/Reserves.sol\":1362:1392  address token1 = pool.token1() */\n      swap1\n      pop\n        /* \"contracts/Reserves.sol\":1421:1427  token0 */\n      dup2\n        /* \"contracts/Reserves.sol\":1414:1438  IERC20(token0).balanceOf */\n      0xffffffffffffffffffffffffffffffffffffffff\n      and\n      0x70a08231\n        /* \"contracts/Reserves.sol\":1439:1443  pair */\n      dup8\n        /* \"contracts/Reserves.sol\":1414:1444  IERC20(token0).balanceOf(pair) */\n      mload(0x40)\n      dup3\n      0xffffffff\n      and\n      0xe0\n      shl\n      dup2\n      mstore\n      0x04\n      add\n      tag_147\n      swap2\n      swap1\n      tag_86\n      jump\t// in\n    tag_147:\n      0x20\n      mload(0x40)\n      dup1\n      dup4\n      sub\n      dup2\n      dup7\n      gas\n      staticcall\n      iszero\n      dup1\n      iszero\n      tag_149\n      jumpi\n      returndatasize\n      0x00\n      dup1\n      returndatacopy\n      revert(0x00, returndatasize)\n    tag_149:\n      pop\n      pop\n      pop\n      pop\n      mload(0x40)\n      returndatasize\n      not(0x1f)\n      0x1f\n      dup3\n      add\n      and\n      dup3\n      add\n      dup1\n      0x40\n      mstore\n      pop\n      dup2\n      add\n      swap1\n      tag_150\n      swap2\n      swap1\n      tag_90\n      jump\t// in\n    tag_150:\n        /* \"contracts/Reserves.sol\":1403:1444  reserve0 = IERC20(token0).balanceOf(pair) */\n      swap5\n      pop\n        /* \"contracts/Reserves.sol\":1473:1479  token1 */\n      dup1\n        /* \"contracts/Reserves.sol\":1466:1490  IERC20(token1).balanceOf */\n      0xffffffffffffffffffffffffffffffffffffffff\n      and\n      0x70a08231\n        /* \"contracts/Reserves.sol\":1491:1495  pair */\n      dup8\n        /* \"contracts/Reserves.sol\":1466:1496  IERC20(token1).balanceOf(pair) */\n      mload(0x40)\n      dup3\n      0xffffffff\n      and\n      0xe0\n      shl\n      dup2\n      mstore\n      0x04\n      add\n      tag_151\n      swap2\n      swap1\n      tag_86\n      jump\t// in\n    tag_151:\n      0x20\n      mload(0x40)\n      dup1\n      dup4\n      sub\n      dup2\n      dup7\n      gas\n      staticcall\n      iszero\n      dup1\n      iszero\n      tag_153\n      jumpi\n      returndatasize\n      0x00\n      dup1\n      returndatacopy\n      revert(0x00, returndatasize)\n    tag_153:\n      pop\n      pop\n      pop\n      pop\n      mload(0x40)\n      returndatasize\n      not(0x1f)\n      0x1f\n      dup3\n      add\n      and\n      dup3\n      add\n      dup1\n      0x40\n      mstore\n      pop\n      dup2\n      add\n      swap1\n      tag_154\n      swap2\n      swap1\n      tag_90\n      jump\t// in\n    tag_154:\n        /* \"contracts/Reserves.sol\":1455:1496  reserve1 = IERC20(token1).balanceOf(pair) */\n      swap4\n      pop\n        /* \"contracts/Reserves.sol\":1257:1504  {... */\n      pop\n      pop\n      pop\n        /* \"contracts/Reserves.sol\":1164:1504  function getReservesV2(address pair) public view returns (uint256 reserve0, uint256 reserve1){... */\n      swap2\n      pop\n      swap2\n      jump\t// out\n        /* \"contracts/ArbCalc.sol\":2482:4410  function calcMaxBorrowableAmount(OrderedReserves memory reserves) internal pure returns (uint256 amount) {... */\n    tag_102:\n        /* \"contracts/ArbCalc.sol\":2571:2585  uint256 amount */\n      0x00\n        /* \"contracts/ArbCalc.sol\":2741:2751  int256 min */\n      dup1\n        /* \"contracts/ArbCalc.sol\":2754:2841  MyMathLibrary.min(int256(reserves.a1 * reserves.b2), int256(reserves.b1 * reserves.a2)) */\n      tag_156\n        /* \"contracts/ArbCalc.sol\":2793:2801  reserves */\n      dup4\n        /* \"contracts/ArbCalc.sol\":2793:2804  reserves.b2 */\n      0x60\n      add\n      mload\n        /* \"contracts/ArbCalc.sol\":2779:2787  reserves */\n      dup5\n        /* \"contracts/ArbCalc.sol\":2779:2790  reserves.a1 */\n      0x00\n      add\n      mload\n        /* \"contracts/ArbCalc.sol\":2779:2804  reserves.a1 * reserves.b2 */\n      tag_157\n      swap2\n      swap1\n      tag_66\n      jump\t// in\n    tag_157:\n        /* \"contracts/ArbCalc.sol\":2828:2836  reserves */\n      dup5\n        /* \"contracts/ArbCalc.sol\":2828:2839  reserves.a2 */\n      0x40\n      add\n      mload\n        /* \"contracts/ArbCalc.sol\":2814:2822  reserves */\n      dup6\n        /* \"contracts/ArbCalc.sol\":2814:2825  reserves.b1 */\n      0x20\n      add\n      mload\n        /* \"contracts/ArbCalc.sol\":2814:2839  reserves.b1 * reserves.a2 */\n      tag_158\n      swap2\n      swap1\n      tag_66\n      jump\t// in\n    tag_158:\n        /* \"contracts/ArbCalc.sol\":2754:2771  MyMathLibrary.min */\n      tag_159\n        /* \"contracts/ArbCalc.sol\":2754:2841  MyMathLibrary.min(int256(reserves.a1 * reserves.b2), int256(reserves.b1 * reserves.a2)) */\n      jump\t// in\n    tag_156:\n        /* \"contracts/ArbCalc.sol\":2741:2841  int256 min = MyMathLibrary.min(int256(reserves.a1 * reserves.b2), int256(reserves.b1 * reserves.a2)) */\n      swap1\n      pop\n        /* \"contracts/ArbCalc.sol\":2864:2865  0 */\n      0x00\n        /* \"contracts/ArbCalc.sol\":2857:2860  min */\n      dup2\n        /* \"contracts/ArbCalc.sol\":2857:2865  min <= 0 */\n      sgt\n        /* \"contracts/ArbCalc.sol\":2854:2901  if(min <= 0){... */\n      tag_160\n      jumpi\n        /* \"contracts/ArbCalc.sol\":2888:2889  0 */\n      0x00\n        /* \"contracts/ArbCalc.sol\":2881:2889  return 0 */\n      swap2\n      pop\n      pop\n      jump(tag_155)\n        /* \"contracts/ArbCalc.sol\":2854:2901  if(min <= 0){... */\n    tag_160:\n        /* \"contracts/ArbCalc.sol\":2913:2922  uint256 d */\n      0x00\n        /* \"contracts/ArbCalc.sol\":2943:2947  1e24 */\n      0xd3c21bcecceda1000000\n        /* \"contracts/ArbCalc.sol\":2937:2940  min */\n      dup3\n        /* \"contracts/ArbCalc.sol\":2937:2947  min > 1e24 */\n      sgt\n        /* \"contracts/ArbCalc.sol\":2933:3538  if (min > 1e24) {... */\n      iszero\n      tag_161\n      jumpi\n        /* \"contracts/ArbCalc.sol\":2968:2972  1e20 */\n      0x056bc75e2d63100000\n        /* \"contracts/ArbCalc.sol\":2964:2972  d = 1e20 */\n      swap1\n      pop\n        /* \"contracts/ArbCalc.sol\":2933:3538  if (min > 1e24) {... */\n      jump(tag_162)\n    tag_161:\n        /* \"contracts/ArbCalc.sol\":3000:3004  1e23 */\n      0x152d02c7e14af6800000\n        /* \"contracts/ArbCalc.sol\":2994:2997  min */\n      dup3\n        /* \"contracts/ArbCalc.sol\":2994:3004  min > 1e23 */\n      sgt\n        /* \"contracts/ArbCalc.sol\":2990:3538  if (min > 1e23) {... */\n      iszero\n      tag_163\n      jumpi\n        /* \"contracts/ArbCalc.sol\":3025:3029  1e19 */\n      0x8ac7230489e80000\n        /* \"contracts/ArbCalc.sol\":3021:3029  d = 1e19 */\n      swap1\n      pop\n        /* \"contracts/ArbCalc.sol\":2990:3538  if (min > 1e23) {... */\n      jump(tag_164)\n    tag_163:\n        /* \"contracts/ArbCalc.sol\":3057:3061  1e22 */\n      0x021e19e0c9bab2400000\n        /* \"contracts/ArbCalc.sol\":3051:3054  min */\n      dup3\n        /* \"contracts/ArbCalc.sol\":3051:3061  min > 1e22 */\n      sgt\n        /* \"contracts/ArbCalc.sol\":3047:3538  if (min > 1e22) {... */\n      iszero\n      tag_165\n      jumpi\n        /* \"contracts/ArbCalc.sol\":3082:3086  1e18 */\n      0x0de0b6b3a7640000\n        /* \"contracts/ArbCalc.sol\":3078:3086  d = 1e18 */\n      swap1\n      pop\n        /* \"contracts/ArbCalc.sol\":3047:3538  if (min > 1e22) {... */\n      jump(tag_166)\n    tag_165:\n        /* \"contracts/ArbCalc.sol\":3114:3118  1e21 */\n      0x3635c9adc5dea00000\n        /* \"contracts/ArbCalc.sol\":3108:3111  min */\n      dup3\n        /* \"contracts/ArbCalc.sol\":3108:3118  min > 1e21 */\n      sgt\n        /* \"contracts/ArbCalc.sol\":3104:3538  if (min > 1e21) {... */\n      iszero\n      tag_167\n      jumpi\n        /* \"contracts/ArbCalc.sol\":3139:3143  1e17 */\n      0x016345785d8a0000\n        /* \"contracts/ArbCalc.sol\":3135:3143  d = 1e17 */\n      swap1\n      pop\n        /* \"contracts/ArbCalc.sol\":3104:3538  if (min > 1e21) {... */\n      jump(tag_168)\n    tag_167:\n        /* \"contracts/ArbCalc.sol\":3171:3175  1e20 */\n      0x056bc75e2d63100000\n        /* \"contracts/ArbCalc.sol\":3165:3168  min */\n      dup3\n        /* \"contracts/ArbCalc.sol\":3165:3175  min > 1e20 */\n      sgt\n        /* \"contracts/ArbCalc.sol\":3161:3538  if (min > 1e20) {... */\n      iszero\n      tag_169\n      jumpi\n        /* \"contracts/ArbCalc.sol\":3196:3200  1e16 */\n      0x2386f26fc10000\n        /* \"contracts/ArbCalc.sol\":3192:3200  d = 1e16 */\n      swap1\n      pop\n        /* \"contracts/ArbCalc.sol\":3161:3538  if (min > 1e20) {... */\n      jump(tag_170)\n    tag_169:\n        /* \"contracts/ArbCalc.sol\":3228:3232  1e19 */\n      0x8ac7230489e80000\n        /* \"contracts/ArbCalc.sol\":3222:3225  min */\n      dup3\n        /* \"contracts/ArbCalc.sol\":3222:3232  min > 1e19 */\n      sgt\n        /* \"contracts/ArbCalc.sol\":3218:3538  if (min > 1e19) {... */\n      iszero\n      tag_171\n      jumpi\n        /* \"contracts/ArbCalc.sol\":3253:3257  1e15 */\n      0x038d7ea4c68000\n        /* \"contracts/ArbCalc.sol\":3249:3257  d = 1e15 */\n      swap1\n      pop\n        /* \"contracts/ArbCalc.sol\":3218:3538  if (min > 1e19) {... */\n      jump(tag_172)\n    tag_171:\n        /* \"contracts/ArbCalc.sol\":3285:3289  1e18 */\n      0x0de0b6b3a7640000\n        /* \"contracts/ArbCalc.sol\":3279:3282  min */\n      dup3\n        /* \"contracts/ArbCalc.sol\":3279:3289  min > 1e18 */\n      sgt\n        /* \"contracts/ArbCalc.sol\":3275:3538  if (min > 1e18) {... */\n      iszero\n      tag_173\n      jumpi\n        /* \"contracts/ArbCalc.sol\":3310:3314  1e14 */\n      0x5af3107a4000\n        /* \"contracts/ArbCalc.sol\":3306:3314  d = 1e14 */\n      swap1\n      pop\n        /* \"contracts/ArbCalc.sol\":3275:3538  if (min > 1e18) {... */\n      jump(tag_174)\n    tag_173:\n        /* \"contracts/ArbCalc.sol\":3342:3346  1e17 */\n      0x016345785d8a0000\n        /* \"contracts/ArbCalc.sol\":3336:3339  min */\n      dup3\n        /* \"contracts/ArbCalc.sol\":3336:3346  min > 1e17 */\n      sgt\n        /* \"contracts/ArbCalc.sol\":3332:3538  if (min > 1e17) {... */\n      iszero\n      tag_175\n      jumpi\n        /* \"contracts/ArbCalc.sol\":3367:3371  1e13 */\n      0x09184e72a000\n        /* \"contracts/ArbCalc.sol\":3363:3371  d = 1e13 */\n      swap1\n      pop\n        /* \"contracts/ArbCalc.sol\":3332:3538  if (min > 1e17) {... */\n      jump(tag_176)\n    tag_175:\n        /* \"contracts/ArbCalc.sol\":3399:3403  1e16 */\n      0x2386f26fc10000\n        /* \"contracts/ArbCalc.sol\":3393:3396  min */\n      dup3\n        /* \"contracts/ArbCalc.sol\":3393:3403  min > 1e16 */\n      sgt\n        /* \"contracts/ArbCalc.sol\":3389:3538  if (min > 1e16) {... */\n      iszero\n      tag_177\n      jumpi\n        /* \"contracts/ArbCalc.sol\":3424:3428  1e12 */\n      0xe8d4a51000\n        /* \"contracts/ArbCalc.sol\":3420:3428  d = 1e12 */\n      swap1\n      pop\n        /* \"contracts/ArbCalc.sol\":3389:3538  if (min > 1e16) {... */\n      jump(tag_178)\n    tag_177:\n        /* \"contracts/ArbCalc.sol\":3456:3460  1e15 */\n      0x038d7ea4c68000\n        /* \"contracts/ArbCalc.sol\":3450:3453  min */\n      dup3\n        /* \"contracts/ArbCalc.sol\":3450:3460  min > 1e15 */\n      sgt\n        /* \"contracts/ArbCalc.sol\":3446:3538  if (min > 1e15) {... */\n      iszero\n      tag_179\n      jumpi\n        /* \"contracts/ArbCalc.sol\":3481:3485  1e11 */\n      0x174876e800\n        /* \"contracts/ArbCalc.sol\":3477:3485  d = 1e11 */\n      swap1\n      pop\n        /* \"contracts/ArbCalc.sol\":3446:3538  if (min > 1e15) {... */\n      jump(tag_180)\n    tag_179:\n        /* \"contracts/ArbCalc.sol\":3522:3526  1e10 */\n      0x02540be400\n        /* \"contracts/ArbCalc.sol\":3518:3526  d = 1e10 */\n      swap1\n      pop\n        /* \"contracts/ArbCalc.sol\":3446:3538  if (min > 1e15) {... */\n    tag_180:\n        /* \"contracts/ArbCalc.sol\":3389:3538  if (min > 1e16) {... */\n    tag_178:\n        /* \"contracts/ArbCalc.sol\":3332:3538  if (min > 1e17) {... */\n    tag_176:\n        /* \"contracts/ArbCalc.sol\":3275:3538  if (min > 1e18) {... */\n    tag_174:\n        /* \"contracts/ArbCalc.sol\":3218:3538  if (min > 1e19) {... */\n    tag_172:\n        /* \"contracts/ArbCalc.sol\":3161:3538  if (min > 1e20) {... */\n    tag_170:\n        /* \"contracts/ArbCalc.sol\":3104:3538  if (min > 1e21) {... */\n    tag_168:\n        /* \"contracts/ArbCalc.sol\":3047:3538  if (min > 1e22) {... */\n    tag_166:\n        /* \"contracts/ArbCalc.sol\":2990:3538  if (min > 1e23) {... */\n    tag_164:\n        /* \"contracts/ArbCalc.sol\":2933:3538  if (min > 1e24) {... */\n    tag_162:\n        /* \"contracts/ArbCalc.sol\":3551:3560  int256 a1 */\n      0x00\n        /* \"contracts/ArbCalc.sol\":3562:3571  int256 a2 */\n      dup1\n        /* \"contracts/ArbCalc.sol\":3573:3582  int256 b1 */\n      0x00\n        /* \"contracts/ArbCalc.sol\":3584:3593  int256 b2 */\n      dup1\n        /* \"contracts/ArbCalc.sol\":3632:3633  d */\n      dup5\n        /* \"contracts/ArbCalc.sol\":3618:3626  reserves */\n      dup9\n        /* \"contracts/ArbCalc.sol\":3618:3629  reserves.a1 */\n      0x00\n      add\n      mload\n        /* \"contracts/ArbCalc.sol\":3618:3633  reserves.a1 / d */\n      tag_181\n      swap2\n      swap1\n      tag_64\n      jump\t// in\n    tag_181:\n        /* \"contracts/ArbCalc.sol\":3657:3658  d */\n      dup6\n        /* \"contracts/ArbCalc.sol\":3643:3651  reserves */\n      dup10\n        /* \"contracts/ArbCalc.sol\":3643:3654  reserves.a2 */\n      0x40\n      add\n      mload\n        /* \"contracts/ArbCalc.sol\":3643:3658  reserves.a2 / d */\n      tag_182\n      swap2\n      swap1\n      tag_64\n      jump\t// in\n    tag_182:\n        /* \"contracts/ArbCalc.sol\":3682:3683  d */\n      dup7\n        /* \"contracts/ArbCalc.sol\":3668:3676  reserves */\n      dup11\n        /* \"contracts/ArbCalc.sol\":3668:3679  reserves.b1 */\n      0x20\n      add\n      mload\n        /* \"contracts/ArbCalc.sol\":3668:3683  reserves.b1 / d */\n      tag_183\n      swap2\n      swap1\n      tag_64\n      jump\t// in\n    tag_183:\n        /* \"contracts/ArbCalc.sol\":3707:3708  d */\n      dup8\n        /* \"contracts/ArbCalc.sol\":3693:3701  reserves */\n      dup12\n        /* \"contracts/ArbCalc.sol\":3693:3704  reserves.b2 */\n      0x60\n      add\n      mload\n        /* \"contracts/ArbCalc.sol\":3693:3708  reserves.b2 / d */\n      tag_184\n      swap2\n      swap1\n      tag_64\n      jump\t// in\n    tag_184:\n        /* \"contracts/ArbCalc.sol\":3550:3710  (int256 a1, int256 a2, int256 b1, int256 b2) =... */\n      swap4\n      pop\n      swap4\n      pop\n      swap4\n      pop\n      swap4\n      pop\n        /* \"contracts/ArbCalc.sol\":3838:3840  b2 */\n      dup1\n        /* \"contracts/ArbCalc.sol\":3833:3835  a2 */\n      dup4\n        /* \"contracts/ArbCalc.sol\":3833:3840  a2 < b2 */\n      slt\n        /* \"contracts/ArbCalc.sol\":3825:3862  require(a2 < b2, 'Wrong input order') */\n      tag_185\n      jumpi\n      mload(0x40)\n      0x08c379a000000000000000000000000000000000000000000000000000000000\n      dup2\n      mstore\n      0x04\n      add\n      tag_186\n      swap1\n      tag_187\n      jump\t// in\n    tag_186:\n      mload(0x40)\n      dup1\n      swap2\n      sub\n      swap1\n      revert\n    tag_185:\n        /* \"contracts/ArbCalc.sol\":3883:3893  int256 max */\n      0x00\n        /* \"contracts/ArbCalc.sol\":3896:3987  MyMathLibrary.max(MyMathLibrary.abs((a1 * b2) - (b1 * a2)),MyMathLibrary.abs( ((a1 * b2)))) */\n      tag_188\n        /* \"contracts/ArbCalc.sol\":3914:3954  MyMathLibrary.abs((a1 * b2) - (b1 * a2)) */\n      tag_189\n        /* \"contracts/ArbCalc.sol\":3950:3952  a2 */\n      dup6\n        /* \"contracts/ArbCalc.sol\":3945:3947  b1 */\n      dup6\n        /* \"contracts/ArbCalc.sol\":3945:3952  b1 * a2 */\n      tag_190\n      swap2\n      swap1\n      tag_191\n      jump\t// in\n    tag_190:\n        /* \"contracts/ArbCalc.sol\":3938:3940  b2 */\n      dup5\n        /* \"contracts/ArbCalc.sol\":3933:3935  a1 */\n      dup9\n        /* \"contracts/ArbCalc.sol\":3933:3940  a1 * b2 */\n      tag_192\n      swap2\n      swap1\n      tag_191\n      jump\t// in\n    tag_192:\n        /* \"contracts/ArbCalc.sol\":3932:3953  (a1 * b2) - (b1 * a2) */\n      tag_193\n      swap2\n      swap1\n      tag_194\n      jump\t// in\n    tag_193:\n        /* \"contracts/ArbCalc.sol\":3914:3931  MyMathLibrary.abs */\n      tag_195\n        /* \"contracts/ArbCalc.sol\":3914:3954  MyMathLibrary.abs((a1 * b2) - (b1 * a2)) */\n      jump\t// in\n    tag_189:\n        /* \"contracts/ArbCalc.sol\":3955:3986  MyMathLibrary.abs( ((a1 * b2))) */\n      tag_196\n        /* \"contracts/ArbCalc.sol\":3981:3983  b2 */\n      dup5\n        /* \"contracts/ArbCalc.sol\":3976:3978  a1 */\n      dup9\n        /* \"contracts/ArbCalc.sol\":3976:3983  a1 * b2 */\n      tag_197\n      swap2\n      swap1\n      tag_191\n      jump\t// in\n    tag_197:\n        /* \"contracts/ArbCalc.sol\":3955:3972  MyMathLibrary.abs */\n      tag_195\n        /* \"contracts/ArbCalc.sol\":3955:3986  MyMathLibrary.abs( ((a1 * b2))) */\n      jump\t// in\n    tag_196:\n        /* \"contracts/ArbCalc.sol\":3896:3913  MyMathLibrary.max */\n      tag_198\n        /* \"contracts/ArbCalc.sol\":3896:3987  MyMathLibrary.max(MyMathLibrary.abs((a1 * b2) - (b1 * a2)),MyMathLibrary.abs( ((a1 * b2)))) */\n      jump\t// in\n    tag_188:\n        /* \"contracts/ArbCalc.sol\":3883:3987  int256 max = MyMathLibrary.max(MyMathLibrary.abs((a1 * b2) - (b1 * a2)),MyMathLibrary.abs( ((a1 * b2)))) */\n      swap1\n      pop\n        /* \"contracts/ArbCalc.sol\":4026:4027  0 */\n      0x00\n        /* \"contracts/ArbCalc.sol\":4019:4022  max */\n      dup2\n        /* \"contracts/ArbCalc.sol\":4019:4027  max == 0 */\n      sub\n        /* \"contracts/ArbCalc.sol\":4016:4071  if(max == 0){... */\n      tag_199\n      jumpi\n        /* \"contracts/ArbCalc.sol\":4054:4055  0 */\n      0x00\n        /* \"contracts/ArbCalc.sol\":4047:4055  return 0 */\n      swap8\n      pop\n      pop\n      pop\n      pop\n      pop\n      pop\n      pop\n      pop\n      jump(tag_155)\n        /* \"contracts/ArbCalc.sol\":4016:4071  if(max == 0){... */\n    tag_199:\n        /* \"contracts/ArbCalc.sol\":4212:4235  int256 borrowableAmount */\n      0x00\n        /* \"contracts/ArbCalc.sol\":4238:4279  MyMathLibrary.min(min, (max / max) * min) */\n      tag_200\n        /* \"contracts/ArbCalc.sol\":4256:4259  min */\n      dup9\n        /* \"contracts/ArbCalc.sol\":4275:4278  min */\n      dup10\n        /* \"contracts/ArbCalc.sol\":4268:4271  max */\n      dup5\n        /* \"contracts/ArbCalc.sol\":4262:4265  max */\n      dup6\n        /* \"contracts/ArbCalc.sol\":4262:4271  max / max */\n      tag_201\n      swap2\n      swap1\n      tag_202\n      jump\t// in\n    tag_201:\n        /* \"contracts/ArbCalc.sol\":4261:4278  (max / max) * min */\n      tag_203\n      swap2\n      swap1\n      tag_191\n      jump\t// in\n    tag_203:\n        /* \"contracts/ArbCalc.sol\":4238:4255  MyMathLibrary.min */\n      tag_159\n        /* \"contracts/ArbCalc.sol\":4238:4279  MyMathLibrary.min(min, (max / max) * min) */\n      jump\t// in\n    tag_200:\n        /* \"contracts/ArbCalc.sol\":4212:4279  int256 borrowableAmount = MyMathLibrary.min(min, (max / max) * min) */\n      swap1\n      pop\n        /* \"contracts/ArbCalc.sol\":4327:4328  0 */\n      0x00\n        /* \"contracts/ArbCalc.sol\":4308:4324  borrowableAmount */\n      dup2\n        /* \"contracts/ArbCalc.sol\":4308:4328  borrowableAmount > 0 */\n      sgt\n        /* \"contracts/ArbCalc.sol\":4300:4349  require(borrowableAmount > 0,'Wrong input order') */\n      tag_204\n      jumpi\n      mload(0x40)\n      0x08c379a000000000000000000000000000000000000000000000000000000000\n      dup2\n      mstore\n      0x04\n      add\n      tag_205\n      swap1\n      tag_187\n      jump\t// in\n    tag_205:\n      mload(0x40)\n      dup1\n      swap2\n      sub\n      swap1\n      revert\n    tag_204:\n        /* \"contracts/ArbCalc.sol\":4385:4401  borrowableAmount */\n      dup1\n        /* \"contracts/ArbCalc.sol\":4370:4402  return uint256(borrowableAmount) */\n      swap9\n      pop\n      pop\n      pop\n      pop\n      pop\n      pop\n      pop\n      pop\n      pop\n        /* \"contracts/ArbCalc.sol\":2482:4410  function calcMaxBorrowableAmount(OrderedReserves memory reserves) internal pure returns (uint256 amount) {... */\n    tag_155:\n      swap2\n      swap1\n      pop\n      jump\t// out\n        /* \"contracts/libraries/Math.sol\":207:448  function min(int256 a1,int256 b2)internal pure  returns (int256){... */\n    tag_159:\n        /* \"contracts/libraries/Math.sol\":264:270  int256 */\n      0x00\n        /* \"contracts/libraries/Math.sol\":296:298  b2 */\n      dup2\n        /* \"contracts/libraries/Math.sol\":291:293  a1 */\n      dup4\n        /* \"contracts/libraries/Math.sol\":291:298  a1 <=b2 */\n      sgt\n      iszero\n        /* \"contracts/libraries/Math.sol\":283:320  require(a1 <=b2,\"a is bigger than b\") */\n      tag_207\n      jumpi\n      mload(0x40)\n      0x08c379a000000000000000000000000000000000000000000000000000000000\n      dup2\n      mstore\n      0x04\n      add\n      tag_208\n      swap1\n      tag_209\n      jump\t// in\n    tag_208:\n      mload(0x40)\n      dup1\n      swap2\n      sub\n      swap1\n      revert\n    tag_207:\n        /* \"contracts/libraries/Math.sol\":340:341  0 */\n      0x00\n        /* \"contracts/libraries/Math.sol\":336:338  b2 */\n      dup3\n        /* \"contracts/libraries/Math.sol\":336:341  b2==0 */\n      sub\n        /* \"contracts/libraries/Math.sol\":333:406  if(b2==0)... */\n      tag_210\n      jumpi\n        /* \"contracts/libraries/Math.sol\":364:369  false */\n      0x00\n        /* \"contracts/libraries/Math.sol\":356:394  require(false, \"Can't divide by zero\") */\n      tag_211\n      jumpi\n      mload(0x40)\n      0x08c379a000000000000000000000000000000000000000000000000000000000\n      dup2\n      mstore\n      0x04\n      add\n      tag_212\n      swap1\n      tag_213\n      jump\t// in\n    tag_212:\n      mload(0x40)\n      dup1\n      swap2\n      sub\n      swap1\n      revert\n    tag_211:\n        /* \"contracts/libraries/Math.sol\":396:404  revert() */\n      0x00\n      dup1\n      revert\n        /* \"contracts/libraries/Math.sol\":333:406  if(b2==0)... */\n    tag_210:\n        /* \"contracts/libraries/Math.sol\":428:430  b2 */\n      dup2\n        /* \"contracts/libraries/Math.sol\":423:425  a1 */\n      dup4\n        /* \"contracts/libraries/Math.sol\":423:430  a1 < b2 */\n      slt\n        /* \"contracts/libraries/Math.sol\":423:440  a1 < b2 ? a1 : b2 */\n      tag_214\n      jumpi\n        /* \"contracts/libraries/Math.sol\":438:440  b2 */\n      dup2\n        /* \"contracts/libraries/Math.sol\":423:440  a1 < b2 ? a1 : b2 */\n      jump(tag_215)\n    tag_214:\n        /* \"contracts/libraries/Math.sol\":433:435  a1 */\n      dup3\n        /* \"contracts/libraries/Math.sol\":423:440  a1 < b2 ? a1 : b2 */\n    tag_215:\n        /* \"contracts/libraries/Math.sol\":416:440  return a1 < b2 ? a1 : b2 */\n      swap1\n      pop\n        /* \"contracts/libraries/Math.sol\":207:448  function min(int256 a1,int256 b2)internal pure  returns (int256){... */\n      swap3\n      swap2\n      pop\n      pop\n      jump\t// out\n        /* \"contracts/libraries/Math.sol\":455:589  function abs(int256 x) internal pure returns (int256){... */\n    tag_195:\n        /* \"contracts/libraries/Math.sol\":501:507  int256 */\n      0x00\n        /* \"contracts/libraries/Math.sol\":531:532  0 */\n      dup1\n        /* \"contracts/libraries/Math.sol\":526:527  x */\n      dup3\n        /* \"contracts/libraries/Math.sol\":526:532  x >= 0 */\n      slt\n      iszero\n        /* \"contracts/libraries/Math.sol\":518:533  require(x >= 0) */\n      tag_217\n      jumpi\n      0x00\n      dup1\n      revert\n    tag_217:\n        /* \"contracts/libraries/Math.sol\":563:564  0 */\n      0x00\n        /* \"contracts/libraries/Math.sol\":551:552  x */\n      dup3\n        /* \"contracts/libraries/Math.sol\":551:565  x == int256(0) */\n      eq\n        /* \"contracts/libraries/Math.sol\":551:579  x == int256(0) ? int256(0):x */\n      tag_218\n      jumpi\n        /* \"contracts/libraries/Math.sol\":578:579  x */\n      dup2\n        /* \"contracts/libraries/Math.sol\":551:579  x == int256(0) ? int256(0):x */\n      jump(tag_219)\n    tag_218:\n        /* \"contracts/libraries/Math.sol\":575:576  0 */\n      0x00\n        /* \"contracts/libraries/Math.sol\":551:579  x == int256(0) ? int256(0):x */\n    tag_219:\n        /* \"contracts/libraries/Math.sol\":544:579  return x == int256(0) ? int256(0):x */\n      swap1\n      pop\n        /* \"contracts/libraries/Math.sol\":455:589  function abs(int256 x) internal pure returns (int256){... */\n      swap2\n      swap1\n      pop\n      jump\t// out\n        /* \"contracts/libraries/Math.sol\":96:199  function max(int256 x, int256 y) internal pure returns (int256) {... */\n    tag_198:\n        /* \"contracts/libraries/Math.sol\":152:158  int256 */\n      0x00\n        /* \"contracts/libraries/Math.sol\":182:183  y */\n      dup2\n        /* \"contracts/libraries/Math.sol\":178:179  x */\n      dup4\n        /* \"contracts/libraries/Math.sol\":178:183  x > y */\n      sgt\n        /* \"contracts/libraries/Math.sol\":178:191  x > y ? x : y */\n      tag_221\n      jumpi\n        /* \"contracts/libraries/Math.sol\":190:191  y */\n      dup2\n        /* \"contracts/libraries/Math.sol\":178:191  x > y ? x : y */\n      jump(tag_222)\n    tag_221:\n        /* \"contracts/libraries/Math.sol\":186:187  x */\n      dup3\n        /* \"contracts/libraries/Math.sol\":178:191  x > y ? x : y */\n    tag_222:\n        /* \"contracts/libraries/Math.sol\":171:191  return x > y ? x : y */\n      swap1\n      pop\n        /* \"contracts/libraries/Math.sol\":96:199  function max(int256 x, int256 y) internal pure returns (int256) {... */\n      swap3\n      swap2\n      pop\n      pop\n      jump\t// out\n    tag_98:\n      mload(0x40)\n      dup1\n      0x80\n      add\n      0x40\n      mstore\n      dup1\n      0x00\n      dup2\n      mstore\n      0x20\n      add\n      0x00\n      dup2\n      mstore\n      0x20\n      add\n      0x00\n      dup2\n      mstore\n      0x20\n      add\n      0x00\n      dup2\n      mstore\n      pop\n      swap1\n      jump\t// out\n        /* \"#utility.yul\":88:205   */\n    tag_224:\n        /* \"#utility.yul\":197:198   */\n      0x00\n        /* \"#utility.yul\":194:195   */\n      dup1\n        /* \"#utility.yul\":187:199   */\n      revert\n        /* \"#utility.yul\":334:460   */\n    tag_226:\n        /* \"#utility.yul\":371:378   */\n      0x00\n        /* \"#utility.yul\":411:453   */\n      0xffffffffffffffffffffffffffffffffffffffff\n        /* \"#utility.yul\":404:409   */\n      dup3\n        /* \"#utility.yul\":400:454   */\n      and\n        /* \"#utility.yul\":389:454   */\n      swap1\n      pop\n        /* \"#utility.yul\":334:460   */\n      swap2\n      swap1\n      pop\n      jump\t// out\n        /* \"#utility.yul\":466:562   */\n    tag_227:\n        /* \"#utility.yul\":503:510   */\n      0x00\n        /* \"#utility.yul\":532:556   */\n      tag_269\n        /* \"#utility.yul\":550:555   */\n      dup3\n        /* \"#utility.yul\":532:556   */\n      tag_226\n      jump\t// in\n    tag_269:\n        /* \"#utility.yul\":521:556   */\n      swap1\n      pop\n        /* \"#utility.yul\":466:562   */\n      swap2\n      swap1\n      pop\n      jump\t// out\n        /* \"#utility.yul\":568:690   */\n    tag_228:\n        /* \"#utility.yul\":641:665   */\n      tag_271\n        /* \"#utility.yul\":659:664   */\n      dup2\n        /* \"#utility.yul\":641:665   */\n      tag_227\n      jump\t// in\n    tag_271:\n        /* \"#utility.yul\":634:639   */\n      dup2\n        /* \"#utility.yul\":631:666   */\n      eq\n        /* \"#utility.yul\":621:684   */\n      tag_272\n      jumpi\n        /* \"#utility.yul\":680:681   */\n      0x00\n        /* \"#utility.yul\":677:678   */\n      dup1\n        /* \"#utility.yul\":670:682   */\n      revert\n        /* \"#utility.yul\":621:684   */\n    tag_272:\n        /* \"#utility.yul\":568:690   */\n      pop\n      jump\t// out\n        /* \"#utility.yul\":696:835   */\n    tag_229:\n        /* \"#utility.yul\":742:747   */\n      0x00\n        /* \"#utility.yul\":780:786   */\n      dup2\n        /* \"#utility.yul\":767:787   */\n      calldataload\n        /* \"#utility.yul\":758:787   */\n      swap1\n      pop\n        /* \"#utility.yul\":796:829   */\n      tag_274\n        /* \"#utility.yul\":823:828   */\n      dup2\n        /* \"#utility.yul\":796:829   */\n      tag_228\n      jump\t// in\n    tag_274:\n        /* \"#utility.yul\":696:835   */\n      swap3\n      swap2\n      pop\n      pop\n      jump\t// out\n        /* \"#utility.yul\":841:1315   */\n    tag_16:\n        /* \"#utility.yul\":909:915   */\n      0x00\n        /* \"#utility.yul\":917:923   */\n      dup1\n        /* \"#utility.yul\":966:968   */\n      0x40\n        /* \"#utility.yul\":954:963   */\n      dup4\n        /* \"#utility.yul\":945:952   */\n      dup6\n        /* \"#utility.yul\":941:964   */\n      sub\n        /* \"#utility.yul\":937:969   */\n      slt\n        /* \"#utility.yul\":934:1053   */\n      iszero\n      tag_276\n      jumpi\n        /* \"#utility.yul\":972:1051   */\n      tag_277\n      tag_224\n      jump\t// in\n    tag_277:\n        /* \"#utility.yul\":934:1053   */\n    tag_276:\n        /* \"#utility.yul\":1092:1093   */\n      0x00\n        /* \"#utility.yul\":1117:1170   */\n      tag_278\n        /* \"#utility.yul\":1162:1169   */\n      dup6\n        /* \"#utility.yul\":1153:1159   */\n      dup3\n        /* \"#utility.yul\":1142:1151   */\n      dup7\n        /* \"#utility.yul\":1138:1160   */\n      add\n        /* \"#utility.yul\":1117:1170   */\n      tag_229\n      jump\t// in\n    tag_278:\n        /* \"#utility.yul\":1107:1170   */\n      swap3\n      pop\n        /* \"#utility.yul\":1063:1180   */\n      pop\n        /* \"#utility.yul\":1219:1221   */\n      0x20\n        /* \"#utility.yul\":1245:1298   */\n      tag_279\n        /* \"#utility.yul\":1290:1297   */\n      dup6\n        /* \"#utility.yul\":1281:1287   */\n      dup3\n        /* \"#utility.yul\":1270:1279   */\n      dup7\n        /* \"#utility.yul\":1266:1288   */\n      add\n        /* \"#utility.yul\":1245:1298   */\n      tag_229\n      jump\t// in\n    tag_279:\n        /* \"#utility.yul\":1235:1298   */\n      swap2\n      pop\n        /* \"#utility.yul\":1190:1308   */\n      pop\n        /* \"#utility.yul\":841:1315   */\n      swap3\n      pop\n      swap3\n      swap1\n      pop\n      jump\t// out\n        /* \"#utility.yul\":1321:1398   */\n    tag_230:\n        /* \"#utility.yul\":1358:1365   */\n      0x00\n        /* \"#utility.yul\":1387:1392   */\n      dup2\n        /* \"#utility.yul\":1376:1392   */\n      swap1\n      pop\n        /* \"#utility.yul\":1321:1398   */\n      swap2\n      swap1\n      pop\n      jump\t// out\n        /* \"#utility.yul\":1404:1522   */\n    tag_231:\n        /* \"#utility.yul\":1491:1515   */\n      tag_282\n        /* \"#utility.yul\":1509:1514   */\n      dup2\n        /* \"#utility.yul\":1491:1515   */\n      tag_230\n      jump\t// in\n    tag_282:\n        /* \"#utility.yul\":1486:1489   */\n      dup3\n        /* \"#utility.yul\":1479:1516   */\n      mstore\n        /* \"#utility.yul\":1404:1522   */\n      pop\n      pop\n      jump\t// out\n        /* \"#utility.yul\":1528:1750   */\n    tag_19:\n        /* \"#utility.yul\":1621:1625   */\n      0x00\n        /* \"#utility.yul\":1659:1661   */\n      0x20\n        /* \"#utility.yul\":1648:1657   */\n      dup3\n        /* \"#utility.yul\":1644:1662   */\n      add\n        /* \"#utility.yul\":1636:1662   */\n      swap1\n      pop\n        /* \"#utility.yul\":1672:1743   */\n      tag_284\n        /* \"#utility.yul\":1740:1741   */\n      0x00\n        /* \"#utility.yul\":1729:1738   */\n      dup4\n        /* \"#utility.yul\":1725:1742   */\n      add\n        /* \"#utility.yul\":1716:1722   */\n      dup5\n        /* \"#utility.yul\":1672:1743   */\n      tag_231\n      jump\t// in\n    tag_284:\n        /* \"#utility.yul\":1528:1750   */\n      swap3\n      swap2\n      pop\n      pop\n      jump\t// out\n        /* \"#utility.yul\":1756:2085   */\n    tag_22:\n        /* \"#utility.yul\":1815:1821   */\n      0x00\n        /* \"#utility.yul\":1864:1866   */\n      0x20\n        /* \"#utility.yul\":1852:1861   */\n      dup3\n        /* \"#utility.yul\":1843:1850   */\n      dup5\n        /* \"#utility.yul\":1839:1862   */\n      sub\n        /* \"#utility.yul\":1835:1867   */\n      slt\n        /* \"#utility.yul\":1832:1951   */\n      iszero\n      tag_286\n      jumpi\n        /* \"#utility.yul\":1870:1949   */\n      tag_287\n      tag_224\n      jump\t// in\n    tag_287:\n        /* \"#utility.yul\":1832:1951   */\n    tag_286:\n        /* \"#utility.yul\":1990:1991   */\n      0x00\n        /* \"#utility.yul\":2015:2068   */\n      tag_288\n        /* \"#utility.yul\":2060:2067   */\n      dup5\n        /* \"#utility.yul\":2051:2057   */\n      dup3\n        /* \"#utility.yul\":2040:2049   */\n      dup6\n        /* \"#utility.yul\":2036:2058   */\n      add\n        /* \"#utility.yul\":2015:2068   */\n      tag_229\n      jump\t// in\n    tag_288:\n        /* \"#utility.yul\":2005:2068   */\n      swap2\n      pop\n        /* \"#utility.yul\":1961:2078   */\n      pop\n        /* \"#utility.yul\":1756:2085   */\n      swap3\n      swap2\n      pop\n      pop\n      jump\t// out\n        /* \"#utility.yul\":2091:2423   */\n    tag_25:\n        /* \"#utility.yul\":2212:2216   */\n      0x00\n        /* \"#utility.yul\":2250:2252   */\n      0x40\n        /* \"#utility.yul\":2239:2248   */\n      dup3\n        /* \"#utility.yul\":2235:2253   */\n      add\n        /* \"#utility.yul\":2227:2253   */\n      swap1\n      pop\n        /* \"#utility.yul\":2263:2334   */\n      tag_290\n        /* \"#utility.yul\":2331:2332   */\n      0x00\n        /* \"#utility.yul\":2320:2329   */\n      dup4\n        /* \"#utility.yul\":2316:2333   */\n      add\n        /* \"#utility.yul\":2307:2313   */\n      dup6\n        /* \"#utility.yul\":2263:2334   */\n      tag_231\n      jump\t// in\n    tag_290:\n        /* \"#utility.yul\":2344:2416   */\n      tag_291\n        /* \"#utility.yul\":2412:2414   */\n      0x20\n        /* \"#utility.yul\":2401:2410   */\n      dup4\n        /* \"#utility.yul\":2397:2415   */\n      add\n        /* \"#utility.yul\":2388:2394   */\n      dup5\n        /* \"#utility.yul\":2344:2416   */\n      tag_231\n      jump\t// in\n    tag_291:\n        /* \"#utility.yul\":2091:2423   */\n      swap4\n      swap3\n      pop\n      pop\n      pop\n      jump\t// out\n        /* \"#utility.yul\":2429:2609   */\n    tag_232:\n        /* \"#utility.yul\":2477:2554   */\n      0x4e487b7100000000000000000000000000000000000000000000000000000000\n        /* \"#utility.yul\":2474:2475   */\n      0x00\n        /* \"#utility.yul\":2467:2555   */\n      mstore\n        /* \"#utility.yul\":2574:2578   */\n      0x11\n        /* \"#utility.yul\":2571:2572   */\n      0x04\n        /* \"#utility.yul\":2564:2579   */\n      mstore\n        /* \"#utility.yul\":2598:2602   */\n      0x24\n        /* \"#utility.yul\":2595:2596   */\n      0x00\n        /* \"#utility.yul\":2588:2603   */\n      revert\n        /* \"#utility.yul\":2615:2806   */\n    tag_62:\n        /* \"#utility.yul\":2655:2658   */\n      0x00\n        /* \"#utility.yul\":2674:2694   */\n      tag_294\n        /* \"#utility.yul\":2692:2693   */\n      dup3\n        /* \"#utility.yul\":2674:2694   */\n      tag_230\n      jump\t// in\n    tag_294:\n        /* \"#utility.yul\":2669:2694   */\n      swap2\n      pop\n        /* \"#utility.yul\":2708:2728   */\n      tag_295\n        /* \"#utility.yul\":2726:2727   */\n      dup4\n        /* \"#utility.yul\":2708:2728   */\n      tag_230\n      jump\t// in\n    tag_295:\n        /* \"#utility.yul\":2703:2728   */\n      swap3\n      pop\n        /* \"#utility.yul\":2751:2752   */\n      dup3\n        /* \"#utility.yul\":2748:2749   */\n      dup3\n        /* \"#utility.yul\":2744:2753   */\n      add\n        /* \"#utility.yul\":2737:2753   */\n      swap1\n      pop\n        /* \"#utility.yul\":2772:2775   */\n      dup1\n        /* \"#utility.yul\":2769:2770   */\n      dup3\n        /* \"#utility.yul\":2766:2776   */\n      gt\n        /* \"#utility.yul\":2763:2799   */\n      iszero\n      tag_296\n      jumpi\n        /* \"#utility.yul\":2779:2797   */\n      tag_297\n      tag_232\n      jump\t// in\n    tag_297:\n        /* \"#utility.yul\":2763:2799   */\n    tag_296:\n        /* \"#utility.yul\":2615:2806   */\n      swap3\n      swap2\n      pop\n      pop\n      jump\t// out\n        /* \"#utility.yul\":2812:2992   */\n    tag_233:\n        /* \"#utility.yul\":2860:2937   */\n      0x4e487b7100000000000000000000000000000000000000000000000000000000\n        /* \"#utility.yul\":2857:2858   */\n      0x00\n        /* \"#utility.yul\":2850:2938   */\n      mstore\n        /* \"#utility.yul\":2957:2961   */\n      0x12\n        /* \"#utility.yul\":2954:2955   */\n      0x04\n        /* \"#utility.yul\":2947:2962   */\n      mstore\n        /* \"#utility.yul\":2981:2985   */\n      0x24\n        /* \"#utility.yul\":2978:2979   */\n      0x00\n        /* \"#utility.yul\":2971:2986   */\n      revert\n        /* \"#utility.yul\":2998:3183   */\n    tag_64:\n        /* \"#utility.yul\":3038:3039   */\n      0x00\n        /* \"#utility.yul\":3055:3075   */\n      tag_300\n        /* \"#utility.yul\":3073:3074   */\n      dup3\n        /* \"#utility.yul\":3055:3075   */\n      tag_230\n      jump\t// in\n    tag_300:\n        /* \"#utility.yul\":3050:3075   */\n      swap2\n      pop\n        /* \"#utility.yul\":3089:3109   */\n      tag_301\n        /* \"#utility.yul\":3107:3108   */\n      dup4\n        /* \"#utility.yul\":3089:3109   */\n      tag_230\n      jump\t// in\n    tag_301:\n        /* \"#utility.yul\":3084:3109   */\n      swap3\n      pop\n        /* \"#utility.yul\":3128:3129   */\n      dup3\n        /* \"#utility.yul\":3118:3153   */\n      tag_302\n      jumpi\n        /* \"#utility.yul\":3133:3151   */\n      tag_303\n      tag_233\n      jump\t// in\n    tag_303:\n        /* \"#utility.yul\":3118:3153   */\n    tag_302:\n        /* \"#utility.yul\":3175:3176   */\n      dup3\n        /* \"#utility.yul\":3172:3173   */\n      dup3\n        /* \"#utility.yul\":3168:3177   */\n      div\n        /* \"#utility.yul\":3163:3177   */\n      swap1\n      pop\n        /* \"#utility.yul\":2998:3183   */\n      swap3\n      swap2\n      pop\n      pop\n      jump\t// out\n        /* \"#utility.yul\":3189:3599   */\n    tag_66:\n        /* \"#utility.yul\":3229:3236   */\n      0x00\n        /* \"#utility.yul\":3252:3272   */\n      tag_305\n        /* \"#utility.yul\":3270:3271   */\n      dup3\n        /* \"#utility.yul\":3252:3272   */\n      tag_230\n      jump\t// in\n    tag_305:\n        /* \"#utility.yul\":3247:3272   */\n      swap2\n      pop\n        /* \"#utility.yul\":3286:3306   */\n      tag_306\n        /* \"#utility.yul\":3304:3305   */\n      dup4\n        /* \"#utility.yul\":3286:3306   */\n      tag_230\n      jump\t// in\n    tag_306:\n        /* \"#utility.yul\":3281:3306   */\n      swap3\n      pop\n        /* \"#utility.yul\":3341:3342   */\n      dup3\n        /* \"#utility.yul\":3338:3339   */\n      dup3\n        /* \"#utility.yul\":3334:3343   */\n      mul\n        /* \"#utility.yul\":3363:3393   */\n      tag_307\n        /* \"#utility.yul\":3381:3392   */\n      dup2\n        /* \"#utility.yul\":3363:3393   */\n      tag_230\n      jump\t// in\n    tag_307:\n        /* \"#utility.yul\":3352:3393   */\n      swap2\n      pop\n        /* \"#utility.yul\":3542:3543   */\n      dup3\n        /* \"#utility.yul\":3533:3540   */\n      dup3\n        /* \"#utility.yul\":3529:3544   */\n      div\n        /* \"#utility.yul\":3526:3527   */\n      dup5\n        /* \"#utility.yul\":3523:3545   */\n      eq\n        /* \"#utility.yul\":3503:3504   */\n      dup4\n        /* \"#utility.yul\":3496:3505   */\n      iszero\n        /* \"#utility.yul\":3476:3559   */\n      or\n        /* \"#utility.yul\":3453:3592   */\n      tag_308\n      jumpi\n        /* \"#utility.yul\":3572:3590   */\n      tag_309\n      tag_232\n      jump\t// in\n    tag_309:\n        /* \"#utility.yul\":3453:3592   */\n    tag_308:\n        /* \"#utility.yul\":3237:3599   */\n      pop\n        /* \"#utility.yul\":3189:3599   */\n      swap3\n      swap2\n      pop\n      pop\n      jump\t// out\n        /* \"#utility.yul\":3605:3799   */\n    tag_68:\n        /* \"#utility.yul\":3645:3649   */\n      0x00\n        /* \"#utility.yul\":3665:3685   */\n      tag_311\n        /* \"#utility.yul\":3683:3684   */\n      dup3\n        /* \"#utility.yul\":3665:3685   */\n      tag_230\n      jump\t// in\n    tag_311:\n        /* \"#utility.yul\":3660:3685   */\n      swap2\n      pop\n        /* \"#utility.yul\":3699:3719   */\n      tag_312\n        /* \"#utility.yul\":3717:3718   */\n      dup4\n        /* \"#utility.yul\":3699:3719   */\n      tag_230\n      jump\t// in\n    tag_312:\n        /* \"#utility.yul\":3694:3719   */\n      swap3\n      pop\n        /* \"#utility.yul\":3743:3744   */\n      dup3\n        /* \"#utility.yul\":3740:3741   */\n      dup3\n        /* \"#utility.yul\":3736:3745   */\n      sub\n        /* \"#utility.yul\":3728:3745   */\n      swap1\n      pop\n        /* \"#utility.yul\":3767:3768   */\n      dup2\n        /* \"#utility.yul\":3761:3765   */\n      dup2\n        /* \"#utility.yul\":3758:3769   */\n      gt\n        /* \"#utility.yul\":3755:3792   */\n      iszero\n      tag_313\n      jumpi\n        /* \"#utility.yul\":3772:3790   */\n      tag_314\n      tag_232\n      jump\t// in\n    tag_314:\n        /* \"#utility.yul\":3755:3792   */\n    tag_313:\n        /* \"#utility.yul\":3605:3799   */\n      swap3\n      swap2\n      pop\n      pop\n      jump\t// out\n        /* \"#utility.yul\":3805:3927   */\n    tag_234:\n        /* \"#utility.yul\":3878:3902   */\n      tag_316\n        /* \"#utility.yul\":3896:3901   */\n      dup2\n        /* \"#utility.yul\":3878:3902   */\n      tag_226\n      jump\t// in\n    tag_316:\n        /* \"#utility.yul\":3871:3876   */\n      dup2\n        /* \"#utility.yul\":3868:3903   */\n      eq\n        /* \"#utility.yul\":3858:3921   */\n      tag_317\n      jumpi\n        /* \"#utility.yul\":3917:3918   */\n      0x00\n        /* \"#utility.yul\":3914:3915   */\n      dup1\n        /* \"#utility.yul\":3907:3919   */\n      revert\n        /* \"#utility.yul\":3858:3921   */\n    tag_317:\n        /* \"#utility.yul\":3805:3927   */\n      pop\n      jump\t// out\n        /* \"#utility.yul\":3933:4076   */\n    tag_235:\n        /* \"#utility.yul\":3990:3995   */\n      0x00\n        /* \"#utility.yul\":4021:4027   */\n      dup2\n        /* \"#utility.yul\":4015:4028   */\n      mload\n        /* \"#utility.yul\":4006:4028   */\n      swap1\n      pop\n        /* \"#utility.yul\":4037:4070   */\n      tag_319\n        /* \"#utility.yul\":4064:4069   */\n      dup2\n        /* \"#utility.yul\":4037:4070   */\n      tag_234\n      jump\t// in\n    tag_319:\n        /* \"#utility.yul\":3933:4076   */\n      swap3\n      swap2\n      pop\n      pop\n      jump\t// out\n        /* \"#utility.yul\":4082:4172   */\n    tag_236:\n        /* \"#utility.yul\":4117:4124   */\n      0x00\n        /* \"#utility.yul\":4160:4165   */\n      dup2\n        /* \"#utility.yul\":4157:4158   */\n      0x02\n        /* \"#utility.yul\":4146:4166   */\n      signextend\n        /* \"#utility.yul\":4135:4166   */\n      swap1\n      pop\n        /* \"#utility.yul\":4082:4172   */\n      swap2\n      swap1\n      pop\n      jump\t// out\n        /* \"#utility.yul\":4178:4296   */\n    tag_237:\n        /* \"#utility.yul\":4249:4271   */\n      tag_322\n        /* \"#utility.yul\":4265:4270   */\n      dup2\n        /* \"#utility.yul\":4249:4271   */\n      tag_236\n      jump\t// in\n    tag_322:\n        /* \"#utility.yul\":4242:4247   */\n      dup2\n        /* \"#utility.yul\":4239:4272   */\n      eq\n        /* \"#utility.yul\":4229:4290   */\n      tag_323\n      jumpi\n        /* \"#utility.yul\":4286:4287   */\n      0x00\n        /* \"#utility.yul\":4283:4284   */\n      dup1\n        /* \"#utility.yul\":4276:4288   */\n      revert\n        /* \"#utility.yul\":4229:4290   */\n    tag_323:\n        /* \"#utility.yul\":4178:4296   */\n      pop\n      jump\t// out\n        /* \"#utility.yul\":4302:4441   */\n    tag_238:\n        /* \"#utility.yul\":4357:4362   */\n      0x00\n        /* \"#utility.yul\":4388:4394   */\n      dup2\n        /* \"#utility.yul\":4382:4395   */\n      mload\n        /* \"#utility.yul\":4373:4395   */\n      swap1\n      pop\n        /* \"#utility.yul\":4404:4435   */\n      tag_325\n        /* \"#utility.yul\":4429:4434   */\n      dup2\n        /* \"#utility.yul\":4404:4435   */\n      tag_237\n      jump\t// in\n    tag_325:\n        /* \"#utility.yul\":4302:4441   */\n      swap3\n      swap2\n      pop\n      pop\n      jump\t// out\n        /* \"#utility.yul\":4447:4536   */\n    tag_239:\n        /* \"#utility.yul\":4483:4490   */\n      0x00\n        /* \"#utility.yul\":4523:4529   */\n      0xffff\n        /* \"#utility.yul\":4516:4521   */\n      dup3\n        /* \"#utility.yul\":4512:4530   */\n      and\n        /* \"#utility.yul\":4501:4530   */\n      swap1\n      pop\n        /* \"#utility.yul\":4447:4536   */\n      swap2\n      swap1\n      pop\n      jump\t// out\n        /* \"#utility.yul\":4542:4662   */\n    tag_240:\n        /* \"#utility.yul\":4614:4637   */\n      tag_328\n        /* \"#utility.yul\":4631:4636   */\n      dup2\n        /* \"#utility.yul\":4614:4637   */\n      tag_239\n      jump\t// in\n    tag_328:\n        /* \"#utility.yul\":4607:4612   */\n      dup2\n        /* \"#utility.yul\":4604:4638   */\n      eq\n        /* \"#utility.yul\":4594:4656   */\n      tag_329\n      jumpi\n        /* \"#utility.yul\":4652:4653   */\n      0x00\n        /* \"#utility.yul\":4649:4650   */\n      dup1\n        /* \"#utility.yul\":4642:4654   */\n      revert\n        /* \"#utility.yul\":4594:4656   */\n    tag_329:\n        /* \"#utility.yul\":4542:4662   */\n      pop\n      jump\t// out\n        /* \"#utility.yul\":4668:4809   */\n    tag_241:\n        /* \"#utility.yul\":4724:4729   */\n      0x00\n        /* \"#utility.yul\":4755:4761   */\n      dup2\n        /* \"#utility.yul\":4749:4762   */\n      mload\n        /* \"#utility.yul\":4740:4762   */\n      swap1\n      pop\n        /* \"#utility.yul\":4771:4803   */\n      tag_331\n        /* \"#utility.yul\":4797:4802   */\n      dup2\n        /* \"#utility.yul\":4771:4803   */\n      tag_240\n      jump\t// in\n    tag_331:\n        /* \"#utility.yul\":4668:4809   */\n      swap3\n      swap2\n      pop\n      pop\n      jump\t// out\n        /* \"#utility.yul\":4815:4901   */\n    tag_242:\n        /* \"#utility.yul\":4850:4857   */\n      0x00\n        /* \"#utility.yul\":4890:4894   */\n      0xff\n        /* \"#utility.yul\":4883:4888   */\n      dup3\n        /* \"#utility.yul\":4879:4895   */\n      and\n        /* \"#utility.yul\":4868:4895   */\n      swap1\n      pop\n        /* \"#utility.yul\":4815:4901   */\n      swap2\n      swap1\n      pop\n      jump\t// out\n        /* \"#utility.yul\":4907:5025   */\n    tag_243:\n        /* \"#utility.yul\":4978:5000   */\n      tag_334\n        /* \"#utility.yul\":4994:4999   */\n      dup2\n        /* \"#utility.yul\":4978:5000   */\n      tag_242\n      jump\t// in\n    tag_334:\n        /* \"#utility.yul\":4971:4976   */\n      dup2\n        /* \"#utility.yul\":4968:5001   */\n      eq\n        /* \"#utility.yul\":4958:5019   */\n      tag_335\n      jumpi\n        /* \"#utility.yul\":5015:5016   */\n      0x00\n        /* \"#utility.yul\":5012:5013   */\n      dup1\n        /* \"#utility.yul\":5005:5017   */\n      revert\n        /* \"#utility.yul\":4958:5019   */\n    tag_335:\n        /* \"#utility.yul\":4907:5025   */\n      pop\n      jump\t// out\n        /* \"#utility.yul\":5031:5170   */\n    tag_244:\n        /* \"#utility.yul\":5086:5091   */\n      0x00\n        /* \"#utility.yul\":5117:5123   */\n      dup2\n        /* \"#utility.yul\":5111:5124   */\n      mload\n        /* \"#utility.yul\":5102:5124   */\n      swap1\n      pop\n        /* \"#utility.yul\":5133:5164   */\n      tag_337\n        /* \"#utility.yul\":5158:5163   */\n      dup2\n        /* \"#utility.yul\":5133:5164   */\n      tag_243\n      jump\t// in\n    tag_337:\n        /* \"#utility.yul\":5031:5170   */\n      swap3\n      swap2\n      pop\n      pop\n      jump\t// out\n        /* \"#utility.yul\":5176:5266   */\n    tag_245:\n        /* \"#utility.yul\":5210:5217   */\n      0x00\n        /* \"#utility.yul\":5253:5258   */\n      dup2\n        /* \"#utility.yul\":5246:5259   */\n      iszero\n        /* \"#utility.yul\":5239:5260   */\n      iszero\n        /* \"#utility.yul\":5228:5260   */\n      swap1\n      pop\n        /* \"#utility.yul\":5176:5266   */\n      swap2\n      swap1\n      pop\n      jump\t// out\n        /* \"#utility.yul\":5272:5388   */\n    tag_246:\n        /* \"#utility.yul\":5342:5363   */\n      tag_340\n        /* \"#utility.yul\":5357:5362   */\n      dup2\n        /* \"#utility.yul\":5342:5363   */\n      tag_245\n      jump\t// in\n    tag_340:\n        /* \"#utility.yul\":5335:5340   */\n      dup2\n        /* \"#utility.yul\":5332:5364   */\n      eq\n        /* \"#utility.yul\":5322:5382   */\n      tag_341\n      jumpi\n        /* \"#utility.yul\":5378:5379   */\n      0x00\n        /* \"#utility.yul\":5375:5376   */\n      dup1\n        /* \"#utility.yul\":5368:5380   */\n      revert\n        /* \"#utility.yul\":5322:5382   */\n    tag_341:\n        /* \"#utility.yul\":5272:5388   */\n      pop\n      jump\t// out\n        /* \"#utility.yul\":5394:5531   */\n    tag_247:\n        /* \"#utility.yul\":5448:5453   */\n      0x00\n        /* \"#utility.yul\":5479:5485   */\n      dup2\n        /* \"#utility.yul\":5473:5486   */\n      mload\n        /* \"#utility.yul\":5464:5486   */\n      swap1\n      pop\n        /* \"#utility.yul\":5495:5525   */\n      tag_343\n        /* \"#utility.yul\":5519:5524   */\n      dup2\n        /* \"#utility.yul\":5495:5525   */\n      tag_246\n      jump\t// in\n    tag_343:\n        /* \"#utility.yul\":5394:5531   */\n      swap3\n      swap2\n      pop\n      pop\n      jump\t// out\n        /* \"#utility.yul\":5537:6808   */\n    tag_75:\n        /* \"#utility.yul\":5651:5657   */\n      0x00\n        /* \"#utility.yul\":5659:5665   */\n      dup1\n        /* \"#utility.yul\":5667:5673   */\n      0x00\n        /* \"#utility.yul\":5675:5681   */\n      dup1\n        /* \"#utility.yul\":5683:5689   */\n      0x00\n        /* \"#utility.yul\":5691:5697   */\n      dup1\n        /* \"#utility.yul\":5699:5705   */\n      0x00\n        /* \"#utility.yul\":5748:5751   */\n      0xe0\n        /* \"#utility.yul\":5736:5745   */\n      dup9\n        /* \"#utility.yul\":5727:5734   */\n      dup11\n        /* \"#utility.yul\":5723:5746   */\n      sub\n        /* \"#utility.yul\":5719:5752   */\n      slt\n        /* \"#utility.yul\":5716:5836   */\n      iszero\n      tag_345\n      jumpi\n        /* \"#utility.yul\":5755:5834   */\n      tag_346\n      tag_224\n      jump\t// in\n    tag_346:\n        /* \"#utility.yul\":5716:5836   */\n    tag_345:\n        /* \"#utility.yul\":5875:5876   */\n      0x00\n        /* \"#utility.yul\":5900:5964   */\n      tag_347\n        /* \"#utility.yul\":5956:5963   */\n      dup11\n        /* \"#utility.yul\":5947:5953   */\n      dup3\n        /* \"#utility.yul\":5936:5945   */\n      dup12\n        /* \"#utility.yul\":5932:5954   */\n      add\n        /* \"#utility.yul\":5900:5964   */\n      tag_235\n      jump\t// in\n    tag_347:\n        /* \"#utility.yul\":5890:5964   */\n      swap8\n      pop\n        /* \"#utility.yul\":5846:5974   */\n      pop\n        /* \"#utility.yul\":6013:6015   */\n      0x20\n        /* \"#utility.yul\":6039:6101   */\n      tag_348\n        /* \"#utility.yul\":6093:6100   */\n      dup11\n        /* \"#utility.yul\":6084:6090   */\n      dup3\n        /* \"#utility.yul\":6073:6082   */\n      dup12\n        /* \"#utility.yul\":6069:6091   */\n      add\n        /* \"#utility.yul\":6039:6101   */\n      tag_238\n      jump\t// in\n    tag_348:\n        /* \"#utility.yul\":6029:6101   */\n      swap7\n      pop\n        /* \"#utility.yul\":5984:6111   */\n      pop\n        /* \"#utility.yul\":6150:6152   */\n      0x40\n        /* \"#utility.yul\":6176:6239   */\n      tag_349\n        /* \"#utility.yul\":6231:6238   */\n      dup11\n        /* \"#utility.yul\":6222:6228   */\n      dup3\n        /* \"#utility.yul\":6211:6220   */\n      dup12\n        /* \"#utility.yul\":6207:6229   */\n      add\n        /* \"#utility.yul\":6176:6239   */\n      tag_241\n      jump\t// in\n    tag_349:\n        /* \"#utility.yul\":6166:6239   */\n      swap6\n      pop\n        /* \"#utility.yul\":6121:6249   */\n      pop\n        /* \"#utility.yul\":6288:6290   */\n      0x60\n        /* \"#utility.yul\":6314:6377   */\n      tag_350\n        /* \"#utility.yul\":6369:6376   */\n      dup11\n        /* \"#utility.yul\":6360:6366   */\n      dup3\n        /* \"#utility.yul\":6349:6358   */\n      dup12\n        /* \"#utility.yul\":6345:6367   */\n      add\n        /* \"#utility.yul\":6314:6377   */\n      tag_241\n      jump\t// in\n    tag_350:\n        /* \"#utility.yul\":6304:6377   */\n      swap5\n      pop\n        /* \"#utility.yul\":6259:6387   */\n      pop\n        /* \"#utility.yul\":6426:6429   */\n      0x80\n        /* \"#utility.yul\":6453:6516   */\n      tag_351\n        /* \"#utility.yul\":6508:6515   */\n      dup11\n        /* \"#utility.yul\":6499:6505   */\n      dup3\n        /* \"#utility.yul\":6488:6497   */\n      dup12\n        /* \"#utility.yul\":6484:6506   */\n      add\n        /* \"#utility.yul\":6453:6516   */\n      tag_241\n      jump\t// in\n    tag_351:\n        /* \"#utility.yul\":6443:6516   */\n      swap4\n      pop\n        /* \"#utility.yul\":6397:6526   */\n      pop\n        /* \"#utility.yul\":6565:6568   */\n      0xa0\n        /* \"#utility.yul\":6592:6654   */\n      tag_352\n        /* \"#utility.yul\":6646:6653   */\n      dup11\n        /* \"#utility.yul\":6637:6643   */\n      dup3\n        /* \"#utility.yul\":6626:6635   */\n      dup12\n        /* \"#utility.yul\":6622:6644   */\n      add\n        /* \"#utility.yul\":6592:6654   */\n      tag_244\n      jump\t// in\n    tag_352:\n        /* \"#utility.yul\":6582:6654   */\n      swap3\n      pop\n        /* \"#utility.yul\":6536:6664   */\n      pop\n        /* \"#utility.yul\":6703:6706   */\n      0xc0\n        /* \"#utility.yul\":6730:6791   */\n      tag_353\n        /* \"#utility.yul\":6783:6790   */\n      dup11\n        /* \"#utility.yul\":6774:6780   */\n      dup3\n        /* \"#utility.yul\":6763:6772   */\n      dup12\n        /* \"#utility.yul\":6759:6781   */\n      add\n        /* \"#utility.yul\":6730:6791   */\n      tag_247\n      jump\t// in\n    tag_353:\n        /* \"#utility.yul\":6720:6791   */\n      swap2\n      pop\n        /* \"#utility.yul\":6674:6801   */\n      pop\n        /* \"#utility.yul\":5537:6808   */\n      swap3\n      swap6\n      swap9\n      swap2\n      swap5\n      swap8\n      pop\n      swap3\n      swap6\n      pop\n      jump\t// out\n        /* \"#utility.yul\":6814:6932   */\n    tag_248:\n        /* \"#utility.yul\":6851:6858   */\n      0x00\n        /* \"#utility.yul\":6891:6925   */\n      0xffffffffffffffffffffffffffffffff\n        /* \"#utility.yul\":6884:6889   */\n      dup3\n        /* \"#utility.yul\":6880:6926   */\n      and\n        /* \"#utility.yul\":6869:6926   */\n      swap1\n      pop\n        /* \"#utility.yul\":6814:6932   */\n      swap2\n      swap1\n      pop\n      jump\t// out\n        /* \"#utility.yul\":6938:7060   */\n    tag_249:\n        /* \"#utility.yul\":7011:7035   */\n      tag_356\n        /* \"#utility.yul\":7029:7034   */\n      dup2\n        /* \"#utility.yul\":7011:7035   */\n      tag_248\n      jump\t// in\n    tag_356:\n        /* \"#utility.yul\":7004:7009   */\n      dup2\n        /* \"#utility.yul\":7001:7036   */\n      eq\n        /* \"#utility.yul\":6991:7054   */\n      tag_357\n      jumpi\n        /* \"#utility.yul\":7050:7051   */\n      0x00\n        /* \"#utility.yul\":7047:7048   */\n      dup1\n        /* \"#utility.yul\":7040:7052   */\n      revert\n        /* \"#utility.yul\":6991:7054   */\n    tag_357:\n        /* \"#utility.yul\":6938:7060   */\n      pop\n      jump\t// out\n        /* \"#utility.yul\":7066:7209   */\n    tag_250:\n        /* \"#utility.yul\":7123:7128   */\n      0x00\n        /* \"#utility.yul\":7154:7160   */\n      dup2\n        /* \"#utility.yul\":7148:7161   */\n      mload\n        /* \"#utility.yul\":7139:7161   */\n      swap1\n      pop\n        /* \"#utility.yul\":7170:7203   */\n      tag_359\n        /* \"#utility.yul\":7197:7202   */\n      dup2\n        /* \"#utility.yul\":7170:7203   */\n      tag_249\n      jump\t// in\n    tag_359:\n        /* \"#utility.yul\":7066:7209   */\n      swap3\n      swap2\n      pop\n      pop\n      jump\t// out\n        /* \"#utility.yul\":7215:7566   */\n    tag_79:\n        /* \"#utility.yul\":7285:7291   */\n      0x00\n        /* \"#utility.yul\":7334:7336   */\n      0x20\n        /* \"#utility.yul\":7322:7331   */\n      dup3\n        /* \"#utility.yul\":7313:7320   */\n      dup5\n        /* \"#utility.yul\":7309:7332   */\n      sub\n        /* \"#utility.yul\":7305:7337   */\n      slt\n        /* \"#utility.yul\":7302:7421   */\n      iszero\n      tag_361\n      jumpi\n        /* \"#utility.yul\":7340:7419   */\n      tag_362\n      tag_224\n      jump\t// in\n    tag_362:\n        /* \"#utility.yul\":7302:7421   */\n    tag_361:\n        /* \"#utility.yul\":7460:7461   */\n      0x00\n        /* \"#utility.yul\":7485:7549   */\n      tag_363\n        /* \"#utility.yul\":7541:7548   */\n      dup5\n        /* \"#utility.yul\":7532:7538   */\n      dup3\n        /* \"#utility.yul\":7521:7530   */\n      dup6\n        /* \"#utility.yul\":7517:7539   */\n      add\n        /* \"#utility.yul\":7485:7549   */\n      tag_250\n      jump\t// in\n    tag_363:\n        /* \"#utility.yul\":7475:7549   */\n      swap2\n      pop\n        /* \"#utility.yul\":7431:7559   */\n      pop\n        /* \"#utility.yul\":7215:7566   */\n      swap3\n      swap2\n      pop\n      pop\n      jump\t// out\n        /* \"#utility.yul\":7572:7715   */\n    tag_251:\n        /* \"#utility.yul\":7629:7634   */\n      0x00\n        /* \"#utility.yul\":7660:7666   */\n      dup2\n        /* \"#utility.yul\":7654:7667   */\n      mload\n        /* \"#utility.yul\":7645:7667   */\n      swap1\n      pop\n        /* \"#utility.yul\":7676:7709   */\n      tag_365\n        /* \"#utility.yul\":7703:7708   */\n      dup2\n        /* \"#utility.yul\":7676:7709   */\n      tag_228\n      jump\t// in\n    tag_365:\n        /* \"#utility.yul\":7572:7715   */\n      swap3\n      swap2\n      pop\n      pop\n      jump\t// out\n        /* \"#utility.yul\":7721:8072   */\n    tag_84:\n        /* \"#utility.yul\":7791:7797   */\n      0x00\n        /* \"#utility.yul\":7840:7842   */\n      0x20\n        /* \"#utility.yul\":7828:7837   */\n      dup3\n        /* \"#utility.yul\":7819:7826   */\n      dup5\n        /* \"#utility.yul\":7815:7838   */\n      sub\n        /* \"#utility.yul\":7811:7843   */\n      slt\n        /* \"#utility.yul\":7808:7927   */\n      iszero\n      tag_367\n      jumpi\n        /* \"#utility.yul\":7846:7925   */\n      tag_368\n      tag_224\n      jump\t// in\n    tag_368:\n        /* \"#utility.yul\":7808:7927   */\n    tag_367:\n        /* \"#utility.yul\":7966:7967   */\n      0x00\n        /* \"#utility.yul\":7991:8055   */\n      tag_369\n        /* \"#utility.yul\":8047:8054   */\n      dup5\n        /* \"#utility.yul\":8038:8044   */\n      dup3\n        /* \"#utility.yul\":8027:8036   */\n      dup6\n        /* \"#utility.yul\":8023:8045   */\n      add\n        /* \"#utility.yul\":7991:8055   */\n      tag_251\n      jump\t// in\n    tag_369:\n        /* \"#utility.yul\":7981:8055   */\n      swap2\n      pop\n        /* \"#utility.yul\":7937:8065   */\n      pop\n        /* \"#utility.yul\":7721:8072   */\n      swap3\n      swap2\n      pop\n      pop\n      jump\t// out\n        /* \"#utility.yul\":8078:8196   */\n    tag_252:\n        /* \"#utility.yul\":8165:8189   */\n      tag_371\n        /* \"#utility.yul\":8183:8188   */\n      dup2\n        /* \"#utility.yul\":8165:8189   */\n      tag_227\n      jump\t// in\n    tag_371:\n        /* \"#utility.yul\":8160:8163   */\n      dup3\n        /* \"#utility.yul\":8153:8190   */\n      mstore\n        /* \"#utility.yul\":8078:8196   */\n      pop\n      pop\n      jump\t// out\n        /* \"#utility.yul\":8202:8424   */\n    tag_86:\n        /* \"#utility.yul\":8295:8299   */\n      0x00\n        /* \"#utility.yul\":8333:8335   */\n      0x20\n        /* \"#utility.yul\":8322:8331   */\n      dup3\n        /* \"#utility.yul\":8318:8336   */\n      add\n        /* \"#utility.yul\":8310:8336   */\n      swap1\n      pop\n        /* \"#utility.yul\":8346:8417   */\n      tag_373\n        /* \"#utility.yul\":8414:8415   */\n      0x00\n        /* \"#utility.yul\":8403:8412   */\n      dup4\n        /* \"#utility.yul\":8399:8416   */\n      add\n        /* \"#utility.yul\":8390:8396   */\n      dup5\n        /* \"#utility.yul\":8346:8417   */\n      tag_252\n      jump\t// in\n    tag_373:\n        /* \"#utility.yul\":8202:8424   */\n      swap3\n      swap2\n      pop\n      pop\n      jump\t// out\n        /* \"#utility.yul\":8430:8552   */\n    tag_253:\n        /* \"#utility.yul\":8503:8527   */\n      tag_375\n        /* \"#utility.yul\":8521:8526   */\n      dup2\n        /* \"#utility.yul\":8503:8527   */\n      tag_230\n      jump\t// in\n    tag_375:\n        /* \"#utility.yul\":8496:8501   */\n      dup2\n        /* \"#utility.yul\":8493:8528   */\n      eq\n        /* \"#utility.yul\":8483:8546   */\n      tag_376\n      jumpi\n        /* \"#utility.yul\":8542:8543   */\n      0x00\n        /* \"#utility.yul\":8539:8540   */\n      dup1\n        /* \"#utility.yul\":8532:8544   */\n      revert\n        /* \"#utility.yul\":8483:8546   */\n    tag_376:\n        /* \"#utility.yul\":8430:8552   */\n      pop\n      jump\t// out\n        /* \"#utility.yul\":8558:8701   */\n    tag_254:\n        /* \"#utility.yul\":8615:8620   */\n      0x00\n        /* \"#utility.yul\":8646:8652   */\n      dup2\n        /* \"#utility.yul\":8640:8653   */\n      mload\n        /* \"#utility.yul\":8631:8653   */\n      swap1\n      pop\n        /* \"#utility.yul\":8662:8695   */\n      tag_378\n        /* \"#utility.yul\":8689:8694   */\n      dup2\n        /* \"#utility.yul\":8662:8695   */\n      tag_253\n      jump\t// in\n    tag_378:\n        /* \"#utility.yul\":8558:8701   */\n      swap3\n      swap2\n      pop\n      pop\n      jump\t// out\n        /* \"#utility.yul\":8707:9058   */\n    tag_90:\n        /* \"#utility.yul\":8777:8783   */\n      0x00\n        /* \"#utility.yul\":8826:8828   */\n      0x20\n        /* \"#utility.yul\":8814:8823   */\n      dup3\n        /* \"#utility.yul\":8805:8812   */\n      dup5\n        /* \"#utility.yul\":8801:8824   */\n      sub\n        /* \"#utility.yul\":8797:8829   */\n      slt\n        /* \"#utility.yul\":8794:8913   */\n      iszero\n      tag_380\n      jumpi\n        /* \"#utility.yul\":8832:8911   */\n      tag_381\n      tag_224\n      jump\t// in\n    tag_381:\n        /* \"#utility.yul\":8794:8913   */\n    tag_380:\n        /* \"#utility.yul\":8952:8953   */\n      0x00\n        /* \"#utility.yul\":8977:9041   */\n      tag_382\n        /* \"#utility.yul\":9033:9040   */\n      dup5\n        /* \"#utility.yul\":9024:9030   */\n      dup3\n        /* \"#utility.yul\":9013:9022   */\n      dup6\n        /* \"#utility.yul\":9009:9031   */\n      add\n        /* \"#utility.yul\":8977:9041   */\n      tag_254\n      jump\t// in\n    tag_382:\n        /* \"#utility.yul\":8967:9041   */\n      swap2\n      pop\n        /* \"#utility.yul\":8923:9051   */\n      pop\n        /* \"#utility.yul\":8707:9058   */\n      swap3\n      swap2\n      pop\n      pop\n      jump\t// out\n        /* \"#utility.yul\":9064:9233   */\n    tag_255:\n        /* \"#utility.yul\":9148:9159   */\n      0x00\n        /* \"#utility.yul\":9182:9188   */\n      dup3\n        /* \"#utility.yul\":9177:9180   */\n      dup3\n        /* \"#utility.yul\":9170:9189   */\n      mstore\n        /* \"#utility.yul\":9222:9226   */\n      0x20\n        /* \"#utility.yul\":9217:9220   */\n      dup3\n        /* \"#utility.yul\":9213:9227   */\n      add\n        /* \"#utility.yul\":9198:9227   */\n      swap1\n      pop\n        /* \"#utility.yul\":9064:9233   */\n      swap3\n      swap2\n      pop\n      pop\n      jump\t// out\n        /* \"#utility.yul\":9239:9406   */\n    tag_256:\n        /* \"#utility.yul\":9379:9398   */\n      0x57726f6e6720696e707574206f72646572000000000000000000000000000000\n        /* \"#utility.yul\":9375:9376   */\n      0x00\n        /* \"#utility.yul\":9367:9373   */\n      dup3\n        /* \"#utility.yul\":9363:9377   */\n      add\n        /* \"#utility.yul\":9356:9399   */\n      mstore\n        /* \"#utility.yul\":9239:9406   */\n      pop\n      jump\t// out\n        /* \"#utility.yul\":9412:9778   */\n    tag_257:\n        /* \"#utility.yul\":9554:9557   */\n      0x00\n        /* \"#utility.yul\":9575:9642   */\n      tag_386\n        /* \"#utility.yul\":9639:9641   */\n      0x11\n        /* \"#utility.yul\":9634:9637   */\n      dup4\n        /* \"#utility.yul\":9575:9642   */\n      tag_255\n      jump\t// in\n    tag_386:\n        /* \"#utility.yul\":9568:9642   */\n      swap2\n      pop\n        /* \"#utility.yul\":9651:9744   */\n      tag_387\n        /* \"#utility.yul\":9740:9743   */\n      dup3\n        /* \"#utility.yul\":9651:9744   */\n      tag_256\n      jump\t// in\n    tag_387:\n        /* \"#utility.yul\":9769:9771   */\n      0x20\n        /* \"#utility.yul\":9764:9767   */\n      dup3\n        /* \"#utility.yul\":9760:9772   */\n      add\n        /* \"#utility.yul\":9753:9772   */\n      swap1\n      pop\n        /* \"#utility.yul\":9412:9778   */\n      swap2\n      swap1\n      pop\n      jump\t// out\n        /* \"#utility.yul\":9784:10203   */\n    tag_187:\n        /* \"#utility.yul\":9950:9954   */\n      0x00\n        /* \"#utility.yul\":9988:9990   */\n      0x20\n        /* \"#utility.yul\":9977:9986   */\n      dup3\n        /* \"#utility.yul\":9973:9991   */\n      add\n        /* \"#utility.yul\":9965:9991   */\n      swap1\n      pop\n        /* \"#utility.yul\":10037:10046   */\n      dup2\n        /* \"#utility.yul\":10031:10035   */\n      dup2\n        /* \"#utility.yul\":10027:10047   */\n      sub\n        /* \"#utility.yul\":10023:10024   */\n      0x00\n        /* \"#utility.yul\":10012:10021   */\n      dup4\n        /* \"#utility.yul\":10008:10025   */\n      add\n        /* \"#utility.yul\":10001:10048   */\n      mstore\n        /* \"#utility.yul\":10065:10196   */\n      tag_389\n        /* \"#utility.yul\":10191:10195   */\n      dup2\n        /* \"#utility.yul\":10065:10196   */\n      tag_257\n      jump\t// in\n    tag_389:\n        /* \"#utility.yul\":10057:10196   */\n      swap1\n      pop\n        /* \"#utility.yul\":9784:10203   */\n      swap2\n      swap1\n      pop\n      jump\t// out\n        /* \"#utility.yul\":10209:10285   */\n    tag_258:\n        /* \"#utility.yul\":10245:10252   */\n      0x00\n        /* \"#utility.yul\":10274:10279   */\n      dup2\n        /* \"#utility.yul\":10263:10279   */\n      swap1\n      pop\n        /* \"#utility.yul\":10209:10285   */\n      swap2\n      swap1\n      pop\n      jump\t// out\n        /* \"#utility.yul\":10291:10847   */\n    tag_191:\n        /* \"#utility.yul\":10330:10337   */\n      0x00\n        /* \"#utility.yul\":10353:10372   */\n      tag_392\n        /* \"#utility.yul\":10370:10371   */\n      dup3\n        /* \"#utility.yul\":10353:10372   */\n      tag_258\n      jump\t// in\n    tag_392:\n        /* \"#utility.yul\":10348:10372   */\n      swap2\n      pop\n        /* \"#utility.yul\":10386:10405   */\n      tag_393\n        /* \"#utility.yul\":10403:10404   */\n      dup4\n        /* \"#utility.yul\":10386:10405   */\n      tag_258\n      jump\t// in\n    tag_393:\n        /* \"#utility.yul\":10381:10405   */\n      swap3\n      pop\n        /* \"#utility.yul\":10440:10441   */\n      dup3\n        /* \"#utility.yul\":10437:10438   */\n      dup3\n        /* \"#utility.yul\":10433:10442   */\n      mul\n        /* \"#utility.yul\":10462:10491   */\n      tag_394\n        /* \"#utility.yul\":10479:10490   */\n      dup2\n        /* \"#utility.yul\":10462:10491   */\n      tag_258\n      jump\t// in\n    tag_394:\n        /* \"#utility.yul\":10451:10491   */\n      swap2\n      pop\n        /* \"#utility.yul\":10549:10615   */\n      0x8000000000000000000000000000000000000000000000000000000000000000\n        /* \"#utility.yul\":10546:10547   */\n      dup5\n        /* \"#utility.yul\":10543:10616   */\n      eq\n        /* \"#utility.yul\":10539:10540   */\n      0x00\n        /* \"#utility.yul\":10536:10537   */\n      dup5\n        /* \"#utility.yul\":10532:10541   */\n      slt\n        /* \"#utility.yul\":10528:10617   */\n      and\n        /* \"#utility.yul\":10525:10640   */\n      iszero\n      tag_395\n      jumpi\n        /* \"#utility.yul\":10620:10638   */\n      tag_396\n      tag_232\n      jump\t// in\n    tag_396:\n        /* \"#utility.yul\":10525:10640   */\n    tag_395:\n        /* \"#utility.yul\":10790:10791   */\n      dup3\n        /* \"#utility.yul\":10781:10788   */\n      dup3\n        /* \"#utility.yul\":10776:10792   */\n      sdiv\n        /* \"#utility.yul\":10773:10774   */\n      dup5\n        /* \"#utility.yul\":10770:10793   */\n      eq\n        /* \"#utility.yul\":10750:10751   */\n      dup4\n        /* \"#utility.yul\":10743:10752   */\n      iszero\n        /* \"#utility.yul\":10723:10807   */\n      or\n        /* \"#utility.yul\":10700:10840   */\n      tag_397\n      jumpi\n        /* \"#utility.yul\":10820:10838   */\n      tag_398\n      tag_232\n      jump\t// in\n    tag_398:\n        /* \"#utility.yul\":10700:10840   */\n    tag_397:\n        /* \"#utility.yul\":10338:10847   */\n      pop\n        /* \"#utility.yul\":10291:10847   */\n      swap3\n      swap2\n      pop\n      pop\n      jump\t// out\n        /* \"#utility.yul\":10853:11225   */\n    tag_194:\n        /* \"#utility.yul\":10892:10896   */\n      0x00\n        /* \"#utility.yul\":10912:10931   */\n      tag_400\n        /* \"#utility.yul\":10929:10930   */\n      dup3\n        /* \"#utility.yul\":10912:10931   */\n      tag_258\n      jump\t// in\n    tag_400:\n        /* \"#utility.yul\":10907:10931   */\n      swap2\n      pop\n        /* \"#utility.yul\":10945:10964   */\n      tag_401\n        /* \"#utility.yul\":10962:10963   */\n      dup4\n        /* \"#utility.yul\":10945:10964   */\n      tag_258\n      jump\t// in\n    tag_401:\n        /* \"#utility.yul\":10940:10964   */\n      swap3\n      pop\n        /* \"#utility.yul\":10988:10989   */\n      dup3\n        /* \"#utility.yul\":10985:10986   */\n      dup3\n        /* \"#utility.yul\":10981:10990   */\n      sub\n        /* \"#utility.yul\":10973:10990   */\n      swap1\n      pop\n        /* \"#utility.yul\":11182:11183   */\n      dup2\n        /* \"#utility.yul\":11176:11180   */\n      dup2\n        /* \"#utility.yul\":11172:11184   */\n      slt\n        /* \"#utility.yul\":11168:11169   */\n      0x00\n        /* \"#utility.yul\":11165:11166   */\n      dup5\n        /* \"#utility.yul\":11161:11170   */\n      slt\n        /* \"#utility.yul\":11157:11185   */\n      and\n        /* \"#utility.yul\":11140:11141   */\n      dup3\n        /* \"#utility.yul\":11134:11138   */\n      dup3\n        /* \"#utility.yul\":11130:11142   */\n      sgt\n        /* \"#utility.yul\":11125:11126   */\n      0x00\n        /* \"#utility.yul\":11122:11123   */\n      dup6\n        /* \"#utility.yul\":11118:11127   */\n      slt\n        /* \"#utility.yul\":11111:11128   */\n      iszero\n        /* \"#utility.yul\":11107:11143   */\n      and\n        /* \"#utility.yul\":11091:11195   */\n      or\n        /* \"#utility.yul\":11088:11218   */\n      iszero\n      tag_402\n      jumpi\n        /* \"#utility.yul\":11198:11216   */\n      tag_403\n      tag_232\n      jump\t// in\n    tag_403:\n        /* \"#utility.yul\":11088:11218   */\n    tag_402:\n        /* \"#utility.yul\":10853:11225   */\n      swap3\n      swap2\n      pop\n      pop\n      jump\t// out\n        /* \"#utility.yul\":11231:11616   */\n    tag_202:\n        /* \"#utility.yul\":11270:11271   */\n      0x00\n        /* \"#utility.yul\":11287:11306   */\n      tag_405\n        /* \"#utility.yul\":11304:11305   */\n      dup3\n        /* \"#utility.yul\":11287:11306   */\n      tag_258\n      jump\t// in\n    tag_405:\n        /* \"#utility.yul\":11282:11306   */\n      swap2\n      pop\n        /* \"#utility.yul\":11320:11339   */\n      tag_406\n        /* \"#utility.yul\":11337:11338   */\n      dup4\n        /* \"#utility.yul\":11320:11339   */\n      tag_258\n      jump\t// in\n    tag_406:\n        /* \"#utility.yul\":11315:11339   */\n      swap3\n      pop\n        /* \"#utility.yul\":11358:11359   */\n      dup3\n        /* \"#utility.yul\":11348:11383   */\n      tag_407\n      jumpi\n        /* \"#utility.yul\":11363:11381   */\n      tag_408\n      tag_233\n      jump\t// in\n    tag_408:\n        /* \"#utility.yul\":11348:11383   */\n    tag_407:\n        /* \"#utility.yul\":11549:11550   */\n      0x01\n        /* \"#utility.yul\":11546:11547   */\n      0x00\n        /* \"#utility.yul\":11542:11551   */\n      sub\n        /* \"#utility.yul\":11539:11540   */\n      dup4\n        /* \"#utility.yul\":11536:11552   */\n      eq\n        /* \"#utility.yul\":11455:11521   */\n      0x8000000000000000000000000000000000000000000000000000000000000000\n        /* \"#utility.yul\":11452:11453   */\n      dup4\n        /* \"#utility.yul\":11449:11522   */\n      eq\n        /* \"#utility.yul\":11432:11562   */\n      and\n        /* \"#utility.yul\":11429:11585   */\n      iszero\n      tag_409\n      jumpi\n        /* \"#utility.yul\":11565:11583   */\n      tag_410\n      tag_232\n      jump\t// in\n    tag_410:\n        /* \"#utility.yul\":11429:11585   */\n    tag_409:\n        /* \"#utility.yul\":11608:11609   */\n      dup3\n        /* \"#utility.yul\":11605:11606   */\n      dup3\n        /* \"#utility.yul\":11600:11610   */\n      sdiv\n        /* \"#utility.yul\":11595:11610   */\n      swap1\n      pop\n        /* \"#utility.yul\":11231:11616   */\n      swap3\n      swap2\n      pop\n      pop\n      jump\t// out\n        /* \"#utility.yul\":11622:11790   */\n    tag_259:\n        /* \"#utility.yul\":11762:11782   */\n      0x6120697320626967676572207468616e20620000000000000000000000000000\n        /* \"#utility.yul\":11758:11759   */\n      0x00\n        /* \"#utility.yul\":11750:11756   */\n      dup3\n        /* \"#utility.yul\":11746:11760   */\n      add\n        /* \"#utility.yul\":11739:11783   */\n      mstore\n        /* \"#utility.yul\":11622:11790   */\n      pop\n      jump\t// out\n        /* \"#utility.yul\":11796:12162   */\n    tag_260:\n        /* \"#utility.yul\":11938:11941   */\n      0x00\n        /* \"#utility.yul\":11959:12026   */\n      tag_413\n        /* \"#utility.yul\":12023:12025   */\n      0x12\n        /* \"#utility.yul\":12018:12021   */\n      dup4\n        /* \"#utility.yul\":11959:12026   */\n      tag_255\n      jump\t// in\n    tag_413:\n        /* \"#utility.yul\":11952:12026   */\n      swap2\n      pop\n        /* \"#utility.yul\":12035:12128   */\n      tag_414\n        /* \"#utility.yul\":12124:12127   */\n      dup3\n        /* \"#utility.yul\":12035:12128   */\n      tag_259\n      jump\t// in\n    tag_414:\n        /* \"#utility.yul\":12153:12155   */\n      0x20\n        /* \"#utility.yul\":12148:12151   */\n      dup3\n        /* \"#utility.yul\":12144:12156   */\n      add\n        /* \"#utility.yul\":12137:12156   */\n      swap1\n      pop\n        /* \"#utility.yul\":11796:12162   */\n      swap2\n      swap1\n      pop\n      jump\t// out\n        /* \"#utility.yul\":12168:12587   */\n    tag_209:\n        /* \"#utility.yul\":12334:12338   */\n      0x00\n        /* \"#utility.yul\":12372:12374   */\n      0x20\n        /* \"#utility.yul\":12361:12370   */\n      dup3\n        /* \"#utility.yul\":12357:12375   */\n      add\n        /* \"#utility.yul\":12349:12375   */\n      swap1\n      pop\n        /* \"#utility.yul\":12421:12430   */\n      dup2\n        /* \"#utility.yul\":12415:12419   */\n      dup2\n        /* \"#utility.yul\":12411:12431   */\n      sub\n        /* \"#utility.yul\":12407:12408   */\n      0x00\n        /* \"#utility.yul\":12396:12405   */\n      dup4\n        /* \"#utility.yul\":12392:12409   */\n      add\n        /* \"#utility.yul\":12385:12432   */\n      mstore\n        /* \"#utility.yul\":12449:12580   */\n      tag_416\n        /* \"#utility.yul\":12575:12579   */\n      dup2\n        /* \"#utility.yul\":12449:12580   */\n      tag_260\n      jump\t// in\n    tag_416:\n        /* \"#utility.yul\":12441:12580   */\n      swap1\n      pop\n        /* \"#utility.yul\":12168:12587   */\n      swap2\n      swap1\n      pop\n      jump\t// out\n        /* \"#utility.yul\":12593:12763   */\n    tag_261:\n        /* \"#utility.yul\":12733:12755   */\n      0x43616e277420646976696465206279207a65726f000000000000000000000000\n        /* \"#utility.yul\":12729:12730   */\n      0x00\n        /* \"#utility.yul\":12721:12727   */\n      dup3\n        /* \"#utility.yul\":12717:12731   */\n      add\n        /* \"#utility.yul\":12710:12756   */\n      mstore\n        /* \"#utility.yul\":12593:12763   */\n      pop\n      jump\t// out\n        /* \"#utility.yul\":12769:13135   */\n    tag_262:\n        /* \"#utility.yul\":12911:12914   */\n      0x00\n        /* \"#utility.yul\":12932:12999   */\n      tag_419\n        /* \"#utility.yul\":12996:12998   */\n      0x14\n        /* \"#utility.yul\":12991:12994   */\n      dup4\n        /* \"#utility.yul\":12932:12999   */\n      tag_255\n      jump\t// in\n    tag_419:\n        /* \"#utility.yul\":12925:12999   */\n      swap2\n      pop\n        /* \"#utility.yul\":13008:13101   */\n      tag_420\n        /* \"#utility.yul\":13097:13100   */\n      dup3\n        /* \"#utility.yul\":13008:13101   */\n      tag_261\n      jump\t// in\n    tag_420:\n        /* \"#utility.yul\":13126:13128   */\n      0x20\n        /* \"#utility.yul\":13121:13124   */\n      dup3\n        /* \"#utility.yul\":13117:13129   */\n      add\n        /* \"#utility.yul\":13110:13129   */\n      swap1\n      pop\n        /* \"#utility.yul\":12769:13135   */\n      swap2\n      swap1\n      pop\n      jump\t// out\n        /* \"#utility.yul\":13141:13560   */\n    tag_213:\n        /* \"#utility.yul\":13307:13311   */\n      0x00\n        /* \"#utility.yul\":13345:13347   */\n      0x20\n        /* \"#utility.yul\":13334:13343   */\n      dup3\n        /* \"#utility.yul\":13330:13348   */\n      add\n        /* \"#utility.yul\":13322:13348   */\n      swap1\n      pop\n        /* \"#utility.yul\":13394:13403   */\n      dup2\n        /* \"#utility.yul\":13388:13392   */\n      dup2\n        /* \"#utility.yul\":13384:13404   */\n      sub\n        /* \"#utility.yul\":13380:13381   */\n      0x00\n        /* \"#utility.yul\":13369:13378   */\n      dup4\n        /* \"#utility.yul\":13365:13382   */\n      add\n        /* \"#utility.yul\":13358:13405   */\n      mstore\n        /* \"#utility.yul\":13422:13553   */\n      tag_422\n        /* \"#utility.yul\":13548:13552   */\n      dup2\n        /* \"#utility.yul\":13422:13553   */\n      tag_262\n      jump\t// in\n    tag_422:\n        /* \"#utility.yul\":13414:13553   */\n      swap1\n      pop\n        /* \"#utility.yul\":13141:13560   */\n      swap2\n      swap1\n      pop\n      jump\t// out\n\n    auxdata: 0xa2646970667358221220a8f7e7ed7e30cf98fea308f2865ea808a50cb9c410a03d54c9d433c755d083fe64736f6c63430008140033\n}\n",
				"bytecode": {
					"linkReferences": {},
					"object": "608060405234801561000f575f80fd5b506116e38061001d5f395ff3fe608060405234801561000f575f80fd5b506004361061009c575f3560e01c80637232688e116100645780637232688e146101915780637d9ada3e146101c25780639872971a146101f2578063b49bbce514610222578063ec0a63d8146102525761009c565b80630d83825b146100a05780631e953b15146100d05780631fdd03cb1461010157806321fef8811461013157806344401a2414610161575b5f80fd5b6100ba60048036038101906100b59190610f81565b610283565b6040516100c79190610fd7565b60405180910390f35b6100ea60048036038101906100e59190610ff0565b6102f7565b6040516100f892919061101b565b60405180910390f35b61011b60048036038101906101169190610ff0565b610423565b6040516101289190610fd7565b60405180910390f35b61014b60048036038101906101469190610f81565b610519565b6040516101589190610fd7565b60405180910390f35b61017b60048036038101906101769190610f81565b61055d565b6040516101889190610fd7565b60405180910390f35b6101ab60048036038101906101a69190610ff0565b6105ad565b6040516101b992919061101b565b60405180910390f35b6101dc60048036038101906101d79190610f81565b61078f565b6040516101e99190610fd7565b60405180910390f35b61020c60048036038101906102079190610f81565b6107df565b6040516102199190610fd7565b60405180910390f35b61023c60048036038101906102379190610ff0565b610853565b6040516102499190610fd7565b60405180910390f35b61026c60048036038101906102679190610ff0565b610949565b60405161027a92919061101b565b60405180910390f35b5f8061028e846102f7565b9150505f61029b846102f7565b915050600282826102ac919061106f565b82620f4240670de0b6b3a7640000866102c591906110cf565b6102cf91906110ff565b6102d99190611140565b6102e391906110cf565b6102ed91906110cf565b9250505092915050565b5f805f8390508073ffffffffffffffffffffffffffffffffffffffff16633850c7bd6040518163ffffffff1660e01b815260040160e060405180830381865afa158015610346573d5f803e3d5ffd5b505050506040513d601f19601f8201168201806040525081019061036a9190611275565b8673ffffffffffffffffffffffffffffffffffffffff169650909192939450909192935090919250909150905050809250508073ffffffffffffffffffffffffffffffffffffffff16631a6865026040518163ffffffff1660e01b8152600401602060405180830381865afa1580156103e5573d5f803e3d5ffd5b505050506040513d601f19601f820116820180604052508101906104099190611357565b6fffffffffffffffffffffffffffffffff16925050915091565b5f808290505f8173ffffffffffffffffffffffffffffffffffffffff16630dfe16816040518163ffffffff1660e01b8152600401602060405180830381865afa158015610472573d5f803e3d5ffd5b505050506040513d601f19601f820116820180604052508101906104969190611396565b90508073ffffffffffffffffffffffffffffffffffffffff166370a08231856040518263ffffffff1660e01b81526004016104d191906113d0565b602060405180830381865afa1580156104ec573d5f803e3d5ffd5b505050506040513d601f19601f820116820180604052508101906105109190611413565b92505050919050565b5f8061052584846107df565b90505f6105328486610283565b9050670de0b6b3a7640000818361054991906110ff565b61055391906110cf565b9250505092915050565b5f610566610eff565b61056f846105ad565b825f018360200182815250828152505050610589836105ad565b8260400183606001828152508281525050506105a481610b2b565b91505092915050565b5f805f8390505f8173ffffffffffffffffffffffffffffffffffffffff16630dfe16816040518163ffffffff1660e01b8152600401602060405180830381865afa1580156105fd573d5f803e3d5ffd5b505050506040513d601f19601f820116820180604052508101906106219190611396565b90505f8273ffffffffffffffffffffffffffffffffffffffff1663d21220a76040518163ffffffff1660e01b8152600401602060405180830381865afa15801561066d573d5f803e3d5ffd5b505050506040513d601f19601f820116820180604052508101906106919190611396565b90508173ffffffffffffffffffffffffffffffffffffffff166370a08231876040518263ffffffff1660e01b81526004016106cc91906113d0565b602060405180830381865afa1580156106e7573d5f803e3d5ffd5b505050506040513d601f19601f8201168201806040525081019061070b9190611413565b94508073ffffffffffffffffffffffffffffffffffffffff166370a08231876040518263ffffffff1660e01b815260040161074691906113d0565b602060405180830381865afa158015610761573d5f803e3d5ffd5b505050506040513d601f19601f820116820180604052508101906107859190611413565b9350505050915091565b5f610798610eff565b6107a184610949565b825f0183602001828152508281525050506107bb83610949565b8260400183606001828152508281525050506107d681610b2b565b91505092915050565b5f806107ea846102f7565b5090505f6107f7846102f7565b50905060028261080791906110cf565b81610812919061106f565b81620f4240670de0b6b3a76400008561082b91906110cf565b61083591906110ff565b61083f9190611140565b61084991906110cf565b9250505092915050565b5f808290505f8173ffffffffffffffffffffffffffffffffffffffff1663d21220a76040518163ffffffff1660e01b8152600401602060405180830381865afa1580156108a2573d5f803e3d5ffd5b505050506040513d601f19601f820116820180604052508101906108c69190611396565b90508073ffffffffffffffffffffffffffffffffffffffff166370a08231856040518263ffffffff1660e01b815260040161090191906113d0565b602060405180830381865afa15801561091c573d5f803e3d5ffd5b505050506040513d601f19601f820116820180604052508101906109409190611413565b92505050919050565b5f805f8390505f8173ffffffffffffffffffffffffffffffffffffffff16630dfe16816040518163ffffffff1660e01b8152600401602060405180830381865afa158015610999573d5f803e3d5ffd5b505050506040513d601f19601f820116820180604052508101906109bd9190611396565b90505f8273ffffffffffffffffffffffffffffffffffffffff1663d21220a76040518163ffffffff1660e01b8152600401602060405180830381865afa158015610a09573d5f803e3d5ffd5b505050506040513d601f19601f82011682018060405250810190610a2d9190611396565b90508173ffffffffffffffffffffffffffffffffffffffff166370a08231876040518263ffffffff1660e01b8152600401610a6891906113d0565b602060405180830381865afa158015610a83573d5f803e3d5ffd5b505050506040513d601f19601f82011682018060405250810190610aa79190611413565b94508073ffffffffffffffffffffffffffffffffffffffff166370a08231876040518263ffffffff1660e01b8152600401610ae291906113d0565b602060405180830381865afa158015610afd573d5f803e3d5ffd5b505050506040513d601f19601f82011682018060405250810190610b219190611413565b9350505050915091565b5f80610b5c8360600151845f0151610b4391906110ff565b84604001518560200151610b5791906110ff565b610e1e565b90505f8113610b6e575f915050610e19565b5f69d3c21bcecceda1000000821315610b925768056bc75e2d631000009050610cbc565b69152d02c7e14af6800000821315610bb457678ac7230489e800009050610cbb565b69021e19e0c9bab2400000821315610bd657670de0b6b3a76400009050610cba565b683635c9adc5dea00000821315610bf75767016345785d8a00009050610cb9565b68056bc75e2d63100000821315610c1757662386f26fc100009050610cb8565b678ac7230489e80000821315610c365766038d7ea4c680009050610cb7565b670de0b6b3a7640000821315610c5457655af3107a40009050610cb6565b67016345785d8a0000821315610c72576509184e72a0009050610cb5565b662386f26fc10000821315610c8e5764e8d4a510009050610cb4565b66038d7ea4c68000821315610caa5764174876e8009050610cb3565b6402540be40090505b5b5b5b5b5b5b5b5b5b5f805f8084885f0151610ccf91906110cf565b858960400151610cdf91906110cf565b868a60200151610cef91906110cf565b878b60600151610cff91906110cf565b9350935093509350808312610d49576040517f08c379a0000000000000000000000000000000000000000000000000000000008152600401610d4090611498565b60405180910390fd5b5f610d90610d778585610d5c91906114bf565b8488610d6891906114bf565b610d729190611535565b610ec4565b610d8b8488610d8691906114bf565b610ec4565b610ee7565b90505f8103610da8575f975050505050505050610e19565b5f610dc988898485610dba9190611575565b610dc491906114bf565b610e1e565b90505f8113610e0d576040517f08c379a0000000000000000000000000000000000000000000000000000000008152600401610e0490611498565b60405180910390fd5b80985050505050505050505b919050565b5f81831315610e62576040517f08c379a0000000000000000000000000000000000000000000000000000000008152600401610e5990611627565b60405180910390fd5b5f8203610ead575f610ea9576040517f08c379a0000000000000000000000000000000000000000000000000000000008152600401610ea09061168f565b60405180910390fd5b5f80fd5b818312610eba5781610ebc565b825b905092915050565b5f80821215610ed1575f80fd5b5f8214610ede5781610ee0565b5f5b9050919050565b5f818313610ef55781610ef7565b825b905092915050565b60405180608001604052805f81526020015f81526020015f81526020015f81525090565b5f80fd5b5f73ffffffffffffffffffffffffffffffffffffffff82169050919050565b5f610f5082610f27565b9050919050565b610f6081610f46565b8114610f6a575f80fd5b50565b5f81359050610f7b81610f57565b92915050565b5f8060408385031215610f9757610f96610f23565b5b5f610fa485828601610f6d565b9250506020610fb585828601610f6d565b9150509250929050565b5f819050919050565b610fd181610fbf565b82525050565b5f602082019050610fea5f830184610fc8565b92915050565b5f6020828403121561100557611004610f23565b5b5f61101284828501610f6d565b91505092915050565b5f60408201905061102e5f830185610fc8565b61103b6020830184610fc8565b9392505050565b7f4e487b71000000000000000000000000000000000000000000000000000000005f52601160045260245ffd5b5f61107982610fbf565b915061108483610fbf565b925082820190508082111561109c5761109b611042565b5b92915050565b7f4e487b71000000000000000000000000000000000000000000000000000000005f52601260045260245ffd5b5f6110d982610fbf565b91506110e483610fbf565b9250826110f4576110f36110a2565b5b828204905092915050565b5f61110982610fbf565b915061111483610fbf565b925082820261112281610fbf565b9150828204841483151761113957611138611042565b5b5092915050565b5f61114a82610fbf565b915061115583610fbf565b925082820390508181111561116d5761116c611042565b5b92915050565b61117c81610f27565b8114611186575f80fd5b50565b5f8151905061119781611173565b92915050565b5f8160020b9050919050565b6111b28161119d565b81146111bc575f80fd5b50565b5f815190506111cd816111a9565b92915050565b5f61ffff82169050919050565b6111e9816111d3565b81146111f3575f80fd5b50565b5f81519050611204816111e0565b92915050565b5f60ff82169050919050565b61121f8161120a565b8114611229575f80fd5b50565b5f8151905061123a81611216565b92915050565b5f8115159050919050565b61125481611240565b811461125e575f80fd5b50565b5f8151905061126f8161124b565b92915050565b5f805f805f805f60e0888a0312156112905761128f610f23565b5b5f61129d8a828b01611189565b97505060206112ae8a828b016111bf565b96505060406112bf8a828b016111f6565b95505060606112d08a828b016111f6565b94505060806112e18a828b016111f6565b93505060a06112f28a828b0161122c565b92505060c06113038a828b01611261565b91505092959891949750929550565b5f6fffffffffffffffffffffffffffffffff82169050919050565b61133681611312565b8114611340575f80fd5b50565b5f815190506113518161132d565b92915050565b5f6020828403121561136c5761136b610f23565b5b5f61137984828501611343565b91505092915050565b5f8151905061139081610f57565b92915050565b5f602082840312156113ab576113aa610f23565b5b5f6113b884828501611382565b91505092915050565b6113ca81610f46565b82525050565b5f6020820190506113e35f8301846113c1565b92915050565b6113f281610fbf565b81146113fc575f80fd5b50565b5f8151905061140d816113e9565b92915050565b5f6020828403121561142857611427610f23565b5b5f611435848285016113ff565b91505092915050565b5f82825260208201905092915050565b7f57726f6e6720696e707574206f726465720000000000000000000000000000005f82015250565b5f61148260118361143e565b915061148d8261144e565b602082019050919050565b5f6020820190508181035f8301526114af81611476565b9050919050565b5f819050919050565b5f6114c9826114b6565b91506114d4836114b6565b92508282026114e2816114b6565b91507f800000000000000000000000000000000000000000000000000000000000000084145f8412161561151957611518611042565b5b828205841483151761152e5761152d611042565b5b5092915050565b5f61153f826114b6565b915061154a836114b6565b925082820390508181125f8412168282135f85121516171561156f5761156e611042565b5b92915050565b5f61157f826114b6565b915061158a836114b6565b92508261159a576115996110a2565b5b60015f0383147f8000000000000000000000000000000000000000000000000000000000000000831416156115d2576115d1611042565b5b828205905092915050565b7f6120697320626967676572207468616e206200000000000000000000000000005f82015250565b5f61161160128361143e565b915061161c826115dd565b602082019050919050565b5f6020820190508181035f83015261163e81611605565b9050919050565b7f43616e277420646976696465206279207a65726f0000000000000000000000005f82015250565b5f61167960148361143e565b915061168482611645565b602082019050919050565b5f6020820190508181035f8301526116a68161166d565b905091905056fea2646970667358221220a8f7e7ed7e30cf98fea308f2865ea808a50cb9c410a03d54c9d433c755d083fe64736f6c63430008140033",
					"opcodes": "PUSH1 0x80 PUSH1 0x40 MSTORE CALLVALUE DUP1 ISZERO PUSH2 0xF JUMPI PUSH0 DUP1 REVERT JUMPDEST POP PUSH2 0x16E3 DUP1 PUSH2 0x1D PUSH0 CODECOPY PUSH0 RETURN INVALID PUSH1 0x80 PUSH1 0x40 MSTORE CALLVALUE DUP1 ISZERO PUSH2 0xF JUMPI PUSH0 DUP1 REVERT JUMPDEST POP PUSH1 0x4 CALLDATASIZE LT PUSH2 0x9C JUMPI PUSH0 CALLDATALOAD PUSH1 0xE0 SHR DUP1 PUSH4 0x7232688E GT PUSH2 0x64 JUMPI DUP1 PUSH4 0x7232688E EQ PUSH2 0x191 JUMPI DUP1 PUSH4 0x7D9ADA3E EQ PUSH2 0x1C2 JUMPI DUP1 PUSH4 0x9872971A EQ PUSH2 0x1F2 JUMPI DUP1 PUSH4 0xB49BBCE5 EQ PUSH2 0x222 JUMPI DUP1 PUSH4 0xEC0A63D8 EQ PUSH2 0x252 JUMPI PUSH2 0x9C JUMP JUMPDEST DUP1 PUSH4 0xD83825B EQ PUSH2 0xA0 JUMPI DUP1 PUSH4 0x1E953B15 EQ PUSH2 0xD0 JUMPI DUP1 PUSH4 0x1FDD03CB EQ PUSH2 0x101 JUMPI DUP1 PUSH4 0x21FEF881 EQ PUSH2 0x131 JUMPI DUP1 PUSH4 0x44401A24 EQ PUSH2 0x161 JUMPI JUMPDEST PUSH0 DUP1 REVERT JUMPDEST PUSH2 0xBA PUSH1 0x4 DUP1 CALLDATASIZE SUB DUP2 ADD SWAP1 PUSH2 0xB5 SWAP2 SWAP1 PUSH2 0xF81 JUMP JUMPDEST PUSH2 0x283 JUMP JUMPDEST PUSH1 0x40 MLOAD PUSH2 0xC7 SWAP2 SWAP1 PUSH2 0xFD7 JUMP JUMPDEST PUSH1 0x40 MLOAD DUP1 SWAP2 SUB SWAP1 RETURN JUMPDEST PUSH2 0xEA PUSH1 0x4 DUP1 CALLDATASIZE SUB DUP2 ADD SWAP1 PUSH2 0xE5 SWAP2 SWAP1 PUSH2 0xFF0 JUMP JUMPDEST PUSH2 0x2F7 JUMP JUMPDEST PUSH1 0x40 MLOAD PUSH2 0xF8 SWAP3 SWAP2 SWAP1 PUSH2 0x101B JUMP JUMPDEST PUSH1 0x40 MLOAD DUP1 SWAP2 SUB SWAP1 RETURN JUMPDEST PUSH2 0x11B PUSH1 0x4 DUP1 CALLDATASIZE SUB DUP2 ADD SWAP1 PUSH2 0x116 SWAP2 SWAP1 PUSH2 0xFF0 JUMP JUMPDEST PUSH2 0x423 JUMP JUMPDEST PUSH1 0x40 MLOAD PUSH2 0x128 SWAP2 SWAP1 PUSH2 0xFD7 JUMP JUMPDEST PUSH1 0x40 MLOAD DUP1 SWAP2 SUB SWAP1 RETURN JUMPDEST PUSH2 0x14B PUSH1 0x4 DUP1 CALLDATASIZE SUB DUP2 ADD SWAP1 PUSH2 0x146 SWAP2 SWAP1 PUSH2 0xF81 JUMP JUMPDEST PUSH2 0x519 JUMP JUMPDEST PUSH1 0x40 MLOAD PUSH2 0x158 SWAP2 SWAP1 PUSH2 0xFD7 JUMP JUMPDEST PUSH1 0x40 MLOAD DUP1 SWAP2 SUB SWAP1 RETURN JUMPDEST PUSH2 0x17B PUSH1 0x4 DUP1 CALLDATASIZE SUB DUP2 ADD SWAP1 PUSH2 0x176 SWAP2 SWAP1 PUSH2 0xF81 JUMP JUMPDEST PUSH2 0x55D JUMP JUMPDEST PUSH1 0x40 MLOAD PUSH2 0x188 SWAP2 SWAP1 PUSH2 0xFD7 JUMP JUMPDEST PUSH1 0x40 MLOAD DUP1 SWAP2 SUB SWAP1 RETURN JUMPDEST PUSH2 0x1AB PUSH1 0x4 DUP1 CALLDATASIZE SUB DUP2 ADD SWAP1 PUSH2 0x1A6 SWAP2 SWAP1 PUSH2 0xFF0 JUMP JUMPDEST PUSH2 0x5AD JUMP JUMPDEST PUSH1 0x40 MLOAD PUSH2 0x1B9 SWAP3 SWAP2 SWAP1 PUSH2 0x101B JUMP JUMPDEST PUSH1 0x40 MLOAD DUP1 SWAP2 SUB SWAP1 RETURN JUMPDEST PUSH2 0x1DC PUSH1 0x4 DUP1 CALLDATASIZE SUB DUP2 ADD SWAP1 PUSH2 0x1D7 SWAP2 SWAP1 PUSH2 0xF81 JUMP JUMPDEST PUSH2 0x78F JUMP JUMPDEST PUSH1 0x40 MLOAD PUSH2 0x1E9 SWAP2 SWAP1 PUSH2 0xFD7 JUMP JUMPDEST PUSH1 0x40 MLOAD DUP1 SWAP2 SUB SWAP1 RETURN JUMPDEST PUSH2 0x20C PUSH1 0x4 DUP1 CALLDATASIZE SUB DUP2 ADD SWAP1 PUSH2 0x207 SWAP2 SWAP1 PUSH2 0xF81 JUMP JUMPDEST PUSH2 0x7DF JUMP JUMPDEST PUSH1 0x40 MLOAD PUSH2 0x219 SWAP2 SWAP1 PUSH2 0xFD7 JUMP JUMPDEST PUSH1 0x40 MLOAD DUP1 SWAP2 SUB SWAP1 RETURN JUMPDEST PUSH2 0x23C PUSH1 0x4 DUP1 CALLDATASIZE SUB DUP2 ADD SWAP1 PUSH2 0x237 SWAP2 SWAP1 PUSH2 0xFF0 JUMP JUMPDEST PUSH2 0x853 JUMP JUMPDEST PUSH1 0x40 MLOAD PUSH2 0x249 SWAP2 SWAP1 PUSH2 0xFD7 JUMP JUMPDEST PUSH1 0x40 MLOAD DUP1 SWAP2 SUB SWAP1 RETURN JUMPDEST PUSH2 0x26C PUSH1 0x4 DUP1 CALLDATASIZE SUB DUP2 ADD SWAP1 PUSH2 0x267 SWAP2 SWAP1 PUSH2 0xFF0 JUMP JUMPDEST PUSH2 0x949 JUMP JUMPDEST PUSH1 0x40 MLOAD PUSH2 0x27A SWAP3 SWAP2 SWAP1 PUSH2 0x101B JUMP JUMPDEST PUSH1 0x40 MLOAD DUP1 SWAP2 SUB SWAP1 RETURN JUMPDEST PUSH0 DUP1 PUSH2 0x28E DUP5 PUSH2 0x2F7 JUMP JUMPDEST SWAP2 POP POP PUSH0 PUSH2 0x29B DUP5 PUSH2 0x2F7 JUMP JUMPDEST SWAP2 POP POP PUSH1 0x2 DUP3 DUP3 PUSH2 0x2AC SWAP2 SWAP1 PUSH2 0x106F JUMP JUMPDEST DUP3 PUSH3 0xF4240 PUSH8 0xDE0B6B3A7640000 DUP7 PUSH2 0x2C5 SWAP2 SWAP1 PUSH2 0x10CF JUMP JUMPDEST PUSH2 0x2CF SWAP2 SWAP1 PUSH2 0x10FF JUMP JUMPDEST PUSH2 0x2D9 SWAP2 SWAP1 PUSH2 0x1140 JUMP JUMPDEST PUSH2 0x2E3 SWAP2 SWAP1 PUSH2 0x10CF JUMP JUMPDEST PUSH2 0x2ED SWAP2 SWAP1 PUSH2 0x10CF JUMP JUMPDEST SWAP3 POP POP POP SWAP3 SWAP2 POP POP JUMP JUMPDEST PUSH0 DUP1 PUSH0 DUP4 SWAP1 POP DUP1 PUSH20 0xFFFFFFFFFFFFFFFFFFFFFFFFFFFFFFFFFFFFFFFF AND PUSH4 0x3850C7BD PUSH1 0x40 MLOAD DUP2 PUSH4 0xFFFFFFFF AND PUSH1 0xE0 SHL DUP2 MSTORE PUSH1 0x4 ADD PUSH1 0xE0 PUSH1 0x40 MLOAD DUP1 DUP4 SUB DUP2 DUP7 GAS STATICCALL ISZERO DUP1 ISZERO PUSH2 0x346 JUMPI RETURNDATASIZE PUSH0 DUP1 RETURNDATACOPY RETURNDATASIZE PUSH0 REVERT JUMPDEST POP POP POP POP PUSH1 0x40 MLOAD RETURNDATASIZE PUSH1 0x1F NOT PUSH1 0x1F DUP3 ADD AND DUP3 ADD DUP1 PUSH1 0x40 MSTORE POP DUP2 ADD SWAP1 PUSH2 0x36A SWAP2 SWAP1 PUSH2 0x1275 JUMP JUMPDEST DUP7 PUSH20 0xFFFFFFFFFFFFFFFFFFFFFFFFFFFFFFFFFFFFFFFF AND SWAP7 POP SWAP1 SWAP2 SWAP3 SWAP4 SWAP5 POP SWAP1 SWAP2 SWAP3 SWAP4 POP SWAP1 SWAP2 SWAP3 POP SWAP1 SWAP2 POP SWAP1 POP POP DUP1 SWAP3 POP POP DUP1 PUSH20 0xFFFFFFFFFFFFFFFFFFFFFFFFFFFFFFFFFFFFFFFF AND PUSH4 0x1A686502 PUSH1 0x40 MLOAD DUP2 PUSH4 0xFFFFFFFF AND PUSH1 0xE0 SHL DUP2 MSTORE PUSH1 0x4 ADD PUSH1 0x20 PUSH1 0x40 MLOAD DUP1 DUP4 SUB DUP2 DUP7 GAS STATICCALL ISZERO DUP1 ISZERO PUSH2 0x3E5 JUMPI RETURNDATASIZE PUSH0 DUP1 RETURNDATACOPY RETURNDATASIZE PUSH0 REVERT JUMPDEST POP POP POP POP PUSH1 0x40 MLOAD RETURNDATASIZE PUSH1 0x1F NOT PUSH1 0x1F DUP3 ADD AND DUP3 ADD DUP1 PUSH1 0x40 MSTORE POP DUP2 ADD SWAP1 PUSH2 0x409 SWAP2 SWAP1 PUSH2 0x1357 JUMP JUMPDEST PUSH16 0xFFFFFFFFFFFFFFFFFFFFFFFFFFFFFFFF AND SWAP3 POP POP SWAP2 POP SWAP2 JUMP JUMPDEST PUSH0 DUP1 DUP3 SWAP1 POP PUSH0 DUP2 PUSH20 0xFFFFFFFFFFFFFFFFFFFFFFFFFFFFFFFFFFFFFFFF AND PUSH4 0xDFE1681 PUSH1 0x40 MLOAD DUP2 PUSH4 0xFFFFFFFF AND PUSH1 0xE0 SHL DUP2 MSTORE PUSH1 0x4 ADD PUSH1 0x20 PUSH1 0x40 MLOAD DUP1 DUP4 SUB DUP2 DUP7 GAS STATICCALL ISZERO DUP1 ISZERO PUSH2 0x472 JUMPI RETURNDATASIZE PUSH0 DUP1 RETURNDATACOPY RETURNDATASIZE PUSH0 REVERT JUMPDEST POP POP POP POP PUSH1 0x40 MLOAD RETURNDATASIZE PUSH1 0x1F NOT PUSH1 0x1F DUP3 ADD AND DUP3 ADD DUP1 PUSH1 0x40 MSTORE POP DUP2 ADD SWAP1 PUSH2 0x496 SWAP2 SWAP1 PUSH2 0x1396 JUMP JUMPDEST SWAP1 POP DUP1 PUSH20 0xFFFFFFFFFFFFFFFFFFFFFFFFFFFFFFFFFFFFFFFF AND PUSH4 0x70A08231 DUP6 PUSH1 0x40 MLOAD DUP3 PUSH4 0xFFFFFFFF AND PUSH1 0xE0 SHL DUP2 MSTORE PUSH1 0x4 ADD PUSH2 0x4D1 SWAP2 SWAP1 PUSH2 0x13D0 JUMP JUMPDEST PUSH1 0x20 PUSH1 0x40 MLOAD DUP1 DUP4 SUB DUP2 DUP7 GAS STATICCALL ISZERO DUP1 ISZERO PUSH2 0x4EC JUMPI RETURNDATASIZE PUSH0 DUP1 RETURNDATACOPY RETURNDATASIZE PUSH0 REVERT JUMPDEST POP POP POP POP PUSH1 0x40 MLOAD RETURNDATASIZE PUSH1 0x1F NOT PUSH1 0x1F DUP3 ADD AND DUP3 ADD DUP1 PUSH1 0x40 MSTORE POP DUP2 ADD SWAP1 PUSH2 0x510 SWAP2 SWAP1 PUSH2 0x1413 JUMP JUMPDEST SWAP3 POP POP POP SWAP2 SWAP1 POP JUMP JUMPDEST PUSH0 DUP1 PUSH2 0x525 DUP5 DUP5 PUSH2 0x7DF JUMP JUMPDEST SWAP1 POP PUSH0 PUSH2 0x532 DUP5 DUP7 PUSH2 0x283 JUMP JUMPDEST SWAP1 POP PUSH8 0xDE0B6B3A7640000 DUP2 DUP4 PUSH2 0x549 SWAP2 SWAP1 PUSH2 0x10FF JUMP JUMPDEST PUSH2 0x553 SWAP2 SWAP1 PUSH2 0x10CF JUMP JUMPDEST SWAP3 POP POP POP SWAP3 SWAP2 POP POP JUMP JUMPDEST PUSH0 PUSH2 0x566 PUSH2 0xEFF JUMP JUMPDEST PUSH2 0x56F DUP5 PUSH2 0x5AD JUMP JUMPDEST DUP3 PUSH0 ADD DUP4 PUSH1 0x20 ADD DUP3 DUP2 MSTORE POP DUP3 DUP2 MSTORE POP POP POP PUSH2 0x589 DUP4 PUSH2 0x5AD JUMP JUMPDEST DUP3 PUSH1 0x40 ADD DUP4 PUSH1 0x60 ADD DUP3 DUP2 MSTORE POP DUP3 DUP2 MSTORE POP POP POP PUSH2 0x5A4 DUP2 PUSH2 0xB2B JUMP JUMPDEST SWAP2 POP POP SWAP3 SWAP2 POP POP JUMP JUMPDEST PUSH0 DUP1 PUSH0 DUP4 SWAP1 POP PUSH0 DUP2 PUSH20 0xFFFFFFFFFFFFFFFFFFFFFFFFFFFFFFFFFFFFFFFF AND PUSH4 0xDFE1681 PUSH1 0x40 MLOAD DUP2 PUSH4 0xFFFFFFFF AND PUSH1 0xE0 SHL DUP2 MSTORE PUSH1 0x4 ADD PUSH1 0x20 PUSH1 0x40 MLOAD DUP1 DUP4 SUB DUP2 DUP7 GAS STATICCALL ISZERO DUP1 ISZERO PUSH2 0x5FD JUMPI RETURNDATASIZE PUSH0 DUP1 RETURNDATACOPY RETURNDATASIZE PUSH0 REVERT JUMPDEST POP POP POP POP PUSH1 0x40 MLOAD RETURNDATASIZE PUSH1 0x1F NOT PUSH1 0x1F DUP3 ADD AND DUP3 ADD DUP1 PUSH1 0x40 MSTORE POP DUP2 ADD SWAP1 PUSH2 0x621 SWAP2 SWAP1 PUSH2 0x1396 JUMP JUMPDEST SWAP1 POP PUSH0 DUP3 PUSH20 0xFFFFFFFFFFFFFFFFFFFFFFFFFFFFFFFFFFFFFFFF AND PUSH4 0xD21220A7 PUSH1 0x40 MLOAD DUP2 PUSH4 0xFFFFFFFF AND PUSH1 0xE0 SHL DUP2 MSTORE PUSH1 0x4 ADD PUSH1 0x20 PUSH1 0x40 MLOAD DUP1 DUP4 SUB DUP2 DUP7 GAS STATICCALL ISZERO DUP1 ISZERO PUSH2 0x66D JUMPI RETURNDATASIZE PUSH0 DUP1 RETURNDATACOPY RETURNDATASIZE PUSH0 REVERT JUMPDEST POP POP POP POP PUSH1 0x40 MLOAD RETURNDATASIZE PUSH1 0x1F NOT PUSH1 0x1F DUP3 ADD AND DUP3 ADD DUP1 PUSH1 0x40 MSTORE POP DUP2 ADD SWAP1 PUSH2 0x691 SWAP2 SWAP1 PUSH2 0x1396 JUMP JUMPDEST SWAP1 POP DUP2 PUSH20 0xFFFFFFFFFFFFFFFFFFFFFFFFFFFFFFFFFFFFFFFF AND PUSH4 0x70A08231 DUP8 PUSH1 0x40 MLOAD DUP3 PUSH4 0xFFFFFFFF AND PUSH1 0xE0 SHL DUP2 MSTORE PUSH1 0x4 ADD PUSH2 0x6CC SWAP2 SWAP1 PUSH2 0x13D0 JUMP JUMPDEST PUSH1 0x20 PUSH1 0x40 MLOAD DUP1 DUP4 SUB DUP2 DUP7 GAS STATICCALL ISZERO DUP1 ISZERO PUSH2 0x6E7 JUMPI RETURNDATASIZE PUSH0 DUP1 RETURNDATACOPY RETURNDATASIZE PUSH0 REVERT JUMPDEST POP POP POP POP PUSH1 0x40 MLOAD RETURNDATASIZE PUSH1 0x1F NOT PUSH1 0x1F DUP3 ADD AND DUP3 ADD DUP1 PUSH1 0x40 MSTORE POP DUP2 ADD SWAP1 PUSH2 0x70B SWAP2 SWAP1 PUSH2 0x1413 JUMP JUMPDEST SWAP5 POP DUP1 PUSH20 0xFFFFFFFFFFFFFFFFFFFFFFFFFFFFFFFFFFFFFFFF AND PUSH4 0x70A08231 DUP8 PUSH1 0x40 MLOAD DUP3 PUSH4 0xFFFFFFFF AND PUSH1 0xE0 SHL DUP2 MSTORE PUSH1 0x4 ADD PUSH2 0x746 SWAP2 SWAP1 PUSH2 0x13D0 JUMP JUMPDEST PUSH1 0x20 PUSH1 0x40 MLOAD DUP1 DUP4 SUB DUP2 DUP7 GAS STATICCALL ISZERO DUP1 ISZERO PUSH2 0x761 JUMPI RETURNDATASIZE PUSH0 DUP1 RETURNDATACOPY RETURNDATASIZE PUSH0 REVERT JUMPDEST POP POP POP POP PUSH1 0x40 MLOAD RETURNDATASIZE PUSH1 0x1F NOT PUSH1 0x1F DUP3 ADD AND DUP3 ADD DUP1 PUSH1 0x40 MSTORE POP DUP2 ADD SWAP1 PUSH2 0x785 SWAP2 SWAP1 PUSH2 0x1413 JUMP JUMPDEST SWAP4 POP POP POP POP SWAP2 POP SWAP2 JUMP JUMPDEST PUSH0 PUSH2 0x798 PUSH2 0xEFF JUMP JUMPDEST PUSH2 0x7A1 DUP5 PUSH2 0x949 JUMP JUMPDEST DUP3 PUSH0 ADD DUP4 PUSH1 0x20 ADD DUP3 DUP2 MSTORE POP DUP3 DUP2 MSTORE POP POP POP PUSH2 0x7BB DUP4 PUSH2 0x949 JUMP JUMPDEST DUP3 PUSH1 0x40 ADD DUP4 PUSH1 0x60 ADD DUP3 DUP2 MSTORE POP DUP3 DUP2 MSTORE POP POP POP PUSH2 0x7D6 DUP2 PUSH2 0xB2B JUMP JUMPDEST SWAP2 POP POP SWAP3 SWAP2 POP POP JUMP JUMPDEST PUSH0 DUP1 PUSH2 0x7EA DUP5 PUSH2 0x2F7 JUMP JUMPDEST POP SWAP1 POP PUSH0 PUSH2 0x7F7 DUP5 PUSH2 0x2F7 JUMP JUMPDEST POP SWAP1 POP PUSH1 0x2 DUP3 PUSH2 0x807 SWAP2 SWAP1 PUSH2 0x10CF JUMP JUMPDEST DUP2 PUSH2 0x812 SWAP2 SWAP1 PUSH2 0x106F JUMP JUMPDEST DUP2 PUSH3 0xF4240 PUSH8 0xDE0B6B3A7640000 DUP6 PUSH2 0x82B SWAP2 SWAP1 PUSH2 0x10CF JUMP JUMPDEST PUSH2 0x835 SWAP2 SWAP1 PUSH2 0x10FF JUMP JUMPDEST PUSH2 0x83F SWAP2 SWAP1 PUSH2 0x1140 JUMP JUMPDEST PUSH2 0x849 SWAP2 SWAP1 PUSH2 0x10CF JUMP JUMPDEST SWAP3 POP POP POP SWAP3 SWAP2 POP POP JUMP JUMPDEST PUSH0 DUP1 DUP3 SWAP1 POP PUSH0 DUP2 PUSH20 0xFFFFFFFFFFFFFFFFFFFFFFFFFFFFFFFFFFFFFFFF AND PUSH4 0xD21220A7 PUSH1 0x40 MLOAD DUP2 PUSH4 0xFFFFFFFF AND PUSH1 0xE0 SHL DUP2 MSTORE PUSH1 0x4 ADD PUSH1 0x20 PUSH1 0x40 MLOAD DUP1 DUP4 SUB DUP2 DUP7 GAS STATICCALL ISZERO DUP1 ISZERO PUSH2 0x8A2 JUMPI RETURNDATASIZE PUSH0 DUP1 RETURNDATACOPY RETURNDATASIZE PUSH0 REVERT JUMPDEST POP POP POP POP PUSH1 0x40 MLOAD RETURNDATASIZE PUSH1 0x1F NOT PUSH1 0x1F DUP3 ADD AND DUP3 ADD DUP1 PUSH1 0x40 MSTORE POP DUP2 ADD SWAP1 PUSH2 0x8C6 SWAP2 SWAP1 PUSH2 0x1396 JUMP JUMPDEST SWAP1 POP DUP1 PUSH20 0xFFFFFFFFFFFFFFFFFFFFFFFFFFFFFFFFFFFFFFFF AND PUSH4 0x70A08231 DUP6 PUSH1 0x40 MLOAD DUP3 PUSH4 0xFFFFFFFF AND PUSH1 0xE0 SHL DUP2 MSTORE PUSH1 0x4 ADD PUSH2 0x901 SWAP2 SWAP1 PUSH2 0x13D0 JUMP JUMPDEST PUSH1 0x20 PUSH1 0x40 MLOAD DUP1 DUP4 SUB DUP2 DUP7 GAS STATICCALL ISZERO DUP1 ISZERO PUSH2 0x91C JUMPI RETURNDATASIZE PUSH0 DUP1 RETURNDATACOPY RETURNDATASIZE PUSH0 REVERT JUMPDEST POP POP POP POP PUSH1 0x40 MLOAD RETURNDATASIZE PUSH1 0x1F NOT PUSH1 0x1F DUP3 ADD AND DUP3 ADD DUP1 PUSH1 0x40 MSTORE POP DUP2 ADD SWAP1 PUSH2 0x940 SWAP2 SWAP1 PUSH2 0x1413 JUMP JUMPDEST SWAP3 POP POP POP SWAP2 SWAP1 POP JUMP JUMPDEST PUSH0 DUP1 PUSH0 DUP4 SWAP1 POP PUSH0 DUP2 PUSH20 0xFFFFFFFFFFFFFFFFFFFFFFFFFFFFFFFFFFFFFFFF AND PUSH4 0xDFE1681 PUSH1 0x40 MLOAD DUP2 PUSH4 0xFFFFFFFF AND PUSH1 0xE0 SHL DUP2 MSTORE PUSH1 0x4 ADD PUSH1 0x20 PUSH1 0x40 MLOAD DUP1 DUP4 SUB DUP2 DUP7 GAS STATICCALL ISZERO DUP1 ISZERO PUSH2 0x999 JUMPI RETURNDATASIZE PUSH0 DUP1 RETURNDATACOPY RETURNDATASIZE PUSH0 REVERT JUMPDEST POP POP POP POP PUSH1 0x40 MLOAD RETURNDATASIZE PUSH1 0x1F NOT PUSH1 0x1F DUP3 ADD AND DUP3 ADD DUP1 PUSH1 0x40 MSTORE POP DUP2 ADD SWAP1 PUSH2 0x9BD SWAP2 SWAP1 PUSH2 0x1396 JUMP JUMPDEST SWAP1 POP PUSH0 DUP3 PUSH20 0xFFFFFFFFFFFFFFFFFFFFFFFFFFFFFFFFFFFFFFFF AND PUSH4 0xD21220A7 PUSH1 0x40 MLOAD DUP2 PUSH4 0xFFFFFFFF AND PUSH1 0xE0 SHL DUP2 MSTORE PUSH1 0x4 ADD PUSH1 0x20 PUSH1 0x40 MLOAD DUP1 DUP4 SUB DUP2 DUP7 GAS STATICCALL ISZERO DUP1 ISZERO PUSH2 0xA09 JUMPI RETURNDATASIZE PUSH0 DUP1 RETURNDATACOPY RETURNDATASIZE PUSH0 REVERT JUMPDEST POP POP POP POP PUSH1 0x40 MLOAD RETURNDATASIZE PUSH1 0x1F NOT PUSH1 0x1F DUP3 ADD AND DUP3 ADD DUP1 PUSH1 0x40 MSTORE POP DUP2 ADD SWAP1 PUSH2 0xA2D SWAP2 SWAP1 PUSH2 0x1396 JUMP JUMPDEST SWAP1 POP DUP2 PUSH20 0xFFFFFFFFFFFFFFFFFFFFFFFFFFFFFFFFFFFFFFFF AND PUSH4 0x70A08231 DUP8 PUSH1 0x40 MLOAD DUP3 PUSH4 0xFFFFFFFF AND PUSH1 0xE0 SHL DUP2 MSTORE PUSH1 0x4 ADD PUSH2 0xA68 SWAP2 SWAP1 PUSH2 0x13D0 JUMP JUMPDEST PUSH1 0x20 PUSH1 0x40 MLOAD DUP1 DUP4 SUB DUP2 DUP7 GAS STATICCALL ISZERO DUP1 ISZERO PUSH2 0xA83 JUMPI RETURNDATASIZE PUSH0 DUP1 RETURNDATACOPY RETURNDATASIZE PUSH0 REVERT JUMPDEST POP POP POP POP PUSH1 0x40 MLOAD RETURNDATASIZE PUSH1 0x1F NOT PUSH1 0x1F DUP3 ADD AND DUP3 ADD DUP1 PUSH1 0x40 MSTORE POP DUP2 ADD SWAP1 PUSH2 0xAA7 SWAP2 SWAP1 PUSH2 0x1413 JUMP JUMPDEST SWAP5 POP DUP1 PUSH20 0xFFFFFFFFFFFFFFFFFFFFFFFFFFFFFFFFFFFFFFFF AND PUSH4 0x70A08231 DUP8 PUSH1 0x40 MLOAD DUP3 PUSH4 0xFFFFFFFF AND PUSH1 0xE0 SHL DUP2 MSTORE PUSH1 0x4 ADD PUSH2 0xAE2 SWAP2 SWAP1 PUSH2 0x13D0 JUMP JUMPDEST PUSH1 0x20 PUSH1 0x40 MLOAD DUP1 DUP4 SUB DUP2 DUP7 GAS STATICCALL ISZERO DUP1 ISZERO PUSH2 0xAFD JUMPI RETURNDATASIZE PUSH0 DUP1 RETURNDATACOPY RETURNDATASIZE PUSH0 REVERT JUMPDEST POP POP POP POP PUSH1 0x40 MLOAD RETURNDATASIZE PUSH1 0x1F NOT PUSH1 0x1F DUP3 ADD AND DUP3 ADD DUP1 PUSH1 0x40 MSTORE POP DUP2 ADD SWAP1 PUSH2 0xB21 SWAP2 SWAP1 PUSH2 0x1413 JUMP JUMPDEST SWAP4 POP POP POP POP SWAP2 POP SWAP2 JUMP JUMPDEST PUSH0 DUP1 PUSH2 0xB5C DUP4 PUSH1 0x60 ADD MLOAD DUP5 PUSH0 ADD MLOAD PUSH2 0xB43 SWAP2 SWAP1 PUSH2 0x10FF JUMP JUMPDEST DUP5 PUSH1 0x40 ADD MLOAD DUP6 PUSH1 0x20 ADD MLOAD PUSH2 0xB57 SWAP2 SWAP1 PUSH2 0x10FF JUMP JUMPDEST PUSH2 0xE1E JUMP JUMPDEST SWAP1 POP PUSH0 DUP2 SGT PUSH2 0xB6E JUMPI PUSH0 SWAP2 POP POP PUSH2 0xE19 JUMP JUMPDEST PUSH0 PUSH10 0xD3C21BCECCEDA1000000 DUP3 SGT ISZERO PUSH2 0xB92 JUMPI PUSH9 0x56BC75E2D63100000 SWAP1 POP PUSH2 0xCBC JUMP JUMPDEST PUSH10 0x152D02C7E14AF6800000 DUP3 SGT ISZERO PUSH2 0xBB4 JUMPI PUSH8 0x8AC7230489E80000 SWAP1 POP PUSH2 0xCBB JUMP JUMPDEST PUSH10 0x21E19E0C9BAB2400000 DUP3 SGT ISZERO PUSH2 0xBD6 JUMPI PUSH8 0xDE0B6B3A7640000 SWAP1 POP PUSH2 0xCBA JUMP JUMPDEST PUSH9 0x3635C9ADC5DEA00000 DUP3 SGT ISZERO PUSH2 0xBF7 JUMPI PUSH8 0x16345785D8A0000 SWAP1 POP PUSH2 0xCB9 JUMP JUMPDEST PUSH9 0x56BC75E2D63100000 DUP3 SGT ISZERO PUSH2 0xC17 JUMPI PUSH7 0x2386F26FC10000 SWAP1 POP PUSH2 0xCB8 JUMP JUMPDEST PUSH8 0x8AC7230489E80000 DUP3 SGT ISZERO PUSH2 0xC36 JUMPI PUSH7 0x38D7EA4C68000 SWAP1 POP PUSH2 0xCB7 JUMP JUMPDEST PUSH8 0xDE0B6B3A7640000 DUP3 SGT ISZERO PUSH2 0xC54 JUMPI PUSH6 0x5AF3107A4000 SWAP1 POP PUSH2 0xCB6 JUMP JUMPDEST PUSH8 0x16345785D8A0000 DUP3 SGT ISZERO PUSH2 0xC72 JUMPI PUSH6 0x9184E72A000 SWAP1 POP PUSH2 0xCB5 JUMP JUMPDEST PUSH7 0x2386F26FC10000 DUP3 SGT ISZERO PUSH2 0xC8E JUMPI PUSH5 0xE8D4A51000 SWAP1 POP PUSH2 0xCB4 JUMP JUMPDEST PUSH7 0x38D7EA4C68000 DUP3 SGT ISZERO PUSH2 0xCAA JUMPI PUSH5 0x174876E800 SWAP1 POP PUSH2 0xCB3 JUMP JUMPDEST PUSH5 0x2540BE400 SWAP1 POP JUMPDEST JUMPDEST JUMPDEST JUMPDEST JUMPDEST JUMPDEST JUMPDEST JUMPDEST JUMPDEST JUMPDEST PUSH0 DUP1 PUSH0 DUP1 DUP5 DUP9 PUSH0 ADD MLOAD PUSH2 0xCCF SWAP2 SWAP1 PUSH2 0x10CF JUMP JUMPDEST DUP6 DUP10 PUSH1 0x40 ADD MLOAD PUSH2 0xCDF SWAP2 SWAP1 PUSH2 0x10CF JUMP JUMPDEST DUP7 DUP11 PUSH1 0x20 ADD MLOAD PUSH2 0xCEF SWAP2 SWAP1 PUSH2 0x10CF JUMP JUMPDEST DUP8 DUP12 PUSH1 0x60 ADD MLOAD PUSH2 0xCFF SWAP2 SWAP1 PUSH2 0x10CF JUMP JUMPDEST SWAP4 POP SWAP4 POP SWAP4 POP SWAP4 POP DUP1 DUP4 SLT PUSH2 0xD49 JUMPI PUSH1 0x40 MLOAD PUSH32 0x8C379A000000000000000000000000000000000000000000000000000000000 DUP2 MSTORE PUSH1 0x4 ADD PUSH2 0xD40 SWAP1 PUSH2 0x1498 JUMP JUMPDEST PUSH1 0x40 MLOAD DUP1 SWAP2 SUB SWAP1 REVERT JUMPDEST PUSH0 PUSH2 0xD90 PUSH2 0xD77 DUP6 DUP6 PUSH2 0xD5C SWAP2 SWAP1 PUSH2 0x14BF JUMP JUMPDEST DUP5 DUP9 PUSH2 0xD68 SWAP2 SWAP1 PUSH2 0x14BF JUMP JUMPDEST PUSH2 0xD72 SWAP2 SWAP1 PUSH2 0x1535 JUMP JUMPDEST PUSH2 0xEC4 JUMP JUMPDEST PUSH2 0xD8B DUP5 DUP9 PUSH2 0xD86 SWAP2 SWAP1 PUSH2 0x14BF JUMP JUMPDEST PUSH2 0xEC4 JUMP JUMPDEST PUSH2 0xEE7 JUMP JUMPDEST SWAP1 POP PUSH0 DUP2 SUB PUSH2 0xDA8 JUMPI PUSH0 SWAP8 POP POP POP POP POP POP POP POP PUSH2 0xE19 JUMP JUMPDEST PUSH0 PUSH2 0xDC9 DUP9 DUP10 DUP5 DUP6 PUSH2 0xDBA SWAP2 SWAP1 PUSH2 0x1575 JUMP JUMPDEST PUSH2 0xDC4 SWAP2 SWAP1 PUSH2 0x14BF JUMP JUMPDEST PUSH2 0xE1E JUMP JUMPDEST SWAP1 POP PUSH0 DUP2 SGT PUSH2 0xE0D JUMPI PUSH1 0x40 MLOAD PUSH32 0x8C379A000000000000000000000000000000000000000000000000000000000 DUP2 MSTORE PUSH1 0x4 ADD PUSH2 0xE04 SWAP1 PUSH2 0x1498 JUMP JUMPDEST PUSH1 0x40 MLOAD DUP1 SWAP2 SUB SWAP1 REVERT JUMPDEST DUP1 SWAP9 POP POP POP POP POP POP POP POP POP JUMPDEST SWAP2 SWAP1 POP JUMP JUMPDEST PUSH0 DUP2 DUP4 SGT ISZERO PUSH2 0xE62 JUMPI PUSH1 0x40 MLOAD PUSH32 0x8C379A000000000000000000000000000000000000000000000000000000000 DUP2 MSTORE PUSH1 0x4 ADD PUSH2 0xE59 SWAP1 PUSH2 0x1627 JUMP JUMPDEST PUSH1 0x40 MLOAD DUP1 SWAP2 SUB SWAP1 REVERT JUMPDEST PUSH0 DUP3 SUB PUSH2 0xEAD JUMPI PUSH0 PUSH2 0xEA9 JUMPI PUSH1 0x40 MLOAD PUSH32 0x8C379A000000000000000000000000000000000000000000000000000000000 DUP2 MSTORE PUSH1 0x4 ADD PUSH2 0xEA0 SWAP1 PUSH2 0x168F JUMP JUMPDEST PUSH1 0x40 MLOAD DUP1 SWAP2 SUB SWAP1 REVERT JUMPDEST PUSH0 DUP1 REVERT JUMPDEST DUP2 DUP4 SLT PUSH2 0xEBA JUMPI DUP2 PUSH2 0xEBC JUMP JUMPDEST DUP3 JUMPDEST SWAP1 POP SWAP3 SWAP2 POP POP JUMP JUMPDEST PUSH0 DUP1 DUP3 SLT ISZERO PUSH2 0xED1 JUMPI PUSH0 DUP1 REVERT JUMPDEST PUSH0 DUP3 EQ PUSH2 0xEDE JUMPI DUP2 PUSH2 0xEE0 JUMP JUMPDEST PUSH0 JUMPDEST SWAP1 POP SWAP2 SWAP1 POP JUMP JUMPDEST PUSH0 DUP2 DUP4 SGT PUSH2 0xEF5 JUMPI DUP2 PUSH2 0xEF7 JUMP JUMPDEST DUP3 JUMPDEST SWAP1 POP SWAP3 SWAP2 POP POP JUMP JUMPDEST PUSH1 0x40 MLOAD DUP1 PUSH1 0x80 ADD PUSH1 0x40 MSTORE DUP1 PUSH0 DUP2 MSTORE PUSH1 0x20 ADD PUSH0 DUP2 MSTORE PUSH1 0x20 ADD PUSH0 DUP2 MSTORE PUSH1 0x20 ADD PUSH0 DUP2 MSTORE POP SWAP1 JUMP JUMPDEST PUSH0 DUP1 REVERT JUMPDEST PUSH0 PUSH20 0xFFFFFFFFFFFFFFFFFFFFFFFFFFFFFFFFFFFFFFFF DUP3 AND SWAP1 POP SWAP2 SWAP1 POP JUMP JUMPDEST PUSH0 PUSH2 0xF50 DUP3 PUSH2 0xF27 JUMP JUMPDEST SWAP1 POP SWAP2 SWAP1 POP JUMP JUMPDEST PUSH2 0xF60 DUP2 PUSH2 0xF46 JUMP JUMPDEST DUP2 EQ PUSH2 0xF6A JUMPI PUSH0 DUP1 REVERT JUMPDEST POP JUMP JUMPDEST PUSH0 DUP2 CALLDATALOAD SWAP1 POP PUSH2 0xF7B DUP2 PUSH2 0xF57 JUMP JUMPDEST SWAP3 SWAP2 POP POP JUMP JUMPDEST PUSH0 DUP1 PUSH1 0x40 DUP4 DUP6 SUB SLT ISZERO PUSH2 0xF97 JUMPI PUSH2 0xF96 PUSH2 0xF23 JUMP JUMPDEST JUMPDEST PUSH0 PUSH2 0xFA4 DUP6 DUP3 DUP7 ADD PUSH2 0xF6D JUMP JUMPDEST SWAP3 POP POP PUSH1 0x20 PUSH2 0xFB5 DUP6 DUP3 DUP7 ADD PUSH2 0xF6D JUMP JUMPDEST SWAP2 POP POP SWAP3 POP SWAP3 SWAP1 POP JUMP JUMPDEST PUSH0 DUP2 SWAP1 POP SWAP2 SWAP1 POP JUMP JUMPDEST PUSH2 0xFD1 DUP2 PUSH2 0xFBF JUMP JUMPDEST DUP3 MSTORE POP POP JUMP JUMPDEST PUSH0 PUSH1 0x20 DUP3 ADD SWAP1 POP PUSH2 0xFEA PUSH0 DUP4 ADD DUP5 PUSH2 0xFC8 JUMP JUMPDEST SWAP3 SWAP2 POP POP JUMP JUMPDEST PUSH0 PUSH1 0x20 DUP3 DUP5 SUB SLT ISZERO PUSH2 0x1005 JUMPI PUSH2 0x1004 PUSH2 0xF23 JUMP JUMPDEST JUMPDEST PUSH0 PUSH2 0x1012 DUP5 DUP3 DUP6 ADD PUSH2 0xF6D JUMP JUMPDEST SWAP2 POP POP SWAP3 SWAP2 POP POP JUMP JUMPDEST PUSH0 PUSH1 0x40 DUP3 ADD SWAP1 POP PUSH2 0x102E PUSH0 DUP4 ADD DUP6 PUSH2 0xFC8 JUMP JUMPDEST PUSH2 0x103B PUSH1 0x20 DUP4 ADD DUP5 PUSH2 0xFC8 JUMP JUMPDEST SWAP4 SWAP3 POP POP POP JUMP JUMPDEST PUSH32 0x4E487B7100000000000000000000000000000000000000000000000000000000 PUSH0 MSTORE PUSH1 0x11 PUSH1 0x4 MSTORE PUSH1 0x24 PUSH0 REVERT JUMPDEST PUSH0 PUSH2 0x1079 DUP3 PUSH2 0xFBF JUMP JUMPDEST SWAP2 POP PUSH2 0x1084 DUP4 PUSH2 0xFBF JUMP JUMPDEST SWAP3 POP DUP3 DUP3 ADD SWAP1 POP DUP1 DUP3 GT ISZERO PUSH2 0x109C JUMPI PUSH2 0x109B PUSH2 0x1042 JUMP JUMPDEST JUMPDEST SWAP3 SWAP2 POP POP JUMP JUMPDEST PUSH32 0x4E487B7100000000000000000000000000000000000000000000000000000000 PUSH0 MSTORE PUSH1 0x12 PUSH1 0x4 MSTORE PUSH1 0x24 PUSH0 REVERT JUMPDEST PUSH0 PUSH2 0x10D9 DUP3 PUSH2 0xFBF JUMP JUMPDEST SWAP2 POP PUSH2 0x10E4 DUP4 PUSH2 0xFBF JUMP JUMPDEST SWAP3 POP DUP3 PUSH2 0x10F4 JUMPI PUSH2 0x10F3 PUSH2 0x10A2 JUMP JUMPDEST JUMPDEST DUP3 DUP3 DIV SWAP1 POP SWAP3 SWAP2 POP POP JUMP JUMPDEST PUSH0 PUSH2 0x1109 DUP3 PUSH2 0xFBF JUMP JUMPDEST SWAP2 POP PUSH2 0x1114 DUP4 PUSH2 0xFBF JUMP JUMPDEST SWAP3 POP DUP3 DUP3 MUL PUSH2 0x1122 DUP2 PUSH2 0xFBF JUMP JUMPDEST SWAP2 POP DUP3 DUP3 DIV DUP5 EQ DUP4 ISZERO OR PUSH2 0x1139 JUMPI PUSH2 0x1138 PUSH2 0x1042 JUMP JUMPDEST JUMPDEST POP SWAP3 SWAP2 POP POP JUMP JUMPDEST PUSH0 PUSH2 0x114A DUP3 PUSH2 0xFBF JUMP JUMPDEST SWAP2 POP PUSH2 0x1155 DUP4 PUSH2 0xFBF JUMP JUMPDEST SWAP3 POP DUP3 DUP3 SUB SWAP1 POP DUP2 DUP2 GT ISZERO PUSH2 0x116D JUMPI PUSH2 0x116C PUSH2 0x1042 JUMP JUMPDEST JUMPDEST SWAP3 SWAP2 POP POP JUMP JUMPDEST PUSH2 0x117C DUP2 PUSH2 0xF27 JUMP JUMPDEST DUP2 EQ PUSH2 0x1186 JUMPI PUSH0 DUP1 REVERT JUMPDEST POP JUMP JUMPDEST PUSH0 DUP2 MLOAD SWAP1 POP PUSH2 0x1197 DUP2 PUSH2 0x1173 JUMP JUMPDEST SWAP3 SWAP2 POP POP JUMP JUMPDEST PUSH0 DUP2 PUSH1 0x2 SIGNEXTEND SWAP1 POP SWAP2 SWAP1 POP JUMP JUMPDEST PUSH2 0x11B2 DUP2 PUSH2 0x119D JUMP JUMPDEST DUP2 EQ PUSH2 0x11BC JUMPI PUSH0 DUP1 REVERT JUMPDEST POP JUMP JUMPDEST PUSH0 DUP2 MLOAD SWAP1 POP PUSH2 0x11CD DUP2 PUSH2 0x11A9 JUMP JUMPDEST SWAP3 SWAP2 POP POP JUMP JUMPDEST PUSH0 PUSH2 0xFFFF DUP3 AND SWAP1 POP SWAP2 SWAP1 POP JUMP JUMPDEST PUSH2 0x11E9 DUP2 PUSH2 0x11D3 JUMP JUMPDEST DUP2 EQ PUSH2 0x11F3 JUMPI PUSH0 DUP1 REVERT JUMPDEST POP JUMP JUMPDEST PUSH0 DUP2 MLOAD SWAP1 POP PUSH2 0x1204 DUP2 PUSH2 0x11E0 JUMP JUMPDEST SWAP3 SWAP2 POP POP JUMP JUMPDEST PUSH0 PUSH1 0xFF DUP3 AND SWAP1 POP SWAP2 SWAP1 POP JUMP JUMPDEST PUSH2 0x121F DUP2 PUSH2 0x120A JUMP JUMPDEST DUP2 EQ PUSH2 0x1229 JUMPI PUSH0 DUP1 REVERT JUMPDEST POP JUMP JUMPDEST PUSH0 DUP2 MLOAD SWAP1 POP PUSH2 0x123A DUP2 PUSH2 0x1216 JUMP JUMPDEST SWAP3 SWAP2 POP POP JUMP JUMPDEST PUSH0 DUP2 ISZERO ISZERO SWAP1 POP SWAP2 SWAP1 POP JUMP JUMPDEST PUSH2 0x1254 DUP2 PUSH2 0x1240 JUMP JUMPDEST DUP2 EQ PUSH2 0x125E JUMPI PUSH0 DUP1 REVERT JUMPDEST POP JUMP JUMPDEST PUSH0 DUP2 MLOAD SWAP1 POP PUSH2 0x126F DUP2 PUSH2 0x124B JUMP JUMPDEST SWAP3 SWAP2 POP POP JUMP JUMPDEST PUSH0 DUP1 PUSH0 DUP1 PUSH0 DUP1 PUSH0 PUSH1 0xE0 DUP9 DUP11 SUB SLT ISZERO PUSH2 0x1290 JUMPI PUSH2 0x128F PUSH2 0xF23 JUMP JUMPDEST JUMPDEST PUSH0 PUSH2 0x129D DUP11 DUP3 DUP12 ADD PUSH2 0x1189 JUMP JUMPDEST SWAP8 POP POP PUSH1 0x20 PUSH2 0x12AE DUP11 DUP3 DUP12 ADD PUSH2 0x11BF JUMP JUMPDEST SWAP7 POP POP PUSH1 0x40 PUSH2 0x12BF DUP11 DUP3 DUP12 ADD PUSH2 0x11F6 JUMP JUMPDEST SWAP6 POP POP PUSH1 0x60 PUSH2 0x12D0 DUP11 DUP3 DUP12 ADD PUSH2 0x11F6 JUMP JUMPDEST SWAP5 POP POP PUSH1 0x80 PUSH2 0x12E1 DUP11 DUP3 DUP12 ADD PUSH2 0x11F6 JUMP JUMPDEST SWAP4 POP POP PUSH1 0xA0 PUSH2 0x12F2 DUP11 DUP3 DUP12 ADD PUSH2 0x122C JUMP JUMPDEST SWAP3 POP POP PUSH1 0xC0 PUSH2 0x1303 DUP11 DUP3 DUP12 ADD PUSH2 0x1261 JUMP JUMPDEST SWAP2 POP POP SWAP3 SWAP6 SWAP9 SWAP2 SWAP5 SWAP8 POP SWAP3 SWAP6 POP JUMP JUMPDEST PUSH0 PUSH16 0xFFFFFFFFFFFFFFFFFFFFFFFFFFFFFFFF DUP3 AND SWAP1 POP SWAP2 SWAP1 POP JUMP JUMPDEST PUSH2 0x1336 DUP2 PUSH2 0x1312 JUMP JUMPDEST DUP2 EQ PUSH2 0x1340 JUMPI PUSH0 DUP1 REVERT JUMPDEST POP JUMP JUMPDEST PUSH0 DUP2 MLOAD SWAP1 POP PUSH2 0x1351 DUP2 PUSH2 0x132D JUMP JUMPDEST SWAP3 SWAP2 POP POP JUMP JUMPDEST PUSH0 PUSH1 0x20 DUP3 DUP5 SUB SLT ISZERO PUSH2 0x136C JUMPI PUSH2 0x136B PUSH2 0xF23 JUMP JUMPDEST JUMPDEST PUSH0 PUSH2 0x1379 DUP5 DUP3 DUP6 ADD PUSH2 0x1343 JUMP JUMPDEST SWAP2 POP POP SWAP3 SWAP2 POP POP JUMP JUMPDEST PUSH0 DUP2 MLOAD SWAP1 POP PUSH2 0x1390 DUP2 PUSH2 0xF57 JUMP JUMPDEST SWAP3 SWAP2 POP POP JUMP JUMPDEST PUSH0 PUSH1 0x20 DUP3 DUP5 SUB SLT ISZERO PUSH2 0x13AB JUMPI PUSH2 0x13AA PUSH2 0xF23 JUMP JUMPDEST JUMPDEST PUSH0 PUSH2 0x13B8 DUP5 DUP3 DUP6 ADD PUSH2 0x1382 JUMP JUMPDEST SWAP2 POP POP SWAP3 SWAP2 POP POP JUMP JUMPDEST PUSH2 0x13CA DUP2 PUSH2 0xF46 JUMP JUMPDEST DUP3 MSTORE POP POP JUMP JUMPDEST PUSH0 PUSH1 0x20 DUP3 ADD SWAP1 POP PUSH2 0x13E3 PUSH0 DUP4 ADD DUP5 PUSH2 0x13C1 JUMP JUMPDEST SWAP3 SWAP2 POP POP JUMP JUMPDEST PUSH2 0x13F2 DUP2 PUSH2 0xFBF JUMP JUMPDEST DUP2 EQ PUSH2 0x13FC JUMPI PUSH0 DUP1 REVERT JUMPDEST POP JUMP JUMPDEST PUSH0 DUP2 MLOAD SWAP1 POP PUSH2 0x140D DUP2 PUSH2 0x13E9 JUMP JUMPDEST SWAP3 SWAP2 POP POP JUMP JUMPDEST PUSH0 PUSH1 0x20 DUP3 DUP5 SUB SLT ISZERO PUSH2 0x1428 JUMPI PUSH2 0x1427 PUSH2 0xF23 JUMP JUMPDEST JUMPDEST PUSH0 PUSH2 0x1435 DUP5 DUP3 DUP6 ADD PUSH2 0x13FF JUMP JUMPDEST SWAP2 POP POP SWAP3 SWAP2 POP POP JUMP JUMPDEST PUSH0 DUP3 DUP3 MSTORE PUSH1 0x20 DUP3 ADD SWAP1 POP SWAP3 SWAP2 POP POP JUMP JUMPDEST PUSH32 0x57726F6E6720696E707574206F72646572000000000000000000000000000000 PUSH0 DUP3 ADD MSTORE POP JUMP JUMPDEST PUSH0 PUSH2 0x1482 PUSH1 0x11 DUP4 PUSH2 0x143E JUMP JUMPDEST SWAP2 POP PUSH2 0x148D DUP3 PUSH2 0x144E JUMP JUMPDEST PUSH1 0x20 DUP3 ADD SWAP1 POP SWAP2 SWAP1 POP JUMP JUMPDEST PUSH0 PUSH1 0x20 DUP3 ADD SWAP1 POP DUP2 DUP2 SUB PUSH0 DUP4 ADD MSTORE PUSH2 0x14AF DUP2 PUSH2 0x1476 JUMP JUMPDEST SWAP1 POP SWAP2 SWAP1 POP JUMP JUMPDEST PUSH0 DUP2 SWAP1 POP SWAP2 SWAP1 POP JUMP JUMPDEST PUSH0 PUSH2 0x14C9 DUP3 PUSH2 0x14B6 JUMP JUMPDEST SWAP2 POP PUSH2 0x14D4 DUP4 PUSH2 0x14B6 JUMP JUMPDEST SWAP3 POP DUP3 DUP3 MUL PUSH2 0x14E2 DUP2 PUSH2 0x14B6 JUMP JUMPDEST SWAP2 POP PUSH32 0x8000000000000000000000000000000000000000000000000000000000000000 DUP5 EQ PUSH0 DUP5 SLT AND ISZERO PUSH2 0x1519 JUMPI PUSH2 0x1518 PUSH2 0x1042 JUMP JUMPDEST JUMPDEST DUP3 DUP3 SDIV DUP5 EQ DUP4 ISZERO OR PUSH2 0x152E JUMPI PUSH2 0x152D PUSH2 0x1042 JUMP JUMPDEST JUMPDEST POP SWAP3 SWAP2 POP POP JUMP JUMPDEST PUSH0 PUSH2 0x153F DUP3 PUSH2 0x14B6 JUMP JUMPDEST SWAP2 POP PUSH2 0x154A DUP4 PUSH2 0x14B6 JUMP JUMPDEST SWAP3 POP DUP3 DUP3 SUB SWAP1 POP DUP2 DUP2 SLT PUSH0 DUP5 SLT AND DUP3 DUP3 SGT PUSH0 DUP6 SLT ISZERO AND OR ISZERO PUSH2 0x156F JUMPI PUSH2 0x156E PUSH2 0x1042 JUMP JUMPDEST JUMPDEST SWAP3 SWAP2 POP POP JUMP JUMPDEST PUSH0 PUSH2 0x157F DUP3 PUSH2 0x14B6 JUMP JUMPDEST SWAP2 POP PUSH2 0x158A DUP4 PUSH2 0x14B6 JUMP JUMPDEST SWAP3 POP DUP3 PUSH2 0x159A JUMPI PUSH2 0x1599 PUSH2 0x10A2 JUMP JUMPDEST JUMPDEST PUSH1 0x1 PUSH0 SUB DUP4 EQ PUSH32 0x8000000000000000000000000000000000000000000000000000000000000000 DUP4 EQ AND ISZERO PUSH2 0x15D2 JUMPI PUSH2 0x15D1 PUSH2 0x1042 JUMP JUMPDEST JUMPDEST DUP3 DUP3 SDIV SWAP1 POP SWAP3 SWAP2 POP POP JUMP JUMPDEST PUSH32 0x6120697320626967676572207468616E20620000000000000000000000000000 PUSH0 DUP3 ADD MSTORE POP JUMP JUMPDEST PUSH0 PUSH2 0x1611 PUSH1 0x12 DUP4 PUSH2 0x143E JUMP JUMPDEST SWAP2 POP PUSH2 0x161C DUP3 PUSH2 0x15DD JUMP JUMPDEST PUSH1 0x20 DUP3 ADD SWAP1 POP SWAP2 SWAP1 POP JUMP JUMPDEST PUSH0 PUSH1 0x20 DUP3 ADD SWAP1 POP DUP2 DUP2 SUB PUSH0 DUP4 ADD MSTORE PUSH2 0x163E DUP2 PUSH2 0x1605 JUMP JUMPDEST SWAP1 POP SWAP2 SWAP1 POP JUMP JUMPDEST PUSH32 0x43616E277420646976696465206279207A65726F000000000000000000000000 PUSH0 DUP3 ADD MSTORE POP JUMP JUMPDEST PUSH0 PUSH2 0x1679 PUSH1 0x14 DUP4 PUSH2 0x143E JUMP JUMPDEST SWAP2 POP PUSH2 0x1684 DUP3 PUSH2 0x1645 JUMP JUMPDEST PUSH1 0x20 DUP3 ADD SWAP1 POP SWAP2 SWAP1 POP JUMP JUMPDEST PUSH0 PUSH1 0x20 DUP3 ADD SWAP1 POP DUP2 DUP2 SUB PUSH0 DUP4 ADD MSTORE PUSH2 0x16A6 DUP2 PUSH2 0x166D JUMP JUMPDEST SWAP1 POP SWAP2 SWAP1 POP JUMP INVALID LOG2 PUSH5 0x6970667358 0x22 SLT KECCAK256 0xA8 0xF7 0xE7 0xED PUSH31 0x30CF98FEA308F2865EA808A50CB9C410A03D54C9D433C755D083FE64736F6C PUSH4 0x43000814 STOP CALLER "
				},
				"gasEstimates": {
					"creation": {
						"codeDepositCost": "1171800",
						"executionCost": "1219",
						"totalCost": "1173019"
					},
					"external": {
						"getBorrowAmountV2(address,address)": "infinite",
						"getBorrowAmountV3(address,address)": "infinite",
						"getLiquidityAndPrice(address)": "infinite",
						"getMaxProfitableAmount(address,address)": "infinite",
						"getPriceRatio(address,address)": "infinite",
						"getRelativeLiquidity(address,address)": "infinite",
						"getReservesV2(address)": "infinite",
						"getReservesV3(address)": "infinite",
						"reserves0(address)": "infinite",
						"reserves1(address)": "infinite"
					},
					"internal": {
						"calcMaxBorrowableAmount(struct OrderedReserves memory)": "infinite"
					}
				},
				"methodIdentifiers": {
					"getBorrowAmountV2(address,address)": "7d9ada3e",
					"getBorrowAmountV3(address,address)": "44401a24",
					"getLiquidityAndPrice(address)": "1e953b15",
					"getMaxProfitableAmount(address,address)": "21fef881",
					"getPriceRatio(address,address)": "0d83825b",
					"getRelativeLiquidity(address,address)": "9872971a",
					"getReservesV2(address)": "ec0a63d8",
					"getReservesV3(address)": "7232688e",
					"reserves0(address)": "1fdd03cb",
					"reserves1(address)": "b49bbce5"
				}
			},
			"storageLayout": {
				"storage": [],
				"types": null
			},
			"userdoc": {
				"kind": "user",
				"methods": {},
				"version": 1
			}
		}
	}
}