{
	"contracts/Reserves.sol": {
		"Reserves": {
			"abi": [
				{
					"inputs": [
						{
							"internalType": "address",
							"name": "pair",
							"type": "address"
						}
					],
					"name": "getReservesV2",
					"outputs": [
						{
							"internalType": "uint256",
							"name": "reserve0",
							"type": "uint256"
						},
						{
							"internalType": "uint256",
							"name": "reserve1",
							"type": "uint256"
						}
					],
					"stateMutability": "view",
					"type": "function"
				},
				{
					"inputs": [
						{
							"internalType": "address",
							"name": "pair",
							"type": "address"
						}
					],
					"name": "getReservesV3",
					"outputs": [
						{
							"internalType": "uint256",
							"name": "reserve0",
							"type": "uint256"
						},
						{
							"internalType": "uint256",
							"name": "reserve1",
							"type": "uint256"
						}
					],
					"stateMutability": "view",
					"type": "function"
				},
				{
					"inputs": [
						{
							"internalType": "address",
							"name": "pair",
							"type": "address"
						}
					],
					"name": "reserves0",
					"outputs": [
						{
							"internalType": "uint256",
							"name": "reserve",
							"type": "uint256"
						}
					],
					"stateMutability": "view",
					"type": "function"
				},
				{
					"inputs": [
						{
							"internalType": "address",
							"name": "pair",
							"type": "address"
						}
					],
					"name": "reserves1",
					"outputs": [
						{
							"internalType": "uint256",
							"name": "reserve",
							"type": "uint256"
						}
					],
					"stateMutability": "view",
					"type": "function"
				}
			],
			"devdoc": {
				"kind": "dev",
				"methods": {},
				"version": 1
			},
			"evm": {
				"assembly": "    /* \"contracts/Reserves.sol\":314:1507  contract Reserves{... */\n  mstore(0x40, 0x80)\n  callvalue\n  dup1\n  iszero\n  tag_1\n  jumpi\n  0x00\n  dup1\n  revert\ntag_1:\n  pop\n  dataSize(sub_0)\n  dup1\n  dataOffset(sub_0)\n  0x00\n  codecopy\n  0x00\n  return\nstop\n\nsub_0: assembly {\n        /* \"contracts/Reserves.sol\":314:1507  contract Reserves{... */\n      mstore(0x40, 0x80)\n      callvalue\n      dup1\n      iszero\n      tag_1\n      jumpi\n      0x00\n      dup1\n      revert\n    tag_1:\n      pop\n      jumpi(tag_2, lt(calldatasize, 0x04))\n      shr(0xe0, calldataload(0x00))\n      dup1\n      0x1fdd03cb\n      eq\n      tag_3\n      jumpi\n      dup1\n      0x7232688e\n      eq\n      tag_4\n      jumpi\n      dup1\n      0xb49bbce5\n      eq\n      tag_5\n      jumpi\n      dup1\n      0xec0a63d8\n      eq\n      tag_6\n      jumpi\n    tag_2:\n      0x00\n      dup1\n      revert\n        /* \"contracts/Reserves.sol\":342:569  function reserves0(address pair) external view returns ( uint256 reserve) {... */\n    tag_3:\n      tag_7\n      0x04\n      dup1\n      calldatasize\n      sub\n      dup2\n      add\n      swap1\n      tag_8\n      swap2\n      swap1\n      tag_9\n      jump\t// in\n    tag_8:\n      tag_10\n      jump\t// in\n    tag_7:\n      mload(0x40)\n      tag_11\n      swap2\n      swap1\n      tag_12\n      jump\t// in\n    tag_11:\n      mload(0x40)\n      dup1\n      swap2\n      sub\n      swap1\n      return\n        /* \"contracts/Reserves.sol\":816:1156  function getReservesV3(address pair) public view returns (uint256 reserve0, uint256 reserve1){... */\n    tag_4:\n      tag_13\n      0x04\n      dup1\n      calldatasize\n      sub\n      dup2\n      add\n      swap1\n      tag_14\n      swap2\n      swap1\n      tag_9\n      jump\t// in\n    tag_14:\n      tag_15\n      jump\t// in\n    tag_13:\n      mload(0x40)\n      tag_16\n      swap3\n      swap2\n      swap1\n      tag_17\n      jump\t// in\n    tag_16:\n      mload(0x40)\n      dup1\n      swap2\n      sub\n      swap1\n      return\n        /* \"contracts/Reserves.sol\":581:808  function reserves1(address pair) external view returns ( uint256 reserve) {... */\n    tag_5:\n      tag_18\n      0x04\n      dup1\n      calldatasize\n      sub\n      dup2\n      add\n      swap1\n      tag_19\n      swap2\n      swap1\n      tag_9\n      jump\t// in\n    tag_19:\n      tag_20\n      jump\t// in\n    tag_18:\n      mload(0x40)\n      tag_21\n      swap2\n      swap1\n      tag_12\n      jump\t// in\n    tag_21:\n      mload(0x40)\n      dup1\n      swap2\n      sub\n      swap1\n      return\n        /* \"contracts/Reserves.sol\":1164:1504  function getReservesV2(address pair) public view returns (uint256 reserve0, uint256 reserve1){... */\n    tag_6:\n      tag_22\n      0x04\n      dup1\n      calldatasize\n      sub\n      dup2\n      add\n      swap1\n      tag_23\n      swap2\n      swap1\n      tag_9\n      jump\t// in\n    tag_23:\n      tag_24\n      jump\t// in\n    tag_22:\n      mload(0x40)\n      tag_25\n      swap3\n      swap2\n      swap1\n      tag_17\n      jump\t// in\n    tag_25:\n      mload(0x40)\n      dup1\n      swap2\n      sub\n      swap1\n      return\n        /* \"contracts/Reserves.sol\":342:569  function reserves0(address pair) external view returns ( uint256 reserve) {... */\n    tag_10:\n        /* \"contracts/Reserves.sol\":399:414  uint256 reserve */\n      0x00\n        /* \"contracts/Reserves.sol\":427:446  IUniswapV3Pool pool */\n      dup1\n        /* \"contracts/Reserves.sol\":464:468  pair */\n      dup3\n        /* \"contracts/Reserves.sol\":427:469  IUniswapV3Pool pool = IUniswapV3Pool(pair) */\n      swap1\n      pop\n        /* \"contracts/Reserves.sol\":480:494  address token0 */\n      0x00\n        /* \"contracts/Reserves.sol\":497:501  pool */\n      dup2\n        /* \"contracts/Reserves.sol\":497:508  pool.token0 */\n      0xffffffffffffffffffffffffffffffffffffffff\n      and\n      0x0dfe1681\n        /* \"contracts/Reserves.sol\":497:510  pool.token0() */\n      mload(0x40)\n      dup2\n      0xffffffff\n      and\n      0xe0\n      shl\n      dup2\n      mstore\n      0x04\n      add\n      0x20\n      mload(0x40)\n      dup1\n      dup4\n      sub\n      dup2\n      dup7\n      gas\n      staticcall\n      iszero\n      dup1\n      iszero\n      tag_28\n      jumpi\n      returndatasize\n      0x00\n      dup1\n      returndatacopy\n      revert(0x00, returndatasize)\n    tag_28:\n      pop\n      pop\n      pop\n      pop\n      mload(0x40)\n      returndatasize\n      not(0x1f)\n      0x1f\n      dup3\n      add\n      and\n      dup3\n      add\n      dup1\n      0x40\n      mstore\n      pop\n      dup2\n      add\n      swap1\n      tag_29\n      swap2\n      swap1\n      tag_30\n      jump\t// in\n    tag_29:\n        /* \"contracts/Reserves.sol\":480:510  address token0 = pool.token0() */\n      swap1\n      pop\n        /* \"contracts/Reserves.sol\":538:544  token0 */\n      dup1\n        /* \"contracts/Reserves.sol\":531:555  IERC20(token0).balanceOf */\n      0xffffffffffffffffffffffffffffffffffffffff\n      and\n      0x70a08231\n        /* \"contracts/Reserves.sol\":556:560  pair */\n      dup6\n        /* \"contracts/Reserves.sol\":531:561  IERC20(token0).balanceOf(pair) */\n      mload(0x40)\n      dup3\n      0xffffffff\n      and\n      0xe0\n      shl\n      dup2\n      mstore\n      0x04\n      add\n      tag_31\n      swap2\n      swap1\n      tag_32\n      jump\t// in\n    tag_31:\n      0x20\n      mload(0x40)\n      dup1\n      dup4\n      sub\n      dup2\n      dup7\n      gas\n      staticcall\n      iszero\n      dup1\n      iszero\n      tag_34\n      jumpi\n      returndatasize\n      0x00\n      dup1\n      returndatacopy\n      revert(0x00, returndatasize)\n    tag_34:\n      pop\n      pop\n      pop\n      pop\n      mload(0x40)\n      returndatasize\n      not(0x1f)\n      0x1f\n      dup3\n      add\n      and\n      dup3\n      add\n      dup1\n      0x40\n      mstore\n      pop\n      dup2\n      add\n      swap1\n      tag_35\n      swap2\n      swap1\n      tag_36\n      jump\t// in\n    tag_35:\n        /* \"contracts/Reserves.sol\":521:561  reserve = IERC20(token0).balanceOf(pair) */\n      swap3\n      pop\n        /* \"contracts/Reserves.sol\":416:569  {... */\n      pop\n      pop\n        /* \"contracts/Reserves.sol\":342:569  function reserves0(address pair) external view returns ( uint256 reserve) {... */\n      swap2\n      swap1\n      pop\n      jump\t// out\n        /* \"contracts/Reserves.sol\":816:1156  function getReservesV3(address pair) public view returns (uint256 reserve0, uint256 reserve1){... */\n    tag_15:\n        /* \"contracts/Reserves.sol\":874:890  uint256 reserve0 */\n      0x00\n        /* \"contracts/Reserves.sol\":892:908  uint256 reserve1 */\n      dup1\n        /* \"contracts/Reserves.sol\":920:939  IUniswapV3Pool pool */\n      0x00\n        /* \"contracts/Reserves.sol\":957:961  pair */\n      dup4\n        /* \"contracts/Reserves.sol\":920:962  IUniswapV3Pool pool = IUniswapV3Pool(pair) */\n      swap1\n      pop\n        /* \"contracts/Reserves.sol\":973:987  address token0 */\n      0x00\n        /* \"contracts/Reserves.sol\":990:994  pool */\n      dup2\n        /* \"contracts/Reserves.sol\":990:1001  pool.token0 */\n      0xffffffffffffffffffffffffffffffffffffffff\n      and\n      0x0dfe1681\n        /* \"contracts/Reserves.sol\":990:1003  pool.token0() */\n      mload(0x40)\n      dup2\n      0xffffffff\n      and\n      0xe0\n      shl\n      dup2\n      mstore\n      0x04\n      add\n      0x20\n      mload(0x40)\n      dup1\n      dup4\n      sub\n      dup2\n      dup7\n      gas\n      staticcall\n      iszero\n      dup1\n      iszero\n      tag_39\n      jumpi\n      returndatasize\n      0x00\n      dup1\n      returndatacopy\n      revert(0x00, returndatasize)\n    tag_39:\n      pop\n      pop\n      pop\n      pop\n      mload(0x40)\n      returndatasize\n      not(0x1f)\n      0x1f\n      dup3\n      add\n      and\n      dup3\n      add\n      dup1\n      0x40\n      mstore\n      pop\n      dup2\n      add\n      swap1\n      tag_40\n      swap2\n      swap1\n      tag_30\n      jump\t// in\n    tag_40:\n        /* \"contracts/Reserves.sol\":973:1003  address token0 = pool.token0() */\n      swap1\n      pop\n        /* \"contracts/Reserves.sol\":1014:1028  address token1 */\n      0x00\n        /* \"contracts/Reserves.sol\":1031:1035  pool */\n      dup3\n        /* \"contracts/Reserves.sol\":1031:1042  pool.token1 */\n      0xffffffffffffffffffffffffffffffffffffffff\n      and\n      0xd21220a7\n        /* \"contracts/Reserves.sol\":1031:1044  pool.token1() */\n      mload(0x40)\n      dup2\n      0xffffffff\n      and\n      0xe0\n      shl\n      dup2\n      mstore\n      0x04\n      add\n      0x20\n      mload(0x40)\n      dup1\n      dup4\n      sub\n      dup2\n      dup7\n      gas\n      staticcall\n      iszero\n      dup1\n      iszero\n      tag_42\n      jumpi\n      returndatasize\n      0x00\n      dup1\n      returndatacopy\n      revert(0x00, returndatasize)\n    tag_42:\n      pop\n      pop\n      pop\n      pop\n      mload(0x40)\n      returndatasize\n      not(0x1f)\n      0x1f\n      dup3\n      add\n      and\n      dup3\n      add\n      dup1\n      0x40\n      mstore\n      pop\n      dup2\n      add\n      swap1\n      tag_43\n      swap2\n      swap1\n      tag_30\n      jump\t// in\n    tag_43:\n        /* \"contracts/Reserves.sol\":1014:1044  address token1 = pool.token1() */\n      swap1\n      pop\n        /* \"contracts/Reserves.sol\":1073:1079  token0 */\n      dup2\n        /* \"contracts/Reserves.sol\":1066:1090  IERC20(token0).balanceOf */\n      0xffffffffffffffffffffffffffffffffffffffff\n      and\n      0x70a08231\n        /* \"contracts/Reserves.sol\":1091:1095  pair */\n      dup8\n        /* \"contracts/Reserves.sol\":1066:1096  IERC20(token0).balanceOf(pair) */\n      mload(0x40)\n      dup3\n      0xffffffff\n      and\n      0xe0\n      shl\n      dup2\n      mstore\n      0x04\n      add\n      tag_44\n      swap2\n      swap1\n      tag_32\n      jump\t// in\n    tag_44:\n      0x20\n      mload(0x40)\n      dup1\n      dup4\n      sub\n      dup2\n      dup7\n      gas\n      staticcall\n      iszero\n      dup1\n      iszero\n      tag_46\n      jumpi\n      returndatasize\n      0x00\n      dup1\n      returndatacopy\n      revert(0x00, returndatasize)\n    tag_46:\n      pop\n      pop\n      pop\n      pop\n      mload(0x40)\n      returndatasize\n      not(0x1f)\n      0x1f\n      dup3\n      add\n      and\n      dup3\n      add\n      dup1\n      0x40\n      mstore\n      pop\n      dup2\n      add\n      swap1\n      tag_47\n      swap2\n      swap1\n      tag_36\n      jump\t// in\n    tag_47:\n        /* \"contracts/Reserves.sol\":1055:1096  reserve0 = IERC20(token0).balanceOf(pair) */\n      swap5\n      pop\n        /* \"contracts/Reserves.sol\":1125:1131  token1 */\n      dup1\n        /* \"contracts/Reserves.sol\":1118:1142  IERC20(token1).balanceOf */\n      0xffffffffffffffffffffffffffffffffffffffff\n      and\n      0x70a08231\n        /* \"contracts/Reserves.sol\":1143:1147  pair */\n      dup8\n        /* \"contracts/Reserves.sol\":1118:1148  IERC20(token1).balanceOf(pair) */\n      mload(0x40)\n      dup3\n      0xffffffff\n      and\n      0xe0\n      shl\n      dup2\n      mstore\n      0x04\n      add\n      tag_48\n      swap2\n      swap1\n      tag_32\n      jump\t// in\n    tag_48:\n      0x20\n      mload(0x40)\n      dup1\n      dup4\n      sub\n      dup2\n      dup7\n      gas\n      staticcall\n      iszero\n      dup1\n      iszero\n      tag_50\n      jumpi\n      returndatasize\n      0x00\n      dup1\n      returndatacopy\n      revert(0x00, returndatasize)\n    tag_50:\n      pop\n      pop\n      pop\n      pop\n      mload(0x40)\n      returndatasize\n      not(0x1f)\n      0x1f\n      dup3\n      add\n      and\n      dup3\n      add\n      dup1\n      0x40\n      mstore\n      pop\n      dup2\n      add\n      swap1\n      tag_51\n      swap2\n      swap1\n      tag_36\n      jump\t// in\n    tag_51:\n        /* \"contracts/Reserves.sol\":1107:1148  reserve1 = IERC20(token1).balanceOf(pair) */\n      swap4\n      pop\n        /* \"contracts/Reserves.sol\":909:1156  {... */\n      pop\n      pop\n      pop\n        /* \"contracts/Reserves.sol\":816:1156  function getReservesV3(address pair) public view returns (uint256 reserve0, uint256 reserve1){... */\n      swap2\n      pop\n      swap2\n      jump\t// out\n        /* \"contracts/Reserves.sol\":581:808  function reserves1(address pair) external view returns ( uint256 reserve) {... */\n    tag_20:\n        /* \"contracts/Reserves.sol\":638:653  uint256 reserve */\n      0x00\n        /* \"contracts/Reserves.sol\":666:685  IUniswapV3Pool pool */\n      dup1\n        /* \"contracts/Reserves.sol\":703:707  pair */\n      dup3\n        /* \"contracts/Reserves.sol\":666:708  IUniswapV3Pool pool = IUniswapV3Pool(pair) */\n      swap1\n      pop\n        /* \"contracts/Reserves.sol\":719:733  address token1 */\n      0x00\n        /* \"contracts/Reserves.sol\":736:740  pool */\n      dup2\n        /* \"contracts/Reserves.sol\":736:747  pool.token1 */\n      0xffffffffffffffffffffffffffffffffffffffff\n      and\n      0xd21220a7\n        /* \"contracts/Reserves.sol\":736:749  pool.token1() */\n      mload(0x40)\n      dup2\n      0xffffffff\n      and\n      0xe0\n      shl\n      dup2\n      mstore\n      0x04\n      add\n      0x20\n      mload(0x40)\n      dup1\n      dup4\n      sub\n      dup2\n      dup7\n      gas\n      staticcall\n      iszero\n      dup1\n      iszero\n      tag_54\n      jumpi\n      returndatasize\n      0x00\n      dup1\n      returndatacopy\n      revert(0x00, returndatasize)\n    tag_54:\n      pop\n      pop\n      pop\n      pop\n      mload(0x40)\n      returndatasize\n      not(0x1f)\n      0x1f\n      dup3\n      add\n      and\n      dup3\n      add\n      dup1\n      0x40\n      mstore\n      pop\n      dup2\n      add\n      swap1\n      tag_55\n      swap2\n      swap1\n      tag_30\n      jump\t// in\n    tag_55:\n        /* \"contracts/Reserves.sol\":719:749  address token1 = pool.token1() */\n      swap1\n      pop\n        /* \"contracts/Reserves.sol\":777:783  token1 */\n      dup1\n        /* \"contracts/Reserves.sol\":770:794  IERC20(token1).balanceOf */\n      0xffffffffffffffffffffffffffffffffffffffff\n      and\n      0x70a08231\n        /* \"contracts/Reserves.sol\":795:799  pair */\n      dup6\n        /* \"contracts/Reserves.sol\":770:800  IERC20(token1).balanceOf(pair) */\n      mload(0x40)\n      dup3\n      0xffffffff\n      and\n      0xe0\n      shl\n      dup2\n      mstore\n      0x04\n      add\n      tag_56\n      swap2\n      swap1\n      tag_32\n      jump\t// in\n    tag_56:\n      0x20\n      mload(0x40)\n      dup1\n      dup4\n      sub\n      dup2\n      dup7\n      gas\n      staticcall\n      iszero\n      dup1\n      iszero\n      tag_58\n      jumpi\n      returndatasize\n      0x00\n      dup1\n      returndatacopy\n      revert(0x00, returndatasize)\n    tag_58:\n      pop\n      pop\n      pop\n      pop\n      mload(0x40)\n      returndatasize\n      not(0x1f)\n      0x1f\n      dup3\n      add\n      and\n      dup3\n      add\n      dup1\n      0x40\n      mstore\n      pop\n      dup2\n      add\n      swap1\n      tag_59\n      swap2\n      swap1\n      tag_36\n      jump\t// in\n    tag_59:\n        /* \"contracts/Reserves.sol\":760:800  reserve = IERC20(token1).balanceOf(pair) */\n      swap3\n      pop\n        /* \"contracts/Reserves.sol\":655:808  {... */\n      pop\n      pop\n        /* \"contracts/Reserves.sol\":581:808  function reserves1(address pair) external view returns ( uint256 reserve) {... */\n      swap2\n      swap1\n      pop\n      jump\t// out\n        /* \"contracts/Reserves.sol\":1164:1504  function getReservesV2(address pair) public view returns (uint256 reserve0, uint256 reserve1){... */\n    tag_24:\n        /* \"contracts/Reserves.sol\":1222:1238  uint256 reserve0 */\n      0x00\n        /* \"contracts/Reserves.sol\":1240:1256  uint256 reserve1 */\n      dup1\n        /* \"contracts/Reserves.sol\":1268:1287  IUniswapV2Pair pool */\n      0x00\n        /* \"contracts/Reserves.sol\":1305:1309  pair */\n      dup4\n        /* \"contracts/Reserves.sol\":1268:1310  IUniswapV2Pair pool = IUniswapV2Pair(pair) */\n      swap1\n      pop\n        /* \"contracts/Reserves.sol\":1321:1335  address token0 */\n      0x00\n        /* \"contracts/Reserves.sol\":1338:1342  pool */\n      dup2\n        /* \"contracts/Reserves.sol\":1338:1349  pool.token0 */\n      0xffffffffffffffffffffffffffffffffffffffff\n      and\n      0x0dfe1681\n        /* \"contracts/Reserves.sol\":1338:1351  pool.token0() */\n      mload(0x40)\n      dup2\n      0xffffffff\n      and\n      0xe0\n      shl\n      dup2\n      mstore\n      0x04\n      add\n      0x20\n      mload(0x40)\n      dup1\n      dup4\n      sub\n      dup2\n      dup7\n      gas\n      staticcall\n      iszero\n      dup1\n      iszero\n      tag_62\n      jumpi\n      returndatasize\n      0x00\n      dup1\n      returndatacopy\n      revert(0x00, returndatasize)\n    tag_62:\n      pop\n      pop\n      pop\n      pop\n      mload(0x40)\n      returndatasize\n      not(0x1f)\n      0x1f\n      dup3\n      add\n      and\n      dup3\n      add\n      dup1\n      0x40\n      mstore\n      pop\n      dup2\n      add\n      swap1\n      tag_63\n      swap2\n      swap1\n      tag_30\n      jump\t// in\n    tag_63:\n        /* \"contracts/Reserves.sol\":1321:1351  address token0 = pool.token0() */\n      swap1\n      pop\n        /* \"contracts/Reserves.sol\":1362:1376  address token1 */\n      0x00\n        /* \"contracts/Reserves.sol\":1379:1383  pool */\n      dup3\n        /* \"contracts/Reserves.sol\":1379:1390  pool.token1 */\n      0xffffffffffffffffffffffffffffffffffffffff\n      and\n      0xd21220a7\n        /* \"contracts/Reserves.sol\":1379:1392  pool.token1() */\n      mload(0x40)\n      dup2\n      0xffffffff\n      and\n      0xe0\n      shl\n      dup2\n      mstore\n      0x04\n      add\n      0x20\n      mload(0x40)\n      dup1\n      dup4\n      sub\n      dup2\n      dup7\n      gas\n      staticcall\n      iszero\n      dup1\n      iszero\n      tag_65\n      jumpi\n      returndatasize\n      0x00\n      dup1\n      returndatacopy\n      revert(0x00, returndatasize)\n    tag_65:\n      pop\n      pop\n      pop\n      pop\n      mload(0x40)\n      returndatasize\n      not(0x1f)\n      0x1f\n      dup3\n      add\n      and\n      dup3\n      add\n      dup1\n      0x40\n      mstore\n      pop\n      dup2\n      add\n      swap1\n      tag_66\n      swap2\n      swap1\n      tag_30\n      jump\t// in\n    tag_66:\n        /* \"contracts/Reserves.sol\":1362:1392  address token1 = pool.token1() */\n      swap1\n      pop\n        /* \"contracts/Reserves.sol\":1421:1427  token0 */\n      dup2\n        /* \"contracts/Reserves.sol\":1414:1438  IERC20(token0).balanceOf */\n      0xffffffffffffffffffffffffffffffffffffffff\n      and\n      0x70a08231\n        /* \"contracts/Reserves.sol\":1439:1443  pair */\n      dup8\n        /* \"contracts/Reserves.sol\":1414:1444  IERC20(token0).balanceOf(pair) */\n      mload(0x40)\n      dup3\n      0xffffffff\n      and\n      0xe0\n      shl\n      dup2\n      mstore\n      0x04\n      add\n      tag_67\n      swap2\n      swap1\n      tag_32\n      jump\t// in\n    tag_67:\n      0x20\n      mload(0x40)\n      dup1\n      dup4\n      sub\n      dup2\n      dup7\n      gas\n      staticcall\n      iszero\n      dup1\n      iszero\n      tag_69\n      jumpi\n      returndatasize\n      0x00\n      dup1\n      returndatacopy\n      revert(0x00, returndatasize)\n    tag_69:\n      pop\n      pop\n      pop\n      pop\n      mload(0x40)\n      returndatasize\n      not(0x1f)\n      0x1f\n      dup3\n      add\n      and\n      dup3\n      add\n      dup1\n      0x40\n      mstore\n      pop\n      dup2\n      add\n      swap1\n      tag_70\n      swap2\n      swap1\n      tag_36\n      jump\t// in\n    tag_70:\n        /* \"contracts/Reserves.sol\":1403:1444  reserve0 = IERC20(token0).balanceOf(pair) */\n      swap5\n      pop\n        /* \"contracts/Reserves.sol\":1473:1479  token1 */\n      dup1\n        /* \"contracts/Reserves.sol\":1466:1490  IERC20(token1).balanceOf */\n      0xffffffffffffffffffffffffffffffffffffffff\n      and\n      0x70a08231\n        /* \"contracts/Reserves.sol\":1491:1495  pair */\n      dup8\n        /* \"contracts/Reserves.sol\":1466:1496  IERC20(token1).balanceOf(pair) */\n      mload(0x40)\n      dup3\n      0xffffffff\n      and\n      0xe0\n      shl\n      dup2\n      mstore\n      0x04\n      add\n      tag_71\n      swap2\n      swap1\n      tag_32\n      jump\t// in\n    tag_71:\n      0x20\n      mload(0x40)\n      dup1\n      dup4\n      sub\n      dup2\n      dup7\n      gas\n      staticcall\n      iszero\n      dup1\n      iszero\n      tag_73\n      jumpi\n      returndatasize\n      0x00\n      dup1\n      returndatacopy\n      revert(0x00, returndatasize)\n    tag_73:\n      pop\n      pop\n      pop\n      pop\n      mload(0x40)\n      returndatasize\n      not(0x1f)\n      0x1f\n      dup3\n      add\n      and\n      dup3\n      add\n      dup1\n      0x40\n      mstore\n      pop\n      dup2\n      add\n      swap1\n      tag_74\n      swap2\n      swap1\n      tag_36\n      jump\t// in\n    tag_74:\n        /* \"contracts/Reserves.sol\":1455:1496  reserve1 = IERC20(token1).balanceOf(pair) */\n      swap4\n      pop\n        /* \"contracts/Reserves.sol\":1257:1504  {... */\n      pop\n      pop\n      pop\n        /* \"contracts/Reserves.sol\":1164:1504  function getReservesV2(address pair) public view returns (uint256 reserve0, uint256 reserve1){... */\n      swap2\n      pop\n      swap2\n      jump\t// out\n        /* \"#utility.yul\":88:205   */\n    tag_76:\n        /* \"#utility.yul\":197:198   */\n      0x00\n        /* \"#utility.yul\":194:195   */\n      dup1\n        /* \"#utility.yul\":187:199   */\n      revert\n        /* \"#utility.yul\":334:460   */\n    tag_78:\n        /* \"#utility.yul\":371:378   */\n      0x00\n        /* \"#utility.yul\":411:453   */\n      0xffffffffffffffffffffffffffffffffffffffff\n        /* \"#utility.yul\":404:409   */\n      dup3\n        /* \"#utility.yul\":400:454   */\n      and\n        /* \"#utility.yul\":389:454   */\n      swap1\n      pop\n        /* \"#utility.yul\":334:460   */\n      swap2\n      swap1\n      pop\n      jump\t// out\n        /* \"#utility.yul\":466:562   */\n    tag_79:\n        /* \"#utility.yul\":503:510   */\n      0x00\n        /* \"#utility.yul\":532:556   */\n      tag_94\n        /* \"#utility.yul\":550:555   */\n      dup3\n        /* \"#utility.yul\":532:556   */\n      tag_78\n      jump\t// in\n    tag_94:\n        /* \"#utility.yul\":521:556   */\n      swap1\n      pop\n        /* \"#utility.yul\":466:562   */\n      swap2\n      swap1\n      pop\n      jump\t// out\n        /* \"#utility.yul\":568:690   */\n    tag_80:\n        /* \"#utility.yul\":641:665   */\n      tag_96\n        /* \"#utility.yul\":659:664   */\n      dup2\n        /* \"#utility.yul\":641:665   */\n      tag_79\n      jump\t// in\n    tag_96:\n        /* \"#utility.yul\":634:639   */\n      dup2\n        /* \"#utility.yul\":631:666   */\n      eq\n        /* \"#utility.yul\":621:684   */\n      tag_97\n      jumpi\n        /* \"#utility.yul\":680:681   */\n      0x00\n        /* \"#utility.yul\":677:678   */\n      dup1\n        /* \"#utility.yul\":670:682   */\n      revert\n        /* \"#utility.yul\":621:684   */\n    tag_97:\n        /* \"#utility.yul\":568:690   */\n      pop\n      jump\t// out\n        /* \"#utility.yul\":696:835   */\n    tag_81:\n        /* \"#utility.yul\":742:747   */\n      0x00\n        /* \"#utility.yul\":780:786   */\n      dup2\n        /* \"#utility.yul\":767:787   */\n      calldataload\n        /* \"#utility.yul\":758:787   */\n      swap1\n      pop\n        /* \"#utility.yul\":796:829   */\n      tag_99\n        /* \"#utility.yul\":823:828   */\n      dup2\n        /* \"#utility.yul\":796:829   */\n      tag_80\n      jump\t// in\n    tag_99:\n        /* \"#utility.yul\":696:835   */\n      swap3\n      swap2\n      pop\n      pop\n      jump\t// out\n        /* \"#utility.yul\":841:1170   */\n    tag_9:\n        /* \"#utility.yul\":900:906   */\n      0x00\n        /* \"#utility.yul\":949:951   */\n      0x20\n        /* \"#utility.yul\":937:946   */\n      dup3\n        /* \"#utility.yul\":928:935   */\n      dup5\n        /* \"#utility.yul\":924:947   */\n      sub\n        /* \"#utility.yul\":920:952   */\n      slt\n        /* \"#utility.yul\":917:1036   */\n      iszero\n      tag_101\n      jumpi\n        /* \"#utility.yul\":955:1034   */\n      tag_102\n      tag_76\n      jump\t// in\n    tag_102:\n        /* \"#utility.yul\":917:1036   */\n    tag_101:\n        /* \"#utility.yul\":1075:1076   */\n      0x00\n        /* \"#utility.yul\":1100:1153   */\n      tag_103\n        /* \"#utility.yul\":1145:1152   */\n      dup5\n        /* \"#utility.yul\":1136:1142   */\n      dup3\n        /* \"#utility.yul\":1125:1134   */\n      dup6\n        /* \"#utility.yul\":1121:1143   */\n      add\n        /* \"#utility.yul\":1100:1153   */\n      tag_81\n      jump\t// in\n    tag_103:\n        /* \"#utility.yul\":1090:1153   */\n      swap2\n      pop\n        /* \"#utility.yul\":1046:1163   */\n      pop\n        /* \"#utility.yul\":841:1170   */\n      swap3\n      swap2\n      pop\n      pop\n      jump\t// out\n        /* \"#utility.yul\":1176:1253   */\n    tag_82:\n        /* \"#utility.yul\":1213:1220   */\n      0x00\n        /* \"#utility.yul\":1242:1247   */\n      dup2\n        /* \"#utility.yul\":1231:1247   */\n      swap1\n      pop\n        /* \"#utility.yul\":1176:1253   */\n      swap2\n      swap1\n      pop\n      jump\t// out\n        /* \"#utility.yul\":1259:1377   */\n    tag_83:\n        /* \"#utility.yul\":1346:1370   */\n      tag_106\n        /* \"#utility.yul\":1364:1369   */\n      dup2\n        /* \"#utility.yul\":1346:1370   */\n      tag_82\n      jump\t// in\n    tag_106:\n        /* \"#utility.yul\":1341:1344   */\n      dup3\n        /* \"#utility.yul\":1334:1371   */\n      mstore\n        /* \"#utility.yul\":1259:1377   */\n      pop\n      pop\n      jump\t// out\n        /* \"#utility.yul\":1383:1605   */\n    tag_12:\n        /* \"#utility.yul\":1476:1480   */\n      0x00\n        /* \"#utility.yul\":1514:1516   */\n      0x20\n        /* \"#utility.yul\":1503:1512   */\n      dup3\n        /* \"#utility.yul\":1499:1517   */\n      add\n        /* \"#utility.yul\":1491:1517   */\n      swap1\n      pop\n        /* \"#utility.yul\":1527:1598   */\n      tag_108\n        /* \"#utility.yul\":1595:1596   */\n      0x00\n        /* \"#utility.yul\":1584:1593   */\n      dup4\n        /* \"#utility.yul\":1580:1597   */\n      add\n        /* \"#utility.yul\":1571:1577   */\n      dup5\n        /* \"#utility.yul\":1527:1598   */\n      tag_83\n      jump\t// in\n    tag_108:\n        /* \"#utility.yul\":1383:1605   */\n      swap3\n      swap2\n      pop\n      pop\n      jump\t// out\n        /* \"#utility.yul\":1611:1943   */\n    tag_17:\n        /* \"#utility.yul\":1732:1736   */\n      0x00\n        /* \"#utility.yul\":1770:1772   */\n      0x40\n        /* \"#utility.yul\":1759:1768   */\n      dup3\n        /* \"#utility.yul\":1755:1773   */\n      add\n        /* \"#utility.yul\":1747:1773   */\n      swap1\n      pop\n        /* \"#utility.yul\":1783:1854   */\n      tag_110\n        /* \"#utility.yul\":1851:1852   */\n      0x00\n        /* \"#utility.yul\":1840:1849   */\n      dup4\n        /* \"#utility.yul\":1836:1853   */\n      add\n        /* \"#utility.yul\":1827:1833   */\n      dup6\n        /* \"#utility.yul\":1783:1854   */\n      tag_83\n      jump\t// in\n    tag_110:\n        /* \"#utility.yul\":1864:1936   */\n      tag_111\n        /* \"#utility.yul\":1932:1934   */\n      0x20\n        /* \"#utility.yul\":1921:1930   */\n      dup4\n        /* \"#utility.yul\":1917:1935   */\n      add\n        /* \"#utility.yul\":1908:1914   */\n      dup5\n        /* \"#utility.yul\":1864:1936   */\n      tag_83\n      jump\t// in\n    tag_111:\n        /* \"#utility.yul\":1611:1943   */\n      swap4\n      swap3\n      pop\n      pop\n      pop\n      jump\t// out\n        /* \"#utility.yul\":1949:2092   */\n    tag_84:\n        /* \"#utility.yul\":2006:2011   */\n      0x00\n        /* \"#utility.yul\":2037:2043   */\n      dup2\n        /* \"#utility.yul\":2031:2044   */\n      mload\n        /* \"#utility.yul\":2022:2044   */\n      swap1\n      pop\n        /* \"#utility.yul\":2053:2086   */\n      tag_113\n        /* \"#utility.yul\":2080:2085   */\n      dup2\n        /* \"#utility.yul\":2053:2086   */\n      tag_80\n      jump\t// in\n    tag_113:\n        /* \"#utility.yul\":1949:2092   */\n      swap3\n      swap2\n      pop\n      pop\n      jump\t// out\n        /* \"#utility.yul\":2098:2449   */\n    tag_30:\n        /* \"#utility.yul\":2168:2174   */\n      0x00\n        /* \"#utility.yul\":2217:2219   */\n      0x20\n        /* \"#utility.yul\":2205:2214   */\n      dup3\n        /* \"#utility.yul\":2196:2203   */\n      dup5\n        /* \"#utility.yul\":2192:2215   */\n      sub\n        /* \"#utility.yul\":2188:2220   */\n      slt\n        /* \"#utility.yul\":2185:2304   */\n      iszero\n      tag_115\n      jumpi\n        /* \"#utility.yul\":2223:2302   */\n      tag_116\n      tag_76\n      jump\t// in\n    tag_116:\n        /* \"#utility.yul\":2185:2304   */\n    tag_115:\n        /* \"#utility.yul\":2343:2344   */\n      0x00\n        /* \"#utility.yul\":2368:2432   */\n      tag_117\n        /* \"#utility.yul\":2424:2431   */\n      dup5\n        /* \"#utility.yul\":2415:2421   */\n      dup3\n        /* \"#utility.yul\":2404:2413   */\n      dup6\n        /* \"#utility.yul\":2400:2422   */\n      add\n        /* \"#utility.yul\":2368:2432   */\n      tag_84\n      jump\t// in\n    tag_117:\n        /* \"#utility.yul\":2358:2432   */\n      swap2\n      pop\n        /* \"#utility.yul\":2314:2442   */\n      pop\n        /* \"#utility.yul\":2098:2449   */\n      swap3\n      swap2\n      pop\n      pop\n      jump\t// out\n        /* \"#utility.yul\":2455:2573   */\n    tag_85:\n        /* \"#utility.yul\":2542:2566   */\n      tag_119\n        /* \"#utility.yul\":2560:2565   */\n      dup2\n        /* \"#utility.yul\":2542:2566   */\n      tag_79\n      jump\t// in\n    tag_119:\n        /* \"#utility.yul\":2537:2540   */\n      dup3\n        /* \"#utility.yul\":2530:2567   */\n      mstore\n        /* \"#utility.yul\":2455:2573   */\n      pop\n      pop\n      jump\t// out\n        /* \"#utility.yul\":2579:2801   */\n    tag_32:\n        /* \"#utility.yul\":2672:2676   */\n      0x00\n        /* \"#utility.yul\":2710:2712   */\n      0x20\n        /* \"#utility.yul\":2699:2708   */\n      dup3\n        /* \"#utility.yul\":2695:2713   */\n      add\n        /* \"#utility.yul\":2687:2713   */\n      swap1\n      pop\n        /* \"#utility.yul\":2723:2794   */\n      tag_121\n        /* \"#utility.yul\":2791:2792   */\n      0x00\n        /* \"#utility.yul\":2780:2789   */\n      dup4\n        /* \"#utility.yul\":2776:2793   */\n      add\n        /* \"#utility.yul\":2767:2773   */\n      dup5\n        /* \"#utility.yul\":2723:2794   */\n      tag_85\n      jump\t// in\n    tag_121:\n        /* \"#utility.yul\":2579:2801   */\n      swap3\n      swap2\n      pop\n      pop\n      jump\t// out\n        /* \"#utility.yul\":2807:2929   */\n    tag_86:\n        /* \"#utility.yul\":2880:2904   */\n      tag_123\n        /* \"#utility.yul\":2898:2903   */\n      dup2\n        /* \"#utility.yul\":2880:2904   */\n      tag_82\n      jump\t// in\n    tag_123:\n        /* \"#utility.yul\":2873:2878   */\n      dup2\n        /* \"#utility.yul\":2870:2905   */\n      eq\n        /* \"#utility.yul\":2860:2923   */\n      tag_124\n      jumpi\n        /* \"#utility.yul\":2919:2920   */\n      0x00\n        /* \"#utility.yul\":2916:2917   */\n      dup1\n        /* \"#utility.yul\":2909:2921   */\n      revert\n        /* \"#utility.yul\":2860:2923   */\n    tag_124:\n        /* \"#utility.yul\":2807:2929   */\n      pop\n      jump\t// out\n        /* \"#utility.yul\":2935:3078   */\n    tag_87:\n        /* \"#utility.yul\":2992:2997   */\n      0x00\n        /* \"#utility.yul\":3023:3029   */\n      dup2\n        /* \"#utility.yul\":3017:3030   */\n      mload\n        /* \"#utility.yul\":3008:3030   */\n      swap1\n      pop\n        /* \"#utility.yul\":3039:3072   */\n      tag_126\n        /* \"#utility.yul\":3066:3071   */\n      dup2\n        /* \"#utility.yul\":3039:3072   */\n      tag_86\n      jump\t// in\n    tag_126:\n        /* \"#utility.yul\":2935:3078   */\n      swap3\n      swap2\n      pop\n      pop\n      jump\t// out\n        /* \"#utility.yul\":3084:3435   */\n    tag_36:\n        /* \"#utility.yul\":3154:3160   */\n      0x00\n        /* \"#utility.yul\":3203:3205   */\n      0x20\n        /* \"#utility.yul\":3191:3200   */\n      dup3\n        /* \"#utility.yul\":3182:3189   */\n      dup5\n        /* \"#utility.yul\":3178:3201   */\n      sub\n        /* \"#utility.yul\":3174:3206   */\n      slt\n        /* \"#utility.yul\":3171:3290   */\n      iszero\n      tag_128\n      jumpi\n        /* \"#utility.yul\":3209:3288   */\n      tag_129\n      tag_76\n      jump\t// in\n    tag_129:\n        /* \"#utility.yul\":3171:3290   */\n    tag_128:\n        /* \"#utility.yul\":3329:3330   */\n      0x00\n        /* \"#utility.yul\":3354:3418   */\n      tag_130\n        /* \"#utility.yul\":3410:3417   */\n      dup5\n        /* \"#utility.yul\":3401:3407   */\n      dup3\n        /* \"#utility.yul\":3390:3399   */\n      dup6\n        /* \"#utility.yul\":3386:3408   */\n      add\n        /* \"#utility.yul\":3354:3418   */\n      tag_87\n      jump\t// in\n    tag_130:\n        /* \"#utility.yul\":3344:3418   */\n      swap2\n      pop\n        /* \"#utility.yul\":3300:3428   */\n      pop\n        /* \"#utility.yul\":3084:3435   */\n      swap3\n      swap2\n      pop\n      pop\n      jump\t// out\n\n    auxdata: 0xa2646970667358221220aee140891aea2acb9f6c68d9078b5beb4e45a34b8fc9fd789fab7830a49d01c364736f6c634300081a0033\n}\n",
				"bytecode": {
					"linkReferences": {},
					"object": "6080604052348015600e575f80fd5b506108938061001c5f395ff3fe608060405234801561000f575f80fd5b506004361061004a575f3560e01c80631fdd03cb1461004e5780637232688e1461007e578063b49bbce5146100af578063ec0a63d8146100df575b5f80fd5b6100686004803603810190610063919061071e565b610110565b6040516100759190610761565b60405180910390f35b6100986004803603810190610093919061071e565b610206565b6040516100a692919061077a565b60405180910390f35b6100c960048036038101906100c4919061071e565b6103e8565b6040516100d69190610761565b60405180910390f35b6100f960048036038101906100f4919061071e565b6104de565b60405161010792919061077a565b60405180910390f35b5f808290505f8173ffffffffffffffffffffffffffffffffffffffff16630dfe16816040518163ffffffff1660e01b8152600401602060405180830381865afa15801561015f573d5f803e3d5ffd5b505050506040513d601f19601f8201168201806040525081019061018391906107b5565b90508073ffffffffffffffffffffffffffffffffffffffff166370a08231856040518263ffffffff1660e01b81526004016101be91906107ef565b602060405180830381865afa1580156101d9573d5f803e3d5ffd5b505050506040513d601f19601f820116820180604052508101906101fd9190610832565b92505050919050565b5f805f8390505f8173ffffffffffffffffffffffffffffffffffffffff16630dfe16816040518163ffffffff1660e01b8152600401602060405180830381865afa158015610256573d5f803e3d5ffd5b505050506040513d601f19601f8201168201806040525081019061027a91906107b5565b90505f8273ffffffffffffffffffffffffffffffffffffffff1663d21220a76040518163ffffffff1660e01b8152600401602060405180830381865afa1580156102c6573d5f803e3d5ffd5b505050506040513d601f19601f820116820180604052508101906102ea91906107b5565b90508173ffffffffffffffffffffffffffffffffffffffff166370a08231876040518263ffffffff1660e01b815260040161032591906107ef565b602060405180830381865afa158015610340573d5f803e3d5ffd5b505050506040513d601f19601f820116820180604052508101906103649190610832565b94508073ffffffffffffffffffffffffffffffffffffffff166370a08231876040518263ffffffff1660e01b815260040161039f91906107ef565b602060405180830381865afa1580156103ba573d5f803e3d5ffd5b505050506040513d601f19601f820116820180604052508101906103de9190610832565b9350505050915091565b5f808290505f8173ffffffffffffffffffffffffffffffffffffffff1663d21220a76040518163ffffffff1660e01b8152600401602060405180830381865afa158015610437573d5f803e3d5ffd5b505050506040513d601f19601f8201168201806040525081019061045b91906107b5565b90508073ffffffffffffffffffffffffffffffffffffffff166370a08231856040518263ffffffff1660e01b815260040161049691906107ef565b602060405180830381865afa1580156104b1573d5f803e3d5ffd5b505050506040513d601f19601f820116820180604052508101906104d59190610832565b92505050919050565b5f805f8390505f8173ffffffffffffffffffffffffffffffffffffffff16630dfe16816040518163ffffffff1660e01b8152600401602060405180830381865afa15801561052e573d5f803e3d5ffd5b505050506040513d601f19601f8201168201806040525081019061055291906107b5565b90505f8273ffffffffffffffffffffffffffffffffffffffff1663d21220a76040518163ffffffff1660e01b8152600401602060405180830381865afa15801561059e573d5f803e3d5ffd5b505050506040513d601f19601f820116820180604052508101906105c291906107b5565b90508173ffffffffffffffffffffffffffffffffffffffff166370a08231876040518263ffffffff1660e01b81526004016105fd91906107ef565b602060405180830381865afa158015610618573d5f803e3d5ffd5b505050506040513d601f19601f8201168201806040525081019061063c9190610832565b94508073ffffffffffffffffffffffffffffffffffffffff166370a08231876040518263ffffffff1660e01b815260040161067791906107ef565b602060405180830381865afa158015610692573d5f803e3d5ffd5b505050506040513d601f19601f820116820180604052508101906106b69190610832565b9350505050915091565b5f80fd5b5f73ffffffffffffffffffffffffffffffffffffffff82169050919050565b5f6106ed826106c4565b9050919050565b6106fd816106e3565b8114610707575f80fd5b50565b5f81359050610718816106f4565b92915050565b5f60208284031215610733576107326106c0565b5b5f6107408482850161070a565b91505092915050565b5f819050919050565b61075b81610749565b82525050565b5f6020820190506107745f830184610752565b92915050565b5f60408201905061078d5f830185610752565b61079a6020830184610752565b9392505050565b5f815190506107af816106f4565b92915050565b5f602082840312156107ca576107c96106c0565b5b5f6107d7848285016107a1565b91505092915050565b6107e9816106e3565b82525050565b5f6020820190506108025f8301846107e0565b92915050565b61081181610749565b811461081b575f80fd5b50565b5f8151905061082c81610808565b92915050565b5f60208284031215610847576108466106c0565b5b5f6108548482850161081e565b9150509291505056fea2646970667358221220aee140891aea2acb9f6c68d9078b5beb4e45a34b8fc9fd789fab7830a49d01c364736f6c634300081a0033",
					"opcodes": "PUSH1 0x80 PUSH1 0x40 MSTORE CALLVALUE DUP1 ISZERO PUSH1 0xE JUMPI PUSH0 DUP1 REVERT JUMPDEST POP PUSH2 0x893 DUP1 PUSH2 0x1C PUSH0 CODECOPY PUSH0 RETURN INVALID PUSH1 0x80 PUSH1 0x40 MSTORE CALLVALUE DUP1 ISZERO PUSH2 0xF JUMPI PUSH0 DUP1 REVERT JUMPDEST POP PUSH1 0x4 CALLDATASIZE LT PUSH2 0x4A JUMPI PUSH0 CALLDATALOAD PUSH1 0xE0 SHR DUP1 PUSH4 0x1FDD03CB EQ PUSH2 0x4E JUMPI DUP1 PUSH4 0x7232688E EQ PUSH2 0x7E JUMPI DUP1 PUSH4 0xB49BBCE5 EQ PUSH2 0xAF JUMPI DUP1 PUSH4 0xEC0A63D8 EQ PUSH2 0xDF JUMPI JUMPDEST PUSH0 DUP1 REVERT JUMPDEST PUSH2 0x68 PUSH1 0x4 DUP1 CALLDATASIZE SUB DUP2 ADD SWAP1 PUSH2 0x63 SWAP2 SWAP1 PUSH2 0x71E JUMP JUMPDEST PUSH2 0x110 JUMP JUMPDEST PUSH1 0x40 MLOAD PUSH2 0x75 SWAP2 SWAP1 PUSH2 0x761 JUMP JUMPDEST PUSH1 0x40 MLOAD DUP1 SWAP2 SUB SWAP1 RETURN JUMPDEST PUSH2 0x98 PUSH1 0x4 DUP1 CALLDATASIZE SUB DUP2 ADD SWAP1 PUSH2 0x93 SWAP2 SWAP1 PUSH2 0x71E JUMP JUMPDEST PUSH2 0x206 JUMP JUMPDEST PUSH1 0x40 MLOAD PUSH2 0xA6 SWAP3 SWAP2 SWAP1 PUSH2 0x77A JUMP JUMPDEST PUSH1 0x40 MLOAD DUP1 SWAP2 SUB SWAP1 RETURN JUMPDEST PUSH2 0xC9 PUSH1 0x4 DUP1 CALLDATASIZE SUB DUP2 ADD SWAP1 PUSH2 0xC4 SWAP2 SWAP1 PUSH2 0x71E JUMP JUMPDEST PUSH2 0x3E8 JUMP JUMPDEST PUSH1 0x40 MLOAD PUSH2 0xD6 SWAP2 SWAP1 PUSH2 0x761 JUMP JUMPDEST PUSH1 0x40 MLOAD DUP1 SWAP2 SUB SWAP1 RETURN JUMPDEST PUSH2 0xF9 PUSH1 0x4 DUP1 CALLDATASIZE SUB DUP2 ADD SWAP1 PUSH2 0xF4 SWAP2 SWAP1 PUSH2 0x71E JUMP JUMPDEST PUSH2 0x4DE JUMP JUMPDEST PUSH1 0x40 MLOAD PUSH2 0x107 SWAP3 SWAP2 SWAP1 PUSH2 0x77A JUMP JUMPDEST PUSH1 0x40 MLOAD DUP1 SWAP2 SUB SWAP1 RETURN JUMPDEST PUSH0 DUP1 DUP3 SWAP1 POP PUSH0 DUP2 PUSH20 0xFFFFFFFFFFFFFFFFFFFFFFFFFFFFFFFFFFFFFFFF AND PUSH4 0xDFE1681 PUSH1 0x40 MLOAD DUP2 PUSH4 0xFFFFFFFF AND PUSH1 0xE0 SHL DUP2 MSTORE PUSH1 0x4 ADD PUSH1 0x20 PUSH1 0x40 MLOAD DUP1 DUP4 SUB DUP2 DUP7 GAS STATICCALL ISZERO DUP1 ISZERO PUSH2 0x15F JUMPI RETURNDATASIZE PUSH0 DUP1 RETURNDATACOPY RETURNDATASIZE PUSH0 REVERT JUMPDEST POP POP POP POP PUSH1 0x40 MLOAD RETURNDATASIZE PUSH1 0x1F NOT PUSH1 0x1F DUP3 ADD AND DUP3 ADD DUP1 PUSH1 0x40 MSTORE POP DUP2 ADD SWAP1 PUSH2 0x183 SWAP2 SWAP1 PUSH2 0x7B5 JUMP JUMPDEST SWAP1 POP DUP1 PUSH20 0xFFFFFFFFFFFFFFFFFFFFFFFFFFFFFFFFFFFFFFFF AND PUSH4 0x70A08231 DUP6 PUSH1 0x40 MLOAD DUP3 PUSH4 0xFFFFFFFF AND PUSH1 0xE0 SHL DUP2 MSTORE PUSH1 0x4 ADD PUSH2 0x1BE SWAP2 SWAP1 PUSH2 0x7EF JUMP JUMPDEST PUSH1 0x20 PUSH1 0x40 MLOAD DUP1 DUP4 SUB DUP2 DUP7 GAS STATICCALL ISZERO DUP1 ISZERO PUSH2 0x1D9 JUMPI RETURNDATASIZE PUSH0 DUP1 RETURNDATACOPY RETURNDATASIZE PUSH0 REVERT JUMPDEST POP POP POP POP PUSH1 0x40 MLOAD RETURNDATASIZE PUSH1 0x1F NOT PUSH1 0x1F DUP3 ADD AND DUP3 ADD DUP1 PUSH1 0x40 MSTORE POP DUP2 ADD SWAP1 PUSH2 0x1FD SWAP2 SWAP1 PUSH2 0x832 JUMP JUMPDEST SWAP3 POP POP POP SWAP2 SWAP1 POP JUMP JUMPDEST PUSH0 DUP1 PUSH0 DUP4 SWAP1 POP PUSH0 DUP2 PUSH20 0xFFFFFFFFFFFFFFFFFFFFFFFFFFFFFFFFFFFFFFFF AND PUSH4 0xDFE1681 PUSH1 0x40 MLOAD DUP2 PUSH4 0xFFFFFFFF AND PUSH1 0xE0 SHL DUP2 MSTORE PUSH1 0x4 ADD PUSH1 0x20 PUSH1 0x40 MLOAD DUP1 DUP4 SUB DUP2 DUP7 GAS STATICCALL ISZERO DUP1 ISZERO PUSH2 0x256 JUMPI RETURNDATASIZE PUSH0 DUP1 RETURNDATACOPY RETURNDATASIZE PUSH0 REVERT JUMPDEST POP POP POP POP PUSH1 0x40 MLOAD RETURNDATASIZE PUSH1 0x1F NOT PUSH1 0x1F DUP3 ADD AND DUP3 ADD DUP1 PUSH1 0x40 MSTORE POP DUP2 ADD SWAP1 PUSH2 0x27A SWAP2 SWAP1 PUSH2 0x7B5 JUMP JUMPDEST SWAP1 POP PUSH0 DUP3 PUSH20 0xFFFFFFFFFFFFFFFFFFFFFFFFFFFFFFFFFFFFFFFF AND PUSH4 0xD21220A7 PUSH1 0x40 MLOAD DUP2 PUSH4 0xFFFFFFFF AND PUSH1 0xE0 SHL DUP2 MSTORE PUSH1 0x4 ADD PUSH1 0x20 PUSH1 0x40 MLOAD DUP1 DUP4 SUB DUP2 DUP7 GAS STATICCALL ISZERO DUP1 ISZERO PUSH2 0x2C6 JUMPI RETURNDATASIZE PUSH0 DUP1 RETURNDATACOPY RETURNDATASIZE PUSH0 REVERT JUMPDEST POP POP POP POP PUSH1 0x40 MLOAD RETURNDATASIZE PUSH1 0x1F NOT PUSH1 0x1F DUP3 ADD AND DUP3 ADD DUP1 PUSH1 0x40 MSTORE POP DUP2 ADD SWAP1 PUSH2 0x2EA SWAP2 SWAP1 PUSH2 0x7B5 JUMP JUMPDEST SWAP1 POP DUP2 PUSH20 0xFFFFFFFFFFFFFFFFFFFFFFFFFFFFFFFFFFFFFFFF AND PUSH4 0x70A08231 DUP8 PUSH1 0x40 MLOAD DUP3 PUSH4 0xFFFFFFFF AND PUSH1 0xE0 SHL DUP2 MSTORE PUSH1 0x4 ADD PUSH2 0x325 SWAP2 SWAP1 PUSH2 0x7EF JUMP JUMPDEST PUSH1 0x20 PUSH1 0x40 MLOAD DUP1 DUP4 SUB DUP2 DUP7 GAS STATICCALL ISZERO DUP1 ISZERO PUSH2 0x340 JUMPI RETURNDATASIZE PUSH0 DUP1 RETURNDATACOPY RETURNDATASIZE PUSH0 REVERT JUMPDEST POP POP POP POP PUSH1 0x40 MLOAD RETURNDATASIZE PUSH1 0x1F NOT PUSH1 0x1F DUP3 ADD AND DUP3 ADD DUP1 PUSH1 0x40 MSTORE POP DUP2 ADD SWAP1 PUSH2 0x364 SWAP2 SWAP1 PUSH2 0x832 JUMP JUMPDEST SWAP5 POP DUP1 PUSH20 0xFFFFFFFFFFFFFFFFFFFFFFFFFFFFFFFFFFFFFFFF AND PUSH4 0x70A08231 DUP8 PUSH1 0x40 MLOAD DUP3 PUSH4 0xFFFFFFFF AND PUSH1 0xE0 SHL DUP2 MSTORE PUSH1 0x4 ADD PUSH2 0x39F SWAP2 SWAP1 PUSH2 0x7EF JUMP JUMPDEST PUSH1 0x20 PUSH1 0x40 MLOAD DUP1 DUP4 SUB DUP2 DUP7 GAS STATICCALL ISZERO DUP1 ISZERO PUSH2 0x3BA JUMPI RETURNDATASIZE PUSH0 DUP1 RETURNDATACOPY RETURNDATASIZE PUSH0 REVERT JUMPDEST POP POP POP POP PUSH1 0x40 MLOAD RETURNDATASIZE PUSH1 0x1F NOT PUSH1 0x1F DUP3 ADD AND DUP3 ADD DUP1 PUSH1 0x40 MSTORE POP DUP2 ADD SWAP1 PUSH2 0x3DE SWAP2 SWAP1 PUSH2 0x832 JUMP JUMPDEST SWAP4 POP POP POP POP SWAP2 POP SWAP2 JUMP JUMPDEST PUSH0 DUP1 DUP3 SWAP1 POP PUSH0 DUP2 PUSH20 0xFFFFFFFFFFFFFFFFFFFFFFFFFFFFFFFFFFFFFFFF AND PUSH4 0xD21220A7 PUSH1 0x40 MLOAD DUP2 PUSH4 0xFFFFFFFF AND PUSH1 0xE0 SHL DUP2 MSTORE PUSH1 0x4 ADD PUSH1 0x20 PUSH1 0x40 MLOAD DUP1 DUP4 SUB DUP2 DUP7 GAS STATICCALL ISZERO DUP1 ISZERO PUSH2 0x437 JUMPI RETURNDATASIZE PUSH0 DUP1 RETURNDATACOPY RETURNDATASIZE PUSH0 REVERT JUMPDEST POP POP POP POP PUSH1 0x40 MLOAD RETURNDATASIZE PUSH1 0x1F NOT PUSH1 0x1F DUP3 ADD AND DUP3 ADD DUP1 PUSH1 0x40 MSTORE POP DUP2 ADD SWAP1 PUSH2 0x45B SWAP2 SWAP1 PUSH2 0x7B5 JUMP JUMPDEST SWAP1 POP DUP1 PUSH20 0xFFFFFFFFFFFFFFFFFFFFFFFFFFFFFFFFFFFFFFFF AND PUSH4 0x70A08231 DUP6 PUSH1 0x40 MLOAD DUP3 PUSH4 0xFFFFFFFF AND PUSH1 0xE0 SHL DUP2 MSTORE PUSH1 0x4 ADD PUSH2 0x496 SWAP2 SWAP1 PUSH2 0x7EF JUMP JUMPDEST PUSH1 0x20 PUSH1 0x40 MLOAD DUP1 DUP4 SUB DUP2 DUP7 GAS STATICCALL ISZERO DUP1 ISZERO PUSH2 0x4B1 JUMPI RETURNDATASIZE PUSH0 DUP1 RETURNDATACOPY RETURNDATASIZE PUSH0 REVERT JUMPDEST POP POP POP POP PUSH1 0x40 MLOAD RETURNDATASIZE PUSH1 0x1F NOT PUSH1 0x1F DUP3 ADD AND DUP3 ADD DUP1 PUSH1 0x40 MSTORE POP DUP2 ADD SWAP1 PUSH2 0x4D5 SWAP2 SWAP1 PUSH2 0x832 JUMP JUMPDEST SWAP3 POP POP POP SWAP2 SWAP1 POP JUMP JUMPDEST PUSH0 DUP1 PUSH0 DUP4 SWAP1 POP PUSH0 DUP2 PUSH20 0xFFFFFFFFFFFFFFFFFFFFFFFFFFFFFFFFFFFFFFFF AND PUSH4 0xDFE1681 PUSH1 0x40 MLOAD DUP2 PUSH4 0xFFFFFFFF AND PUSH1 0xE0 SHL DUP2 MSTORE PUSH1 0x4 ADD PUSH1 0x20 PUSH1 0x40 MLOAD DUP1 DUP4 SUB DUP2 DUP7 GAS STATICCALL ISZERO DUP1 ISZERO PUSH2 0x52E JUMPI RETURNDATASIZE PUSH0 DUP1 RETURNDATACOPY RETURNDATASIZE PUSH0 REVERT JUMPDEST POP POP POP POP PUSH1 0x40 MLOAD RETURNDATASIZE PUSH1 0x1F NOT PUSH1 0x1F DUP3 ADD AND DUP3 ADD DUP1 PUSH1 0x40 MSTORE POP DUP2 ADD SWAP1 PUSH2 0x552 SWAP2 SWAP1 PUSH2 0x7B5 JUMP JUMPDEST SWAP1 POP PUSH0 DUP3 PUSH20 0xFFFFFFFFFFFFFFFFFFFFFFFFFFFFFFFFFFFFFFFF AND PUSH4 0xD21220A7 PUSH1 0x40 MLOAD DUP2 PUSH4 0xFFFFFFFF AND PUSH1 0xE0 SHL DUP2 MSTORE PUSH1 0x4 ADD PUSH1 0x20 PUSH1 0x40 MLOAD DUP1 DUP4 SUB DUP2 DUP7 GAS STATICCALL ISZERO DUP1 ISZERO PUSH2 0x59E JUMPI RETURNDATASIZE PUSH0 DUP1 RETURNDATACOPY RETURNDATASIZE PUSH0 REVERT JUMPDEST POP POP POP POP PUSH1 0x40 MLOAD RETURNDATASIZE PUSH1 0x1F NOT PUSH1 0x1F DUP3 ADD AND DUP3 ADD DUP1 PUSH1 0x40 MSTORE POP DUP2 ADD SWAP1 PUSH2 0x5C2 SWAP2 SWAP1 PUSH2 0x7B5 JUMP JUMPDEST SWAP1 POP DUP2 PUSH20 0xFFFFFFFFFFFFFFFFFFFFFFFFFFFFFFFFFFFFFFFF AND PUSH4 0x70A08231 DUP8 PUSH1 0x40 MLOAD DUP3 PUSH4 0xFFFFFFFF AND PUSH1 0xE0 SHL DUP2 MSTORE PUSH1 0x4 ADD PUSH2 0x5FD SWAP2 SWAP1 PUSH2 0x7EF JUMP JUMPDEST PUSH1 0x20 PUSH1 0x40 MLOAD DUP1 DUP4 SUB DUP2 DUP7 GAS STATICCALL ISZERO DUP1 ISZERO PUSH2 0x618 JUMPI RETURNDATASIZE PUSH0 DUP1 RETURNDATACOPY RETURNDATASIZE PUSH0 REVERT JUMPDEST POP POP POP POP PUSH1 0x40 MLOAD RETURNDATASIZE PUSH1 0x1F NOT PUSH1 0x1F DUP3 ADD AND DUP3 ADD DUP1 PUSH1 0x40 MSTORE POP DUP2 ADD SWAP1 PUSH2 0x63C SWAP2 SWAP1 PUSH2 0x832 JUMP JUMPDEST SWAP5 POP DUP1 PUSH20 0xFFFFFFFFFFFFFFFFFFFFFFFFFFFFFFFFFFFFFFFF AND PUSH4 0x70A08231 DUP8 PUSH1 0x40 MLOAD DUP3 PUSH4 0xFFFFFFFF AND PUSH1 0xE0 SHL DUP2 MSTORE PUSH1 0x4 ADD PUSH2 0x677 SWAP2 SWAP1 PUSH2 0x7EF JUMP JUMPDEST PUSH1 0x20 PUSH1 0x40 MLOAD DUP1 DUP4 SUB DUP2 DUP7 GAS STATICCALL ISZERO DUP1 ISZERO PUSH2 0x692 JUMPI RETURNDATASIZE PUSH0 DUP1 RETURNDATACOPY RETURNDATASIZE PUSH0 REVERT JUMPDEST POP POP POP POP PUSH1 0x40 MLOAD RETURNDATASIZE PUSH1 0x1F NOT PUSH1 0x1F DUP3 ADD AND DUP3 ADD DUP1 PUSH1 0x40 MSTORE POP DUP2 ADD SWAP1 PUSH2 0x6B6 SWAP2 SWAP1 PUSH2 0x832 JUMP JUMPDEST SWAP4 POP POP POP POP SWAP2 POP SWAP2 JUMP JUMPDEST PUSH0 DUP1 REVERT JUMPDEST PUSH0 PUSH20 0xFFFFFFFFFFFFFFFFFFFFFFFFFFFFFFFFFFFFFFFF DUP3 AND SWAP1 POP SWAP2 SWAP1 POP JUMP JUMPDEST PUSH0 PUSH2 0x6ED DUP3 PUSH2 0x6C4 JUMP JUMPDEST SWAP1 POP SWAP2 SWAP1 POP JUMP JUMPDEST PUSH2 0x6FD DUP2 PUSH2 0x6E3 JUMP JUMPDEST DUP2 EQ PUSH2 0x707 JUMPI PUSH0 DUP1 REVERT JUMPDEST POP JUMP JUMPDEST PUSH0 DUP2 CALLDATALOAD SWAP1 POP PUSH2 0x718 DUP2 PUSH2 0x6F4 JUMP JUMPDEST SWAP3 SWAP2 POP POP JUMP JUMPDEST PUSH0 PUSH1 0x20 DUP3 DUP5 SUB SLT ISZERO PUSH2 0x733 JUMPI PUSH2 0x732 PUSH2 0x6C0 JUMP JUMPDEST JUMPDEST PUSH0 PUSH2 0x740 DUP5 DUP3 DUP6 ADD PUSH2 0x70A JUMP JUMPDEST SWAP2 POP POP SWAP3 SWAP2 POP POP JUMP JUMPDEST PUSH0 DUP2 SWAP1 POP SWAP2 SWAP1 POP JUMP JUMPDEST PUSH2 0x75B DUP2 PUSH2 0x749 JUMP JUMPDEST DUP3 MSTORE POP POP JUMP JUMPDEST PUSH0 PUSH1 0x20 DUP3 ADD SWAP1 POP PUSH2 0x774 PUSH0 DUP4 ADD DUP5 PUSH2 0x752 JUMP JUMPDEST SWAP3 SWAP2 POP POP JUMP JUMPDEST PUSH0 PUSH1 0x40 DUP3 ADD SWAP1 POP PUSH2 0x78D PUSH0 DUP4 ADD DUP6 PUSH2 0x752 JUMP JUMPDEST PUSH2 0x79A PUSH1 0x20 DUP4 ADD DUP5 PUSH2 0x752 JUMP JUMPDEST SWAP4 SWAP3 POP POP POP JUMP JUMPDEST PUSH0 DUP2 MLOAD SWAP1 POP PUSH2 0x7AF DUP2 PUSH2 0x6F4 JUMP JUMPDEST SWAP3 SWAP2 POP POP JUMP JUMPDEST PUSH0 PUSH1 0x20 DUP3 DUP5 SUB SLT ISZERO PUSH2 0x7CA JUMPI PUSH2 0x7C9 PUSH2 0x6C0 JUMP JUMPDEST JUMPDEST PUSH0 PUSH2 0x7D7 DUP5 DUP3 DUP6 ADD PUSH2 0x7A1 JUMP JUMPDEST SWAP2 POP POP SWAP3 SWAP2 POP POP JUMP JUMPDEST PUSH2 0x7E9 DUP2 PUSH2 0x6E3 JUMP JUMPDEST DUP3 MSTORE POP POP JUMP JUMPDEST PUSH0 PUSH1 0x20 DUP3 ADD SWAP1 POP PUSH2 0x802 PUSH0 DUP4 ADD DUP5 PUSH2 0x7E0 JUMP JUMPDEST SWAP3 SWAP2 POP POP JUMP JUMPDEST PUSH2 0x811 DUP2 PUSH2 0x749 JUMP JUMPDEST DUP2 EQ PUSH2 0x81B JUMPI PUSH0 DUP1 REVERT JUMPDEST POP JUMP JUMPDEST PUSH0 DUP2 MLOAD SWAP1 POP PUSH2 0x82C DUP2 PUSH2 0x808 JUMP JUMPDEST SWAP3 SWAP2 POP POP JUMP JUMPDEST PUSH0 PUSH1 0x20 DUP3 DUP5 SUB SLT ISZERO PUSH2 0x847 JUMPI PUSH2 0x846 PUSH2 0x6C0 JUMP JUMPDEST JUMPDEST PUSH0 PUSH2 0x854 DUP5 DUP3 DUP6 ADD PUSH2 0x81E JUMP JUMPDEST SWAP2 POP POP SWAP3 SWAP2 POP POP JUMP INVALID LOG2 PUSH5 0x6970667358 0x22 SLT KECCAK256 0xAE 0xE1 BLOCKHASH DUP10 BYTE 0xEA 0x2A 0xCB SWAP16 PUSH13 0x68D9078B5BEB4E45A34B8FC9FD PUSH25 0x9FAB7830A49D01C364736F6C634300081A0033000000000000 "
				},
				"gasEstimates": {
					"creation": {
						"codeDepositCost": "439000",
						"executionCost": "472",
						"totalCost": "439472"
					},
					"external": {
						"getReservesV2(address)": "infinite",
						"getReservesV3(address)": "infinite",
						"reserves0(address)": "infinite",
						"reserves1(address)": "infinite"
					}
				},
				"methodIdentifiers": {
					"getReservesV2(address)": "ec0a63d8",
					"getReservesV3(address)": "7232688e",
					"reserves0(address)": "1fdd03cb",
					"reserves1(address)": "b49bbce5"
				}
			},
			"storageLayout": {
				"storage": [],
				"types": null
			},
			"userdoc": {
				"kind": "user",
				"methods": {},
				"version": 1
			}
		}
	}
}