{
	"contracts/swap.sol": {
		"Swap": {
			"abi": [
				{
					"inputs": [
						{
							"internalType": "address",
							"name": "token",
							"type": "address"
						}
					],
					"name": "SafeERC20FailedOperation",
					"type": "error"
				},
				{
					"inputs": [
						{
							"internalType": "address",
							"name": "pair",
							"type": "address"
						}
					],
					"name": "getReservesV2",
					"outputs": [
						{
							"internalType": "uint256",
							"name": "reserve0",
							"type": "uint256"
						},
						{
							"internalType": "uint256",
							"name": "reserve1",
							"type": "uint256"
						}
					],
					"stateMutability": "view",
					"type": "function"
				},
				{
					"inputs": [
						{
							"internalType": "address",
							"name": "swap_pool",
							"type": "address"
						},
						{
							"internalType": "address",
							"name": "token_in",
							"type": "address"
						},
						{
							"internalType": "uint256",
							"name": "amount_in",
							"type": "uint256"
						}
					],
					"name": "swap",
					"outputs": [],
					"stateMutability": "nonpayable",
					"type": "function"
				}
			],
			"devdoc": {
				"errors": {
					"SafeERC20FailedOperation(address)": [
						{
							"details": "An operation with an ERC-20 token failed."
						}
					]
				},
				"kind": "dev",
				"methods": {},
				"version": 1
			},
			"evm": {
				"assembly": "    /* \"contracts/swap.sol\":263:2791  contract Swap {... */\n  mstore(0x40, 0x80)\n  callvalue\n  dup1\n  iszero\n  tag_1\n  jumpi\n  0x00\n  dup1\n  revert\ntag_1:\n  pop\n  dataSize(sub_0)\n  dup1\n  dataOffset(sub_0)\n  0x00\n  codecopy\n  0x00\n  return\nstop\n\nsub_0: assembly {\n        /* \"contracts/swap.sol\":263:2791  contract Swap {... */\n      mstore(0x40, 0x80)\n      callvalue\n      dup1\n      iszero\n      tag_1\n      jumpi\n      0x00\n      dup1\n      revert\n    tag_1:\n      pop\n      jumpi(tag_2, lt(calldatasize, 0x04))\n      shr(0xe0, calldataload(0x00))\n      dup1\n      0xdf791e50\n      eq\n      tag_3\n      jumpi\n      dup1\n      0xec0a63d8\n      eq\n      tag_4\n      jumpi\n    tag_2:\n      0x00\n      dup1\n      revert\n        /* \"contracts/swap.sol\":319:1079  function swap(address swap_pool, address token_in, uint256 amount_in) external {... */\n    tag_3:\n      tag_5\n      0x04\n      dup1\n      calldatasize\n      sub\n      dup2\n      add\n      swap1\n      tag_6\n      swap2\n      swap1\n      tag_7\n      jump\t// in\n    tag_6:\n      tag_8\n      jump\t// in\n    tag_5:\n      stop\n        /* \"contracts/swap.sol\":2448:2788  function getReservesV2(address pair) public view returns (uint256 reserve0, uint256 reserve1){... */\n    tag_4:\n      tag_9\n      0x04\n      dup1\n      calldatasize\n      sub\n      dup2\n      add\n      swap1\n      tag_10\n      swap2\n      swap1\n      tag_11\n      jump\t// in\n    tag_10:\n      tag_12\n      jump\t// in\n    tag_9:\n      mload(0x40)\n      tag_13\n      swap3\n      swap2\n      swap1\n      tag_14\n      jump\t// in\n    tag_13:\n      mload(0x40)\n      dup1\n      swap2\n      sub\n      swap1\n      return\n        /* \"contracts/swap.sol\":319:1079  function swap(address swap_pool, address token_in, uint256 amount_in) external {... */\n    tag_8:\n        /* \"contracts/swap.sol\":408:427  IUniswapV2Pair pool */\n      0x00\n        /* \"contracts/swap.sol\":445:454  swap_pool */\n      dup4\n        /* \"contracts/swap.sol\":408:455  IUniswapV2Pair pool = IUniswapV2Pair(swap_pool) */\n      swap1\n      pop\n        /* \"contracts/swap.sol\":465:479  address token0 */\n      0x00\n        /* \"contracts/swap.sol\":482:486  pool */\n      dup2\n        /* \"contracts/swap.sol\":482:493  pool.token0 */\n      0xffffffffffffffffffffffffffffffffffffffff\n      and\n      0x0dfe1681\n        /* \"contracts/swap.sol\":482:495  pool.token0() */\n      mload(0x40)\n      dup2\n      0xffffffff\n      and\n      0xe0\n      shl\n      dup2\n      mstore\n      0x04\n      add\n      0x20\n      mload(0x40)\n      dup1\n      dup4\n      sub\n      dup2\n      dup7\n      gas\n      staticcall\n      iszero\n      dup1\n      iszero\n      tag_17\n      jumpi\n      returndatasize\n      0x00\n      dup1\n      returndatacopy\n      revert(0x00, returndatasize)\n    tag_17:\n      pop\n      pop\n      pop\n      pop\n      mload(0x40)\n      returndatasize\n      not(0x1f)\n      0x1f\n      dup3\n      add\n      and\n      dup3\n      add\n      dup1\n      0x40\n      mstore\n      pop\n      dup2\n      add\n      swap1\n      tag_18\n      swap2\n      swap1\n      tag_19\n      jump\t// in\n    tag_18:\n        /* \"contracts/swap.sol\":465:495  address token0 = pool.token0() */\n      swap1\n      pop\n        /* \"contracts/swap.sol\":505:519  address token1 */\n      0x00\n        /* \"contracts/swap.sol\":522:526  pool */\n      dup3\n        /* \"contracts/swap.sol\":522:533  pool.token1 */\n      0xffffffffffffffffffffffffffffffffffffffff\n      and\n      0xd21220a7\n        /* \"contracts/swap.sol\":522:535  pool.token1() */\n      mload(0x40)\n      dup2\n      0xffffffff\n      and\n      0xe0\n      shl\n      dup2\n      mstore\n      0x04\n      add\n      0x20\n      mload(0x40)\n      dup1\n      dup4\n      sub\n      dup2\n      dup7\n      gas\n      staticcall\n      iszero\n      dup1\n      iszero\n      tag_21\n      jumpi\n      returndatasize\n      0x00\n      dup1\n      returndatacopy\n      revert(0x00, returndatasize)\n    tag_21:\n      pop\n      pop\n      pop\n      pop\n      mload(0x40)\n      returndatasize\n      not(0x1f)\n      0x1f\n      dup3\n      add\n      and\n      dup3\n      add\n      dup1\n      0x40\n      mstore\n      pop\n      dup2\n      add\n      swap1\n      tag_22\n      swap2\n      swap1\n      tag_19\n      jump\t// in\n    tag_22:\n        /* \"contracts/swap.sol\":505:535  address token1 = pool.token1() */\n      swap1\n      pop\n        /* \"contracts/swap.sol\":546:555  uint256 a */\n      0x00\n        /* \"contracts/swap.sol\":557:566  uint256 b */\n      dup1\n        /* \"contracts/swap.sol\":570:594  getReservesV2(swap_pool) */\n      tag_23\n        /* \"contracts/swap.sol\":584:593  swap_pool */\n      dup9\n        /* \"contracts/swap.sol\":570:583  getReservesV2 */\n      tag_12\n        /* \"contracts/swap.sol\":570:594  getReservesV2(swap_pool) */\n      jump\t// in\n    tag_23:\n        /* \"contracts/swap.sol\":545:594  (uint256 a, uint256 b) = getReservesV2(swap_pool) */\n      swap2\n      pop\n      swap2\n      pop\n        /* \"contracts/swap.sol\":625:631  token0 */\n      dup4\n        /* \"contracts/swap.sol\":613:631  token_in == token0 */\n      0xffffffffffffffffffffffffffffffffffffffff\n      and\n        /* \"contracts/swap.sol\":613:621  token_in */\n      dup8\n        /* \"contracts/swap.sol\":613:631  token_in == token0 */\n      0xffffffffffffffffffffffffffffffffffffffff\n      and\n      eq\n        /* \"contracts/swap.sol\":612:656  (token_in == token0) || (token_in == token1) */\n      dup1\n      tag_24\n      jumpi\n      pop\n        /* \"contracts/swap.sol\":649:655  token1 */\n      dup3\n        /* \"contracts/swap.sol\":637:655  token_in == token1 */\n      0xffffffffffffffffffffffffffffffffffffffff\n      and\n        /* \"contracts/swap.sol\":637:645  token_in */\n      dup8\n        /* \"contracts/swap.sol\":637:655  token_in == token1 */\n      0xffffffffffffffffffffffffffffffffffffffff\n      and\n      eq\n        /* \"contracts/swap.sol\":612:656  (token_in == token0) || (token_in == token1) */\n    tag_24:\n        /* \"contracts/swap.sol\":604:677  require((token_in == token0) || (token_in == token1), 'No token in pair') */\n      tag_25\n      jumpi\n      mload(0x40)\n      0x08c379a000000000000000000000000000000000000000000000000000000000\n      dup2\n      mstore\n      0x04\n      add\n      tag_26\n      swap1\n      tag_27\n      jump\t// in\n    tag_26:\n      mload(0x40)\n      dup1\n      swap2\n      sub\n      swap1\n      revert\n    tag_25:\n        /* \"contracts/swap.sol\":687:703  bool isbaseToken */\n      0x00\n        /* \"contracts/swap.sol\":718:724  token0 */\n      dup5\n        /* \"contracts/swap.sol\":706:724  token_in == token0 */\n      0xffffffffffffffffffffffffffffffffffffffff\n      and\n        /* \"contracts/swap.sol\":706:714  token_in */\n      dup9\n        /* \"contracts/swap.sol\":706:724  token_in == token0 */\n      0xffffffffffffffffffffffffffffffffffffffff\n      and\n      eq\n        /* \"contracts/swap.sol\":706:739  token_in == token0 ? true : false */\n      tag_28\n      jumpi\n        /* \"contracts/swap.sol\":734:739  false */\n      0x00\n        /* \"contracts/swap.sol\":706:739  token_in == token0 ? true : false */\n      jump(tag_29)\n    tag_28:\n        /* \"contracts/swap.sol\":727:731  true */\n      0x01\n        /* \"contracts/swap.sol\":706:739  token_in == token0 ? true : false */\n    tag_29:\n        /* \"contracts/swap.sol\":687:739  bool isbaseToken = token_in == token0 ? true : false */\n      swap1\n      pop\n        /* \"contracts/swap.sol\":751:802  IERC20(token_in).safeTransfer(swap_pool, amount_in) */\n      tag_30\n        /* \"contracts/swap.sol\":781:790  swap_pool */\n      dup10\n        /* \"contracts/swap.sol\":792:801  amount_in */\n      dup9\n        /* \"contracts/swap.sol\":758:766  token_in */\n      dup11\n        /* \"contracts/swap.sol\":751:780  IERC20(token_in).safeTransfer */\n      0xffffffffffffffffffffffffffffffffffffffff\n      and\n      tag_31\n      swap1\n        /* \"contracts/swap.sol\":751:802  IERC20(token_in).safeTransfer(swap_pool, amount_in) */\n      swap3\n      swap2\n      swap1\n      0xffffffff\n      and\n      jump\t// in\n    tag_30:\n        /* \"contracts/swap.sol\":815:833  uint256 amount0Out */\n      0x00\n        /* \"contracts/swap.sol\":835:853  uint256 amount1Out */\n      dup1\n        /* \"contracts/swap.sol\":870:881  isbaseToken */\n      dup3\n        /* \"contracts/swap.sol\":870:973  isbaseToken ? (uint256(0), getAmountOut(amount_in, a, b)) : (getAmountOut(amount_in, b, a), uint256(0)) */\n      tag_32\n      jumpi\n        /* \"contracts/swap.sol\":931:960  getAmountOut(amount_in, b, a) */\n      tag_33\n        /* \"contracts/swap.sol\":944:953  amount_in */\n      dup10\n        /* \"contracts/swap.sol\":955:956  b */\n      dup6\n        /* \"contracts/swap.sol\":958:959  a */\n      dup8\n        /* \"contracts/swap.sol\":931:943  getAmountOut */\n      tag_34\n        /* \"contracts/swap.sol\":931:960  getAmountOut(amount_in, b, a) */\n      jump\t// in\n    tag_33:\n        /* \"contracts/swap.sol\":970:971  0 */\n      0x00\n        /* \"contracts/swap.sol\":870:973  isbaseToken ? (uint256(0), getAmountOut(amount_in, a, b)) : (getAmountOut(amount_in, b, a), uint256(0)) */\n      jump(tag_35)\n    tag_32:\n        /* \"contracts/swap.sol\":893:894  0 */\n      0x00\n        /* \"contracts/swap.sol\":897:926  getAmountOut(amount_in, a, b) */\n      tag_36\n        /* \"contracts/swap.sol\":910:919  amount_in */\n      dup11\n        /* \"contracts/swap.sol\":921:922  a */\n      dup8\n        /* \"contracts/swap.sol\":924:925  b */\n      dup8\n        /* \"contracts/swap.sol\":897:909  getAmountOut */\n      tag_34\n        /* \"contracts/swap.sol\":897:926  getAmountOut(amount_in, a, b) */\n      jump\t// in\n    tag_36:\n        /* \"contracts/swap.sol\":870:973  isbaseToken ? (uint256(0), getAmountOut(amount_in, a, b)) : (getAmountOut(amount_in, b, a), uint256(0)) */\n    tag_35:\n        /* \"contracts/swap.sol\":814:973  (uint256 amount0Out, uint256 amount1Out) =... */\n      swap2\n      pop\n      swap2\n      pop\n        /* \"contracts/swap.sol\":1001:1010  swap_pool */\n      dup11\n        /* \"contracts/swap.sol\":986:1016  IUniswapV2Pair(swap_pool).swap */\n      0xffffffffffffffffffffffffffffffffffffffff\n      and\n      0x022c0d9f\n        /* \"contracts/swap.sol\":1017:1027  amount0Out */\n      dup4\n        /* \"contracts/swap.sol\":1029:1039  amount1Out */\n      dup4\n        /* \"contracts/swap.sol\":1049:1053  this */\n      address\n        /* \"contracts/swap.sol\":1066:1067  0 */\n      0x00\n        /* \"contracts/swap.sol\":1056:1068  new bytes(0) */\n      0xffffffffffffffff\n      dup2\n      gt\n      iszero\n      tag_37\n      jumpi\n      tag_38\n      tag_39\n      jump\t// in\n    tag_38:\n    tag_37:\n      mload(0x40)\n      swap1\n      dup1\n      dup3\n      mstore\n      dup1\n      0x1f\n      add\n      not(0x1f)\n      and\n      0x20\n      add\n      dup3\n      add\n      0x40\n      mstore\n      dup1\n      iszero\n      tag_40\n      jumpi\n      dup2\n      0x20\n      add\n      0x01\n      dup3\n      mul\n      dup1\n      calldatasize\n      dup4\n      calldatacopy\n      dup1\n      dup3\n      add\n      swap2\n      pop\n      pop\n      swap1\n      pop\n    tag_40:\n      pop\n        /* \"contracts/swap.sol\":986:1069  IUniswapV2Pair(swap_pool).swap(amount0Out, amount1Out, address(this), new bytes(0)) */\n      mload(0x40)\n      dup6\n      0xffffffff\n      and\n      0xe0\n      shl\n      dup2\n      mstore\n      0x04\n      add\n      tag_41\n      swap5\n      swap4\n      swap3\n      swap2\n      swap1\n      tag_42\n      jump\t// in\n    tag_41:\n      0x00\n      mload(0x40)\n      dup1\n      dup4\n      sub\n      dup2\n      0x00\n      dup8\n      dup1\n      extcodesize\n      iszero\n      dup1\n      iszero\n      tag_43\n      jumpi\n      0x00\n      dup1\n      revert\n    tag_43:\n      pop\n      gas\n      call\n      iszero\n      dup1\n      iszero\n      tag_45\n      jumpi\n      returndatasize\n      0x00\n      dup1\n      returndatacopy\n      revert(0x00, returndatasize)\n    tag_45:\n      pop\n      pop\n      pop\n      pop\n        /* \"contracts/swap.sol\":398:1079  {... */\n      pop\n      pop\n      pop\n      pop\n      pop\n      pop\n      pop\n      pop\n        /* \"contracts/swap.sol\":319:1079  function swap(address swap_pool, address token_in, uint256 amount_in) external {... */\n      pop\n      pop\n      pop\n      jump\t// out\n        /* \"contracts/swap.sol\":2448:2788  function getReservesV2(address pair) public view returns (uint256 reserve0, uint256 reserve1){... */\n    tag_12:\n        /* \"contracts/swap.sol\":2506:2522  uint256 reserve0 */\n      0x00\n        /* \"contracts/swap.sol\":2524:2540  uint256 reserve1 */\n      dup1\n        /* \"contracts/swap.sol\":2552:2571  IUniswapV2Pair pool */\n      0x00\n        /* \"contracts/swap.sol\":2589:2593  pair */\n      dup4\n        /* \"contracts/swap.sol\":2552:2594  IUniswapV2Pair pool = IUniswapV2Pair(pair) */\n      swap1\n      pop\n        /* \"contracts/swap.sol\":2605:2619  address token0 */\n      0x00\n        /* \"contracts/swap.sol\":2622:2626  pool */\n      dup2\n        /* \"contracts/swap.sol\":2622:2633  pool.token0 */\n      0xffffffffffffffffffffffffffffffffffffffff\n      and\n      0x0dfe1681\n        /* \"contracts/swap.sol\":2622:2635  pool.token0() */\n      mload(0x40)\n      dup2\n      0xffffffff\n      and\n      0xe0\n      shl\n      dup2\n      mstore\n      0x04\n      add\n      0x20\n      mload(0x40)\n      dup1\n      dup4\n      sub\n      dup2\n      dup7\n      gas\n      staticcall\n      iszero\n      dup1\n      iszero\n      tag_48\n      jumpi\n      returndatasize\n      0x00\n      dup1\n      returndatacopy\n      revert(0x00, returndatasize)\n    tag_48:\n      pop\n      pop\n      pop\n      pop\n      mload(0x40)\n      returndatasize\n      not(0x1f)\n      0x1f\n      dup3\n      add\n      and\n      dup3\n      add\n      dup1\n      0x40\n      mstore\n      pop\n      dup2\n      add\n      swap1\n      tag_49\n      swap2\n      swap1\n      tag_19\n      jump\t// in\n    tag_49:\n        /* \"contracts/swap.sol\":2605:2635  address token0 = pool.token0() */\n      swap1\n      pop\n        /* \"contracts/swap.sol\":2646:2660  address token1 */\n      0x00\n        /* \"contracts/swap.sol\":2663:2667  pool */\n      dup3\n        /* \"contracts/swap.sol\":2663:2674  pool.token1 */\n      0xffffffffffffffffffffffffffffffffffffffff\n      and\n      0xd21220a7\n        /* \"contracts/swap.sol\":2663:2676  pool.token1() */\n      mload(0x40)\n      dup2\n      0xffffffff\n      and\n      0xe0\n      shl\n      dup2\n      mstore\n      0x04\n      add\n      0x20\n      mload(0x40)\n      dup1\n      dup4\n      sub\n      dup2\n      dup7\n      gas\n      staticcall\n      iszero\n      dup1\n      iszero\n      tag_51\n      jumpi\n      returndatasize\n      0x00\n      dup1\n      returndatacopy\n      revert(0x00, returndatasize)\n    tag_51:\n      pop\n      pop\n      pop\n      pop\n      mload(0x40)\n      returndatasize\n      not(0x1f)\n      0x1f\n      dup3\n      add\n      and\n      dup3\n      add\n      dup1\n      0x40\n      mstore\n      pop\n      dup2\n      add\n      swap1\n      tag_52\n      swap2\n      swap1\n      tag_19\n      jump\t// in\n    tag_52:\n        /* \"contracts/swap.sol\":2646:2676  address token1 = pool.token1() */\n      swap1\n      pop\n        /* \"contracts/swap.sol\":2705:2711  token0 */\n      dup2\n        /* \"contracts/swap.sol\":2698:2722  IERC20(token0).balanceOf */\n      0xffffffffffffffffffffffffffffffffffffffff\n      and\n      0x70a08231\n        /* \"contracts/swap.sol\":2723:2727  pair */\n      dup8\n        /* \"contracts/swap.sol\":2698:2728  IERC20(token0).balanceOf(pair) */\n      mload(0x40)\n      dup3\n      0xffffffff\n      and\n      0xe0\n      shl\n      dup2\n      mstore\n      0x04\n      add\n      tag_53\n      swap2\n      swap1\n      tag_54\n      jump\t// in\n    tag_53:\n      0x20\n      mload(0x40)\n      dup1\n      dup4\n      sub\n      dup2\n      dup7\n      gas\n      staticcall\n      iszero\n      dup1\n      iszero\n      tag_56\n      jumpi\n      returndatasize\n      0x00\n      dup1\n      returndatacopy\n      revert(0x00, returndatasize)\n    tag_56:\n      pop\n      pop\n      pop\n      pop\n      mload(0x40)\n      returndatasize\n      not(0x1f)\n      0x1f\n      dup3\n      add\n      and\n      dup3\n      add\n      dup1\n      0x40\n      mstore\n      pop\n      dup2\n      add\n      swap1\n      tag_57\n      swap2\n      swap1\n      tag_58\n      jump\t// in\n    tag_57:\n        /* \"contracts/swap.sol\":2687:2728  reserve0 = IERC20(token0).balanceOf(pair) */\n      swap5\n      pop\n        /* \"contracts/swap.sol\":2757:2763  token1 */\n      dup1\n        /* \"contracts/swap.sol\":2750:2774  IERC20(token1).balanceOf */\n      0xffffffffffffffffffffffffffffffffffffffff\n      and\n      0x70a08231\n        /* \"contracts/swap.sol\":2775:2779  pair */\n      dup8\n        /* \"contracts/swap.sol\":2750:2780  IERC20(token1).balanceOf(pair) */\n      mload(0x40)\n      dup3\n      0xffffffff\n      and\n      0xe0\n      shl\n      dup2\n      mstore\n      0x04\n      add\n      tag_59\n      swap2\n      swap1\n      tag_54\n      jump\t// in\n    tag_59:\n      0x20\n      mload(0x40)\n      dup1\n      dup4\n      sub\n      dup2\n      dup7\n      gas\n      staticcall\n      iszero\n      dup1\n      iszero\n      tag_61\n      jumpi\n      returndatasize\n      0x00\n      dup1\n      returndatacopy\n      revert(0x00, returndatasize)\n    tag_61:\n      pop\n      pop\n      pop\n      pop\n      mload(0x40)\n      returndatasize\n      not(0x1f)\n      0x1f\n      dup3\n      add\n      and\n      dup3\n      add\n      dup1\n      0x40\n      mstore\n      pop\n      dup2\n      add\n      swap1\n      tag_62\n      swap2\n      swap1\n      tag_58\n      jump\t// in\n    tag_62:\n        /* \"contracts/swap.sol\":2739:2780  reserve1 = IERC20(token1).balanceOf(pair) */\n      swap4\n      pop\n        /* \"contracts/swap.sol\":2541:2788  {... */\n      pop\n      pop\n      pop\n        /* \"contracts/swap.sol\":2448:2788  function getReservesV2(address pair) public view returns (uint256 reserve0, uint256 reserve1){... */\n      swap2\n      pop\n      swap2\n      jump\t// out\n        /* \"@openzeppelin/contracts/token/ERC20/SafeERC20.sol\":1222:1382  function safeTransfer(IERC20 token, address to, uint256 value) internal {... */\n    tag_31:\n        /* \"@openzeppelin/contracts/token/ERC20/SafeERC20.sol\":1304:1375  _callOptionalReturn(token, abi.encodeCall(token.transfer, (to, value))) */\n      tag_64\n        /* \"@openzeppelin/contracts/token/ERC20/SafeERC20.sol\":1324:1329  token */\n      dup4\n        /* \"@openzeppelin/contracts/token/ERC20/SafeERC20.sol\":1346:1351  token */\n      dup5\n        /* \"@openzeppelin/contracts/token/ERC20/SafeERC20.sol\":1346:1360  token.transfer */\n      0xffffffffffffffffffffffffffffffffffffffff\n      and\n      0xa9059cbb\n        /* \"@openzeppelin/contracts/token/ERC20/SafeERC20.sol\":1363:1365  to */\n      dup6\n        /* \"@openzeppelin/contracts/token/ERC20/SafeERC20.sol\":1367:1372  value */\n      dup6\n        /* \"@openzeppelin/contracts/token/ERC20/SafeERC20.sol\":1331:1374  abi.encodeCall(token.transfer, (to, value)) */\n      add(0x24, mload(0x40))\n      tag_65\n      swap3\n      swap2\n      swap1\n      tag_66\n      jump\t// in\n    tag_65:\n      mload(0x40)\n      0x20\n      dup2\n      dup4\n      sub\n      sub\n      dup2\n      mstore\n      swap1\n      0x40\n      mstore\n      swap2\n      pop\n      0xe0\n      shl\n      0x20\n      dup3\n      add\n      dup1\n      mload\n      0xffffffffffffffffffffffffffffffffffffffffffffffffffffffff\n      dup4\n      dup2\n      dup4\n      and\n      or\n      dup4\n      mstore\n      pop\n      pop\n      pop\n      pop\n        /* \"@openzeppelin/contracts/token/ERC20/SafeERC20.sol\":1304:1323  _callOptionalReturn */\n      tag_67\n        /* \"@openzeppelin/contracts/token/ERC20/SafeERC20.sol\":1304:1375  _callOptionalReturn(token, abi.encodeCall(token.transfer, (to, value))) */\n      jump\t// in\n    tag_64:\n        /* \"@openzeppelin/contracts/token/ERC20/SafeERC20.sol\":1222:1382  function safeTransfer(IERC20 token, address to, uint256 value) internal {... */\n      pop\n      pop\n      pop\n      jump\t// out\n        /* \"contracts/swap.sol\":1805:2440  function getAmountOut(... */\n    tag_34:\n        /* \"contracts/swap.sol\":1941:1958  uint256 amountOut */\n      0x00\n        /* \"contracts/swap.sol\":1990:1991  0 */\n      dup1\n        /* \"contracts/swap.sol\":1979:1987  amountIn */\n      dup5\n        /* \"contracts/swap.sol\":1979:1991  amountIn > 0 */\n      gt\n        /* \"contracts/swap.sol\":1971:2039  require(amountIn > 0, 'UniswapV2Library: INSUFFICIENT_INPUT_AMOUNT') */\n      tag_69\n      jumpi\n      mload(0x40)\n      0x08c379a000000000000000000000000000000000000000000000000000000000\n      dup2\n      mstore\n      0x04\n      add\n      tag_70\n      swap1\n      tag_71\n      jump\t// in\n    tag_70:\n      mload(0x40)\n      dup1\n      swap2\n      sub\n      swap1\n      revert\n    tag_69:\n        /* \"contracts/swap.sol\":2070:2071  0 */\n      0x00\n        /* \"contracts/swap.sol\":2058:2067  reserveIn */\n      dup4\n        /* \"contracts/swap.sol\":2058:2071  reserveIn > 0 */\n      gt\n        /* \"contracts/swap.sol\":2058:2089  reserveIn > 0 && reserveOut > 0 */\n      dup1\n      iszero\n      tag_72\n      jumpi\n      pop\n        /* \"contracts/swap.sol\":2088:2089  0 */\n      0x00\n        /* \"contracts/swap.sol\":2075:2085  reserveOut */\n      dup3\n        /* \"contracts/swap.sol\":2075:2089  reserveOut > 0 */\n      gt\n        /* \"contracts/swap.sol\":2058:2089  reserveIn > 0 && reserveOut > 0 */\n    tag_72:\n        /* \"contracts/swap.sol\":2050:2134  require(reserveIn > 0 && reserveOut > 0, 'UniswapV2Library: INSUFFICIENT_LIQUIDITY') */\n      tag_73\n      jumpi\n      mload(0x40)\n      0x08c379a000000000000000000000000000000000000000000000000000000000\n      dup2\n      mstore\n      0x04\n      add\n      tag_74\n      swap1\n      tag_75\n      jump\t// in\n    tag_74:\n      mload(0x40)\n      dup1\n      swap2\n      sub\n      swap1\n      revert\n    tag_73:\n        /* \"contracts/swap.sol\":2145:2168  uint256 amountInWithFee */\n      0x00\n        /* \"contracts/swap.sol\":2182:2185  997 */\n      0x03e5\n        /* \"contracts/swap.sol\":2171:2179  amountIn */\n      dup6\n        /* \"contracts/swap.sol\":2171:2185  amountIn * 997 */\n      tag_76\n      swap2\n      swap1\n      tag_77\n      jump\t// in\n    tag_76:\n        /* \"contracts/swap.sol\":2145:2185  uint256 amountInWithFee = amountIn * 997 */\n      swap1\n      pop\n        /* \"contracts/swap.sol\":2221:2238  uint256 numerator */\n      0x00\n        /* \"contracts/swap.sol\":2259:2269  reserveOut */\n      dup4\n        /* \"contracts/swap.sol\":2241:2256  amountInWithFee */\n      dup3\n        /* \"contracts/swap.sol\":2241:2269  amountInWithFee * reserveOut */\n      tag_78\n      swap2\n      swap1\n      tag_77\n      jump\t// in\n    tag_78:\n        /* \"contracts/swap.sol\":2221:2269  uint256 numerator = amountInWithFee * reserveOut */\n      swap1\n      pop\n        /* \"contracts/swap.sol\":2305:2324  uint256 denominator */\n      0x00\n        /* \"contracts/swap.sol\":2346:2361  amountInWithFee */\n      dup3\n        /* \"contracts/swap.sol\":2339:2343  1000 */\n      0x03e8\n        /* \"contracts/swap.sol\":2327:2336  reserveIn */\n      dup8\n        /* \"contracts/swap.sol\":2327:2343  reserveIn * 1000 */\n      tag_79\n      swap2\n      swap1\n      tag_77\n      jump\t// in\n    tag_79:\n        /* \"contracts/swap.sol\":2327:2361  reserveIn * 1000 + amountInWithFee */\n      tag_80\n      swap2\n      swap1\n      tag_81\n      jump\t// in\n    tag_80:\n        /* \"contracts/swap.sol\":2305:2361  uint256 denominator = reserveIn * 1000 + amountInWithFee */\n      swap1\n      pop\n        /* \"contracts/swap.sol\":2421:2432  denominator */\n      dup1\n        /* \"contracts/swap.sol\":2409:2418  numerator */\n      dup3\n        /* \"contracts/swap.sol\":2409:2432  numerator / denominator */\n      tag_82\n      swap2\n      swap1\n      tag_83\n      jump\t// in\n    tag_82:\n        /* \"contracts/swap.sol\":2397:2432  amountOut = numerator / denominator */\n      swap4\n      pop\n        /* \"contracts/swap.sol\":1960:2440  {... */\n      pop\n      pop\n      pop\n        /* \"contracts/swap.sol\":1805:2440  function getAmountOut(... */\n      swap4\n      swap3\n      pop\n      pop\n      pop\n      jump\t// out\n        /* \"@openzeppelin/contracts/token/ERC20/SafeERC20.sol\":7689:8409  function _callOptionalReturn(IERC20 token, bytes memory data) private {... */\n    tag_67:\n        /* \"@openzeppelin/contracts/token/ERC20/SafeERC20.sol\":7769:7787  uint256 returnSize */\n      0x00\n        /* \"@openzeppelin/contracts/token/ERC20/SafeERC20.sol\":7797:7816  uint256 returnValue */\n      dup1\n        /* \"@openzeppelin/contracts/token/ERC20/SafeERC20.sol\":7935:7939  0x20 */\n      0x20\n        /* \"@openzeppelin/contracts/token/ERC20/SafeERC20.sol\":7932:7933  0 */\n      0x00\n        /* \"@openzeppelin/contracts/token/ERC20/SafeERC20.sol\":7925:7929  data */\n      dup5\n        /* \"@openzeppelin/contracts/token/ERC20/SafeERC20.sol\":7919:7930  mload(data) */\n      mload\n        /* \"@openzeppelin/contracts/token/ERC20/SafeERC20.sol\":7912:7916  0x20 */\n      0x20\n        /* \"@openzeppelin/contracts/token/ERC20/SafeERC20.sol\":7906:7910  data */\n      dup7\n        /* \"@openzeppelin/contracts/token/ERC20/SafeERC20.sol\":7902:7917  add(data, 0x20) */\n      add\n        /* \"@openzeppelin/contracts/token/ERC20/SafeERC20.sol\":7899:7900  0 */\n      0x00\n        /* \"@openzeppelin/contracts/token/ERC20/SafeERC20.sol\":7892:7897  token */\n      dup9\n        /* \"@openzeppelin/contracts/token/ERC20/SafeERC20.sol\":7885:7890  gas() */\n      gas\n        /* \"@openzeppelin/contracts/token/ERC20/SafeERC20.sol\":7880:7940  call(gas(), token, 0, add(data, 0x20), mload(data), 0, 0x20) */\n      call\n        /* \"@openzeppelin/contracts/token/ERC20/SafeERC20.sol\":7992:7999  success */\n      dup1\n        /* \"@openzeppelin/contracts/token/ERC20/SafeERC20.sol\":7982:8158  if iszero(success) {... */\n      tag_85\n      jumpi\n        /* \"@openzeppelin/contracts/token/ERC20/SafeERC20.sol\":8036:8040  0x40 */\n      0x40\n        /* \"@openzeppelin/contracts/token/ERC20/SafeERC20.sol\":8030:8041  mload(0x40) */\n      mload\n        /* \"@openzeppelin/contracts/token/ERC20/SafeERC20.sol\":8081:8097  returndatasize() */\n      returndatasize\n        /* \"@openzeppelin/contracts/token/ERC20/SafeERC20.sol\":8078:8079  0 */\n      0x00\n        /* \"@openzeppelin/contracts/token/ERC20/SafeERC20.sol\":8073:8076  ptr */\n      dup3\n        /* \"@openzeppelin/contracts/token/ERC20/SafeERC20.sol\":8058:8098  returndatacopy(ptr, 0, returndatasize()) */\n      returndatacopy\n        /* \"@openzeppelin/contracts/token/ERC20/SafeERC20.sol\":8127:8143  returndatasize() */\n      returndatasize\n        /* \"@openzeppelin/contracts/token/ERC20/SafeERC20.sol\":8122:8125  ptr */\n      dup2\n        /* \"@openzeppelin/contracts/token/ERC20/SafeERC20.sol\":8115:8144  revert(ptr, returndatasize()) */\n      revert\n        /* \"@openzeppelin/contracts/token/ERC20/SafeERC20.sol\":7982:8158  if iszero(success) {... */\n    tag_85:\n        /* \"@openzeppelin/contracts/token/ERC20/SafeERC20.sol\":8185:8201  returndatasize() */\n      returndatasize\n        /* \"@openzeppelin/contracts/token/ERC20/SafeERC20.sol\":8171:8201  returnSize := returndatasize() */\n      swap3\n      pop\n        /* \"@openzeppelin/contracts/token/ERC20/SafeERC20.sol\":8235:8236  0 */\n      0x00\n        /* \"@openzeppelin/contracts/token/ERC20/SafeERC20.sol\":8229:8237  mload(0) */\n      mload\n        /* \"@openzeppelin/contracts/token/ERC20/SafeERC20.sol\":8214:8237  returnValue := mload(0) */\n      swap2\n      pop\n        /* \"@openzeppelin/contracts/token/ERC20/SafeERC20.sol\":7851:8247  {... */\n      pop\n        /* \"@openzeppelin/contracts/token/ERC20/SafeERC20.sol\":8275:8276  0 */\n      0x00\n        /* \"@openzeppelin/contracts/token/ERC20/SafeERC20.sol\":8261:8271  returnSize */\n      dup3\n        /* \"@openzeppelin/contracts/token/ERC20/SafeERC20.sol\":8261:8276  returnSize == 0 */\n      eq\n        /* \"@openzeppelin/contracts/token/ERC20/SafeERC20.sol\":8261:8329  returnSize == 0 ? address(token).code.length == 0 : returnValue != 1 */\n      tag_86\n      jumpi\n        /* \"@openzeppelin/contracts/token/ERC20/SafeERC20.sol\":8328:8329  1 */\n      0x01\n        /* \"@openzeppelin/contracts/token/ERC20/SafeERC20.sol\":8313:8324  returnValue */\n      dup2\n        /* \"@openzeppelin/contracts/token/ERC20/SafeERC20.sol\":8313:8329  returnValue != 1 */\n      eq\n      iszero\n        /* \"@openzeppelin/contracts/token/ERC20/SafeERC20.sol\":8261:8329  returnSize == 0 ? address(token).code.length == 0 : returnValue != 1 */\n      jump(tag_87)\n    tag_86:\n        /* \"@openzeppelin/contracts/token/ERC20/SafeERC20.sol\":8309:8310  0 */\n      0x00\n        /* \"@openzeppelin/contracts/token/ERC20/SafeERC20.sol\":8287:8292  token */\n      dup5\n        /* \"@openzeppelin/contracts/token/ERC20/SafeERC20.sol\":8279:8305  address(token).code.length */\n      0xffffffffffffffffffffffffffffffffffffffff\n      and\n      extcodesize\n        /* \"@openzeppelin/contracts/token/ERC20/SafeERC20.sol\":8279:8310  address(token).code.length == 0 */\n      eq\n        /* \"@openzeppelin/contracts/token/ERC20/SafeERC20.sol\":8261:8329  returnSize == 0 ? address(token).code.length == 0 : returnValue != 1 */\n    tag_87:\n        /* \"@openzeppelin/contracts/token/ERC20/SafeERC20.sol\":8257:8403  if (returnSize == 0 ? address(token).code.length == 0 : returnValue != 1) {... */\n      iszero\n      tag_88\n      jumpi\n        /* \"@openzeppelin/contracts/token/ERC20/SafeERC20.sol\":8385:8390  token */\n      dup4\n        /* \"@openzeppelin/contracts/token/ERC20/SafeERC20.sol\":8352:8392  SafeERC20FailedOperation(address(token)) */\n      mload(0x40)\n      0x5274afe700000000000000000000000000000000000000000000000000000000\n      dup2\n      mstore\n      0x04\n      add\n      tag_89\n      swap2\n      swap1\n      tag_54\n      jump\t// in\n    tag_89:\n      mload(0x40)\n      dup1\n      swap2\n      sub\n      swap1\n      revert\n        /* \"@openzeppelin/contracts/token/ERC20/SafeERC20.sol\":8257:8403  if (returnSize == 0 ? address(token).code.length == 0 : returnValue != 1) {... */\n    tag_88:\n        /* \"@openzeppelin/contracts/token/ERC20/SafeERC20.sol\":7759:8409  {... */\n      pop\n      pop\n        /* \"@openzeppelin/contracts/token/ERC20/SafeERC20.sol\":7689:8409  function _callOptionalReturn(IERC20 token, bytes memory data) private {... */\n      pop\n      pop\n      jump\t// out\n        /* \"#utility.yul\":88:205   */\n    tag_91:\n        /* \"#utility.yul\":197:198   */\n      0x00\n        /* \"#utility.yul\":194:195   */\n      dup1\n        /* \"#utility.yul\":187:199   */\n      revert\n        /* \"#utility.yul\":334:460   */\n    tag_93:\n        /* \"#utility.yul\":371:378   */\n      0x00\n        /* \"#utility.yul\":411:453   */\n      0xffffffffffffffffffffffffffffffffffffffff\n        /* \"#utility.yul\":404:409   */\n      dup3\n        /* \"#utility.yul\":400:454   */\n      and\n        /* \"#utility.yul\":389:454   */\n      swap1\n      pop\n        /* \"#utility.yul\":334:460   */\n      swap2\n      swap1\n      pop\n      jump\t// out\n        /* \"#utility.yul\":466:562   */\n    tag_94:\n        /* \"#utility.yul\":503:510   */\n      0x00\n        /* \"#utility.yul\":532:556   */\n      tag_124\n        /* \"#utility.yul\":550:555   */\n      dup3\n        /* \"#utility.yul\":532:556   */\n      tag_93\n      jump\t// in\n    tag_124:\n        /* \"#utility.yul\":521:556   */\n      swap1\n      pop\n        /* \"#utility.yul\":466:562   */\n      swap2\n      swap1\n      pop\n      jump\t// out\n        /* \"#utility.yul\":568:690   */\n    tag_95:\n        /* \"#utility.yul\":641:665   */\n      tag_126\n        /* \"#utility.yul\":659:664   */\n      dup2\n        /* \"#utility.yul\":641:665   */\n      tag_94\n      jump\t// in\n    tag_126:\n        /* \"#utility.yul\":634:639   */\n      dup2\n        /* \"#utility.yul\":631:666   */\n      eq\n        /* \"#utility.yul\":621:684   */\n      tag_127\n      jumpi\n        /* \"#utility.yul\":680:681   */\n      0x00\n        /* \"#utility.yul\":677:678   */\n      dup1\n        /* \"#utility.yul\":670:682   */\n      revert\n        /* \"#utility.yul\":621:684   */\n    tag_127:\n        /* \"#utility.yul\":568:690   */\n      pop\n      jump\t// out\n        /* \"#utility.yul\":696:835   */\n    tag_96:\n        /* \"#utility.yul\":742:747   */\n      0x00\n        /* \"#utility.yul\":780:786   */\n      dup2\n        /* \"#utility.yul\":767:787   */\n      calldataload\n        /* \"#utility.yul\":758:787   */\n      swap1\n      pop\n        /* \"#utility.yul\":796:829   */\n      tag_129\n        /* \"#utility.yul\":823:828   */\n      dup2\n        /* \"#utility.yul\":796:829   */\n      tag_95\n      jump\t// in\n    tag_129:\n        /* \"#utility.yul\":696:835   */\n      swap3\n      swap2\n      pop\n      pop\n      jump\t// out\n        /* \"#utility.yul\":841:918   */\n    tag_97:\n        /* \"#utility.yul\":878:885   */\n      0x00\n        /* \"#utility.yul\":907:912   */\n      dup2\n        /* \"#utility.yul\":896:912   */\n      swap1\n      pop\n        /* \"#utility.yul\":841:918   */\n      swap2\n      swap1\n      pop\n      jump\t// out\n        /* \"#utility.yul\":924:1046   */\n    tag_98:\n        /* \"#utility.yul\":997:1021   */\n      tag_132\n        /* \"#utility.yul\":1015:1020   */\n      dup2\n        /* \"#utility.yul\":997:1021   */\n      tag_97\n      jump\t// in\n    tag_132:\n        /* \"#utility.yul\":990:995   */\n      dup2\n        /* \"#utility.yul\":987:1022   */\n      eq\n        /* \"#utility.yul\":977:1040   */\n      tag_133\n      jumpi\n        /* \"#utility.yul\":1036:1037   */\n      0x00\n        /* \"#utility.yul\":1033:1034   */\n      dup1\n        /* \"#utility.yul\":1026:1038   */\n      revert\n        /* \"#utility.yul\":977:1040   */\n    tag_133:\n        /* \"#utility.yul\":924:1046   */\n      pop\n      jump\t// out\n        /* \"#utility.yul\":1052:1191   */\n    tag_99:\n        /* \"#utility.yul\":1098:1103   */\n      0x00\n        /* \"#utility.yul\":1136:1142   */\n      dup2\n        /* \"#utility.yul\":1123:1143   */\n      calldataload\n        /* \"#utility.yul\":1114:1143   */\n      swap1\n      pop\n        /* \"#utility.yul\":1152:1185   */\n      tag_135\n        /* \"#utility.yul\":1179:1184   */\n      dup2\n        /* \"#utility.yul\":1152:1185   */\n      tag_98\n      jump\t// in\n    tag_135:\n        /* \"#utility.yul\":1052:1191   */\n      swap3\n      swap2\n      pop\n      pop\n      jump\t// out\n        /* \"#utility.yul\":1197:1816   */\n    tag_7:\n        /* \"#utility.yul\":1274:1280   */\n      0x00\n        /* \"#utility.yul\":1282:1288   */\n      dup1\n        /* \"#utility.yul\":1290:1296   */\n      0x00\n        /* \"#utility.yul\":1339:1341   */\n      0x60\n        /* \"#utility.yul\":1327:1336   */\n      dup5\n        /* \"#utility.yul\":1318:1325   */\n      dup7\n        /* \"#utility.yul\":1314:1337   */\n      sub\n        /* \"#utility.yul\":1310:1342   */\n      slt\n        /* \"#utility.yul\":1307:1426   */\n      iszero\n      tag_137\n      jumpi\n        /* \"#utility.yul\":1345:1424   */\n      tag_138\n      tag_91\n      jump\t// in\n    tag_138:\n        /* \"#utility.yul\":1307:1426   */\n    tag_137:\n        /* \"#utility.yul\":1465:1466   */\n      0x00\n        /* \"#utility.yul\":1490:1543   */\n      tag_139\n        /* \"#utility.yul\":1535:1542   */\n      dup7\n        /* \"#utility.yul\":1526:1532   */\n      dup3\n        /* \"#utility.yul\":1515:1524   */\n      dup8\n        /* \"#utility.yul\":1511:1533   */\n      add\n        /* \"#utility.yul\":1490:1543   */\n      tag_96\n      jump\t// in\n    tag_139:\n        /* \"#utility.yul\":1480:1543   */\n      swap4\n      pop\n        /* \"#utility.yul\":1436:1553   */\n      pop\n        /* \"#utility.yul\":1592:1594   */\n      0x20\n        /* \"#utility.yul\":1618:1671   */\n      tag_140\n        /* \"#utility.yul\":1663:1670   */\n      dup7\n        /* \"#utility.yul\":1654:1660   */\n      dup3\n        /* \"#utility.yul\":1643:1652   */\n      dup8\n        /* \"#utility.yul\":1639:1661   */\n      add\n        /* \"#utility.yul\":1618:1671   */\n      tag_96\n      jump\t// in\n    tag_140:\n        /* \"#utility.yul\":1608:1671   */\n      swap3\n      pop\n        /* \"#utility.yul\":1563:1681   */\n      pop\n        /* \"#utility.yul\":1720:1722   */\n      0x40\n        /* \"#utility.yul\":1746:1799   */\n      tag_141\n        /* \"#utility.yul\":1791:1798   */\n      dup7\n        /* \"#utility.yul\":1782:1788   */\n      dup3\n        /* \"#utility.yul\":1771:1780   */\n      dup8\n        /* \"#utility.yul\":1767:1789   */\n      add\n        /* \"#utility.yul\":1746:1799   */\n      tag_99\n      jump\t// in\n    tag_141:\n        /* \"#utility.yul\":1736:1799   */\n      swap2\n      pop\n        /* \"#utility.yul\":1691:1809   */\n      pop\n        /* \"#utility.yul\":1197:1816   */\n      swap3\n      pop\n      swap3\n      pop\n      swap3\n      jump\t// out\n        /* \"#utility.yul\":1822:2151   */\n    tag_11:\n        /* \"#utility.yul\":1881:1887   */\n      0x00\n        /* \"#utility.yul\":1930:1932   */\n      0x20\n        /* \"#utility.yul\":1918:1927   */\n      dup3\n        /* \"#utility.yul\":1909:1916   */\n      dup5\n        /* \"#utility.yul\":1905:1928   */\n      sub\n        /* \"#utility.yul\":1901:1933   */\n      slt\n        /* \"#utility.yul\":1898:2017   */\n      iszero\n      tag_143\n      jumpi\n        /* \"#utility.yul\":1936:2015   */\n      tag_144\n      tag_91\n      jump\t// in\n    tag_144:\n        /* \"#utility.yul\":1898:2017   */\n    tag_143:\n        /* \"#utility.yul\":2056:2057   */\n      0x00\n        /* \"#utility.yul\":2081:2134   */\n      tag_145\n        /* \"#utility.yul\":2126:2133   */\n      dup5\n        /* \"#utility.yul\":2117:2123   */\n      dup3\n        /* \"#utility.yul\":2106:2115   */\n      dup6\n        /* \"#utility.yul\":2102:2124   */\n      add\n        /* \"#utility.yul\":2081:2134   */\n      tag_96\n      jump\t// in\n    tag_145:\n        /* \"#utility.yul\":2071:2134   */\n      swap2\n      pop\n        /* \"#utility.yul\":2027:2144   */\n      pop\n        /* \"#utility.yul\":1822:2151   */\n      swap3\n      swap2\n      pop\n      pop\n      jump\t// out\n        /* \"#utility.yul\":2157:2275   */\n    tag_100:\n        /* \"#utility.yul\":2244:2268   */\n      tag_147\n        /* \"#utility.yul\":2262:2267   */\n      dup2\n        /* \"#utility.yul\":2244:2268   */\n      tag_97\n      jump\t// in\n    tag_147:\n        /* \"#utility.yul\":2239:2242   */\n      dup3\n        /* \"#utility.yul\":2232:2269   */\n      mstore\n        /* \"#utility.yul\":2157:2275   */\n      pop\n      pop\n      jump\t// out\n        /* \"#utility.yul\":2281:2613   */\n    tag_14:\n        /* \"#utility.yul\":2402:2406   */\n      0x00\n        /* \"#utility.yul\":2440:2442   */\n      0x40\n        /* \"#utility.yul\":2429:2438   */\n      dup3\n        /* \"#utility.yul\":2425:2443   */\n      add\n        /* \"#utility.yul\":2417:2443   */\n      swap1\n      pop\n        /* \"#utility.yul\":2453:2524   */\n      tag_149\n        /* \"#utility.yul\":2521:2522   */\n      0x00\n        /* \"#utility.yul\":2510:2519   */\n      dup4\n        /* \"#utility.yul\":2506:2523   */\n      add\n        /* \"#utility.yul\":2497:2503   */\n      dup6\n        /* \"#utility.yul\":2453:2524   */\n      tag_100\n      jump\t// in\n    tag_149:\n        /* \"#utility.yul\":2534:2606   */\n      tag_150\n        /* \"#utility.yul\":2602:2604   */\n      0x20\n        /* \"#utility.yul\":2591:2600   */\n      dup4\n        /* \"#utility.yul\":2587:2605   */\n      add\n        /* \"#utility.yul\":2578:2584   */\n      dup5\n        /* \"#utility.yul\":2534:2606   */\n      tag_100\n      jump\t// in\n    tag_150:\n        /* \"#utility.yul\":2281:2613   */\n      swap4\n      swap3\n      pop\n      pop\n      pop\n      jump\t// out\n        /* \"#utility.yul\":2619:2762   */\n    tag_101:\n        /* \"#utility.yul\":2676:2681   */\n      0x00\n        /* \"#utility.yul\":2707:2713   */\n      dup2\n        /* \"#utility.yul\":2701:2714   */\n      mload\n        /* \"#utility.yul\":2692:2714   */\n      swap1\n      pop\n        /* \"#utility.yul\":2723:2756   */\n      tag_152\n        /* \"#utility.yul\":2750:2755   */\n      dup2\n        /* \"#utility.yul\":2723:2756   */\n      tag_95\n      jump\t// in\n    tag_152:\n        /* \"#utility.yul\":2619:2762   */\n      swap3\n      swap2\n      pop\n      pop\n      jump\t// out\n        /* \"#utility.yul\":2768:3119   */\n    tag_19:\n        /* \"#utility.yul\":2838:2844   */\n      0x00\n        /* \"#utility.yul\":2887:2889   */\n      0x20\n        /* \"#utility.yul\":2875:2884   */\n      dup3\n        /* \"#utility.yul\":2866:2873   */\n      dup5\n        /* \"#utility.yul\":2862:2885   */\n      sub\n        /* \"#utility.yul\":2858:2890   */\n      slt\n        /* \"#utility.yul\":2855:2974   */\n      iszero\n      tag_154\n      jumpi\n        /* \"#utility.yul\":2893:2972   */\n      tag_155\n      tag_91\n      jump\t// in\n    tag_155:\n        /* \"#utility.yul\":2855:2974   */\n    tag_154:\n        /* \"#utility.yul\":3013:3014   */\n      0x00\n        /* \"#utility.yul\":3038:3102   */\n      tag_156\n        /* \"#utility.yul\":3094:3101   */\n      dup5\n        /* \"#utility.yul\":3085:3091   */\n      dup3\n        /* \"#utility.yul\":3074:3083   */\n      dup6\n        /* \"#utility.yul\":3070:3092   */\n      add\n        /* \"#utility.yul\":3038:3102   */\n      tag_101\n      jump\t// in\n    tag_156:\n        /* \"#utility.yul\":3028:3102   */\n      swap2\n      pop\n        /* \"#utility.yul\":2984:3112   */\n      pop\n        /* \"#utility.yul\":2768:3119   */\n      swap3\n      swap2\n      pop\n      pop\n      jump\t// out\n        /* \"#utility.yul\":3125:3294   */\n    tag_102:\n        /* \"#utility.yul\":3209:3220   */\n      0x00\n        /* \"#utility.yul\":3243:3249   */\n      dup3\n        /* \"#utility.yul\":3238:3241   */\n      dup3\n        /* \"#utility.yul\":3231:3250   */\n      mstore\n        /* \"#utility.yul\":3283:3287   */\n      0x20\n        /* \"#utility.yul\":3278:3281   */\n      dup3\n        /* \"#utility.yul\":3274:3288   */\n      add\n        /* \"#utility.yul\":3259:3288   */\n      swap1\n      pop\n        /* \"#utility.yul\":3125:3294   */\n      swap3\n      swap2\n      pop\n      pop\n      jump\t// out\n        /* \"#utility.yul\":3300:3466   */\n    tag_103:\n        /* \"#utility.yul\":3440:3458   */\n      0x4e6f20746f6b656e20696e207061697200000000000000000000000000000000\n        /* \"#utility.yul\":3436:3437   */\n      0x00\n        /* \"#utility.yul\":3428:3434   */\n      dup3\n        /* \"#utility.yul\":3424:3438   */\n      add\n        /* \"#utility.yul\":3417:3459   */\n      mstore\n        /* \"#utility.yul\":3300:3466   */\n      pop\n      jump\t// out\n        /* \"#utility.yul\":3472:3838   */\n    tag_104:\n        /* \"#utility.yul\":3614:3617   */\n      0x00\n        /* \"#utility.yul\":3635:3702   */\n      tag_160\n        /* \"#utility.yul\":3699:3701   */\n      0x10\n        /* \"#utility.yul\":3694:3697   */\n      dup4\n        /* \"#utility.yul\":3635:3702   */\n      tag_102\n      jump\t// in\n    tag_160:\n        /* \"#utility.yul\":3628:3702   */\n      swap2\n      pop\n        /* \"#utility.yul\":3711:3804   */\n      tag_161\n        /* \"#utility.yul\":3800:3803   */\n      dup3\n        /* \"#utility.yul\":3711:3804   */\n      tag_103\n      jump\t// in\n    tag_161:\n        /* \"#utility.yul\":3829:3831   */\n      0x20\n        /* \"#utility.yul\":3824:3827   */\n      dup3\n        /* \"#utility.yul\":3820:3832   */\n      add\n        /* \"#utility.yul\":3813:3832   */\n      swap1\n      pop\n        /* \"#utility.yul\":3472:3838   */\n      swap2\n      swap1\n      pop\n      jump\t// out\n        /* \"#utility.yul\":3844:4263   */\n    tag_27:\n        /* \"#utility.yul\":4010:4014   */\n      0x00\n        /* \"#utility.yul\":4048:4050   */\n      0x20\n        /* \"#utility.yul\":4037:4046   */\n      dup3\n        /* \"#utility.yul\":4033:4051   */\n      add\n        /* \"#utility.yul\":4025:4051   */\n      swap1\n      pop\n        /* \"#utility.yul\":4097:4106   */\n      dup2\n        /* \"#utility.yul\":4091:4095   */\n      dup2\n        /* \"#utility.yul\":4087:4107   */\n      sub\n        /* \"#utility.yul\":4083:4084   */\n      0x00\n        /* \"#utility.yul\":4072:4081   */\n      dup4\n        /* \"#utility.yul\":4068:4085   */\n      add\n        /* \"#utility.yul\":4061:4108   */\n      mstore\n        /* \"#utility.yul\":4125:4256   */\n      tag_163\n        /* \"#utility.yul\":4251:4255   */\n      dup2\n        /* \"#utility.yul\":4125:4256   */\n      tag_104\n      jump\t// in\n    tag_163:\n        /* \"#utility.yul\":4117:4256   */\n      swap1\n      pop\n        /* \"#utility.yul\":3844:4263   */\n      swap2\n      swap1\n      pop\n      jump\t// out\n        /* \"#utility.yul\":4269:4449   */\n    tag_39:\n        /* \"#utility.yul\":4317:4394   */\n      0x4e487b7100000000000000000000000000000000000000000000000000000000\n        /* \"#utility.yul\":4314:4315   */\n      0x00\n        /* \"#utility.yul\":4307:4395   */\n      mstore\n        /* \"#utility.yul\":4414:4418   */\n      0x41\n        /* \"#utility.yul\":4411:4412   */\n      0x04\n        /* \"#utility.yul\":4404:4419   */\n      mstore\n        /* \"#utility.yul\":4438:4442   */\n      0x24\n        /* \"#utility.yul\":4435:4436   */\n      0x00\n        /* \"#utility.yul\":4428:4443   */\n      revert\n        /* \"#utility.yul\":4455:4573   */\n    tag_105:\n        /* \"#utility.yul\":4542:4566   */\n      tag_166\n        /* \"#utility.yul\":4560:4565   */\n      dup2\n        /* \"#utility.yul\":4542:4566   */\n      tag_94\n      jump\t// in\n    tag_166:\n        /* \"#utility.yul\":4537:4540   */\n      dup3\n        /* \"#utility.yul\":4530:4567   */\n      mstore\n        /* \"#utility.yul\":4455:4573   */\n      pop\n      pop\n      jump\t// out\n        /* \"#utility.yul\":4579:4677   */\n    tag_106:\n        /* \"#utility.yul\":4630:4636   */\n      0x00\n        /* \"#utility.yul\":4664:4669   */\n      dup2\n        /* \"#utility.yul\":4658:4670   */\n      mload\n        /* \"#utility.yul\":4648:4670   */\n      swap1\n      pop\n        /* \"#utility.yul\":4579:4677   */\n      swap2\n      swap1\n      pop\n      jump\t// out\n        /* \"#utility.yul\":4683:4851   */\n    tag_107:\n        /* \"#utility.yul\":4766:4777   */\n      0x00\n        /* \"#utility.yul\":4800:4806   */\n      dup3\n        /* \"#utility.yul\":4795:4798   */\n      dup3\n        /* \"#utility.yul\":4788:4807   */\n      mstore\n        /* \"#utility.yul\":4840:4844   */\n      0x20\n        /* \"#utility.yul\":4835:4838   */\n      dup3\n        /* \"#utility.yul\":4831:4845   */\n      add\n        /* \"#utility.yul\":4816:4845   */\n      swap1\n      pop\n        /* \"#utility.yul\":4683:4851   */\n      swap3\n      swap2\n      pop\n      pop\n      jump\t// out\n        /* \"#utility.yul\":4857:4996   */\n    tag_108:\n        /* \"#utility.yul\":4946:4952   */\n      dup3\n        /* \"#utility.yul\":4941:4944   */\n      dup2\n        /* \"#utility.yul\":4936:4939   */\n      dup4\n        /* \"#utility.yul\":4930:4953   */\n      mcopy\n        /* \"#utility.yul\":4987:4988   */\n      0x00\n        /* \"#utility.yul\":4978:4984   */\n      dup4\n        /* \"#utility.yul\":4973:4976   */\n      dup4\n        /* \"#utility.yul\":4969:4985   */\n      add\n        /* \"#utility.yul\":4962:4989   */\n      mstore\n        /* \"#utility.yul\":4857:4996   */\n      pop\n      pop\n      pop\n      jump\t// out\n        /* \"#utility.yul\":5002:5104   */\n    tag_109:\n        /* \"#utility.yul\":5043:5049   */\n      0x00\n        /* \"#utility.yul\":5094:5096   */\n      0x1f\n        /* \"#utility.yul\":5090:5097   */\n      not\n        /* \"#utility.yul\":5085:5087   */\n      0x1f\n        /* \"#utility.yul\":5078:5083   */\n      dup4\n        /* \"#utility.yul\":5074:5088   */\n      add\n        /* \"#utility.yul\":5070:5098   */\n      and\n        /* \"#utility.yul\":5060:5098   */\n      swap1\n      pop\n        /* \"#utility.yul\":5002:5104   */\n      swap2\n      swap1\n      pop\n      jump\t// out\n        /* \"#utility.yul\":5110:5483   */\n    tag_110:\n        /* \"#utility.yul\":5196:5199   */\n      0x00\n        /* \"#utility.yul\":5224:5262   */\n      tag_172\n        /* \"#utility.yul\":5256:5261   */\n      dup3\n        /* \"#utility.yul\":5224:5262   */\n      tag_106\n      jump\t// in\n    tag_172:\n        /* \"#utility.yul\":5278:5348   */\n      tag_173\n        /* \"#utility.yul\":5341:5347   */\n      dup2\n        /* \"#utility.yul\":5336:5339   */\n      dup6\n        /* \"#utility.yul\":5278:5348   */\n      tag_107\n      jump\t// in\n    tag_173:\n        /* \"#utility.yul\":5271:5348   */\n      swap4\n      pop\n        /* \"#utility.yul\":5357:5422   */\n      tag_174\n        /* \"#utility.yul\":5415:5421   */\n      dup2\n        /* \"#utility.yul\":5410:5413   */\n      dup6\n        /* \"#utility.yul\":5403:5407   */\n      0x20\n        /* \"#utility.yul\":5396:5401   */\n      dup7\n        /* \"#utility.yul\":5392:5408   */\n      add\n        /* \"#utility.yul\":5357:5422   */\n      tag_108\n      jump\t// in\n    tag_174:\n        /* \"#utility.yul\":5447:5476   */\n      tag_175\n        /* \"#utility.yul\":5469:5475   */\n      dup2\n        /* \"#utility.yul\":5447:5476   */\n      tag_109\n      jump\t// in\n    tag_175:\n        /* \"#utility.yul\":5442:5445   */\n      dup5\n        /* \"#utility.yul\":5438:5477   */\n      add\n        /* \"#utility.yul\":5431:5477   */\n      swap2\n      pop\n        /* \"#utility.yul\":5200:5483   */\n      pop\n        /* \"#utility.yul\":5110:5483   */\n      swap3\n      swap2\n      pop\n      pop\n      jump\t// out\n        /* \"#utility.yul\":5489:6129   */\n    tag_42:\n        /* \"#utility.yul\":5684:5688   */\n      0x00\n        /* \"#utility.yul\":5722:5725   */\n      0x80\n        /* \"#utility.yul\":5711:5720   */\n      dup3\n        /* \"#utility.yul\":5707:5726   */\n      add\n        /* \"#utility.yul\":5699:5726   */\n      swap1\n      pop\n        /* \"#utility.yul\":5736:5807   */\n      tag_177\n        /* \"#utility.yul\":5804:5805   */\n      0x00\n        /* \"#utility.yul\":5793:5802   */\n      dup4\n        /* \"#utility.yul\":5789:5806   */\n      add\n        /* \"#utility.yul\":5780:5786   */\n      dup8\n        /* \"#utility.yul\":5736:5807   */\n      tag_100\n      jump\t// in\n    tag_177:\n        /* \"#utility.yul\":5817:5889   */\n      tag_178\n        /* \"#utility.yul\":5885:5887   */\n      0x20\n        /* \"#utility.yul\":5874:5883   */\n      dup4\n        /* \"#utility.yul\":5870:5888   */\n      add\n        /* \"#utility.yul\":5861:5867   */\n      dup7\n        /* \"#utility.yul\":5817:5889   */\n      tag_100\n      jump\t// in\n    tag_178:\n        /* \"#utility.yul\":5899:5971   */\n      tag_179\n        /* \"#utility.yul\":5967:5969   */\n      0x40\n        /* \"#utility.yul\":5956:5965   */\n      dup4\n        /* \"#utility.yul\":5952:5970   */\n      add\n        /* \"#utility.yul\":5943:5949   */\n      dup6\n        /* \"#utility.yul\":5899:5971   */\n      tag_105\n      jump\t// in\n    tag_179:\n        /* \"#utility.yul\":6018:6027   */\n      dup2\n        /* \"#utility.yul\":6012:6016   */\n      dup2\n        /* \"#utility.yul\":6008:6028   */\n      sub\n        /* \"#utility.yul\":6003:6005   */\n      0x60\n        /* \"#utility.yul\":5992:6001   */\n      dup4\n        /* \"#utility.yul\":5988:6006   */\n      add\n        /* \"#utility.yul\":5981:6029   */\n      mstore\n        /* \"#utility.yul\":6046:6122   */\n      tag_180\n        /* \"#utility.yul\":6117:6121   */\n      dup2\n        /* \"#utility.yul\":6108:6114   */\n      dup5\n        /* \"#utility.yul\":6046:6122   */\n      tag_110\n      jump\t// in\n    tag_180:\n        /* \"#utility.yul\":6038:6122   */\n      swap1\n      pop\n        /* \"#utility.yul\":5489:6129   */\n      swap6\n      swap5\n      pop\n      pop\n      pop\n      pop\n      pop\n      jump\t// out\n        /* \"#utility.yul\":6135:6357   */\n    tag_54:\n        /* \"#utility.yul\":6228:6232   */\n      0x00\n        /* \"#utility.yul\":6266:6268   */\n      0x20\n        /* \"#utility.yul\":6255:6264   */\n      dup3\n        /* \"#utility.yul\":6251:6269   */\n      add\n        /* \"#utility.yul\":6243:6269   */\n      swap1\n      pop\n        /* \"#utility.yul\":6279:6350   */\n      tag_182\n        /* \"#utility.yul\":6347:6348   */\n      0x00\n        /* \"#utility.yul\":6336:6345   */\n      dup4\n        /* \"#utility.yul\":6332:6349   */\n      add\n        /* \"#utility.yul\":6323:6329   */\n      dup5\n        /* \"#utility.yul\":6279:6350   */\n      tag_105\n      jump\t// in\n    tag_182:\n        /* \"#utility.yul\":6135:6357   */\n      swap3\n      swap2\n      pop\n      pop\n      jump\t// out\n        /* \"#utility.yul\":6363:6506   */\n    tag_111:\n        /* \"#utility.yul\":6420:6425   */\n      0x00\n        /* \"#utility.yul\":6451:6457   */\n      dup2\n        /* \"#utility.yul\":6445:6458   */\n      mload\n        /* \"#utility.yul\":6436:6458   */\n      swap1\n      pop\n        /* \"#utility.yul\":6467:6500   */\n      tag_184\n        /* \"#utility.yul\":6494:6499   */\n      dup2\n        /* \"#utility.yul\":6467:6500   */\n      tag_98\n      jump\t// in\n    tag_184:\n        /* \"#utility.yul\":6363:6506   */\n      swap3\n      swap2\n      pop\n      pop\n      jump\t// out\n        /* \"#utility.yul\":6512:6863   */\n    tag_58:\n        /* \"#utility.yul\":6582:6588   */\n      0x00\n        /* \"#utility.yul\":6631:6633   */\n      0x20\n        /* \"#utility.yul\":6619:6628   */\n      dup3\n        /* \"#utility.yul\":6610:6617   */\n      dup5\n        /* \"#utility.yul\":6606:6629   */\n      sub\n        /* \"#utility.yul\":6602:6634   */\n      slt\n        /* \"#utility.yul\":6599:6718   */\n      iszero\n      tag_186\n      jumpi\n        /* \"#utility.yul\":6637:6716   */\n      tag_187\n      tag_91\n      jump\t// in\n    tag_187:\n        /* \"#utility.yul\":6599:6718   */\n    tag_186:\n        /* \"#utility.yul\":6757:6758   */\n      0x00\n        /* \"#utility.yul\":6782:6846   */\n      tag_188\n        /* \"#utility.yul\":6838:6845   */\n      dup5\n        /* \"#utility.yul\":6829:6835   */\n      dup3\n        /* \"#utility.yul\":6818:6827   */\n      dup6\n        /* \"#utility.yul\":6814:6836   */\n      add\n        /* \"#utility.yul\":6782:6846   */\n      tag_111\n      jump\t// in\n    tag_188:\n        /* \"#utility.yul\":6772:6846   */\n      swap2\n      pop\n        /* \"#utility.yul\":6728:6856   */\n      pop\n        /* \"#utility.yul\":6512:6863   */\n      swap3\n      swap2\n      pop\n      pop\n      jump\t// out\n        /* \"#utility.yul\":6869:7201   */\n    tag_66:\n        /* \"#utility.yul\":6990:6994   */\n      0x00\n        /* \"#utility.yul\":7028:7030   */\n      0x40\n        /* \"#utility.yul\":7017:7026   */\n      dup3\n        /* \"#utility.yul\":7013:7031   */\n      add\n        /* \"#utility.yul\":7005:7031   */\n      swap1\n      pop\n        /* \"#utility.yul\":7041:7112   */\n      tag_190\n        /* \"#utility.yul\":7109:7110   */\n      0x00\n        /* \"#utility.yul\":7098:7107   */\n      dup4\n        /* \"#utility.yul\":7094:7111   */\n      add\n        /* \"#utility.yul\":7085:7091   */\n      dup6\n        /* \"#utility.yul\":7041:7112   */\n      tag_105\n      jump\t// in\n    tag_190:\n        /* \"#utility.yul\":7122:7194   */\n      tag_191\n        /* \"#utility.yul\":7190:7192   */\n      0x20\n        /* \"#utility.yul\":7179:7188   */\n      dup4\n        /* \"#utility.yul\":7175:7193   */\n      add\n        /* \"#utility.yul\":7166:7172   */\n      dup5\n        /* \"#utility.yul\":7122:7194   */\n      tag_100\n      jump\t// in\n    tag_191:\n        /* \"#utility.yul\":6869:7201   */\n      swap4\n      swap3\n      pop\n      pop\n      pop\n      jump\t// out\n        /* \"#utility.yul\":7207:7437   */\n    tag_112:\n        /* \"#utility.yul\":7347:7381   */\n      0x556e697377617056324c6962726172793a20494e53554646494349454e545f49\n        /* \"#utility.yul\":7343:7344   */\n      0x00\n        /* \"#utility.yul\":7335:7341   */\n      dup3\n        /* \"#utility.yul\":7331:7345   */\n      add\n        /* \"#utility.yul\":7324:7382   */\n      mstore\n        /* \"#utility.yul\":7416:7429   */\n      0x4e5055545f414d4f554e54000000000000000000000000000000000000000000\n        /* \"#utility.yul\":7411:7413   */\n      0x20\n        /* \"#utility.yul\":7403:7409   */\n      dup3\n        /* \"#utility.yul\":7399:7414   */\n      add\n        /* \"#utility.yul\":7392:7430   */\n      mstore\n        /* \"#utility.yul\":7207:7437   */\n      pop\n      jump\t// out\n        /* \"#utility.yul\":7443:7809   */\n    tag_113:\n        /* \"#utility.yul\":7585:7588   */\n      0x00\n        /* \"#utility.yul\":7606:7673   */\n      tag_194\n        /* \"#utility.yul\":7670:7672   */\n      0x2b\n        /* \"#utility.yul\":7665:7668   */\n      dup4\n        /* \"#utility.yul\":7606:7673   */\n      tag_102\n      jump\t// in\n    tag_194:\n        /* \"#utility.yul\":7599:7673   */\n      swap2\n      pop\n        /* \"#utility.yul\":7682:7775   */\n      tag_195\n        /* \"#utility.yul\":7771:7774   */\n      dup3\n        /* \"#utility.yul\":7682:7775   */\n      tag_112\n      jump\t// in\n    tag_195:\n        /* \"#utility.yul\":7800:7802   */\n      0x40\n        /* \"#utility.yul\":7795:7798   */\n      dup3\n        /* \"#utility.yul\":7791:7803   */\n      add\n        /* \"#utility.yul\":7784:7803   */\n      swap1\n      pop\n        /* \"#utility.yul\":7443:7809   */\n      swap2\n      swap1\n      pop\n      jump\t// out\n        /* \"#utility.yul\":7815:8234   */\n    tag_71:\n        /* \"#utility.yul\":7981:7985   */\n      0x00\n        /* \"#utility.yul\":8019:8021   */\n      0x20\n        /* \"#utility.yul\":8008:8017   */\n      dup3\n        /* \"#utility.yul\":8004:8022   */\n      add\n        /* \"#utility.yul\":7996:8022   */\n      swap1\n      pop\n        /* \"#utility.yul\":8068:8077   */\n      dup2\n        /* \"#utility.yul\":8062:8066   */\n      dup2\n        /* \"#utility.yul\":8058:8078   */\n      sub\n        /* \"#utility.yul\":8054:8055   */\n      0x00\n        /* \"#utility.yul\":8043:8052   */\n      dup4\n        /* \"#utility.yul\":8039:8056   */\n      add\n        /* \"#utility.yul\":8032:8079   */\n      mstore\n        /* \"#utility.yul\":8096:8227   */\n      tag_197\n        /* \"#utility.yul\":8222:8226   */\n      dup2\n        /* \"#utility.yul\":8096:8227   */\n      tag_113\n      jump\t// in\n    tag_197:\n        /* \"#utility.yul\":8088:8227   */\n      swap1\n      pop\n        /* \"#utility.yul\":7815:8234   */\n      swap2\n      swap1\n      pop\n      jump\t// out\n        /* \"#utility.yul\":8240:8467   */\n    tag_114:\n        /* \"#utility.yul\":8380:8414   */\n      0x556e697377617056324c6962726172793a20494e53554646494349454e545f4c\n        /* \"#utility.yul\":8376:8377   */\n      0x00\n        /* \"#utility.yul\":8368:8374   */\n      dup3\n        /* \"#utility.yul\":8364:8378   */\n      add\n        /* \"#utility.yul\":8357:8415   */\n      mstore\n        /* \"#utility.yul\":8449:8459   */\n      0x4951554944495459000000000000000000000000000000000000000000000000\n        /* \"#utility.yul\":8444:8446   */\n      0x20\n        /* \"#utility.yul\":8436:8442   */\n      dup3\n        /* \"#utility.yul\":8432:8447   */\n      add\n        /* \"#utility.yul\":8425:8460   */\n      mstore\n        /* \"#utility.yul\":8240:8467   */\n      pop\n      jump\t// out\n        /* \"#utility.yul\":8473:8839   */\n    tag_115:\n        /* \"#utility.yul\":8615:8618   */\n      0x00\n        /* \"#utility.yul\":8636:8703   */\n      tag_200\n        /* \"#utility.yul\":8700:8702   */\n      0x28\n        /* \"#utility.yul\":8695:8698   */\n      dup4\n        /* \"#utility.yul\":8636:8703   */\n      tag_102\n      jump\t// in\n    tag_200:\n        /* \"#utility.yul\":8629:8703   */\n      swap2\n      pop\n        /* \"#utility.yul\":8712:8805   */\n      tag_201\n        /* \"#utility.yul\":8801:8804   */\n      dup3\n        /* \"#utility.yul\":8712:8805   */\n      tag_114\n      jump\t// in\n    tag_201:\n        /* \"#utility.yul\":8830:8832   */\n      0x40\n        /* \"#utility.yul\":8825:8828   */\n      dup3\n        /* \"#utility.yul\":8821:8833   */\n      add\n        /* \"#utility.yul\":8814:8833   */\n      swap1\n      pop\n        /* \"#utility.yul\":8473:8839   */\n      swap2\n      swap1\n      pop\n      jump\t// out\n        /* \"#utility.yul\":8845:9264   */\n    tag_75:\n        /* \"#utility.yul\":9011:9015   */\n      0x00\n        /* \"#utility.yul\":9049:9051   */\n      0x20\n        /* \"#utility.yul\":9038:9047   */\n      dup3\n        /* \"#utility.yul\":9034:9052   */\n      add\n        /* \"#utility.yul\":9026:9052   */\n      swap1\n      pop\n        /* \"#utility.yul\":9098:9107   */\n      dup2\n        /* \"#utility.yul\":9092:9096   */\n      dup2\n        /* \"#utility.yul\":9088:9108   */\n      sub\n        /* \"#utility.yul\":9084:9085   */\n      0x00\n        /* \"#utility.yul\":9073:9082   */\n      dup4\n        /* \"#utility.yul\":9069:9086   */\n      add\n        /* \"#utility.yul\":9062:9109   */\n      mstore\n        /* \"#utility.yul\":9126:9257   */\n      tag_203\n        /* \"#utility.yul\":9252:9256   */\n      dup2\n        /* \"#utility.yul\":9126:9257   */\n      tag_115\n      jump\t// in\n    tag_203:\n        /* \"#utility.yul\":9118:9257   */\n      swap1\n      pop\n        /* \"#utility.yul\":8845:9264   */\n      swap2\n      swap1\n      pop\n      jump\t// out\n        /* \"#utility.yul\":9270:9450   */\n    tag_116:\n        /* \"#utility.yul\":9318:9395   */\n      0x4e487b7100000000000000000000000000000000000000000000000000000000\n        /* \"#utility.yul\":9315:9316   */\n      0x00\n        /* \"#utility.yul\":9308:9396   */\n      mstore\n        /* \"#utility.yul\":9415:9419   */\n      0x11\n        /* \"#utility.yul\":9412:9413   */\n      0x04\n        /* \"#utility.yul\":9405:9420   */\n      mstore\n        /* \"#utility.yul\":9439:9443   */\n      0x24\n        /* \"#utility.yul\":9436:9437   */\n      0x00\n        /* \"#utility.yul\":9429:9444   */\n      revert\n        /* \"#utility.yul\":9456:9866   */\n    tag_77:\n        /* \"#utility.yul\":9496:9503   */\n      0x00\n        /* \"#utility.yul\":9519:9539   */\n      tag_206\n        /* \"#utility.yul\":9537:9538   */\n      dup3\n        /* \"#utility.yul\":9519:9539   */\n      tag_97\n      jump\t// in\n    tag_206:\n        /* \"#utility.yul\":9514:9539   */\n      swap2\n      pop\n        /* \"#utility.yul\":9553:9573   */\n      tag_207\n        /* \"#utility.yul\":9571:9572   */\n      dup4\n        /* \"#utility.yul\":9553:9573   */\n      tag_97\n      jump\t// in\n    tag_207:\n        /* \"#utility.yul\":9548:9573   */\n      swap3\n      pop\n        /* \"#utility.yul\":9608:9609   */\n      dup3\n        /* \"#utility.yul\":9605:9606   */\n      dup3\n        /* \"#utility.yul\":9601:9610   */\n      mul\n        /* \"#utility.yul\":9630:9660   */\n      tag_208\n        /* \"#utility.yul\":9648:9659   */\n      dup2\n        /* \"#utility.yul\":9630:9660   */\n      tag_97\n      jump\t// in\n    tag_208:\n        /* \"#utility.yul\":9619:9660   */\n      swap2\n      pop\n        /* \"#utility.yul\":9809:9810   */\n      dup3\n        /* \"#utility.yul\":9800:9807   */\n      dup3\n        /* \"#utility.yul\":9796:9811   */\n      div\n        /* \"#utility.yul\":9793:9794   */\n      dup5\n        /* \"#utility.yul\":9790:9812   */\n      eq\n        /* \"#utility.yul\":9770:9771   */\n      dup4\n        /* \"#utility.yul\":9763:9772   */\n      iszero\n        /* \"#utility.yul\":9743:9826   */\n      or\n        /* \"#utility.yul\":9720:9859   */\n      tag_209\n      jumpi\n        /* \"#utility.yul\":9839:9857   */\n      tag_210\n      tag_116\n      jump\t// in\n    tag_210:\n        /* \"#utility.yul\":9720:9859   */\n    tag_209:\n        /* \"#utility.yul\":9504:9866   */\n      pop\n        /* \"#utility.yul\":9456:9866   */\n      swap3\n      swap2\n      pop\n      pop\n      jump\t// out\n        /* \"#utility.yul\":9872:10063   */\n    tag_81:\n        /* \"#utility.yul\":9912:9915   */\n      0x00\n        /* \"#utility.yul\":9931:9951   */\n      tag_212\n        /* \"#utility.yul\":9949:9950   */\n      dup3\n        /* \"#utility.yul\":9931:9951   */\n      tag_97\n      jump\t// in\n    tag_212:\n        /* \"#utility.yul\":9926:9951   */\n      swap2\n      pop\n        /* \"#utility.yul\":9965:9985   */\n      tag_213\n        /* \"#utility.yul\":9983:9984   */\n      dup4\n        /* \"#utility.yul\":9965:9985   */\n      tag_97\n      jump\t// in\n    tag_213:\n        /* \"#utility.yul\":9960:9985   */\n      swap3\n      pop\n        /* \"#utility.yul\":10008:10009   */\n      dup3\n        /* \"#utility.yul\":10005:10006   */\n      dup3\n        /* \"#utility.yul\":10001:10010   */\n      add\n        /* \"#utility.yul\":9994:10010   */\n      swap1\n      pop\n        /* \"#utility.yul\":10029:10032   */\n      dup1\n        /* \"#utility.yul\":10026:10027   */\n      dup3\n        /* \"#utility.yul\":10023:10033   */\n      gt\n        /* \"#utility.yul\":10020:10056   */\n      iszero\n      tag_214\n      jumpi\n        /* \"#utility.yul\":10036:10054   */\n      tag_215\n      tag_116\n      jump\t// in\n    tag_215:\n        /* \"#utility.yul\":10020:10056   */\n    tag_214:\n        /* \"#utility.yul\":9872:10063   */\n      swap3\n      swap2\n      pop\n      pop\n      jump\t// out\n        /* \"#utility.yul\":10069:10249   */\n    tag_117:\n        /* \"#utility.yul\":10117:10194   */\n      0x4e487b7100000000000000000000000000000000000000000000000000000000\n        /* \"#utility.yul\":10114:10115   */\n      0x00\n        /* \"#utility.yul\":10107:10195   */\n      mstore\n        /* \"#utility.yul\":10214:10218   */\n      0x12\n        /* \"#utility.yul\":10211:10212   */\n      0x04\n        /* \"#utility.yul\":10204:10219   */\n      mstore\n        /* \"#utility.yul\":10238:10242   */\n      0x24\n        /* \"#utility.yul\":10235:10236   */\n      0x00\n        /* \"#utility.yul\":10228:10243   */\n      revert\n        /* \"#utility.yul\":10255:10440   */\n    tag_83:\n        /* \"#utility.yul\":10295:10296   */\n      0x00\n        /* \"#utility.yul\":10312:10332   */\n      tag_218\n        /* \"#utility.yul\":10330:10331   */\n      dup3\n        /* \"#utility.yul\":10312:10332   */\n      tag_97\n      jump\t// in\n    tag_218:\n        /* \"#utility.yul\":10307:10332   */\n      swap2\n      pop\n        /* \"#utility.yul\":10346:10366   */\n      tag_219\n        /* \"#utility.yul\":10364:10365   */\n      dup4\n        /* \"#utility.yul\":10346:10366   */\n      tag_97\n      jump\t// in\n    tag_219:\n        /* \"#utility.yul\":10341:10366   */\n      swap3\n      pop\n        /* \"#utility.yul\":10385:10386   */\n      dup3\n        /* \"#utility.yul\":10375:10410   */\n      tag_220\n      jumpi\n        /* \"#utility.yul\":10390:10408   */\n      tag_221\n      tag_117\n      jump\t// in\n    tag_221:\n        /* \"#utility.yul\":10375:10410   */\n    tag_220:\n        /* \"#utility.yul\":10432:10433   */\n      dup3\n        /* \"#utility.yul\":10429:10430   */\n      dup3\n        /* \"#utility.yul\":10425:10434   */\n      div\n        /* \"#utility.yul\":10420:10434   */\n      swap1\n      pop\n        /* \"#utility.yul\":10255:10440   */\n      swap3\n      swap2\n      pop\n      pop\n      jump\t// out\n\n    auxdata: 0xa2646970667358221220f9a8ac423a8e1dc8c8bf623710f10524c972c9adab17cc6f577ff7f9e8044e5064736f6c634300081a0033\n}\n",
				"bytecode": {
					"linkReferences": {},
					"object": "6080604052348015600e575f80fd5b50610d128061001c5f395ff3fe608060405234801561000f575f80fd5b5060043610610034575f3560e01c8063df791e5014610038578063ec0a63d814610054575b5f80fd5b610052600480360381019061004d91906107e5565b610085565b005b61006e60048036038101906100699190610835565b610374565b60405161007c92919061086f565b60405180910390f35b5f8390505f8173ffffffffffffffffffffffffffffffffffffffff16630dfe16816040518163ffffffff1660e01b8152600401602060405180830381865afa1580156100d3573d5f803e3d5ffd5b505050506040513d601f19601f820116820180604052508101906100f791906108aa565b90505f8273ffffffffffffffffffffffffffffffffffffffff1663d21220a76040518163ffffffff1660e01b8152600401602060405180830381865afa158015610143573d5f803e3d5ffd5b505050506040513d601f19601f8201168201806040525081019061016791906108aa565b90505f8061017488610374565b915091508373ffffffffffffffffffffffffffffffffffffffff168773ffffffffffffffffffffffffffffffffffffffff1614806101dd57508273ffffffffffffffffffffffffffffffffffffffff168773ffffffffffffffffffffffffffffffffffffffff16145b61021c576040517f08c379a00000000000000000000000000000000000000000000000000000000081526004016102139061092f565b60405180910390fd5b5f8473ffffffffffffffffffffffffffffffffffffffff168873ffffffffffffffffffffffffffffffffffffffff1614610256575f610259565b60015b905061028689888a73ffffffffffffffffffffffffffffffffffffffff166105569092919063ffffffff16565b5f808261029e576102988985876105d5565b5f6102ab565b5f6102aa8a87876105d5565b5b915091508a73ffffffffffffffffffffffffffffffffffffffff1663022c0d9f8383305f67ffffffffffffffff8111156102e8576102e761094d565b5b6040519080825280601f01601f19166020018201604052801561031a5781602001600182028036833780820191505090505b506040518563ffffffff1660e01b815260040161033a94939291906109f9565b5f604051808303815f87803b158015610351575f80fd5b505af1158015610363573d5f803e3d5ffd5b505050505050505050505050505050565b5f805f8390505f8173ffffffffffffffffffffffffffffffffffffffff16630dfe16816040518163ffffffff1660e01b8152600401602060405180830381865afa1580156103c4573d5f803e3d5ffd5b505050506040513d601f19601f820116820180604052508101906103e891906108aa565b90505f8273ffffffffffffffffffffffffffffffffffffffff1663d21220a76040518163ffffffff1660e01b8152600401602060405180830381865afa158015610434573d5f803e3d5ffd5b505050506040513d601f19601f8201168201806040525081019061045891906108aa565b90508173ffffffffffffffffffffffffffffffffffffffff166370a08231876040518263ffffffff1660e01b81526004016104939190610a43565b602060405180830381865afa1580156104ae573d5f803e3d5ffd5b505050506040513d601f19601f820116820180604052508101906104d29190610a70565b94508073ffffffffffffffffffffffffffffffffffffffff166370a08231876040518263ffffffff1660e01b815260040161050d9190610a43565b602060405180830381865afa158015610528573d5f803e3d5ffd5b505050506040513d601f19601f8201168201806040525081019061054c9190610a70565b9350505050915091565b6105d0838473ffffffffffffffffffffffffffffffffffffffff1663a9059cbb8585604051602401610589929190610a9b565b604051602081830303815290604052915060e01b6020820180517bffffffffffffffffffffffffffffffffffffffffffffffffffffffff83818316178352505050506106b9565b505050565b5f808411610618576040517f08c379a000000000000000000000000000000000000000000000000000000000815260040161060f90610b32565b60405180910390fd5b5f8311801561062657505f82115b610665576040517f08c379a000000000000000000000000000000000000000000000000000000000815260040161065c90610bc0565b60405180910390fd5b5f6103e5856106749190610c0b565b90505f83826106839190610c0b565b90505f826103e8876106959190610c0b565b61069f9190610c4c565b905080826106ad9190610cac565b93505050509392505050565b5f8060205f8451602086015f885af1806106d8576040513d5f823e3d81fd5b3d92505f519150505f82146106f157600181141561070c565b5f8473ffffffffffffffffffffffffffffffffffffffff163b145b1561074e57836040517f5274afe70000000000000000000000000000000000000000000000000000000081526004016107459190610a43565b60405180910390fd5b50505050565b5f80fd5b5f73ffffffffffffffffffffffffffffffffffffffff82169050919050565b5f61078182610758565b9050919050565b61079181610777565b811461079b575f80fd5b50565b5f813590506107ac81610788565b92915050565b5f819050919050565b6107c4816107b2565b81146107ce575f80fd5b50565b5f813590506107df816107bb565b92915050565b5f805f606084860312156107fc576107fb610754565b5b5f6108098682870161079e565b935050602061081a8682870161079e565b925050604061082b868287016107d1565b9150509250925092565b5f6020828403121561084a57610849610754565b5b5f6108578482850161079e565b91505092915050565b610869816107b2565b82525050565b5f6040820190506108825f830185610860565b61088f6020830184610860565b9392505050565b5f815190506108a481610788565b92915050565b5f602082840312156108bf576108be610754565b5b5f6108cc84828501610896565b91505092915050565b5f82825260208201905092915050565b7f4e6f20746f6b656e20696e2070616972000000000000000000000000000000005f82015250565b5f6109196010836108d5565b9150610924826108e5565b602082019050919050565b5f6020820190508181035f8301526109468161090d565b9050919050565b7f4e487b71000000000000000000000000000000000000000000000000000000005f52604160045260245ffd5b61098381610777565b82525050565b5f81519050919050565b5f82825260208201905092915050565b8281835e5f83830152505050565b5f601f19601f8301169050919050565b5f6109cb82610989565b6109d58185610993565b93506109e58185602086016109a3565b6109ee816109b1565b840191505092915050565b5f608082019050610a0c5f830187610860565b610a196020830186610860565b610a26604083018561097a565b8181036060830152610a3881846109c1565b905095945050505050565b5f602082019050610a565f83018461097a565b92915050565b5f81519050610a6a816107bb565b92915050565b5f60208284031215610a8557610a84610754565b5b5f610a9284828501610a5c565b91505092915050565b5f604082019050610aae5f83018561097a565b610abb6020830184610860565b9392505050565b7f556e697377617056324c6962726172793a20494e53554646494349454e545f495f8201527f4e5055545f414d4f554e54000000000000000000000000000000000000000000602082015250565b5f610b1c602b836108d5565b9150610b2782610ac2565b604082019050919050565b5f6020820190508181035f830152610b4981610b10565b9050919050565b7f556e697377617056324c6962726172793a20494e53554646494349454e545f4c5f8201527f4951554944495459000000000000000000000000000000000000000000000000602082015250565b5f610baa6028836108d5565b9150610bb582610b50565b604082019050919050565b5f6020820190508181035f830152610bd781610b9e565b9050919050565b7f4e487b71000000000000000000000000000000000000000000000000000000005f52601160045260245ffd5b5f610c15826107b2565b9150610c20836107b2565b9250828202610c2e816107b2565b91508282048414831517610c4557610c44610bde565b5b5092915050565b5f610c56826107b2565b9150610c61836107b2565b9250828201905080821115610c7957610c78610bde565b5b92915050565b7f4e487b71000000000000000000000000000000000000000000000000000000005f52601260045260245ffd5b5f610cb6826107b2565b9150610cc1836107b2565b925082610cd157610cd0610c7f565b5b82820490509291505056fea2646970667358221220f9a8ac423a8e1dc8c8bf623710f10524c972c9adab17cc6f577ff7f9e8044e5064736f6c634300081a0033",
					"opcodes": "PUSH1 0x80 PUSH1 0x40 MSTORE CALLVALUE DUP1 ISZERO PUSH1 0xE JUMPI PUSH0 DUP1 REVERT JUMPDEST POP PUSH2 0xD12 DUP1 PUSH2 0x1C PUSH0 CODECOPY PUSH0 RETURN INVALID PUSH1 0x80 PUSH1 0x40 MSTORE CALLVALUE DUP1 ISZERO PUSH2 0xF JUMPI PUSH0 DUP1 REVERT JUMPDEST POP PUSH1 0x4 CALLDATASIZE LT PUSH2 0x34 JUMPI PUSH0 CALLDATALOAD PUSH1 0xE0 SHR DUP1 PUSH4 0xDF791E50 EQ PUSH2 0x38 JUMPI DUP1 PUSH4 0xEC0A63D8 EQ PUSH2 0x54 JUMPI JUMPDEST PUSH0 DUP1 REVERT JUMPDEST PUSH2 0x52 PUSH1 0x4 DUP1 CALLDATASIZE SUB DUP2 ADD SWAP1 PUSH2 0x4D SWAP2 SWAP1 PUSH2 0x7E5 JUMP JUMPDEST PUSH2 0x85 JUMP JUMPDEST STOP JUMPDEST PUSH2 0x6E PUSH1 0x4 DUP1 CALLDATASIZE SUB DUP2 ADD SWAP1 PUSH2 0x69 SWAP2 SWAP1 PUSH2 0x835 JUMP JUMPDEST PUSH2 0x374 JUMP JUMPDEST PUSH1 0x40 MLOAD PUSH2 0x7C SWAP3 SWAP2 SWAP1 PUSH2 0x86F JUMP JUMPDEST PUSH1 0x40 MLOAD DUP1 SWAP2 SUB SWAP1 RETURN JUMPDEST PUSH0 DUP4 SWAP1 POP PUSH0 DUP2 PUSH20 0xFFFFFFFFFFFFFFFFFFFFFFFFFFFFFFFFFFFFFFFF AND PUSH4 0xDFE1681 PUSH1 0x40 MLOAD DUP2 PUSH4 0xFFFFFFFF AND PUSH1 0xE0 SHL DUP2 MSTORE PUSH1 0x4 ADD PUSH1 0x20 PUSH1 0x40 MLOAD DUP1 DUP4 SUB DUP2 DUP7 GAS STATICCALL ISZERO DUP1 ISZERO PUSH2 0xD3 JUMPI RETURNDATASIZE PUSH0 DUP1 RETURNDATACOPY RETURNDATASIZE PUSH0 REVERT JUMPDEST POP POP POP POP PUSH1 0x40 MLOAD RETURNDATASIZE PUSH1 0x1F NOT PUSH1 0x1F DUP3 ADD AND DUP3 ADD DUP1 PUSH1 0x40 MSTORE POP DUP2 ADD SWAP1 PUSH2 0xF7 SWAP2 SWAP1 PUSH2 0x8AA JUMP JUMPDEST SWAP1 POP PUSH0 DUP3 PUSH20 0xFFFFFFFFFFFFFFFFFFFFFFFFFFFFFFFFFFFFFFFF AND PUSH4 0xD21220A7 PUSH1 0x40 MLOAD DUP2 PUSH4 0xFFFFFFFF AND PUSH1 0xE0 SHL DUP2 MSTORE PUSH1 0x4 ADD PUSH1 0x20 PUSH1 0x40 MLOAD DUP1 DUP4 SUB DUP2 DUP7 GAS STATICCALL ISZERO DUP1 ISZERO PUSH2 0x143 JUMPI RETURNDATASIZE PUSH0 DUP1 RETURNDATACOPY RETURNDATASIZE PUSH0 REVERT JUMPDEST POP POP POP POP PUSH1 0x40 MLOAD RETURNDATASIZE PUSH1 0x1F NOT PUSH1 0x1F DUP3 ADD AND DUP3 ADD DUP1 PUSH1 0x40 MSTORE POP DUP2 ADD SWAP1 PUSH2 0x167 SWAP2 SWAP1 PUSH2 0x8AA JUMP JUMPDEST SWAP1 POP PUSH0 DUP1 PUSH2 0x174 DUP9 PUSH2 0x374 JUMP JUMPDEST SWAP2 POP SWAP2 POP DUP4 PUSH20 0xFFFFFFFFFFFFFFFFFFFFFFFFFFFFFFFFFFFFFFFF AND DUP8 PUSH20 0xFFFFFFFFFFFFFFFFFFFFFFFFFFFFFFFFFFFFFFFF AND EQ DUP1 PUSH2 0x1DD JUMPI POP DUP3 PUSH20 0xFFFFFFFFFFFFFFFFFFFFFFFFFFFFFFFFFFFFFFFF AND DUP8 PUSH20 0xFFFFFFFFFFFFFFFFFFFFFFFFFFFFFFFFFFFFFFFF AND EQ JUMPDEST PUSH2 0x21C JUMPI PUSH1 0x40 MLOAD PUSH32 0x8C379A000000000000000000000000000000000000000000000000000000000 DUP2 MSTORE PUSH1 0x4 ADD PUSH2 0x213 SWAP1 PUSH2 0x92F JUMP JUMPDEST PUSH1 0x40 MLOAD DUP1 SWAP2 SUB SWAP1 REVERT JUMPDEST PUSH0 DUP5 PUSH20 0xFFFFFFFFFFFFFFFFFFFFFFFFFFFFFFFFFFFFFFFF AND DUP9 PUSH20 0xFFFFFFFFFFFFFFFFFFFFFFFFFFFFFFFFFFFFFFFF AND EQ PUSH2 0x256 JUMPI PUSH0 PUSH2 0x259 JUMP JUMPDEST PUSH1 0x1 JUMPDEST SWAP1 POP PUSH2 0x286 DUP10 DUP9 DUP11 PUSH20 0xFFFFFFFFFFFFFFFFFFFFFFFFFFFFFFFFFFFFFFFF AND PUSH2 0x556 SWAP1 SWAP3 SWAP2 SWAP1 PUSH4 0xFFFFFFFF AND JUMP JUMPDEST PUSH0 DUP1 DUP3 PUSH2 0x29E JUMPI PUSH2 0x298 DUP10 DUP6 DUP8 PUSH2 0x5D5 JUMP JUMPDEST PUSH0 PUSH2 0x2AB JUMP JUMPDEST PUSH0 PUSH2 0x2AA DUP11 DUP8 DUP8 PUSH2 0x5D5 JUMP JUMPDEST JUMPDEST SWAP2 POP SWAP2 POP DUP11 PUSH20 0xFFFFFFFFFFFFFFFFFFFFFFFFFFFFFFFFFFFFFFFF AND PUSH4 0x22C0D9F DUP4 DUP4 ADDRESS PUSH0 PUSH8 0xFFFFFFFFFFFFFFFF DUP2 GT ISZERO PUSH2 0x2E8 JUMPI PUSH2 0x2E7 PUSH2 0x94D JUMP JUMPDEST JUMPDEST PUSH1 0x40 MLOAD SWAP1 DUP1 DUP3 MSTORE DUP1 PUSH1 0x1F ADD PUSH1 0x1F NOT AND PUSH1 0x20 ADD DUP3 ADD PUSH1 0x40 MSTORE DUP1 ISZERO PUSH2 0x31A JUMPI DUP2 PUSH1 0x20 ADD PUSH1 0x1 DUP3 MUL DUP1 CALLDATASIZE DUP4 CALLDATACOPY DUP1 DUP3 ADD SWAP2 POP POP SWAP1 POP JUMPDEST POP PUSH1 0x40 MLOAD DUP6 PUSH4 0xFFFFFFFF AND PUSH1 0xE0 SHL DUP2 MSTORE PUSH1 0x4 ADD PUSH2 0x33A SWAP5 SWAP4 SWAP3 SWAP2 SWAP1 PUSH2 0x9F9 JUMP JUMPDEST PUSH0 PUSH1 0x40 MLOAD DUP1 DUP4 SUB DUP2 PUSH0 DUP8 DUP1 EXTCODESIZE ISZERO DUP1 ISZERO PUSH2 0x351 JUMPI PUSH0 DUP1 REVERT JUMPDEST POP GAS CALL ISZERO DUP1 ISZERO PUSH2 0x363 JUMPI RETURNDATASIZE PUSH0 DUP1 RETURNDATACOPY RETURNDATASIZE PUSH0 REVERT JUMPDEST POP POP POP POP POP POP POP POP POP POP POP POP POP POP POP JUMP JUMPDEST PUSH0 DUP1 PUSH0 DUP4 SWAP1 POP PUSH0 DUP2 PUSH20 0xFFFFFFFFFFFFFFFFFFFFFFFFFFFFFFFFFFFFFFFF AND PUSH4 0xDFE1681 PUSH1 0x40 MLOAD DUP2 PUSH4 0xFFFFFFFF AND PUSH1 0xE0 SHL DUP2 MSTORE PUSH1 0x4 ADD PUSH1 0x20 PUSH1 0x40 MLOAD DUP1 DUP4 SUB DUP2 DUP7 GAS STATICCALL ISZERO DUP1 ISZERO PUSH2 0x3C4 JUMPI RETURNDATASIZE PUSH0 DUP1 RETURNDATACOPY RETURNDATASIZE PUSH0 REVERT JUMPDEST POP POP POP POP PUSH1 0x40 MLOAD RETURNDATASIZE PUSH1 0x1F NOT PUSH1 0x1F DUP3 ADD AND DUP3 ADD DUP1 PUSH1 0x40 MSTORE POP DUP2 ADD SWAP1 PUSH2 0x3E8 SWAP2 SWAP1 PUSH2 0x8AA JUMP JUMPDEST SWAP1 POP PUSH0 DUP3 PUSH20 0xFFFFFFFFFFFFFFFFFFFFFFFFFFFFFFFFFFFFFFFF AND PUSH4 0xD21220A7 PUSH1 0x40 MLOAD DUP2 PUSH4 0xFFFFFFFF AND PUSH1 0xE0 SHL DUP2 MSTORE PUSH1 0x4 ADD PUSH1 0x20 PUSH1 0x40 MLOAD DUP1 DUP4 SUB DUP2 DUP7 GAS STATICCALL ISZERO DUP1 ISZERO PUSH2 0x434 JUMPI RETURNDATASIZE PUSH0 DUP1 RETURNDATACOPY RETURNDATASIZE PUSH0 REVERT JUMPDEST POP POP POP POP PUSH1 0x40 MLOAD RETURNDATASIZE PUSH1 0x1F NOT PUSH1 0x1F DUP3 ADD AND DUP3 ADD DUP1 PUSH1 0x40 MSTORE POP DUP2 ADD SWAP1 PUSH2 0x458 SWAP2 SWAP1 PUSH2 0x8AA JUMP JUMPDEST SWAP1 POP DUP2 PUSH20 0xFFFFFFFFFFFFFFFFFFFFFFFFFFFFFFFFFFFFFFFF AND PUSH4 0x70A08231 DUP8 PUSH1 0x40 MLOAD DUP3 PUSH4 0xFFFFFFFF AND PUSH1 0xE0 SHL DUP2 MSTORE PUSH1 0x4 ADD PUSH2 0x493 SWAP2 SWAP1 PUSH2 0xA43 JUMP JUMPDEST PUSH1 0x20 PUSH1 0x40 MLOAD DUP1 DUP4 SUB DUP2 DUP7 GAS STATICCALL ISZERO DUP1 ISZERO PUSH2 0x4AE JUMPI RETURNDATASIZE PUSH0 DUP1 RETURNDATACOPY RETURNDATASIZE PUSH0 REVERT JUMPDEST POP POP POP POP PUSH1 0x40 MLOAD RETURNDATASIZE PUSH1 0x1F NOT PUSH1 0x1F DUP3 ADD AND DUP3 ADD DUP1 PUSH1 0x40 MSTORE POP DUP2 ADD SWAP1 PUSH2 0x4D2 SWAP2 SWAP1 PUSH2 0xA70 JUMP JUMPDEST SWAP5 POP DUP1 PUSH20 0xFFFFFFFFFFFFFFFFFFFFFFFFFFFFFFFFFFFFFFFF AND PUSH4 0x70A08231 DUP8 PUSH1 0x40 MLOAD DUP3 PUSH4 0xFFFFFFFF AND PUSH1 0xE0 SHL DUP2 MSTORE PUSH1 0x4 ADD PUSH2 0x50D SWAP2 SWAP1 PUSH2 0xA43 JUMP JUMPDEST PUSH1 0x20 PUSH1 0x40 MLOAD DUP1 DUP4 SUB DUP2 DUP7 GAS STATICCALL ISZERO DUP1 ISZERO PUSH2 0x528 JUMPI RETURNDATASIZE PUSH0 DUP1 RETURNDATACOPY RETURNDATASIZE PUSH0 REVERT JUMPDEST POP POP POP POP PUSH1 0x40 MLOAD RETURNDATASIZE PUSH1 0x1F NOT PUSH1 0x1F DUP3 ADD AND DUP3 ADD DUP1 PUSH1 0x40 MSTORE POP DUP2 ADD SWAP1 PUSH2 0x54C SWAP2 SWAP1 PUSH2 0xA70 JUMP JUMPDEST SWAP4 POP POP POP POP SWAP2 POP SWAP2 JUMP JUMPDEST PUSH2 0x5D0 DUP4 DUP5 PUSH20 0xFFFFFFFFFFFFFFFFFFFFFFFFFFFFFFFFFFFFFFFF AND PUSH4 0xA9059CBB DUP6 DUP6 PUSH1 0x40 MLOAD PUSH1 0x24 ADD PUSH2 0x589 SWAP3 SWAP2 SWAP1 PUSH2 0xA9B JUMP JUMPDEST PUSH1 0x40 MLOAD PUSH1 0x20 DUP2 DUP4 SUB SUB DUP2 MSTORE SWAP1 PUSH1 0x40 MSTORE SWAP2 POP PUSH1 0xE0 SHL PUSH1 0x20 DUP3 ADD DUP1 MLOAD PUSH28 0xFFFFFFFFFFFFFFFFFFFFFFFFFFFFFFFFFFFFFFFFFFFFFFFFFFFFFFFF DUP4 DUP2 DUP4 AND OR DUP4 MSTORE POP POP POP POP PUSH2 0x6B9 JUMP JUMPDEST POP POP POP JUMP JUMPDEST PUSH0 DUP1 DUP5 GT PUSH2 0x618 JUMPI PUSH1 0x40 MLOAD PUSH32 0x8C379A000000000000000000000000000000000000000000000000000000000 DUP2 MSTORE PUSH1 0x4 ADD PUSH2 0x60F SWAP1 PUSH2 0xB32 JUMP JUMPDEST PUSH1 0x40 MLOAD DUP1 SWAP2 SUB SWAP1 REVERT JUMPDEST PUSH0 DUP4 GT DUP1 ISZERO PUSH2 0x626 JUMPI POP PUSH0 DUP3 GT JUMPDEST PUSH2 0x665 JUMPI PUSH1 0x40 MLOAD PUSH32 0x8C379A000000000000000000000000000000000000000000000000000000000 DUP2 MSTORE PUSH1 0x4 ADD PUSH2 0x65C SWAP1 PUSH2 0xBC0 JUMP JUMPDEST PUSH1 0x40 MLOAD DUP1 SWAP2 SUB SWAP1 REVERT JUMPDEST PUSH0 PUSH2 0x3E5 DUP6 PUSH2 0x674 SWAP2 SWAP1 PUSH2 0xC0B JUMP JUMPDEST SWAP1 POP PUSH0 DUP4 DUP3 PUSH2 0x683 SWAP2 SWAP1 PUSH2 0xC0B JUMP JUMPDEST SWAP1 POP PUSH0 DUP3 PUSH2 0x3E8 DUP8 PUSH2 0x695 SWAP2 SWAP1 PUSH2 0xC0B JUMP JUMPDEST PUSH2 0x69F SWAP2 SWAP1 PUSH2 0xC4C JUMP JUMPDEST SWAP1 POP DUP1 DUP3 PUSH2 0x6AD SWAP2 SWAP1 PUSH2 0xCAC JUMP JUMPDEST SWAP4 POP POP POP POP SWAP4 SWAP3 POP POP POP JUMP JUMPDEST PUSH0 DUP1 PUSH1 0x20 PUSH0 DUP5 MLOAD PUSH1 0x20 DUP7 ADD PUSH0 DUP9 GAS CALL DUP1 PUSH2 0x6D8 JUMPI PUSH1 0x40 MLOAD RETURNDATASIZE PUSH0 DUP3 RETURNDATACOPY RETURNDATASIZE DUP2 REVERT JUMPDEST RETURNDATASIZE SWAP3 POP PUSH0 MLOAD SWAP2 POP POP PUSH0 DUP3 EQ PUSH2 0x6F1 JUMPI PUSH1 0x1 DUP2 EQ ISZERO PUSH2 0x70C JUMP JUMPDEST PUSH0 DUP5 PUSH20 0xFFFFFFFFFFFFFFFFFFFFFFFFFFFFFFFFFFFFFFFF AND EXTCODESIZE EQ JUMPDEST ISZERO PUSH2 0x74E JUMPI DUP4 PUSH1 0x40 MLOAD PUSH32 0x5274AFE700000000000000000000000000000000000000000000000000000000 DUP2 MSTORE PUSH1 0x4 ADD PUSH2 0x745 SWAP2 SWAP1 PUSH2 0xA43 JUMP JUMPDEST PUSH1 0x40 MLOAD DUP1 SWAP2 SUB SWAP1 REVERT JUMPDEST POP POP POP POP JUMP JUMPDEST PUSH0 DUP1 REVERT JUMPDEST PUSH0 PUSH20 0xFFFFFFFFFFFFFFFFFFFFFFFFFFFFFFFFFFFFFFFF DUP3 AND SWAP1 POP SWAP2 SWAP1 POP JUMP JUMPDEST PUSH0 PUSH2 0x781 DUP3 PUSH2 0x758 JUMP JUMPDEST SWAP1 POP SWAP2 SWAP1 POP JUMP JUMPDEST PUSH2 0x791 DUP2 PUSH2 0x777 JUMP JUMPDEST DUP2 EQ PUSH2 0x79B JUMPI PUSH0 DUP1 REVERT JUMPDEST POP JUMP JUMPDEST PUSH0 DUP2 CALLDATALOAD SWAP1 POP PUSH2 0x7AC DUP2 PUSH2 0x788 JUMP JUMPDEST SWAP3 SWAP2 POP POP JUMP JUMPDEST PUSH0 DUP2 SWAP1 POP SWAP2 SWAP1 POP JUMP JUMPDEST PUSH2 0x7C4 DUP2 PUSH2 0x7B2 JUMP JUMPDEST DUP2 EQ PUSH2 0x7CE JUMPI PUSH0 DUP1 REVERT JUMPDEST POP JUMP JUMPDEST PUSH0 DUP2 CALLDATALOAD SWAP1 POP PUSH2 0x7DF DUP2 PUSH2 0x7BB JUMP JUMPDEST SWAP3 SWAP2 POP POP JUMP JUMPDEST PUSH0 DUP1 PUSH0 PUSH1 0x60 DUP5 DUP7 SUB SLT ISZERO PUSH2 0x7FC JUMPI PUSH2 0x7FB PUSH2 0x754 JUMP JUMPDEST JUMPDEST PUSH0 PUSH2 0x809 DUP7 DUP3 DUP8 ADD PUSH2 0x79E JUMP JUMPDEST SWAP4 POP POP PUSH1 0x20 PUSH2 0x81A DUP7 DUP3 DUP8 ADD PUSH2 0x79E JUMP JUMPDEST SWAP3 POP POP PUSH1 0x40 PUSH2 0x82B DUP7 DUP3 DUP8 ADD PUSH2 0x7D1 JUMP JUMPDEST SWAP2 POP POP SWAP3 POP SWAP3 POP SWAP3 JUMP JUMPDEST PUSH0 PUSH1 0x20 DUP3 DUP5 SUB SLT ISZERO PUSH2 0x84A JUMPI PUSH2 0x849 PUSH2 0x754 JUMP JUMPDEST JUMPDEST PUSH0 PUSH2 0x857 DUP5 DUP3 DUP6 ADD PUSH2 0x79E JUMP JUMPDEST SWAP2 POP POP SWAP3 SWAP2 POP POP JUMP JUMPDEST PUSH2 0x869 DUP2 PUSH2 0x7B2 JUMP JUMPDEST DUP3 MSTORE POP POP JUMP JUMPDEST PUSH0 PUSH1 0x40 DUP3 ADD SWAP1 POP PUSH2 0x882 PUSH0 DUP4 ADD DUP6 PUSH2 0x860 JUMP JUMPDEST PUSH2 0x88F PUSH1 0x20 DUP4 ADD DUP5 PUSH2 0x860 JUMP JUMPDEST SWAP4 SWAP3 POP POP POP JUMP JUMPDEST PUSH0 DUP2 MLOAD SWAP1 POP PUSH2 0x8A4 DUP2 PUSH2 0x788 JUMP JUMPDEST SWAP3 SWAP2 POP POP JUMP JUMPDEST PUSH0 PUSH1 0x20 DUP3 DUP5 SUB SLT ISZERO PUSH2 0x8BF JUMPI PUSH2 0x8BE PUSH2 0x754 JUMP JUMPDEST JUMPDEST PUSH0 PUSH2 0x8CC DUP5 DUP3 DUP6 ADD PUSH2 0x896 JUMP JUMPDEST SWAP2 POP POP SWAP3 SWAP2 POP POP JUMP JUMPDEST PUSH0 DUP3 DUP3 MSTORE PUSH1 0x20 DUP3 ADD SWAP1 POP SWAP3 SWAP2 POP POP JUMP JUMPDEST PUSH32 0x4E6F20746F6B656E20696E207061697200000000000000000000000000000000 PUSH0 DUP3 ADD MSTORE POP JUMP JUMPDEST PUSH0 PUSH2 0x919 PUSH1 0x10 DUP4 PUSH2 0x8D5 JUMP JUMPDEST SWAP2 POP PUSH2 0x924 DUP3 PUSH2 0x8E5 JUMP JUMPDEST PUSH1 0x20 DUP3 ADD SWAP1 POP SWAP2 SWAP1 POP JUMP JUMPDEST PUSH0 PUSH1 0x20 DUP3 ADD SWAP1 POP DUP2 DUP2 SUB PUSH0 DUP4 ADD MSTORE PUSH2 0x946 DUP2 PUSH2 0x90D JUMP JUMPDEST SWAP1 POP SWAP2 SWAP1 POP JUMP JUMPDEST PUSH32 0x4E487B7100000000000000000000000000000000000000000000000000000000 PUSH0 MSTORE PUSH1 0x41 PUSH1 0x4 MSTORE PUSH1 0x24 PUSH0 REVERT JUMPDEST PUSH2 0x983 DUP2 PUSH2 0x777 JUMP JUMPDEST DUP3 MSTORE POP POP JUMP JUMPDEST PUSH0 DUP2 MLOAD SWAP1 POP SWAP2 SWAP1 POP JUMP JUMPDEST PUSH0 DUP3 DUP3 MSTORE PUSH1 0x20 DUP3 ADD SWAP1 POP SWAP3 SWAP2 POP POP JUMP JUMPDEST DUP3 DUP2 DUP4 MCOPY PUSH0 DUP4 DUP4 ADD MSTORE POP POP POP JUMP JUMPDEST PUSH0 PUSH1 0x1F NOT PUSH1 0x1F DUP4 ADD AND SWAP1 POP SWAP2 SWAP1 POP JUMP JUMPDEST PUSH0 PUSH2 0x9CB DUP3 PUSH2 0x989 JUMP JUMPDEST PUSH2 0x9D5 DUP2 DUP6 PUSH2 0x993 JUMP JUMPDEST SWAP4 POP PUSH2 0x9E5 DUP2 DUP6 PUSH1 0x20 DUP7 ADD PUSH2 0x9A3 JUMP JUMPDEST PUSH2 0x9EE DUP2 PUSH2 0x9B1 JUMP JUMPDEST DUP5 ADD SWAP2 POP POP SWAP3 SWAP2 POP POP JUMP JUMPDEST PUSH0 PUSH1 0x80 DUP3 ADD SWAP1 POP PUSH2 0xA0C PUSH0 DUP4 ADD DUP8 PUSH2 0x860 JUMP JUMPDEST PUSH2 0xA19 PUSH1 0x20 DUP4 ADD DUP7 PUSH2 0x860 JUMP JUMPDEST PUSH2 0xA26 PUSH1 0x40 DUP4 ADD DUP6 PUSH2 0x97A JUMP JUMPDEST DUP2 DUP2 SUB PUSH1 0x60 DUP4 ADD MSTORE PUSH2 0xA38 DUP2 DUP5 PUSH2 0x9C1 JUMP JUMPDEST SWAP1 POP SWAP6 SWAP5 POP POP POP POP POP JUMP JUMPDEST PUSH0 PUSH1 0x20 DUP3 ADD SWAP1 POP PUSH2 0xA56 PUSH0 DUP4 ADD DUP5 PUSH2 0x97A JUMP JUMPDEST SWAP3 SWAP2 POP POP JUMP JUMPDEST PUSH0 DUP2 MLOAD SWAP1 POP PUSH2 0xA6A DUP2 PUSH2 0x7BB JUMP JUMPDEST SWAP3 SWAP2 POP POP JUMP JUMPDEST PUSH0 PUSH1 0x20 DUP3 DUP5 SUB SLT ISZERO PUSH2 0xA85 JUMPI PUSH2 0xA84 PUSH2 0x754 JUMP JUMPDEST JUMPDEST PUSH0 PUSH2 0xA92 DUP5 DUP3 DUP6 ADD PUSH2 0xA5C JUMP JUMPDEST SWAP2 POP POP SWAP3 SWAP2 POP POP JUMP JUMPDEST PUSH0 PUSH1 0x40 DUP3 ADD SWAP1 POP PUSH2 0xAAE PUSH0 DUP4 ADD DUP6 PUSH2 0x97A JUMP JUMPDEST PUSH2 0xABB PUSH1 0x20 DUP4 ADD DUP5 PUSH2 0x860 JUMP JUMPDEST SWAP4 SWAP3 POP POP POP JUMP JUMPDEST PUSH32 0x556E697377617056324C6962726172793A20494E53554646494349454E545F49 PUSH0 DUP3 ADD MSTORE PUSH32 0x4E5055545F414D4F554E54000000000000000000000000000000000000000000 PUSH1 0x20 DUP3 ADD MSTORE POP JUMP JUMPDEST PUSH0 PUSH2 0xB1C PUSH1 0x2B DUP4 PUSH2 0x8D5 JUMP JUMPDEST SWAP2 POP PUSH2 0xB27 DUP3 PUSH2 0xAC2 JUMP JUMPDEST PUSH1 0x40 DUP3 ADD SWAP1 POP SWAP2 SWAP1 POP JUMP JUMPDEST PUSH0 PUSH1 0x20 DUP3 ADD SWAP1 POP DUP2 DUP2 SUB PUSH0 DUP4 ADD MSTORE PUSH2 0xB49 DUP2 PUSH2 0xB10 JUMP JUMPDEST SWAP1 POP SWAP2 SWAP1 POP JUMP JUMPDEST PUSH32 0x556E697377617056324C6962726172793A20494E53554646494349454E545F4C PUSH0 DUP3 ADD MSTORE PUSH32 0x4951554944495459000000000000000000000000000000000000000000000000 PUSH1 0x20 DUP3 ADD MSTORE POP JUMP JUMPDEST PUSH0 PUSH2 0xBAA PUSH1 0x28 DUP4 PUSH2 0x8D5 JUMP JUMPDEST SWAP2 POP PUSH2 0xBB5 DUP3 PUSH2 0xB50 JUMP JUMPDEST PUSH1 0x40 DUP3 ADD SWAP1 POP SWAP2 SWAP1 POP JUMP JUMPDEST PUSH0 PUSH1 0x20 DUP3 ADD SWAP1 POP DUP2 DUP2 SUB PUSH0 DUP4 ADD MSTORE PUSH2 0xBD7 DUP2 PUSH2 0xB9E JUMP JUMPDEST SWAP1 POP SWAP2 SWAP1 POP JUMP JUMPDEST PUSH32 0x4E487B7100000000000000000000000000000000000000000000000000000000 PUSH0 MSTORE PUSH1 0x11 PUSH1 0x4 MSTORE PUSH1 0x24 PUSH0 REVERT JUMPDEST PUSH0 PUSH2 0xC15 DUP3 PUSH2 0x7B2 JUMP JUMPDEST SWAP2 POP PUSH2 0xC20 DUP4 PUSH2 0x7B2 JUMP JUMPDEST SWAP3 POP DUP3 DUP3 MUL PUSH2 0xC2E DUP2 PUSH2 0x7B2 JUMP JUMPDEST SWAP2 POP DUP3 DUP3 DIV DUP5 EQ DUP4 ISZERO OR PUSH2 0xC45 JUMPI PUSH2 0xC44 PUSH2 0xBDE JUMP JUMPDEST JUMPDEST POP SWAP3 SWAP2 POP POP JUMP JUMPDEST PUSH0 PUSH2 0xC56 DUP3 PUSH2 0x7B2 JUMP JUMPDEST SWAP2 POP PUSH2 0xC61 DUP4 PUSH2 0x7B2 JUMP JUMPDEST SWAP3 POP DUP3 DUP3 ADD SWAP1 POP DUP1 DUP3 GT ISZERO PUSH2 0xC79 JUMPI PUSH2 0xC78 PUSH2 0xBDE JUMP JUMPDEST JUMPDEST SWAP3 SWAP2 POP POP JUMP JUMPDEST PUSH32 0x4E487B7100000000000000000000000000000000000000000000000000000000 PUSH0 MSTORE PUSH1 0x12 PUSH1 0x4 MSTORE PUSH1 0x24 PUSH0 REVERT JUMPDEST PUSH0 PUSH2 0xCB6 DUP3 PUSH2 0x7B2 JUMP JUMPDEST SWAP2 POP PUSH2 0xCC1 DUP4 PUSH2 0x7B2 JUMP JUMPDEST SWAP3 POP DUP3 PUSH2 0xCD1 JUMPI PUSH2 0xCD0 PUSH2 0xC7F JUMP JUMPDEST JUMPDEST DUP3 DUP3 DIV SWAP1 POP SWAP3 SWAP2 POP POP JUMP INVALID LOG2 PUSH5 0x6970667358 0x22 SLT KECCAK256 0xF9 0xA8 0xAC TIMESTAMP GASPRICE DUP15 SAR 0xC8 0xC8 0xBF PUSH3 0x3710F1 SDIV 0x24 0xC9 PUSH19 0xC9ADAB17CC6F577FF7F9E8044E5064736F6C63 NUMBER STOP ADDMOD BYTE STOP CALLER "
				},
				"gasEstimates": {
					"creation": {
						"codeDepositCost": "669200",
						"executionCost": "700",
						"totalCost": "669900"
					},
					"external": {
						"getReservesV2(address)": "infinite",
						"swap(address,address,uint256)": "infinite"
					},
					"internal": {
						"getAmountIn(uint256,uint256,uint256)": "infinite",
						"getAmountOut(uint256,uint256,uint256)": "infinite"
					}
				},
				"methodIdentifiers": {
					"getReservesV2(address)": "ec0a63d8",
					"swap(address,address,uint256)": "df791e50"
				}
			},
			"storageLayout": {
				"storage": [],
				"types": null
			},
			"userdoc": {
				"kind": "user",
				"methods": {},
				"version": 1
			}
		}
	}
}