{
	"contracts/ArbCalc.sol": {
		"ArbitrageCalculator": {
			"abi": [
				{
					"inputs": [
						{
							"internalType": "address",
							"name": "lowerPool",
							"type": "address"
						},
						{
							"internalType": "address",
							"name": "higherPool",
							"type": "address"
						}
					],
					"name": "getBorrowAmountV2",
					"outputs": [
						{
							"internalType": "uint256",
							"name": "amount",
							"type": "uint256"
						}
					],
					"stateMutability": "view",
					"type": "function"
				},
				{
					"inputs": [
						{
							"internalType": "address",
							"name": "lowerPool",
							"type": "address"
						},
						{
							"internalType": "address",
							"name": "higherPool",
							"type": "address"
						}
					],
					"name": "getBorrowAmountV3",
					"outputs": [
						{
							"internalType": "uint256",
							"name": "amount",
							"type": "uint256"
						}
					],
					"stateMutability": "view",
					"type": "function"
				},
				{
					"inputs": [
						{
							"internalType": "address",
							"name": "poolAddress",
							"type": "address"
						}
					],
					"name": "getLiquidityAndPrice",
					"outputs": [
						{
							"internalType": "uint256",
							"name": "_liquidity",
							"type": "uint256"
						},
						{
							"internalType": "uint256",
							"name": "_priceX96",
							"type": "uint256"
						}
					],
					"stateMutability": "view",
					"type": "function"
				},
				{
					"inputs": [
						{
							"internalType": "address",
							"name": "lowPoolAddress",
							"type": "address"
						},
						{
							"internalType": "address",
							"name": "highPoolAddress",
							"type": "address"
						}
					],
					"name": "getMaxProfitableAmount",
					"outputs": [
						{
							"internalType": "uint256",
							"name": "_mpa",
							"type": "uint256"
						}
					],
					"stateMutability": "view",
					"type": "function"
				},
				{
					"inputs": [
						{
							"internalType": "address",
							"name": "poolHigh",
							"type": "address"
						},
						{
							"internalType": "address",
							"name": "poolLow",
							"type": "address"
						}
					],
					"name": "getPriceRatio",
					"outputs": [
						{
							"internalType": "uint256",
							"name": "rel",
							"type": "uint256"
						}
					],
					"stateMutability": "view",
					"type": "function"
				},
				{
					"inputs": [
						{
							"internalType": "address",
							"name": "poolA",
							"type": "address"
						},
						{
							"internalType": "address",
							"name": "poolB",
							"type": "address"
						}
					],
					"name": "getRelativeLiquidity",
					"outputs": [
						{
							"internalType": "uint256",
							"name": "_rel",
							"type": "uint256"
						}
					],
					"stateMutability": "view",
					"type": "function"
				},
				{
					"inputs": [
						{
							"internalType": "address",
							"name": "pair",
							"type": "address"
						}
					],
					"name": "getReservesV2",
					"outputs": [
						{
							"internalType": "uint256",
							"name": "reserve0",
							"type": "uint256"
						},
						{
							"internalType": "uint256",
							"name": "reserve1",
							"type": "uint256"
						}
					],
					"stateMutability": "view",
					"type": "function"
				},
				{
					"inputs": [
						{
							"internalType": "address",
							"name": "pair",
							"type": "address"
						}
					],
					"name": "getReservesV3",
					"outputs": [
						{
							"internalType": "uint256",
							"name": "reserve0",
							"type": "uint256"
						},
						{
							"internalType": "uint256",
							"name": "reserve1",
							"type": "uint256"
						}
					],
					"stateMutability": "view",
					"type": "function"
				},
				{
					"inputs": [
						{
							"internalType": "address",
							"name": "pair",
							"type": "address"
						}
					],
					"name": "reserves0",
					"outputs": [
						{
							"internalType": "uint256",
							"name": "reserve",
							"type": "uint256"
						}
					],
					"stateMutability": "view",
					"type": "function"
				},
				{
					"inputs": [
						{
							"internalType": "address",
							"name": "pair",
							"type": "address"
						}
					],
					"name": "reserves1",
					"outputs": [
						{
							"internalType": "uint256",
							"name": "reserve",
							"type": "uint256"
						}
					],
					"stateMutability": "view",
					"type": "function"
				}
			],
			"devdoc": {
				"kind": "dev",
				"methods": {},
				"version": 1
			},
			"evm": {
				"assembly": "    /* \"contracts/ArbCalc.sol\":304:5740  contract ArbitrageCalculator is Reserves {... */\n  mstore(0x40, 0x80)\n  callvalue\n  dup1\n  iszero\n  tag_1\n  jumpi\n  0x00\n  dup1\n  revert\ntag_1:\n  pop\n  dataSize(sub_0)\n  dup1\n  dataOffset(sub_0)\n  0x00\n  codecopy\n  0x00\n  return\nstop\n\nsub_0: assembly {\n        /* \"contracts/ArbCalc.sol\":304:5740  contract ArbitrageCalculator is Reserves {... */\n      mstore(0x40, 0x80)\n      callvalue\n      dup1\n      iszero\n      tag_1\n      jumpi\n      0x00\n      dup1\n      revert\n    tag_1:\n      pop\n      jumpi(tag_2, lt(calldatasize, 0x04))\n      shr(0xe0, calldataload(0x00))\n      dup1\n      0x7232688e\n      gt\n      tag_13\n      jumpi\n      dup1\n      0x7232688e\n      eq\n      tag_8\n      jumpi\n      dup1\n      0x7d9ada3e\n      eq\n      tag_9\n      jumpi\n      dup1\n      0x9872971a\n      eq\n      tag_10\n      jumpi\n      dup1\n      0xb49bbce5\n      eq\n      tag_11\n      jumpi\n      dup1\n      0xec0a63d8\n      eq\n      tag_12\n      jumpi\n      jump(tag_2)\n    tag_13:\n      dup1\n      0x0d83825b\n      eq\n      tag_3\n      jumpi\n      dup1\n      0x1e953b15\n      eq\n      tag_4\n      jumpi\n      dup1\n      0x1fdd03cb\n      eq\n      tag_5\n      jumpi\n      dup1\n      0x21fef881\n      eq\n      tag_6\n      jumpi\n      dup1\n      0x44401a24\n      eq\n      tag_7\n      jumpi\n    tag_2:\n      0x00\n      dup1\n      revert\n        /* \"contracts/ArbCalc.sol\":1459:1774  function getPriceRatio(address poolHigh, address poolLow) public view returns (uint256 rel)... */\n    tag_3:\n      tag_14\n      0x04\n      dup1\n      calldatasize\n      sub\n      dup2\n      add\n      swap1\n      tag_15\n      swap2\n      swap1\n      tag_16\n      jump\t// in\n    tag_15:\n      tag_17\n      jump\t// in\n    tag_14:\n      mload(0x40)\n      tag_18\n      swap2\n      swap1\n      tag_19\n      jump\t// in\n    tag_18:\n      mload(0x40)\n      dup1\n      swap2\n      sub\n      swap1\n      return\n        /* \"contracts/ArbCalc.sol\":392:669  function getLiquidityAndPrice(address poolAddress) public view returns (uint256 _liquidity, uint256 _priceX96)... */\n    tag_4:\n      tag_20\n      0x04\n      dup1\n      calldatasize\n      sub\n      dup2\n      add\n      swap1\n      tag_21\n      swap2\n      swap1\n      tag_22\n      jump\t// in\n    tag_21:\n      tag_23\n      jump\t// in\n    tag_20:\n      mload(0x40)\n      tag_24\n      swap3\n      swap2\n      swap1\n      tag_25\n      jump\t// in\n    tag_24:\n      mload(0x40)\n      dup1\n      swap2\n      sub\n      swap1\n      return\n        /* \"contracts/Reserves.sol\":342:569  function reserves0(address pair) external view returns ( uint256 reserve) {... */\n    tag_5:\n      tag_26\n      0x04\n      dup1\n      calldatasize\n      sub\n      dup2\n      add\n      swap1\n      tag_27\n      swap2\n      swap1\n      tag_22\n      jump\t// in\n    tag_27:\n      tag_28\n      jump\t// in\n    tag_26:\n      mload(0x40)\n      tag_29\n      swap2\n      swap1\n      tag_19\n      jump\t// in\n    tag_29:\n      mload(0x40)\n      dup1\n      swap2\n      sub\n      swap1\n      return\n        /* \"contracts/ArbCalc.sol\":677:1094  function getMaxProfitableAmount(address lowPoolAddress, address highPoolAddress) public view returns (uint256 _mpa)... */\n    tag_6:\n      tag_30\n      0x04\n      dup1\n      calldatasize\n      sub\n      dup2\n      add\n      swap1\n      tag_31\n      swap2\n      swap1\n      tag_16\n      jump\t// in\n    tag_31:\n      tag_32\n      jump\t// in\n    tag_30:\n      mload(0x40)\n      tag_33\n      swap2\n      swap1\n      tag_19\n      jump\t// in\n    tag_33:\n      mload(0x40)\n      dup1\n      swap2\n      sub\n      swap1\n      return\n        /* \"contracts/ArbCalc.sol\":2128:2460  function getBorrowAmountV3(address lowerPool, address higherPool) external view returns(uint256 amount){... */\n    tag_7:\n      tag_34\n      0x04\n      dup1\n      calldatasize\n      sub\n      dup2\n      add\n      swap1\n      tag_35\n      swap2\n      swap1\n      tag_16\n      jump\t// in\n    tag_35:\n      tag_36\n      jump\t// in\n    tag_34:\n      mload(0x40)\n      tag_37\n      swap2\n      swap1\n      tag_19\n      jump\t// in\n    tag_37:\n      mload(0x40)\n      dup1\n      swap2\n      sub\n      swap1\n      return\n        /* \"contracts/Reserves.sol\":816:1156  function getReservesV3(address pair) public view returns (uint256 reserve0, uint256 reserve1){... */\n    tag_8:\n      tag_38\n      0x04\n      dup1\n      calldatasize\n      sub\n      dup2\n      add\n      swap1\n      tag_39\n      swap2\n      swap1\n      tag_22\n      jump\t// in\n    tag_39:\n      tag_40\n      jump\t// in\n    tag_38:\n      mload(0x40)\n      tag_41\n      swap3\n      swap2\n      swap1\n      tag_25\n      jump\t// in\n    tag_41:\n      mload(0x40)\n      dup1\n      swap2\n      sub\n      swap1\n      return\n        /* \"contracts/ArbCalc.sol\":1788:2120  function getBorrowAmountV2(address lowerPool, address higherPool) external view returns(uint256 amount){... */\n    tag_9:\n      tag_42\n      0x04\n      dup1\n      calldatasize\n      sub\n      dup2\n      add\n      swap1\n      tag_43\n      swap2\n      swap1\n      tag_16\n      jump\t// in\n    tag_43:\n      tag_44\n      jump\t// in\n    tag_42:\n      mload(0x40)\n      tag_45\n      swap2\n      swap1\n      tag_19\n      jump\t// in\n    tag_45:\n      mload(0x40)\n      dup1\n      swap2\n      sub\n      swap1\n      return\n        /* \"contracts/ArbCalc.sol\":1102:1451  function getRelativeLiquidity(address poolA, address poolB) public view returns (uint256 _rel)... */\n    tag_10:\n      tag_46\n      0x04\n      dup1\n      calldatasize\n      sub\n      dup2\n      add\n      swap1\n      tag_47\n      swap2\n      swap1\n      tag_16\n      jump\t// in\n    tag_47:\n      tag_48\n      jump\t// in\n    tag_46:\n      mload(0x40)\n      tag_49\n      swap2\n      swap1\n      tag_19\n      jump\t// in\n    tag_49:\n      mload(0x40)\n      dup1\n      swap2\n      sub\n      swap1\n      return\n        /* \"contracts/Reserves.sol\":581:808  function reserves1(address pair) external view returns ( uint256 reserve) {... */\n    tag_11:\n      tag_50\n      0x04\n      dup1\n      calldatasize\n      sub\n      dup2\n      add\n      swap1\n      tag_51\n      swap2\n      swap1\n      tag_22\n      jump\t// in\n    tag_51:\n      tag_52\n      jump\t// in\n    tag_50:\n      mload(0x40)\n      tag_53\n      swap2\n      swap1\n      tag_19\n      jump\t// in\n    tag_53:\n      mload(0x40)\n      dup1\n      swap2\n      sub\n      swap1\n      return\n        /* \"contracts/Reserves.sol\":1164:1504  function getReservesV2(address pair) public view returns (uint256 reserve0, uint256 reserve1){... */\n    tag_12:\n      tag_54\n      0x04\n      dup1\n      calldatasize\n      sub\n      dup2\n      add\n      swap1\n      tag_55\n      swap2\n      swap1\n      tag_22\n      jump\t// in\n    tag_55:\n      tag_56\n      jump\t// in\n    tag_54:\n      mload(0x40)\n      tag_57\n      swap3\n      swap2\n      swap1\n      tag_25\n      jump\t// in\n    tag_57:\n      mload(0x40)\n      dup1\n      swap2\n      sub\n      swap1\n      return\n        /* \"contracts/ArbCalc.sol\":1459:1774  function getPriceRatio(address poolHigh, address poolLow) public view returns (uint256 rel)... */\n    tag_17:\n        /* \"contracts/ArbCalc.sol\":1538:1549  uint256 rel */\n      0x00\n        /* \"contracts/ArbCalc.sol\":1569:1586  uint256 highQuote */\n      dup1\n        /* \"contracts/ArbCalc.sol\":1590:1620  getLiquidityAndPrice(poolHigh) */\n      tag_59\n        /* \"contracts/ArbCalc.sol\":1611:1619  poolHigh */\n      dup5\n        /* \"contracts/ArbCalc.sol\":1590:1610  getLiquidityAndPrice */\n      tag_23\n        /* \"contracts/ArbCalc.sol\":1590:1620  getLiquidityAndPrice(poolHigh) */\n      jump\t// in\n    tag_59:\n        /* \"contracts/ArbCalc.sol\":1567:1620  (,uint256 highQuote) = getLiquidityAndPrice(poolHigh) */\n      swap2\n      pop\n      pop\n        /* \"contracts/ArbCalc.sol\":1633:1649  uint256 lowQuote */\n      0x00\n        /* \"contracts/ArbCalc.sol\":1653:1682  getLiquidityAndPrice(poolLow) */\n      tag_60\n        /* \"contracts/ArbCalc.sol\":1674:1681  poolLow */\n      dup5\n        /* \"contracts/ArbCalc.sol\":1653:1673  getLiquidityAndPrice */\n      tag_23\n        /* \"contracts/ArbCalc.sol\":1653:1682  getLiquidityAndPrice(poolLow) */\n      jump\t// in\n    tag_60:\n        /* \"contracts/ArbCalc.sol\":1631:1682  (,uint256 lowQuote) = getLiquidityAndPrice(poolLow) */\n      swap2\n      pop\n      pop\n        /* \"contracts/ArbCalc.sol\":1764:1765  2 */\n      0x02\n        /* \"contracts/ArbCalc.sol\":1753:1762  highQuote */\n      dup3\n        /* \"contracts/ArbCalc.sol\":1743:1751  lowQuote */\n      dup3\n        /* \"contracts/ArbCalc.sol\":1743:1762  lowQuote +highQuote */\n      tag_61\n      swap2\n      swap1\n      tag_62\n      jump\t// in\n    tag_61:\n        /* \"contracts/ArbCalc.sol\":1731:1739  lowQuote */\n      dup3\n        /* \"contracts/ArbCalc.sol\":1721:1728  1000000 */\n      0x0f4240\n        /* \"contracts/ArbCalc.sol\":1714:1718  1e18 */\n      0x0de0b6b3a7640000\n        /* \"contracts/ArbCalc.sol\":1702:1711  highQuote */\n      dup7\n        /* \"contracts/ArbCalc.sol\":1702:1718  highQuote / 1e18 */\n      tag_63\n      swap2\n      swap1\n      tag_64\n      jump\t// in\n    tag_63:\n        /* \"contracts/ArbCalc.sol\":1702:1728  highQuote / 1e18 * 1000000 */\n      tag_65\n      swap2\n      swap1\n      tag_66\n      jump\t// in\n    tag_65:\n        /* \"contracts/ArbCalc.sol\":1702:1739  highQuote / 1e18 * 1000000 - lowQuote */\n      tag_67\n      swap2\n      swap1\n      tag_68\n      jump\t// in\n    tag_67:\n        /* \"contracts/ArbCalc.sol\":1701:1763  (highQuote / 1e18 * 1000000 - lowQuote )/(lowQuote +highQuote) */\n      tag_69\n      swap2\n      swap1\n      tag_64\n      jump\t// in\n    tag_69:\n        /* \"contracts/ArbCalc.sol\":1701:1765  (highQuote / 1e18 * 1000000 - lowQuote )/(lowQuote +highQuote)/2 */\n      tag_70\n      swap2\n      swap1\n      tag_64\n      jump\t// in\n    tag_70:\n        /* \"contracts/ArbCalc.sol\":1695:1765  rel = (highQuote / 1e18 * 1000000 - lowQuote )/(lowQuote +highQuote)/2 */\n      swap3\n      pop\n        /* \"contracts/ArbCalc.sol\":1556:1774  {... */\n      pop\n      pop\n        /* \"contracts/ArbCalc.sol\":1459:1774  function getPriceRatio(address poolHigh, address poolLow) public view returns (uint256 rel)... */\n      swap3\n      swap2\n      pop\n      pop\n      jump\t// out\n        /* \"contracts/ArbCalc.sol\":392:669  function getLiquidityAndPrice(address poolAddress) public view returns (uint256 _liquidity, uint256 _priceX96)... */\n    tag_23:\n        /* \"contracts/ArbCalc.sol\":464:482  uint256 _liquidity */\n      0x00\n        /* \"contracts/ArbCalc.sol\":484:501  uint256 _priceX96 */\n      dup1\n        /* \"contracts/ArbCalc.sol\":519:538  IUniswapV3Pool pool */\n      0x00\n        /* \"contracts/ArbCalc.sol\":556:567  poolAddress */\n      dup4\n        /* \"contracts/ArbCalc.sol\":519:568  IUniswapV3Pool pool = IUniswapV3Pool(poolAddress) */\n      swap1\n      pop\n        /* \"contracts/ArbCalc.sol\":599:603  pool */\n      dup1\n        /* \"contracts/ArbCalc.sol\":599:609  pool.slot0 */\n      0xffffffffffffffffffffffffffffffffffffffff\n      and\n      0x3850c7bd\n        /* \"contracts/ArbCalc.sol\":599:611  pool.slot0() */\n      mload(0x40)\n      dup2\n      0xffffffff\n      and\n      0xe0\n      shl\n      dup2\n      mstore\n      0x04\n      add\n      0xe0\n      mload(0x40)\n      dup1\n      dup4\n      sub\n      dup2\n      dup7\n      gas\n      staticcall\n      iszero\n      dup1\n      iszero\n      tag_73\n      jumpi\n      returndatasize\n      0x00\n      dup1\n      returndatacopy\n      revert(0x00, returndatasize)\n    tag_73:\n      pop\n      pop\n      pop\n      pop\n      mload(0x40)\n      returndatasize\n      not(0x1f)\n      0x1f\n      dup3\n      add\n      and\n      dup3\n      add\n      dup1\n      0x40\n      mstore\n      pop\n      dup2\n      add\n      swap1\n      tag_74\n      swap2\n      swap1\n      tag_75\n      jump\t// in\n    tag_74:\n        /* \"contracts/ArbCalc.sol\":579:611  (_priceX96,,,,,,) = pool.slot0() */\n      dup7\n      0xffffffffffffffffffffffffffffffffffffffff\n      and\n      swap7\n      pop\n      swap1\n      swap2\n      swap3\n      swap4\n      swap5\n      pop\n      swap1\n      swap2\n      swap3\n      swap4\n      pop\n      swap1\n      swap2\n      swap3\n      pop\n      swap1\n      swap2\n      pop\n      swap1\n      pop\n      pop\n      dup1\n      swap3\n      pop\n      pop\n        /* \"contracts/ArbCalc.sol\":635:639  pool */\n      dup1\n        /* \"contracts/ArbCalc.sol\":635:649  pool.liquidity */\n      0xffffffffffffffffffffffffffffffffffffffff\n      and\n      0x1a686502\n        /* \"contracts/ArbCalc.sol\":635:651  pool.liquidity() */\n      mload(0x40)\n      dup2\n      0xffffffff\n      and\n      0xe0\n      shl\n      dup2\n      mstore\n      0x04\n      add\n      0x20\n      mload(0x40)\n      dup1\n      dup4\n      sub\n      dup2\n      dup7\n      gas\n      staticcall\n      iszero\n      dup1\n      iszero\n      tag_77\n      jumpi\n      returndatasize\n      0x00\n      dup1\n      returndatacopy\n      revert(0x00, returndatasize)\n    tag_77:\n      pop\n      pop\n      pop\n      pop\n      mload(0x40)\n      returndatasize\n      not(0x1f)\n      0x1f\n      dup3\n      add\n      and\n      dup3\n      add\n      dup1\n      0x40\n      mstore\n      pop\n      dup2\n      add\n      swap1\n      tag_78\n      swap2\n      swap1\n      tag_79\n      jump\t// in\n    tag_78:\n        /* \"contracts/ArbCalc.sol\":622:651  _liquidity = pool.liquidity() */\n      0xffffffffffffffffffffffffffffffff\n      and\n      swap3\n      pop\n        /* \"contracts/ArbCalc.sol\":508:669  {... */\n      pop\n        /* \"contracts/ArbCalc.sol\":392:669  function getLiquidityAndPrice(address poolAddress) public view returns (uint256 _liquidity, uint256 _priceX96)... */\n      swap2\n      pop\n      swap2\n      jump\t// out\n        /* \"contracts/Reserves.sol\":342:569  function reserves0(address pair) external view returns ( uint256 reserve) {... */\n    tag_28:\n        /* \"contracts/Reserves.sol\":399:414  uint256 reserve */\n      0x00\n        /* \"contracts/Reserves.sol\":427:446  IUniswapV3Pool pool */\n      dup1\n        /* \"contracts/Reserves.sol\":464:468  pair */\n      dup3\n        /* \"contracts/Reserves.sol\":427:469  IUniswapV3Pool pool = IUniswapV3Pool(pair) */\n      swap1\n      pop\n        /* \"contracts/Reserves.sol\":480:494  address token0 */\n      0x00\n        /* \"contracts/Reserves.sol\":497:501  pool */\n      dup2\n        /* \"contracts/Reserves.sol\":497:508  pool.token0 */\n      0xffffffffffffffffffffffffffffffffffffffff\n      and\n      0x0dfe1681\n        /* \"contracts/Reserves.sol\":497:510  pool.token0() */\n      mload(0x40)\n      dup2\n      0xffffffff\n      and\n      0xe0\n      shl\n      dup2\n      mstore\n      0x04\n      add\n      0x20\n      mload(0x40)\n      dup1\n      dup4\n      sub\n      dup2\n      dup7\n      gas\n      staticcall\n      iszero\n      dup1\n      iszero\n      tag_82\n      jumpi\n      returndatasize\n      0x00\n      dup1\n      returndatacopy\n      revert(0x00, returndatasize)\n    tag_82:\n      pop\n      pop\n      pop\n      pop\n      mload(0x40)\n      returndatasize\n      not(0x1f)\n      0x1f\n      dup3\n      add\n      and\n      dup3\n      add\n      dup1\n      0x40\n      mstore\n      pop\n      dup2\n      add\n      swap1\n      tag_83\n      swap2\n      swap1\n      tag_84\n      jump\t// in\n    tag_83:\n        /* \"contracts/Reserves.sol\":480:510  address token0 = pool.token0() */\n      swap1\n      pop\n        /* \"contracts/Reserves.sol\":538:544  token0 */\n      dup1\n        /* \"contracts/Reserves.sol\":531:555  IERC20(token0).balanceOf */\n      0xffffffffffffffffffffffffffffffffffffffff\n      and\n      0x70a08231\n        /* \"contracts/Reserves.sol\":556:560  pair */\n      dup6\n        /* \"contracts/Reserves.sol\":531:561  IERC20(token0).balanceOf(pair) */\n      mload(0x40)\n      dup3\n      0xffffffff\n      and\n      0xe0\n      shl\n      dup2\n      mstore\n      0x04\n      add\n      tag_85\n      swap2\n      swap1\n      tag_86\n      jump\t// in\n    tag_85:\n      0x20\n      mload(0x40)\n      dup1\n      dup4\n      sub\n      dup2\n      dup7\n      gas\n      staticcall\n      iszero\n      dup1\n      iszero\n      tag_88\n      jumpi\n      returndatasize\n      0x00\n      dup1\n      returndatacopy\n      revert(0x00, returndatasize)\n    tag_88:\n      pop\n      pop\n      pop\n      pop\n      mload(0x40)\n      returndatasize\n      not(0x1f)\n      0x1f\n      dup3\n      add\n      and\n      dup3\n      add\n      dup1\n      0x40\n      mstore\n      pop\n      dup2\n      add\n      swap1\n      tag_89\n      swap2\n      swap1\n      tag_90\n      jump\t// in\n    tag_89:\n        /* \"contracts/Reserves.sol\":521:561  reserve = IERC20(token0).balanceOf(pair) */\n      swap3\n      pop\n        /* \"contracts/Reserves.sol\":416:569  {... */\n      pop\n      pop\n        /* \"contracts/Reserves.sol\":342:569  function reserves0(address pair) external view returns ( uint256 reserve) {... */\n      swap2\n      swap1\n      pop\n      jump\t// out\n        /* \"contracts/ArbCalc.sol\":677:1094  function getMaxProfitableAmount(address lowPoolAddress, address highPoolAddress) public view returns (uint256 _mpa)... */\n    tag_32:\n        /* \"contracts/ArbCalc.sol\":779:791  uint256 _mpa */\n      0x00\n        /* \"contracts/ArbCalc.sol\":855:875  uint256 relLiquidity */\n      dup1\n        /* \"contracts/ArbCalc.sol\":878:931  getRelativeLiquidity(lowPoolAddress, highPoolAddress) */\n      tag_92\n        /* \"contracts/ArbCalc.sol\":899:913  lowPoolAddress */\n      dup5\n        /* \"contracts/ArbCalc.sol\":915:930  highPoolAddress */\n      dup5\n        /* \"contracts/ArbCalc.sol\":878:898  getRelativeLiquidity */\n      tag_48\n        /* \"contracts/ArbCalc.sol\":878:931  getRelativeLiquidity(lowPoolAddress, highPoolAddress) */\n      jump\t// in\n    tag_92:\n        /* \"contracts/ArbCalc.sol\":855:931  uint256 relLiquidity = getRelativeLiquidity(lowPoolAddress, highPoolAddress) */\n      swap1\n      pop\n        /* \"contracts/ArbCalc.sol\":942:970  uint256 relPriceQuoteLowHigh */\n      0x00\n        /* \"contracts/ArbCalc.sol\":973:1019  getPriceRatio(highPoolAddress, lowPoolAddress) */\n      tag_93\n        /* \"contracts/ArbCalc.sol\":987:1002  highPoolAddress */\n      dup5\n        /* \"contracts/ArbCalc.sol\":1004:1018  lowPoolAddress */\n      dup7\n        /* \"contracts/ArbCalc.sol\":973:986  getPriceRatio */\n      tag_17\n        /* \"contracts/ArbCalc.sol\":973:1019  getPriceRatio(highPoolAddress, lowPoolAddress) */\n      jump\t// in\n    tag_93:\n        /* \"contracts/ArbCalc.sol\":942:1019  uint256 relPriceQuoteLowHigh = getPriceRatio(highPoolAddress, lowPoolAddress) */\n      swap1\n      pop\n        /* \"contracts/ArbCalc.sol\":1080:1084  1e18 */\n      0x0de0b6b3a7640000\n        /* \"contracts/ArbCalc.sol\":1055:1075  relPriceQuoteLowHigh */\n      dup2\n        /* \"contracts/ArbCalc.sol\":1040:1052  relLiquidity */\n      dup4\n        /* \"contracts/ArbCalc.sol\":1040:1075  relLiquidity * relPriceQuoteLowHigh */\n      tag_94\n      swap2\n      swap1\n      tag_66\n      jump\t// in\n    tag_94:\n        /* \"contracts/ArbCalc.sol\":1039:1085  (relLiquidity * relPriceQuoteLowHigh) / (1e18) */\n      tag_95\n      swap2\n      swap1\n      tag_64\n      jump\t// in\n    tag_95:\n        /* \"contracts/ArbCalc.sol\":1032:1085  return (relLiquidity * relPriceQuoteLowHigh) / (1e18) */\n      swap3\n      pop\n      pop\n      pop\n        /* \"contracts/ArbCalc.sol\":677:1094  function getMaxProfitableAmount(address lowPoolAddress, address highPoolAddress) public view returns (uint256 _mpa)... */\n      swap3\n      swap2\n      pop\n      pop\n      jump\t// out\n        /* \"contracts/ArbCalc.sol\":2128:2460  function getBorrowAmountV3(address lowerPool, address higherPool) external view returns(uint256 amount){... */\n    tag_36:\n        /* \"contracts/ArbCalc.sol\":2216:2230  uint256 amount */\n      0x00\n        /* \"contracts/ArbCalc.sol\":2242:2273  OrderedReserves memory reserves */\n      tag_97\n      tag_98\n      jump\t// in\n    tag_97:\n        /* \"contracts/ArbCalc.sol\":2315:2339  getReservesV3(lowerPool) */\n      tag_99\n        /* \"contracts/ArbCalc.sol\":2329:2338  lowerPool */\n      dup5\n        /* \"contracts/ArbCalc.sol\":2315:2328  getReservesV3 */\n      tag_40\n        /* \"contracts/ArbCalc.sol\":2315:2339  getReservesV3(lowerPool) */\n      jump\t// in\n    tag_99:\n        /* \"contracts/ArbCalc.sol\":2287:2295  reserves */\n      dup3\n        /* \"contracts/ArbCalc.sol\":2287:2298  reserves.a1 */\n      0x00\n      add\n        /* \"contracts/ArbCalc.sol\":2300:2308  reserves */\n      dup4\n        /* \"contracts/ArbCalc.sol\":2300:2311  reserves.b1 */\n      0x20\n      add\n        /* \"contracts/ArbCalc.sol\":2286:2339  (reserves.a1, reserves.b1) = getReservesV3(lowerPool) */\n      dup3\n      dup2\n      mstore\n      pop\n      dup3\n      dup2\n      mstore\n      pop\n      pop\n      pop\n        /* \"contracts/ArbCalc.sol\":2379:2404  getReservesV3(higherPool) */\n      tag_100\n        /* \"contracts/ArbCalc.sol\":2393:2403  higherPool */\n      dup4\n        /* \"contracts/ArbCalc.sol\":2379:2392  getReservesV3 */\n      tag_40\n        /* \"contracts/ArbCalc.sol\":2379:2404  getReservesV3(higherPool) */\n      jump\t// in\n    tag_100:\n        /* \"contracts/ArbCalc.sol\":2351:2359  reserves */\n      dup3\n        /* \"contracts/ArbCalc.sol\":2351:2362  reserves.a2 */\n      0x40\n      add\n        /* \"contracts/ArbCalc.sol\":2364:2372  reserves */\n      dup4\n        /* \"contracts/ArbCalc.sol\":2364:2375  reserves.b2 */\n      0x60\n      add\n        /* \"contracts/ArbCalc.sol\":2350:2404  (reserves.a2, reserves.b2) = getReservesV3(higherPool) */\n      dup3\n      dup2\n      mstore\n      pop\n      dup3\n      dup2\n      mstore\n      pop\n      pop\n      pop\n        /* \"contracts/ArbCalc.sol\":2426:2452  calcBorrowAmount(reserves) */\n      tag_101\n        /* \"contracts/ArbCalc.sol\":2443:2451  reserves */\n      dup2\n        /* \"contracts/ArbCalc.sol\":2426:2442  calcBorrowAmount */\n      tag_102\n        /* \"contracts/ArbCalc.sol\":2426:2452  calcBorrowAmount(reserves) */\n      jump\t// in\n    tag_101:\n        /* \"contracts/ArbCalc.sol\":2417:2452  amount = calcBorrowAmount(reserves) */\n      swap2\n      pop\n        /* \"contracts/ArbCalc.sol\":2231:2460  {... */\n      pop\n        /* \"contracts/ArbCalc.sol\":2128:2460  function getBorrowAmountV3(address lowerPool, address higherPool) external view returns(uint256 amount){... */\n      swap3\n      swap2\n      pop\n      pop\n      jump\t// out\n        /* \"contracts/Reserves.sol\":816:1156  function getReservesV3(address pair) public view returns (uint256 reserve0, uint256 reserve1){... */\n    tag_40:\n        /* \"contracts/Reserves.sol\":874:890  uint256 reserve0 */\n      0x00\n        /* \"contracts/Reserves.sol\":892:908  uint256 reserve1 */\n      dup1\n        /* \"contracts/Reserves.sol\":920:939  IUniswapV3Pool pool */\n      0x00\n        /* \"contracts/Reserves.sol\":957:961  pair */\n      dup4\n        /* \"contracts/Reserves.sol\":920:962  IUniswapV3Pool pool = IUniswapV3Pool(pair) */\n      swap1\n      pop\n        /* \"contracts/Reserves.sol\":973:987  address token0 */\n      0x00\n        /* \"contracts/Reserves.sol\":990:994  pool */\n      dup2\n        /* \"contracts/Reserves.sol\":990:1001  pool.token0 */\n      0xffffffffffffffffffffffffffffffffffffffff\n      and\n      0x0dfe1681\n        /* \"contracts/Reserves.sol\":990:1003  pool.token0() */\n      mload(0x40)\n      dup2\n      0xffffffff\n      and\n      0xe0\n      shl\n      dup2\n      mstore\n      0x04\n      add\n      0x20\n      mload(0x40)\n      dup1\n      dup4\n      sub\n      dup2\n      dup7\n      gas\n      staticcall\n      iszero\n      dup1\n      iszero\n      tag_105\n      jumpi\n      returndatasize\n      0x00\n      dup1\n      returndatacopy\n      revert(0x00, returndatasize)\n    tag_105:\n      pop\n      pop\n      pop\n      pop\n      mload(0x40)\n      returndatasize\n      not(0x1f)\n      0x1f\n      dup3\n      add\n      and\n      dup3\n      add\n      dup1\n      0x40\n      mstore\n      pop\n      dup2\n      add\n      swap1\n      tag_106\n      swap2\n      swap1\n      tag_84\n      jump\t// in\n    tag_106:\n        /* \"contracts/Reserves.sol\":973:1003  address token0 = pool.token0() */\n      swap1\n      pop\n        /* \"contracts/Reserves.sol\":1014:1028  address token1 */\n      0x00\n        /* \"contracts/Reserves.sol\":1031:1035  pool */\n      dup3\n        /* \"contracts/Reserves.sol\":1031:1042  pool.token1 */\n      0xffffffffffffffffffffffffffffffffffffffff\n      and\n      0xd21220a7\n        /* \"contracts/Reserves.sol\":1031:1044  pool.token1() */\n      mload(0x40)\n      dup2\n      0xffffffff\n      and\n      0xe0\n      shl\n      dup2\n      mstore\n      0x04\n      add\n      0x20\n      mload(0x40)\n      dup1\n      dup4\n      sub\n      dup2\n      dup7\n      gas\n      staticcall\n      iszero\n      dup1\n      iszero\n      tag_108\n      jumpi\n      returndatasize\n      0x00\n      dup1\n      returndatacopy\n      revert(0x00, returndatasize)\n    tag_108:\n      pop\n      pop\n      pop\n      pop\n      mload(0x40)\n      returndatasize\n      not(0x1f)\n      0x1f\n      dup3\n      add\n      and\n      dup3\n      add\n      dup1\n      0x40\n      mstore\n      pop\n      dup2\n      add\n      swap1\n      tag_109\n      swap2\n      swap1\n      tag_84\n      jump\t// in\n    tag_109:\n        /* \"contracts/Reserves.sol\":1014:1044  address token1 = pool.token1() */\n      swap1\n      pop\n        /* \"contracts/Reserves.sol\":1073:1079  token0 */\n      dup2\n        /* \"contracts/Reserves.sol\":1066:1090  IERC20(token0).balanceOf */\n      0xffffffffffffffffffffffffffffffffffffffff\n      and\n      0x70a08231\n        /* \"contracts/Reserves.sol\":1091:1095  pair */\n      dup8\n        /* \"contracts/Reserves.sol\":1066:1096  IERC20(token0).balanceOf(pair) */\n      mload(0x40)\n      dup3\n      0xffffffff\n      and\n      0xe0\n      shl\n      dup2\n      mstore\n      0x04\n      add\n      tag_110\n      swap2\n      swap1\n      tag_86\n      jump\t// in\n    tag_110:\n      0x20\n      mload(0x40)\n      dup1\n      dup4\n      sub\n      dup2\n      dup7\n      gas\n      staticcall\n      iszero\n      dup1\n      iszero\n      tag_112\n      jumpi\n      returndatasize\n      0x00\n      dup1\n      returndatacopy\n      revert(0x00, returndatasize)\n    tag_112:\n      pop\n      pop\n      pop\n      pop\n      mload(0x40)\n      returndatasize\n      not(0x1f)\n      0x1f\n      dup3\n      add\n      and\n      dup3\n      add\n      dup1\n      0x40\n      mstore\n      pop\n      dup2\n      add\n      swap1\n      tag_113\n      swap2\n      swap1\n      tag_90\n      jump\t// in\n    tag_113:\n        /* \"contracts/Reserves.sol\":1055:1096  reserve0 = IERC20(token0).balanceOf(pair) */\n      swap5\n      pop\n        /* \"contracts/Reserves.sol\":1125:1131  token1 */\n      dup1\n        /* \"contracts/Reserves.sol\":1118:1142  IERC20(token1).balanceOf */\n      0xffffffffffffffffffffffffffffffffffffffff\n      and\n      0x70a08231\n        /* \"contracts/Reserves.sol\":1143:1147  pair */\n      dup8\n        /* \"contracts/Reserves.sol\":1118:1148  IERC20(token1).balanceOf(pair) */\n      mload(0x40)\n      dup3\n      0xffffffff\n      and\n      0xe0\n      shl\n      dup2\n      mstore\n      0x04\n      add\n      tag_114\n      swap2\n      swap1\n      tag_86\n      jump\t// in\n    tag_114:\n      0x20\n      mload(0x40)\n      dup1\n      dup4\n      sub\n      dup2\n      dup7\n      gas\n      staticcall\n      iszero\n      dup1\n      iszero\n      tag_116\n      jumpi\n      returndatasize\n      0x00\n      dup1\n      returndatacopy\n      revert(0x00, returndatasize)\n    tag_116:\n      pop\n      pop\n      pop\n      pop\n      mload(0x40)\n      returndatasize\n      not(0x1f)\n      0x1f\n      dup3\n      add\n      and\n      dup3\n      add\n      dup1\n      0x40\n      mstore\n      pop\n      dup2\n      add\n      swap1\n      tag_117\n      swap2\n      swap1\n      tag_90\n      jump\t// in\n    tag_117:\n        /* \"contracts/Reserves.sol\":1107:1148  reserve1 = IERC20(token1).balanceOf(pair) */\n      swap4\n      pop\n        /* \"contracts/Reserves.sol\":909:1156  {... */\n      pop\n      pop\n      pop\n        /* \"contracts/Reserves.sol\":816:1156  function getReservesV3(address pair) public view returns (uint256 reserve0, uint256 reserve1){... */\n      swap2\n      pop\n      swap2\n      jump\t// out\n        /* \"contracts/ArbCalc.sol\":1788:2120  function getBorrowAmountV2(address lowerPool, address higherPool) external view returns(uint256 amount){... */\n    tag_44:\n        /* \"contracts/ArbCalc.sol\":1876:1890  uint256 amount */\n      0x00\n        /* \"contracts/ArbCalc.sol\":1902:1933  OrderedReserves memory reserves */\n      tag_119\n      tag_98\n      jump\t// in\n    tag_119:\n        /* \"contracts/ArbCalc.sol\":1975:1999  getReservesV2(lowerPool) */\n      tag_120\n        /* \"contracts/ArbCalc.sol\":1989:1998  lowerPool */\n      dup5\n        /* \"contracts/ArbCalc.sol\":1975:1988  getReservesV2 */\n      tag_56\n        /* \"contracts/ArbCalc.sol\":1975:1999  getReservesV2(lowerPool) */\n      jump\t// in\n    tag_120:\n        /* \"contracts/ArbCalc.sol\":1947:1955  reserves */\n      dup3\n        /* \"contracts/ArbCalc.sol\":1947:1958  reserves.a1 */\n      0x00\n      add\n        /* \"contracts/ArbCalc.sol\":1960:1968  reserves */\n      dup4\n        /* \"contracts/ArbCalc.sol\":1960:1971  reserves.b1 */\n      0x20\n      add\n        /* \"contracts/ArbCalc.sol\":1946:1999  (reserves.a1, reserves.b1) = getReservesV2(lowerPool) */\n      dup3\n      dup2\n      mstore\n      pop\n      dup3\n      dup2\n      mstore\n      pop\n      pop\n      pop\n        /* \"contracts/ArbCalc.sol\":2039:2064  getReservesV2(higherPool) */\n      tag_121\n        /* \"contracts/ArbCalc.sol\":2053:2063  higherPool */\n      dup4\n        /* \"contracts/ArbCalc.sol\":2039:2052  getReservesV2 */\n      tag_56\n        /* \"contracts/ArbCalc.sol\":2039:2064  getReservesV2(higherPool) */\n      jump\t// in\n    tag_121:\n        /* \"contracts/ArbCalc.sol\":2011:2019  reserves */\n      dup3\n        /* \"contracts/ArbCalc.sol\":2011:2022  reserves.a2 */\n      0x40\n      add\n        /* \"contracts/ArbCalc.sol\":2024:2032  reserves */\n      dup4\n        /* \"contracts/ArbCalc.sol\":2024:2035  reserves.b2 */\n      0x60\n      add\n        /* \"contracts/ArbCalc.sol\":2010:2064  (reserves.a2, reserves.b2) = getReservesV2(higherPool) */\n      dup3\n      dup2\n      mstore\n      pop\n      dup3\n      dup2\n      mstore\n      pop\n      pop\n      pop\n        /* \"contracts/ArbCalc.sol\":2086:2112  calcBorrowAmount(reserves) */\n      tag_122\n        /* \"contracts/ArbCalc.sol\":2103:2111  reserves */\n      dup2\n        /* \"contracts/ArbCalc.sol\":2086:2102  calcBorrowAmount */\n      tag_102\n        /* \"contracts/ArbCalc.sol\":2086:2112  calcBorrowAmount(reserves) */\n      jump\t// in\n    tag_122:\n        /* \"contracts/ArbCalc.sol\":2077:2112  amount = calcBorrowAmount(reserves) */\n      swap2\n      pop\n        /* \"contracts/ArbCalc.sol\":1891:2120  {... */\n      pop\n        /* \"contracts/ArbCalc.sol\":1788:2120  function getBorrowAmountV2(address lowerPool, address higherPool) external view returns(uint256 amount){... */\n      swap3\n      swap2\n      pop\n      pop\n      jump\t// out\n        /* \"contracts/ArbCalc.sol\":1102:1451  function getRelativeLiquidity(address poolA, address poolB) public view returns (uint256 _rel)... */\n    tag_48:\n        /* \"contracts/ArbCalc.sol\":1183:1195  uint256 _rel */\n      0x00\n        /* \"contracts/ArbCalc.sol\":1214:1236  uint256 liquidityPoolA */\n      dup1\n        /* \"contracts/ArbCalc.sol\":1241:1268  getLiquidityAndPrice(poolA) */\n      tag_124\n        /* \"contracts/ArbCalc.sol\":1262:1267  poolA */\n      dup5\n        /* \"contracts/ArbCalc.sol\":1241:1261  getLiquidityAndPrice */\n      tag_23\n        /* \"contracts/ArbCalc.sol\":1241:1268  getLiquidityAndPrice(poolA) */\n      jump\t// in\n    tag_124:\n        /* \"contracts/ArbCalc.sol\":1213:1268  (uint256 liquidityPoolA,) = getLiquidityAndPrice(poolA) */\n      pop\n      swap1\n      pop\n        /* \"contracts/ArbCalc.sol\":1280:1302  uint256 liquidityPoolB */\n      0x00\n        /* \"contracts/ArbCalc.sol\":1307:1334  getLiquidityAndPrice(poolB) */\n      tag_125\n        /* \"contracts/ArbCalc.sol\":1328:1333  poolB */\n      dup5\n        /* \"contracts/ArbCalc.sol\":1307:1327  getLiquidityAndPrice */\n      tag_23\n        /* \"contracts/ArbCalc.sol\":1307:1334  getLiquidityAndPrice(poolB) */\n      jump\t// in\n    tag_125:\n        /* \"contracts/ArbCalc.sol\":1279:1334  (uint256 liquidityPoolB,) = getLiquidityAndPrice(poolB) */\n      pop\n      swap1\n      pop\n        /* \"contracts/ArbCalc.sol\":1440:1441  2 */\n      0x02\n        /* \"contracts/ArbCalc.sol\":1425:1439  liquidityPoolA */\n      dup3\n        /* \"contracts/ArbCalc.sol\":1425:1441  liquidityPoolA/2 */\n      tag_126\n      swap2\n      swap1\n      tag_64\n      jump\t// in\n    tag_126:\n        /* \"contracts/ArbCalc.sol\":1408:1422  liquidityPoolB */\n      dup2\n        /* \"contracts/ArbCalc.sol\":1408:1441  liquidityPoolB + liquidityPoolA/2 */\n      tag_127\n      swap2\n      swap1\n      tag_62\n      jump\t// in\n    tag_127:\n        /* \"contracts/ArbCalc.sol\":1389:1403  liquidityPoolB */\n      dup2\n        /* \"contracts/ArbCalc.sol\":1379:1386  1000000 */\n      0x0f4240\n        /* \"contracts/ArbCalc.sol\":1372:1376  1e18 */\n      0x0de0b6b3a7640000\n        /* \"contracts/ArbCalc.sol\":1355:1369  liquidityPoolA */\n      dup6\n        /* \"contracts/ArbCalc.sol\":1355:1376  liquidityPoolA / 1e18 */\n      tag_128\n      swap2\n      swap1\n      tag_64\n      jump\t// in\n    tag_128:\n        /* \"contracts/ArbCalc.sol\":1355:1386  liquidityPoolA / 1e18 * 1000000 */\n      tag_129\n      swap2\n      swap1\n      tag_66\n      jump\t// in\n    tag_129:\n        /* \"contracts/ArbCalc.sol\":1355:1403  liquidityPoolA / 1e18 * 1000000 - liquidityPoolB */\n      tag_130\n      swap2\n      swap1\n      tag_68\n      jump\t// in\n    tag_130:\n        /* \"contracts/ArbCalc.sol\":1354:1442  (liquidityPoolA / 1e18 * 1000000 - liquidityPoolB) / (liquidityPoolB + liquidityPoolA/2) */\n      tag_131\n      swap2\n      swap1\n      tag_64\n      jump\t// in\n    tag_131:\n        /* \"contracts/ArbCalc.sol\":1347:1442  return (liquidityPoolA / 1e18 * 1000000 - liquidityPoolB) / (liquidityPoolB + liquidityPoolA/2) */\n      swap3\n      pop\n      pop\n      pop\n        /* \"contracts/ArbCalc.sol\":1102:1451  function getRelativeLiquidity(address poolA, address poolB) public view returns (uint256 _rel)... */\n      swap3\n      swap2\n      pop\n      pop\n      jump\t// out\n        /* \"contracts/Reserves.sol\":581:808  function reserves1(address pair) external view returns ( uint256 reserve) {... */\n    tag_52:\n        /* \"contracts/Reserves.sol\":638:653  uint256 reserve */\n      0x00\n        /* \"contracts/Reserves.sol\":666:685  IUniswapV3Pool pool */\n      dup1\n        /* \"contracts/Reserves.sol\":703:707  pair */\n      dup3\n        /* \"contracts/Reserves.sol\":666:708  IUniswapV3Pool pool = IUniswapV3Pool(pair) */\n      swap1\n      pop\n        /* \"contracts/Reserves.sol\":719:733  address token1 */\n      0x00\n        /* \"contracts/Reserves.sol\":736:740  pool */\n      dup2\n        /* \"contracts/Reserves.sol\":736:747  pool.token1 */\n      0xffffffffffffffffffffffffffffffffffffffff\n      and\n      0xd21220a7\n        /* \"contracts/Reserves.sol\":736:749  pool.token1() */\n      mload(0x40)\n      dup2\n      0xffffffff\n      and\n      0xe0\n      shl\n      dup2\n      mstore\n      0x04\n      add\n      0x20\n      mload(0x40)\n      dup1\n      dup4\n      sub\n      dup2\n      dup7\n      gas\n      staticcall\n      iszero\n      dup1\n      iszero\n      tag_134\n      jumpi\n      returndatasize\n      0x00\n      dup1\n      returndatacopy\n      revert(0x00, returndatasize)\n    tag_134:\n      pop\n      pop\n      pop\n      pop\n      mload(0x40)\n      returndatasize\n      not(0x1f)\n      0x1f\n      dup3\n      add\n      and\n      dup3\n      add\n      dup1\n      0x40\n      mstore\n      pop\n      dup2\n      add\n      swap1\n      tag_135\n      swap2\n      swap1\n      tag_84\n      jump\t// in\n    tag_135:\n        /* \"contracts/Reserves.sol\":719:749  address token1 = pool.token1() */\n      swap1\n      pop\n        /* \"contracts/Reserves.sol\":777:783  token1 */\n      dup1\n        /* \"contracts/Reserves.sol\":770:794  IERC20(token1).balanceOf */\n      0xffffffffffffffffffffffffffffffffffffffff\n      and\n      0x70a08231\n        /* \"contracts/Reserves.sol\":795:799  pair */\n      dup6\n        /* \"contracts/Reserves.sol\":770:800  IERC20(token1).balanceOf(pair) */\n      mload(0x40)\n      dup3\n      0xffffffff\n      and\n      0xe0\n      shl\n      dup2\n      mstore\n      0x04\n      add\n      tag_136\n      swap2\n      swap1\n      tag_86\n      jump\t// in\n    tag_136:\n      0x20\n      mload(0x40)\n      dup1\n      dup4\n      sub\n      dup2\n      dup7\n      gas\n      staticcall\n      iszero\n      dup1\n      iszero\n      tag_138\n      jumpi\n      returndatasize\n      0x00\n      dup1\n      returndatacopy\n      revert(0x00, returndatasize)\n    tag_138:\n      pop\n      pop\n      pop\n      pop\n      mload(0x40)\n      returndatasize\n      not(0x1f)\n      0x1f\n      dup3\n      add\n      and\n      dup3\n      add\n      dup1\n      0x40\n      mstore\n      pop\n      dup2\n      add\n      swap1\n      tag_139\n      swap2\n      swap1\n      tag_90\n      jump\t// in\n    tag_139:\n        /* \"contracts/Reserves.sol\":760:800  reserve = IERC20(token1).balanceOf(pair) */\n      swap3\n      pop\n        /* \"contracts/Reserves.sol\":655:808  {... */\n      pop\n      pop\n        /* \"contracts/Reserves.sol\":581:808  function reserves1(address pair) external view returns ( uint256 reserve) {... */\n      swap2\n      swap1\n      pop\n      jump\t// out\n        /* \"contracts/Reserves.sol\":1164:1504  function getReservesV2(address pair) public view returns (uint256 reserve0, uint256 reserve1){... */\n    tag_56:\n        /* \"contracts/Reserves.sol\":1222:1238  uint256 reserve0 */\n      0x00\n        /* \"contracts/Reserves.sol\":1240:1256  uint256 reserve1 */\n      dup1\n        /* \"contracts/Reserves.sol\":1268:1287  IUniswapV2Pair pool */\n      0x00\n        /* \"contracts/Reserves.sol\":1305:1309  pair */\n      dup4\n        /* \"contracts/Reserves.sol\":1268:1310  IUniswapV2Pair pool = IUniswapV2Pair(pair) */\n      swap1\n      pop\n        /* \"contracts/Reserves.sol\":1321:1335  address token0 */\n      0x00\n        /* \"contracts/Reserves.sol\":1338:1342  pool */\n      dup2\n        /* \"contracts/Reserves.sol\":1338:1349  pool.token0 */\n      0xffffffffffffffffffffffffffffffffffffffff\n      and\n      0x0dfe1681\n        /* \"contracts/Reserves.sol\":1338:1351  pool.token0() */\n      mload(0x40)\n      dup2\n      0xffffffff\n      and\n      0xe0\n      shl\n      dup2\n      mstore\n      0x04\n      add\n      0x20\n      mload(0x40)\n      dup1\n      dup4\n      sub\n      dup2\n      dup7\n      gas\n      staticcall\n      iszero\n      dup1\n      iszero\n      tag_142\n      jumpi\n      returndatasize\n      0x00\n      dup1\n      returndatacopy\n      revert(0x00, returndatasize)\n    tag_142:\n      pop\n      pop\n      pop\n      pop\n      mload(0x40)\n      returndatasize\n      not(0x1f)\n      0x1f\n      dup3\n      add\n      and\n      dup3\n      add\n      dup1\n      0x40\n      mstore\n      pop\n      dup2\n      add\n      swap1\n      tag_143\n      swap2\n      swap1\n      tag_84\n      jump\t// in\n    tag_143:\n        /* \"contracts/Reserves.sol\":1321:1351  address token0 = pool.token0() */\n      swap1\n      pop\n        /* \"contracts/Reserves.sol\":1362:1376  address token1 */\n      0x00\n        /* \"contracts/Reserves.sol\":1379:1383  pool */\n      dup3\n        /* \"contracts/Reserves.sol\":1379:1390  pool.token1 */\n      0xffffffffffffffffffffffffffffffffffffffff\n      and\n      0xd21220a7\n        /* \"contracts/Reserves.sol\":1379:1392  pool.token1() */\n      mload(0x40)\n      dup2\n      0xffffffff\n      and\n      0xe0\n      shl\n      dup2\n      mstore\n      0x04\n      add\n      0x20\n      mload(0x40)\n      dup1\n      dup4\n      sub\n      dup2\n      dup7\n      gas\n      staticcall\n      iszero\n      dup1\n      iszero\n      tag_145\n      jumpi\n      returndatasize\n      0x00\n      dup1\n      returndatacopy\n      revert(0x00, returndatasize)\n    tag_145:\n      pop\n      pop\n      pop\n      pop\n      mload(0x40)\n      returndatasize\n      not(0x1f)\n      0x1f\n      dup3\n      add\n      and\n      dup3\n      add\n      dup1\n      0x40\n      mstore\n      pop\n      dup2\n      add\n      swap1\n      tag_146\n      swap2\n      swap1\n      tag_84\n      jump\t// in\n    tag_146:\n        /* \"contracts/Reserves.sol\":1362:1392  address token1 = pool.token1() */\n      swap1\n      pop\n        /* \"contracts/Reserves.sol\":1421:1427  token0 */\n      dup2\n        /* \"contracts/Reserves.sol\":1414:1438  IERC20(token0).balanceOf */\n      0xffffffffffffffffffffffffffffffffffffffff\n      and\n      0x70a08231\n        /* \"contracts/Reserves.sol\":1439:1443  pair */\n      dup8\n        /* \"contracts/Reserves.sol\":1414:1444  IERC20(token0).balanceOf(pair) */\n      mload(0x40)\n      dup3\n      0xffffffff\n      and\n      0xe0\n      shl\n      dup2\n      mstore\n      0x04\n      add\n      tag_147\n      swap2\n      swap1\n      tag_86\n      jump\t// in\n    tag_147:\n      0x20\n      mload(0x40)\n      dup1\n      dup4\n      sub\n      dup2\n      dup7\n      gas\n      staticcall\n      iszero\n      dup1\n      iszero\n      tag_149\n      jumpi\n      returndatasize\n      0x00\n      dup1\n      returndatacopy\n      revert(0x00, returndatasize)\n    tag_149:\n      pop\n      pop\n      pop\n      pop\n      mload(0x40)\n      returndatasize\n      not(0x1f)\n      0x1f\n      dup3\n      add\n      and\n      dup3\n      add\n      dup1\n      0x40\n      mstore\n      pop\n      dup2\n      add\n      swap1\n      tag_150\n      swap2\n      swap1\n      tag_90\n      jump\t// in\n    tag_150:\n        /* \"contracts/Reserves.sol\":1403:1444  reserve0 = IERC20(token0).balanceOf(pair) */\n      swap5\n      pop\n        /* \"contracts/Reserves.sol\":1473:1479  token1 */\n      dup1\n        /* \"contracts/Reserves.sol\":1466:1490  IERC20(token1).balanceOf */\n      0xffffffffffffffffffffffffffffffffffffffff\n      and\n      0x70a08231\n        /* \"contracts/Reserves.sol\":1491:1495  pair */\n      dup8\n        /* \"contracts/Reserves.sol\":1466:1496  IERC20(token1).balanceOf(pair) */\n      mload(0x40)\n      dup3\n      0xffffffff\n      and\n      0xe0\n      shl\n      dup2\n      mstore\n      0x04\n      add\n      tag_151\n      swap2\n      swap1\n      tag_86\n      jump\t// in\n    tag_151:\n      0x20\n      mload(0x40)\n      dup1\n      dup4\n      sub\n      dup2\n      dup7\n      gas\n      staticcall\n      iszero\n      dup1\n      iszero\n      tag_153\n      jumpi\n      returndatasize\n      0x00\n      dup1\n      returndatacopy\n      revert(0x00, returndatasize)\n    tag_153:\n      pop\n      pop\n      pop\n      pop\n      mload(0x40)\n      returndatasize\n      not(0x1f)\n      0x1f\n      dup3\n      add\n      and\n      dup3\n      add\n      dup1\n      0x40\n      mstore\n      pop\n      dup2\n      add\n      swap1\n      tag_154\n      swap2\n      swap1\n      tag_90\n      jump\t// in\n    tag_154:\n        /* \"contracts/Reserves.sol\":1455:1496  reserve1 = IERC20(token1).balanceOf(pair) */\n      swap4\n      pop\n        /* \"contracts/Reserves.sol\":1257:1504  {... */\n      pop\n      pop\n      pop\n        /* \"contracts/Reserves.sol\":1164:1504  function getReservesV2(address pair) public view returns (uint256 reserve0, uint256 reserve1){... */\n      swap2\n      pop\n      swap2\n      jump\t// out\n        /* \"contracts/ArbCalc.sol\":2468:4572  function calcBorrowAmount(OrderedReserves memory reserves) internal pure returns (uint256 amount) {... */\n    tag_102:\n        /* \"contracts/ArbCalc.sol\":2550:2564  uint256 amount */\n      0x00\n        /* \"contracts/ArbCalc.sol\":3042:3054  uint256 min1 */\n      dup1\n        /* \"contracts/ArbCalc.sol\":3071:3079  reserves */\n      dup3\n        /* \"contracts/ArbCalc.sol\":3071:3082  reserves.b1 */\n      0x20\n      add\n      mload\n        /* \"contracts/ArbCalc.sol\":3057:3065  reserves */\n      dup4\n        /* \"contracts/ArbCalc.sol\":3057:3068  reserves.a1 */\n      0x00\n      add\n      mload\n        /* \"contracts/ArbCalc.sol\":3057:3082  reserves.a1 < reserves.b1 */\n      lt\n        /* \"contracts/ArbCalc.sol\":3057:3110  reserves.a1 < reserves.b1 ? reserves.a1 : reserves.b1 */\n      tag_156\n      jumpi\n        /* \"contracts/ArbCalc.sol\":3099:3107  reserves */\n      dup3\n        /* \"contracts/ArbCalc.sol\":3099:3110  reserves.b1 */\n      0x20\n      add\n      mload\n        /* \"contracts/ArbCalc.sol\":3057:3110  reserves.a1 < reserves.b1 ? reserves.a1 : reserves.b1 */\n      jump(tag_157)\n    tag_156:\n        /* \"contracts/ArbCalc.sol\":3085:3093  reserves */\n      dup3\n        /* \"contracts/ArbCalc.sol\":3085:3096  reserves.a1 */\n      0x00\n      add\n      mload\n        /* \"contracts/ArbCalc.sol\":3057:3110  reserves.a1 < reserves.b1 ? reserves.a1 : reserves.b1 */\n    tag_157:\n        /* \"contracts/ArbCalc.sol\":3042:3110  uint256 min1 = reserves.a1 < reserves.b1 ? reserves.a1 : reserves.b1 */\n      swap1\n      pop\n        /* \"contracts/ArbCalc.sol\":3121:3133  uint256 min2 */\n      0x00\n        /* \"contracts/ArbCalc.sol\":3150:3158  reserves */\n      dup4\n        /* \"contracts/ArbCalc.sol\":3150:3161  reserves.b2 */\n      0x60\n      add\n      mload\n        /* \"contracts/ArbCalc.sol\":3136:3144  reserves */\n      dup5\n        /* \"contracts/ArbCalc.sol\":3136:3147  reserves.a2 */\n      0x40\n      add\n      mload\n        /* \"contracts/ArbCalc.sol\":3136:3161  reserves.a2 < reserves.b2 */\n      lt\n        /* \"contracts/ArbCalc.sol\":3136:3189  reserves.a2 < reserves.b2 ? reserves.a2 : reserves.b2 */\n      tag_158\n      jumpi\n        /* \"contracts/ArbCalc.sol\":3178:3186  reserves */\n      dup4\n        /* \"contracts/ArbCalc.sol\":3178:3189  reserves.b2 */\n      0x60\n      add\n      mload\n        /* \"contracts/ArbCalc.sol\":3136:3189  reserves.a2 < reserves.b2 ? reserves.a2 : reserves.b2 */\n      jump(tag_159)\n    tag_158:\n        /* \"contracts/ArbCalc.sol\":3164:3172  reserves */\n      dup4\n        /* \"contracts/ArbCalc.sol\":3164:3175  reserves.a2 */\n      0x40\n      add\n      mload\n        /* \"contracts/ArbCalc.sol\":3136:3189  reserves.a2 < reserves.b2 ? reserves.a2 : reserves.b2 */\n    tag_159:\n        /* \"contracts/ArbCalc.sol\":3121:3189  uint256 min2 = reserves.a2 < reserves.b2 ? reserves.a2 : reserves.b2 */\n      swap1\n      pop\n        /* \"contracts/ArbCalc.sol\":3200:3211  uint256 min */\n      0x00\n        /* \"contracts/ArbCalc.sol\":3221:3225  min2 */\n      dup2\n        /* \"contracts/ArbCalc.sol\":3214:3218  min1 */\n      dup4\n        /* \"contracts/ArbCalc.sol\":3214:3225  min1 < min2 */\n      lt\n        /* \"contracts/ArbCalc.sol\":3214:3239  min1 < min2 ? min1 : min2 */\n      tag_160\n      jumpi\n        /* \"contracts/ArbCalc.sol\":3235:3239  min2 */\n      dup2\n        /* \"contracts/ArbCalc.sol\":3214:3239  min1 < min2 ? min1 : min2 */\n      jump(tag_161)\n    tag_160:\n        /* \"contracts/ArbCalc.sol\":3228:3232  min1 */\n      dup3\n        /* \"contracts/ArbCalc.sol\":3214:3239  min1 < min2 ? min1 : min2 */\n    tag_161:\n        /* \"contracts/ArbCalc.sol\":3200:3239  uint256 min = min1 < min2 ? min1 : min2 */\n      swap1\n      pop\n        /* \"contracts/ArbCalc.sol\":3328:3337  uint256 d */\n      0x00\n        /* \"contracts/ArbCalc.sol\":3358:3362  1e24 */\n      0xd3c21bcecceda1000000\n        /* \"contracts/ArbCalc.sol\":3352:3355  min */\n      dup3\n        /* \"contracts/ArbCalc.sol\":3352:3362  min > 1e24 */\n      gt\n        /* \"contracts/ArbCalc.sol\":3348:3953  if (min > 1e24) {... */\n      iszero\n      tag_162\n      jumpi\n        /* \"contracts/ArbCalc.sol\":3383:3387  1e20 */\n      0x056bc75e2d63100000\n        /* \"contracts/ArbCalc.sol\":3379:3387  d = 1e20 */\n      swap1\n      pop\n        /* \"contracts/ArbCalc.sol\":3348:3953  if (min > 1e24) {... */\n      jump(tag_163)\n    tag_162:\n        /* \"contracts/ArbCalc.sol\":3415:3419  1e23 */\n      0x152d02c7e14af6800000\n        /* \"contracts/ArbCalc.sol\":3409:3412  min */\n      dup3\n        /* \"contracts/ArbCalc.sol\":3409:3419  min > 1e23 */\n      gt\n        /* \"contracts/ArbCalc.sol\":3405:3953  if (min > 1e23) {... */\n      iszero\n      tag_164\n      jumpi\n        /* \"contracts/ArbCalc.sol\":3440:3444  1e19 */\n      0x8ac7230489e80000\n        /* \"contracts/ArbCalc.sol\":3436:3444  d = 1e19 */\n      swap1\n      pop\n        /* \"contracts/ArbCalc.sol\":3405:3953  if (min > 1e23) {... */\n      jump(tag_165)\n    tag_164:\n        /* \"contracts/ArbCalc.sol\":3472:3476  1e22 */\n      0x021e19e0c9bab2400000\n        /* \"contracts/ArbCalc.sol\":3466:3469  min */\n      dup3\n        /* \"contracts/ArbCalc.sol\":3466:3476  min > 1e22 */\n      gt\n        /* \"contracts/ArbCalc.sol\":3462:3953  if (min > 1e22) {... */\n      iszero\n      tag_166\n      jumpi\n        /* \"contracts/ArbCalc.sol\":3497:3501  1e18 */\n      0x0de0b6b3a7640000\n        /* \"contracts/ArbCalc.sol\":3493:3501  d = 1e18 */\n      swap1\n      pop\n        /* \"contracts/ArbCalc.sol\":3462:3953  if (min > 1e22) {... */\n      jump(tag_167)\n    tag_166:\n        /* \"contracts/ArbCalc.sol\":3529:3533  1e21 */\n      0x3635c9adc5dea00000\n        /* \"contracts/ArbCalc.sol\":3523:3526  min */\n      dup3\n        /* \"contracts/ArbCalc.sol\":3523:3533  min > 1e21 */\n      gt\n        /* \"contracts/ArbCalc.sol\":3519:3953  if (min > 1e21) {... */\n      iszero\n      tag_168\n      jumpi\n        /* \"contracts/ArbCalc.sol\":3554:3558  1e17 */\n      0x016345785d8a0000\n        /* \"contracts/ArbCalc.sol\":3550:3558  d = 1e17 */\n      swap1\n      pop\n        /* \"contracts/ArbCalc.sol\":3519:3953  if (min > 1e21) {... */\n      jump(tag_169)\n    tag_168:\n        /* \"contracts/ArbCalc.sol\":3586:3590  1e20 */\n      0x056bc75e2d63100000\n        /* \"contracts/ArbCalc.sol\":3580:3583  min */\n      dup3\n        /* \"contracts/ArbCalc.sol\":3580:3590  min > 1e20 */\n      gt\n        /* \"contracts/ArbCalc.sol\":3576:3953  if (min > 1e20) {... */\n      iszero\n      tag_170\n      jumpi\n        /* \"contracts/ArbCalc.sol\":3611:3615  1e16 */\n      0x2386f26fc10000\n        /* \"contracts/ArbCalc.sol\":3607:3615  d = 1e16 */\n      swap1\n      pop\n        /* \"contracts/ArbCalc.sol\":3576:3953  if (min > 1e20) {... */\n      jump(tag_171)\n    tag_170:\n        /* \"contracts/ArbCalc.sol\":3643:3647  1e19 */\n      0x8ac7230489e80000\n        /* \"contracts/ArbCalc.sol\":3637:3640  min */\n      dup3\n        /* \"contracts/ArbCalc.sol\":3637:3647  min > 1e19 */\n      gt\n        /* \"contracts/ArbCalc.sol\":3633:3953  if (min > 1e19) {... */\n      iszero\n      tag_172\n      jumpi\n        /* \"contracts/ArbCalc.sol\":3668:3672  1e15 */\n      0x038d7ea4c68000\n        /* \"contracts/ArbCalc.sol\":3664:3672  d = 1e15 */\n      swap1\n      pop\n        /* \"contracts/ArbCalc.sol\":3633:3953  if (min > 1e19) {... */\n      jump(tag_173)\n    tag_172:\n        /* \"contracts/ArbCalc.sol\":3700:3704  1e18 */\n      0x0de0b6b3a7640000\n        /* \"contracts/ArbCalc.sol\":3694:3697  min */\n      dup3\n        /* \"contracts/ArbCalc.sol\":3694:3704  min > 1e18 */\n      gt\n        /* \"contracts/ArbCalc.sol\":3690:3953  if (min > 1e18) {... */\n      iszero\n      tag_174\n      jumpi\n        /* \"contracts/ArbCalc.sol\":3725:3729  1e14 */\n      0x5af3107a4000\n        /* \"contracts/ArbCalc.sol\":3721:3729  d = 1e14 */\n      swap1\n      pop\n        /* \"contracts/ArbCalc.sol\":3690:3953  if (min > 1e18) {... */\n      jump(tag_175)\n    tag_174:\n        /* \"contracts/ArbCalc.sol\":3757:3761  1e17 */\n      0x016345785d8a0000\n        /* \"contracts/ArbCalc.sol\":3751:3754  min */\n      dup3\n        /* \"contracts/ArbCalc.sol\":3751:3761  min > 1e17 */\n      gt\n        /* \"contracts/ArbCalc.sol\":3747:3953  if (min > 1e17) {... */\n      iszero\n      tag_176\n      jumpi\n        /* \"contracts/ArbCalc.sol\":3782:3786  1e13 */\n      0x09184e72a000\n        /* \"contracts/ArbCalc.sol\":3778:3786  d = 1e13 */\n      swap1\n      pop\n        /* \"contracts/ArbCalc.sol\":3747:3953  if (min > 1e17) {... */\n      jump(tag_177)\n    tag_176:\n        /* \"contracts/ArbCalc.sol\":3814:3818  1e16 */\n      0x2386f26fc10000\n        /* \"contracts/ArbCalc.sol\":3808:3811  min */\n      dup3\n        /* \"contracts/ArbCalc.sol\":3808:3818  min > 1e16 */\n      gt\n        /* \"contracts/ArbCalc.sol\":3804:3953  if (min > 1e16) {... */\n      iszero\n      tag_178\n      jumpi\n        /* \"contracts/ArbCalc.sol\":3839:3843  1e12 */\n      0xe8d4a51000\n        /* \"contracts/ArbCalc.sol\":3835:3843  d = 1e12 */\n      swap1\n      pop\n        /* \"contracts/ArbCalc.sol\":3804:3953  if (min > 1e16) {... */\n      jump(tag_179)\n    tag_178:\n        /* \"contracts/ArbCalc.sol\":3871:3875  1e15 */\n      0x038d7ea4c68000\n        /* \"contracts/ArbCalc.sol\":3865:3868  min */\n      dup3\n        /* \"contracts/ArbCalc.sol\":3865:3875  min > 1e15 */\n      gt\n        /* \"contracts/ArbCalc.sol\":3861:3953  if (min > 1e15) {... */\n      iszero\n      tag_180\n      jumpi\n        /* \"contracts/ArbCalc.sol\":3896:3900  1e11 */\n      0x174876e800\n        /* \"contracts/ArbCalc.sol\":3892:3900  d = 1e11 */\n      swap1\n      pop\n        /* \"contracts/ArbCalc.sol\":3861:3953  if (min > 1e15) {... */\n      jump(tag_181)\n    tag_180:\n        /* \"contracts/ArbCalc.sol\":3937:3941  1e10 */\n      0x02540be400\n        /* \"contracts/ArbCalc.sol\":3933:3941  d = 1e10 */\n      swap1\n      pop\n        /* \"contracts/ArbCalc.sol\":3861:3953  if (min > 1e15) {... */\n    tag_181:\n        /* \"contracts/ArbCalc.sol\":3804:3953  if (min > 1e16) {... */\n    tag_179:\n        /* \"contracts/ArbCalc.sol\":3747:3953  if (min > 1e17) {... */\n    tag_177:\n        /* \"contracts/ArbCalc.sol\":3690:3953  if (min > 1e18) {... */\n    tag_175:\n        /* \"contracts/ArbCalc.sol\":3633:3953  if (min > 1e19) {... */\n    tag_173:\n        /* \"contracts/ArbCalc.sol\":3576:3953  if (min > 1e20) {... */\n    tag_171:\n        /* \"contracts/ArbCalc.sol\":3519:3953  if (min > 1e21) {... */\n    tag_169:\n        /* \"contracts/ArbCalc.sol\":3462:3953  if (min > 1e22) {... */\n    tag_167:\n        /* \"contracts/ArbCalc.sol\":3405:3953  if (min > 1e23) {... */\n    tag_165:\n        /* \"contracts/ArbCalc.sol\":3348:3953  if (min > 1e24) {... */\n    tag_163:\n        /* \"contracts/ArbCalc.sol\":3966:3975  int256 a1 */\n      0x00\n        /* \"contracts/ArbCalc.sol\":3977:3986  int256 a2 */\n      dup1\n        /* \"contracts/ArbCalc.sol\":3988:3997  int256 b1 */\n      0x00\n        /* \"contracts/ArbCalc.sol\":3999:4008  int256 b2 */\n      dup1\n        /* \"contracts/ArbCalc.sol\":4047:4048  d */\n      dup5\n        /* \"contracts/ArbCalc.sol\":4033:4041  reserves */\n      dup11\n        /* \"contracts/ArbCalc.sol\":4033:4044  reserves.a1 */\n      0x00\n      add\n      mload\n        /* \"contracts/ArbCalc.sol\":4033:4048  reserves.a1 / d */\n      tag_182\n      swap2\n      swap1\n      tag_64\n      jump\t// in\n    tag_182:\n        /* \"contracts/ArbCalc.sol\":4072:4073  d */\n      dup6\n        /* \"contracts/ArbCalc.sol\":4058:4066  reserves */\n      dup12\n        /* \"contracts/ArbCalc.sol\":4058:4069  reserves.a2 */\n      0x40\n      add\n      mload\n        /* \"contracts/ArbCalc.sol\":4058:4073  reserves.a2 / d */\n      tag_183\n      swap2\n      swap1\n      tag_64\n      jump\t// in\n    tag_183:\n        /* \"contracts/ArbCalc.sol\":4097:4098  d */\n      dup7\n        /* \"contracts/ArbCalc.sol\":4083:4091  reserves */\n      dup13\n        /* \"contracts/ArbCalc.sol\":4083:4094  reserves.b1 */\n      0x20\n      add\n      mload\n        /* \"contracts/ArbCalc.sol\":4083:4098  reserves.b1 / d */\n      tag_184\n      swap2\n      swap1\n      tag_64\n      jump\t// in\n    tag_184:\n        /* \"contracts/ArbCalc.sol\":4122:4123  d */\n      dup8\n        /* \"contracts/ArbCalc.sol\":4108:4116  reserves */\n      dup14\n        /* \"contracts/ArbCalc.sol\":4108:4119  reserves.b2 */\n      0x60\n      add\n      mload\n        /* \"contracts/ArbCalc.sol\":4108:4123  reserves.b2 / d */\n      tag_185\n      swap2\n      swap1\n      tag_64\n      jump\t// in\n    tag_185:\n        /* \"contracts/ArbCalc.sol\":3965:4125  (int256 a1, int256 a2, int256 b1, int256 b2) =... */\n      swap4\n      pop\n      swap4\n      pop\n      swap4\n      pop\n      swap4\n      pop\n        /* \"contracts/ArbCalc.sol\":4138:4146  int256 a */\n      0x00\n        /* \"contracts/ArbCalc.sol\":4164:4166  b2 */\n      dup2\n        /* \"contracts/ArbCalc.sol\":4159:4161  a2 */\n      dup5\n        /* \"contracts/ArbCalc.sol\":4159:4166  a2 * b2 */\n      tag_186\n      swap2\n      swap1\n      tag_187\n      jump\t// in\n    tag_186:\n        /* \"contracts/ArbCalc.sol\":4154:4156  b1 */\n      dup4\n        /* \"contracts/ArbCalc.sol\":4149:4151  a1 */\n      dup7\n        /* \"contracts/ArbCalc.sol\":4149:4156  a1 * b1 */\n      tag_188\n      swap2\n      swap1\n      tag_187\n      jump\t// in\n    tag_188:\n        /* \"contracts/ArbCalc.sol\":4149:4166  a1 * b1 - a2 * b2 */\n      tag_189\n      swap2\n      swap1\n      tag_190\n      jump\t// in\n    tag_189:\n        /* \"contracts/ArbCalc.sol\":4138:4166  int256 a = a1 * b1 - a2 * b2 */\n      swap1\n      pop\n        /* \"contracts/ArbCalc.sol\":4177:4185  int256 b */\n      0x00\n        /* \"contracts/ArbCalc.sol\":4208:4210  a2 */\n      dup5\n        /* \"contracts/ArbCalc.sol\":4203:4205  a1 */\n      dup7\n        /* \"contracts/ArbCalc.sol\":4203:4210  a1 + a2 */\n      tag_191\n      swap2\n      swap1\n      tag_192\n      jump\t// in\n    tag_191:\n        /* \"contracts/ArbCalc.sol\":4197:4199  b2 */\n      dup4\n        /* \"contracts/ArbCalc.sol\":4192:4194  b1 */\n      dup6\n        /* \"contracts/ArbCalc.sol\":4188:4189  2 */\n      0x02\n        /* \"contracts/ArbCalc.sol\":4188:4194  2 * b1 */\n      tag_193\n      swap2\n      swap1\n      tag_187\n      jump\t// in\n    tag_193:\n        /* \"contracts/ArbCalc.sol\":4188:4199  2 * b1 * b2 */\n      tag_194\n      swap2\n      swap1\n      tag_187\n      jump\t// in\n    tag_194:\n        /* \"contracts/ArbCalc.sol\":4188:4211  2 * b1 * b2 * (a1 + a2) */\n      tag_195\n      swap2\n      swap1\n      tag_187\n      jump\t// in\n    tag_195:\n        /* \"contracts/ArbCalc.sol\":4177:4211  int256 b = 2 * b1 * b2 * (a1 + a2) */\n      swap1\n      pop\n        /* \"contracts/ArbCalc.sol\":4222:4230  int256 c */\n      0x00\n        /* \"contracts/ArbCalc.sol\":4259:4261  b1 */\n      dup5\n        /* \"contracts/ArbCalc.sol\":4254:4256  a2 */\n      dup7\n        /* \"contracts/ArbCalc.sol\":4254:4261  a2 * b1 */\n      tag_196\n      swap2\n      swap1\n      tag_187\n      jump\t// in\n    tag_196:\n        /* \"contracts/ArbCalc.sol\":4249:4251  b2 */\n      dup5\n        /* \"contracts/ArbCalc.sol\":4244:4246  a1 */\n      dup9\n        /* \"contracts/ArbCalc.sol\":4244:4251  a1 * b2 */\n      tag_197\n      swap2\n      swap1\n      tag_187\n      jump\t// in\n    tag_197:\n        /* \"contracts/ArbCalc.sol\":4244:4261  a1 * b2 - a2 * b1 */\n      tag_198\n      swap2\n      swap1\n      tag_190\n      jump\t// in\n    tag_198:\n        /* \"contracts/ArbCalc.sol\":4238:4240  b2 */\n      dup5\n        /* \"contracts/ArbCalc.sol\":4233:4235  b1 */\n      dup7\n        /* \"contracts/ArbCalc.sol\":4233:4240  b1 * b2 */\n      tag_199\n      swap2\n      swap1\n      tag_187\n      jump\t// in\n    tag_199:\n        /* \"contracts/ArbCalc.sol\":4233:4262  b1 * b2 * (a1 * b2 - a2 * b1) */\n      tag_200\n      swap2\n      swap1\n      tag_187\n      jump\t// in\n    tag_200:\n        /* \"contracts/ArbCalc.sol\":4222:4262  int256 c = b1 * b2 * (a1 * b2 - a2 * b1) */\n      swap1\n      pop\n        /* \"contracts/ArbCalc.sol\":4276:4285  int256 x1 */\n      0x00\n        /* \"contracts/ArbCalc.sol\":4287:4296  int256 x2 */\n      dup1\n        /* \"contracts/ArbCalc.sol\":4300:4333  calcSolutionForQuadratic(a, b, c) */\n      tag_201\n        /* \"contracts/ArbCalc.sol\":4325:4326  a */\n      dup6\n        /* \"contracts/ArbCalc.sol\":4328:4329  b */\n      dup6\n        /* \"contracts/ArbCalc.sol\":4331:4332  c */\n      dup6\n        /* \"contracts/ArbCalc.sol\":4300:4324  calcSolutionForQuadratic */\n      tag_202\n        /* \"contracts/ArbCalc.sol\":4300:4333  calcSolutionForQuadratic(a, b, c) */\n      jump\t// in\n    tag_201:\n        /* \"contracts/ArbCalc.sol\":4275:4333  (int256 x1, int256 x2) = calcSolutionForQuadratic(a, b, c) */\n      swap2\n      pop\n      swap2\n      pop\n        /* \"contracts/ArbCalc.sol\":4398:4399  0 */\n      0x00\n        /* \"contracts/ArbCalc.sol\":4393:4395  x1 */\n      dup3\n        /* \"contracts/ArbCalc.sol\":4393:4399  x1 > 0 */\n      sgt\n        /* \"contracts/ArbCalc.sol\":4393:4410  x1 > 0 && x1 < b1 */\n      dup1\n      iszero\n      tag_203\n      jumpi\n      pop\n        /* \"contracts/ArbCalc.sol\":4408:4410  b1 */\n      dup7\n        /* \"contracts/ArbCalc.sol\":4403:4405  x1 */\n      dup3\n        /* \"contracts/ArbCalc.sol\":4403:4410  x1 < b1 */\n      slt\n        /* \"contracts/ArbCalc.sol\":4393:4410  x1 > 0 && x1 < b1 */\n    tag_203:\n        /* \"contracts/ArbCalc.sol\":4393:4421  x1 > 0 && x1 < b1 && x1 < b2 */\n      dup1\n      iszero\n      tag_204\n      jumpi\n      pop\n        /* \"contracts/ArbCalc.sol\":4419:4421  b2 */\n      dup6\n        /* \"contracts/ArbCalc.sol\":4414:4416  x1 */\n      dup3\n        /* \"contracts/ArbCalc.sol\":4414:4421  x1 < b2 */\n      slt\n        /* \"contracts/ArbCalc.sol\":4393:4421  x1 > 0 && x1 < b1 && x1 < b2 */\n    tag_204:\n        /* \"contracts/ArbCalc.sol\":4392:4456  (x1 > 0 && x1 < b1 && x1 < b2) || (x2 > 0 && x2 < b1 && x2 < b2) */\n      dup1\n      tag_205\n      jumpi\n      pop\n        /* \"contracts/ArbCalc.sol\":4432:4433  0 */\n      0x00\n        /* \"contracts/ArbCalc.sol\":4427:4429  x2 */\n      dup2\n        /* \"contracts/ArbCalc.sol\":4427:4433  x2 > 0 */\n      sgt\n        /* \"contracts/ArbCalc.sol\":4427:4444  x2 > 0 && x2 < b1 */\n      dup1\n      iszero\n      tag_206\n      jumpi\n      pop\n        /* \"contracts/ArbCalc.sol\":4442:4444  b1 */\n      dup7\n        /* \"contracts/ArbCalc.sol\":4437:4439  x2 */\n      dup2\n        /* \"contracts/ArbCalc.sol\":4437:4444  x2 < b1 */\n      slt\n        /* \"contracts/ArbCalc.sol\":4427:4444  x2 > 0 && x2 < b1 */\n    tag_206:\n        /* \"contracts/ArbCalc.sol\":4427:4455  x2 > 0 && x2 < b1 && x2 < b2 */\n      dup1\n      iszero\n      tag_207\n      jumpi\n      pop\n        /* \"contracts/ArbCalc.sol\":4453:4455  b2 */\n      dup6\n        /* \"contracts/ArbCalc.sol\":4448:4450  x2 */\n      dup2\n        /* \"contracts/ArbCalc.sol\":4448:4455  x2 < b2 */\n      slt\n        /* \"contracts/ArbCalc.sol\":4427:4455  x2 > 0 && x2 < b1 && x2 < b2 */\n    tag_207:\n        /* \"contracts/ArbCalc.sol\":4392:4456  (x1 > 0 && x1 < b1 && x1 < b2) || (x2 > 0 && x2 < b1 && x2 < b2) */\n    tag_205:\n        /* \"contracts/ArbCalc.sol\":4384:4478  require((x1 > 0 && x1 < b1 && x1 < b2) || (x2 > 0 && x2 < b1 && x2 < b2), 'Wrong input order') */\n      tag_208\n      jumpi\n      mload(0x40)\n      0x08c379a000000000000000000000000000000000000000000000000000000000\n      dup2\n      mstore\n      0x04\n      add\n      tag_209\n      swap1\n      tag_210\n      jump\t// in\n    tag_209:\n      mload(0x40)\n      dup1\n      swap2\n      sub\n      swap1\n      revert\n    tag_208:\n        /* \"contracts/ArbCalc.sol\":4504:4505  0 */\n      0x00\n        /* \"contracts/ArbCalc.sol\":4499:4501  x1 */\n      dup3\n        /* \"contracts/ArbCalc.sol\":4499:4505  x1 > 0 */\n      sgt\n        /* \"contracts/ArbCalc.sol\":4499:4516  x1 > 0 && x1 < b1 */\n      dup1\n      iszero\n      tag_211\n      jumpi\n      pop\n        /* \"contracts/ArbCalc.sol\":4514:4516  b1 */\n      dup7\n        /* \"contracts/ArbCalc.sol\":4509:4511  x1 */\n      dup3\n        /* \"contracts/ArbCalc.sol\":4509:4516  x1 < b1 */\n      slt\n        /* \"contracts/ArbCalc.sol\":4499:4516  x1 > 0 && x1 < b1 */\n    tag_211:\n        /* \"contracts/ArbCalc.sol\":4499:4527  x1 > 0 && x1 < b1 && x1 < b2 */\n      dup1\n      iszero\n      tag_212\n      jumpi\n      pop\n        /* \"contracts/ArbCalc.sol\":4525:4527  b2 */\n      dup6\n        /* \"contracts/ArbCalc.sol\":4520:4522  x1 */\n      dup3\n        /* \"contracts/ArbCalc.sol\":4520:4527  x1 < b2 */\n      slt\n        /* \"contracts/ArbCalc.sol\":4499:4527  x1 > 0 && x1 < b1 && x1 < b2 */\n    tag_212:\n        /* \"contracts/ArbCalc.sol\":4498:4564  (x1 > 0 && x1 < b1 && x1 < b2) ? uint256(x1) * d : uint256(x2) * d */\n      tag_213\n      jumpi\n        /* \"contracts/ArbCalc.sol\":4563:4564  d */\n      dup10\n        /* \"contracts/ArbCalc.sol\":4557:4559  x2 */\n      dup2\n        /* \"contracts/ArbCalc.sol\":4549:4564  uint256(x2) * d */\n      tag_214\n      swap2\n      swap1\n      tag_66\n      jump\t// in\n    tag_214:\n        /* \"contracts/ArbCalc.sol\":4498:4564  (x1 > 0 && x1 < b1 && x1 < b2) ? uint256(x1) * d : uint256(x2) * d */\n      jump(tag_215)\n    tag_213:\n        /* \"contracts/ArbCalc.sol\":4545:4546  d */\n      dup10\n        /* \"contracts/ArbCalc.sol\":4539:4541  x1 */\n      dup3\n        /* \"contracts/ArbCalc.sol\":4531:4546  uint256(x1) * d */\n      tag_216\n      swap2\n      swap1\n      tag_66\n      jump\t// in\n    tag_216:\n        /* \"contracts/ArbCalc.sol\":4498:4564  (x1 > 0 && x1 < b1 && x1 < b2) ? uint256(x1) * d : uint256(x2) * d */\n    tag_215:\n        /* \"contracts/ArbCalc.sol\":4489:4564  amount = (x1 > 0 && x1 < b1 && x1 < b2) ? uint256(x1) * d : uint256(x2) * d */\n      swap14\n      pop\n        /* \"contracts/ArbCalc.sol\":2566:4572  {... */\n      pop\n      pop\n      pop\n      pop\n      pop\n      pop\n      pop\n      pop\n      pop\n      pop\n      pop\n      pop\n      pop\n        /* \"contracts/ArbCalc.sol\":2468:4572  function calcBorrowAmount(OrderedReserves memory reserves) internal pure returns (uint256 amount) {... */\n      swap2\n      swap1\n      pop\n      jump\t// out\n        /* \"contracts/ArbCalc.sol\":4684:5086  function calcSolutionForQuadratic(... */\n    tag_202:\n        /* \"contracts/ArbCalc.sol\":4805:4814  int256 x1 */\n      0x00\n        /* \"contracts/ArbCalc.sol\":4816:4825  int256 x2 */\n      dup1\n        /* \"contracts/ArbCalc.sol\":4838:4846  int256 m */\n      0x00\n        /* \"contracts/ArbCalc.sol\":4864:4865  c */\n      dup4\n        /* \"contracts/ArbCalc.sol\":4860:4861  a */\n      dup7\n        /* \"contracts/ArbCalc.sol\":4856:4857  4 */\n      0x04\n        /* \"contracts/ArbCalc.sol\":4856:4861  4 * a */\n      tag_218\n      swap2\n      swap1\n      tag_187\n      jump\t// in\n    tag_218:\n        /* \"contracts/ArbCalc.sol\":4856:4865  4 * a * c */\n      tag_219\n      swap2\n      swap1\n      tag_187\n      jump\t// in\n    tag_219:\n        /* \"contracts/ArbCalc.sol\":4852:4853  2 */\n      0x02\n        /* \"contracts/ArbCalc.sol\":4849:4850  b */\n      dup7\n        /* \"contracts/ArbCalc.sol\":4849:4853  b**2 */\n      tag_220\n      swap2\n      swap1\n      tag_221\n      jump\t// in\n    tag_220:\n        /* \"contracts/ArbCalc.sol\":4849:4865  b**2 - 4 * a * c */\n      tag_222\n      swap2\n      swap1\n      tag_190\n      jump\t// in\n    tag_222:\n        /* \"contracts/ArbCalc.sol\":4838:4865  int256 m = b**2 - 4 * a * c */\n      swap1\n      pop\n        /* \"contracts/ArbCalc.sol\":4930:4931  0 */\n      0x00\n        /* \"contracts/ArbCalc.sol\":4926:4927  m */\n      dup2\n        /* \"contracts/ArbCalc.sol\":4926:4931  m > 0 */\n      sgt\n        /* \"contracts/ArbCalc.sol\":4918:4950  require(m > 0, 'Complex number') */\n      tag_223\n      jumpi\n      mload(0x40)\n      0x08c379a000000000000000000000000000000000000000000000000000000000\n      dup2\n      mstore\n      0x04\n      add\n      tag_224\n      swap1\n      tag_225\n      jump\t// in\n    tag_224:\n      mload(0x40)\n      dup1\n      swap2\n      sub\n      swap1\n      revert\n    tag_223:\n        /* \"contracts/ArbCalc.sol\":4963:4975  int256 sqrtM */\n      0x00\n        /* \"contracts/ArbCalc.sol\":4985:5001  sqrt(uint256(m)) */\n      tag_226\n        /* \"contracts/ArbCalc.sol\":4998:4999  m */\n      dup3\n        /* \"contracts/ArbCalc.sol\":4985:4989  sqrt */\n      tag_227\n        /* \"contracts/ArbCalc.sol\":4985:5001  sqrt(uint256(m)) */\n      jump\t// in\n    tag_226:\n        /* \"contracts/ArbCalc.sol\":4963:5002  int256 sqrtM = int256(sqrt(uint256(m))) */\n      swap1\n      pop\n        /* \"contracts/ArbCalc.sol\":5038:5039  a */\n      dup7\n        /* \"contracts/ArbCalc.sol\":5034:5035  2 */\n      0x02\n        /* \"contracts/ArbCalc.sol\":5034:5039  2 * a */\n      tag_228\n      swap2\n      swap1\n      tag_187\n      jump\t// in\n    tag_228:\n        /* \"contracts/ArbCalc.sol\":5024:5029  sqrtM */\n      dup2\n        /* \"contracts/ArbCalc.sol\":5020:5021  b */\n      dup8\n        /* \"contracts/ArbCalc.sol\":5019:5021  -b */\n      tag_229\n      swap1\n      tag_230\n      jump\t// in\n    tag_229:\n        /* \"contracts/ArbCalc.sol\":5019:5029  -b + sqrtM */\n      tag_231\n      swap2\n      swap1\n      tag_192\n      jump\t// in\n    tag_231:\n        /* \"contracts/ArbCalc.sol\":5018:5040  (-b + sqrtM) / (2 * a) */\n      tag_232\n      swap2\n      swap1\n      tag_233\n      jump\t// in\n    tag_232:\n        /* \"contracts/ArbCalc.sol\":5013:5040  x1 = (-b + sqrtM) / (2 * a) */\n      swap4\n      pop\n        /* \"contracts/ArbCalc.sol\":5076:5077  a */\n      dup7\n        /* \"contracts/ArbCalc.sol\":5072:5073  2 */\n      0x02\n        /* \"contracts/ArbCalc.sol\":5072:5077  2 * a */\n      tag_234\n      swap2\n      swap1\n      tag_187\n      jump\t// in\n    tag_234:\n        /* \"contracts/ArbCalc.sol\":5062:5067  sqrtM */\n      dup2\n        /* \"contracts/ArbCalc.sol\":5058:5059  b */\n      dup8\n        /* \"contracts/ArbCalc.sol\":5057:5059  -b */\n      tag_235\n      swap1\n      tag_230\n      jump\t// in\n    tag_235:\n        /* \"contracts/ArbCalc.sol\":5057:5067  -b - sqrtM */\n      tag_236\n      swap2\n      swap1\n      tag_190\n      jump\t// in\n    tag_236:\n        /* \"contracts/ArbCalc.sol\":5056:5078  (-b - sqrtM) / (2 * a) */\n      tag_237\n      swap2\n      swap1\n      tag_233\n      jump\t// in\n    tag_237:\n        /* \"contracts/ArbCalc.sol\":5051:5078  x2 = (-b - sqrtM) / (2 * a) */\n      swap3\n      pop\n        /* \"contracts/ArbCalc.sol\":4827:5086  {... */\n      pop\n      pop\n        /* \"contracts/ArbCalc.sol\":4684:5086  function calcSolutionForQuadratic(... */\n      swap4\n      pop\n      swap4\n      swap2\n      pop\n      pop\n      jump\t// out\n        /* \"contracts/ArbCalc.sol\":5158:5735  function sqrt(uint256 n) internal pure returns (uint256 res) {... */\n    tag_227:\n        /* \"contracts/ArbCalc.sol\":5206:5217  uint256 res */\n      0x00\n        /* \"contracts/ArbCalc.sol\":5241:5242  1 */\n      0x01\n        /* \"contracts/ArbCalc.sol\":5237:5238  n */\n      dup3\n        /* \"contracts/ArbCalc.sol\":5237:5242  n > 1 */\n      gt\n        /* \"contracts/ArbCalc.sol\":5230:5243  assert(n > 1) */\n      tag_239\n      jumpi\n      tag_240\n      tag_241\n      jump\t// in\n    tag_240:\n    tag_239:\n        /* \"contracts/ArbCalc.sol\":5384:5394  uint256 _n */\n      0x00\n        /* \"contracts/ArbCalc.sol\":5401:5406  10**6 */\n      0x0f4240\n        /* \"contracts/ArbCalc.sol\":5397:5398  n */\n      dup4\n        /* \"contracts/ArbCalc.sol\":5397:5406  n * 10**6 */\n      tag_242\n      swap2\n      swap1\n      tag_66\n      jump\t// in\n    tag_242:\n        /* \"contracts/ArbCalc.sol\":5384:5406  uint256 _n = n * 10**6 */\n      swap1\n      pop\n        /* \"contracts/ArbCalc.sol\":5417:5426  uint256 c */\n      0x00\n        /* \"contracts/ArbCalc.sol\":5429:5431  _n */\n      dup2\n        /* \"contracts/ArbCalc.sol\":5417:5431  uint256 c = _n */\n      swap1\n      pop\n        /* \"contracts/ArbCalc.sol\":5448:5450  _n */\n      dup2\n        /* \"contracts/ArbCalc.sol\":5442:5450  res = _n */\n      swap3\n      pop\n        /* \"contracts/ArbCalc.sol\":5463:5473  uint256 xi */\n      0x00\n        /* \"contracts/ArbCalc.sol\":5484:5700  while (true) {... */\n    tag_243:\n        /* \"contracts/ArbCalc.sol\":5491:5495  true */\n      0x01\n        /* \"contracts/ArbCalc.sol\":5484:5700  while (true) {... */\n      iszero\n      tag_244\n      jumpi\n        /* \"contracts/ArbCalc.sol\":5535:5536  2 */\n      0x02\n        /* \"contracts/ArbCalc.sol\":5528:5531  res */\n      dup5\n        /* \"contracts/ArbCalc.sol\":5524:5525  c */\n      dup4\n        /* \"contracts/ArbCalc.sol\":5524:5531  c / res */\n      tag_245\n      swap2\n      swap1\n      tag_64\n      jump\t// in\n    tag_245:\n        /* \"contracts/ArbCalc.sol\":5518:5521  res */\n      dup6\n        /* \"contracts/ArbCalc.sol\":5518:5531  res + c / res */\n      tag_246\n      swap2\n      swap1\n      tag_62\n      jump\t// in\n    tag_246:\n        /* \"contracts/ArbCalc.sol\":5517:5536  (res + c / res) / 2 */\n      tag_247\n      swap2\n      swap1\n      tag_64\n      jump\t// in\n    tag_247:\n        /* \"contracts/ArbCalc.sol\":5512:5536  xi = (res + c / res) / 2 */\n      swap1\n      pop\n        /* \"contracts/ArbCalc.sol\":5620:5624  1000 */\n      0x03e8\n        /* \"contracts/ArbCalc.sol\":5615:5617  xi */\n      dup2\n        /* \"contracts/ArbCalc.sol\":5609:5612  res */\n      dup6\n        /* \"contracts/ArbCalc.sol\":5609:5617  res - xi */\n      tag_248\n      swap2\n      swap1\n      tag_68\n      jump\t// in\n    tag_248:\n        /* \"contracts/ArbCalc.sol\":5609:5624  res - xi < 1000 */\n      lt\n        /* \"contracts/ArbCalc.sol\":5645:5650  break */\n      tag_244\n        /* \"contracts/ArbCalc.sol\":5605:5666  if (res - xi < 1000) {... */\n      jumpi\n        /* \"contracts/ArbCalc.sol\":5686:5688  xi */\n      dup1\n        /* \"contracts/ArbCalc.sol\":5680:5688  res = xi */\n      swap4\n      pop\n        /* \"contracts/ArbCalc.sol\":5484:5700  while (true) {... */\n      jump(tag_243)\n    tag_244:\n        /* \"contracts/ArbCalc.sol\":5722:5727  10**3 */\n      0x03e8\n        /* \"contracts/ArbCalc.sol\":5716:5719  res */\n      dup5\n        /* \"contracts/ArbCalc.sol\":5716:5727  res / 10**3 */\n      tag_250\n      swap2\n      swap1\n      tag_64\n      jump\t// in\n    tag_250:\n        /* \"contracts/ArbCalc.sol\":5710:5727  res = res / 10**3 */\n      swap4\n      pop\n        /* \"contracts/ArbCalc.sol\":5219:5735  {... */\n      pop\n      pop\n      pop\n        /* \"contracts/ArbCalc.sol\":5158:5735  function sqrt(uint256 n) internal pure returns (uint256 res) {... */\n      swap2\n      swap1\n      pop\n      jump\t// out\n    tag_98:\n      mload(0x40)\n      dup1\n      0x80\n      add\n      0x40\n      mstore\n      dup1\n      0x00\n      dup2\n      mstore\n      0x20\n      add\n      0x00\n      dup2\n      mstore\n      0x20\n      add\n      0x00\n      dup2\n      mstore\n      0x20\n      add\n      0x00\n      dup2\n      mstore\n      pop\n      swap1\n      jump\t// out\n        /* \"#utility.yul\":88:205   */\n    tag_252:\n        /* \"#utility.yul\":197:198   */\n      0x00\n        /* \"#utility.yul\":194:195   */\n      dup1\n        /* \"#utility.yul\":187:199   */\n      revert\n        /* \"#utility.yul\":334:460   */\n    tag_254:\n        /* \"#utility.yul\":371:378   */\n      0x00\n        /* \"#utility.yul\":411:453   */\n      0xffffffffffffffffffffffffffffffffffffffff\n        /* \"#utility.yul\":404:409   */\n      dup3\n        /* \"#utility.yul\":400:454   */\n      and\n        /* \"#utility.yul\":389:454   */\n      swap1\n      pop\n        /* \"#utility.yul\":334:460   */\n      swap2\n      swap1\n      pop\n      jump\t// out\n        /* \"#utility.yul\":466:562   */\n    tag_255:\n        /* \"#utility.yul\":503:510   */\n      0x00\n        /* \"#utility.yul\":532:556   */\n      tag_298\n        /* \"#utility.yul\":550:555   */\n      dup3\n        /* \"#utility.yul\":532:556   */\n      tag_254\n      jump\t// in\n    tag_298:\n        /* \"#utility.yul\":521:556   */\n      swap1\n      pop\n        /* \"#utility.yul\":466:562   */\n      swap2\n      swap1\n      pop\n      jump\t// out\n        /* \"#utility.yul\":568:690   */\n    tag_256:\n        /* \"#utility.yul\":641:665   */\n      tag_300\n        /* \"#utility.yul\":659:664   */\n      dup2\n        /* \"#utility.yul\":641:665   */\n      tag_255\n      jump\t// in\n    tag_300:\n        /* \"#utility.yul\":634:639   */\n      dup2\n        /* \"#utility.yul\":631:666   */\n      eq\n        /* \"#utility.yul\":621:684   */\n      tag_301\n      jumpi\n        /* \"#utility.yul\":680:681   */\n      0x00\n        /* \"#utility.yul\":677:678   */\n      dup1\n        /* \"#utility.yul\":670:682   */\n      revert\n        /* \"#utility.yul\":621:684   */\n    tag_301:\n        /* \"#utility.yul\":568:690   */\n      pop\n      jump\t// out\n        /* \"#utility.yul\":696:835   */\n    tag_257:\n        /* \"#utility.yul\":742:747   */\n      0x00\n        /* \"#utility.yul\":780:786   */\n      dup2\n        /* \"#utility.yul\":767:787   */\n      calldataload\n        /* \"#utility.yul\":758:787   */\n      swap1\n      pop\n        /* \"#utility.yul\":796:829   */\n      tag_303\n        /* \"#utility.yul\":823:828   */\n      dup2\n        /* \"#utility.yul\":796:829   */\n      tag_256\n      jump\t// in\n    tag_303:\n        /* \"#utility.yul\":696:835   */\n      swap3\n      swap2\n      pop\n      pop\n      jump\t// out\n        /* \"#utility.yul\":841:1315   */\n    tag_16:\n        /* \"#utility.yul\":909:915   */\n      0x00\n        /* \"#utility.yul\":917:923   */\n      dup1\n        /* \"#utility.yul\":966:968   */\n      0x40\n        /* \"#utility.yul\":954:963   */\n      dup4\n        /* \"#utility.yul\":945:952   */\n      dup6\n        /* \"#utility.yul\":941:964   */\n      sub\n        /* \"#utility.yul\":937:969   */\n      slt\n        /* \"#utility.yul\":934:1053   */\n      iszero\n      tag_305\n      jumpi\n        /* \"#utility.yul\":972:1051   */\n      tag_306\n      tag_252\n      jump\t// in\n    tag_306:\n        /* \"#utility.yul\":934:1053   */\n    tag_305:\n        /* \"#utility.yul\":1092:1093   */\n      0x00\n        /* \"#utility.yul\":1117:1170   */\n      tag_307\n        /* \"#utility.yul\":1162:1169   */\n      dup6\n        /* \"#utility.yul\":1153:1159   */\n      dup3\n        /* \"#utility.yul\":1142:1151   */\n      dup7\n        /* \"#utility.yul\":1138:1160   */\n      add\n        /* \"#utility.yul\":1117:1170   */\n      tag_257\n      jump\t// in\n    tag_307:\n        /* \"#utility.yul\":1107:1170   */\n      swap3\n      pop\n        /* \"#utility.yul\":1063:1180   */\n      pop\n        /* \"#utility.yul\":1219:1221   */\n      0x20\n        /* \"#utility.yul\":1245:1298   */\n      tag_308\n        /* \"#utility.yul\":1290:1297   */\n      dup6\n        /* \"#utility.yul\":1281:1287   */\n      dup3\n        /* \"#utility.yul\":1270:1279   */\n      dup7\n        /* \"#utility.yul\":1266:1288   */\n      add\n        /* \"#utility.yul\":1245:1298   */\n      tag_257\n      jump\t// in\n    tag_308:\n        /* \"#utility.yul\":1235:1298   */\n      swap2\n      pop\n        /* \"#utility.yul\":1190:1308   */\n      pop\n        /* \"#utility.yul\":841:1315   */\n      swap3\n      pop\n      swap3\n      swap1\n      pop\n      jump\t// out\n        /* \"#utility.yul\":1321:1398   */\n    tag_258:\n        /* \"#utility.yul\":1358:1365   */\n      0x00\n        /* \"#utility.yul\":1387:1392   */\n      dup2\n        /* \"#utility.yul\":1376:1392   */\n      swap1\n      pop\n        /* \"#utility.yul\":1321:1398   */\n      swap2\n      swap1\n      pop\n      jump\t// out\n        /* \"#utility.yul\":1404:1522   */\n    tag_259:\n        /* \"#utility.yul\":1491:1515   */\n      tag_311\n        /* \"#utility.yul\":1509:1514   */\n      dup2\n        /* \"#utility.yul\":1491:1515   */\n      tag_258\n      jump\t// in\n    tag_311:\n        /* \"#utility.yul\":1486:1489   */\n      dup3\n        /* \"#utility.yul\":1479:1516   */\n      mstore\n        /* \"#utility.yul\":1404:1522   */\n      pop\n      pop\n      jump\t// out\n        /* \"#utility.yul\":1528:1750   */\n    tag_19:\n        /* \"#utility.yul\":1621:1625   */\n      0x00\n        /* \"#utility.yul\":1659:1661   */\n      0x20\n        /* \"#utility.yul\":1648:1657   */\n      dup3\n        /* \"#utility.yul\":1644:1662   */\n      add\n        /* \"#utility.yul\":1636:1662   */\n      swap1\n      pop\n        /* \"#utility.yul\":1672:1743   */\n      tag_313\n        /* \"#utility.yul\":1740:1741   */\n      0x00\n        /* \"#utility.yul\":1729:1738   */\n      dup4\n        /* \"#utility.yul\":1725:1742   */\n      add\n        /* \"#utility.yul\":1716:1722   */\n      dup5\n        /* \"#utility.yul\":1672:1743   */\n      tag_259\n      jump\t// in\n    tag_313:\n        /* \"#utility.yul\":1528:1750   */\n      swap3\n      swap2\n      pop\n      pop\n      jump\t// out\n        /* \"#utility.yul\":1756:2085   */\n    tag_22:\n        /* \"#utility.yul\":1815:1821   */\n      0x00\n        /* \"#utility.yul\":1864:1866   */\n      0x20\n        /* \"#utility.yul\":1852:1861   */\n      dup3\n        /* \"#utility.yul\":1843:1850   */\n      dup5\n        /* \"#utility.yul\":1839:1862   */\n      sub\n        /* \"#utility.yul\":1835:1867   */\n      slt\n        /* \"#utility.yul\":1832:1951   */\n      iszero\n      tag_315\n      jumpi\n        /* \"#utility.yul\":1870:1949   */\n      tag_316\n      tag_252\n      jump\t// in\n    tag_316:\n        /* \"#utility.yul\":1832:1951   */\n    tag_315:\n        /* \"#utility.yul\":1990:1991   */\n      0x00\n        /* \"#utility.yul\":2015:2068   */\n      tag_317\n        /* \"#utility.yul\":2060:2067   */\n      dup5\n        /* \"#utility.yul\":2051:2057   */\n      dup3\n        /* \"#utility.yul\":2040:2049   */\n      dup6\n        /* \"#utility.yul\":2036:2058   */\n      add\n        /* \"#utility.yul\":2015:2068   */\n      tag_257\n      jump\t// in\n    tag_317:\n        /* \"#utility.yul\":2005:2068   */\n      swap2\n      pop\n        /* \"#utility.yul\":1961:2078   */\n      pop\n        /* \"#utility.yul\":1756:2085   */\n      swap3\n      swap2\n      pop\n      pop\n      jump\t// out\n        /* \"#utility.yul\":2091:2423   */\n    tag_25:\n        /* \"#utility.yul\":2212:2216   */\n      0x00\n        /* \"#utility.yul\":2250:2252   */\n      0x40\n        /* \"#utility.yul\":2239:2248   */\n      dup3\n        /* \"#utility.yul\":2235:2253   */\n      add\n        /* \"#utility.yul\":2227:2253   */\n      swap1\n      pop\n        /* \"#utility.yul\":2263:2334   */\n      tag_319\n        /* \"#utility.yul\":2331:2332   */\n      0x00\n        /* \"#utility.yul\":2320:2329   */\n      dup4\n        /* \"#utility.yul\":2316:2333   */\n      add\n        /* \"#utility.yul\":2307:2313   */\n      dup6\n        /* \"#utility.yul\":2263:2334   */\n      tag_259\n      jump\t// in\n    tag_319:\n        /* \"#utility.yul\":2344:2416   */\n      tag_320\n        /* \"#utility.yul\":2412:2414   */\n      0x20\n        /* \"#utility.yul\":2401:2410   */\n      dup4\n        /* \"#utility.yul\":2397:2415   */\n      add\n        /* \"#utility.yul\":2388:2394   */\n      dup5\n        /* \"#utility.yul\":2344:2416   */\n      tag_259\n      jump\t// in\n    tag_320:\n        /* \"#utility.yul\":2091:2423   */\n      swap4\n      swap3\n      pop\n      pop\n      pop\n      jump\t// out\n        /* \"#utility.yul\":2429:2609   */\n    tag_260:\n        /* \"#utility.yul\":2477:2554   */\n      0x4e487b7100000000000000000000000000000000000000000000000000000000\n        /* \"#utility.yul\":2474:2475   */\n      0x00\n        /* \"#utility.yul\":2467:2555   */\n      mstore\n        /* \"#utility.yul\":2574:2578   */\n      0x11\n        /* \"#utility.yul\":2571:2572   */\n      0x04\n        /* \"#utility.yul\":2564:2579   */\n      mstore\n        /* \"#utility.yul\":2598:2602   */\n      0x24\n        /* \"#utility.yul\":2595:2596   */\n      0x00\n        /* \"#utility.yul\":2588:2603   */\n      revert\n        /* \"#utility.yul\":2615:2806   */\n    tag_62:\n        /* \"#utility.yul\":2655:2658   */\n      0x00\n        /* \"#utility.yul\":2674:2694   */\n      tag_323\n        /* \"#utility.yul\":2692:2693   */\n      dup3\n        /* \"#utility.yul\":2674:2694   */\n      tag_258\n      jump\t// in\n    tag_323:\n        /* \"#utility.yul\":2669:2694   */\n      swap2\n      pop\n        /* \"#utility.yul\":2708:2728   */\n      tag_324\n        /* \"#utility.yul\":2726:2727   */\n      dup4\n        /* \"#utility.yul\":2708:2728   */\n      tag_258\n      jump\t// in\n    tag_324:\n        /* \"#utility.yul\":2703:2728   */\n      swap3\n      pop\n        /* \"#utility.yul\":2751:2752   */\n      dup3\n        /* \"#utility.yul\":2748:2749   */\n      dup3\n        /* \"#utility.yul\":2744:2753   */\n      add\n        /* \"#utility.yul\":2737:2753   */\n      swap1\n      pop\n        /* \"#utility.yul\":2772:2775   */\n      dup1\n        /* \"#utility.yul\":2769:2770   */\n      dup3\n        /* \"#utility.yul\":2766:2776   */\n      gt\n        /* \"#utility.yul\":2763:2799   */\n      iszero\n      tag_325\n      jumpi\n        /* \"#utility.yul\":2779:2797   */\n      tag_326\n      tag_260\n      jump\t// in\n    tag_326:\n        /* \"#utility.yul\":2763:2799   */\n    tag_325:\n        /* \"#utility.yul\":2615:2806   */\n      swap3\n      swap2\n      pop\n      pop\n      jump\t// out\n        /* \"#utility.yul\":2812:2992   */\n    tag_261:\n        /* \"#utility.yul\":2860:2937   */\n      0x4e487b7100000000000000000000000000000000000000000000000000000000\n        /* \"#utility.yul\":2857:2858   */\n      0x00\n        /* \"#utility.yul\":2850:2938   */\n      mstore\n        /* \"#utility.yul\":2957:2961   */\n      0x12\n        /* \"#utility.yul\":2954:2955   */\n      0x04\n        /* \"#utility.yul\":2947:2962   */\n      mstore\n        /* \"#utility.yul\":2981:2985   */\n      0x24\n        /* \"#utility.yul\":2978:2979   */\n      0x00\n        /* \"#utility.yul\":2971:2986   */\n      revert\n        /* \"#utility.yul\":2998:3183   */\n    tag_64:\n        /* \"#utility.yul\":3038:3039   */\n      0x00\n        /* \"#utility.yul\":3055:3075   */\n      tag_329\n        /* \"#utility.yul\":3073:3074   */\n      dup3\n        /* \"#utility.yul\":3055:3075   */\n      tag_258\n      jump\t// in\n    tag_329:\n        /* \"#utility.yul\":3050:3075   */\n      swap2\n      pop\n        /* \"#utility.yul\":3089:3109   */\n      tag_330\n        /* \"#utility.yul\":3107:3108   */\n      dup4\n        /* \"#utility.yul\":3089:3109   */\n      tag_258\n      jump\t// in\n    tag_330:\n        /* \"#utility.yul\":3084:3109   */\n      swap3\n      pop\n        /* \"#utility.yul\":3128:3129   */\n      dup3\n        /* \"#utility.yul\":3118:3153   */\n      tag_331\n      jumpi\n        /* \"#utility.yul\":3133:3151   */\n      tag_332\n      tag_261\n      jump\t// in\n    tag_332:\n        /* \"#utility.yul\":3118:3153   */\n    tag_331:\n        /* \"#utility.yul\":3175:3176   */\n      dup3\n        /* \"#utility.yul\":3172:3173   */\n      dup3\n        /* \"#utility.yul\":3168:3177   */\n      div\n        /* \"#utility.yul\":3163:3177   */\n      swap1\n      pop\n        /* \"#utility.yul\":2998:3183   */\n      swap3\n      swap2\n      pop\n      pop\n      jump\t// out\n        /* \"#utility.yul\":3189:3599   */\n    tag_66:\n        /* \"#utility.yul\":3229:3236   */\n      0x00\n        /* \"#utility.yul\":3252:3272   */\n      tag_334\n        /* \"#utility.yul\":3270:3271   */\n      dup3\n        /* \"#utility.yul\":3252:3272   */\n      tag_258\n      jump\t// in\n    tag_334:\n        /* \"#utility.yul\":3247:3272   */\n      swap2\n      pop\n        /* \"#utility.yul\":3286:3306   */\n      tag_335\n        /* \"#utility.yul\":3304:3305   */\n      dup4\n        /* \"#utility.yul\":3286:3306   */\n      tag_258\n      jump\t// in\n    tag_335:\n        /* \"#utility.yul\":3281:3306   */\n      swap3\n      pop\n        /* \"#utility.yul\":3341:3342   */\n      dup3\n        /* \"#utility.yul\":3338:3339   */\n      dup3\n        /* \"#utility.yul\":3334:3343   */\n      mul\n        /* \"#utility.yul\":3363:3393   */\n      tag_336\n        /* \"#utility.yul\":3381:3392   */\n      dup2\n        /* \"#utility.yul\":3363:3393   */\n      tag_258\n      jump\t// in\n    tag_336:\n        /* \"#utility.yul\":3352:3393   */\n      swap2\n      pop\n        /* \"#utility.yul\":3542:3543   */\n      dup3\n        /* \"#utility.yul\":3533:3540   */\n      dup3\n        /* \"#utility.yul\":3529:3544   */\n      div\n        /* \"#utility.yul\":3526:3527   */\n      dup5\n        /* \"#utility.yul\":3523:3545   */\n      eq\n        /* \"#utility.yul\":3503:3504   */\n      dup4\n        /* \"#utility.yul\":3496:3505   */\n      iszero\n        /* \"#utility.yul\":3476:3559   */\n      or\n        /* \"#utility.yul\":3453:3592   */\n      tag_337\n      jumpi\n        /* \"#utility.yul\":3572:3590   */\n      tag_338\n      tag_260\n      jump\t// in\n    tag_338:\n        /* \"#utility.yul\":3453:3592   */\n    tag_337:\n        /* \"#utility.yul\":3237:3599   */\n      pop\n        /* \"#utility.yul\":3189:3599   */\n      swap3\n      swap2\n      pop\n      pop\n      jump\t// out\n        /* \"#utility.yul\":3605:3799   */\n    tag_68:\n        /* \"#utility.yul\":3645:3649   */\n      0x00\n        /* \"#utility.yul\":3665:3685   */\n      tag_340\n        /* \"#utility.yul\":3683:3684   */\n      dup3\n        /* \"#utility.yul\":3665:3685   */\n      tag_258\n      jump\t// in\n    tag_340:\n        /* \"#utility.yul\":3660:3685   */\n      swap2\n      pop\n        /* \"#utility.yul\":3699:3719   */\n      tag_341\n        /* \"#utility.yul\":3717:3718   */\n      dup4\n        /* \"#utility.yul\":3699:3719   */\n      tag_258\n      jump\t// in\n    tag_341:\n        /* \"#utility.yul\":3694:3719   */\n      swap3\n      pop\n        /* \"#utility.yul\":3743:3744   */\n      dup3\n        /* \"#utility.yul\":3740:3741   */\n      dup3\n        /* \"#utility.yul\":3736:3745   */\n      sub\n        /* \"#utility.yul\":3728:3745   */\n      swap1\n      pop\n        /* \"#utility.yul\":3767:3768   */\n      dup2\n        /* \"#utility.yul\":3761:3765   */\n      dup2\n        /* \"#utility.yul\":3758:3769   */\n      gt\n        /* \"#utility.yul\":3755:3792   */\n      iszero\n      tag_342\n      jumpi\n        /* \"#utility.yul\":3772:3790   */\n      tag_343\n      tag_260\n      jump\t// in\n    tag_343:\n        /* \"#utility.yul\":3755:3792   */\n    tag_342:\n        /* \"#utility.yul\":3605:3799   */\n      swap3\n      swap2\n      pop\n      pop\n      jump\t// out\n        /* \"#utility.yul\":3805:3927   */\n    tag_262:\n        /* \"#utility.yul\":3878:3902   */\n      tag_345\n        /* \"#utility.yul\":3896:3901   */\n      dup2\n        /* \"#utility.yul\":3878:3902   */\n      tag_254\n      jump\t// in\n    tag_345:\n        /* \"#utility.yul\":3871:3876   */\n      dup2\n        /* \"#utility.yul\":3868:3903   */\n      eq\n        /* \"#utility.yul\":3858:3921   */\n      tag_346\n      jumpi\n        /* \"#utility.yul\":3917:3918   */\n      0x00\n        /* \"#utility.yul\":3914:3915   */\n      dup1\n        /* \"#utility.yul\":3907:3919   */\n      revert\n        /* \"#utility.yul\":3858:3921   */\n    tag_346:\n        /* \"#utility.yul\":3805:3927   */\n      pop\n      jump\t// out\n        /* \"#utility.yul\":3933:4076   */\n    tag_263:\n        /* \"#utility.yul\":3990:3995   */\n      0x00\n        /* \"#utility.yul\":4021:4027   */\n      dup2\n        /* \"#utility.yul\":4015:4028   */\n      mload\n        /* \"#utility.yul\":4006:4028   */\n      swap1\n      pop\n        /* \"#utility.yul\":4037:4070   */\n      tag_348\n        /* \"#utility.yul\":4064:4069   */\n      dup2\n        /* \"#utility.yul\":4037:4070   */\n      tag_262\n      jump\t// in\n    tag_348:\n        /* \"#utility.yul\":3933:4076   */\n      swap3\n      swap2\n      pop\n      pop\n      jump\t// out\n        /* \"#utility.yul\":4082:4172   */\n    tag_264:\n        /* \"#utility.yul\":4117:4124   */\n      0x00\n        /* \"#utility.yul\":4160:4165   */\n      dup2\n        /* \"#utility.yul\":4157:4158   */\n      0x02\n        /* \"#utility.yul\":4146:4166   */\n      signextend\n        /* \"#utility.yul\":4135:4166   */\n      swap1\n      pop\n        /* \"#utility.yul\":4082:4172   */\n      swap2\n      swap1\n      pop\n      jump\t// out\n        /* \"#utility.yul\":4178:4296   */\n    tag_265:\n        /* \"#utility.yul\":4249:4271   */\n      tag_351\n        /* \"#utility.yul\":4265:4270   */\n      dup2\n        /* \"#utility.yul\":4249:4271   */\n      tag_264\n      jump\t// in\n    tag_351:\n        /* \"#utility.yul\":4242:4247   */\n      dup2\n        /* \"#utility.yul\":4239:4272   */\n      eq\n        /* \"#utility.yul\":4229:4290   */\n      tag_352\n      jumpi\n        /* \"#utility.yul\":4286:4287   */\n      0x00\n        /* \"#utility.yul\":4283:4284   */\n      dup1\n        /* \"#utility.yul\":4276:4288   */\n      revert\n        /* \"#utility.yul\":4229:4290   */\n    tag_352:\n        /* \"#utility.yul\":4178:4296   */\n      pop\n      jump\t// out\n        /* \"#utility.yul\":4302:4441   */\n    tag_266:\n        /* \"#utility.yul\":4357:4362   */\n      0x00\n        /* \"#utility.yul\":4388:4394   */\n      dup2\n        /* \"#utility.yul\":4382:4395   */\n      mload\n        /* \"#utility.yul\":4373:4395   */\n      swap1\n      pop\n        /* \"#utility.yul\":4404:4435   */\n      tag_354\n        /* \"#utility.yul\":4429:4434   */\n      dup2\n        /* \"#utility.yul\":4404:4435   */\n      tag_265\n      jump\t// in\n    tag_354:\n        /* \"#utility.yul\":4302:4441   */\n      swap3\n      swap2\n      pop\n      pop\n      jump\t// out\n        /* \"#utility.yul\":4447:4536   */\n    tag_267:\n        /* \"#utility.yul\":4483:4490   */\n      0x00\n        /* \"#utility.yul\":4523:4529   */\n      0xffff\n        /* \"#utility.yul\":4516:4521   */\n      dup3\n        /* \"#utility.yul\":4512:4530   */\n      and\n        /* \"#utility.yul\":4501:4530   */\n      swap1\n      pop\n        /* \"#utility.yul\":4447:4536   */\n      swap2\n      swap1\n      pop\n      jump\t// out\n        /* \"#utility.yul\":4542:4662   */\n    tag_268:\n        /* \"#utility.yul\":4614:4637   */\n      tag_357\n        /* \"#utility.yul\":4631:4636   */\n      dup2\n        /* \"#utility.yul\":4614:4637   */\n      tag_267\n      jump\t// in\n    tag_357:\n        /* \"#utility.yul\":4607:4612   */\n      dup2\n        /* \"#utility.yul\":4604:4638   */\n      eq\n        /* \"#utility.yul\":4594:4656   */\n      tag_358\n      jumpi\n        /* \"#utility.yul\":4652:4653   */\n      0x00\n        /* \"#utility.yul\":4649:4650   */\n      dup1\n        /* \"#utility.yul\":4642:4654   */\n      revert\n        /* \"#utility.yul\":4594:4656   */\n    tag_358:\n        /* \"#utility.yul\":4542:4662   */\n      pop\n      jump\t// out\n        /* \"#utility.yul\":4668:4809   */\n    tag_269:\n        /* \"#utility.yul\":4724:4729   */\n      0x00\n        /* \"#utility.yul\":4755:4761   */\n      dup2\n        /* \"#utility.yul\":4749:4762   */\n      mload\n        /* \"#utility.yul\":4740:4762   */\n      swap1\n      pop\n        /* \"#utility.yul\":4771:4803   */\n      tag_360\n        /* \"#utility.yul\":4797:4802   */\n      dup2\n        /* \"#utility.yul\":4771:4803   */\n      tag_268\n      jump\t// in\n    tag_360:\n        /* \"#utility.yul\":4668:4809   */\n      swap3\n      swap2\n      pop\n      pop\n      jump\t// out\n        /* \"#utility.yul\":4815:4901   */\n    tag_270:\n        /* \"#utility.yul\":4850:4857   */\n      0x00\n        /* \"#utility.yul\":4890:4894   */\n      0xff\n        /* \"#utility.yul\":4883:4888   */\n      dup3\n        /* \"#utility.yul\":4879:4895   */\n      and\n        /* \"#utility.yul\":4868:4895   */\n      swap1\n      pop\n        /* \"#utility.yul\":4815:4901   */\n      swap2\n      swap1\n      pop\n      jump\t// out\n        /* \"#utility.yul\":4907:5025   */\n    tag_271:\n        /* \"#utility.yul\":4978:5000   */\n      tag_363\n        /* \"#utility.yul\":4994:4999   */\n      dup2\n        /* \"#utility.yul\":4978:5000   */\n      tag_270\n      jump\t// in\n    tag_363:\n        /* \"#utility.yul\":4971:4976   */\n      dup2\n        /* \"#utility.yul\":4968:5001   */\n      eq\n        /* \"#utility.yul\":4958:5019   */\n      tag_364\n      jumpi\n        /* \"#utility.yul\":5015:5016   */\n      0x00\n        /* \"#utility.yul\":5012:5013   */\n      dup1\n        /* \"#utility.yul\":5005:5017   */\n      revert\n        /* \"#utility.yul\":4958:5019   */\n    tag_364:\n        /* \"#utility.yul\":4907:5025   */\n      pop\n      jump\t// out\n        /* \"#utility.yul\":5031:5170   */\n    tag_272:\n        /* \"#utility.yul\":5086:5091   */\n      0x00\n        /* \"#utility.yul\":5117:5123   */\n      dup2\n        /* \"#utility.yul\":5111:5124   */\n      mload\n        /* \"#utility.yul\":5102:5124   */\n      swap1\n      pop\n        /* \"#utility.yul\":5133:5164   */\n      tag_366\n        /* \"#utility.yul\":5158:5163   */\n      dup2\n        /* \"#utility.yul\":5133:5164   */\n      tag_271\n      jump\t// in\n    tag_366:\n        /* \"#utility.yul\":5031:5170   */\n      swap3\n      swap2\n      pop\n      pop\n      jump\t// out\n        /* \"#utility.yul\":5176:5266   */\n    tag_273:\n        /* \"#utility.yul\":5210:5217   */\n      0x00\n        /* \"#utility.yul\":5253:5258   */\n      dup2\n        /* \"#utility.yul\":5246:5259   */\n      iszero\n        /* \"#utility.yul\":5239:5260   */\n      iszero\n        /* \"#utility.yul\":5228:5260   */\n      swap1\n      pop\n        /* \"#utility.yul\":5176:5266   */\n      swap2\n      swap1\n      pop\n      jump\t// out\n        /* \"#utility.yul\":5272:5388   */\n    tag_274:\n        /* \"#utility.yul\":5342:5363   */\n      tag_369\n        /* \"#utility.yul\":5357:5362   */\n      dup2\n        /* \"#utility.yul\":5342:5363   */\n      tag_273\n      jump\t// in\n    tag_369:\n        /* \"#utility.yul\":5335:5340   */\n      dup2\n        /* \"#utility.yul\":5332:5364   */\n      eq\n        /* \"#utility.yul\":5322:5382   */\n      tag_370\n      jumpi\n        /* \"#utility.yul\":5378:5379   */\n      0x00\n        /* \"#utility.yul\":5375:5376   */\n      dup1\n        /* \"#utility.yul\":5368:5380   */\n      revert\n        /* \"#utility.yul\":5322:5382   */\n    tag_370:\n        /* \"#utility.yul\":5272:5388   */\n      pop\n      jump\t// out\n        /* \"#utility.yul\":5394:5531   */\n    tag_275:\n        /* \"#utility.yul\":5448:5453   */\n      0x00\n        /* \"#utility.yul\":5479:5485   */\n      dup2\n        /* \"#utility.yul\":5473:5486   */\n      mload\n        /* \"#utility.yul\":5464:5486   */\n      swap1\n      pop\n        /* \"#utility.yul\":5495:5525   */\n      tag_372\n        /* \"#utility.yul\":5519:5524   */\n      dup2\n        /* \"#utility.yul\":5495:5525   */\n      tag_274\n      jump\t// in\n    tag_372:\n        /* \"#utility.yul\":5394:5531   */\n      swap3\n      swap2\n      pop\n      pop\n      jump\t// out\n        /* \"#utility.yul\":5537:6808   */\n    tag_75:\n        /* \"#utility.yul\":5651:5657   */\n      0x00\n        /* \"#utility.yul\":5659:5665   */\n      dup1\n        /* \"#utility.yul\":5667:5673   */\n      0x00\n        /* \"#utility.yul\":5675:5681   */\n      dup1\n        /* \"#utility.yul\":5683:5689   */\n      0x00\n        /* \"#utility.yul\":5691:5697   */\n      dup1\n        /* \"#utility.yul\":5699:5705   */\n      0x00\n        /* \"#utility.yul\":5748:5751   */\n      0xe0\n        /* \"#utility.yul\":5736:5745   */\n      dup9\n        /* \"#utility.yul\":5727:5734   */\n      dup11\n        /* \"#utility.yul\":5723:5746   */\n      sub\n        /* \"#utility.yul\":5719:5752   */\n      slt\n        /* \"#utility.yul\":5716:5836   */\n      iszero\n      tag_374\n      jumpi\n        /* \"#utility.yul\":5755:5834   */\n      tag_375\n      tag_252\n      jump\t// in\n    tag_375:\n        /* \"#utility.yul\":5716:5836   */\n    tag_374:\n        /* \"#utility.yul\":5875:5876   */\n      0x00\n        /* \"#utility.yul\":5900:5964   */\n      tag_376\n        /* \"#utility.yul\":5956:5963   */\n      dup11\n        /* \"#utility.yul\":5947:5953   */\n      dup3\n        /* \"#utility.yul\":5936:5945   */\n      dup12\n        /* \"#utility.yul\":5932:5954   */\n      add\n        /* \"#utility.yul\":5900:5964   */\n      tag_263\n      jump\t// in\n    tag_376:\n        /* \"#utility.yul\":5890:5964   */\n      swap8\n      pop\n        /* \"#utility.yul\":5846:5974   */\n      pop\n        /* \"#utility.yul\":6013:6015   */\n      0x20\n        /* \"#utility.yul\":6039:6101   */\n      tag_377\n        /* \"#utility.yul\":6093:6100   */\n      dup11\n        /* \"#utility.yul\":6084:6090   */\n      dup3\n        /* \"#utility.yul\":6073:6082   */\n      dup12\n        /* \"#utility.yul\":6069:6091   */\n      add\n        /* \"#utility.yul\":6039:6101   */\n      tag_266\n      jump\t// in\n    tag_377:\n        /* \"#utility.yul\":6029:6101   */\n      swap7\n      pop\n        /* \"#utility.yul\":5984:6111   */\n      pop\n        /* \"#utility.yul\":6150:6152   */\n      0x40\n        /* \"#utility.yul\":6176:6239   */\n      tag_378\n        /* \"#utility.yul\":6231:6238   */\n      dup11\n        /* \"#utility.yul\":6222:6228   */\n      dup3\n        /* \"#utility.yul\":6211:6220   */\n      dup12\n        /* \"#utility.yul\":6207:6229   */\n      add\n        /* \"#utility.yul\":6176:6239   */\n      tag_269\n      jump\t// in\n    tag_378:\n        /* \"#utility.yul\":6166:6239   */\n      swap6\n      pop\n        /* \"#utility.yul\":6121:6249   */\n      pop\n        /* \"#utility.yul\":6288:6290   */\n      0x60\n        /* \"#utility.yul\":6314:6377   */\n      tag_379\n        /* \"#utility.yul\":6369:6376   */\n      dup11\n        /* \"#utility.yul\":6360:6366   */\n      dup3\n        /* \"#utility.yul\":6349:6358   */\n      dup12\n        /* \"#utility.yul\":6345:6367   */\n      add\n        /* \"#utility.yul\":6314:6377   */\n      tag_269\n      jump\t// in\n    tag_379:\n        /* \"#utility.yul\":6304:6377   */\n      swap5\n      pop\n        /* \"#utility.yul\":6259:6387   */\n      pop\n        /* \"#utility.yul\":6426:6429   */\n      0x80\n        /* \"#utility.yul\":6453:6516   */\n      tag_380\n        /* \"#utility.yul\":6508:6515   */\n      dup11\n        /* \"#utility.yul\":6499:6505   */\n      dup3\n        /* \"#utility.yul\":6488:6497   */\n      dup12\n        /* \"#utility.yul\":6484:6506   */\n      add\n        /* \"#utility.yul\":6453:6516   */\n      tag_269\n      jump\t// in\n    tag_380:\n        /* \"#utility.yul\":6443:6516   */\n      swap4\n      pop\n        /* \"#utility.yul\":6397:6526   */\n      pop\n        /* \"#utility.yul\":6565:6568   */\n      0xa0\n        /* \"#utility.yul\":6592:6654   */\n      tag_381\n        /* \"#utility.yul\":6646:6653   */\n      dup11\n        /* \"#utility.yul\":6637:6643   */\n      dup3\n        /* \"#utility.yul\":6626:6635   */\n      dup12\n        /* \"#utility.yul\":6622:6644   */\n      add\n        /* \"#utility.yul\":6592:6654   */\n      tag_272\n      jump\t// in\n    tag_381:\n        /* \"#utility.yul\":6582:6654   */\n      swap3\n      pop\n        /* \"#utility.yul\":6536:6664   */\n      pop\n        /* \"#utility.yul\":6703:6706   */\n      0xc0\n        /* \"#utility.yul\":6730:6791   */\n      tag_382\n        /* \"#utility.yul\":6783:6790   */\n      dup11\n        /* \"#utility.yul\":6774:6780   */\n      dup3\n        /* \"#utility.yul\":6763:6772   */\n      dup12\n        /* \"#utility.yul\":6759:6781   */\n      add\n        /* \"#utility.yul\":6730:6791   */\n      tag_275\n      jump\t// in\n    tag_382:\n        /* \"#utility.yul\":6720:6791   */\n      swap2\n      pop\n        /* \"#utility.yul\":6674:6801   */\n      pop\n        /* \"#utility.yul\":5537:6808   */\n      swap3\n      swap6\n      swap9\n      swap2\n      swap5\n      swap8\n      pop\n      swap3\n      swap6\n      pop\n      jump\t// out\n        /* \"#utility.yul\":6814:6932   */\n    tag_276:\n        /* \"#utility.yul\":6851:6858   */\n      0x00\n        /* \"#utility.yul\":6891:6925   */\n      0xffffffffffffffffffffffffffffffff\n        /* \"#utility.yul\":6884:6889   */\n      dup3\n        /* \"#utility.yul\":6880:6926   */\n      and\n        /* \"#utility.yul\":6869:6926   */\n      swap1\n      pop\n        /* \"#utility.yul\":6814:6932   */\n      swap2\n      swap1\n      pop\n      jump\t// out\n        /* \"#utility.yul\":6938:7060   */\n    tag_277:\n        /* \"#utility.yul\":7011:7035   */\n      tag_385\n        /* \"#utility.yul\":7029:7034   */\n      dup2\n        /* \"#utility.yul\":7011:7035   */\n      tag_276\n      jump\t// in\n    tag_385:\n        /* \"#utility.yul\":7004:7009   */\n      dup2\n        /* \"#utility.yul\":7001:7036   */\n      eq\n        /* \"#utility.yul\":6991:7054   */\n      tag_386\n      jumpi\n        /* \"#utility.yul\":7050:7051   */\n      0x00\n        /* \"#utility.yul\":7047:7048   */\n      dup1\n        /* \"#utility.yul\":7040:7052   */\n      revert\n        /* \"#utility.yul\":6991:7054   */\n    tag_386:\n        /* \"#utility.yul\":6938:7060   */\n      pop\n      jump\t// out\n        /* \"#utility.yul\":7066:7209   */\n    tag_278:\n        /* \"#utility.yul\":7123:7128   */\n      0x00\n        /* \"#utility.yul\":7154:7160   */\n      dup2\n        /* \"#utility.yul\":7148:7161   */\n      mload\n        /* \"#utility.yul\":7139:7161   */\n      swap1\n      pop\n        /* \"#utility.yul\":7170:7203   */\n      tag_388\n        /* \"#utility.yul\":7197:7202   */\n      dup2\n        /* \"#utility.yul\":7170:7203   */\n      tag_277\n      jump\t// in\n    tag_388:\n        /* \"#utility.yul\":7066:7209   */\n      swap3\n      swap2\n      pop\n      pop\n      jump\t// out\n        /* \"#utility.yul\":7215:7566   */\n    tag_79:\n        /* \"#utility.yul\":7285:7291   */\n      0x00\n        /* \"#utility.yul\":7334:7336   */\n      0x20\n        /* \"#utility.yul\":7322:7331   */\n      dup3\n        /* \"#utility.yul\":7313:7320   */\n      dup5\n        /* \"#utility.yul\":7309:7332   */\n      sub\n        /* \"#utility.yul\":7305:7337   */\n      slt\n        /* \"#utility.yul\":7302:7421   */\n      iszero\n      tag_390\n      jumpi\n        /* \"#utility.yul\":7340:7419   */\n      tag_391\n      tag_252\n      jump\t// in\n    tag_391:\n        /* \"#utility.yul\":7302:7421   */\n    tag_390:\n        /* \"#utility.yul\":7460:7461   */\n      0x00\n        /* \"#utility.yul\":7485:7549   */\n      tag_392\n        /* \"#utility.yul\":7541:7548   */\n      dup5\n        /* \"#utility.yul\":7532:7538   */\n      dup3\n        /* \"#utility.yul\":7521:7530   */\n      dup6\n        /* \"#utility.yul\":7517:7539   */\n      add\n        /* \"#utility.yul\":7485:7549   */\n      tag_278\n      jump\t// in\n    tag_392:\n        /* \"#utility.yul\":7475:7549   */\n      swap2\n      pop\n        /* \"#utility.yul\":7431:7559   */\n      pop\n        /* \"#utility.yul\":7215:7566   */\n      swap3\n      swap2\n      pop\n      pop\n      jump\t// out\n        /* \"#utility.yul\":7572:7715   */\n    tag_279:\n        /* \"#utility.yul\":7629:7634   */\n      0x00\n        /* \"#utility.yul\":7660:7666   */\n      dup2\n        /* \"#utility.yul\":7654:7667   */\n      mload\n        /* \"#utility.yul\":7645:7667   */\n      swap1\n      pop\n        /* \"#utility.yul\":7676:7709   */\n      tag_394\n        /* \"#utility.yul\":7703:7708   */\n      dup2\n        /* \"#utility.yul\":7676:7709   */\n      tag_256\n      jump\t// in\n    tag_394:\n        /* \"#utility.yul\":7572:7715   */\n      swap3\n      swap2\n      pop\n      pop\n      jump\t// out\n        /* \"#utility.yul\":7721:8072   */\n    tag_84:\n        /* \"#utility.yul\":7791:7797   */\n      0x00\n        /* \"#utility.yul\":7840:7842   */\n      0x20\n        /* \"#utility.yul\":7828:7837   */\n      dup3\n        /* \"#utility.yul\":7819:7826   */\n      dup5\n        /* \"#utility.yul\":7815:7838   */\n      sub\n        /* \"#utility.yul\":7811:7843   */\n      slt\n        /* \"#utility.yul\":7808:7927   */\n      iszero\n      tag_396\n      jumpi\n        /* \"#utility.yul\":7846:7925   */\n      tag_397\n      tag_252\n      jump\t// in\n    tag_397:\n        /* \"#utility.yul\":7808:7927   */\n    tag_396:\n        /* \"#utility.yul\":7966:7967   */\n      0x00\n        /* \"#utility.yul\":7991:8055   */\n      tag_398\n        /* \"#utility.yul\":8047:8054   */\n      dup5\n        /* \"#utility.yul\":8038:8044   */\n      dup3\n        /* \"#utility.yul\":8027:8036   */\n      dup6\n        /* \"#utility.yul\":8023:8045   */\n      add\n        /* \"#utility.yul\":7991:8055   */\n      tag_279\n      jump\t// in\n    tag_398:\n        /* \"#utility.yul\":7981:8055   */\n      swap2\n      pop\n        /* \"#utility.yul\":7937:8065   */\n      pop\n        /* \"#utility.yul\":7721:8072   */\n      swap3\n      swap2\n      pop\n      pop\n      jump\t// out\n        /* \"#utility.yul\":8078:8196   */\n    tag_280:\n        /* \"#utility.yul\":8165:8189   */\n      tag_400\n        /* \"#utility.yul\":8183:8188   */\n      dup2\n        /* \"#utility.yul\":8165:8189   */\n      tag_255\n      jump\t// in\n    tag_400:\n        /* \"#utility.yul\":8160:8163   */\n      dup3\n        /* \"#utility.yul\":8153:8190   */\n      mstore\n        /* \"#utility.yul\":8078:8196   */\n      pop\n      pop\n      jump\t// out\n        /* \"#utility.yul\":8202:8424   */\n    tag_86:\n        /* \"#utility.yul\":8295:8299   */\n      0x00\n        /* \"#utility.yul\":8333:8335   */\n      0x20\n        /* \"#utility.yul\":8322:8331   */\n      dup3\n        /* \"#utility.yul\":8318:8336   */\n      add\n        /* \"#utility.yul\":8310:8336   */\n      swap1\n      pop\n        /* \"#utility.yul\":8346:8417   */\n      tag_402\n        /* \"#utility.yul\":8414:8415   */\n      0x00\n        /* \"#utility.yul\":8403:8412   */\n      dup4\n        /* \"#utility.yul\":8399:8416   */\n      add\n        /* \"#utility.yul\":8390:8396   */\n      dup5\n        /* \"#utility.yul\":8346:8417   */\n      tag_280\n      jump\t// in\n    tag_402:\n        /* \"#utility.yul\":8202:8424   */\n      swap3\n      swap2\n      pop\n      pop\n      jump\t// out\n        /* \"#utility.yul\":8430:8552   */\n    tag_281:\n        /* \"#utility.yul\":8503:8527   */\n      tag_404\n        /* \"#utility.yul\":8521:8526   */\n      dup2\n        /* \"#utility.yul\":8503:8527   */\n      tag_258\n      jump\t// in\n    tag_404:\n        /* \"#utility.yul\":8496:8501   */\n      dup2\n        /* \"#utility.yul\":8493:8528   */\n      eq\n        /* \"#utility.yul\":8483:8546   */\n      tag_405\n      jumpi\n        /* \"#utility.yul\":8542:8543   */\n      0x00\n        /* \"#utility.yul\":8539:8540   */\n      dup1\n        /* \"#utility.yul\":8532:8544   */\n      revert\n        /* \"#utility.yul\":8483:8546   */\n    tag_405:\n        /* \"#utility.yul\":8430:8552   */\n      pop\n      jump\t// out\n        /* \"#utility.yul\":8558:8701   */\n    tag_282:\n        /* \"#utility.yul\":8615:8620   */\n      0x00\n        /* \"#utility.yul\":8646:8652   */\n      dup2\n        /* \"#utility.yul\":8640:8653   */\n      mload\n        /* \"#utility.yul\":8631:8653   */\n      swap1\n      pop\n        /* \"#utility.yul\":8662:8695   */\n      tag_407\n        /* \"#utility.yul\":8689:8694   */\n      dup2\n        /* \"#utility.yul\":8662:8695   */\n      tag_281\n      jump\t// in\n    tag_407:\n        /* \"#utility.yul\":8558:8701   */\n      swap3\n      swap2\n      pop\n      pop\n      jump\t// out\n        /* \"#utility.yul\":8707:9058   */\n    tag_90:\n        /* \"#utility.yul\":8777:8783   */\n      0x00\n        /* \"#utility.yul\":8826:8828   */\n      0x20\n        /* \"#utility.yul\":8814:8823   */\n      dup3\n        /* \"#utility.yul\":8805:8812   */\n      dup5\n        /* \"#utility.yul\":8801:8824   */\n      sub\n        /* \"#utility.yul\":8797:8829   */\n      slt\n        /* \"#utility.yul\":8794:8913   */\n      iszero\n      tag_409\n      jumpi\n        /* \"#utility.yul\":8832:8911   */\n      tag_410\n      tag_252\n      jump\t// in\n    tag_410:\n        /* \"#utility.yul\":8794:8913   */\n    tag_409:\n        /* \"#utility.yul\":8952:8953   */\n      0x00\n        /* \"#utility.yul\":8977:9041   */\n      tag_411\n        /* \"#utility.yul\":9033:9040   */\n      dup5\n        /* \"#utility.yul\":9024:9030   */\n      dup3\n        /* \"#utility.yul\":9013:9022   */\n      dup6\n        /* \"#utility.yul\":9009:9031   */\n      add\n        /* \"#utility.yul\":8977:9041   */\n      tag_282\n      jump\t// in\n    tag_411:\n        /* \"#utility.yul\":8967:9041   */\n      swap2\n      pop\n        /* \"#utility.yul\":8923:9051   */\n      pop\n        /* \"#utility.yul\":8707:9058   */\n      swap3\n      swap2\n      pop\n      pop\n      jump\t// out\n        /* \"#utility.yul\":9064:9140   */\n    tag_283:\n        /* \"#utility.yul\":9100:9107   */\n      0x00\n        /* \"#utility.yul\":9129:9134   */\n      dup2\n        /* \"#utility.yul\":9118:9134   */\n      swap1\n      pop\n        /* \"#utility.yul\":9064:9140   */\n      swap2\n      swap1\n      pop\n      jump\t// out\n        /* \"#utility.yul\":9146:9702   */\n    tag_187:\n        /* \"#utility.yul\":9185:9192   */\n      0x00\n        /* \"#utility.yul\":9208:9227   */\n      tag_414\n        /* \"#utility.yul\":9225:9226   */\n      dup3\n        /* \"#utility.yul\":9208:9227   */\n      tag_283\n      jump\t// in\n    tag_414:\n        /* \"#utility.yul\":9203:9227   */\n      swap2\n      pop\n        /* \"#utility.yul\":9241:9260   */\n      tag_415\n        /* \"#utility.yul\":9258:9259   */\n      dup4\n        /* \"#utility.yul\":9241:9260   */\n      tag_283\n      jump\t// in\n    tag_415:\n        /* \"#utility.yul\":9236:9260   */\n      swap3\n      pop\n        /* \"#utility.yul\":9295:9296   */\n      dup3\n        /* \"#utility.yul\":9292:9293   */\n      dup3\n        /* \"#utility.yul\":9288:9297   */\n      mul\n        /* \"#utility.yul\":9317:9346   */\n      tag_416\n        /* \"#utility.yul\":9334:9345   */\n      dup2\n        /* \"#utility.yul\":9317:9346   */\n      tag_283\n      jump\t// in\n    tag_416:\n        /* \"#utility.yul\":9306:9346   */\n      swap2\n      pop\n        /* \"#utility.yul\":9404:9470   */\n      0x8000000000000000000000000000000000000000000000000000000000000000\n        /* \"#utility.yul\":9401:9402   */\n      dup5\n        /* \"#utility.yul\":9398:9471   */\n      eq\n        /* \"#utility.yul\":9394:9395   */\n      0x00\n        /* \"#utility.yul\":9391:9392   */\n      dup5\n        /* \"#utility.yul\":9387:9396   */\n      slt\n        /* \"#utility.yul\":9383:9472   */\n      and\n        /* \"#utility.yul\":9380:9495   */\n      iszero\n      tag_417\n      jumpi\n        /* \"#utility.yul\":9475:9493   */\n      tag_418\n      tag_260\n      jump\t// in\n    tag_418:\n        /* \"#utility.yul\":9380:9495   */\n    tag_417:\n        /* \"#utility.yul\":9645:9646   */\n      dup3\n        /* \"#utility.yul\":9636:9643   */\n      dup3\n        /* \"#utility.yul\":9631:9647   */\n      sdiv\n        /* \"#utility.yul\":9628:9629   */\n      dup5\n        /* \"#utility.yul\":9625:9648   */\n      eq\n        /* \"#utility.yul\":9605:9606   */\n      dup4\n        /* \"#utility.yul\":9598:9607   */\n      iszero\n        /* \"#utility.yul\":9578:9662   */\n      or\n        /* \"#utility.yul\":9555:9695   */\n      tag_419\n      jumpi\n        /* \"#utility.yul\":9675:9693   */\n      tag_420\n      tag_260\n      jump\t// in\n    tag_420:\n        /* \"#utility.yul\":9555:9695   */\n    tag_419:\n        /* \"#utility.yul\":9193:9702   */\n      pop\n        /* \"#utility.yul\":9146:9702   */\n      swap3\n      swap2\n      pop\n      pop\n      jump\t// out\n        /* \"#utility.yul\":9708:10080   */\n    tag_190:\n        /* \"#utility.yul\":9747:9751   */\n      0x00\n        /* \"#utility.yul\":9767:9786   */\n      tag_422\n        /* \"#utility.yul\":9784:9785   */\n      dup3\n        /* \"#utility.yul\":9767:9786   */\n      tag_283\n      jump\t// in\n    tag_422:\n        /* \"#utility.yul\":9762:9786   */\n      swap2\n      pop\n        /* \"#utility.yul\":9800:9819   */\n      tag_423\n        /* \"#utility.yul\":9817:9818   */\n      dup4\n        /* \"#utility.yul\":9800:9819   */\n      tag_283\n      jump\t// in\n    tag_423:\n        /* \"#utility.yul\":9795:9819   */\n      swap3\n      pop\n        /* \"#utility.yul\":9843:9844   */\n      dup3\n        /* \"#utility.yul\":9840:9841   */\n      dup3\n        /* \"#utility.yul\":9836:9845   */\n      sub\n        /* \"#utility.yul\":9828:9845   */\n      swap1\n      pop\n        /* \"#utility.yul\":10037:10038   */\n      dup2\n        /* \"#utility.yul\":10031:10035   */\n      dup2\n        /* \"#utility.yul\":10027:10039   */\n      slt\n        /* \"#utility.yul\":10023:10024   */\n      0x00\n        /* \"#utility.yul\":10020:10021   */\n      dup5\n        /* \"#utility.yul\":10016:10025   */\n      slt\n        /* \"#utility.yul\":10012:10040   */\n      and\n        /* \"#utility.yul\":9995:9996   */\n      dup3\n        /* \"#utility.yul\":9989:9993   */\n      dup3\n        /* \"#utility.yul\":9985:9997   */\n      sgt\n        /* \"#utility.yul\":9980:9981   */\n      0x00\n        /* \"#utility.yul\":9977:9978   */\n      dup6\n        /* \"#utility.yul\":9973:9982   */\n      slt\n        /* \"#utility.yul\":9966:9983   */\n      iszero\n        /* \"#utility.yul\":9962:9998   */\n      and\n        /* \"#utility.yul\":9946:10050   */\n      or\n        /* \"#utility.yul\":9943:10073   */\n      iszero\n      tag_424\n      jumpi\n        /* \"#utility.yul\":10053:10071   */\n      tag_425\n      tag_260\n      jump\t// in\n    tag_425:\n        /* \"#utility.yul\":9943:10073   */\n    tag_424:\n        /* \"#utility.yul\":9708:10080   */\n      swap3\n      swap2\n      pop\n      pop\n      jump\t// out\n        /* \"#utility.yul\":10086:10461   */\n    tag_192:\n        /* \"#utility.yul\":10125:10128   */\n      0x00\n        /* \"#utility.yul\":10144:10163   */\n      tag_427\n        /* \"#utility.yul\":10161:10162   */\n      dup3\n        /* \"#utility.yul\":10144:10163   */\n      tag_283\n      jump\t// in\n    tag_427:\n        /* \"#utility.yul\":10139:10163   */\n      swap2\n      pop\n        /* \"#utility.yul\":10177:10196   */\n      tag_428\n        /* \"#utility.yul\":10194:10195   */\n      dup4\n        /* \"#utility.yul\":10177:10196   */\n      tag_283\n      jump\t// in\n    tag_428:\n        /* \"#utility.yul\":10172:10196   */\n      swap3\n      pop\n        /* \"#utility.yul\":10219:10220   */\n      dup3\n        /* \"#utility.yul\":10216:10217   */\n      dup3\n        /* \"#utility.yul\":10212:10221   */\n      add\n        /* \"#utility.yul\":10205:10221   */\n      swap1\n      pop\n        /* \"#utility.yul\":10417:10418   */\n      dup3\n        /* \"#utility.yul\":10412:10415   */\n      dup2\n        /* \"#utility.yul\":10408:10419   */\n      slt\n        /* \"#utility.yul\":10401:10420   */\n      iszero\n        /* \"#utility.yul\":10397:10398   */\n      0x00\n        /* \"#utility.yul\":10394:10395   */\n      dup4\n        /* \"#utility.yul\":10390:10399   */\n      slt\n        /* \"#utility.yul\":10386:10421   */\n      and\n        /* \"#utility.yul\":10369:10370   */\n      dup4\n        /* \"#utility.yul\":10364:10367   */\n      dup3\n        /* \"#utility.yul\":10360:10371   */\n      slt\n        /* \"#utility.yul\":10355:10356   */\n      0x00\n        /* \"#utility.yul\":10352:10353   */\n      dup5\n        /* \"#utility.yul\":10348:10357   */\n      slt\n        /* \"#utility.yul\":10341:10358   */\n      iszero\n        /* \"#utility.yul\":10337:10372   */\n      and\n        /* \"#utility.yul\":10321:10431   */\n      or\n        /* \"#utility.yul\":10318:10454   */\n      iszero\n      tag_429\n      jumpi\n        /* \"#utility.yul\":10434:10452   */\n      tag_430\n      tag_260\n      jump\t// in\n    tag_430:\n        /* \"#utility.yul\":10318:10454   */\n    tag_429:\n        /* \"#utility.yul\":10086:10461   */\n      swap3\n      swap2\n      pop\n      pop\n      jump\t// out\n        /* \"#utility.yul\":10467:10636   */\n    tag_284:\n        /* \"#utility.yul\":10551:10562   */\n      0x00\n        /* \"#utility.yul\":10585:10591   */\n      dup3\n        /* \"#utility.yul\":10580:10583   */\n      dup3\n        /* \"#utility.yul\":10573:10592   */\n      mstore\n        /* \"#utility.yul\":10625:10629   */\n      0x20\n        /* \"#utility.yul\":10620:10623   */\n      dup3\n        /* \"#utility.yul\":10616:10630   */\n      add\n        /* \"#utility.yul\":10601:10630   */\n      swap1\n      pop\n        /* \"#utility.yul\":10467:10636   */\n      swap3\n      swap2\n      pop\n      pop\n      jump\t// out\n        /* \"#utility.yul\":10642:10809   */\n    tag_285:\n        /* \"#utility.yul\":10782:10801   */\n      0x57726f6e6720696e707574206f72646572000000000000000000000000000000\n        /* \"#utility.yul\":10778:10779   */\n      0x00\n        /* \"#utility.yul\":10770:10776   */\n      dup3\n        /* \"#utility.yul\":10766:10780   */\n      add\n        /* \"#utility.yul\":10759:10802   */\n      mstore\n        /* \"#utility.yul\":10642:10809   */\n      pop\n      jump\t// out\n        /* \"#utility.yul\":10815:11181   */\n    tag_286:\n        /* \"#utility.yul\":10957:10960   */\n      0x00\n        /* \"#utility.yul\":10978:11045   */\n      tag_434\n        /* \"#utility.yul\":11042:11044   */\n      0x11\n        /* \"#utility.yul\":11037:11040   */\n      dup4\n        /* \"#utility.yul\":10978:11045   */\n      tag_284\n      jump\t// in\n    tag_434:\n        /* \"#utility.yul\":10971:11045   */\n      swap2\n      pop\n        /* \"#utility.yul\":11054:11147   */\n      tag_435\n        /* \"#utility.yul\":11143:11146   */\n      dup3\n        /* \"#utility.yul\":11054:11147   */\n      tag_285\n      jump\t// in\n    tag_435:\n        /* \"#utility.yul\":11172:11174   */\n      0x20\n        /* \"#utility.yul\":11167:11170   */\n      dup3\n        /* \"#utility.yul\":11163:11175   */\n      add\n        /* \"#utility.yul\":11156:11175   */\n      swap1\n      pop\n        /* \"#utility.yul\":10815:11181   */\n      swap2\n      swap1\n      pop\n      jump\t// out\n        /* \"#utility.yul\":11187:11606   */\n    tag_210:\n        /* \"#utility.yul\":11353:11357   */\n      0x00\n        /* \"#utility.yul\":11391:11393   */\n      0x20\n        /* \"#utility.yul\":11380:11389   */\n      dup3\n        /* \"#utility.yul\":11376:11394   */\n      add\n        /* \"#utility.yul\":11368:11394   */\n      swap1\n      pop\n        /* \"#utility.yul\":11440:11449   */\n      dup2\n        /* \"#utility.yul\":11434:11438   */\n      dup2\n        /* \"#utility.yul\":11430:11450   */\n      sub\n        /* \"#utility.yul\":11426:11427   */\n      0x00\n        /* \"#utility.yul\":11415:11424   */\n      dup4\n        /* \"#utility.yul\":11411:11428   */\n      add\n        /* \"#utility.yul\":11404:11451   */\n      mstore\n        /* \"#utility.yul\":11468:11599   */\n      tag_437\n        /* \"#utility.yul\":11594:11598   */\n      dup2\n        /* \"#utility.yul\":11468:11599   */\n      tag_286\n      jump\t// in\n    tag_437:\n        /* \"#utility.yul\":11460:11599   */\n      swap1\n      pop\n        /* \"#utility.yul\":11187:11606   */\n      swap2\n      swap1\n      pop\n      jump\t// out\n        /* \"#utility.yul\":11612:11714   */\n    tag_287:\n        /* \"#utility.yul\":11654:11662   */\n      0x00\n        /* \"#utility.yul\":11701:11706   */\n      dup2\n        /* \"#utility.yul\":11698:11699   */\n      0x01\n        /* \"#utility.yul\":11694:11707   */\n      shr\n        /* \"#utility.yul\":11673:11707   */\n      swap1\n      pop\n        /* \"#utility.yul\":11612:11714   */\n      swap2\n      swap1\n      pop\n      jump\t// out\n        /* \"#utility.yul\":11720:12568   */\n    tag_288:\n        /* \"#utility.yul\":11781:11786   */\n      0x00\n        /* \"#utility.yul\":11788:11792   */\n      dup1\n        /* \"#utility.yul\":11812:11818   */\n      dup3\n        /* \"#utility.yul\":11803:11818   */\n      swap2\n      pop\n        /* \"#utility.yul\":11836:11841   */\n      dup4\n        /* \"#utility.yul\":11827:11841   */\n      swap1\n      pop\n        /* \"#utility.yul\":11850:12562   */\n    tag_440:\n        /* \"#utility.yul\":11871:11872   */\n      0x01\n        /* \"#utility.yul\":11861:11869   */\n      dup6\n        /* \"#utility.yul\":11858:11873   */\n      gt\n        /* \"#utility.yul\":11850:12562   */\n      iszero\n      tag_442\n      jumpi\n        /* \"#utility.yul\":11966:11970   */\n      dup1\n        /* \"#utility.yul\":11961:11964   */\n      dup7\n        /* \"#utility.yul\":11957:11971   */\n      div\n        /* \"#utility.yul\":11951:11955   */\n      dup2\n        /* \"#utility.yul\":11948:11972   */\n      gt\n        /* \"#utility.yul\":11945:11995   */\n      iszero\n      tag_443\n      jumpi\n        /* \"#utility.yul\":11975:11993   */\n      tag_444\n      tag_260\n      jump\t// in\n    tag_444:\n        /* \"#utility.yul\":11945:11995   */\n    tag_443:\n        /* \"#utility.yul\":12025:12026   */\n      0x01\n        /* \"#utility.yul\":12015:12023   */\n      dup6\n        /* \"#utility.yul\":12011:12027   */\n      and\n        /* \"#utility.yul\":12008:12459   */\n      iszero\n      tag_445\n      jumpi\n        /* \"#utility.yul\":12440:12444   */\n      dup1\n        /* \"#utility.yul\":12433:12438   */\n      dup3\n        /* \"#utility.yul\":12429:12445   */\n      mul\n        /* \"#utility.yul\":12420:12445   */\n      swap2\n      pop\n        /* \"#utility.yul\":12008:12459   */\n    tag_445:\n        /* \"#utility.yul\":12490:12494   */\n      dup1\n        /* \"#utility.yul\":12484:12488   */\n      dup2\n        /* \"#utility.yul\":12480:12495   */\n      mul\n        /* \"#utility.yul\":12472:12495   */\n      swap1\n      pop\n        /* \"#utility.yul\":12520:12552   */\n      tag_446\n        /* \"#utility.yul\":12543:12551   */\n      dup6\n        /* \"#utility.yul\":12520:12552   */\n      tag_287\n      jump\t// in\n    tag_446:\n        /* \"#utility.yul\":12508:12552   */\n      swap5\n      pop\n        /* \"#utility.yul\":11850:12562   */\n      jump(tag_440)\n    tag_442:\n        /* \"#utility.yul\":11720:12568   */\n      swap5\n      pop\n      swap5\n      swap3\n      pop\n      pop\n      pop\n      jump\t// out\n        /* \"#utility.yul\":12574:13799   */\n    tag_289:\n        /* \"#utility.yul\":12631:12636   */\n      0x00\n        /* \"#utility.yul\":12797:12805   */\n      dup3\n        /* \"#utility.yul\":12819:12820   */\n      0x00\n        /* \"#utility.yul\":12814:12841   */\n      dup2\n      eq\n      tag_449\n      jumpi\n        /* \"#utility.yul\":12855:12856   */\n      0x01\n        /* \"#utility.yul\":12850:12880   */\n      dup2\n      eq\n      tag_450\n      jumpi\n        /* \"#utility.yul\":12790:12880   */\n      jump(tag_448)\n        /* \"#utility.yul\":12814:12841   */\n    tag_449:\n        /* \"#utility.yul\":12832:12833   */\n      0x01\n        /* \"#utility.yul\":12823:12833   */\n      swap2\n      pop\n        /* \"#utility.yul\":12834:12839   */\n      pop\n      jump(tag_447)\n        /* \"#utility.yul\":12850:12880   */\n    tag_450:\n        /* \"#utility.yul\":12868:12872   */\n      dup3\n        /* \"#utility.yul\":12859:12872   */\n      swap2\n      pop\n        /* \"#utility.yul\":12873:12878   */\n      pop\n      jump(tag_447)\n        /* \"#utility.yul\":12790:12880   */\n    tag_448:\n      pop\n        /* \"#utility.yul\":12899:12903   */\n      dup2\n        /* \"#utility.yul\":12889:12925   */\n      tag_451\n      jumpi\n        /* \"#utility.yul\":12916:12917   */\n      0x00\n        /* \"#utility.yul\":12907:12917   */\n      swap1\n      pop\n        /* \"#utility.yul\":12918:12923   */\n      jump(tag_447)\n        /* \"#utility.yul\":12889:12925   */\n    tag_451:\n        /* \"#utility.yul\":12944:12945   */\n      0x01\n        /* \"#utility.yul\":12935:12945   */\n      swap1\n      pop\n        /* \"#utility.yul\":13167:13168   */\n      0x00\n        /* \"#utility.yul\":13161:13165   */\n      dup3\n        /* \"#utility.yul\":13157:13169   */\n      sgt\n        /* \"#utility.yul\":13183:13184   */\n      0x01\n        /* \"#utility.yul\":13178:13239   */\n      dup2\n      eq\n      tag_453\n      jumpi\n        /* \"#utility.yul\":13253:13254   */\n      0x00\n        /* \"#utility.yul\":13248:13311   */\n      dup2\n      eq\n      tag_454\n      jumpi\n        /* \"#utility.yul\":13150:13311   */\n      jump(tag_452)\n        /* \"#utility.yul\":13178:13239   */\n    tag_453:\n        /* \"#utility.yul\":13208:13212   */\n      dup3\n        /* \"#utility.yul\":13203:13206   */\n      dup7\n        /* \"#utility.yul\":13199:13213   */\n      div\n        /* \"#utility.yul\":13193:13197   */\n      dup4\n        /* \"#utility.yul\":13190:13214   */\n      gt\n        /* \"#utility.yul\":13187:13237   */\n      iszero\n      tag_455\n      jumpi\n        /* \"#utility.yul\":13217:13235   */\n      tag_456\n      tag_260\n      jump\t// in\n    tag_456:\n        /* \"#utility.yul\":13187:13237   */\n    tag_455:\n        /* \"#utility.yul\":13178:13239   */\n      jump(tag_452)\n        /* \"#utility.yul\":13248:13311   */\n    tag_454:\n        /* \"#utility.yul\":13280:13284   */\n      dup3\n        /* \"#utility.yul\":13275:13278   */\n      dup7\n        /* \"#utility.yul\":13270:13285   */\n      sdiv\n        /* \"#utility.yul\":13264:13268   */\n      dup4\n        /* \"#utility.yul\":13260:13286   */\n      slt\n        /* \"#utility.yul\":13257:13309   */\n      iszero\n      tag_457\n      jumpi\n        /* \"#utility.yul\":13289:13307   */\n      tag_458\n      tag_260\n      jump\t// in\n    tag_458:\n        /* \"#utility.yul\":13257:13309   */\n    tag_457:\n        /* \"#utility.yul\":13150:13311   */\n    tag_452:\n      pop\n        /* \"#utility.yul\":13337:13338   */\n      0x01\n        /* \"#utility.yul\":13327:13335   */\n      dup4\n        /* \"#utility.yul\":13323:13339   */\n      and\n        /* \"#utility.yul\":13320:13385   */\n      iszero\n      tag_459\n      jumpi\n        /* \"#utility.yul\":13371:13375   */\n      dup2\n        /* \"#utility.yul\":13362:13375   */\n      swap1\n      pop\n        /* \"#utility.yul\":13320:13385   */\n    tag_459:\n        /* \"#utility.yul\":13412:13416   */\n      dup2\n        /* \"#utility.yul\":13406:13410   */\n      dup3\n        /* \"#utility.yul\":13402:13417   */\n      mul\n        /* \"#utility.yul\":13394:13417   */\n      swap2\n      pop\n        /* \"#utility.yul\":13438:13470   */\n      tag_460\n        /* \"#utility.yul\":13461:13469   */\n      dup4\n        /* \"#utility.yul\":13438:13470   */\n      tag_287\n      jump\t// in\n    tag_460:\n        /* \"#utility.yul\":13426:13470   */\n      swap3\n      pop\n        /* \"#utility.yul\":13550:13596   */\n      tag_461\n        /* \"#utility.yul\":13592:13595   */\n      dup6\n        /* \"#utility.yul\":13582:13590   */\n      dup5\n        /* \"#utility.yul\":13576:13580   */\n      dup5\n        /* \"#utility.yul\":13569:13574   */\n      dup5\n        /* \"#utility.yul\":13550:13596   */\n      tag_288\n      jump\t// in\n    tag_461:\n        /* \"#utility.yul\":13535:13596   */\n      swap3\n      pop\n      swap1\n      pop\n        /* \"#utility.yul\":13647:13651   */\n      dup2\n        /* \"#utility.yul\":13642:13645   */\n      dup6\n        /* \"#utility.yul\":13638:13652   */\n      div\n        /* \"#utility.yul\":13631:13636   */\n      dup2\n        /* \"#utility.yul\":13628:13653   */\n      gt\n        /* \"#utility.yul\":13624:13625   */\n      0x00\n        /* \"#utility.yul\":13617:13622   */\n      dup3\n        /* \"#utility.yul\":13613:13626   */\n      sgt\n        /* \"#utility.yul\":13609:13654   */\n      and\n        /* \"#utility.yul\":13606:13677   */\n      iszero\n      tag_462\n      jumpi\n        /* \"#utility.yul\":13657:13675   */\n      tag_463\n      tag_260\n      jump\t// in\n    tag_463:\n        /* \"#utility.yul\":13606:13677   */\n    tag_462:\n        /* \"#utility.yul\":13729:13733   */\n      dup2\n        /* \"#utility.yul\":13724:13727   */\n      dup5\n        /* \"#utility.yul\":13719:13734   */\n      sdiv\n        /* \"#utility.yul\":13712:13717   */\n      dup2\n        /* \"#utility.yul\":13708:13735   */\n      slt\n        /* \"#utility.yul\":13704:13705   */\n      0x00\n        /* \"#utility.yul\":13697:13702   */\n      dup3\n        /* \"#utility.yul\":13693:13706   */\n      slt\n        /* \"#utility.yul\":13689:13736   */\n      and\n        /* \"#utility.yul\":13686:13759   */\n      iszero\n      tag_464\n      jumpi\n        /* \"#utility.yul\":13739:13757   */\n      tag_465\n      tag_260\n      jump\t// in\n    tag_465:\n        /* \"#utility.yul\":13686:13759   */\n    tag_464:\n        /* \"#utility.yul\":13788:13792   */\n      dup2\n        /* \"#utility.yul\":13781:13786   */\n      dup2\n        /* \"#utility.yul\":13777:13793   */\n      mul\n        /* \"#utility.yul\":13768:13793   */\n      swap1\n      pop\n        /* \"#utility.yul\":12574:13799   */\n    tag_447:\n      swap5\n      swap4\n      pop\n      pop\n      pop\n      pop\n      jump\t// out\n        /* \"#utility.yul\":13805:14150   */\n    tag_221:\n        /* \"#utility.yul\":13862:13867   */\n      0x00\n        /* \"#utility.yul\":13886:13908   */\n      tag_467\n        /* \"#utility.yul\":13903:13907   */\n      dup3\n        /* \"#utility.yul\":13886:13908   */\n      tag_283\n      jump\t// in\n    tag_467:\n        /* \"#utility.yul\":13878:13908   */\n      swap2\n      pop\n        /* \"#utility.yul\":13929:13954   */\n      tag_468\n        /* \"#utility.yul\":13945:13953   */\n      dup4\n        /* \"#utility.yul\":13929:13954   */\n      tag_270\n      jump\t// in\n    tag_468:\n        /* \"#utility.yul\":13917:13954   */\n      swap3\n      pop\n        /* \"#utility.yul\":13973:14143   */\n      tag_469\n        /* \"#utility.yul\":14076:14142   */\n      0x7fffffffffffffffffffffffffffffffffffffffffffffffffffffffffffffff\n        /* \"#utility.yul\":14008:14074   */\n      0x8000000000000000000000000000000000000000000000000000000000000000\n        /* \"#utility.yul\":13998:14006   */\n      dup6\n        /* \"#utility.yul\":13992:13996   */\n      dup6\n        /* \"#utility.yul\":13973:14143   */\n      tag_289\n      jump\t// in\n    tag_469:\n        /* \"#utility.yul\":13964:14143   */\n      swap1\n      pop\n        /* \"#utility.yul\":13805:14150   */\n      swap3\n      swap2\n      pop\n      pop\n      jump\t// out\n        /* \"#utility.yul\":14156:14320   */\n    tag_290:\n        /* \"#utility.yul\":14296:14312   */\n      0x436f6d706c6578206e756d626572000000000000000000000000000000000000\n        /* \"#utility.yul\":14292:14293   */\n      0x00\n        /* \"#utility.yul\":14284:14290   */\n      dup3\n        /* \"#utility.yul\":14280:14294   */\n      add\n        /* \"#utility.yul\":14273:14313   */\n      mstore\n        /* \"#utility.yul\":14156:14320   */\n      pop\n      jump\t// out\n        /* \"#utility.yul\":14326:14692   */\n    tag_291:\n        /* \"#utility.yul\":14468:14471   */\n      0x00\n        /* \"#utility.yul\":14489:14556   */\n      tag_472\n        /* \"#utility.yul\":14553:14555   */\n      0x0e\n        /* \"#utility.yul\":14548:14551   */\n      dup4\n        /* \"#utility.yul\":14489:14556   */\n      tag_284\n      jump\t// in\n    tag_472:\n        /* \"#utility.yul\":14482:14556   */\n      swap2\n      pop\n        /* \"#utility.yul\":14565:14658   */\n      tag_473\n        /* \"#utility.yul\":14654:14657   */\n      dup3\n        /* \"#utility.yul\":14565:14658   */\n      tag_290\n      jump\t// in\n    tag_473:\n        /* \"#utility.yul\":14683:14685   */\n      0x20\n        /* \"#utility.yul\":14678:14681   */\n      dup3\n        /* \"#utility.yul\":14674:14686   */\n      add\n        /* \"#utility.yul\":14667:14686   */\n      swap1\n      pop\n        /* \"#utility.yul\":14326:14692   */\n      swap2\n      swap1\n      pop\n      jump\t// out\n        /* \"#utility.yul\":14698:15117   */\n    tag_225:\n        /* \"#utility.yul\":14864:14868   */\n      0x00\n        /* \"#utility.yul\":14902:14904   */\n      0x20\n        /* \"#utility.yul\":14891:14900   */\n      dup3\n        /* \"#utility.yul\":14887:14905   */\n      add\n        /* \"#utility.yul\":14879:14905   */\n      swap1\n      pop\n        /* \"#utility.yul\":14951:14960   */\n      dup2\n        /* \"#utility.yul\":14945:14949   */\n      dup2\n        /* \"#utility.yul\":14941:14961   */\n      sub\n        /* \"#utility.yul\":14937:14938   */\n      0x00\n        /* \"#utility.yul\":14926:14935   */\n      dup4\n        /* \"#utility.yul\":14922:14939   */\n      add\n        /* \"#utility.yul\":14915:14962   */\n      mstore\n        /* \"#utility.yul\":14979:15110   */\n      tag_475\n        /* \"#utility.yul\":15105:15109   */\n      dup2\n        /* \"#utility.yul\":14979:15110   */\n      tag_291\n      jump\t// in\n    tag_475:\n        /* \"#utility.yul\":14971:15110   */\n      swap1\n      pop\n        /* \"#utility.yul\":14698:15117   */\n      swap2\n      swap1\n      pop\n      jump\t// out\n        /* \"#utility.yul\":15123:15351   */\n    tag_230:\n        /* \"#utility.yul\":15158:15161   */\n      0x00\n        /* \"#utility.yul\":15181:15204   */\n      tag_477\n        /* \"#utility.yul\":15198:15203   */\n      dup3\n        /* \"#utility.yul\":15181:15204   */\n      tag_283\n      jump\t// in\n    tag_477:\n        /* \"#utility.yul\":15172:15204   */\n      swap2\n      pop\n        /* \"#utility.yul\":15226:15292   */\n      0x8000000000000000000000000000000000000000000000000000000000000000\n        /* \"#utility.yul\":15219:15224   */\n      dup3\n        /* \"#utility.yul\":15216:15293   */\n      sub\n        /* \"#utility.yul\":15213:15316   */\n      tag_478\n      jumpi\n        /* \"#utility.yul\":15296:15314   */\n      tag_479\n      tag_260\n      jump\t// in\n    tag_479:\n        /* \"#utility.yul\":15213:15316   */\n    tag_478:\n        /* \"#utility.yul\":15339:15344   */\n      dup2\n        /* \"#utility.yul\":15336:15337   */\n      0x00\n        /* \"#utility.yul\":15332:15345   */\n      sub\n        /* \"#utility.yul\":15325:15345   */\n      swap1\n      pop\n        /* \"#utility.yul\":15123:15351   */\n      swap2\n      swap1\n      pop\n      jump\t// out\n        /* \"#utility.yul\":15357:15742   */\n    tag_233:\n        /* \"#utility.yul\":15396:15397   */\n      0x00\n        /* \"#utility.yul\":15413:15432   */\n      tag_481\n        /* \"#utility.yul\":15430:15431   */\n      dup3\n        /* \"#utility.yul\":15413:15432   */\n      tag_283\n      jump\t// in\n    tag_481:\n        /* \"#utility.yul\":15408:15432   */\n      swap2\n      pop\n        /* \"#utility.yul\":15446:15465   */\n      tag_482\n        /* \"#utility.yul\":15463:15464   */\n      dup4\n        /* \"#utility.yul\":15446:15465   */\n      tag_283\n      jump\t// in\n    tag_482:\n        /* \"#utility.yul\":15441:15465   */\n      swap3\n      pop\n        /* \"#utility.yul\":15484:15485   */\n      dup3\n        /* \"#utility.yul\":15474:15509   */\n      tag_483\n      jumpi\n        /* \"#utility.yul\":15489:15507   */\n      tag_484\n      tag_261\n      jump\t// in\n    tag_484:\n        /* \"#utility.yul\":15474:15509   */\n    tag_483:\n        /* \"#utility.yul\":15675:15676   */\n      0x01\n        /* \"#utility.yul\":15672:15673   */\n      0x00\n        /* \"#utility.yul\":15668:15677   */\n      sub\n        /* \"#utility.yul\":15665:15666   */\n      dup4\n        /* \"#utility.yul\":15662:15678   */\n      eq\n        /* \"#utility.yul\":15581:15647   */\n      0x8000000000000000000000000000000000000000000000000000000000000000\n        /* \"#utility.yul\":15578:15579   */\n      dup4\n        /* \"#utility.yul\":15575:15648   */\n      eq\n        /* \"#utility.yul\":15558:15688   */\n      and\n        /* \"#utility.yul\":15555:15711   */\n      iszero\n      tag_485\n      jumpi\n        /* \"#utility.yul\":15691:15709   */\n      tag_486\n      tag_260\n      jump\t// in\n    tag_486:\n        /* \"#utility.yul\":15555:15711   */\n    tag_485:\n        /* \"#utility.yul\":15734:15735   */\n      dup3\n        /* \"#utility.yul\":15731:15732   */\n      dup3\n        /* \"#utility.yul\":15726:15736   */\n      sdiv\n        /* \"#utility.yul\":15721:15736   */\n      swap1\n      pop\n        /* \"#utility.yul\":15357:15742   */\n      swap3\n      swap2\n      pop\n      pop\n      jump\t// out\n        /* \"#utility.yul\":15748:15928   */\n    tag_241:\n        /* \"#utility.yul\":15796:15873   */\n      0x4e487b7100000000000000000000000000000000000000000000000000000000\n        /* \"#utility.yul\":15793:15794   */\n      0x00\n        /* \"#utility.yul\":15786:15874   */\n      mstore\n        /* \"#utility.yul\":15893:15897   */\n      0x01\n        /* \"#utility.yul\":15890:15891   */\n      0x04\n        /* \"#utility.yul\":15883:15898   */\n      mstore\n        /* \"#utility.yul\":15917:15921   */\n      0x24\n        /* \"#utility.yul\":15914:15915   */\n      0x00\n        /* \"#utility.yul\":15907:15922   */\n      revert\n\n    auxdata: 0xa26469706673582212209d27755a611b1b6c5b93708a8fca26e6041474f350fc0152ddb055a7258a8eb164736f6c634300081a0033\n}\n",
				"bytecode": {
					"linkReferences": {},
					"object": "6080604052348015600e575f80fd5b506119d88061001c5f395ff3fe608060405234801561000f575f80fd5b506004361061009c575f3560e01c80637232688e116100645780637232688e146101915780637d9ada3e146101c25780639872971a146101f2578063b49bbce514610222578063ec0a63d8146102525761009c565b80630d83825b146100a05780631e953b15146100d05780631fdd03cb1461010157806321fef8811461013157806344401a2414610161575b5f80fd5b6100ba60048036038101906100b59190611079565b610283565b6040516100c791906110cf565b60405180910390f35b6100ea60048036038101906100e591906110e8565b6102f7565b6040516100f8929190611113565b60405180910390f35b61011b600480360381019061011691906110e8565b610423565b60405161012891906110cf565b60405180910390f35b61014b60048036038101906101469190611079565b610519565b60405161015891906110cf565b60405180910390f35b61017b60048036038101906101769190611079565b61055d565b60405161018891906110cf565b60405180910390f35b6101ab60048036038101906101a691906110e8565b6105ad565b6040516101b9929190611113565b60405180910390f35b6101dc60048036038101906101d79190611079565b61078f565b6040516101e991906110cf565b60405180910390f35b61020c60048036038101906102079190611079565b6107df565b60405161021991906110cf565b60405180910390f35b61023c600480360381019061023791906110e8565b610853565b60405161024991906110cf565b60405180910390f35b61026c600480360381019061026791906110e8565b610949565b60405161027a929190611113565b60405180910390f35b5f8061028e846102f7565b9150505f61029b846102f7565b915050600282826102ac9190611167565b82620f4240670de0b6b3a7640000866102c591906111c7565b6102cf91906111f7565b6102d99190611238565b6102e391906111c7565b6102ed91906111c7565b9250505092915050565b5f805f8390508073ffffffffffffffffffffffffffffffffffffffff16633850c7bd6040518163ffffffff1660e01b815260040160e060405180830381865afa158015610346573d5f803e3d5ffd5b505050506040513d601f19601f8201168201806040525081019061036a919061136d565b8673ffffffffffffffffffffffffffffffffffffffff169650909192939450909192935090919250909150905050809250508073ffffffffffffffffffffffffffffffffffffffff16631a6865026040518163ffffffff1660e01b8152600401602060405180830381865afa1580156103e5573d5f803e3d5ffd5b505050506040513d601f19601f82011682018060405250810190610409919061144f565b6fffffffffffffffffffffffffffffffff16925050915091565b5f808290505f8173ffffffffffffffffffffffffffffffffffffffff16630dfe16816040518163ffffffff1660e01b8152600401602060405180830381865afa158015610472573d5f803e3d5ffd5b505050506040513d601f19601f82011682018060405250810190610496919061148e565b90508073ffffffffffffffffffffffffffffffffffffffff166370a08231856040518263ffffffff1660e01b81526004016104d191906114c8565b602060405180830381865afa1580156104ec573d5f803e3d5ffd5b505050506040513d601f19601f82011682018060405250810190610510919061150b565b92505050919050565b5f8061052584846107df565b90505f6105328486610283565b9050670de0b6b3a7640000818361054991906111f7565b61055391906111c7565b9250505092915050565b5f610566610ff7565b61056f846105ad565b825f018360200182815250828152505050610589836105ad565b8260400183606001828152508281525050506105a481610b2b565b91505092915050565b5f805f8390505f8173ffffffffffffffffffffffffffffffffffffffff16630dfe16816040518163ffffffff1660e01b8152600401602060405180830381865afa1580156105fd573d5f803e3d5ffd5b505050506040513d601f19601f82011682018060405250810190610621919061148e565b90505f8273ffffffffffffffffffffffffffffffffffffffff1663d21220a76040518163ffffffff1660e01b8152600401602060405180830381865afa15801561066d573d5f803e3d5ffd5b505050506040513d601f19601f82011682018060405250810190610691919061148e565b90508173ffffffffffffffffffffffffffffffffffffffff166370a08231876040518263ffffffff1660e01b81526004016106cc91906114c8565b602060405180830381865afa1580156106e7573d5f803e3d5ffd5b505050506040513d601f19601f8201168201806040525081019061070b919061150b565b94508073ffffffffffffffffffffffffffffffffffffffff166370a08231876040518263ffffffff1660e01b815260040161074691906114c8565b602060405180830381865afa158015610761573d5f803e3d5ffd5b505050506040513d601f19601f82011682018060405250810190610785919061150b565b9350505050915091565b5f610798610ff7565b6107a184610949565b825f0183602001828152508281525050506107bb83610949565b8260400183606001828152508281525050506107d681610b2b565b91505092915050565b5f806107ea846102f7565b5090505f6107f7846102f7565b50905060028261080791906111c7565b816108129190611167565b81620f4240670de0b6b3a76400008561082b91906111c7565b61083591906111f7565b61083f9190611238565b61084991906111c7565b9250505092915050565b5f808290505f8173ffffffffffffffffffffffffffffffffffffffff1663d21220a76040518163ffffffff1660e01b8152600401602060405180830381865afa1580156108a2573d5f803e3d5ffd5b505050506040513d601f19601f820116820180604052508101906108c6919061148e565b90508073ffffffffffffffffffffffffffffffffffffffff166370a08231856040518263ffffffff1660e01b815260040161090191906114c8565b602060405180830381865afa15801561091c573d5f803e3d5ffd5b505050506040513d601f19601f82011682018060405250810190610940919061150b565b92505050919050565b5f805f8390505f8173ffffffffffffffffffffffffffffffffffffffff16630dfe16816040518163ffffffff1660e01b8152600401602060405180830381865afa158015610999573d5f803e3d5ffd5b505050506040513d601f19601f820116820180604052508101906109bd919061148e565b90505f8273ffffffffffffffffffffffffffffffffffffffff1663d21220a76040518163ffffffff1660e01b8152600401602060405180830381865afa158015610a09573d5f803e3d5ffd5b505050506040513d601f19601f82011682018060405250810190610a2d919061148e565b90508173ffffffffffffffffffffffffffffffffffffffff166370a08231876040518263ffffffff1660e01b8152600401610a6891906114c8565b602060405180830381865afa158015610a83573d5f803e3d5ffd5b505050506040513d601f19601f82011682018060405250810190610aa7919061150b565b94508073ffffffffffffffffffffffffffffffffffffffff166370a08231876040518263ffffffff1660e01b8152600401610ae291906114c8565b602060405180830381865afa158015610afd573d5f803e3d5ffd5b505050506040513d601f19601f82011682018060405250810190610b21919061150b565b9350505050915091565b5f808260200151835f015110610b45578260200151610b4a565b825f01515b90505f8360600151846040015110610b66578360600151610b6c565b83604001515b90505f818310610b7c5781610b7e565b825b90505f69d3c21bcecceda1000000821115610ba45768056bc75e2d631000009050610cce565b69152d02c7e14af6800000821115610bc657678ac7230489e800009050610ccd565b69021e19e0c9bab2400000821115610be857670de0b6b3a76400009050610ccc565b683635c9adc5dea00000821115610c095767016345785d8a00009050610ccb565b68056bc75e2d63100000821115610c2957662386f26fc100009050610cca565b678ac7230489e80000821115610c485766038d7ea4c680009050610cc9565b670de0b6b3a7640000821115610c6657655af3107a40009050610cc8565b67016345785d8a0000821115610c84576509184e72a0009050610cc7565b662386f26fc10000821115610ca05764e8d4a510009050610cc6565b66038d7ea4c68000821115610cbc5764174876e8009050610cc5565b6402540be40090505b5b5b5b5b5b5b5b5b5b5f805f80848a5f0151610ce191906111c7565b858b60400151610cf191906111c7565b868c60200151610d0191906111c7565b878d60600151610d1191906111c7565b93509350935093505f8184610d26919061153f565b8386610d32919061153f565b610d3c91906115b5565b90505f8486610d4b91906115f5565b83856002610d59919061153f565b610d63919061153f565b610d6d919061153f565b90505f8486610d7c919061153f565b8488610d88919061153f565b610d9291906115b5565b8486610d9e919061153f565b610da8919061153f565b90505f80610db7858585610e82565b915091505f82138015610dc957508682125b8015610dd457508582125b80610df457505f81138015610de857508681125b8015610df357508581125b5b610e33576040517f08c379a0000000000000000000000000000000000000000000000000000000008152600401610e2a90611690565b60405180910390fd5b5f82138015610e4157508682125b8015610e4c57508582125b610e61578981610e5c91906111f7565b610e6e565b8982610e6d91906111f7565b5b9d5050505050505050505050505050919050565b5f805f83866004610e93919061153f565b610e9d919061153f565b600286610eaa91906117f4565b610eb491906115b5565b90505f8113610ef8576040517f08c379a0000000000000000000000000000000000000000000000000000000008152600401610eef906118a9565b60405180910390fd5b5f610f0282610f6a565b9050866002610f11919061153f565b8187610f1c906118c7565b610f2691906115f5565b610f30919061190d565b9350866002610f3f919061153f565b8187610f4a906118c7565b610f5491906115b5565b610f5e919061190d565b92505050935093915050565b5f60018211610f7c57610f7b611975565b5b5f620f424083610f8c91906111f7565b90505f8190508192505f5b600115610fdf5760028483610fac91906111c7565b85610fb79190611167565b610fc191906111c7565b90506103e88185610fd29190611238565b10610fdf57809350610f97565b6103e884610fed91906111c7565b9350505050919050565b60405180608001604052805f81526020015f81526020015f81526020015f81525090565b5f80fd5b5f73ffffffffffffffffffffffffffffffffffffffff82169050919050565b5f6110488261101f565b9050919050565b6110588161103e565b8114611062575f80fd5b50565b5f813590506110738161104f565b92915050565b5f806040838503121561108f5761108e61101b565b5b5f61109c85828601611065565b92505060206110ad85828601611065565b9150509250929050565b5f819050919050565b6110c9816110b7565b82525050565b5f6020820190506110e25f8301846110c0565b92915050565b5f602082840312156110fd576110fc61101b565b5b5f61110a84828501611065565b91505092915050565b5f6040820190506111265f8301856110c0565b61113360208301846110c0565b9392505050565b7f4e487b71000000000000000000000000000000000000000000000000000000005f52601160045260245ffd5b5f611171826110b7565b915061117c836110b7565b92508282019050808211156111945761119361113a565b5b92915050565b7f4e487b71000000000000000000000000000000000000000000000000000000005f52601260045260245ffd5b5f6111d1826110b7565b91506111dc836110b7565b9250826111ec576111eb61119a565b5b828204905092915050565b5f611201826110b7565b915061120c836110b7565b925082820261121a816110b7565b915082820484148315176112315761123061113a565b5b5092915050565b5f611242826110b7565b915061124d836110b7565b92508282039050818111156112655761126461113a565b5b92915050565b6112748161101f565b811461127e575f80fd5b50565b5f8151905061128f8161126b565b92915050565b5f8160020b9050919050565b6112aa81611295565b81146112b4575f80fd5b50565b5f815190506112c5816112a1565b92915050565b5f61ffff82169050919050565b6112e1816112cb565b81146112eb575f80fd5b50565b5f815190506112fc816112d8565b92915050565b5f60ff82169050919050565b61131781611302565b8114611321575f80fd5b50565b5f815190506113328161130e565b92915050565b5f8115159050919050565b61134c81611338565b8114611356575f80fd5b50565b5f8151905061136781611343565b92915050565b5f805f805f805f60e0888a0312156113885761138761101b565b5b5f6113958a828b01611281565b97505060206113a68a828b016112b7565b96505060406113b78a828b016112ee565b95505060606113c88a828b016112ee565b94505060806113d98a828b016112ee565b93505060a06113ea8a828b01611324565b92505060c06113fb8a828b01611359565b91505092959891949750929550565b5f6fffffffffffffffffffffffffffffffff82169050919050565b61142e8161140a565b8114611438575f80fd5b50565b5f8151905061144981611425565b92915050565b5f602082840312156114645761146361101b565b5b5f6114718482850161143b565b91505092915050565b5f815190506114888161104f565b92915050565b5f602082840312156114a3576114a261101b565b5b5f6114b08482850161147a565b91505092915050565b6114c28161103e565b82525050565b5f6020820190506114db5f8301846114b9565b92915050565b6114ea816110b7565b81146114f4575f80fd5b50565b5f81519050611505816114e1565b92915050565b5f602082840312156115205761151f61101b565b5b5f61152d848285016114f7565b91505092915050565b5f819050919050565b5f61154982611536565b915061155483611536565b925082820261156281611536565b91507f800000000000000000000000000000000000000000000000000000000000000084145f841216156115995761159861113a565b5b82820584148315176115ae576115ad61113a565b5b5092915050565b5f6115bf82611536565b91506115ca83611536565b925082820390508181125f8412168282135f8512151617156115ef576115ee61113a565b5b92915050565b5f6115ff82611536565b915061160a83611536565b92508282019050828112155f8312168382125f8412151617156116305761162f61113a565b5b92915050565b5f82825260208201905092915050565b7f57726f6e6720696e707574206f726465720000000000000000000000000000005f82015250565b5f61167a601183611636565b915061168582611646565b602082019050919050565b5f6020820190508181035f8301526116a78161166e565b9050919050565b5f8160011c9050919050565b5f808291508390505b6001851115611703578086048111156116df576116de61113a565b5b60018516156116ee5780820291505b80810290506116fc856116ae565b94506116c3565b94509492505050565b5f825f8114611722576001811461172c57611735565b60019150506117ec565b829150506117ec565b5081611743575f90506117ec565b600190505f82136001811461175e575f81146117765761178a565b8286048311156117715761177061113a565b5b61178a565b8286058312156117895761178861113a565b5b5b506001831615611798578190505b81820291506117a6836116ae565b92506117b4858484846116ba565b9250905081850481115f821316156117cf576117ce61113a565b5b81840581125f821216156117e6576117e561113a565b5b81810290505b949350505050565b5f6117fe82611536565b915061180983611302565b92506118577f7fffffffffffffffffffffffffffffffffffffffffffffffffffffffffffffff7f8000000000000000000000000000000000000000000000000000000000000000858561170c565b905092915050565b7f436f6d706c6578206e756d6265720000000000000000000000000000000000005f82015250565b5f611893600e83611636565b915061189e8261185f565b602082019050919050565b5f6020820190508181035f8301526118c081611887565b9050919050565b5f6118d182611536565b91507f800000000000000000000000000000000000000000000000000000000000000082036119035761190261113a565b5b815f039050919050565b5f61191782611536565b915061192283611536565b9250826119325761193161119a565b5b60015f0383147f80000000000000000000000000000000000000000000000000000000000000008314161561196a5761196961113a565b5b828205905092915050565b7f4e487b71000000000000000000000000000000000000000000000000000000005f52600160045260245ffdfea26469706673582212209d27755a611b1b6c5b93708a8fca26e6041474f350fc0152ddb055a7258a8eb164736f6c634300081a0033",
					"opcodes": "PUSH1 0x80 PUSH1 0x40 MSTORE CALLVALUE DUP1 ISZERO PUSH1 0xE JUMPI PUSH0 DUP1 REVERT JUMPDEST POP PUSH2 0x19D8 DUP1 PUSH2 0x1C PUSH0 CODECOPY PUSH0 RETURN INVALID PUSH1 0x80 PUSH1 0x40 MSTORE CALLVALUE DUP1 ISZERO PUSH2 0xF JUMPI PUSH0 DUP1 REVERT JUMPDEST POP PUSH1 0x4 CALLDATASIZE LT PUSH2 0x9C JUMPI PUSH0 CALLDATALOAD PUSH1 0xE0 SHR DUP1 PUSH4 0x7232688E GT PUSH2 0x64 JUMPI DUP1 PUSH4 0x7232688E EQ PUSH2 0x191 JUMPI DUP1 PUSH4 0x7D9ADA3E EQ PUSH2 0x1C2 JUMPI DUP1 PUSH4 0x9872971A EQ PUSH2 0x1F2 JUMPI DUP1 PUSH4 0xB49BBCE5 EQ PUSH2 0x222 JUMPI DUP1 PUSH4 0xEC0A63D8 EQ PUSH2 0x252 JUMPI PUSH2 0x9C JUMP JUMPDEST DUP1 PUSH4 0xD83825B EQ PUSH2 0xA0 JUMPI DUP1 PUSH4 0x1E953B15 EQ PUSH2 0xD0 JUMPI DUP1 PUSH4 0x1FDD03CB EQ PUSH2 0x101 JUMPI DUP1 PUSH4 0x21FEF881 EQ PUSH2 0x131 JUMPI DUP1 PUSH4 0x44401A24 EQ PUSH2 0x161 JUMPI JUMPDEST PUSH0 DUP1 REVERT JUMPDEST PUSH2 0xBA PUSH1 0x4 DUP1 CALLDATASIZE SUB DUP2 ADD SWAP1 PUSH2 0xB5 SWAP2 SWAP1 PUSH2 0x1079 JUMP JUMPDEST PUSH2 0x283 JUMP JUMPDEST PUSH1 0x40 MLOAD PUSH2 0xC7 SWAP2 SWAP1 PUSH2 0x10CF JUMP JUMPDEST PUSH1 0x40 MLOAD DUP1 SWAP2 SUB SWAP1 RETURN JUMPDEST PUSH2 0xEA PUSH1 0x4 DUP1 CALLDATASIZE SUB DUP2 ADD SWAP1 PUSH2 0xE5 SWAP2 SWAP1 PUSH2 0x10E8 JUMP JUMPDEST PUSH2 0x2F7 JUMP JUMPDEST PUSH1 0x40 MLOAD PUSH2 0xF8 SWAP3 SWAP2 SWAP1 PUSH2 0x1113 JUMP JUMPDEST PUSH1 0x40 MLOAD DUP1 SWAP2 SUB SWAP1 RETURN JUMPDEST PUSH2 0x11B PUSH1 0x4 DUP1 CALLDATASIZE SUB DUP2 ADD SWAP1 PUSH2 0x116 SWAP2 SWAP1 PUSH2 0x10E8 JUMP JUMPDEST PUSH2 0x423 JUMP JUMPDEST PUSH1 0x40 MLOAD PUSH2 0x128 SWAP2 SWAP1 PUSH2 0x10CF JUMP JUMPDEST PUSH1 0x40 MLOAD DUP1 SWAP2 SUB SWAP1 RETURN JUMPDEST PUSH2 0x14B PUSH1 0x4 DUP1 CALLDATASIZE SUB DUP2 ADD SWAP1 PUSH2 0x146 SWAP2 SWAP1 PUSH2 0x1079 JUMP JUMPDEST PUSH2 0x519 JUMP JUMPDEST PUSH1 0x40 MLOAD PUSH2 0x158 SWAP2 SWAP1 PUSH2 0x10CF JUMP JUMPDEST PUSH1 0x40 MLOAD DUP1 SWAP2 SUB SWAP1 RETURN JUMPDEST PUSH2 0x17B PUSH1 0x4 DUP1 CALLDATASIZE SUB DUP2 ADD SWAP1 PUSH2 0x176 SWAP2 SWAP1 PUSH2 0x1079 JUMP JUMPDEST PUSH2 0x55D JUMP JUMPDEST PUSH1 0x40 MLOAD PUSH2 0x188 SWAP2 SWAP1 PUSH2 0x10CF JUMP JUMPDEST PUSH1 0x40 MLOAD DUP1 SWAP2 SUB SWAP1 RETURN JUMPDEST PUSH2 0x1AB PUSH1 0x4 DUP1 CALLDATASIZE SUB DUP2 ADD SWAP1 PUSH2 0x1A6 SWAP2 SWAP1 PUSH2 0x10E8 JUMP JUMPDEST PUSH2 0x5AD JUMP JUMPDEST PUSH1 0x40 MLOAD PUSH2 0x1B9 SWAP3 SWAP2 SWAP1 PUSH2 0x1113 JUMP JUMPDEST PUSH1 0x40 MLOAD DUP1 SWAP2 SUB SWAP1 RETURN JUMPDEST PUSH2 0x1DC PUSH1 0x4 DUP1 CALLDATASIZE SUB DUP2 ADD SWAP1 PUSH2 0x1D7 SWAP2 SWAP1 PUSH2 0x1079 JUMP JUMPDEST PUSH2 0x78F JUMP JUMPDEST PUSH1 0x40 MLOAD PUSH2 0x1E9 SWAP2 SWAP1 PUSH2 0x10CF JUMP JUMPDEST PUSH1 0x40 MLOAD DUP1 SWAP2 SUB SWAP1 RETURN JUMPDEST PUSH2 0x20C PUSH1 0x4 DUP1 CALLDATASIZE SUB DUP2 ADD SWAP1 PUSH2 0x207 SWAP2 SWAP1 PUSH2 0x1079 JUMP JUMPDEST PUSH2 0x7DF JUMP JUMPDEST PUSH1 0x40 MLOAD PUSH2 0x219 SWAP2 SWAP1 PUSH2 0x10CF JUMP JUMPDEST PUSH1 0x40 MLOAD DUP1 SWAP2 SUB SWAP1 RETURN JUMPDEST PUSH2 0x23C PUSH1 0x4 DUP1 CALLDATASIZE SUB DUP2 ADD SWAP1 PUSH2 0x237 SWAP2 SWAP1 PUSH2 0x10E8 JUMP JUMPDEST PUSH2 0x853 JUMP JUMPDEST PUSH1 0x40 MLOAD PUSH2 0x249 SWAP2 SWAP1 PUSH2 0x10CF JUMP JUMPDEST PUSH1 0x40 MLOAD DUP1 SWAP2 SUB SWAP1 RETURN JUMPDEST PUSH2 0x26C PUSH1 0x4 DUP1 CALLDATASIZE SUB DUP2 ADD SWAP1 PUSH2 0x267 SWAP2 SWAP1 PUSH2 0x10E8 JUMP JUMPDEST PUSH2 0x949 JUMP JUMPDEST PUSH1 0x40 MLOAD PUSH2 0x27A SWAP3 SWAP2 SWAP1 PUSH2 0x1113 JUMP JUMPDEST PUSH1 0x40 MLOAD DUP1 SWAP2 SUB SWAP1 RETURN JUMPDEST PUSH0 DUP1 PUSH2 0x28E DUP5 PUSH2 0x2F7 JUMP JUMPDEST SWAP2 POP POP PUSH0 PUSH2 0x29B DUP5 PUSH2 0x2F7 JUMP JUMPDEST SWAP2 POP POP PUSH1 0x2 DUP3 DUP3 PUSH2 0x2AC SWAP2 SWAP1 PUSH2 0x1167 JUMP JUMPDEST DUP3 PUSH3 0xF4240 PUSH8 0xDE0B6B3A7640000 DUP7 PUSH2 0x2C5 SWAP2 SWAP1 PUSH2 0x11C7 JUMP JUMPDEST PUSH2 0x2CF SWAP2 SWAP1 PUSH2 0x11F7 JUMP JUMPDEST PUSH2 0x2D9 SWAP2 SWAP1 PUSH2 0x1238 JUMP JUMPDEST PUSH2 0x2E3 SWAP2 SWAP1 PUSH2 0x11C7 JUMP JUMPDEST PUSH2 0x2ED SWAP2 SWAP1 PUSH2 0x11C7 JUMP JUMPDEST SWAP3 POP POP POP SWAP3 SWAP2 POP POP JUMP JUMPDEST PUSH0 DUP1 PUSH0 DUP4 SWAP1 POP DUP1 PUSH20 0xFFFFFFFFFFFFFFFFFFFFFFFFFFFFFFFFFFFFFFFF AND PUSH4 0x3850C7BD PUSH1 0x40 MLOAD DUP2 PUSH4 0xFFFFFFFF AND PUSH1 0xE0 SHL DUP2 MSTORE PUSH1 0x4 ADD PUSH1 0xE0 PUSH1 0x40 MLOAD DUP1 DUP4 SUB DUP2 DUP7 GAS STATICCALL ISZERO DUP1 ISZERO PUSH2 0x346 JUMPI RETURNDATASIZE PUSH0 DUP1 RETURNDATACOPY RETURNDATASIZE PUSH0 REVERT JUMPDEST POP POP POP POP PUSH1 0x40 MLOAD RETURNDATASIZE PUSH1 0x1F NOT PUSH1 0x1F DUP3 ADD AND DUP3 ADD DUP1 PUSH1 0x40 MSTORE POP DUP2 ADD SWAP1 PUSH2 0x36A SWAP2 SWAP1 PUSH2 0x136D JUMP JUMPDEST DUP7 PUSH20 0xFFFFFFFFFFFFFFFFFFFFFFFFFFFFFFFFFFFFFFFF AND SWAP7 POP SWAP1 SWAP2 SWAP3 SWAP4 SWAP5 POP SWAP1 SWAP2 SWAP3 SWAP4 POP SWAP1 SWAP2 SWAP3 POP SWAP1 SWAP2 POP SWAP1 POP POP DUP1 SWAP3 POP POP DUP1 PUSH20 0xFFFFFFFFFFFFFFFFFFFFFFFFFFFFFFFFFFFFFFFF AND PUSH4 0x1A686502 PUSH1 0x40 MLOAD DUP2 PUSH4 0xFFFFFFFF AND PUSH1 0xE0 SHL DUP2 MSTORE PUSH1 0x4 ADD PUSH1 0x20 PUSH1 0x40 MLOAD DUP1 DUP4 SUB DUP2 DUP7 GAS STATICCALL ISZERO DUP1 ISZERO PUSH2 0x3E5 JUMPI RETURNDATASIZE PUSH0 DUP1 RETURNDATACOPY RETURNDATASIZE PUSH0 REVERT JUMPDEST POP POP POP POP PUSH1 0x40 MLOAD RETURNDATASIZE PUSH1 0x1F NOT PUSH1 0x1F DUP3 ADD AND DUP3 ADD DUP1 PUSH1 0x40 MSTORE POP DUP2 ADD SWAP1 PUSH2 0x409 SWAP2 SWAP1 PUSH2 0x144F JUMP JUMPDEST PUSH16 0xFFFFFFFFFFFFFFFFFFFFFFFFFFFFFFFF AND SWAP3 POP POP SWAP2 POP SWAP2 JUMP JUMPDEST PUSH0 DUP1 DUP3 SWAP1 POP PUSH0 DUP2 PUSH20 0xFFFFFFFFFFFFFFFFFFFFFFFFFFFFFFFFFFFFFFFF AND PUSH4 0xDFE1681 PUSH1 0x40 MLOAD DUP2 PUSH4 0xFFFFFFFF AND PUSH1 0xE0 SHL DUP2 MSTORE PUSH1 0x4 ADD PUSH1 0x20 PUSH1 0x40 MLOAD DUP1 DUP4 SUB DUP2 DUP7 GAS STATICCALL ISZERO DUP1 ISZERO PUSH2 0x472 JUMPI RETURNDATASIZE PUSH0 DUP1 RETURNDATACOPY RETURNDATASIZE PUSH0 REVERT JUMPDEST POP POP POP POP PUSH1 0x40 MLOAD RETURNDATASIZE PUSH1 0x1F NOT PUSH1 0x1F DUP3 ADD AND DUP3 ADD DUP1 PUSH1 0x40 MSTORE POP DUP2 ADD SWAP1 PUSH2 0x496 SWAP2 SWAP1 PUSH2 0x148E JUMP JUMPDEST SWAP1 POP DUP1 PUSH20 0xFFFFFFFFFFFFFFFFFFFFFFFFFFFFFFFFFFFFFFFF AND PUSH4 0x70A08231 DUP6 PUSH1 0x40 MLOAD DUP3 PUSH4 0xFFFFFFFF AND PUSH1 0xE0 SHL DUP2 MSTORE PUSH1 0x4 ADD PUSH2 0x4D1 SWAP2 SWAP1 PUSH2 0x14C8 JUMP JUMPDEST PUSH1 0x20 PUSH1 0x40 MLOAD DUP1 DUP4 SUB DUP2 DUP7 GAS STATICCALL ISZERO DUP1 ISZERO PUSH2 0x4EC JUMPI RETURNDATASIZE PUSH0 DUP1 RETURNDATACOPY RETURNDATASIZE PUSH0 REVERT JUMPDEST POP POP POP POP PUSH1 0x40 MLOAD RETURNDATASIZE PUSH1 0x1F NOT PUSH1 0x1F DUP3 ADD AND DUP3 ADD DUP1 PUSH1 0x40 MSTORE POP DUP2 ADD SWAP1 PUSH2 0x510 SWAP2 SWAP1 PUSH2 0x150B JUMP JUMPDEST SWAP3 POP POP POP SWAP2 SWAP1 POP JUMP JUMPDEST PUSH0 DUP1 PUSH2 0x525 DUP5 DUP5 PUSH2 0x7DF JUMP JUMPDEST SWAP1 POP PUSH0 PUSH2 0x532 DUP5 DUP7 PUSH2 0x283 JUMP JUMPDEST SWAP1 POP PUSH8 0xDE0B6B3A7640000 DUP2 DUP4 PUSH2 0x549 SWAP2 SWAP1 PUSH2 0x11F7 JUMP JUMPDEST PUSH2 0x553 SWAP2 SWAP1 PUSH2 0x11C7 JUMP JUMPDEST SWAP3 POP POP POP SWAP3 SWAP2 POP POP JUMP JUMPDEST PUSH0 PUSH2 0x566 PUSH2 0xFF7 JUMP JUMPDEST PUSH2 0x56F DUP5 PUSH2 0x5AD JUMP JUMPDEST DUP3 PUSH0 ADD DUP4 PUSH1 0x20 ADD DUP3 DUP2 MSTORE POP DUP3 DUP2 MSTORE POP POP POP PUSH2 0x589 DUP4 PUSH2 0x5AD JUMP JUMPDEST DUP3 PUSH1 0x40 ADD DUP4 PUSH1 0x60 ADD DUP3 DUP2 MSTORE POP DUP3 DUP2 MSTORE POP POP POP PUSH2 0x5A4 DUP2 PUSH2 0xB2B JUMP JUMPDEST SWAP2 POP POP SWAP3 SWAP2 POP POP JUMP JUMPDEST PUSH0 DUP1 PUSH0 DUP4 SWAP1 POP PUSH0 DUP2 PUSH20 0xFFFFFFFFFFFFFFFFFFFFFFFFFFFFFFFFFFFFFFFF AND PUSH4 0xDFE1681 PUSH1 0x40 MLOAD DUP2 PUSH4 0xFFFFFFFF AND PUSH1 0xE0 SHL DUP2 MSTORE PUSH1 0x4 ADD PUSH1 0x20 PUSH1 0x40 MLOAD DUP1 DUP4 SUB DUP2 DUP7 GAS STATICCALL ISZERO DUP1 ISZERO PUSH2 0x5FD JUMPI RETURNDATASIZE PUSH0 DUP1 RETURNDATACOPY RETURNDATASIZE PUSH0 REVERT JUMPDEST POP POP POP POP PUSH1 0x40 MLOAD RETURNDATASIZE PUSH1 0x1F NOT PUSH1 0x1F DUP3 ADD AND DUP3 ADD DUP1 PUSH1 0x40 MSTORE POP DUP2 ADD SWAP1 PUSH2 0x621 SWAP2 SWAP1 PUSH2 0x148E JUMP JUMPDEST SWAP1 POP PUSH0 DUP3 PUSH20 0xFFFFFFFFFFFFFFFFFFFFFFFFFFFFFFFFFFFFFFFF AND PUSH4 0xD21220A7 PUSH1 0x40 MLOAD DUP2 PUSH4 0xFFFFFFFF AND PUSH1 0xE0 SHL DUP2 MSTORE PUSH1 0x4 ADD PUSH1 0x20 PUSH1 0x40 MLOAD DUP1 DUP4 SUB DUP2 DUP7 GAS STATICCALL ISZERO DUP1 ISZERO PUSH2 0x66D JUMPI RETURNDATASIZE PUSH0 DUP1 RETURNDATACOPY RETURNDATASIZE PUSH0 REVERT JUMPDEST POP POP POP POP PUSH1 0x40 MLOAD RETURNDATASIZE PUSH1 0x1F NOT PUSH1 0x1F DUP3 ADD AND DUP3 ADD DUP1 PUSH1 0x40 MSTORE POP DUP2 ADD SWAP1 PUSH2 0x691 SWAP2 SWAP1 PUSH2 0x148E JUMP JUMPDEST SWAP1 POP DUP2 PUSH20 0xFFFFFFFFFFFFFFFFFFFFFFFFFFFFFFFFFFFFFFFF AND PUSH4 0x70A08231 DUP8 PUSH1 0x40 MLOAD DUP3 PUSH4 0xFFFFFFFF AND PUSH1 0xE0 SHL DUP2 MSTORE PUSH1 0x4 ADD PUSH2 0x6CC SWAP2 SWAP1 PUSH2 0x14C8 JUMP JUMPDEST PUSH1 0x20 PUSH1 0x40 MLOAD DUP1 DUP4 SUB DUP2 DUP7 GAS STATICCALL ISZERO DUP1 ISZERO PUSH2 0x6E7 JUMPI RETURNDATASIZE PUSH0 DUP1 RETURNDATACOPY RETURNDATASIZE PUSH0 REVERT JUMPDEST POP POP POP POP PUSH1 0x40 MLOAD RETURNDATASIZE PUSH1 0x1F NOT PUSH1 0x1F DUP3 ADD AND DUP3 ADD DUP1 PUSH1 0x40 MSTORE POP DUP2 ADD SWAP1 PUSH2 0x70B SWAP2 SWAP1 PUSH2 0x150B JUMP JUMPDEST SWAP5 POP DUP1 PUSH20 0xFFFFFFFFFFFFFFFFFFFFFFFFFFFFFFFFFFFFFFFF AND PUSH4 0x70A08231 DUP8 PUSH1 0x40 MLOAD DUP3 PUSH4 0xFFFFFFFF AND PUSH1 0xE0 SHL DUP2 MSTORE PUSH1 0x4 ADD PUSH2 0x746 SWAP2 SWAP1 PUSH2 0x14C8 JUMP JUMPDEST PUSH1 0x20 PUSH1 0x40 MLOAD DUP1 DUP4 SUB DUP2 DUP7 GAS STATICCALL ISZERO DUP1 ISZERO PUSH2 0x761 JUMPI RETURNDATASIZE PUSH0 DUP1 RETURNDATACOPY RETURNDATASIZE PUSH0 REVERT JUMPDEST POP POP POP POP PUSH1 0x40 MLOAD RETURNDATASIZE PUSH1 0x1F NOT PUSH1 0x1F DUP3 ADD AND DUP3 ADD DUP1 PUSH1 0x40 MSTORE POP DUP2 ADD SWAP1 PUSH2 0x785 SWAP2 SWAP1 PUSH2 0x150B JUMP JUMPDEST SWAP4 POP POP POP POP SWAP2 POP SWAP2 JUMP JUMPDEST PUSH0 PUSH2 0x798 PUSH2 0xFF7 JUMP JUMPDEST PUSH2 0x7A1 DUP5 PUSH2 0x949 JUMP JUMPDEST DUP3 PUSH0 ADD DUP4 PUSH1 0x20 ADD DUP3 DUP2 MSTORE POP DUP3 DUP2 MSTORE POP POP POP PUSH2 0x7BB DUP4 PUSH2 0x949 JUMP JUMPDEST DUP3 PUSH1 0x40 ADD DUP4 PUSH1 0x60 ADD DUP3 DUP2 MSTORE POP DUP3 DUP2 MSTORE POP POP POP PUSH2 0x7D6 DUP2 PUSH2 0xB2B JUMP JUMPDEST SWAP2 POP POP SWAP3 SWAP2 POP POP JUMP JUMPDEST PUSH0 DUP1 PUSH2 0x7EA DUP5 PUSH2 0x2F7 JUMP JUMPDEST POP SWAP1 POP PUSH0 PUSH2 0x7F7 DUP5 PUSH2 0x2F7 JUMP JUMPDEST POP SWAP1 POP PUSH1 0x2 DUP3 PUSH2 0x807 SWAP2 SWAP1 PUSH2 0x11C7 JUMP JUMPDEST DUP2 PUSH2 0x812 SWAP2 SWAP1 PUSH2 0x1167 JUMP JUMPDEST DUP2 PUSH3 0xF4240 PUSH8 0xDE0B6B3A7640000 DUP6 PUSH2 0x82B SWAP2 SWAP1 PUSH2 0x11C7 JUMP JUMPDEST PUSH2 0x835 SWAP2 SWAP1 PUSH2 0x11F7 JUMP JUMPDEST PUSH2 0x83F SWAP2 SWAP1 PUSH2 0x1238 JUMP JUMPDEST PUSH2 0x849 SWAP2 SWAP1 PUSH2 0x11C7 JUMP JUMPDEST SWAP3 POP POP POP SWAP3 SWAP2 POP POP JUMP JUMPDEST PUSH0 DUP1 DUP3 SWAP1 POP PUSH0 DUP2 PUSH20 0xFFFFFFFFFFFFFFFFFFFFFFFFFFFFFFFFFFFFFFFF AND PUSH4 0xD21220A7 PUSH1 0x40 MLOAD DUP2 PUSH4 0xFFFFFFFF AND PUSH1 0xE0 SHL DUP2 MSTORE PUSH1 0x4 ADD PUSH1 0x20 PUSH1 0x40 MLOAD DUP1 DUP4 SUB DUP2 DUP7 GAS STATICCALL ISZERO DUP1 ISZERO PUSH2 0x8A2 JUMPI RETURNDATASIZE PUSH0 DUP1 RETURNDATACOPY RETURNDATASIZE PUSH0 REVERT JUMPDEST POP POP POP POP PUSH1 0x40 MLOAD RETURNDATASIZE PUSH1 0x1F NOT PUSH1 0x1F DUP3 ADD AND DUP3 ADD DUP1 PUSH1 0x40 MSTORE POP DUP2 ADD SWAP1 PUSH2 0x8C6 SWAP2 SWAP1 PUSH2 0x148E JUMP JUMPDEST SWAP1 POP DUP1 PUSH20 0xFFFFFFFFFFFFFFFFFFFFFFFFFFFFFFFFFFFFFFFF AND PUSH4 0x70A08231 DUP6 PUSH1 0x40 MLOAD DUP3 PUSH4 0xFFFFFFFF AND PUSH1 0xE0 SHL DUP2 MSTORE PUSH1 0x4 ADD PUSH2 0x901 SWAP2 SWAP1 PUSH2 0x14C8 JUMP JUMPDEST PUSH1 0x20 PUSH1 0x40 MLOAD DUP1 DUP4 SUB DUP2 DUP7 GAS STATICCALL ISZERO DUP1 ISZERO PUSH2 0x91C JUMPI RETURNDATASIZE PUSH0 DUP1 RETURNDATACOPY RETURNDATASIZE PUSH0 REVERT JUMPDEST POP POP POP POP PUSH1 0x40 MLOAD RETURNDATASIZE PUSH1 0x1F NOT PUSH1 0x1F DUP3 ADD AND DUP3 ADD DUP1 PUSH1 0x40 MSTORE POP DUP2 ADD SWAP1 PUSH2 0x940 SWAP2 SWAP1 PUSH2 0x150B JUMP JUMPDEST SWAP3 POP POP POP SWAP2 SWAP1 POP JUMP JUMPDEST PUSH0 DUP1 PUSH0 DUP4 SWAP1 POP PUSH0 DUP2 PUSH20 0xFFFFFFFFFFFFFFFFFFFFFFFFFFFFFFFFFFFFFFFF AND PUSH4 0xDFE1681 PUSH1 0x40 MLOAD DUP2 PUSH4 0xFFFFFFFF AND PUSH1 0xE0 SHL DUP2 MSTORE PUSH1 0x4 ADD PUSH1 0x20 PUSH1 0x40 MLOAD DUP1 DUP4 SUB DUP2 DUP7 GAS STATICCALL ISZERO DUP1 ISZERO PUSH2 0x999 JUMPI RETURNDATASIZE PUSH0 DUP1 RETURNDATACOPY RETURNDATASIZE PUSH0 REVERT JUMPDEST POP POP POP POP PUSH1 0x40 MLOAD RETURNDATASIZE PUSH1 0x1F NOT PUSH1 0x1F DUP3 ADD AND DUP3 ADD DUP1 PUSH1 0x40 MSTORE POP DUP2 ADD SWAP1 PUSH2 0x9BD SWAP2 SWAP1 PUSH2 0x148E JUMP JUMPDEST SWAP1 POP PUSH0 DUP3 PUSH20 0xFFFFFFFFFFFFFFFFFFFFFFFFFFFFFFFFFFFFFFFF AND PUSH4 0xD21220A7 PUSH1 0x40 MLOAD DUP2 PUSH4 0xFFFFFFFF AND PUSH1 0xE0 SHL DUP2 MSTORE PUSH1 0x4 ADD PUSH1 0x20 PUSH1 0x40 MLOAD DUP1 DUP4 SUB DUP2 DUP7 GAS STATICCALL ISZERO DUP1 ISZERO PUSH2 0xA09 JUMPI RETURNDATASIZE PUSH0 DUP1 RETURNDATACOPY RETURNDATASIZE PUSH0 REVERT JUMPDEST POP POP POP POP PUSH1 0x40 MLOAD RETURNDATASIZE PUSH1 0x1F NOT PUSH1 0x1F DUP3 ADD AND DUP3 ADD DUP1 PUSH1 0x40 MSTORE POP DUP2 ADD SWAP1 PUSH2 0xA2D SWAP2 SWAP1 PUSH2 0x148E JUMP JUMPDEST SWAP1 POP DUP2 PUSH20 0xFFFFFFFFFFFFFFFFFFFFFFFFFFFFFFFFFFFFFFFF AND PUSH4 0x70A08231 DUP8 PUSH1 0x40 MLOAD DUP3 PUSH4 0xFFFFFFFF AND PUSH1 0xE0 SHL DUP2 MSTORE PUSH1 0x4 ADD PUSH2 0xA68 SWAP2 SWAP1 PUSH2 0x14C8 JUMP JUMPDEST PUSH1 0x20 PUSH1 0x40 MLOAD DUP1 DUP4 SUB DUP2 DUP7 GAS STATICCALL ISZERO DUP1 ISZERO PUSH2 0xA83 JUMPI RETURNDATASIZE PUSH0 DUP1 RETURNDATACOPY RETURNDATASIZE PUSH0 REVERT JUMPDEST POP POP POP POP PUSH1 0x40 MLOAD RETURNDATASIZE PUSH1 0x1F NOT PUSH1 0x1F DUP3 ADD AND DUP3 ADD DUP1 PUSH1 0x40 MSTORE POP DUP2 ADD SWAP1 PUSH2 0xAA7 SWAP2 SWAP1 PUSH2 0x150B JUMP JUMPDEST SWAP5 POP DUP1 PUSH20 0xFFFFFFFFFFFFFFFFFFFFFFFFFFFFFFFFFFFFFFFF AND PUSH4 0x70A08231 DUP8 PUSH1 0x40 MLOAD DUP3 PUSH4 0xFFFFFFFF AND PUSH1 0xE0 SHL DUP2 MSTORE PUSH1 0x4 ADD PUSH2 0xAE2 SWAP2 SWAP1 PUSH2 0x14C8 JUMP JUMPDEST PUSH1 0x20 PUSH1 0x40 MLOAD DUP1 DUP4 SUB DUP2 DUP7 GAS STATICCALL ISZERO DUP1 ISZERO PUSH2 0xAFD JUMPI RETURNDATASIZE PUSH0 DUP1 RETURNDATACOPY RETURNDATASIZE PUSH0 REVERT JUMPDEST POP POP POP POP PUSH1 0x40 MLOAD RETURNDATASIZE PUSH1 0x1F NOT PUSH1 0x1F DUP3 ADD AND DUP3 ADD DUP1 PUSH1 0x40 MSTORE POP DUP2 ADD SWAP1 PUSH2 0xB21 SWAP2 SWAP1 PUSH2 0x150B JUMP JUMPDEST SWAP4 POP POP POP POP SWAP2 POP SWAP2 JUMP JUMPDEST PUSH0 DUP1 DUP3 PUSH1 0x20 ADD MLOAD DUP4 PUSH0 ADD MLOAD LT PUSH2 0xB45 JUMPI DUP3 PUSH1 0x20 ADD MLOAD PUSH2 0xB4A JUMP JUMPDEST DUP3 PUSH0 ADD MLOAD JUMPDEST SWAP1 POP PUSH0 DUP4 PUSH1 0x60 ADD MLOAD DUP5 PUSH1 0x40 ADD MLOAD LT PUSH2 0xB66 JUMPI DUP4 PUSH1 0x60 ADD MLOAD PUSH2 0xB6C JUMP JUMPDEST DUP4 PUSH1 0x40 ADD MLOAD JUMPDEST SWAP1 POP PUSH0 DUP2 DUP4 LT PUSH2 0xB7C JUMPI DUP2 PUSH2 0xB7E JUMP JUMPDEST DUP3 JUMPDEST SWAP1 POP PUSH0 PUSH10 0xD3C21BCECCEDA1000000 DUP3 GT ISZERO PUSH2 0xBA4 JUMPI PUSH9 0x56BC75E2D63100000 SWAP1 POP PUSH2 0xCCE JUMP JUMPDEST PUSH10 0x152D02C7E14AF6800000 DUP3 GT ISZERO PUSH2 0xBC6 JUMPI PUSH8 0x8AC7230489E80000 SWAP1 POP PUSH2 0xCCD JUMP JUMPDEST PUSH10 0x21E19E0C9BAB2400000 DUP3 GT ISZERO PUSH2 0xBE8 JUMPI PUSH8 0xDE0B6B3A7640000 SWAP1 POP PUSH2 0xCCC JUMP JUMPDEST PUSH9 0x3635C9ADC5DEA00000 DUP3 GT ISZERO PUSH2 0xC09 JUMPI PUSH8 0x16345785D8A0000 SWAP1 POP PUSH2 0xCCB JUMP JUMPDEST PUSH9 0x56BC75E2D63100000 DUP3 GT ISZERO PUSH2 0xC29 JUMPI PUSH7 0x2386F26FC10000 SWAP1 POP PUSH2 0xCCA JUMP JUMPDEST PUSH8 0x8AC7230489E80000 DUP3 GT ISZERO PUSH2 0xC48 JUMPI PUSH7 0x38D7EA4C68000 SWAP1 POP PUSH2 0xCC9 JUMP JUMPDEST PUSH8 0xDE0B6B3A7640000 DUP3 GT ISZERO PUSH2 0xC66 JUMPI PUSH6 0x5AF3107A4000 SWAP1 POP PUSH2 0xCC8 JUMP JUMPDEST PUSH8 0x16345785D8A0000 DUP3 GT ISZERO PUSH2 0xC84 JUMPI PUSH6 0x9184E72A000 SWAP1 POP PUSH2 0xCC7 JUMP JUMPDEST PUSH7 0x2386F26FC10000 DUP3 GT ISZERO PUSH2 0xCA0 JUMPI PUSH5 0xE8D4A51000 SWAP1 POP PUSH2 0xCC6 JUMP JUMPDEST PUSH7 0x38D7EA4C68000 DUP3 GT ISZERO PUSH2 0xCBC JUMPI PUSH5 0x174876E800 SWAP1 POP PUSH2 0xCC5 JUMP JUMPDEST PUSH5 0x2540BE400 SWAP1 POP JUMPDEST JUMPDEST JUMPDEST JUMPDEST JUMPDEST JUMPDEST JUMPDEST JUMPDEST JUMPDEST JUMPDEST PUSH0 DUP1 PUSH0 DUP1 DUP5 DUP11 PUSH0 ADD MLOAD PUSH2 0xCE1 SWAP2 SWAP1 PUSH2 0x11C7 JUMP JUMPDEST DUP6 DUP12 PUSH1 0x40 ADD MLOAD PUSH2 0xCF1 SWAP2 SWAP1 PUSH2 0x11C7 JUMP JUMPDEST DUP7 DUP13 PUSH1 0x20 ADD MLOAD PUSH2 0xD01 SWAP2 SWAP1 PUSH2 0x11C7 JUMP JUMPDEST DUP8 DUP14 PUSH1 0x60 ADD MLOAD PUSH2 0xD11 SWAP2 SWAP1 PUSH2 0x11C7 JUMP JUMPDEST SWAP4 POP SWAP4 POP SWAP4 POP SWAP4 POP PUSH0 DUP2 DUP5 PUSH2 0xD26 SWAP2 SWAP1 PUSH2 0x153F JUMP JUMPDEST DUP4 DUP7 PUSH2 0xD32 SWAP2 SWAP1 PUSH2 0x153F JUMP JUMPDEST PUSH2 0xD3C SWAP2 SWAP1 PUSH2 0x15B5 JUMP JUMPDEST SWAP1 POP PUSH0 DUP5 DUP7 PUSH2 0xD4B SWAP2 SWAP1 PUSH2 0x15F5 JUMP JUMPDEST DUP4 DUP6 PUSH1 0x2 PUSH2 0xD59 SWAP2 SWAP1 PUSH2 0x153F JUMP JUMPDEST PUSH2 0xD63 SWAP2 SWAP1 PUSH2 0x153F JUMP JUMPDEST PUSH2 0xD6D SWAP2 SWAP1 PUSH2 0x153F JUMP JUMPDEST SWAP1 POP PUSH0 DUP5 DUP7 PUSH2 0xD7C SWAP2 SWAP1 PUSH2 0x153F JUMP JUMPDEST DUP5 DUP9 PUSH2 0xD88 SWAP2 SWAP1 PUSH2 0x153F JUMP JUMPDEST PUSH2 0xD92 SWAP2 SWAP1 PUSH2 0x15B5 JUMP JUMPDEST DUP5 DUP7 PUSH2 0xD9E SWAP2 SWAP1 PUSH2 0x153F JUMP JUMPDEST PUSH2 0xDA8 SWAP2 SWAP1 PUSH2 0x153F JUMP JUMPDEST SWAP1 POP PUSH0 DUP1 PUSH2 0xDB7 DUP6 DUP6 DUP6 PUSH2 0xE82 JUMP JUMPDEST SWAP2 POP SWAP2 POP PUSH0 DUP3 SGT DUP1 ISZERO PUSH2 0xDC9 JUMPI POP DUP7 DUP3 SLT JUMPDEST DUP1 ISZERO PUSH2 0xDD4 JUMPI POP DUP6 DUP3 SLT JUMPDEST DUP1 PUSH2 0xDF4 JUMPI POP PUSH0 DUP2 SGT DUP1 ISZERO PUSH2 0xDE8 JUMPI POP DUP7 DUP2 SLT JUMPDEST DUP1 ISZERO PUSH2 0xDF3 JUMPI POP DUP6 DUP2 SLT JUMPDEST JUMPDEST PUSH2 0xE33 JUMPI PUSH1 0x40 MLOAD PUSH32 0x8C379A000000000000000000000000000000000000000000000000000000000 DUP2 MSTORE PUSH1 0x4 ADD PUSH2 0xE2A SWAP1 PUSH2 0x1690 JUMP JUMPDEST PUSH1 0x40 MLOAD DUP1 SWAP2 SUB SWAP1 REVERT JUMPDEST PUSH0 DUP3 SGT DUP1 ISZERO PUSH2 0xE41 JUMPI POP DUP7 DUP3 SLT JUMPDEST DUP1 ISZERO PUSH2 0xE4C JUMPI POP DUP6 DUP3 SLT JUMPDEST PUSH2 0xE61 JUMPI DUP10 DUP2 PUSH2 0xE5C SWAP2 SWAP1 PUSH2 0x11F7 JUMP JUMPDEST PUSH2 0xE6E JUMP JUMPDEST DUP10 DUP3 PUSH2 0xE6D SWAP2 SWAP1 PUSH2 0x11F7 JUMP JUMPDEST JUMPDEST SWAP14 POP POP POP POP POP POP POP POP POP POP POP POP POP POP SWAP2 SWAP1 POP JUMP JUMPDEST PUSH0 DUP1 PUSH0 DUP4 DUP7 PUSH1 0x4 PUSH2 0xE93 SWAP2 SWAP1 PUSH2 0x153F JUMP JUMPDEST PUSH2 0xE9D SWAP2 SWAP1 PUSH2 0x153F JUMP JUMPDEST PUSH1 0x2 DUP7 PUSH2 0xEAA SWAP2 SWAP1 PUSH2 0x17F4 JUMP JUMPDEST PUSH2 0xEB4 SWAP2 SWAP1 PUSH2 0x15B5 JUMP JUMPDEST SWAP1 POP PUSH0 DUP2 SGT PUSH2 0xEF8 JUMPI PUSH1 0x40 MLOAD PUSH32 0x8C379A000000000000000000000000000000000000000000000000000000000 DUP2 MSTORE PUSH1 0x4 ADD PUSH2 0xEEF SWAP1 PUSH2 0x18A9 JUMP JUMPDEST PUSH1 0x40 MLOAD DUP1 SWAP2 SUB SWAP1 REVERT JUMPDEST PUSH0 PUSH2 0xF02 DUP3 PUSH2 0xF6A JUMP JUMPDEST SWAP1 POP DUP7 PUSH1 0x2 PUSH2 0xF11 SWAP2 SWAP1 PUSH2 0x153F JUMP JUMPDEST DUP2 DUP8 PUSH2 0xF1C SWAP1 PUSH2 0x18C7 JUMP JUMPDEST PUSH2 0xF26 SWAP2 SWAP1 PUSH2 0x15F5 JUMP JUMPDEST PUSH2 0xF30 SWAP2 SWAP1 PUSH2 0x190D JUMP JUMPDEST SWAP4 POP DUP7 PUSH1 0x2 PUSH2 0xF3F SWAP2 SWAP1 PUSH2 0x153F JUMP JUMPDEST DUP2 DUP8 PUSH2 0xF4A SWAP1 PUSH2 0x18C7 JUMP JUMPDEST PUSH2 0xF54 SWAP2 SWAP1 PUSH2 0x15B5 JUMP JUMPDEST PUSH2 0xF5E SWAP2 SWAP1 PUSH2 0x190D JUMP JUMPDEST SWAP3 POP POP POP SWAP4 POP SWAP4 SWAP2 POP POP JUMP JUMPDEST PUSH0 PUSH1 0x1 DUP3 GT PUSH2 0xF7C JUMPI PUSH2 0xF7B PUSH2 0x1975 JUMP JUMPDEST JUMPDEST PUSH0 PUSH3 0xF4240 DUP4 PUSH2 0xF8C SWAP2 SWAP1 PUSH2 0x11F7 JUMP JUMPDEST SWAP1 POP PUSH0 DUP2 SWAP1 POP DUP2 SWAP3 POP PUSH0 JUMPDEST PUSH1 0x1 ISZERO PUSH2 0xFDF JUMPI PUSH1 0x2 DUP5 DUP4 PUSH2 0xFAC SWAP2 SWAP1 PUSH2 0x11C7 JUMP JUMPDEST DUP6 PUSH2 0xFB7 SWAP2 SWAP1 PUSH2 0x1167 JUMP JUMPDEST PUSH2 0xFC1 SWAP2 SWAP1 PUSH2 0x11C7 JUMP JUMPDEST SWAP1 POP PUSH2 0x3E8 DUP2 DUP6 PUSH2 0xFD2 SWAP2 SWAP1 PUSH2 0x1238 JUMP JUMPDEST LT PUSH2 0xFDF JUMPI DUP1 SWAP4 POP PUSH2 0xF97 JUMP JUMPDEST PUSH2 0x3E8 DUP5 PUSH2 0xFED SWAP2 SWAP1 PUSH2 0x11C7 JUMP JUMPDEST SWAP4 POP POP POP POP SWAP2 SWAP1 POP JUMP JUMPDEST PUSH1 0x40 MLOAD DUP1 PUSH1 0x80 ADD PUSH1 0x40 MSTORE DUP1 PUSH0 DUP2 MSTORE PUSH1 0x20 ADD PUSH0 DUP2 MSTORE PUSH1 0x20 ADD PUSH0 DUP2 MSTORE PUSH1 0x20 ADD PUSH0 DUP2 MSTORE POP SWAP1 JUMP JUMPDEST PUSH0 DUP1 REVERT JUMPDEST PUSH0 PUSH20 0xFFFFFFFFFFFFFFFFFFFFFFFFFFFFFFFFFFFFFFFF DUP3 AND SWAP1 POP SWAP2 SWAP1 POP JUMP JUMPDEST PUSH0 PUSH2 0x1048 DUP3 PUSH2 0x101F JUMP JUMPDEST SWAP1 POP SWAP2 SWAP1 POP JUMP JUMPDEST PUSH2 0x1058 DUP2 PUSH2 0x103E JUMP JUMPDEST DUP2 EQ PUSH2 0x1062 JUMPI PUSH0 DUP1 REVERT JUMPDEST POP JUMP JUMPDEST PUSH0 DUP2 CALLDATALOAD SWAP1 POP PUSH2 0x1073 DUP2 PUSH2 0x104F JUMP JUMPDEST SWAP3 SWAP2 POP POP JUMP JUMPDEST PUSH0 DUP1 PUSH1 0x40 DUP4 DUP6 SUB SLT ISZERO PUSH2 0x108F JUMPI PUSH2 0x108E PUSH2 0x101B JUMP JUMPDEST JUMPDEST PUSH0 PUSH2 0x109C DUP6 DUP3 DUP7 ADD PUSH2 0x1065 JUMP JUMPDEST SWAP3 POP POP PUSH1 0x20 PUSH2 0x10AD DUP6 DUP3 DUP7 ADD PUSH2 0x1065 JUMP JUMPDEST SWAP2 POP POP SWAP3 POP SWAP3 SWAP1 POP JUMP JUMPDEST PUSH0 DUP2 SWAP1 POP SWAP2 SWAP1 POP JUMP JUMPDEST PUSH2 0x10C9 DUP2 PUSH2 0x10B7 JUMP JUMPDEST DUP3 MSTORE POP POP JUMP JUMPDEST PUSH0 PUSH1 0x20 DUP3 ADD SWAP1 POP PUSH2 0x10E2 PUSH0 DUP4 ADD DUP5 PUSH2 0x10C0 JUMP JUMPDEST SWAP3 SWAP2 POP POP JUMP JUMPDEST PUSH0 PUSH1 0x20 DUP3 DUP5 SUB SLT ISZERO PUSH2 0x10FD JUMPI PUSH2 0x10FC PUSH2 0x101B JUMP JUMPDEST JUMPDEST PUSH0 PUSH2 0x110A DUP5 DUP3 DUP6 ADD PUSH2 0x1065 JUMP JUMPDEST SWAP2 POP POP SWAP3 SWAP2 POP POP JUMP JUMPDEST PUSH0 PUSH1 0x40 DUP3 ADD SWAP1 POP PUSH2 0x1126 PUSH0 DUP4 ADD DUP6 PUSH2 0x10C0 JUMP JUMPDEST PUSH2 0x1133 PUSH1 0x20 DUP4 ADD DUP5 PUSH2 0x10C0 JUMP JUMPDEST SWAP4 SWAP3 POP POP POP JUMP JUMPDEST PUSH32 0x4E487B7100000000000000000000000000000000000000000000000000000000 PUSH0 MSTORE PUSH1 0x11 PUSH1 0x4 MSTORE PUSH1 0x24 PUSH0 REVERT JUMPDEST PUSH0 PUSH2 0x1171 DUP3 PUSH2 0x10B7 JUMP JUMPDEST SWAP2 POP PUSH2 0x117C DUP4 PUSH2 0x10B7 JUMP JUMPDEST SWAP3 POP DUP3 DUP3 ADD SWAP1 POP DUP1 DUP3 GT ISZERO PUSH2 0x1194 JUMPI PUSH2 0x1193 PUSH2 0x113A JUMP JUMPDEST JUMPDEST SWAP3 SWAP2 POP POP JUMP JUMPDEST PUSH32 0x4E487B7100000000000000000000000000000000000000000000000000000000 PUSH0 MSTORE PUSH1 0x12 PUSH1 0x4 MSTORE PUSH1 0x24 PUSH0 REVERT JUMPDEST PUSH0 PUSH2 0x11D1 DUP3 PUSH2 0x10B7 JUMP JUMPDEST SWAP2 POP PUSH2 0x11DC DUP4 PUSH2 0x10B7 JUMP JUMPDEST SWAP3 POP DUP3 PUSH2 0x11EC JUMPI PUSH2 0x11EB PUSH2 0x119A JUMP JUMPDEST JUMPDEST DUP3 DUP3 DIV SWAP1 POP SWAP3 SWAP2 POP POP JUMP JUMPDEST PUSH0 PUSH2 0x1201 DUP3 PUSH2 0x10B7 JUMP JUMPDEST SWAP2 POP PUSH2 0x120C DUP4 PUSH2 0x10B7 JUMP JUMPDEST SWAP3 POP DUP3 DUP3 MUL PUSH2 0x121A DUP2 PUSH2 0x10B7 JUMP JUMPDEST SWAP2 POP DUP3 DUP3 DIV DUP5 EQ DUP4 ISZERO OR PUSH2 0x1231 JUMPI PUSH2 0x1230 PUSH2 0x113A JUMP JUMPDEST JUMPDEST POP SWAP3 SWAP2 POP POP JUMP JUMPDEST PUSH0 PUSH2 0x1242 DUP3 PUSH2 0x10B7 JUMP JUMPDEST SWAP2 POP PUSH2 0x124D DUP4 PUSH2 0x10B7 JUMP JUMPDEST SWAP3 POP DUP3 DUP3 SUB SWAP1 POP DUP2 DUP2 GT ISZERO PUSH2 0x1265 JUMPI PUSH2 0x1264 PUSH2 0x113A JUMP JUMPDEST JUMPDEST SWAP3 SWAP2 POP POP JUMP JUMPDEST PUSH2 0x1274 DUP2 PUSH2 0x101F JUMP JUMPDEST DUP2 EQ PUSH2 0x127E JUMPI PUSH0 DUP1 REVERT JUMPDEST POP JUMP JUMPDEST PUSH0 DUP2 MLOAD SWAP1 POP PUSH2 0x128F DUP2 PUSH2 0x126B JUMP JUMPDEST SWAP3 SWAP2 POP POP JUMP JUMPDEST PUSH0 DUP2 PUSH1 0x2 SIGNEXTEND SWAP1 POP SWAP2 SWAP1 POP JUMP JUMPDEST PUSH2 0x12AA DUP2 PUSH2 0x1295 JUMP JUMPDEST DUP2 EQ PUSH2 0x12B4 JUMPI PUSH0 DUP1 REVERT JUMPDEST POP JUMP JUMPDEST PUSH0 DUP2 MLOAD SWAP1 POP PUSH2 0x12C5 DUP2 PUSH2 0x12A1 JUMP JUMPDEST SWAP3 SWAP2 POP POP JUMP JUMPDEST PUSH0 PUSH2 0xFFFF DUP3 AND SWAP1 POP SWAP2 SWAP1 POP JUMP JUMPDEST PUSH2 0x12E1 DUP2 PUSH2 0x12CB JUMP JUMPDEST DUP2 EQ PUSH2 0x12EB JUMPI PUSH0 DUP1 REVERT JUMPDEST POP JUMP JUMPDEST PUSH0 DUP2 MLOAD SWAP1 POP PUSH2 0x12FC DUP2 PUSH2 0x12D8 JUMP JUMPDEST SWAP3 SWAP2 POP POP JUMP JUMPDEST PUSH0 PUSH1 0xFF DUP3 AND SWAP1 POP SWAP2 SWAP1 POP JUMP JUMPDEST PUSH2 0x1317 DUP2 PUSH2 0x1302 JUMP JUMPDEST DUP2 EQ PUSH2 0x1321 JUMPI PUSH0 DUP1 REVERT JUMPDEST POP JUMP JUMPDEST PUSH0 DUP2 MLOAD SWAP1 POP PUSH2 0x1332 DUP2 PUSH2 0x130E JUMP JUMPDEST SWAP3 SWAP2 POP POP JUMP JUMPDEST PUSH0 DUP2 ISZERO ISZERO SWAP1 POP SWAP2 SWAP1 POP JUMP JUMPDEST PUSH2 0x134C DUP2 PUSH2 0x1338 JUMP JUMPDEST DUP2 EQ PUSH2 0x1356 JUMPI PUSH0 DUP1 REVERT JUMPDEST POP JUMP JUMPDEST PUSH0 DUP2 MLOAD SWAP1 POP PUSH2 0x1367 DUP2 PUSH2 0x1343 JUMP JUMPDEST SWAP3 SWAP2 POP POP JUMP JUMPDEST PUSH0 DUP1 PUSH0 DUP1 PUSH0 DUP1 PUSH0 PUSH1 0xE0 DUP9 DUP11 SUB SLT ISZERO PUSH2 0x1388 JUMPI PUSH2 0x1387 PUSH2 0x101B JUMP JUMPDEST JUMPDEST PUSH0 PUSH2 0x1395 DUP11 DUP3 DUP12 ADD PUSH2 0x1281 JUMP JUMPDEST SWAP8 POP POP PUSH1 0x20 PUSH2 0x13A6 DUP11 DUP3 DUP12 ADD PUSH2 0x12B7 JUMP JUMPDEST SWAP7 POP POP PUSH1 0x40 PUSH2 0x13B7 DUP11 DUP3 DUP12 ADD PUSH2 0x12EE JUMP JUMPDEST SWAP6 POP POP PUSH1 0x60 PUSH2 0x13C8 DUP11 DUP3 DUP12 ADD PUSH2 0x12EE JUMP JUMPDEST SWAP5 POP POP PUSH1 0x80 PUSH2 0x13D9 DUP11 DUP3 DUP12 ADD PUSH2 0x12EE JUMP JUMPDEST SWAP4 POP POP PUSH1 0xA0 PUSH2 0x13EA DUP11 DUP3 DUP12 ADD PUSH2 0x1324 JUMP JUMPDEST SWAP3 POP POP PUSH1 0xC0 PUSH2 0x13FB DUP11 DUP3 DUP12 ADD PUSH2 0x1359 JUMP JUMPDEST SWAP2 POP POP SWAP3 SWAP6 SWAP9 SWAP2 SWAP5 SWAP8 POP SWAP3 SWAP6 POP JUMP JUMPDEST PUSH0 PUSH16 0xFFFFFFFFFFFFFFFFFFFFFFFFFFFFFFFF DUP3 AND SWAP1 POP SWAP2 SWAP1 POP JUMP JUMPDEST PUSH2 0x142E DUP2 PUSH2 0x140A JUMP JUMPDEST DUP2 EQ PUSH2 0x1438 JUMPI PUSH0 DUP1 REVERT JUMPDEST POP JUMP JUMPDEST PUSH0 DUP2 MLOAD SWAP1 POP PUSH2 0x1449 DUP2 PUSH2 0x1425 JUMP JUMPDEST SWAP3 SWAP2 POP POP JUMP JUMPDEST PUSH0 PUSH1 0x20 DUP3 DUP5 SUB SLT ISZERO PUSH2 0x1464 JUMPI PUSH2 0x1463 PUSH2 0x101B JUMP JUMPDEST JUMPDEST PUSH0 PUSH2 0x1471 DUP5 DUP3 DUP6 ADD PUSH2 0x143B JUMP JUMPDEST SWAP2 POP POP SWAP3 SWAP2 POP POP JUMP JUMPDEST PUSH0 DUP2 MLOAD SWAP1 POP PUSH2 0x1488 DUP2 PUSH2 0x104F JUMP JUMPDEST SWAP3 SWAP2 POP POP JUMP JUMPDEST PUSH0 PUSH1 0x20 DUP3 DUP5 SUB SLT ISZERO PUSH2 0x14A3 JUMPI PUSH2 0x14A2 PUSH2 0x101B JUMP JUMPDEST JUMPDEST PUSH0 PUSH2 0x14B0 DUP5 DUP3 DUP6 ADD PUSH2 0x147A JUMP JUMPDEST SWAP2 POP POP SWAP3 SWAP2 POP POP JUMP JUMPDEST PUSH2 0x14C2 DUP2 PUSH2 0x103E JUMP JUMPDEST DUP3 MSTORE POP POP JUMP JUMPDEST PUSH0 PUSH1 0x20 DUP3 ADD SWAP1 POP PUSH2 0x14DB PUSH0 DUP4 ADD DUP5 PUSH2 0x14B9 JUMP JUMPDEST SWAP3 SWAP2 POP POP JUMP JUMPDEST PUSH2 0x14EA DUP2 PUSH2 0x10B7 JUMP JUMPDEST DUP2 EQ PUSH2 0x14F4 JUMPI PUSH0 DUP1 REVERT JUMPDEST POP JUMP JUMPDEST PUSH0 DUP2 MLOAD SWAP1 POP PUSH2 0x1505 DUP2 PUSH2 0x14E1 JUMP JUMPDEST SWAP3 SWAP2 POP POP JUMP JUMPDEST PUSH0 PUSH1 0x20 DUP3 DUP5 SUB SLT ISZERO PUSH2 0x1520 JUMPI PUSH2 0x151F PUSH2 0x101B JUMP JUMPDEST JUMPDEST PUSH0 PUSH2 0x152D DUP5 DUP3 DUP6 ADD PUSH2 0x14F7 JUMP JUMPDEST SWAP2 POP POP SWAP3 SWAP2 POP POP JUMP JUMPDEST PUSH0 DUP2 SWAP1 POP SWAP2 SWAP1 POP JUMP JUMPDEST PUSH0 PUSH2 0x1549 DUP3 PUSH2 0x1536 JUMP JUMPDEST SWAP2 POP PUSH2 0x1554 DUP4 PUSH2 0x1536 JUMP JUMPDEST SWAP3 POP DUP3 DUP3 MUL PUSH2 0x1562 DUP2 PUSH2 0x1536 JUMP JUMPDEST SWAP2 POP PUSH32 0x8000000000000000000000000000000000000000000000000000000000000000 DUP5 EQ PUSH0 DUP5 SLT AND ISZERO PUSH2 0x1599 JUMPI PUSH2 0x1598 PUSH2 0x113A JUMP JUMPDEST JUMPDEST DUP3 DUP3 SDIV DUP5 EQ DUP4 ISZERO OR PUSH2 0x15AE JUMPI PUSH2 0x15AD PUSH2 0x113A JUMP JUMPDEST JUMPDEST POP SWAP3 SWAP2 POP POP JUMP JUMPDEST PUSH0 PUSH2 0x15BF DUP3 PUSH2 0x1536 JUMP JUMPDEST SWAP2 POP PUSH2 0x15CA DUP4 PUSH2 0x1536 JUMP JUMPDEST SWAP3 POP DUP3 DUP3 SUB SWAP1 POP DUP2 DUP2 SLT PUSH0 DUP5 SLT AND DUP3 DUP3 SGT PUSH0 DUP6 SLT ISZERO AND OR ISZERO PUSH2 0x15EF JUMPI PUSH2 0x15EE PUSH2 0x113A JUMP JUMPDEST JUMPDEST SWAP3 SWAP2 POP POP JUMP JUMPDEST PUSH0 PUSH2 0x15FF DUP3 PUSH2 0x1536 JUMP JUMPDEST SWAP2 POP PUSH2 0x160A DUP4 PUSH2 0x1536 JUMP JUMPDEST SWAP3 POP DUP3 DUP3 ADD SWAP1 POP DUP3 DUP2 SLT ISZERO PUSH0 DUP4 SLT AND DUP4 DUP3 SLT PUSH0 DUP5 SLT ISZERO AND OR ISZERO PUSH2 0x1630 JUMPI PUSH2 0x162F PUSH2 0x113A JUMP JUMPDEST JUMPDEST SWAP3 SWAP2 POP POP JUMP JUMPDEST PUSH0 DUP3 DUP3 MSTORE PUSH1 0x20 DUP3 ADD SWAP1 POP SWAP3 SWAP2 POP POP JUMP JUMPDEST PUSH32 0x57726F6E6720696E707574206F72646572000000000000000000000000000000 PUSH0 DUP3 ADD MSTORE POP JUMP JUMPDEST PUSH0 PUSH2 0x167A PUSH1 0x11 DUP4 PUSH2 0x1636 JUMP JUMPDEST SWAP2 POP PUSH2 0x1685 DUP3 PUSH2 0x1646 JUMP JUMPDEST PUSH1 0x20 DUP3 ADD SWAP1 POP SWAP2 SWAP1 POP JUMP JUMPDEST PUSH0 PUSH1 0x20 DUP3 ADD SWAP1 POP DUP2 DUP2 SUB PUSH0 DUP4 ADD MSTORE PUSH2 0x16A7 DUP2 PUSH2 0x166E JUMP JUMPDEST SWAP1 POP SWAP2 SWAP1 POP JUMP JUMPDEST PUSH0 DUP2 PUSH1 0x1 SHR SWAP1 POP SWAP2 SWAP1 POP JUMP JUMPDEST PUSH0 DUP1 DUP3 SWAP2 POP DUP4 SWAP1 POP JUMPDEST PUSH1 0x1 DUP6 GT ISZERO PUSH2 0x1703 JUMPI DUP1 DUP7 DIV DUP2 GT ISZERO PUSH2 0x16DF JUMPI PUSH2 0x16DE PUSH2 0x113A JUMP JUMPDEST JUMPDEST PUSH1 0x1 DUP6 AND ISZERO PUSH2 0x16EE JUMPI DUP1 DUP3 MUL SWAP2 POP JUMPDEST DUP1 DUP2 MUL SWAP1 POP PUSH2 0x16FC DUP6 PUSH2 0x16AE JUMP JUMPDEST SWAP5 POP PUSH2 0x16C3 JUMP JUMPDEST SWAP5 POP SWAP5 SWAP3 POP POP POP JUMP JUMPDEST PUSH0 DUP3 PUSH0 DUP2 EQ PUSH2 0x1722 JUMPI PUSH1 0x1 DUP2 EQ PUSH2 0x172C JUMPI PUSH2 0x1735 JUMP JUMPDEST PUSH1 0x1 SWAP2 POP POP PUSH2 0x17EC JUMP JUMPDEST DUP3 SWAP2 POP POP PUSH2 0x17EC JUMP JUMPDEST POP DUP2 PUSH2 0x1743 JUMPI PUSH0 SWAP1 POP PUSH2 0x17EC JUMP JUMPDEST PUSH1 0x1 SWAP1 POP PUSH0 DUP3 SGT PUSH1 0x1 DUP2 EQ PUSH2 0x175E JUMPI PUSH0 DUP2 EQ PUSH2 0x1776 JUMPI PUSH2 0x178A JUMP JUMPDEST DUP3 DUP7 DIV DUP4 GT ISZERO PUSH2 0x1771 JUMPI PUSH2 0x1770 PUSH2 0x113A JUMP JUMPDEST JUMPDEST PUSH2 0x178A JUMP JUMPDEST DUP3 DUP7 SDIV DUP4 SLT ISZERO PUSH2 0x1789 JUMPI PUSH2 0x1788 PUSH2 0x113A JUMP JUMPDEST JUMPDEST JUMPDEST POP PUSH1 0x1 DUP4 AND ISZERO PUSH2 0x1798 JUMPI DUP2 SWAP1 POP JUMPDEST DUP2 DUP3 MUL SWAP2 POP PUSH2 0x17A6 DUP4 PUSH2 0x16AE JUMP JUMPDEST SWAP3 POP PUSH2 0x17B4 DUP6 DUP5 DUP5 DUP5 PUSH2 0x16BA JUMP JUMPDEST SWAP3 POP SWAP1 POP DUP2 DUP6 DIV DUP2 GT PUSH0 DUP3 SGT AND ISZERO PUSH2 0x17CF JUMPI PUSH2 0x17CE PUSH2 0x113A JUMP JUMPDEST JUMPDEST DUP2 DUP5 SDIV DUP2 SLT PUSH0 DUP3 SLT AND ISZERO PUSH2 0x17E6 JUMPI PUSH2 0x17E5 PUSH2 0x113A JUMP JUMPDEST JUMPDEST DUP2 DUP2 MUL SWAP1 POP JUMPDEST SWAP5 SWAP4 POP POP POP POP JUMP JUMPDEST PUSH0 PUSH2 0x17FE DUP3 PUSH2 0x1536 JUMP JUMPDEST SWAP2 POP PUSH2 0x1809 DUP4 PUSH2 0x1302 JUMP JUMPDEST SWAP3 POP PUSH2 0x1857 PUSH32 0x7FFFFFFFFFFFFFFFFFFFFFFFFFFFFFFFFFFFFFFFFFFFFFFFFFFFFFFFFFFFFFFF PUSH32 0x8000000000000000000000000000000000000000000000000000000000000000 DUP6 DUP6 PUSH2 0x170C JUMP JUMPDEST SWAP1 POP SWAP3 SWAP2 POP POP JUMP JUMPDEST PUSH32 0x436F6D706C6578206E756D626572000000000000000000000000000000000000 PUSH0 DUP3 ADD MSTORE POP JUMP JUMPDEST PUSH0 PUSH2 0x1893 PUSH1 0xE DUP4 PUSH2 0x1636 JUMP JUMPDEST SWAP2 POP PUSH2 0x189E DUP3 PUSH2 0x185F JUMP JUMPDEST PUSH1 0x20 DUP3 ADD SWAP1 POP SWAP2 SWAP1 POP JUMP JUMPDEST PUSH0 PUSH1 0x20 DUP3 ADD SWAP1 POP DUP2 DUP2 SUB PUSH0 DUP4 ADD MSTORE PUSH2 0x18C0 DUP2 PUSH2 0x1887 JUMP JUMPDEST SWAP1 POP SWAP2 SWAP1 POP JUMP JUMPDEST PUSH0 PUSH2 0x18D1 DUP3 PUSH2 0x1536 JUMP JUMPDEST SWAP2 POP PUSH32 0x8000000000000000000000000000000000000000000000000000000000000000 DUP3 SUB PUSH2 0x1903 JUMPI PUSH2 0x1902 PUSH2 0x113A JUMP JUMPDEST JUMPDEST DUP2 PUSH0 SUB SWAP1 POP SWAP2 SWAP1 POP JUMP JUMPDEST PUSH0 PUSH2 0x1917 DUP3 PUSH2 0x1536 JUMP JUMPDEST SWAP2 POP PUSH2 0x1922 DUP4 PUSH2 0x1536 JUMP JUMPDEST SWAP3 POP DUP3 PUSH2 0x1932 JUMPI PUSH2 0x1931 PUSH2 0x119A JUMP JUMPDEST JUMPDEST PUSH1 0x1 PUSH0 SUB DUP4 EQ PUSH32 0x8000000000000000000000000000000000000000000000000000000000000000 DUP4 EQ AND ISZERO PUSH2 0x196A JUMPI PUSH2 0x1969 PUSH2 0x113A JUMP JUMPDEST JUMPDEST DUP3 DUP3 SDIV SWAP1 POP SWAP3 SWAP2 POP POP JUMP JUMPDEST PUSH32 0x4E487B7100000000000000000000000000000000000000000000000000000000 PUSH0 MSTORE PUSH1 0x1 PUSH1 0x4 MSTORE PUSH1 0x24 PUSH0 REVERT INVALID LOG2 PUSH5 0x6970667358 0x22 SLT KECCAK256 SWAP14 0x27 PUSH22 0x5A611B1B6C5B93708A8FCA26E6041474F350FC0152DD 0xB0 SSTORE 0xA7 0x25 DUP11 DUP15 0xB1 PUSH5 0x736F6C6343 STOP ADDMOD BYTE STOP CALLER "
				},
				"gasEstimates": {
					"creation": {
						"codeDepositCost": "1323200",
						"executionCost": "1374",
						"totalCost": "1324574"
					},
					"external": {
						"getBorrowAmountV2(address,address)": "infinite",
						"getBorrowAmountV3(address,address)": "infinite",
						"getLiquidityAndPrice(address)": "infinite",
						"getMaxProfitableAmount(address,address)": "infinite",
						"getPriceRatio(address,address)": "infinite",
						"getRelativeLiquidity(address,address)": "infinite",
						"getReservesV2(address)": "infinite",
						"getReservesV3(address)": "infinite",
						"reserves0(address)": "infinite",
						"reserves1(address)": "infinite"
					},
					"internal": {
						"calcBorrowAmount(struct OrderedReserves memory)": "infinite",
						"calcSolutionForQuadratic(int256,int256,int256)": "infinite",
						"sqrt(uint256)": "infinite"
					}
				},
				"methodIdentifiers": {
					"getBorrowAmountV2(address,address)": "7d9ada3e",
					"getBorrowAmountV3(address,address)": "44401a24",
					"getLiquidityAndPrice(address)": "1e953b15",
					"getMaxProfitableAmount(address,address)": "21fef881",
					"getPriceRatio(address,address)": "0d83825b",
					"getRelativeLiquidity(address,address)": "9872971a",
					"getReservesV2(address)": "ec0a63d8",
					"getReservesV3(address)": "7232688e",
					"reserves0(address)": "1fdd03cb",
					"reserves1(address)": "b49bbce5"
				}
			},
			"storageLayout": {
				"storage": [],
				"types": null
			},
			"userdoc": {
				"kind": "user",
				"methods": {},
				"version": 1
			}
		}
	}
}