{
	"data": {
		"bytecode": {
			"linkReferences": {},
			"object": "60a06040526001805f6101000a81548173ffffffffffffffffffffffffffffffffffffffff021916908373ffffffffffffffffffffffffffffffffffffffff16021790555034801562000050575f80fd5b50604051620043543803806200435483398181016040528101906200007691906200033a565b335f73ffffffffffffffffffffffffffffffffffffffff168173ffffffffffffffffffffffffffffffffffffffff1603620000ea575f6040517f1e4fbdf7000000000000000000000000000000000000000000000000000000008152600401620000e191906200037b565b60405180910390fd5b620000fb816200014e60201b60201c565b508073ffffffffffffffffffffffffffffffffffffffff1660808173ffffffffffffffffffffffffffffffffffffffff1681525050620001468160026200020f60201b90919060201c565b505062000396565b5f805f9054906101000a900473ffffffffffffffffffffffffffffffffffffffff169050815f806101000a81548173ffffffffffffffffffffffffffffffffffffffff021916908373ffffffffffffffffffffffffffffffffffffffff1602179055508173ffffffffffffffffffffffffffffffffffffffff168173ffffffffffffffffffffffffffffffffffffffff167f8be0079c531659141344cd1fd0a4f28419497f9722a3daafe3b4186f6b6457e060405160405180910390a35050565b5f6200023c835f018373ffffffffffffffffffffffffffffffffffffffff165f1b6200024460201b60201c565b905092915050565b5f620002578383620002b560201b60201c565b620002ab57825f0182908060018154018082558091505060019003905f5260205f20015f9091909190915055825f0180549050836001015f8481526020019081526020015f208190555060019050620002af565b5f90505b92915050565b5f80836001015f8481526020019081526020015f20541415905092915050565b5f80fd5b5f73ffffffffffffffffffffffffffffffffffffffff82169050919050565b5f6200030482620002d9565b9050919050565b6200031681620002f8565b811462000321575f80fd5b50565b5f8151905062000334816200030b565b92915050565b5f60208284031215620003525762000351620002d5565b5b5f620003618482850162000324565b91505092915050565b6200037581620002f8565b82525050565b5f602082019050620003905f8301846200036a565b92915050565b608051613fa5620003af5f395f610e8b0152613fa55ff3fe60806040526004361061009f575f3560e01c806383e280d91161006357806383e280d9146101db5780638da5cb5b14610203578063baee64f11461022d578063bbd1e12214610255578063bed64c2f1461027d578063f2fde38b146102a7576100a6565b806310d1e85c1461010e57806321d09426146101365780633ccfd60b14610172578063715018a614610188578063759eee101461019e576100a6565b366100a657005b3480156100b1575f80fd5b505f3660605f805f80868660049080926100cd93929190612965565b8101906100da9190612b70565b93509350935093506100ee848484846102cf565b60405180602001604052805f815250945050505050915050805190602001f35b348015610119575f80fd5b50610134600480360381019061012f9190612c2b565b6102cf565b005b348015610141575f80fd5b5061015c60048036038101906101579190612cab565b610545565b6040516101699190612cf0565b60405180910390f35b34801561017d575f80fd5b50610186610561565b005b348015610193575f80fd5b5061019c61074c565b005b3480156101a9575f80fd5b506101c460048036038101906101bf9190612d09565b61075f565b6040516101d2929190612d65565b60405180910390f35b3480156101e6575f80fd5b5061020160048036038101906101fc9190612cab565b6108c9565b005b34801561020e575f80fd5b5061021761092c565b6040516102249190612d8c565b60405180910390f35b348015610238575f80fd5b50610253600480360381019061024e9190612d09565b610953565b005b348015610260575f80fd5b5061027b60048036038101906102769190612cab565b610f91565b005b348015610288575f80fd5b506102916110fc565b60405161029e9190612e5c565b60405180910390f35b3480156102b2575f80fd5b506102cd60048036038101906102c89190612cab565b6111d9565b005b60015f9054906101000a900473ffffffffffffffffffffffffffffffffffffffff1673ffffffffffffffffffffffffffffffffffffffff163373ffffffffffffffffffffffffffffffffffffffff161461035e576040517f08c379a000000000000000000000000000000000000000000000000000000000815260040161035590612ed6565b60405180910390fd5b3073ffffffffffffffffffffffffffffffffffffffff168473ffffffffffffffffffffffffffffffffffffffff16146103cc576040517f08c379a00000000000000000000000000000000000000000000000000000000081526004016103c390612f3e565b60405180910390fd5b5f8084116103da57826103dc565b835b90505f828060200190518101906103f39190613063565b9050610428816020015183836060015173ffffffffffffffffffffffffffffffffffffffff1661125d9092919063ffffffff16565b5f80826040015161043e575f8360c00151610445565b8260c001515f5b91509150826020015173ffffffffffffffffffffffffffffffffffffffff1663022c0d9f8383305f67ffffffffffffffff81111561048657610485612a4c565b5b6040519080825280601f01601f1916602001820160405280156104b85781602001600182028036833780820191505090505b506040518563ffffffff1660e01b81526004016104d89493929190613108565b5f604051808303815f87803b1580156104ef575f80fd5b505af1158015610501573d5f803e3d5ffd5b5050505061053b835f01518460a00151856080015173ffffffffffffffffffffffffffffffffffffffff1661125d9092919063ffffffff16565b5050505050505050565b5f61055a8260026112dc90919063ffffffff16565b9050919050565b5f4790505f8111156106045761057561092c565b73ffffffffffffffffffffffffffffffffffffffff166108fc8290811502906040515f60405180830381858888f193505050501580156105b7573d5f803e3d5ffd5b50806105c161092c565b73ffffffffffffffffffffffffffffffffffffffff167f7084f5476618d8e60b11ef0d7d3f06914655adb8793e28ff7f018d4c76d505d560405160405180910390a35b5f5b6106106002611309565b811015610748575f61062c82600261131c90919063ffffffff16565b90508073ffffffffffffffffffffffffffffffffffffffff166370a08231306040518263ffffffff1660e01b81526004016106679190612d8c565b602060405180830381865afa158015610682573d5f803e3d5ffd5b505050506040513d601f19601f820116820180604052508101906106a69190613152565b92505f831115610734578073ffffffffffffffffffffffffffffffffffffffff1663a9059cbb6106d461092c565b856040518363ffffffff1660e01b81526004016106f292919061317d565b6020604051808303815f875af115801561070e573d5f803e3d5ffd5b505050506040513d601f19601f8201168201806040525081019061073291906131a4565b505b508080610740906131fc565b915050610606565b5050565b610754611333565b61075d5f6113ba565b565b5f805f61076c858561147b565b50509050806107e7578473ffffffffffffffffffffffffffffffffffffffff1663d21220a76040518163ffffffff1660e01b8152600401602060405180830381865afa1580156107be573d5f803e3d5ffd5b505050506040513d601f19601f820116820180604052508101906107e29190613243565b610855565b8473ffffffffffffffffffffffffffffffffffffffff16630dfe16816040518163ffffffff1660e01b8152600401602060405180830381865afa158015610830573d5f803e3d5ffd5b505050506040513d601f19601f820116820180604052508101906108549190613243565b5b91505f61086386868461187f565b925050505f61087182611b59565b90505f61088682845f01518560200151611eb0565b90505f61089c8385606001518660400151611f9b565b9050818110156108ae575f96506108bd565b81816108ba919061326e565b96505b50505050509250929050565b6108d1611333565b6108e581600261207f90919063ffffffff16565b508073ffffffffffffffffffffffffffffffffffffffff167ffa1388d6e7328e9c711a539b0addfc27de8bfb6f5924cce26f80f41023b1525360405160405180910390a250565b5f805f9054906101000a900473ffffffffffffffffffffffffffffffffffffffff16905090565b61095b612800565b610965838361147b565b83604001845f01856020018373ffffffffffffffffffffffffffffffffffffffff1673ffffffffffffffffffffffffffffffffffffffff168152508373ffffffffffffffffffffffffffffffffffffffff1673ffffffffffffffffffffffffffffffffffffffff1681525083151515158152505050506109e3612884565b6109f28484846040015161187f565b84606001856080018295508373ffffffffffffffffffffffffffffffffffffffff1673ffffffffffffffffffffffffffffffffffffffff168152508373ffffffffffffffffffffffffffffffffffffffff1673ffffffffffffffffffffffffffffffffffffffff16815250505050816060015160015f6101000a81548173ffffffffffffffffffffffffffffffffffffffff021916908373ffffffffffffffffffffffffffffffffffffffff1602179055505f825f015173ffffffffffffffffffffffffffffffffffffffff166370a08231306040518263ffffffff1660e01b8152600401610ae19190612d8c565b602060405180830381865afa158015610afc573d5f803e3d5ffd5b505050506040513d601f19601f82011682018060405250810190610b209190613152565b90505f610b2c83611b59565b90505f808560400151610b4057825f610b43565b5f835b915091505f610b5a84875f01518860200151611eb0565b90505f610b708588606001518960400151611f9b565b9050818111610bb4576040517f08c379a0000000000000000000000000000000000000000000000000000000008152600401610bab906132eb565b60405180910390fd5b610c116040518060400160405280600781526020017f50726f6669743a00000000000000000000000000000000000000000000000000815250670de0b6b3a76400008484610c02919061326e565b610c0c9190613336565b6120ac565b610c196128a8565b8860600151815f019073ffffffffffffffffffffffffffffffffffffffff16908173ffffffffffffffffffffffffffffffffffffffff16815250508860800151816020019073ffffffffffffffffffffffffffffffffffffffff16908173ffffffffffffffffffffffffffffffffffffffff168152505088604001518160400190151590811515815250508860200151816060019073ffffffffffffffffffffffffffffffffffffffff16908173ffffffffffffffffffffffffffffffffffffffff1681525050885f0151816080019073ffffffffffffffffffffffffffffffffffffffff16908173ffffffffffffffffffffffffffffffffffffffff1681525050828160a0018181525050818160c00181815250505f81604051602001610d419190613410565b6040516020818303038152906040529050896060015173ffffffffffffffffffffffffffffffffffffffff1663022c0d9f878730856040518563ffffffff1660e01b8152600401610d959493929190613108565b5f604051808303815f87803b158015610dac575f80fd5b505af1158015610dbe573d5f803e3d5ffd5b50505050505050505050505f835f015173ffffffffffffffffffffffffffffffffffffffff166370a08231306040518263ffffffff1660e01b8152600401610e069190612d8c565b602060405180830381865afa158015610e21573d5f803e3d5ffd5b505050506040513d601f19601f82011682018060405250810190610e459190613152565b9050818111610e89576040517f08c379a0000000000000000000000000000000000000000000000000000000008152600401610e8090613473565b60405180910390fd5b7f000000000000000000000000000000000000000000000000000000000000000073ffffffffffffffffffffffffffffffffffffffff16845f015173ffffffffffffffffffffffffffffffffffffffff1603610f4957835f015173ffffffffffffffffffffffffffffffffffffffff16632e1a7d4d826040518263ffffffff1660e01b8152600401610f1b9190613491565b5f604051808303815f87803b158015610f32575f80fd5b505af1158015610f44573d5f803e3d5ffd5b505050505b6001805f6101000a81548173ffffffffffffffffffffffffffffffffffffffff021916908373ffffffffffffffffffffffffffffffffffffffff160217905550505050505050565b610f99611333565b5f8173ffffffffffffffffffffffffffffffffffffffff166370a08231306040518263ffffffff1660e01b8152600401610fd39190612d8c565b602060405180830381865afa158015610fee573d5f803e3d5ffd5b505050506040513d601f19601f820116820180604052508101906110129190613152565b90505f8111156110a0578173ffffffffffffffffffffffffffffffffffffffff1663a9059cbb61104061092c565b836040518363ffffffff1660e01b815260040161105e92919061317d565b6020604051808303815f875af115801561107a573d5f803e3d5ffd5b505050506040513d601f19601f8201168201806040525081019061109e91906131a4565b505b6110b482600261214890919063ffffffff16565b508173ffffffffffffffffffffffffffffffffffffffff167fdc23a849435922f20a9732eb85192a9d0c1cb34725ebe6d7de0be10212ba02fb60405160405180910390a25050565b60605f6111096002611309565b90508067ffffffffffffffff81111561112557611124612a4c565b5b6040519080825280602002602001820160405280156111535781602001602082028036833780820191505090505b5091505f5b818110156111d45761117481600261131c90919063ffffffff16565b838281518110611187576111866134aa565b5b602002602001019073ffffffffffffffffffffffffffffffffffffffff16908173ffffffffffffffffffffffffffffffffffffffff168152505080806111cc906131fc565b915050611158565b505090565b6111e1611333565b5f73ffffffffffffffffffffffffffffffffffffffff168173ffffffffffffffffffffffffffffffffffffffff1603611251575f6040517f1e4fbdf70000000000000000000000000000000000000000000000000000000081526004016112489190612d8c565b60405180910390fd5b61125a816113ba565b50565b6112d7838473ffffffffffffffffffffffffffffffffffffffff1663a9059cbb858560405160240161129092919061317d565b604051602081830303815290604052915060e01b6020820180517bffffffffffffffffffffffffffffffffffffffffffffffffffffffff8381831617835250505050612175565b505050565b5f611301835f018373ffffffffffffffffffffffffffffffffffffffff165f1b612210565b905092915050565b5f611315825f01612230565b9050919050565b5f611329835f018361223f565b5f1c905092915050565b61133b612266565b73ffffffffffffffffffffffffffffffffffffffff1661135961092c565b73ffffffffffffffffffffffffffffffffffffffff16146113b85761137c612266565b6040517f118cdaa70000000000000000000000000000000000000000000000000000000081526004016113af9190612d8c565b60405180910390fd5b565b5f805f9054906101000a900473ffffffffffffffffffffffffffffffffffffffff169050815f806101000a81548173ffffffffffffffffffffffffffffffffffffffff021916908373ffffffffffffffffffffffffffffffffffffffff1602179055508173ffffffffffffffffffffffffffffffffffffffff168173ffffffffffffffffffffffffffffffffffffffff167f8be0079c531659141344cd1fd0a4f28419497f9722a3daafe3b4186f6b6457e060405160405180910390a35050565b5f805f8373ffffffffffffffffffffffffffffffffffffffff168573ffffffffffffffffffffffffffffffffffffffff16036114ec576040517f08c379a00000000000000000000000000000000000000000000000000000000081526004016114e390613521565b60405180910390fd5b5f808673ffffffffffffffffffffffffffffffffffffffff16630dfe16816040518163ffffffff1660e01b8152600401602060405180830381865afa158015611537573d5f803e3d5ffd5b505050506040513d601f19601f8201168201806040525081019061155b9190613243565b8773ffffffffffffffffffffffffffffffffffffffff1663d21220a76040518163ffffffff1660e01b8152600401602060405180830381865afa1580156115a4573d5f803e3d5ffd5b505050506040513d601f19601f820116820180604052508101906115c89190613243565b915091505f808773ffffffffffffffffffffffffffffffffffffffff16630dfe16816040518163ffffffff1660e01b8152600401602060405180830381865afa158015611617573d5f803e3d5ffd5b505050506040513d601f19601f8201168201806040525081019061163b9190613243565b8873ffffffffffffffffffffffffffffffffffffffff1663d21220a76040518163ffffffff1660e01b8152600401602060405180830381865afa158015611684573d5f803e3d5ffd5b505050506040513d601f19601f820116820180604052508101906116a89190613243565b915091508273ffffffffffffffffffffffffffffffffffffffff168473ffffffffffffffffffffffffffffffffffffffff1610801561171257508073ffffffffffffffffffffffffffffffffffffffff168273ffffffffffffffffffffffffffffffffffffffff16105b611751576040517f08c379a000000000000000000000000000000000000000000000000000000000815260040161174890613589565b60405180910390fd5b8173ffffffffffffffffffffffffffffffffffffffff168473ffffffffffffffffffffffffffffffffffffffff161480156117b757508073ffffffffffffffffffffffffffffffffffffffff168373ffffffffffffffffffffffffffffffffffffffff16145b6117f6576040517f08c379a00000000000000000000000000000000000000000000000000000000081526004016117ed906135f1565b60405180910390fd5b6117ff84610545565b8061180f575061180e83610545565b5b61184e576040517f08c379a000000000000000000000000000000000000000000000000000000000815260040161184590613659565b60405180910390fd5b61185784610545565b611863575f8385611868565b600184845b809750819850829950505050505050509250925092565b5f80611889612884565b5f808773ffffffffffffffffffffffffffffffffffffffff16630902f1ac6040518163ffffffff1660e01b8152600401606060405180830381865afa1580156118d4573d5f803e3d5ffd5b505050506040513d601f19601f820116820180604052508101906118f891906136f3565b506dffffffffffffffffffffffffffff1691506dffffffffffffffffffffffffffff1691505f808873ffffffffffffffffffffffffffffffffffffffff16630902f1ac6040518163ffffffff1660e01b8152600401606060405180830381865afa158015611968573d5f803e3d5ffd5b505050506040513d601f19601f8201168201806040525081019061198c91906136f3565b506dffffffffffffffffffffffffffff1691506dffffffffffffffffffffffffffff1691505f80896119f3576119d3866119c58761226d565b6122a590919063ffffffff16565b6119ee856119e08661226d565b6122a590919063ffffffff16565b611a2a565b611a0e85611a008861226d565b6122a590919063ffffffff16565b611a2984611a1b8761226d565b6122a590919063ffffffff16565b5b91509150611a4181836122d990919063ffffffff16565b15611a8b578b8b809950819a50505089611a5e5784868486611a63565b858585855b8a5f018b6020018c6040018d6060018481525084815250848152508481525050505050611acc565b8a8c809950819a50505089611aa35782848688611aa8565b838387875b8a5f018b6020018c6040018d60600184815250848152508481525084815250505050505b611b0b6040518060400160405280601181526020017f426f72726f772066726f6d20706f6f6c3a0000000000000000000000000000008152508a6122ee565b611b4a6040518060400160405280600d81526020017f53656c6c20746f20706f6f6c3a00000000000000000000000000000000000000815250896122ee565b50505050505093509350939050565b5f808260200151835f015110611b73578260200151611b78565b825f01515b90505f8360600151846040015110611b94578360600151611b9a565b83604001515b90505f818310611baa5781611bac565b825b90505f69d3c21bcecceda1000000821115611bd25768056bc75e2d631000009050611cfc565b69152d02c7e14af6800000821115611bf457678ac7230489e800009050611cfb565b69021e19e0c9bab2400000821115611c1657670de0b6b3a76400009050611cfa565b683635c9adc5dea00000821115611c375767016345785d8a00009050611cf9565b68056bc75e2d63100000821115611c5757662386f26fc100009050611cf8565b678ac7230489e80000821115611c765766038d7ea4c680009050611cf7565b670de0b6b3a7640000821115611c9457655af3107a40009050611cf6565b67016345785d8a0000821115611cb2576509184e72a0009050611cf5565b662386f26fc10000821115611cce5764e8d4a510009050611cf4565b66038d7ea4c68000821115611cea5764174876e8009050611cf3565b6402540be40090505b5b5b5b5b5b5b5b5b5b5f805f80848a5f0151611d0f9190613336565b858b60400151611d1f9190613336565b868c60200151611d2f9190613336565b878d60600151611d3f9190613336565b93509350935093505f8184611d54919061374c565b8386611d60919061374c565b611d6a91906137c2565b90505f8486611d799190613802565b83856002611d87919061374c565b611d91919061374c565b611d9b919061374c565b90505f8486611daa919061374c565b8488611db6919061374c565b611dc091906137c2565b8486611dcc919061374c565b611dd6919061374c565b90505f80611de585858561238a565b915091505f82138015611df757508682125b8015611e0257508582125b80611e2257505f81138015611e1657508681125b8015611e2157508581125b5b611e61576040517f08c379a0000000000000000000000000000000000000000000000000000000008152600401611e589061388d565b60405180910390fd5b5f82138015611e6f57508682125b8015611e7a57508582125b611e8f578981611e8a91906138ab565b611e9c565b8982611e9b91906138ab565b5b9d5050505050505050505050505050919050565b5f808411611ef3576040517f08c379a0000000000000000000000000000000000000000000000000000000008152600401611eea9061395c565b60405180910390fd5b5f83118015611f0157505f82115b611f40576040517f08c379a0000000000000000000000000000000000000000000000000000000008152600401611f37906139ea565b60405180910390fd5b5f6103e88585611f5091906138ab565b611f5a91906138ab565b90505f6103e58685611f6c919061326e565b611f7691906138ab565b905060018183611f869190613336565b611f909190613a08565b925050509392505050565b5f808411611fde576040517f08c379a0000000000000000000000000000000000000000000000000000000008152600401611fd590613aab565b60405180910390fd5b5f83118015611fec57505f82115b61202b576040517f08c379a0000000000000000000000000000000000000000000000000000000008152600401612022906139ea565b60405180910390fd5b5f6103e58561203a91906138ab565b90505f838261204991906138ab565b90505f826103e88761205b91906138ab565b6120659190613a08565b905080826120739190613336565b93505050509392505050565b5f6120a4835f018373ffffffffffffffffffffffffffffffffffffffff165f1b612472565b905092915050565b61214482826040516024016120c2929190613b0b565b6040516020818303038152906040527fb60e72cc000000000000000000000000000000000000000000000000000000007bffffffffffffffffffffffffffffffffffffffffffffffffffffffff19166020820180517bffffffffffffffffffffffffffffffffffffffffffffffffffffffff83818316178352505050506124d9565b5050565b5f61216d835f018373ffffffffffffffffffffffffffffffffffffffff165f1b6124f3565b905092915050565b5f8060205f8451602086015f885af180612194576040513d5f823e3d81fd5b3d92505f519150505f82146121ad5760018114156121c8565b5f8473ffffffffffffffffffffffffffffffffffffffff163b145b1561220a57836040517f5274afe70000000000000000000000000000000000000000000000000000000081526004016122019190612d8c565b60405180910390fd5b50505050565b5f80836001015f8481526020019081526020015f20541415905092915050565b5f815f01805490509050919050565b5f825f018281548110612255576122546134aa565b5b905f5260205f200154905092915050565b5f33905090565b612275612938565b604051806020016040528061229b670de0b6b3a7640000856125ef90919063ffffffff16565b8152509050919050565b6122ad612938565b60405180602001604052806122ce84865f015161266690919063ffffffff16565b815250905092915050565b5f806122e584846126af565b14905092915050565b6123868282604051602401612304929190613b39565b6040516020818303038152906040527f319af333000000000000000000000000000000000000000000000000000000007bffffffffffffffffffffffffffffffffffffffffffffffffffffffff19166020820180517bffffffffffffffffffffffffffffffffffffffffffffffffffffffff83818316178352505050506124d9565b5050565b5f805f8386600461239b919061374c565b6123a5919061374c565b6002866123b29190613cb9565b6123bc91906137c2565b90505f8113612400576040517f08c379a00000000000000000000000000000000000000000000000000000000081526004016123f790613d6e565b60405180910390fd5b5f61240a826126e8565b9050866002612419919061374c565b818761242490613d8c565b61242e9190613802565b6124389190613dd2565b9350866002612447919061374c565b818761245290613d8c565b61245c91906137c2565b6124669190613dd2565b92505050935093915050565b5f61247d8383612210565b6124cf57825f0182908060018154018082558091505060019003905f5260205f20015f9091909190915055825f0180549050836001015f8481526020019081526020015f2081905550600190506124d3565b5f90505b92915050565b6124f0816124e8612775612794565b63ffffffff16565b50565b5f80836001015f8481526020019081526020015f205490505f81146125e4575f600182612520919061326e565b90505f6001865f0180549050612536919061326e565b905080821461259c575f865f018281548110612555576125546134aa565b5b905f5260205f200154905080875f018481548110612576576125756134aa565b5b905f5260205f20018190555083876001015f8381526020019081526020015f2081905550505b855f018054806125af576125ae613e3a565b5b600190038181905f5260205f20015f90559055856001015f8681526020019081526020015f205f9055600193505050506125e9565b5f9150505b92915050565b5f8083036125ff575f9050612660565b5f828461260c91906138ab565b905082848261261b9190613336565b1461265b576040517f08c379a000000000000000000000000000000000000000000000000000000000815260040161265290613ed7565b60405180910390fd5b809150505b92915050565b5f6126a783836040518060400160405280601a81526020017f536166654d6174683a206469766973696f6e206279207a65726f00000000000081525061279f565b905092915050565b5f815f0151835f0151036126c657600190506126e2565b815f0151835f0151116126d9575f6126dc565b60025b60ff1690505b92915050565b5f600182116126fa576126f9613ef5565b5b5f620f42408361270a91906138ab565b90505f8190508192505f5b60011561275d576002848361272a9190613336565b856127359190613a08565b61273f9190613336565b90506103e88185612750919061326e565b1061275d57809350612715565b6103e88461276b9190613336565b9350505050919050565b5f6a636f6e736f6c652e6c6f6790505f80835160208501845afa505050565b61294a819050919050565b5f80831182906127e5576040517f08c379a00000000000000000000000000000000000000000000000000000000081526004016127dc9190613f22565b60405180910390fd5b505f83856127f39190613336565b9050809150509392505050565b6040518060a001604052805f73ffffffffffffffffffffffffffffffffffffffff1681526020015f73ffffffffffffffffffffffffffffffffffffffff1681526020015f151581526020015f73ffffffffffffffffffffffffffffffffffffffff1681526020015f73ffffffffffffffffffffffffffffffffffffffff1681525090565b60405180608001604052805f81526020015f81526020015f81526020015f81525090565b6040518060e001604052805f73ffffffffffffffffffffffffffffffffffffffff1681526020015f73ffffffffffffffffffffffffffffffffffffffff1681526020015f151581526020015f73ffffffffffffffffffffffffffffffffffffffff1681526020015f73ffffffffffffffffffffffffffffffffffffffff1681526020015f81526020015f81525090565b60405180602001604052805f81525090565b612952613f42565b565b5f604051905090565b5f80fd5b5f80fd5b5f80858511156129785761297761295d565b5b8386111561298957612988612961565b5b6001850283019150848603905094509492505050565b5f80fd5b5f80fd5b5f73ffffffffffffffffffffffffffffffffffffffff82169050919050565b5f6129d0826129a7565b9050919050565b6129e0816129c6565b81146129ea575f80fd5b50565b5f813590506129fb816129d7565b92915050565b5f819050919050565b612a1381612a01565b8114612a1d575f80fd5b50565b5f81359050612a2e81612a0a565b92915050565b5f80fd5b5f80fd5b5f601f19601f8301169050919050565b7f4e487b71000000000000000000000000000000000000000000000000000000005f52604160045260245ffd5b612a8282612a3c565b810181811067ffffffffffffffff82111715612aa157612aa0612a4c565b5b80604052505050565b5f612ab3612954565b9050612abf8282612a79565b919050565b5f67ffffffffffffffff821115612ade57612add612a4c565b5b612ae782612a3c565b9050602081019050919050565b828183375f83830152505050565b5f612b14612b0f84612ac4565b612aaa565b905082815260208101848484011115612b3057612b2f612a38565b5b612b3b848285612af4565b509392505050565b5f82601f830112612b5757612b56612a34565b5b8135612b67848260208601612b02565b91505092915050565b5f805f8060808587031215612b8857612b8761299f565b5b5f612b95878288016129ed565b9450506020612ba687828801612a20565b9350506040612bb787828801612a20565b925050606085013567ffffffffffffffff811115612bd857612bd76129a3565b5b612be487828801612b43565b91505092959194509250565b5f612bfa826129a7565b9050919050565b612c0a81612bf0565b8114612c14575f80fd5b50565b5f81359050612c2581612c01565b92915050565b5f805f8060808587031215612c4357612c4261299f565b5b5f612c5087828801612c17565b9450506020612c6187828801612a20565b9350506040612c7287828801612a20565b925050606085013567ffffffffffffffff811115612c9357612c926129a3565b5b612c9f87828801612b43565b91505092959194509250565b5f60208284031215612cc057612cbf61299f565b5b5f612ccd84828501612c17565b91505092915050565b5f8115159050919050565b612cea81612cd6565b82525050565b5f602082019050612d035f830184612ce1565b92915050565b5f8060408385031215612d1f57612d1e61299f565b5b5f612d2c85828601612c17565b9250506020612d3d85828601612c17565b9150509250929050565b612d5081612a01565b82525050565b612d5f81612bf0565b82525050565b5f604082019050612d785f830185612d47565b612d856020830184612d56565b9392505050565b5f602082019050612d9f5f830184612d56565b92915050565b5f81519050919050565b5f82825260208201905092915050565b5f819050602082019050919050565b612dd781612bf0565b82525050565b5f612de88383612dce565b60208301905092915050565b5f602082019050919050565b5f612e0a82612da5565b612e148185612daf565b9350612e1f83612dbf565b805f5b83811015612e4f578151612e368882612ddd565b9750612e4183612df4565b925050600181019050612e22565b5085935050505092915050565b5f6020820190508181035f830152612e748184612e00565b905092915050565b5f82825260208201905092915050565b7f4e6f6e207065726d697373696f6e656420616464726573732063616c6c0000005f82015250565b5f612ec0601d83612e7c565b9150612ecb82612e8c565b602082019050919050565b5f6020820190508181035f830152612eed81612eb4565b9050919050565b7f4e6f742066726f6d207468697320636f6e7472616374000000000000000000005f82015250565b5f612f28601683612e7c565b9150612f3382612ef4565b602082019050919050565b5f6020820190508181035f830152612f5581612f1c565b9050919050565b5f80fd5b5f81519050612f6e81612c01565b92915050565b612f7d81612cd6565b8114612f87575f80fd5b50565b5f81519050612f9881612f74565b92915050565b5f81519050612fac81612a0a565b92915050565b5f60e08284031215612fc757612fc6612f5c565b5b612fd160e0612aaa565b90505f612fe084828501612f60565b5f830152506020612ff384828501612f60565b602083015250604061300784828501612f8a565b604083015250606061301b84828501612f60565b606083015250608061302f84828501612f60565b60808301525060a061304384828501612f9e565b60a08301525060c061305784828501612f9e565b60c08301525092915050565b5f60e082840312156130785761307761299f565b5b5f61308584828501612fb2565b91505092915050565b5f81519050919050565b5f82825260208201905092915050565b5f5b838110156130c55780820151818401526020810190506130aa565b5f8484015250505050565b5f6130da8261308e565b6130e48185613098565b93506130f48185602086016130a8565b6130fd81612a3c565b840191505092915050565b5f60808201905061311b5f830187612d47565b6131286020830186612d47565b6131356040830185612d56565b818103606083015261314781846130d0565b905095945050505050565b5f602082840312156131675761316661299f565b5b5f61317484828501612f9e565b91505092915050565b5f6040820190506131905f830185612d56565b61319d6020830184612d47565b9392505050565b5f602082840312156131b9576131b861299f565b5b5f6131c684828501612f8a565b91505092915050565b7f4e487b71000000000000000000000000000000000000000000000000000000005f52601160045260245ffd5b5f61320682612a01565b91507fffffffffffffffffffffffffffffffffffffffffffffffffffffffffffffffff8203613238576132376131cf565b5b600182019050919050565b5f602082840312156132585761325761299f565b5b5f61326584828501612f60565b91505092915050565b5f61327882612a01565b915061328383612a01565b925082820390508181111561329b5761329a6131cf565b5b92915050565b7f417262697472616765206661696c2c206e6f2070726f666974000000000000005f82015250565b5f6132d5601983612e7c565b91506132e0826132a1565b602082019050919050565b5f6020820190508181035f830152613302816132c9565b9050919050565b7f4e487b71000000000000000000000000000000000000000000000000000000005f52601260045260245ffd5b5f61334082612a01565b915061334b83612a01565b92508261335b5761335a613309565b5b828204905092915050565b61336f81612cd6565b82525050565b61337e81612a01565b82525050565b60e082015f8201516133985f850182612dce565b5060208201516133ab6020850182612dce565b5060408201516133be6040850182613366565b5060608201516133d16060850182612dce565b5060808201516133e46080850182612dce565b5060a08201516133f760a0850182613375565b5060c082015161340a60c0850182613375565b50505050565b5f60e0820190506134235f830184613384565b92915050565b7f4c6f73696e67206d6f6e657900000000000000000000000000000000000000005f82015250565b5f61345d600c83612e7c565b915061346882613429565b602082019050919050565b5f6020820190508181035f83015261348a81613451565b9050919050565b5f6020820190506134a45f830184612d47565b92915050565b7f4e487b71000000000000000000000000000000000000000000000000000000005f52603260045260245ffd5b7f53616d65207061697220616464726573730000000000000000000000000000005f82015250565b5f61350b601183612e7c565b9150613516826134d7565b602082019050919050565b5f6020820190508181035f830152613538816134ff565b9050919050565b7f4e6f6e207374616e6461726420756e697377617020414d4d20706169720000005f82015250565b5f613573601d83612e7c565b915061357e8261353f565b602082019050919050565b5f6020820190508181035f8301526135a081613567565b9050919050565b7f526571756972652073616d6520746f6b656e20706169720000000000000000005f82015250565b5f6135db601783612e7c565b91506135e6826135a7565b602082019050919050565b5f6020820190508181035f830152613608816135cf565b9050919050565b7f4e6f206261736520746f6b656e20696e207061697200000000000000000000005f82015250565b5f613643601583612e7c565b915061364e8261360f565b602082019050919050565b5f6020820190508181035f83015261367081613637565b9050919050565b5f6dffffffffffffffffffffffffffff82169050919050565b61369981613677565b81146136a3575f80fd5b50565b5f815190506136b481613690565b92915050565b5f63ffffffff82169050919050565b6136d2816136ba565b81146136dc575f80fd5b50565b5f815190506136ed816136c9565b92915050565b5f805f6060848603121561370a5761370961299f565b5b5f613717868287016136a6565b9350506020613728868287016136a6565b9250506040613739868287016136df565b9150509250925092565b5f819050919050565b5f61375682613743565b915061376183613743565b925082820261376f81613743565b91507f800000000000000000000000000000000000000000000000000000000000000084145f841216156137a6576137a56131cf565b5b82820584148315176137bb576137ba6131cf565b5b5092915050565b5f6137cc82613743565b91506137d783613743565b925082820390508181125f8412168282135f8512151617156137fc576137fb6131cf565b5b92915050565b5f61380c82613743565b915061381783613743565b92508282019050828112155f8312168382125f84121516171561383d5761383c6131cf565b5b92915050565b7f57726f6e6720696e707574206f726465720000000000000000000000000000005f82015250565b5f613877601183612e7c565b915061388282613843565b602082019050919050565b5f6020820190508181035f8301526138a48161386b565b9050919050565b5f6138b582612a01565b91506138c083612a01565b92508282026138ce81612a01565b915082820484148315176138e5576138e46131cf565b5b5092915050565b7f556e697377617056324c6962726172793a20494e53554646494349454e545f4f5f8201527f55545055545f414d4f554e540000000000000000000000000000000000000000602082015250565b5f613946602c83612e7c565b9150613951826138ec565b604082019050919050565b5f6020820190508181035f8301526139738161393a565b9050919050565b7f556e697377617056324c6962726172793a20494e53554646494349454e545f4c5f8201527f4951554944495459000000000000000000000000000000000000000000000000602082015250565b5f6139d4602883612e7c565b91506139df8261397a565b604082019050919050565b5f6020820190508181035f830152613a01816139c8565b9050919050565b5f613a1282612a01565b9150613a1d83612a01565b9250828201905080821115613a3557613a346131cf565b5b92915050565b7f556e697377617056324c6962726172793a20494e53554646494349454e545f495f8201527f4e5055545f414d4f554e54000000000000000000000000000000000000000000602082015250565b5f613a95602b83612e7c565b9150613aa082613a3b565b604082019050919050565b5f6020820190508181035f830152613ac281613a89565b9050919050565b5f81519050919050565b5f613add82613ac9565b613ae78185612e7c565b9350613af78185602086016130a8565b613b0081612a3c565b840191505092915050565b5f6040820190508181035f830152613b238185613ad3565b9050613b326020830184612d47565b9392505050565b5f6040820190508181035f830152613b518185613ad3565b9050613b606020830184612d56565b9392505050565b5f8160011c9050919050565b5f808291508390505b6001851115613bbc57808604811115613b9857613b976131cf565b5b6001851615613ba75780820291505b8081029050613bb585613b67565b9450613b7c565b94509492505050565b5f825f8114613bdb5760018114613be557613bee565b6001915050613ca5565b82915050613ca5565b5081613bfc575f9050613ca5565b600190505f821360018114613c17575f8114613c2f57613c43565b828604831115613c2a57613c296131cf565b5b613c43565b828605831215613c4257613c416131cf565b5b5b506001831615613c51578190505b8182029150613c5f83613b67565b9250613c6d85848484613b73565b9250905081850481115f82131615613c8857613c876131cf565b5b81840581125f82121615613c9f57613c9e6131cf565b5b81810290505b949350505050565b5f60ff82169050919050565b5f613cc382613743565b9150613cce83613cad565b9250613d1c7f7fffffffffffffffffffffffffffffffffffffffffffffffffffffffffffffff7f80000000000000000000000000000000000000000000000000000000000000008585613bc5565b905092915050565b7f436f6d706c6578206e756d6265720000000000000000000000000000000000005f82015250565b5f613d58600e83612e7c565b9150613d6382613d24565b602082019050919050565b5f6020820190508181035f830152613d8581613d4c565b9050919050565b5f613d9682613743565b91507f80000000000000000000000000000000000000000000000000000000000000008203613dc857613dc76131cf565b5b815f039050919050565b5f613ddc82613743565b9150613de783613743565b925082613df757613df6613309565b5b60015f0383147f800000000000000000000000000000000000000000000000000000000000000083141615613e2f57613e2e6131cf565b5b828205905092915050565b7f4e487b71000000000000000000000000000000000000000000000000000000005f52603160045260245ffd5b7f536166654d6174683a206d756c7469706c69636174696f6e206f766572666c6f5f8201527f7700000000000000000000000000000000000000000000000000000000000000602082015250565b5f613ec1602183612e7c565b9150613ecc82613e67565b604082019050919050565b5f6020820190508181035f830152613eee81613eb5565b9050919050565b7f4e487b71000000000000000000000000000000000000000000000000000000005f52600160045260245ffd5b5f6020820190508181035f830152613f3a8184613ad3565b905092915050565b7f4e487b71000000000000000000000000000000000000000000000000000000005f52605160045260245ffdfea2646970667358221220154cdd7c126b3a5af4dbd8e5f622533c724b63210eb4602e9b7a43a14074234a64736f6c63430008140033",
			"opcodes": "PUSH1 0xA0 PUSH1 0x40 MSTORE PUSH1 0x1 DUP1 PUSH0 PUSH2 0x100 EXP DUP2 SLOAD DUP2 PUSH20 0xFFFFFFFFFFFFFFFFFFFFFFFFFFFFFFFFFFFFFFFF MUL NOT AND SWAP1 DUP4 PUSH20 0xFFFFFFFFFFFFFFFFFFFFFFFFFFFFFFFFFFFFFFFF AND MUL OR SWAP1 SSTORE POP CALLVALUE DUP1 ISZERO PUSH3 0x50 JUMPI PUSH0 DUP1 REVERT JUMPDEST POP PUSH1 0x40 MLOAD PUSH3 0x4354 CODESIZE SUB DUP1 PUSH3 0x4354 DUP4 CODECOPY DUP2 DUP2 ADD PUSH1 0x40 MSTORE DUP2 ADD SWAP1 PUSH3 0x76 SWAP2 SWAP1 PUSH3 0x33A JUMP JUMPDEST CALLER PUSH0 PUSH20 0xFFFFFFFFFFFFFFFFFFFFFFFFFFFFFFFFFFFFFFFF AND DUP2 PUSH20 0xFFFFFFFFFFFFFFFFFFFFFFFFFFFFFFFFFFFFFFFF AND SUB PUSH3 0xEA JUMPI PUSH0 PUSH1 0x40 MLOAD PUSH32 0x1E4FBDF700000000000000000000000000000000000000000000000000000000 DUP2 MSTORE PUSH1 0x4 ADD PUSH3 0xE1 SWAP2 SWAP1 PUSH3 0x37B JUMP JUMPDEST PUSH1 0x40 MLOAD DUP1 SWAP2 SUB SWAP1 REVERT JUMPDEST PUSH3 0xFB DUP2 PUSH3 0x14E PUSH1 0x20 SHL PUSH1 0x20 SHR JUMP JUMPDEST POP DUP1 PUSH20 0xFFFFFFFFFFFFFFFFFFFFFFFFFFFFFFFFFFFFFFFF AND PUSH1 0x80 DUP2 PUSH20 0xFFFFFFFFFFFFFFFFFFFFFFFFFFFFFFFFFFFFFFFF AND DUP2 MSTORE POP POP PUSH3 0x146 DUP2 PUSH1 0x2 PUSH3 0x20F PUSH1 0x20 SHL SWAP1 SWAP2 SWAP1 PUSH1 0x20 SHR JUMP JUMPDEST POP POP PUSH3 0x396 JUMP JUMPDEST PUSH0 DUP1 PUSH0 SWAP1 SLOAD SWAP1 PUSH2 0x100 EXP SWAP1 DIV PUSH20 0xFFFFFFFFFFFFFFFFFFFFFFFFFFFFFFFFFFFFFFFF AND SWAP1 POP DUP2 PUSH0 DUP1 PUSH2 0x100 EXP DUP2 SLOAD DUP2 PUSH20 0xFFFFFFFFFFFFFFFFFFFFFFFFFFFFFFFFFFFFFFFF MUL NOT AND SWAP1 DUP4 PUSH20 0xFFFFFFFFFFFFFFFFFFFFFFFFFFFFFFFFFFFFFFFF AND MUL OR SWAP1 SSTORE POP DUP2 PUSH20 0xFFFFFFFFFFFFFFFFFFFFFFFFFFFFFFFFFFFFFFFF AND DUP2 PUSH20 0xFFFFFFFFFFFFFFFFFFFFFFFFFFFFFFFFFFFFFFFF AND PUSH32 0x8BE0079C531659141344CD1FD0A4F28419497F9722A3DAAFE3B4186F6B6457E0 PUSH1 0x40 MLOAD PUSH1 0x40 MLOAD DUP1 SWAP2 SUB SWAP1 LOG3 POP POP JUMP JUMPDEST PUSH0 PUSH3 0x23C DUP4 PUSH0 ADD DUP4 PUSH20 0xFFFFFFFFFFFFFFFFFFFFFFFFFFFFFFFFFFFFFFFF AND PUSH0 SHL PUSH3 0x244 PUSH1 0x20 SHL PUSH1 0x20 SHR JUMP JUMPDEST SWAP1 POP SWAP3 SWAP2 POP POP JUMP JUMPDEST PUSH0 PUSH3 0x257 DUP4 DUP4 PUSH3 0x2B5 PUSH1 0x20 SHL PUSH1 0x20 SHR JUMP JUMPDEST PUSH3 0x2AB JUMPI DUP3 PUSH0 ADD DUP3 SWAP1 DUP1 PUSH1 0x1 DUP2 SLOAD ADD DUP1 DUP3 SSTORE DUP1 SWAP2 POP POP PUSH1 0x1 SWAP1 SUB SWAP1 PUSH0 MSTORE PUSH1 0x20 PUSH0 KECCAK256 ADD PUSH0 SWAP1 SWAP2 SWAP1 SWAP2 SWAP1 SWAP2 POP SSTORE DUP3 PUSH0 ADD DUP1 SLOAD SWAP1 POP DUP4 PUSH1 0x1 ADD PUSH0 DUP5 DUP2 MSTORE PUSH1 0x20 ADD SWAP1 DUP2 MSTORE PUSH1 0x20 ADD PUSH0 KECCAK256 DUP2 SWAP1 SSTORE POP PUSH1 0x1 SWAP1 POP PUSH3 0x2AF JUMP JUMPDEST PUSH0 SWAP1 POP JUMPDEST SWAP3 SWAP2 POP POP JUMP JUMPDEST PUSH0 DUP1 DUP4 PUSH1 0x1 ADD PUSH0 DUP5 DUP2 MSTORE PUSH1 0x20 ADD SWAP1 DUP2 MSTORE PUSH1 0x20 ADD PUSH0 KECCAK256 SLOAD EQ ISZERO SWAP1 POP SWAP3 SWAP2 POP POP JUMP JUMPDEST PUSH0 DUP1 REVERT JUMPDEST PUSH0 PUSH20 0xFFFFFFFFFFFFFFFFFFFFFFFFFFFFFFFFFFFFFFFF DUP3 AND SWAP1 POP SWAP2 SWAP1 POP JUMP JUMPDEST PUSH0 PUSH3 0x304 DUP3 PUSH3 0x2D9 JUMP JUMPDEST SWAP1 POP SWAP2 SWAP1 POP JUMP JUMPDEST PUSH3 0x316 DUP2 PUSH3 0x2F8 JUMP JUMPDEST DUP2 EQ PUSH3 0x321 JUMPI PUSH0 DUP1 REVERT JUMPDEST POP JUMP JUMPDEST PUSH0 DUP2 MLOAD SWAP1 POP PUSH3 0x334 DUP2 PUSH3 0x30B JUMP JUMPDEST SWAP3 SWAP2 POP POP JUMP JUMPDEST PUSH0 PUSH1 0x20 DUP3 DUP5 SUB SLT ISZERO PUSH3 0x352 JUMPI PUSH3 0x351 PUSH3 0x2D5 JUMP JUMPDEST JUMPDEST PUSH0 PUSH3 0x361 DUP5 DUP3 DUP6 ADD PUSH3 0x324 JUMP JUMPDEST SWAP2 POP POP SWAP3 SWAP2 POP POP JUMP JUMPDEST PUSH3 0x375 DUP2 PUSH3 0x2F8 JUMP JUMPDEST DUP3 MSTORE POP POP JUMP JUMPDEST PUSH0 PUSH1 0x20 DUP3 ADD SWAP1 POP PUSH3 0x390 PUSH0 DUP4 ADD DUP5 PUSH3 0x36A JUMP JUMPDEST SWAP3 SWAP2 POP POP JUMP JUMPDEST PUSH1 0x80 MLOAD PUSH2 0x3FA5 PUSH3 0x3AF PUSH0 CODECOPY PUSH0 PUSH2 0xE8B ADD MSTORE PUSH2 0x3FA5 PUSH0 RETURN INVALID PUSH1 0x80 PUSH1 0x40 MSTORE PUSH1 0x4 CALLDATASIZE LT PUSH2 0x9F JUMPI PUSH0 CALLDATALOAD PUSH1 0xE0 SHR DUP1 PUSH4 0x83E280D9 GT PUSH2 0x63 JUMPI DUP1 PUSH4 0x83E280D9 EQ PUSH2 0x1DB JUMPI DUP1 PUSH4 0x8DA5CB5B EQ PUSH2 0x203 JUMPI DUP1 PUSH4 0xBAEE64F1 EQ PUSH2 0x22D JUMPI DUP1 PUSH4 0xBBD1E122 EQ PUSH2 0x255 JUMPI DUP1 PUSH4 0xBED64C2F EQ PUSH2 0x27D JUMPI DUP1 PUSH4 0xF2FDE38B EQ PUSH2 0x2A7 JUMPI PUSH2 0xA6 JUMP JUMPDEST DUP1 PUSH4 0x10D1E85C EQ PUSH2 0x10E JUMPI DUP1 PUSH4 0x21D09426 EQ PUSH2 0x136 JUMPI DUP1 PUSH4 0x3CCFD60B EQ PUSH2 0x172 JUMPI DUP1 PUSH4 0x715018A6 EQ PUSH2 0x188 JUMPI DUP1 PUSH4 0x759EEE10 EQ PUSH2 0x19E JUMPI PUSH2 0xA6 JUMP JUMPDEST CALLDATASIZE PUSH2 0xA6 JUMPI STOP JUMPDEST CALLVALUE DUP1 ISZERO PUSH2 0xB1 JUMPI PUSH0 DUP1 REVERT JUMPDEST POP PUSH0 CALLDATASIZE PUSH1 0x60 PUSH0 DUP1 PUSH0 DUP1 DUP7 DUP7 PUSH1 0x4 SWAP1 DUP1 SWAP3 PUSH2 0xCD SWAP4 SWAP3 SWAP2 SWAP1 PUSH2 0x2965 JUMP JUMPDEST DUP2 ADD SWAP1 PUSH2 0xDA SWAP2 SWAP1 PUSH2 0x2B70 JUMP JUMPDEST SWAP4 POP SWAP4 POP SWAP4 POP SWAP4 POP PUSH2 0xEE DUP5 DUP5 DUP5 DUP5 PUSH2 0x2CF JUMP JUMPDEST PUSH1 0x40 MLOAD DUP1 PUSH1 0x20 ADD PUSH1 0x40 MSTORE DUP1 PUSH0 DUP2 MSTORE POP SWAP5 POP POP POP POP POP SWAP2 POP POP DUP1 MLOAD SWAP1 PUSH1 0x20 ADD RETURN JUMPDEST CALLVALUE DUP1 ISZERO PUSH2 0x119 JUMPI PUSH0 DUP1 REVERT JUMPDEST POP PUSH2 0x134 PUSH1 0x4 DUP1 CALLDATASIZE SUB DUP2 ADD SWAP1 PUSH2 0x12F SWAP2 SWAP1 PUSH2 0x2C2B JUMP JUMPDEST PUSH2 0x2CF JUMP JUMPDEST STOP JUMPDEST CALLVALUE DUP1 ISZERO PUSH2 0x141 JUMPI PUSH0 DUP1 REVERT JUMPDEST POP PUSH2 0x15C PUSH1 0x4 DUP1 CALLDATASIZE SUB DUP2 ADD SWAP1 PUSH2 0x157 SWAP2 SWAP1 PUSH2 0x2CAB JUMP JUMPDEST PUSH2 0x545 JUMP JUMPDEST PUSH1 0x40 MLOAD PUSH2 0x169 SWAP2 SWAP1 PUSH2 0x2CF0 JUMP JUMPDEST PUSH1 0x40 MLOAD DUP1 SWAP2 SUB SWAP1 RETURN JUMPDEST CALLVALUE DUP1 ISZERO PUSH2 0x17D JUMPI PUSH0 DUP1 REVERT JUMPDEST POP PUSH2 0x186 PUSH2 0x561 JUMP JUMPDEST STOP JUMPDEST CALLVALUE DUP1 ISZERO PUSH2 0x193 JUMPI PUSH0 DUP1 REVERT JUMPDEST POP PUSH2 0x19C PUSH2 0x74C JUMP JUMPDEST STOP JUMPDEST CALLVALUE DUP1 ISZERO PUSH2 0x1A9 JUMPI PUSH0 DUP1 REVERT JUMPDEST POP PUSH2 0x1C4 PUSH1 0x4 DUP1 CALLDATASIZE SUB DUP2 ADD SWAP1 PUSH2 0x1BF SWAP2 SWAP1 PUSH2 0x2D09 JUMP JUMPDEST PUSH2 0x75F JUMP JUMPDEST PUSH1 0x40 MLOAD PUSH2 0x1D2 SWAP3 SWAP2 SWAP1 PUSH2 0x2D65 JUMP JUMPDEST PUSH1 0x40 MLOAD DUP1 SWAP2 SUB SWAP1 RETURN JUMPDEST CALLVALUE DUP1 ISZERO PUSH2 0x1E6 JUMPI PUSH0 DUP1 REVERT JUMPDEST POP PUSH2 0x201 PUSH1 0x4 DUP1 CALLDATASIZE SUB DUP2 ADD SWAP1 PUSH2 0x1FC SWAP2 SWAP1 PUSH2 0x2CAB JUMP JUMPDEST PUSH2 0x8C9 JUMP JUMPDEST STOP JUMPDEST CALLVALUE DUP1 ISZERO PUSH2 0x20E JUMPI PUSH0 DUP1 REVERT JUMPDEST POP PUSH2 0x217 PUSH2 0x92C JUMP JUMPDEST PUSH1 0x40 MLOAD PUSH2 0x224 SWAP2 SWAP1 PUSH2 0x2D8C JUMP JUMPDEST PUSH1 0x40 MLOAD DUP1 SWAP2 SUB SWAP1 RETURN JUMPDEST CALLVALUE DUP1 ISZERO PUSH2 0x238 JUMPI PUSH0 DUP1 REVERT JUMPDEST POP PUSH2 0x253 PUSH1 0x4 DUP1 CALLDATASIZE SUB DUP2 ADD SWAP1 PUSH2 0x24E SWAP2 SWAP1 PUSH2 0x2D09 JUMP JUMPDEST PUSH2 0x953 JUMP JUMPDEST STOP JUMPDEST CALLVALUE DUP1 ISZERO PUSH2 0x260 JUMPI PUSH0 DUP1 REVERT JUMPDEST POP PUSH2 0x27B PUSH1 0x4 DUP1 CALLDATASIZE SUB DUP2 ADD SWAP1 PUSH2 0x276 SWAP2 SWAP1 PUSH2 0x2CAB JUMP JUMPDEST PUSH2 0xF91 JUMP JUMPDEST STOP JUMPDEST CALLVALUE DUP1 ISZERO PUSH2 0x288 JUMPI PUSH0 DUP1 REVERT JUMPDEST POP PUSH2 0x291 PUSH2 0x10FC JUMP JUMPDEST PUSH1 0x40 MLOAD PUSH2 0x29E SWAP2 SWAP1 PUSH2 0x2E5C JUMP JUMPDEST PUSH1 0x40 MLOAD DUP1 SWAP2 SUB SWAP1 RETURN JUMPDEST CALLVALUE DUP1 ISZERO PUSH2 0x2B2 JUMPI PUSH0 DUP1 REVERT JUMPDEST POP PUSH2 0x2CD PUSH1 0x4 DUP1 CALLDATASIZE SUB DUP2 ADD SWAP1 PUSH2 0x2C8 SWAP2 SWAP1 PUSH2 0x2CAB JUMP JUMPDEST PUSH2 0x11D9 JUMP JUMPDEST STOP JUMPDEST PUSH1 0x1 PUSH0 SWAP1 SLOAD SWAP1 PUSH2 0x100 EXP SWAP1 DIV PUSH20 0xFFFFFFFFFFFFFFFFFFFFFFFFFFFFFFFFFFFFFFFF AND PUSH20 0xFFFFFFFFFFFFFFFFFFFFFFFFFFFFFFFFFFFFFFFF AND CALLER PUSH20 0xFFFFFFFFFFFFFFFFFFFFFFFFFFFFFFFFFFFFFFFF AND EQ PUSH2 0x35E JUMPI PUSH1 0x40 MLOAD PUSH32 0x8C379A000000000000000000000000000000000000000000000000000000000 DUP2 MSTORE PUSH1 0x4 ADD PUSH2 0x355 SWAP1 PUSH2 0x2ED6 JUMP JUMPDEST PUSH1 0x40 MLOAD DUP1 SWAP2 SUB SWAP1 REVERT JUMPDEST ADDRESS PUSH20 0xFFFFFFFFFFFFFFFFFFFFFFFFFFFFFFFFFFFFFFFF AND DUP5 PUSH20 0xFFFFFFFFFFFFFFFFFFFFFFFFFFFFFFFFFFFFFFFF AND EQ PUSH2 0x3CC JUMPI PUSH1 0x40 MLOAD PUSH32 0x8C379A000000000000000000000000000000000000000000000000000000000 DUP2 MSTORE PUSH1 0x4 ADD PUSH2 0x3C3 SWAP1 PUSH2 0x2F3E JUMP JUMPDEST PUSH1 0x40 MLOAD DUP1 SWAP2 SUB SWAP1 REVERT JUMPDEST PUSH0 DUP1 DUP5 GT PUSH2 0x3DA JUMPI DUP3 PUSH2 0x3DC JUMP JUMPDEST DUP4 JUMPDEST SWAP1 POP PUSH0 DUP3 DUP1 PUSH1 0x20 ADD SWAP1 MLOAD DUP2 ADD SWAP1 PUSH2 0x3F3 SWAP2 SWAP1 PUSH2 0x3063 JUMP JUMPDEST SWAP1 POP PUSH2 0x428 DUP2 PUSH1 0x20 ADD MLOAD DUP4 DUP4 PUSH1 0x60 ADD MLOAD PUSH20 0xFFFFFFFFFFFFFFFFFFFFFFFFFFFFFFFFFFFFFFFF AND PUSH2 0x125D SWAP1 SWAP3 SWAP2 SWAP1 PUSH4 0xFFFFFFFF AND JUMP JUMPDEST PUSH0 DUP1 DUP3 PUSH1 0x40 ADD MLOAD PUSH2 0x43E JUMPI PUSH0 DUP4 PUSH1 0xC0 ADD MLOAD PUSH2 0x445 JUMP JUMPDEST DUP3 PUSH1 0xC0 ADD MLOAD PUSH0 JUMPDEST SWAP2 POP SWAP2 POP DUP3 PUSH1 0x20 ADD MLOAD PUSH20 0xFFFFFFFFFFFFFFFFFFFFFFFFFFFFFFFFFFFFFFFF AND PUSH4 0x22C0D9F DUP4 DUP4 ADDRESS PUSH0 PUSH8 0xFFFFFFFFFFFFFFFF DUP2 GT ISZERO PUSH2 0x486 JUMPI PUSH2 0x485 PUSH2 0x2A4C JUMP JUMPDEST JUMPDEST PUSH1 0x40 MLOAD SWAP1 DUP1 DUP3 MSTORE DUP1 PUSH1 0x1F ADD PUSH1 0x1F NOT AND PUSH1 0x20 ADD DUP3 ADD PUSH1 0x40 MSTORE DUP1 ISZERO PUSH2 0x4B8 JUMPI DUP2 PUSH1 0x20 ADD PUSH1 0x1 DUP3 MUL DUP1 CALLDATASIZE DUP4 CALLDATACOPY DUP1 DUP3 ADD SWAP2 POP POP SWAP1 POP JUMPDEST POP PUSH1 0x40 MLOAD DUP6 PUSH4 0xFFFFFFFF AND PUSH1 0xE0 SHL DUP2 MSTORE PUSH1 0x4 ADD PUSH2 0x4D8 SWAP5 SWAP4 SWAP3 SWAP2 SWAP1 PUSH2 0x3108 JUMP JUMPDEST PUSH0 PUSH1 0x40 MLOAD DUP1 DUP4 SUB DUP2 PUSH0 DUP8 DUP1 EXTCODESIZE ISZERO DUP1 ISZERO PUSH2 0x4EF JUMPI PUSH0 DUP1 REVERT JUMPDEST POP GAS CALL ISZERO DUP1 ISZERO PUSH2 0x501 JUMPI RETURNDATASIZE PUSH0 DUP1 RETURNDATACOPY RETURNDATASIZE PUSH0 REVERT JUMPDEST POP POP POP POP PUSH2 0x53B DUP4 PUSH0 ADD MLOAD DUP5 PUSH1 0xA0 ADD MLOAD DUP6 PUSH1 0x80 ADD MLOAD PUSH20 0xFFFFFFFFFFFFFFFFFFFFFFFFFFFFFFFFFFFFFFFF AND PUSH2 0x125D SWAP1 SWAP3 SWAP2 SWAP1 PUSH4 0xFFFFFFFF AND JUMP JUMPDEST POP POP POP POP POP POP POP POP JUMP JUMPDEST PUSH0 PUSH2 0x55A DUP3 PUSH1 0x2 PUSH2 0x12DC SWAP1 SWAP2 SWAP1 PUSH4 0xFFFFFFFF AND JUMP JUMPDEST SWAP1 POP SWAP2 SWAP1 POP JUMP JUMPDEST PUSH0 SELFBALANCE SWAP1 POP PUSH0 DUP2 GT ISZERO PUSH2 0x604 JUMPI PUSH2 0x575 PUSH2 0x92C JUMP JUMPDEST PUSH20 0xFFFFFFFFFFFFFFFFFFFFFFFFFFFFFFFFFFFFFFFF AND PUSH2 0x8FC DUP3 SWAP1 DUP2 ISZERO MUL SWAP1 PUSH1 0x40 MLOAD PUSH0 PUSH1 0x40 MLOAD DUP1 DUP4 SUB DUP2 DUP6 DUP9 DUP9 CALL SWAP4 POP POP POP POP ISZERO DUP1 ISZERO PUSH2 0x5B7 JUMPI RETURNDATASIZE PUSH0 DUP1 RETURNDATACOPY RETURNDATASIZE PUSH0 REVERT JUMPDEST POP DUP1 PUSH2 0x5C1 PUSH2 0x92C JUMP JUMPDEST PUSH20 0xFFFFFFFFFFFFFFFFFFFFFFFFFFFFFFFFFFFFFFFF AND PUSH32 0x7084F5476618D8E60B11EF0D7D3F06914655ADB8793E28FF7F018D4C76D505D5 PUSH1 0x40 MLOAD PUSH1 0x40 MLOAD DUP1 SWAP2 SUB SWAP1 LOG3 JUMPDEST PUSH0 JUMPDEST PUSH2 0x610 PUSH1 0x2 PUSH2 0x1309 JUMP JUMPDEST DUP2 LT ISZERO PUSH2 0x748 JUMPI PUSH0 PUSH2 0x62C DUP3 PUSH1 0x2 PUSH2 0x131C SWAP1 SWAP2 SWAP1 PUSH4 0xFFFFFFFF AND JUMP JUMPDEST SWAP1 POP DUP1 PUSH20 0xFFFFFFFFFFFFFFFFFFFFFFFFFFFFFFFFFFFFFFFF AND PUSH4 0x70A08231 ADDRESS PUSH1 0x40 MLOAD DUP3 PUSH4 0xFFFFFFFF AND PUSH1 0xE0 SHL DUP2 MSTORE PUSH1 0x4 ADD PUSH2 0x667 SWAP2 SWAP1 PUSH2 0x2D8C JUMP JUMPDEST PUSH1 0x20 PUSH1 0x40 MLOAD DUP1 DUP4 SUB DUP2 DUP7 GAS STATICCALL ISZERO DUP1 ISZERO PUSH2 0x682 JUMPI RETURNDATASIZE PUSH0 DUP1 RETURNDATACOPY RETURNDATASIZE PUSH0 REVERT JUMPDEST POP POP POP POP PUSH1 0x40 MLOAD RETURNDATASIZE PUSH1 0x1F NOT PUSH1 0x1F DUP3 ADD AND DUP3 ADD DUP1 PUSH1 0x40 MSTORE POP DUP2 ADD SWAP1 PUSH2 0x6A6 SWAP2 SWAP1 PUSH2 0x3152 JUMP JUMPDEST SWAP3 POP PUSH0 DUP4 GT ISZERO PUSH2 0x734 JUMPI DUP1 PUSH20 0xFFFFFFFFFFFFFFFFFFFFFFFFFFFFFFFFFFFFFFFF AND PUSH4 0xA9059CBB PUSH2 0x6D4 PUSH2 0x92C JUMP JUMPDEST DUP6 PUSH1 0x40 MLOAD DUP4 PUSH4 0xFFFFFFFF AND PUSH1 0xE0 SHL DUP2 MSTORE PUSH1 0x4 ADD PUSH2 0x6F2 SWAP3 SWAP2 SWAP1 PUSH2 0x317D JUMP JUMPDEST PUSH1 0x20 PUSH1 0x40 MLOAD DUP1 DUP4 SUB DUP2 PUSH0 DUP8 GAS CALL ISZERO DUP1 ISZERO PUSH2 0x70E JUMPI RETURNDATASIZE PUSH0 DUP1 RETURNDATACOPY RETURNDATASIZE PUSH0 REVERT JUMPDEST POP POP POP POP PUSH1 0x40 MLOAD RETURNDATASIZE PUSH1 0x1F NOT PUSH1 0x1F DUP3 ADD AND DUP3 ADD DUP1 PUSH1 0x40 MSTORE POP DUP2 ADD SWAP1 PUSH2 0x732 SWAP2 SWAP1 PUSH2 0x31A4 JUMP JUMPDEST POP JUMPDEST POP DUP1 DUP1 PUSH2 0x740 SWAP1 PUSH2 0x31FC JUMP JUMPDEST SWAP2 POP POP PUSH2 0x606 JUMP JUMPDEST POP POP JUMP JUMPDEST PUSH2 0x754 PUSH2 0x1333 JUMP JUMPDEST PUSH2 0x75D PUSH0 PUSH2 0x13BA JUMP JUMPDEST JUMP JUMPDEST PUSH0 DUP1 PUSH0 PUSH2 0x76C DUP6 DUP6 PUSH2 0x147B JUMP JUMPDEST POP POP SWAP1 POP DUP1 PUSH2 0x7E7 JUMPI DUP5 PUSH20 0xFFFFFFFFFFFFFFFFFFFFFFFFFFFFFFFFFFFFFFFF AND PUSH4 0xD21220A7 PUSH1 0x40 MLOAD DUP2 PUSH4 0xFFFFFFFF AND PUSH1 0xE0 SHL DUP2 MSTORE PUSH1 0x4 ADD PUSH1 0x20 PUSH1 0x40 MLOAD DUP1 DUP4 SUB DUP2 DUP7 GAS STATICCALL ISZERO DUP1 ISZERO PUSH2 0x7BE JUMPI RETURNDATASIZE PUSH0 DUP1 RETURNDATACOPY RETURNDATASIZE PUSH0 REVERT JUMPDEST POP POP POP POP PUSH1 0x40 MLOAD RETURNDATASIZE PUSH1 0x1F NOT PUSH1 0x1F DUP3 ADD AND DUP3 ADD DUP1 PUSH1 0x40 MSTORE POP DUP2 ADD SWAP1 PUSH2 0x7E2 SWAP2 SWAP1 PUSH2 0x3243 JUMP JUMPDEST PUSH2 0x855 JUMP JUMPDEST DUP5 PUSH20 0xFFFFFFFFFFFFFFFFFFFFFFFFFFFFFFFFFFFFFFFF AND PUSH4 0xDFE1681 PUSH1 0x40 MLOAD DUP2 PUSH4 0xFFFFFFFF AND PUSH1 0xE0 SHL DUP2 MSTORE PUSH1 0x4 ADD PUSH1 0x20 PUSH1 0x40 MLOAD DUP1 DUP4 SUB DUP2 DUP7 GAS STATICCALL ISZERO DUP1 ISZERO PUSH2 0x830 JUMPI RETURNDATASIZE PUSH0 DUP1 RETURNDATACOPY RETURNDATASIZE PUSH0 REVERT JUMPDEST POP POP POP POP PUSH1 0x40 MLOAD RETURNDATASIZE PUSH1 0x1F NOT PUSH1 0x1F DUP3 ADD AND DUP3 ADD DUP1 PUSH1 0x40 MSTORE POP DUP2 ADD SWAP1 PUSH2 0x854 SWAP2 SWAP1 PUSH2 0x3243 JUMP JUMPDEST JUMPDEST SWAP2 POP PUSH0 PUSH2 0x863 DUP7 DUP7 DUP5 PUSH2 0x187F JUMP JUMPDEST SWAP3 POP POP POP PUSH0 PUSH2 0x871 DUP3 PUSH2 0x1B59 JUMP JUMPDEST SWAP1 POP PUSH0 PUSH2 0x886 DUP3 DUP5 PUSH0 ADD MLOAD DUP6 PUSH1 0x20 ADD MLOAD PUSH2 0x1EB0 JUMP JUMPDEST SWAP1 POP PUSH0 PUSH2 0x89C DUP4 DUP6 PUSH1 0x60 ADD MLOAD DUP7 PUSH1 0x40 ADD MLOAD PUSH2 0x1F9B JUMP JUMPDEST SWAP1 POP DUP2 DUP2 LT ISZERO PUSH2 0x8AE JUMPI PUSH0 SWAP7 POP PUSH2 0x8BD JUMP JUMPDEST DUP2 DUP2 PUSH2 0x8BA SWAP2 SWAP1 PUSH2 0x326E JUMP JUMPDEST SWAP7 POP JUMPDEST POP POP POP POP POP SWAP3 POP SWAP3 SWAP1 POP JUMP JUMPDEST PUSH2 0x8D1 PUSH2 0x1333 JUMP JUMPDEST PUSH2 0x8E5 DUP2 PUSH1 0x2 PUSH2 0x207F SWAP1 SWAP2 SWAP1 PUSH4 0xFFFFFFFF AND JUMP JUMPDEST POP DUP1 PUSH20 0xFFFFFFFFFFFFFFFFFFFFFFFFFFFFFFFFFFFFFFFF AND PUSH32 0xFA1388D6E7328E9C711A539B0ADDFC27DE8BFB6F5924CCE26F80F41023B15253 PUSH1 0x40 MLOAD PUSH1 0x40 MLOAD DUP1 SWAP2 SUB SWAP1 LOG2 POP JUMP JUMPDEST PUSH0 DUP1 PUSH0 SWAP1 SLOAD SWAP1 PUSH2 0x100 EXP SWAP1 DIV PUSH20 0xFFFFFFFFFFFFFFFFFFFFFFFFFFFFFFFFFFFFFFFF AND SWAP1 POP SWAP1 JUMP JUMPDEST PUSH2 0x95B PUSH2 0x2800 JUMP JUMPDEST PUSH2 0x965 DUP4 DUP4 PUSH2 0x147B JUMP JUMPDEST DUP4 PUSH1 0x40 ADD DUP5 PUSH0 ADD DUP6 PUSH1 0x20 ADD DUP4 PUSH20 0xFFFFFFFFFFFFFFFFFFFFFFFFFFFFFFFFFFFFFFFF AND PUSH20 0xFFFFFFFFFFFFFFFFFFFFFFFFFFFFFFFFFFFFFFFF AND DUP2 MSTORE POP DUP4 PUSH20 0xFFFFFFFFFFFFFFFFFFFFFFFFFFFFFFFFFFFFFFFF AND PUSH20 0xFFFFFFFFFFFFFFFFFFFFFFFFFFFFFFFFFFFFFFFF AND DUP2 MSTORE POP DUP4 ISZERO ISZERO ISZERO ISZERO DUP2 MSTORE POP POP POP POP PUSH2 0x9E3 PUSH2 0x2884 JUMP JUMPDEST PUSH2 0x9F2 DUP5 DUP5 DUP5 PUSH1 0x40 ADD MLOAD PUSH2 0x187F JUMP JUMPDEST DUP5 PUSH1 0x60 ADD DUP6 PUSH1 0x80 ADD DUP3 SWAP6 POP DUP4 PUSH20 0xFFFFFFFFFFFFFFFFFFFFFFFFFFFFFFFFFFFFFFFF AND PUSH20 0xFFFFFFFFFFFFFFFFFFFFFFFFFFFFFFFFFFFFFFFF AND DUP2 MSTORE POP DUP4 PUSH20 0xFFFFFFFFFFFFFFFFFFFFFFFFFFFFFFFFFFFFFFFF AND PUSH20 0xFFFFFFFFFFFFFFFFFFFFFFFFFFFFFFFFFFFFFFFF AND DUP2 MSTORE POP POP POP POP DUP2 PUSH1 0x60 ADD MLOAD PUSH1 0x1 PUSH0 PUSH2 0x100 EXP DUP2 SLOAD DUP2 PUSH20 0xFFFFFFFFFFFFFFFFFFFFFFFFFFFFFFFFFFFFFFFF MUL NOT AND SWAP1 DUP4 PUSH20 0xFFFFFFFFFFFFFFFFFFFFFFFFFFFFFFFFFFFFFFFF AND MUL OR SWAP1 SSTORE POP PUSH0 DUP3 PUSH0 ADD MLOAD PUSH20 0xFFFFFFFFFFFFFFFFFFFFFFFFFFFFFFFFFFFFFFFF AND PUSH4 0x70A08231 ADDRESS PUSH1 0x40 MLOAD DUP3 PUSH4 0xFFFFFFFF AND PUSH1 0xE0 SHL DUP2 MSTORE PUSH1 0x4 ADD PUSH2 0xAE1 SWAP2 SWAP1 PUSH2 0x2D8C JUMP JUMPDEST PUSH1 0x20 PUSH1 0x40 MLOAD DUP1 DUP4 SUB DUP2 DUP7 GAS STATICCALL ISZERO DUP1 ISZERO PUSH2 0xAFC JUMPI RETURNDATASIZE PUSH0 DUP1 RETURNDATACOPY RETURNDATASIZE PUSH0 REVERT JUMPDEST POP POP POP POP PUSH1 0x40 MLOAD RETURNDATASIZE PUSH1 0x1F NOT PUSH1 0x1F DUP3 ADD AND DUP3 ADD DUP1 PUSH1 0x40 MSTORE POP DUP2 ADD SWAP1 PUSH2 0xB20 SWAP2 SWAP1 PUSH2 0x3152 JUMP JUMPDEST SWAP1 POP PUSH0 PUSH2 0xB2C DUP4 PUSH2 0x1B59 JUMP JUMPDEST SWAP1 POP PUSH0 DUP1 DUP6 PUSH1 0x40 ADD MLOAD PUSH2 0xB40 JUMPI DUP3 PUSH0 PUSH2 0xB43 JUMP JUMPDEST PUSH0 DUP4 JUMPDEST SWAP2 POP SWAP2 POP PUSH0 PUSH2 0xB5A DUP5 DUP8 PUSH0 ADD MLOAD DUP9 PUSH1 0x20 ADD MLOAD PUSH2 0x1EB0 JUMP JUMPDEST SWAP1 POP PUSH0 PUSH2 0xB70 DUP6 DUP9 PUSH1 0x60 ADD MLOAD DUP10 PUSH1 0x40 ADD MLOAD PUSH2 0x1F9B JUMP JUMPDEST SWAP1 POP DUP2 DUP2 GT PUSH2 0xBB4 JUMPI PUSH1 0x40 MLOAD PUSH32 0x8C379A000000000000000000000000000000000000000000000000000000000 DUP2 MSTORE PUSH1 0x4 ADD PUSH2 0xBAB SWAP1 PUSH2 0x32EB JUMP JUMPDEST PUSH1 0x40 MLOAD DUP1 SWAP2 SUB SWAP1 REVERT JUMPDEST PUSH2 0xC11 PUSH1 0x40 MLOAD DUP1 PUSH1 0x40 ADD PUSH1 0x40 MSTORE DUP1 PUSH1 0x7 DUP2 MSTORE PUSH1 0x20 ADD PUSH32 0x50726F6669743A00000000000000000000000000000000000000000000000000 DUP2 MSTORE POP PUSH8 0xDE0B6B3A7640000 DUP5 DUP5 PUSH2 0xC02 SWAP2 SWAP1 PUSH2 0x326E JUMP JUMPDEST PUSH2 0xC0C SWAP2 SWAP1 PUSH2 0x3336 JUMP JUMPDEST PUSH2 0x20AC JUMP JUMPDEST PUSH2 0xC19 PUSH2 0x28A8 JUMP JUMPDEST DUP9 PUSH1 0x60 ADD MLOAD DUP2 PUSH0 ADD SWAP1 PUSH20 0xFFFFFFFFFFFFFFFFFFFFFFFFFFFFFFFFFFFFFFFF AND SWAP1 DUP2 PUSH20 0xFFFFFFFFFFFFFFFFFFFFFFFFFFFFFFFFFFFFFFFF AND DUP2 MSTORE POP POP DUP9 PUSH1 0x80 ADD MLOAD DUP2 PUSH1 0x20 ADD SWAP1 PUSH20 0xFFFFFFFFFFFFFFFFFFFFFFFFFFFFFFFFFFFFFFFF AND SWAP1 DUP2 PUSH20 0xFFFFFFFFFFFFFFFFFFFFFFFFFFFFFFFFFFFFFFFF AND DUP2 MSTORE POP POP DUP9 PUSH1 0x40 ADD MLOAD DUP2 PUSH1 0x40 ADD SWAP1 ISZERO ISZERO SWAP1 DUP2 ISZERO ISZERO DUP2 MSTORE POP POP DUP9 PUSH1 0x20 ADD MLOAD DUP2 PUSH1 0x60 ADD SWAP1 PUSH20 0xFFFFFFFFFFFFFFFFFFFFFFFFFFFFFFFFFFFFFFFF AND SWAP1 DUP2 PUSH20 0xFFFFFFFFFFFFFFFFFFFFFFFFFFFFFFFFFFFFFFFF AND DUP2 MSTORE POP POP DUP9 PUSH0 ADD MLOAD DUP2 PUSH1 0x80 ADD SWAP1 PUSH20 0xFFFFFFFFFFFFFFFFFFFFFFFFFFFFFFFFFFFFFFFF AND SWAP1 DUP2 PUSH20 0xFFFFFFFFFFFFFFFFFFFFFFFFFFFFFFFFFFFFFFFF AND DUP2 MSTORE POP POP DUP3 DUP2 PUSH1 0xA0 ADD DUP2 DUP2 MSTORE POP POP DUP2 DUP2 PUSH1 0xC0 ADD DUP2 DUP2 MSTORE POP POP PUSH0 DUP2 PUSH1 0x40 MLOAD PUSH1 0x20 ADD PUSH2 0xD41 SWAP2 SWAP1 PUSH2 0x3410 JUMP JUMPDEST PUSH1 0x40 MLOAD PUSH1 0x20 DUP2 DUP4 SUB SUB DUP2 MSTORE SWAP1 PUSH1 0x40 MSTORE SWAP1 POP DUP10 PUSH1 0x60 ADD MLOAD PUSH20 0xFFFFFFFFFFFFFFFFFFFFFFFFFFFFFFFFFFFFFFFF AND PUSH4 0x22C0D9F DUP8 DUP8 ADDRESS DUP6 PUSH1 0x40 MLOAD DUP6 PUSH4 0xFFFFFFFF AND PUSH1 0xE0 SHL DUP2 MSTORE PUSH1 0x4 ADD PUSH2 0xD95 SWAP5 SWAP4 SWAP3 SWAP2 SWAP1 PUSH2 0x3108 JUMP JUMPDEST PUSH0 PUSH1 0x40 MLOAD DUP1 DUP4 SUB DUP2 PUSH0 DUP8 DUP1 EXTCODESIZE ISZERO DUP1 ISZERO PUSH2 0xDAC JUMPI PUSH0 DUP1 REVERT JUMPDEST POP GAS CALL ISZERO DUP1 ISZERO PUSH2 0xDBE JUMPI RETURNDATASIZE PUSH0 DUP1 RETURNDATACOPY RETURNDATASIZE PUSH0 REVERT JUMPDEST POP POP POP POP POP POP POP POP POP POP POP PUSH0 DUP4 PUSH0 ADD MLOAD PUSH20 0xFFFFFFFFFFFFFFFFFFFFFFFFFFFFFFFFFFFFFFFF AND PUSH4 0x70A08231 ADDRESS PUSH1 0x40 MLOAD DUP3 PUSH4 0xFFFFFFFF AND PUSH1 0xE0 SHL DUP2 MSTORE PUSH1 0x4 ADD PUSH2 0xE06 SWAP2 SWAP1 PUSH2 0x2D8C JUMP JUMPDEST PUSH1 0x20 PUSH1 0x40 MLOAD DUP1 DUP4 SUB DUP2 DUP7 GAS STATICCALL ISZERO DUP1 ISZERO PUSH2 0xE21 JUMPI RETURNDATASIZE PUSH0 DUP1 RETURNDATACOPY RETURNDATASIZE PUSH0 REVERT JUMPDEST POP POP POP POP PUSH1 0x40 MLOAD RETURNDATASIZE PUSH1 0x1F NOT PUSH1 0x1F DUP3 ADD AND DUP3 ADD DUP1 PUSH1 0x40 MSTORE POP DUP2 ADD SWAP1 PUSH2 0xE45 SWAP2 SWAP1 PUSH2 0x3152 JUMP JUMPDEST SWAP1 POP DUP2 DUP2 GT PUSH2 0xE89 JUMPI PUSH1 0x40 MLOAD PUSH32 0x8C379A000000000000000000000000000000000000000000000000000000000 DUP2 MSTORE PUSH1 0x4 ADD PUSH2 0xE80 SWAP1 PUSH2 0x3473 JUMP JUMPDEST PUSH1 0x40 MLOAD DUP1 SWAP2 SUB SWAP1 REVERT JUMPDEST PUSH32 0x0 PUSH20 0xFFFFFFFFFFFFFFFFFFFFFFFFFFFFFFFFFFFFFFFF AND DUP5 PUSH0 ADD MLOAD PUSH20 0xFFFFFFFFFFFFFFFFFFFFFFFFFFFFFFFFFFFFFFFF AND SUB PUSH2 0xF49 JUMPI DUP4 PUSH0 ADD MLOAD PUSH20 0xFFFFFFFFFFFFFFFFFFFFFFFFFFFFFFFFFFFFFFFF AND PUSH4 0x2E1A7D4D DUP3 PUSH1 0x40 MLOAD DUP3 PUSH4 0xFFFFFFFF AND PUSH1 0xE0 SHL DUP2 MSTORE PUSH1 0x4 ADD PUSH2 0xF1B SWAP2 SWAP1 PUSH2 0x3491 JUMP JUMPDEST PUSH0 PUSH1 0x40 MLOAD DUP1 DUP4 SUB DUP2 PUSH0 DUP8 DUP1 EXTCODESIZE ISZERO DUP1 ISZERO PUSH2 0xF32 JUMPI PUSH0 DUP1 REVERT JUMPDEST POP GAS CALL ISZERO DUP1 ISZERO PUSH2 0xF44 JUMPI RETURNDATASIZE PUSH0 DUP1 RETURNDATACOPY RETURNDATASIZE PUSH0 REVERT JUMPDEST POP POP POP POP JUMPDEST PUSH1 0x1 DUP1 PUSH0 PUSH2 0x100 EXP DUP2 SLOAD DUP2 PUSH20 0xFFFFFFFFFFFFFFFFFFFFFFFFFFFFFFFFFFFFFFFF MUL NOT AND SWAP1 DUP4 PUSH20 0xFFFFFFFFFFFFFFFFFFFFFFFFFFFFFFFFFFFFFFFF AND MUL OR SWAP1 SSTORE POP POP POP POP POP POP POP JUMP JUMPDEST PUSH2 0xF99 PUSH2 0x1333 JUMP JUMPDEST PUSH0 DUP2 PUSH20 0xFFFFFFFFFFFFFFFFFFFFFFFFFFFFFFFFFFFFFFFF AND PUSH4 0x70A08231 ADDRESS PUSH1 0x40 MLOAD DUP3 PUSH4 0xFFFFFFFF AND PUSH1 0xE0 SHL DUP2 MSTORE PUSH1 0x4 ADD PUSH2 0xFD3 SWAP2 SWAP1 PUSH2 0x2D8C JUMP JUMPDEST PUSH1 0x20 PUSH1 0x40 MLOAD DUP1 DUP4 SUB DUP2 DUP7 GAS STATICCALL ISZERO DUP1 ISZERO PUSH2 0xFEE JUMPI RETURNDATASIZE PUSH0 DUP1 RETURNDATACOPY RETURNDATASIZE PUSH0 REVERT JUMPDEST POP POP POP POP PUSH1 0x40 MLOAD RETURNDATASIZE PUSH1 0x1F NOT PUSH1 0x1F DUP3 ADD AND DUP3 ADD DUP1 PUSH1 0x40 MSTORE POP DUP2 ADD SWAP1 PUSH2 0x1012 SWAP2 SWAP1 PUSH2 0x3152 JUMP JUMPDEST SWAP1 POP PUSH0 DUP2 GT ISZERO PUSH2 0x10A0 JUMPI DUP2 PUSH20 0xFFFFFFFFFFFFFFFFFFFFFFFFFFFFFFFFFFFFFFFF AND PUSH4 0xA9059CBB PUSH2 0x1040 PUSH2 0x92C JUMP JUMPDEST DUP4 PUSH1 0x40 MLOAD DUP4 PUSH4 0xFFFFFFFF AND PUSH1 0xE0 SHL DUP2 MSTORE PUSH1 0x4 ADD PUSH2 0x105E SWAP3 SWAP2 SWAP1 PUSH2 0x317D JUMP JUMPDEST PUSH1 0x20 PUSH1 0x40 MLOAD DUP1 DUP4 SUB DUP2 PUSH0 DUP8 GAS CALL ISZERO DUP1 ISZERO PUSH2 0x107A JUMPI RETURNDATASIZE PUSH0 DUP1 RETURNDATACOPY RETURNDATASIZE PUSH0 REVERT JUMPDEST POP POP POP POP PUSH1 0x40 MLOAD RETURNDATASIZE PUSH1 0x1F NOT PUSH1 0x1F DUP3 ADD AND DUP3 ADD DUP1 PUSH1 0x40 MSTORE POP DUP2 ADD SWAP1 PUSH2 0x109E SWAP2 SWAP1 PUSH2 0x31A4 JUMP JUMPDEST POP JUMPDEST PUSH2 0x10B4 DUP3 PUSH1 0x2 PUSH2 0x2148 SWAP1 SWAP2 SWAP1 PUSH4 0xFFFFFFFF AND JUMP JUMPDEST POP DUP2 PUSH20 0xFFFFFFFFFFFFFFFFFFFFFFFFFFFFFFFFFFFFFFFF AND PUSH32 0xDC23A849435922F20A9732EB85192A9D0C1CB34725EBE6D7DE0BE10212BA02FB PUSH1 0x40 MLOAD PUSH1 0x40 MLOAD DUP1 SWAP2 SUB SWAP1 LOG2 POP POP JUMP JUMPDEST PUSH1 0x60 PUSH0 PUSH2 0x1109 PUSH1 0x2 PUSH2 0x1309 JUMP JUMPDEST SWAP1 POP DUP1 PUSH8 0xFFFFFFFFFFFFFFFF DUP2 GT ISZERO PUSH2 0x1125 JUMPI PUSH2 0x1124 PUSH2 0x2A4C JUMP JUMPDEST JUMPDEST PUSH1 0x40 MLOAD SWAP1 DUP1 DUP3 MSTORE DUP1 PUSH1 0x20 MUL PUSH1 0x20 ADD DUP3 ADD PUSH1 0x40 MSTORE DUP1 ISZERO PUSH2 0x1153 JUMPI DUP2 PUSH1 0x20 ADD PUSH1 0x20 DUP3 MUL DUP1 CALLDATASIZE DUP4 CALLDATACOPY DUP1 DUP3 ADD SWAP2 POP POP SWAP1 POP JUMPDEST POP SWAP2 POP PUSH0 JUMPDEST DUP2 DUP2 LT ISZERO PUSH2 0x11D4 JUMPI PUSH2 0x1174 DUP2 PUSH1 0x2 PUSH2 0x131C SWAP1 SWAP2 SWAP1 PUSH4 0xFFFFFFFF AND JUMP JUMPDEST DUP4 DUP3 DUP2 MLOAD DUP2 LT PUSH2 0x1187 JUMPI PUSH2 0x1186 PUSH2 0x34AA JUMP JUMPDEST JUMPDEST PUSH1 0x20 MUL PUSH1 0x20 ADD ADD SWAP1 PUSH20 0xFFFFFFFFFFFFFFFFFFFFFFFFFFFFFFFFFFFFFFFF AND SWAP1 DUP2 PUSH20 0xFFFFFFFFFFFFFFFFFFFFFFFFFFFFFFFFFFFFFFFF AND DUP2 MSTORE POP POP DUP1 DUP1 PUSH2 0x11CC SWAP1 PUSH2 0x31FC JUMP JUMPDEST SWAP2 POP POP PUSH2 0x1158 JUMP JUMPDEST POP POP SWAP1 JUMP JUMPDEST PUSH2 0x11E1 PUSH2 0x1333 JUMP JUMPDEST PUSH0 PUSH20 0xFFFFFFFFFFFFFFFFFFFFFFFFFFFFFFFFFFFFFFFF AND DUP2 PUSH20 0xFFFFFFFFFFFFFFFFFFFFFFFFFFFFFFFFFFFFFFFF AND SUB PUSH2 0x1251 JUMPI PUSH0 PUSH1 0x40 MLOAD PUSH32 0x1E4FBDF700000000000000000000000000000000000000000000000000000000 DUP2 MSTORE PUSH1 0x4 ADD PUSH2 0x1248 SWAP2 SWAP1 PUSH2 0x2D8C JUMP JUMPDEST PUSH1 0x40 MLOAD DUP1 SWAP2 SUB SWAP1 REVERT JUMPDEST PUSH2 0x125A DUP2 PUSH2 0x13BA JUMP JUMPDEST POP JUMP JUMPDEST PUSH2 0x12D7 DUP4 DUP5 PUSH20 0xFFFFFFFFFFFFFFFFFFFFFFFFFFFFFFFFFFFFFFFF AND PUSH4 0xA9059CBB DUP6 DUP6 PUSH1 0x40 MLOAD PUSH1 0x24 ADD PUSH2 0x1290 SWAP3 SWAP2 SWAP1 PUSH2 0x317D JUMP JUMPDEST PUSH1 0x40 MLOAD PUSH1 0x20 DUP2 DUP4 SUB SUB DUP2 MSTORE SWAP1 PUSH1 0x40 MSTORE SWAP2 POP PUSH1 0xE0 SHL PUSH1 0x20 DUP3 ADD DUP1 MLOAD PUSH28 0xFFFFFFFFFFFFFFFFFFFFFFFFFFFFFFFFFFFFFFFFFFFFFFFFFFFFFFFF DUP4 DUP2 DUP4 AND OR DUP4 MSTORE POP POP POP POP PUSH2 0x2175 JUMP JUMPDEST POP POP POP JUMP JUMPDEST PUSH0 PUSH2 0x1301 DUP4 PUSH0 ADD DUP4 PUSH20 0xFFFFFFFFFFFFFFFFFFFFFFFFFFFFFFFFFFFFFFFF AND PUSH0 SHL PUSH2 0x2210 JUMP JUMPDEST SWAP1 POP SWAP3 SWAP2 POP POP JUMP JUMPDEST PUSH0 PUSH2 0x1315 DUP3 PUSH0 ADD PUSH2 0x2230 JUMP JUMPDEST SWAP1 POP SWAP2 SWAP1 POP JUMP JUMPDEST PUSH0 PUSH2 0x1329 DUP4 PUSH0 ADD DUP4 PUSH2 0x223F JUMP JUMPDEST PUSH0 SHR SWAP1 POP SWAP3 SWAP2 POP POP JUMP JUMPDEST PUSH2 0x133B PUSH2 0x2266 JUMP JUMPDEST PUSH20 0xFFFFFFFFFFFFFFFFFFFFFFFFFFFFFFFFFFFFFFFF AND PUSH2 0x1359 PUSH2 0x92C JUMP JUMPDEST PUSH20 0xFFFFFFFFFFFFFFFFFFFFFFFFFFFFFFFFFFFFFFFF AND EQ PUSH2 0x13B8 JUMPI PUSH2 0x137C PUSH2 0x2266 JUMP JUMPDEST PUSH1 0x40 MLOAD PUSH32 0x118CDAA700000000000000000000000000000000000000000000000000000000 DUP2 MSTORE PUSH1 0x4 ADD PUSH2 0x13AF SWAP2 SWAP1 PUSH2 0x2D8C JUMP JUMPDEST PUSH1 0x40 MLOAD DUP1 SWAP2 SUB SWAP1 REVERT JUMPDEST JUMP JUMPDEST PUSH0 DUP1 PUSH0 SWAP1 SLOAD SWAP1 PUSH2 0x100 EXP SWAP1 DIV PUSH20 0xFFFFFFFFFFFFFFFFFFFFFFFFFFFFFFFFFFFFFFFF AND SWAP1 POP DUP2 PUSH0 DUP1 PUSH2 0x100 EXP DUP2 SLOAD DUP2 PUSH20 0xFFFFFFFFFFFFFFFFFFFFFFFFFFFFFFFFFFFFFFFF MUL NOT AND SWAP1 DUP4 PUSH20 0xFFFFFFFFFFFFFFFFFFFFFFFFFFFFFFFFFFFFFFFF AND MUL OR SWAP1 SSTORE POP DUP2 PUSH20 0xFFFFFFFFFFFFFFFFFFFFFFFFFFFFFFFFFFFFFFFF AND DUP2 PUSH20 0xFFFFFFFFFFFFFFFFFFFFFFFFFFFFFFFFFFFFFFFF AND PUSH32 0x8BE0079C531659141344CD1FD0A4F28419497F9722A3DAAFE3B4186F6B6457E0 PUSH1 0x40 MLOAD PUSH1 0x40 MLOAD DUP1 SWAP2 SUB SWAP1 LOG3 POP POP JUMP JUMPDEST PUSH0 DUP1 PUSH0 DUP4 PUSH20 0xFFFFFFFFFFFFFFFFFFFFFFFFFFFFFFFFFFFFFFFF AND DUP6 PUSH20 0xFFFFFFFFFFFFFFFFFFFFFFFFFFFFFFFFFFFFFFFF AND SUB PUSH2 0x14EC JUMPI PUSH1 0x40 MLOAD PUSH32 0x8C379A000000000000000000000000000000000000000000000000000000000 DUP2 MSTORE PUSH1 0x4 ADD PUSH2 0x14E3 SWAP1 PUSH2 0x3521 JUMP JUMPDEST PUSH1 0x40 MLOAD DUP1 SWAP2 SUB SWAP1 REVERT JUMPDEST PUSH0 DUP1 DUP7 PUSH20 0xFFFFFFFFFFFFFFFFFFFFFFFFFFFFFFFFFFFFFFFF AND PUSH4 0xDFE1681 PUSH1 0x40 MLOAD DUP2 PUSH4 0xFFFFFFFF AND PUSH1 0xE0 SHL DUP2 MSTORE PUSH1 0x4 ADD PUSH1 0x20 PUSH1 0x40 MLOAD DUP1 DUP4 SUB DUP2 DUP7 GAS STATICCALL ISZERO DUP1 ISZERO PUSH2 0x1537 JUMPI RETURNDATASIZE PUSH0 DUP1 RETURNDATACOPY RETURNDATASIZE PUSH0 REVERT JUMPDEST POP POP POP POP PUSH1 0x40 MLOAD RETURNDATASIZE PUSH1 0x1F NOT PUSH1 0x1F DUP3 ADD AND DUP3 ADD DUP1 PUSH1 0x40 MSTORE POP DUP2 ADD SWAP1 PUSH2 0x155B SWAP2 SWAP1 PUSH2 0x3243 JUMP JUMPDEST DUP8 PUSH20 0xFFFFFFFFFFFFFFFFFFFFFFFFFFFFFFFFFFFFFFFF AND PUSH4 0xD21220A7 PUSH1 0x40 MLOAD DUP2 PUSH4 0xFFFFFFFF AND PUSH1 0xE0 SHL DUP2 MSTORE PUSH1 0x4 ADD PUSH1 0x20 PUSH1 0x40 MLOAD DUP1 DUP4 SUB DUP2 DUP7 GAS STATICCALL ISZERO DUP1 ISZERO PUSH2 0x15A4 JUMPI RETURNDATASIZE PUSH0 DUP1 RETURNDATACOPY RETURNDATASIZE PUSH0 REVERT JUMPDEST POP POP POP POP PUSH1 0x40 MLOAD RETURNDATASIZE PUSH1 0x1F NOT PUSH1 0x1F DUP3 ADD AND DUP3 ADD DUP1 PUSH1 0x40 MSTORE POP DUP2 ADD SWAP1 PUSH2 0x15C8 SWAP2 SWAP1 PUSH2 0x3243 JUMP JUMPDEST SWAP2 POP SWAP2 POP PUSH0 DUP1 DUP8 PUSH20 0xFFFFFFFFFFFFFFFFFFFFFFFFFFFFFFFFFFFFFFFF AND PUSH4 0xDFE1681 PUSH1 0x40 MLOAD DUP2 PUSH4 0xFFFFFFFF AND PUSH1 0xE0 SHL DUP2 MSTORE PUSH1 0x4 ADD PUSH1 0x20 PUSH1 0x40 MLOAD DUP1 DUP4 SUB DUP2 DUP7 GAS STATICCALL ISZERO DUP1 ISZERO PUSH2 0x1617 JUMPI RETURNDATASIZE PUSH0 DUP1 RETURNDATACOPY RETURNDATASIZE PUSH0 REVERT JUMPDEST POP POP POP POP PUSH1 0x40 MLOAD RETURNDATASIZE PUSH1 0x1F NOT PUSH1 0x1F DUP3 ADD AND DUP3 ADD DUP1 PUSH1 0x40 MSTORE POP DUP2 ADD SWAP1 PUSH2 0x163B SWAP2 SWAP1 PUSH2 0x3243 JUMP JUMPDEST DUP9 PUSH20 0xFFFFFFFFFFFFFFFFFFFFFFFFFFFFFFFFFFFFFFFF AND PUSH4 0xD21220A7 PUSH1 0x40 MLOAD DUP2 PUSH4 0xFFFFFFFF AND PUSH1 0xE0 SHL DUP2 MSTORE PUSH1 0x4 ADD PUSH1 0x20 PUSH1 0x40 MLOAD DUP1 DUP4 SUB DUP2 DUP7 GAS STATICCALL ISZERO DUP1 ISZERO PUSH2 0x1684 JUMPI RETURNDATASIZE PUSH0 DUP1 RETURNDATACOPY RETURNDATASIZE PUSH0 REVERT JUMPDEST POP POP POP POP PUSH1 0x40 MLOAD RETURNDATASIZE PUSH1 0x1F NOT PUSH1 0x1F DUP3 ADD AND DUP3 ADD DUP1 PUSH1 0x40 MSTORE POP DUP2 ADD SWAP1 PUSH2 0x16A8 SWAP2 SWAP1 PUSH2 0x3243 JUMP JUMPDEST SWAP2 POP SWAP2 POP DUP3 PUSH20 0xFFFFFFFFFFFFFFFFFFFFFFFFFFFFFFFFFFFFFFFF AND DUP5 PUSH20 0xFFFFFFFFFFFFFFFFFFFFFFFFFFFFFFFFFFFFFFFF AND LT DUP1 ISZERO PUSH2 0x1712 JUMPI POP DUP1 PUSH20 0xFFFFFFFFFFFFFFFFFFFFFFFFFFFFFFFFFFFFFFFF AND DUP3 PUSH20 0xFFFFFFFFFFFFFFFFFFFFFFFFFFFFFFFFFFFFFFFF AND LT JUMPDEST PUSH2 0x1751 JUMPI PUSH1 0x40 MLOAD PUSH32 0x8C379A000000000000000000000000000000000000000000000000000000000 DUP2 MSTORE PUSH1 0x4 ADD PUSH2 0x1748 SWAP1 PUSH2 0x3589 JUMP JUMPDEST PUSH1 0x40 MLOAD DUP1 SWAP2 SUB SWAP1 REVERT JUMPDEST DUP2 PUSH20 0xFFFFFFFFFFFFFFFFFFFFFFFFFFFFFFFFFFFFFFFF AND DUP5 PUSH20 0xFFFFFFFFFFFFFFFFFFFFFFFFFFFFFFFFFFFFFFFF AND EQ DUP1 ISZERO PUSH2 0x17B7 JUMPI POP DUP1 PUSH20 0xFFFFFFFFFFFFFFFFFFFFFFFFFFFFFFFFFFFFFFFF AND DUP4 PUSH20 0xFFFFFFFFFFFFFFFFFFFFFFFFFFFFFFFFFFFFFFFF AND EQ JUMPDEST PUSH2 0x17F6 JUMPI PUSH1 0x40 MLOAD PUSH32 0x8C379A000000000000000000000000000000000000000000000000000000000 DUP2 MSTORE PUSH1 0x4 ADD PUSH2 0x17ED SWAP1 PUSH2 0x35F1 JUMP JUMPDEST PUSH1 0x40 MLOAD DUP1 SWAP2 SUB SWAP1 REVERT JUMPDEST PUSH2 0x17FF DUP5 PUSH2 0x545 JUMP JUMPDEST DUP1 PUSH2 0x180F JUMPI POP PUSH2 0x180E DUP4 PUSH2 0x545 JUMP JUMPDEST JUMPDEST PUSH2 0x184E JUMPI PUSH1 0x40 MLOAD PUSH32 0x8C379A000000000000000000000000000000000000000000000000000000000 DUP2 MSTORE PUSH1 0x4 ADD PUSH2 0x1845 SWAP1 PUSH2 0x3659 JUMP JUMPDEST PUSH1 0x40 MLOAD DUP1 SWAP2 SUB SWAP1 REVERT JUMPDEST PUSH2 0x1857 DUP5 PUSH2 0x545 JUMP JUMPDEST PUSH2 0x1863 JUMPI PUSH0 DUP4 DUP6 PUSH2 0x1868 JUMP JUMPDEST PUSH1 0x1 DUP5 DUP5 JUMPDEST DUP1 SWAP8 POP DUP2 SWAP9 POP DUP3 SWAP10 POP POP POP POP POP POP POP POP SWAP3 POP SWAP3 POP SWAP3 JUMP JUMPDEST PUSH0 DUP1 PUSH2 0x1889 PUSH2 0x2884 JUMP JUMPDEST PUSH0 DUP1 DUP8 PUSH20 0xFFFFFFFFFFFFFFFFFFFFFFFFFFFFFFFFFFFFFFFF AND PUSH4 0x902F1AC PUSH1 0x40 MLOAD DUP2 PUSH4 0xFFFFFFFF AND PUSH1 0xE0 SHL DUP2 MSTORE PUSH1 0x4 ADD PUSH1 0x60 PUSH1 0x40 MLOAD DUP1 DUP4 SUB DUP2 DUP7 GAS STATICCALL ISZERO DUP1 ISZERO PUSH2 0x18D4 JUMPI RETURNDATASIZE PUSH0 DUP1 RETURNDATACOPY RETURNDATASIZE PUSH0 REVERT JUMPDEST POP POP POP POP PUSH1 0x40 MLOAD RETURNDATASIZE PUSH1 0x1F NOT PUSH1 0x1F DUP3 ADD AND DUP3 ADD DUP1 PUSH1 0x40 MSTORE POP DUP2 ADD SWAP1 PUSH2 0x18F8 SWAP2 SWAP1 PUSH2 0x36F3 JUMP JUMPDEST POP PUSH14 0xFFFFFFFFFFFFFFFFFFFFFFFFFFFF AND SWAP2 POP PUSH14 0xFFFFFFFFFFFFFFFFFFFFFFFFFFFF AND SWAP2 POP PUSH0 DUP1 DUP9 PUSH20 0xFFFFFFFFFFFFFFFFFFFFFFFFFFFFFFFFFFFFFFFF AND PUSH4 0x902F1AC PUSH1 0x40 MLOAD DUP2 PUSH4 0xFFFFFFFF AND PUSH1 0xE0 SHL DUP2 MSTORE PUSH1 0x4 ADD PUSH1 0x60 PUSH1 0x40 MLOAD DUP1 DUP4 SUB DUP2 DUP7 GAS STATICCALL ISZERO DUP1 ISZERO PUSH2 0x1968 JUMPI RETURNDATASIZE PUSH0 DUP1 RETURNDATACOPY RETURNDATASIZE PUSH0 REVERT JUMPDEST POP POP POP POP PUSH1 0x40 MLOAD RETURNDATASIZE PUSH1 0x1F NOT PUSH1 0x1F DUP3 ADD AND DUP3 ADD DUP1 PUSH1 0x40 MSTORE POP DUP2 ADD SWAP1 PUSH2 0x198C SWAP2 SWAP1 PUSH2 0x36F3 JUMP JUMPDEST POP PUSH14 0xFFFFFFFFFFFFFFFFFFFFFFFFFFFF AND SWAP2 POP PUSH14 0xFFFFFFFFFFFFFFFFFFFFFFFFFFFF AND SWAP2 POP PUSH0 DUP1 DUP10 PUSH2 0x19F3 JUMPI PUSH2 0x19D3 DUP7 PUSH2 0x19C5 DUP8 PUSH2 0x226D JUMP JUMPDEST PUSH2 0x22A5 SWAP1 SWAP2 SWAP1 PUSH4 0xFFFFFFFF AND JUMP JUMPDEST PUSH2 0x19EE DUP6 PUSH2 0x19E0 DUP7 PUSH2 0x226D JUMP JUMPDEST PUSH2 0x22A5 SWAP1 SWAP2 SWAP1 PUSH4 0xFFFFFFFF AND JUMP JUMPDEST PUSH2 0x1A2A JUMP JUMPDEST PUSH2 0x1A0E DUP6 PUSH2 0x1A00 DUP9 PUSH2 0x226D JUMP JUMPDEST PUSH2 0x22A5 SWAP1 SWAP2 SWAP1 PUSH4 0xFFFFFFFF AND JUMP JUMPDEST PUSH2 0x1A29 DUP5 PUSH2 0x1A1B DUP8 PUSH2 0x226D JUMP JUMPDEST PUSH2 0x22A5 SWAP1 SWAP2 SWAP1 PUSH4 0xFFFFFFFF AND JUMP JUMPDEST JUMPDEST SWAP2 POP SWAP2 POP PUSH2 0x1A41 DUP2 DUP4 PUSH2 0x22D9 SWAP1 SWAP2 SWAP1 PUSH4 0xFFFFFFFF AND JUMP JUMPDEST ISZERO PUSH2 0x1A8B JUMPI DUP12 DUP12 DUP1 SWAP10 POP DUP2 SWAP11 POP POP POP DUP10 PUSH2 0x1A5E JUMPI DUP5 DUP7 DUP5 DUP7 PUSH2 0x1A63 JUMP JUMPDEST DUP6 DUP6 DUP6 DUP6 JUMPDEST DUP11 PUSH0 ADD DUP12 PUSH1 0x20 ADD DUP13 PUSH1 0x40 ADD DUP14 PUSH1 0x60 ADD DUP5 DUP2 MSTORE POP DUP5 DUP2 MSTORE POP DUP5 DUP2 MSTORE POP DUP5 DUP2 MSTORE POP POP POP POP POP PUSH2 0x1ACC JUMP JUMPDEST DUP11 DUP13 DUP1 SWAP10 POP DUP2 SWAP11 POP POP POP DUP10 PUSH2 0x1AA3 JUMPI DUP3 DUP5 DUP7 DUP9 PUSH2 0x1AA8 JUMP JUMPDEST DUP4 DUP4 DUP8 DUP8 JUMPDEST DUP11 PUSH0 ADD DUP12 PUSH1 0x20 ADD DUP13 PUSH1 0x40 ADD DUP14 PUSH1 0x60 ADD DUP5 DUP2 MSTORE POP DUP5 DUP2 MSTORE POP DUP5 DUP2 MSTORE POP DUP5 DUP2 MSTORE POP POP POP POP POP JUMPDEST PUSH2 0x1B0B PUSH1 0x40 MLOAD DUP1 PUSH1 0x40 ADD PUSH1 0x40 MSTORE DUP1 PUSH1 0x11 DUP2 MSTORE PUSH1 0x20 ADD PUSH32 0x426F72726F772066726F6D20706F6F6C3A000000000000000000000000000000 DUP2 MSTORE POP DUP11 PUSH2 0x22EE JUMP JUMPDEST PUSH2 0x1B4A PUSH1 0x40 MLOAD DUP1 PUSH1 0x40 ADD PUSH1 0x40 MSTORE DUP1 PUSH1 0xD DUP2 MSTORE PUSH1 0x20 ADD PUSH32 0x53656C6C20746F20706F6F6C3A00000000000000000000000000000000000000 DUP2 MSTORE POP DUP10 PUSH2 0x22EE JUMP JUMPDEST POP POP POP POP POP POP SWAP4 POP SWAP4 POP SWAP4 SWAP1 POP JUMP JUMPDEST PUSH0 DUP1 DUP3 PUSH1 0x20 ADD MLOAD DUP4 PUSH0 ADD MLOAD LT PUSH2 0x1B73 JUMPI DUP3 PUSH1 0x20 ADD MLOAD PUSH2 0x1B78 JUMP JUMPDEST DUP3 PUSH0 ADD MLOAD JUMPDEST SWAP1 POP PUSH0 DUP4 PUSH1 0x60 ADD MLOAD DUP5 PUSH1 0x40 ADD MLOAD LT PUSH2 0x1B94 JUMPI DUP4 PUSH1 0x60 ADD MLOAD PUSH2 0x1B9A JUMP JUMPDEST DUP4 PUSH1 0x40 ADD MLOAD JUMPDEST SWAP1 POP PUSH0 DUP2 DUP4 LT PUSH2 0x1BAA JUMPI DUP2 PUSH2 0x1BAC JUMP JUMPDEST DUP3 JUMPDEST SWAP1 POP PUSH0 PUSH10 0xD3C21BCECCEDA1000000 DUP3 GT ISZERO PUSH2 0x1BD2 JUMPI PUSH9 0x56BC75E2D63100000 SWAP1 POP PUSH2 0x1CFC JUMP JUMPDEST PUSH10 0x152D02C7E14AF6800000 DUP3 GT ISZERO PUSH2 0x1BF4 JUMPI PUSH8 0x8AC7230489E80000 SWAP1 POP PUSH2 0x1CFB JUMP JUMPDEST PUSH10 0x21E19E0C9BAB2400000 DUP3 GT ISZERO PUSH2 0x1C16 JUMPI PUSH8 0xDE0B6B3A7640000 SWAP1 POP PUSH2 0x1CFA JUMP JUMPDEST PUSH9 0x3635C9ADC5DEA00000 DUP3 GT ISZERO PUSH2 0x1C37 JUMPI PUSH8 0x16345785D8A0000 SWAP1 POP PUSH2 0x1CF9 JUMP JUMPDEST PUSH9 0x56BC75E2D63100000 DUP3 GT ISZERO PUSH2 0x1C57 JUMPI PUSH7 0x2386F26FC10000 SWAP1 POP PUSH2 0x1CF8 JUMP JUMPDEST PUSH8 0x8AC7230489E80000 DUP3 GT ISZERO PUSH2 0x1C76 JUMPI PUSH7 0x38D7EA4C68000 SWAP1 POP PUSH2 0x1CF7 JUMP JUMPDEST PUSH8 0xDE0B6B3A7640000 DUP3 GT ISZERO PUSH2 0x1C94 JUMPI PUSH6 0x5AF3107A4000 SWAP1 POP PUSH2 0x1CF6 JUMP JUMPDEST PUSH8 0x16345785D8A0000 DUP3 GT ISZERO PUSH2 0x1CB2 JUMPI PUSH6 0x9184E72A000 SWAP1 POP PUSH2 0x1CF5 JUMP JUMPDEST PUSH7 0x2386F26FC10000 DUP3 GT ISZERO PUSH2 0x1CCE JUMPI PUSH5 0xE8D4A51000 SWAP1 POP PUSH2 0x1CF4 JUMP JUMPDEST PUSH7 0x38D7EA4C68000 DUP3 GT ISZERO PUSH2 0x1CEA JUMPI PUSH5 0x174876E800 SWAP1 POP PUSH2 0x1CF3 JUMP JUMPDEST PUSH5 0x2540BE400 SWAP1 POP JUMPDEST JUMPDEST JUMPDEST JUMPDEST JUMPDEST JUMPDEST JUMPDEST JUMPDEST JUMPDEST JUMPDEST PUSH0 DUP1 PUSH0 DUP1 DUP5 DUP11 PUSH0 ADD MLOAD PUSH2 0x1D0F SWAP2 SWAP1 PUSH2 0x3336 JUMP JUMPDEST DUP6 DUP12 PUSH1 0x40 ADD MLOAD PUSH2 0x1D1F SWAP2 SWAP1 PUSH2 0x3336 JUMP JUMPDEST DUP7 DUP13 PUSH1 0x20 ADD MLOAD PUSH2 0x1D2F SWAP2 SWAP1 PUSH2 0x3336 JUMP JUMPDEST DUP8 DUP14 PUSH1 0x60 ADD MLOAD PUSH2 0x1D3F SWAP2 SWAP1 PUSH2 0x3336 JUMP JUMPDEST SWAP4 POP SWAP4 POP SWAP4 POP SWAP4 POP PUSH0 DUP2 DUP5 PUSH2 0x1D54 SWAP2 SWAP1 PUSH2 0x374C JUMP JUMPDEST DUP4 DUP7 PUSH2 0x1D60 SWAP2 SWAP1 PUSH2 0x374C JUMP JUMPDEST PUSH2 0x1D6A SWAP2 SWAP1 PUSH2 0x37C2 JUMP JUMPDEST SWAP1 POP PUSH0 DUP5 DUP7 PUSH2 0x1D79 SWAP2 SWAP1 PUSH2 0x3802 JUMP JUMPDEST DUP4 DUP6 PUSH1 0x2 PUSH2 0x1D87 SWAP2 SWAP1 PUSH2 0x374C JUMP JUMPDEST PUSH2 0x1D91 SWAP2 SWAP1 PUSH2 0x374C JUMP JUMPDEST PUSH2 0x1D9B SWAP2 SWAP1 PUSH2 0x374C JUMP JUMPDEST SWAP1 POP PUSH0 DUP5 DUP7 PUSH2 0x1DAA SWAP2 SWAP1 PUSH2 0x374C JUMP JUMPDEST DUP5 DUP9 PUSH2 0x1DB6 SWAP2 SWAP1 PUSH2 0x374C JUMP JUMPDEST PUSH2 0x1DC0 SWAP2 SWAP1 PUSH2 0x37C2 JUMP JUMPDEST DUP5 DUP7 PUSH2 0x1DCC SWAP2 SWAP1 PUSH2 0x374C JUMP JUMPDEST PUSH2 0x1DD6 SWAP2 SWAP1 PUSH2 0x374C JUMP JUMPDEST SWAP1 POP PUSH0 DUP1 PUSH2 0x1DE5 DUP6 DUP6 DUP6 PUSH2 0x238A JUMP JUMPDEST SWAP2 POP SWAP2 POP PUSH0 DUP3 SGT DUP1 ISZERO PUSH2 0x1DF7 JUMPI POP DUP7 DUP3 SLT JUMPDEST DUP1 ISZERO PUSH2 0x1E02 JUMPI POP DUP6 DUP3 SLT JUMPDEST DUP1 PUSH2 0x1E22 JUMPI POP PUSH0 DUP2 SGT DUP1 ISZERO PUSH2 0x1E16 JUMPI POP DUP7 DUP2 SLT JUMPDEST DUP1 ISZERO PUSH2 0x1E21 JUMPI POP DUP6 DUP2 SLT JUMPDEST JUMPDEST PUSH2 0x1E61 JUMPI PUSH1 0x40 MLOAD PUSH32 0x8C379A000000000000000000000000000000000000000000000000000000000 DUP2 MSTORE PUSH1 0x4 ADD PUSH2 0x1E58 SWAP1 PUSH2 0x388D JUMP JUMPDEST PUSH1 0x40 MLOAD DUP1 SWAP2 SUB SWAP1 REVERT JUMPDEST PUSH0 DUP3 SGT DUP1 ISZERO PUSH2 0x1E6F JUMPI POP DUP7 DUP3 SLT JUMPDEST DUP1 ISZERO PUSH2 0x1E7A JUMPI POP DUP6 DUP3 SLT JUMPDEST PUSH2 0x1E8F JUMPI DUP10 DUP2 PUSH2 0x1E8A SWAP2 SWAP1 PUSH2 0x38AB JUMP JUMPDEST PUSH2 0x1E9C JUMP JUMPDEST DUP10 DUP3 PUSH2 0x1E9B SWAP2 SWAP1 PUSH2 0x38AB JUMP JUMPDEST JUMPDEST SWAP14 POP POP POP POP POP POP POP POP POP POP POP POP POP POP SWAP2 SWAP1 POP JUMP JUMPDEST PUSH0 DUP1 DUP5 GT PUSH2 0x1EF3 JUMPI PUSH1 0x40 MLOAD PUSH32 0x8C379A000000000000000000000000000000000000000000000000000000000 DUP2 MSTORE PUSH1 0x4 ADD PUSH2 0x1EEA SWAP1 PUSH2 0x395C JUMP JUMPDEST PUSH1 0x40 MLOAD DUP1 SWAP2 SUB SWAP1 REVERT JUMPDEST PUSH0 DUP4 GT DUP1 ISZERO PUSH2 0x1F01 JUMPI POP PUSH0 DUP3 GT JUMPDEST PUSH2 0x1F40 JUMPI PUSH1 0x40 MLOAD PUSH32 0x8C379A000000000000000000000000000000000000000000000000000000000 DUP2 MSTORE PUSH1 0x4 ADD PUSH2 0x1F37 SWAP1 PUSH2 0x39EA JUMP JUMPDEST PUSH1 0x40 MLOAD DUP1 SWAP2 SUB SWAP1 REVERT JUMPDEST PUSH0 PUSH2 0x3E8 DUP6 DUP6 PUSH2 0x1F50 SWAP2 SWAP1 PUSH2 0x38AB JUMP JUMPDEST PUSH2 0x1F5A SWAP2 SWAP1 PUSH2 0x38AB JUMP JUMPDEST SWAP1 POP PUSH0 PUSH2 0x3E5 DUP7 DUP6 PUSH2 0x1F6C SWAP2 SWAP1 PUSH2 0x326E JUMP JUMPDEST PUSH2 0x1F76 SWAP2 SWAP1 PUSH2 0x38AB JUMP JUMPDEST SWAP1 POP PUSH1 0x1 DUP2 DUP4 PUSH2 0x1F86 SWAP2 SWAP1 PUSH2 0x3336 JUMP JUMPDEST PUSH2 0x1F90 SWAP2 SWAP1 PUSH2 0x3A08 JUMP JUMPDEST SWAP3 POP POP POP SWAP4 SWAP3 POP POP POP JUMP JUMPDEST PUSH0 DUP1 DUP5 GT PUSH2 0x1FDE JUMPI PUSH1 0x40 MLOAD PUSH32 0x8C379A000000000000000000000000000000000000000000000000000000000 DUP2 MSTORE PUSH1 0x4 ADD PUSH2 0x1FD5 SWAP1 PUSH2 0x3AAB JUMP JUMPDEST PUSH1 0x40 MLOAD DUP1 SWAP2 SUB SWAP1 REVERT JUMPDEST PUSH0 DUP4 GT DUP1 ISZERO PUSH2 0x1FEC JUMPI POP PUSH0 DUP3 GT JUMPDEST PUSH2 0x202B JUMPI PUSH1 0x40 MLOAD PUSH32 0x8C379A000000000000000000000000000000000000000000000000000000000 DUP2 MSTORE PUSH1 0x4 ADD PUSH2 0x2022 SWAP1 PUSH2 0x39EA JUMP JUMPDEST PUSH1 0x40 MLOAD DUP1 SWAP2 SUB SWAP1 REVERT JUMPDEST PUSH0 PUSH2 0x3E5 DUP6 PUSH2 0x203A SWAP2 SWAP1 PUSH2 0x38AB JUMP JUMPDEST SWAP1 POP PUSH0 DUP4 DUP3 PUSH2 0x2049 SWAP2 SWAP1 PUSH2 0x38AB JUMP JUMPDEST SWAP1 POP PUSH0 DUP3 PUSH2 0x3E8 DUP8 PUSH2 0x205B SWAP2 SWAP1 PUSH2 0x38AB JUMP JUMPDEST PUSH2 0x2065 SWAP2 SWAP1 PUSH2 0x3A08 JUMP JUMPDEST SWAP1 POP DUP1 DUP3 PUSH2 0x2073 SWAP2 SWAP1 PUSH2 0x3336 JUMP JUMPDEST SWAP4 POP POP POP POP SWAP4 SWAP3 POP POP POP JUMP JUMPDEST PUSH0 PUSH2 0x20A4 DUP4 PUSH0 ADD DUP4 PUSH20 0xFFFFFFFFFFFFFFFFFFFFFFFFFFFFFFFFFFFFFFFF AND PUSH0 SHL PUSH2 0x2472 JUMP JUMPDEST SWAP1 POP SWAP3 SWAP2 POP POP JUMP JUMPDEST PUSH2 0x2144 DUP3 DUP3 PUSH1 0x40 MLOAD PUSH1 0x24 ADD PUSH2 0x20C2 SWAP3 SWAP2 SWAP1 PUSH2 0x3B0B JUMP JUMPDEST PUSH1 0x40 MLOAD PUSH1 0x20 DUP2 DUP4 SUB SUB DUP2 MSTORE SWAP1 PUSH1 0x40 MSTORE PUSH32 0xB60E72CC00000000000000000000000000000000000000000000000000000000 PUSH28 0xFFFFFFFFFFFFFFFFFFFFFFFFFFFFFFFFFFFFFFFFFFFFFFFFFFFFFFFF NOT AND PUSH1 0x20 DUP3 ADD DUP1 MLOAD PUSH28 0xFFFFFFFFFFFFFFFFFFFFFFFFFFFFFFFFFFFFFFFFFFFFFFFFFFFFFFFF DUP4 DUP2 DUP4 AND OR DUP4 MSTORE POP POP POP POP PUSH2 0x24D9 JUMP JUMPDEST POP POP JUMP JUMPDEST PUSH0 PUSH2 0x216D DUP4 PUSH0 ADD DUP4 PUSH20 0xFFFFFFFFFFFFFFFFFFFFFFFFFFFFFFFFFFFFFFFF AND PUSH0 SHL PUSH2 0x24F3 JUMP JUMPDEST SWAP1 POP SWAP3 SWAP2 POP POP JUMP JUMPDEST PUSH0 DUP1 PUSH1 0x20 PUSH0 DUP5 MLOAD PUSH1 0x20 DUP7 ADD PUSH0 DUP9 GAS CALL DUP1 PUSH2 0x2194 JUMPI PUSH1 0x40 MLOAD RETURNDATASIZE PUSH0 DUP3 RETURNDATACOPY RETURNDATASIZE DUP2 REVERT JUMPDEST RETURNDATASIZE SWAP3 POP PUSH0 MLOAD SWAP2 POP POP PUSH0 DUP3 EQ PUSH2 0x21AD JUMPI PUSH1 0x1 DUP2 EQ ISZERO PUSH2 0x21C8 JUMP JUMPDEST PUSH0 DUP5 PUSH20 0xFFFFFFFFFFFFFFFFFFFFFFFFFFFFFFFFFFFFFFFF AND EXTCODESIZE EQ JUMPDEST ISZERO PUSH2 0x220A JUMPI DUP4 PUSH1 0x40 MLOAD PUSH32 0x5274AFE700000000000000000000000000000000000000000000000000000000 DUP2 MSTORE PUSH1 0x4 ADD PUSH2 0x2201 SWAP2 SWAP1 PUSH2 0x2D8C JUMP JUMPDEST PUSH1 0x40 MLOAD DUP1 SWAP2 SUB SWAP1 REVERT JUMPDEST POP POP POP POP JUMP JUMPDEST PUSH0 DUP1 DUP4 PUSH1 0x1 ADD PUSH0 DUP5 DUP2 MSTORE PUSH1 0x20 ADD SWAP1 DUP2 MSTORE PUSH1 0x20 ADD PUSH0 KECCAK256 SLOAD EQ ISZERO SWAP1 POP SWAP3 SWAP2 POP POP JUMP JUMPDEST PUSH0 DUP2 PUSH0 ADD DUP1 SLOAD SWAP1 POP SWAP1 POP SWAP2 SWAP1 POP JUMP JUMPDEST PUSH0 DUP3 PUSH0 ADD DUP3 DUP2 SLOAD DUP2 LT PUSH2 0x2255 JUMPI PUSH2 0x2254 PUSH2 0x34AA JUMP JUMPDEST JUMPDEST SWAP1 PUSH0 MSTORE PUSH1 0x20 PUSH0 KECCAK256 ADD SLOAD SWAP1 POP SWAP3 SWAP2 POP POP JUMP JUMPDEST PUSH0 CALLER SWAP1 POP SWAP1 JUMP JUMPDEST PUSH2 0x2275 PUSH2 0x2938 JUMP JUMPDEST PUSH1 0x40 MLOAD DUP1 PUSH1 0x20 ADD PUSH1 0x40 MSTORE DUP1 PUSH2 0x229B PUSH8 0xDE0B6B3A7640000 DUP6 PUSH2 0x25EF SWAP1 SWAP2 SWAP1 PUSH4 0xFFFFFFFF AND JUMP JUMPDEST DUP2 MSTORE POP SWAP1 POP SWAP2 SWAP1 POP JUMP JUMPDEST PUSH2 0x22AD PUSH2 0x2938 JUMP JUMPDEST PUSH1 0x40 MLOAD DUP1 PUSH1 0x20 ADD PUSH1 0x40 MSTORE DUP1 PUSH2 0x22CE DUP5 DUP7 PUSH0 ADD MLOAD PUSH2 0x2666 SWAP1 SWAP2 SWAP1 PUSH4 0xFFFFFFFF AND JUMP JUMPDEST DUP2 MSTORE POP SWAP1 POP SWAP3 SWAP2 POP POP JUMP JUMPDEST PUSH0 DUP1 PUSH2 0x22E5 DUP5 DUP5 PUSH2 0x26AF JUMP JUMPDEST EQ SWAP1 POP SWAP3 SWAP2 POP POP JUMP JUMPDEST PUSH2 0x2386 DUP3 DUP3 PUSH1 0x40 MLOAD PUSH1 0x24 ADD PUSH2 0x2304 SWAP3 SWAP2 SWAP1 PUSH2 0x3B39 JUMP JUMPDEST PUSH1 0x40 MLOAD PUSH1 0x20 DUP2 DUP4 SUB SUB DUP2 MSTORE SWAP1 PUSH1 0x40 MSTORE PUSH32 0x319AF33300000000000000000000000000000000000000000000000000000000 PUSH28 0xFFFFFFFFFFFFFFFFFFFFFFFFFFFFFFFFFFFFFFFFFFFFFFFFFFFFFFFF NOT AND PUSH1 0x20 DUP3 ADD DUP1 MLOAD PUSH28 0xFFFFFFFFFFFFFFFFFFFFFFFFFFFFFFFFFFFFFFFFFFFFFFFFFFFFFFFF DUP4 DUP2 DUP4 AND OR DUP4 MSTORE POP POP POP POP PUSH2 0x24D9 JUMP JUMPDEST POP POP JUMP JUMPDEST PUSH0 DUP1 PUSH0 DUP4 DUP7 PUSH1 0x4 PUSH2 0x239B SWAP2 SWAP1 PUSH2 0x374C JUMP JUMPDEST PUSH2 0x23A5 SWAP2 SWAP1 PUSH2 0x374C JUMP JUMPDEST PUSH1 0x2 DUP7 PUSH2 0x23B2 SWAP2 SWAP1 PUSH2 0x3CB9 JUMP JUMPDEST PUSH2 0x23BC SWAP2 SWAP1 PUSH2 0x37C2 JUMP JUMPDEST SWAP1 POP PUSH0 DUP2 SGT PUSH2 0x2400 JUMPI PUSH1 0x40 MLOAD PUSH32 0x8C379A000000000000000000000000000000000000000000000000000000000 DUP2 MSTORE PUSH1 0x4 ADD PUSH2 0x23F7 SWAP1 PUSH2 0x3D6E JUMP JUMPDEST PUSH1 0x40 MLOAD DUP1 SWAP2 SUB SWAP1 REVERT JUMPDEST PUSH0 PUSH2 0x240A DUP3 PUSH2 0x26E8 JUMP JUMPDEST SWAP1 POP DUP7 PUSH1 0x2 PUSH2 0x2419 SWAP2 SWAP1 PUSH2 0x374C JUMP JUMPDEST DUP2 DUP8 PUSH2 0x2424 SWAP1 PUSH2 0x3D8C JUMP JUMPDEST PUSH2 0x242E SWAP2 SWAP1 PUSH2 0x3802 JUMP JUMPDEST PUSH2 0x2438 SWAP2 SWAP1 PUSH2 0x3DD2 JUMP JUMPDEST SWAP4 POP DUP7 PUSH1 0x2 PUSH2 0x2447 SWAP2 SWAP1 PUSH2 0x374C JUMP JUMPDEST DUP2 DUP8 PUSH2 0x2452 SWAP1 PUSH2 0x3D8C JUMP JUMPDEST PUSH2 0x245C SWAP2 SWAP1 PUSH2 0x37C2 JUMP JUMPDEST PUSH2 0x2466 SWAP2 SWAP1 PUSH2 0x3DD2 JUMP JUMPDEST SWAP3 POP POP POP SWAP4 POP SWAP4 SWAP2 POP POP JUMP JUMPDEST PUSH0 PUSH2 0x247D DUP4 DUP4 PUSH2 0x2210 JUMP JUMPDEST PUSH2 0x24CF JUMPI DUP3 PUSH0 ADD DUP3 SWAP1 DUP1 PUSH1 0x1 DUP2 SLOAD ADD DUP1 DUP3 SSTORE DUP1 SWAP2 POP POP PUSH1 0x1 SWAP1 SUB SWAP1 PUSH0 MSTORE PUSH1 0x20 PUSH0 KECCAK256 ADD PUSH0 SWAP1 SWAP2 SWAP1 SWAP2 SWAP1 SWAP2 POP SSTORE DUP3 PUSH0 ADD DUP1 SLOAD SWAP1 POP DUP4 PUSH1 0x1 ADD PUSH0 DUP5 DUP2 MSTORE PUSH1 0x20 ADD SWAP1 DUP2 MSTORE PUSH1 0x20 ADD PUSH0 KECCAK256 DUP2 SWAP1 SSTORE POP PUSH1 0x1 SWAP1 POP PUSH2 0x24D3 JUMP JUMPDEST PUSH0 SWAP1 POP JUMPDEST SWAP3 SWAP2 POP POP JUMP JUMPDEST PUSH2 0x24F0 DUP2 PUSH2 0x24E8 PUSH2 0x2775 PUSH2 0x2794 JUMP JUMPDEST PUSH4 0xFFFFFFFF AND JUMP JUMPDEST POP JUMP JUMPDEST PUSH0 DUP1 DUP4 PUSH1 0x1 ADD PUSH0 DUP5 DUP2 MSTORE PUSH1 0x20 ADD SWAP1 DUP2 MSTORE PUSH1 0x20 ADD PUSH0 KECCAK256 SLOAD SWAP1 POP PUSH0 DUP2 EQ PUSH2 0x25E4 JUMPI PUSH0 PUSH1 0x1 DUP3 PUSH2 0x2520 SWAP2 SWAP1 PUSH2 0x326E JUMP JUMPDEST SWAP1 POP PUSH0 PUSH1 0x1 DUP7 PUSH0 ADD DUP1 SLOAD SWAP1 POP PUSH2 0x2536 SWAP2 SWAP1 PUSH2 0x326E JUMP JUMPDEST SWAP1 POP DUP1 DUP3 EQ PUSH2 0x259C JUMPI PUSH0 DUP7 PUSH0 ADD DUP3 DUP2 SLOAD DUP2 LT PUSH2 0x2555 JUMPI PUSH2 0x2554 PUSH2 0x34AA JUMP JUMPDEST JUMPDEST SWAP1 PUSH0 MSTORE PUSH1 0x20 PUSH0 KECCAK256 ADD SLOAD SWAP1 POP DUP1 DUP8 PUSH0 ADD DUP5 DUP2 SLOAD DUP2 LT PUSH2 0x2576 JUMPI PUSH2 0x2575 PUSH2 0x34AA JUMP JUMPDEST JUMPDEST SWAP1 PUSH0 MSTORE PUSH1 0x20 PUSH0 KECCAK256 ADD DUP2 SWAP1 SSTORE POP DUP4 DUP8 PUSH1 0x1 ADD PUSH0 DUP4 DUP2 MSTORE PUSH1 0x20 ADD SWAP1 DUP2 MSTORE PUSH1 0x20 ADD PUSH0 KECCAK256 DUP2 SWAP1 SSTORE POP POP JUMPDEST DUP6 PUSH0 ADD DUP1 SLOAD DUP1 PUSH2 0x25AF JUMPI PUSH2 0x25AE PUSH2 0x3E3A JUMP JUMPDEST JUMPDEST PUSH1 0x1 SWAP1 SUB DUP2 DUP2 SWAP1 PUSH0 MSTORE PUSH1 0x20 PUSH0 KECCAK256 ADD PUSH0 SWAP1 SSTORE SWAP1 SSTORE DUP6 PUSH1 0x1 ADD PUSH0 DUP7 DUP2 MSTORE PUSH1 0x20 ADD SWAP1 DUP2 MSTORE PUSH1 0x20 ADD PUSH0 KECCAK256 PUSH0 SWAP1 SSTORE PUSH1 0x1 SWAP4 POP POP POP POP PUSH2 0x25E9 JUMP JUMPDEST PUSH0 SWAP2 POP POP JUMPDEST SWAP3 SWAP2 POP POP JUMP JUMPDEST PUSH0 DUP1 DUP4 SUB PUSH2 0x25FF JUMPI PUSH0 SWAP1 POP PUSH2 0x2660 JUMP JUMPDEST PUSH0 DUP3 DUP5 PUSH2 0x260C SWAP2 SWAP1 PUSH2 0x38AB JUMP JUMPDEST SWAP1 POP DUP3 DUP5 DUP3 PUSH2 0x261B SWAP2 SWAP1 PUSH2 0x3336 JUMP JUMPDEST EQ PUSH2 0x265B JUMPI PUSH1 0x40 MLOAD PUSH32 0x8C379A000000000000000000000000000000000000000000000000000000000 DUP2 MSTORE PUSH1 0x4 ADD PUSH2 0x2652 SWAP1 PUSH2 0x3ED7 JUMP JUMPDEST PUSH1 0x40 MLOAD DUP1 SWAP2 SUB SWAP1 REVERT JUMPDEST DUP1 SWAP2 POP POP JUMPDEST SWAP3 SWAP2 POP POP JUMP JUMPDEST PUSH0 PUSH2 0x26A7 DUP4 DUP4 PUSH1 0x40 MLOAD DUP1 PUSH1 0x40 ADD PUSH1 0x40 MSTORE DUP1 PUSH1 0x1A DUP2 MSTORE PUSH1 0x20 ADD PUSH32 0x536166654D6174683A206469766973696F6E206279207A65726F000000000000 DUP2 MSTORE POP PUSH2 0x279F JUMP JUMPDEST SWAP1 POP SWAP3 SWAP2 POP POP JUMP JUMPDEST PUSH0 DUP2 PUSH0 ADD MLOAD DUP4 PUSH0 ADD MLOAD SUB PUSH2 0x26C6 JUMPI PUSH1 0x1 SWAP1 POP PUSH2 0x26E2 JUMP JUMPDEST DUP2 PUSH0 ADD MLOAD DUP4 PUSH0 ADD MLOAD GT PUSH2 0x26D9 JUMPI PUSH0 PUSH2 0x26DC JUMP JUMPDEST PUSH1 0x2 JUMPDEST PUSH1 0xFF AND SWAP1 POP JUMPDEST SWAP3 SWAP2 POP POP JUMP JUMPDEST PUSH0 PUSH1 0x1 DUP3 GT PUSH2 0x26FA JUMPI PUSH2 0x26F9 PUSH2 0x3EF5 JUMP JUMPDEST JUMPDEST PUSH0 PUSH3 0xF4240 DUP4 PUSH2 0x270A SWAP2 SWAP1 PUSH2 0x38AB JUMP JUMPDEST SWAP1 POP PUSH0 DUP2 SWAP1 POP DUP2 SWAP3 POP PUSH0 JUMPDEST PUSH1 0x1 ISZERO PUSH2 0x275D JUMPI PUSH1 0x2 DUP5 DUP4 PUSH2 0x272A SWAP2 SWAP1 PUSH2 0x3336 JUMP JUMPDEST DUP6 PUSH2 0x2735 SWAP2 SWAP1 PUSH2 0x3A08 JUMP JUMPDEST PUSH2 0x273F SWAP2 SWAP1 PUSH2 0x3336 JUMP JUMPDEST SWAP1 POP PUSH2 0x3E8 DUP2 DUP6 PUSH2 0x2750 SWAP2 SWAP1 PUSH2 0x326E JUMP JUMPDEST LT PUSH2 0x275D JUMPI DUP1 SWAP4 POP PUSH2 0x2715 JUMP JUMPDEST PUSH2 0x3E8 DUP5 PUSH2 0x276B SWAP2 SWAP1 PUSH2 0x3336 JUMP JUMPDEST SWAP4 POP POP POP POP SWAP2 SWAP1 POP JUMP JUMPDEST PUSH0 PUSH11 0x636F6E736F6C652E6C6F67 SWAP1 POP PUSH0 DUP1 DUP4 MLOAD PUSH1 0x20 DUP6 ADD DUP5 GAS STATICCALL POP POP POP JUMP JUMPDEST PUSH2 0x294A DUP2 SWAP1 POP SWAP2 SWAP1 POP JUMP JUMPDEST PUSH0 DUP1 DUP4 GT DUP3 SWAP1 PUSH2 0x27E5 JUMPI PUSH1 0x40 MLOAD PUSH32 0x8C379A000000000000000000000000000000000000000000000000000000000 DUP2 MSTORE PUSH1 0x4 ADD PUSH2 0x27DC SWAP2 SWAP1 PUSH2 0x3F22 JUMP JUMPDEST PUSH1 0x40 MLOAD DUP1 SWAP2 SUB SWAP1 REVERT JUMPDEST POP PUSH0 DUP4 DUP6 PUSH2 0x27F3 SWAP2 SWAP1 PUSH2 0x3336 JUMP JUMPDEST SWAP1 POP DUP1 SWAP2 POP POP SWAP4 SWAP3 POP POP POP JUMP JUMPDEST PUSH1 0x40 MLOAD DUP1 PUSH1 0xA0 ADD PUSH1 0x40 MSTORE DUP1 PUSH0 PUSH20 0xFFFFFFFFFFFFFFFFFFFFFFFFFFFFFFFFFFFFFFFF AND DUP2 MSTORE PUSH1 0x20 ADD PUSH0 PUSH20 0xFFFFFFFFFFFFFFFFFFFFFFFFFFFFFFFFFFFFFFFF AND DUP2 MSTORE PUSH1 0x20 ADD PUSH0 ISZERO ISZERO DUP2 MSTORE PUSH1 0x20 ADD PUSH0 PUSH20 0xFFFFFFFFFFFFFFFFFFFFFFFFFFFFFFFFFFFFFFFF AND DUP2 MSTORE PUSH1 0x20 ADD PUSH0 PUSH20 0xFFFFFFFFFFFFFFFFFFFFFFFFFFFFFFFFFFFFFFFF AND DUP2 MSTORE POP SWAP1 JUMP JUMPDEST PUSH1 0x40 MLOAD DUP1 PUSH1 0x80 ADD PUSH1 0x40 MSTORE DUP1 PUSH0 DUP2 MSTORE PUSH1 0x20 ADD PUSH0 DUP2 MSTORE PUSH1 0x20 ADD PUSH0 DUP2 MSTORE PUSH1 0x20 ADD PUSH0 DUP2 MSTORE POP SWAP1 JUMP JUMPDEST PUSH1 0x40 MLOAD DUP1 PUSH1 0xE0 ADD PUSH1 0x40 MSTORE DUP1 PUSH0 PUSH20 0xFFFFFFFFFFFFFFFFFFFFFFFFFFFFFFFFFFFFFFFF AND DUP2 MSTORE PUSH1 0x20 ADD PUSH0 PUSH20 0xFFFFFFFFFFFFFFFFFFFFFFFFFFFFFFFFFFFFFFFF AND DUP2 MSTORE PUSH1 0x20 ADD PUSH0 ISZERO ISZERO DUP2 MSTORE PUSH1 0x20 ADD PUSH0 PUSH20 0xFFFFFFFFFFFFFFFFFFFFFFFFFFFFFFFFFFFFFFFF AND DUP2 MSTORE PUSH1 0x20 ADD PUSH0 PUSH20 0xFFFFFFFFFFFFFFFFFFFFFFFFFFFFFFFFFFFFFFFF AND DUP2 MSTORE PUSH1 0x20 ADD PUSH0 DUP2 MSTORE PUSH1 0x20 ADD PUSH0 DUP2 MSTORE POP SWAP1 JUMP JUMPDEST PUSH1 0x40 MLOAD DUP1 PUSH1 0x20 ADD PUSH1 0x40 MSTORE DUP1 PUSH0 DUP2 MSTORE POP SWAP1 JUMP JUMPDEST PUSH2 0x2952 PUSH2 0x3F42 JUMP JUMPDEST JUMP JUMPDEST PUSH0 PUSH1 0x40 MLOAD SWAP1 POP SWAP1 JUMP JUMPDEST PUSH0 DUP1 REVERT JUMPDEST PUSH0 DUP1 REVERT JUMPDEST PUSH0 DUP1 DUP6 DUP6 GT ISZERO PUSH2 0x2978 JUMPI PUSH2 0x2977 PUSH2 0x295D JUMP JUMPDEST JUMPDEST DUP4 DUP7 GT ISZERO PUSH2 0x2989 JUMPI PUSH2 0x2988 PUSH2 0x2961 JUMP JUMPDEST JUMPDEST PUSH1 0x1 DUP6 MUL DUP4 ADD SWAP2 POP DUP5 DUP7 SUB SWAP1 POP SWAP5 POP SWAP5 SWAP3 POP POP POP JUMP JUMPDEST PUSH0 DUP1 REVERT JUMPDEST PUSH0 DUP1 REVERT JUMPDEST PUSH0 PUSH20 0xFFFFFFFFFFFFFFFFFFFFFFFFFFFFFFFFFFFFFFFF DUP3 AND SWAP1 POP SWAP2 SWAP1 POP JUMP JUMPDEST PUSH0 PUSH2 0x29D0 DUP3 PUSH2 0x29A7 JUMP JUMPDEST SWAP1 POP SWAP2 SWAP1 POP JUMP JUMPDEST PUSH2 0x29E0 DUP2 PUSH2 0x29C6 JUMP JUMPDEST DUP2 EQ PUSH2 0x29EA JUMPI PUSH0 DUP1 REVERT JUMPDEST POP JUMP JUMPDEST PUSH0 DUP2 CALLDATALOAD SWAP1 POP PUSH2 0x29FB DUP2 PUSH2 0x29D7 JUMP JUMPDEST SWAP3 SWAP2 POP POP JUMP JUMPDEST PUSH0 DUP2 SWAP1 POP SWAP2 SWAP1 POP JUMP JUMPDEST PUSH2 0x2A13 DUP2 PUSH2 0x2A01 JUMP JUMPDEST DUP2 EQ PUSH2 0x2A1D JUMPI PUSH0 DUP1 REVERT JUMPDEST POP JUMP JUMPDEST PUSH0 DUP2 CALLDATALOAD SWAP1 POP PUSH2 0x2A2E DUP2 PUSH2 0x2A0A JUMP JUMPDEST SWAP3 SWAP2 POP POP JUMP JUMPDEST PUSH0 DUP1 REVERT JUMPDEST PUSH0 DUP1 REVERT JUMPDEST PUSH0 PUSH1 0x1F NOT PUSH1 0x1F DUP4 ADD AND SWAP1 POP SWAP2 SWAP1 POP JUMP JUMPDEST PUSH32 0x4E487B7100000000000000000000000000000000000000000000000000000000 PUSH0 MSTORE PUSH1 0x41 PUSH1 0x4 MSTORE PUSH1 0x24 PUSH0 REVERT JUMPDEST PUSH2 0x2A82 DUP3 PUSH2 0x2A3C JUMP JUMPDEST DUP2 ADD DUP2 DUP2 LT PUSH8 0xFFFFFFFFFFFFFFFF DUP3 GT OR ISZERO PUSH2 0x2AA1 JUMPI PUSH2 0x2AA0 PUSH2 0x2A4C JUMP JUMPDEST JUMPDEST DUP1 PUSH1 0x40 MSTORE POP POP POP JUMP JUMPDEST PUSH0 PUSH2 0x2AB3 PUSH2 0x2954 JUMP JUMPDEST SWAP1 POP PUSH2 0x2ABF DUP3 DUP3 PUSH2 0x2A79 JUMP JUMPDEST SWAP2 SWAP1 POP JUMP JUMPDEST PUSH0 PUSH8 0xFFFFFFFFFFFFFFFF DUP3 GT ISZERO PUSH2 0x2ADE JUMPI PUSH2 0x2ADD PUSH2 0x2A4C JUMP JUMPDEST JUMPDEST PUSH2 0x2AE7 DUP3 PUSH2 0x2A3C JUMP JUMPDEST SWAP1 POP PUSH1 0x20 DUP2 ADD SWAP1 POP SWAP2 SWAP1 POP JUMP JUMPDEST DUP3 DUP2 DUP4 CALLDATACOPY PUSH0 DUP4 DUP4 ADD MSTORE POP POP POP JUMP JUMPDEST PUSH0 PUSH2 0x2B14 PUSH2 0x2B0F DUP5 PUSH2 0x2AC4 JUMP JUMPDEST PUSH2 0x2AAA JUMP JUMPDEST SWAP1 POP DUP3 DUP2 MSTORE PUSH1 0x20 DUP2 ADD DUP5 DUP5 DUP5 ADD GT ISZERO PUSH2 0x2B30 JUMPI PUSH2 0x2B2F PUSH2 0x2A38 JUMP JUMPDEST JUMPDEST PUSH2 0x2B3B DUP5 DUP3 DUP6 PUSH2 0x2AF4 JUMP JUMPDEST POP SWAP4 SWAP3 POP POP POP JUMP JUMPDEST PUSH0 DUP3 PUSH1 0x1F DUP4 ADD SLT PUSH2 0x2B57 JUMPI PUSH2 0x2B56 PUSH2 0x2A34 JUMP JUMPDEST JUMPDEST DUP2 CALLDATALOAD PUSH2 0x2B67 DUP5 DUP3 PUSH1 0x20 DUP7 ADD PUSH2 0x2B02 JUMP JUMPDEST SWAP2 POP POP SWAP3 SWAP2 POP POP JUMP JUMPDEST PUSH0 DUP1 PUSH0 DUP1 PUSH1 0x80 DUP6 DUP8 SUB SLT ISZERO PUSH2 0x2B88 JUMPI PUSH2 0x2B87 PUSH2 0x299F JUMP JUMPDEST JUMPDEST PUSH0 PUSH2 0x2B95 DUP8 DUP3 DUP9 ADD PUSH2 0x29ED JUMP JUMPDEST SWAP5 POP POP PUSH1 0x20 PUSH2 0x2BA6 DUP8 DUP3 DUP9 ADD PUSH2 0x2A20 JUMP JUMPDEST SWAP4 POP POP PUSH1 0x40 PUSH2 0x2BB7 DUP8 DUP3 DUP9 ADD PUSH2 0x2A20 JUMP JUMPDEST SWAP3 POP POP PUSH1 0x60 DUP6 ADD CALLDATALOAD PUSH8 0xFFFFFFFFFFFFFFFF DUP2 GT ISZERO PUSH2 0x2BD8 JUMPI PUSH2 0x2BD7 PUSH2 0x29A3 JUMP JUMPDEST JUMPDEST PUSH2 0x2BE4 DUP8 DUP3 DUP9 ADD PUSH2 0x2B43 JUMP JUMPDEST SWAP2 POP POP SWAP3 SWAP6 SWAP2 SWAP5 POP SWAP3 POP JUMP JUMPDEST PUSH0 PUSH2 0x2BFA DUP3 PUSH2 0x29A7 JUMP JUMPDEST SWAP1 POP SWAP2 SWAP1 POP JUMP JUMPDEST PUSH2 0x2C0A DUP2 PUSH2 0x2BF0 JUMP JUMPDEST DUP2 EQ PUSH2 0x2C14 JUMPI PUSH0 DUP1 REVERT JUMPDEST POP JUMP JUMPDEST PUSH0 DUP2 CALLDATALOAD SWAP1 POP PUSH2 0x2C25 DUP2 PUSH2 0x2C01 JUMP JUMPDEST SWAP3 SWAP2 POP POP JUMP JUMPDEST PUSH0 DUP1 PUSH0 DUP1 PUSH1 0x80 DUP6 DUP8 SUB SLT ISZERO PUSH2 0x2C43 JUMPI PUSH2 0x2C42 PUSH2 0x299F JUMP JUMPDEST JUMPDEST PUSH0 PUSH2 0x2C50 DUP8 DUP3 DUP9 ADD PUSH2 0x2C17 JUMP JUMPDEST SWAP5 POP POP PUSH1 0x20 PUSH2 0x2C61 DUP8 DUP3 DUP9 ADD PUSH2 0x2A20 JUMP JUMPDEST SWAP4 POP POP PUSH1 0x40 PUSH2 0x2C72 DUP8 DUP3 DUP9 ADD PUSH2 0x2A20 JUMP JUMPDEST SWAP3 POP POP PUSH1 0x60 DUP6 ADD CALLDATALOAD PUSH8 0xFFFFFFFFFFFFFFFF DUP2 GT ISZERO PUSH2 0x2C93 JUMPI PUSH2 0x2C92 PUSH2 0x29A3 JUMP JUMPDEST JUMPDEST PUSH2 0x2C9F DUP8 DUP3 DUP9 ADD PUSH2 0x2B43 JUMP JUMPDEST SWAP2 POP POP SWAP3 SWAP6 SWAP2 SWAP5 POP SWAP3 POP JUMP JUMPDEST PUSH0 PUSH1 0x20 DUP3 DUP5 SUB SLT ISZERO PUSH2 0x2CC0 JUMPI PUSH2 0x2CBF PUSH2 0x299F JUMP JUMPDEST JUMPDEST PUSH0 PUSH2 0x2CCD DUP5 DUP3 DUP6 ADD PUSH2 0x2C17 JUMP JUMPDEST SWAP2 POP POP SWAP3 SWAP2 POP POP JUMP JUMPDEST PUSH0 DUP2 ISZERO ISZERO SWAP1 POP SWAP2 SWAP1 POP JUMP JUMPDEST PUSH2 0x2CEA DUP2 PUSH2 0x2CD6 JUMP JUMPDEST DUP3 MSTORE POP POP JUMP JUMPDEST PUSH0 PUSH1 0x20 DUP3 ADD SWAP1 POP PUSH2 0x2D03 PUSH0 DUP4 ADD DUP5 PUSH2 0x2CE1 JUMP JUMPDEST SWAP3 SWAP2 POP POP JUMP JUMPDEST PUSH0 DUP1 PUSH1 0x40 DUP4 DUP6 SUB SLT ISZERO PUSH2 0x2D1F JUMPI PUSH2 0x2D1E PUSH2 0x299F JUMP JUMPDEST JUMPDEST PUSH0 PUSH2 0x2D2C DUP6 DUP3 DUP7 ADD PUSH2 0x2C17 JUMP JUMPDEST SWAP3 POP POP PUSH1 0x20 PUSH2 0x2D3D DUP6 DUP3 DUP7 ADD PUSH2 0x2C17 JUMP JUMPDEST SWAP2 POP POP SWAP3 POP SWAP3 SWAP1 POP JUMP JUMPDEST PUSH2 0x2D50 DUP2 PUSH2 0x2A01 JUMP JUMPDEST DUP3 MSTORE POP POP JUMP JUMPDEST PUSH2 0x2D5F DUP2 PUSH2 0x2BF0 JUMP JUMPDEST DUP3 MSTORE POP POP JUMP JUMPDEST PUSH0 PUSH1 0x40 DUP3 ADD SWAP1 POP PUSH2 0x2D78 PUSH0 DUP4 ADD DUP6 PUSH2 0x2D47 JUMP JUMPDEST PUSH2 0x2D85 PUSH1 0x20 DUP4 ADD DUP5 PUSH2 0x2D56 JUMP JUMPDEST SWAP4 SWAP3 POP POP POP JUMP JUMPDEST PUSH0 PUSH1 0x20 DUP3 ADD SWAP1 POP PUSH2 0x2D9F PUSH0 DUP4 ADD DUP5 PUSH2 0x2D56 JUMP JUMPDEST SWAP3 SWAP2 POP POP JUMP JUMPDEST PUSH0 DUP2 MLOAD SWAP1 POP SWAP2 SWAP1 POP JUMP JUMPDEST PUSH0 DUP3 DUP3 MSTORE PUSH1 0x20 DUP3 ADD SWAP1 POP SWAP3 SWAP2 POP POP JUMP JUMPDEST PUSH0 DUP2 SWAP1 POP PUSH1 0x20 DUP3 ADD SWAP1 POP SWAP2 SWAP1 POP JUMP JUMPDEST PUSH2 0x2DD7 DUP2 PUSH2 0x2BF0 JUMP JUMPDEST DUP3 MSTORE POP POP JUMP JUMPDEST PUSH0 PUSH2 0x2DE8 DUP4 DUP4 PUSH2 0x2DCE JUMP JUMPDEST PUSH1 0x20 DUP4 ADD SWAP1 POP SWAP3 SWAP2 POP POP JUMP JUMPDEST PUSH0 PUSH1 0x20 DUP3 ADD SWAP1 POP SWAP2 SWAP1 POP JUMP JUMPDEST PUSH0 PUSH2 0x2E0A DUP3 PUSH2 0x2DA5 JUMP JUMPDEST PUSH2 0x2E14 DUP2 DUP6 PUSH2 0x2DAF JUMP JUMPDEST SWAP4 POP PUSH2 0x2E1F DUP4 PUSH2 0x2DBF JUMP JUMPDEST DUP1 PUSH0 JUMPDEST DUP4 DUP2 LT ISZERO PUSH2 0x2E4F JUMPI DUP2 MLOAD PUSH2 0x2E36 DUP9 DUP3 PUSH2 0x2DDD JUMP JUMPDEST SWAP8 POP PUSH2 0x2E41 DUP4 PUSH2 0x2DF4 JUMP JUMPDEST SWAP3 POP POP PUSH1 0x1 DUP2 ADD SWAP1 POP PUSH2 0x2E22 JUMP JUMPDEST POP DUP6 SWAP4 POP POP POP POP SWAP3 SWAP2 POP POP JUMP JUMPDEST PUSH0 PUSH1 0x20 DUP3 ADD SWAP1 POP DUP2 DUP2 SUB PUSH0 DUP4 ADD MSTORE PUSH2 0x2E74 DUP2 DUP5 PUSH2 0x2E00 JUMP JUMPDEST SWAP1 POP SWAP3 SWAP2 POP POP JUMP JUMPDEST PUSH0 DUP3 DUP3 MSTORE PUSH1 0x20 DUP3 ADD SWAP1 POP SWAP3 SWAP2 POP POP JUMP JUMPDEST PUSH32 0x4E6F6E207065726D697373696F6E656420616464726573732063616C6C000000 PUSH0 DUP3 ADD MSTORE POP JUMP JUMPDEST PUSH0 PUSH2 0x2EC0 PUSH1 0x1D DUP4 PUSH2 0x2E7C JUMP JUMPDEST SWAP2 POP PUSH2 0x2ECB DUP3 PUSH2 0x2E8C JUMP JUMPDEST PUSH1 0x20 DUP3 ADD SWAP1 POP SWAP2 SWAP1 POP JUMP JUMPDEST PUSH0 PUSH1 0x20 DUP3 ADD SWAP1 POP DUP2 DUP2 SUB PUSH0 DUP4 ADD MSTORE PUSH2 0x2EED DUP2 PUSH2 0x2EB4 JUMP JUMPDEST SWAP1 POP SWAP2 SWAP1 POP JUMP JUMPDEST PUSH32 0x4E6F742066726F6D207468697320636F6E747261637400000000000000000000 PUSH0 DUP3 ADD MSTORE POP JUMP JUMPDEST PUSH0 PUSH2 0x2F28 PUSH1 0x16 DUP4 PUSH2 0x2E7C JUMP JUMPDEST SWAP2 POP PUSH2 0x2F33 DUP3 PUSH2 0x2EF4 JUMP JUMPDEST PUSH1 0x20 DUP3 ADD SWAP1 POP SWAP2 SWAP1 POP JUMP JUMPDEST PUSH0 PUSH1 0x20 DUP3 ADD SWAP1 POP DUP2 DUP2 SUB PUSH0 DUP4 ADD MSTORE PUSH2 0x2F55 DUP2 PUSH2 0x2F1C JUMP JUMPDEST SWAP1 POP SWAP2 SWAP1 POP JUMP JUMPDEST PUSH0 DUP1 REVERT JUMPDEST PUSH0 DUP2 MLOAD SWAP1 POP PUSH2 0x2F6E DUP2 PUSH2 0x2C01 JUMP JUMPDEST SWAP3 SWAP2 POP POP JUMP JUMPDEST PUSH2 0x2F7D DUP2 PUSH2 0x2CD6 JUMP JUMPDEST DUP2 EQ PUSH2 0x2F87 JUMPI PUSH0 DUP1 REVERT JUMPDEST POP JUMP JUMPDEST PUSH0 DUP2 MLOAD SWAP1 POP PUSH2 0x2F98 DUP2 PUSH2 0x2F74 JUMP JUMPDEST SWAP3 SWAP2 POP POP JUMP JUMPDEST PUSH0 DUP2 MLOAD SWAP1 POP PUSH2 0x2FAC DUP2 PUSH2 0x2A0A JUMP JUMPDEST SWAP3 SWAP2 POP POP JUMP JUMPDEST PUSH0 PUSH1 0xE0 DUP3 DUP5 SUB SLT ISZERO PUSH2 0x2FC7 JUMPI PUSH2 0x2FC6 PUSH2 0x2F5C JUMP JUMPDEST JUMPDEST PUSH2 0x2FD1 PUSH1 0xE0 PUSH2 0x2AAA JUMP JUMPDEST SWAP1 POP PUSH0 PUSH2 0x2FE0 DUP5 DUP3 DUP6 ADD PUSH2 0x2F60 JUMP JUMPDEST PUSH0 DUP4 ADD MSTORE POP PUSH1 0x20 PUSH2 0x2FF3 DUP5 DUP3 DUP6 ADD PUSH2 0x2F60 JUMP JUMPDEST PUSH1 0x20 DUP4 ADD MSTORE POP PUSH1 0x40 PUSH2 0x3007 DUP5 DUP3 DUP6 ADD PUSH2 0x2F8A JUMP JUMPDEST PUSH1 0x40 DUP4 ADD MSTORE POP PUSH1 0x60 PUSH2 0x301B DUP5 DUP3 DUP6 ADD PUSH2 0x2F60 JUMP JUMPDEST PUSH1 0x60 DUP4 ADD MSTORE POP PUSH1 0x80 PUSH2 0x302F DUP5 DUP3 DUP6 ADD PUSH2 0x2F60 JUMP JUMPDEST PUSH1 0x80 DUP4 ADD MSTORE POP PUSH1 0xA0 PUSH2 0x3043 DUP5 DUP3 DUP6 ADD PUSH2 0x2F9E JUMP JUMPDEST PUSH1 0xA0 DUP4 ADD MSTORE POP PUSH1 0xC0 PUSH2 0x3057 DUP5 DUP3 DUP6 ADD PUSH2 0x2F9E JUMP JUMPDEST PUSH1 0xC0 DUP4 ADD MSTORE POP SWAP3 SWAP2 POP POP JUMP JUMPDEST PUSH0 PUSH1 0xE0 DUP3 DUP5 SUB SLT ISZERO PUSH2 0x3078 JUMPI PUSH2 0x3077 PUSH2 0x299F JUMP JUMPDEST JUMPDEST PUSH0 PUSH2 0x3085 DUP5 DUP3 DUP6 ADD PUSH2 0x2FB2 JUMP JUMPDEST SWAP2 POP POP SWAP3 SWAP2 POP POP JUMP JUMPDEST PUSH0 DUP2 MLOAD SWAP1 POP SWAP2 SWAP1 POP JUMP JUMPDEST PUSH0 DUP3 DUP3 MSTORE PUSH1 0x20 DUP3 ADD SWAP1 POP SWAP3 SWAP2 POP POP JUMP JUMPDEST PUSH0 JUMPDEST DUP4 DUP2 LT ISZERO PUSH2 0x30C5 JUMPI DUP1 DUP3 ADD MLOAD DUP2 DUP5 ADD MSTORE PUSH1 0x20 DUP2 ADD SWAP1 POP PUSH2 0x30AA JUMP JUMPDEST PUSH0 DUP5 DUP5 ADD MSTORE POP POP POP POP JUMP JUMPDEST PUSH0 PUSH2 0x30DA DUP3 PUSH2 0x308E JUMP JUMPDEST PUSH2 0x30E4 DUP2 DUP6 PUSH2 0x3098 JUMP JUMPDEST SWAP4 POP PUSH2 0x30F4 DUP2 DUP6 PUSH1 0x20 DUP7 ADD PUSH2 0x30A8 JUMP JUMPDEST PUSH2 0x30FD DUP2 PUSH2 0x2A3C JUMP JUMPDEST DUP5 ADD SWAP2 POP POP SWAP3 SWAP2 POP POP JUMP JUMPDEST PUSH0 PUSH1 0x80 DUP3 ADD SWAP1 POP PUSH2 0x311B PUSH0 DUP4 ADD DUP8 PUSH2 0x2D47 JUMP JUMPDEST PUSH2 0x3128 PUSH1 0x20 DUP4 ADD DUP7 PUSH2 0x2D47 JUMP JUMPDEST PUSH2 0x3135 PUSH1 0x40 DUP4 ADD DUP6 PUSH2 0x2D56 JUMP JUMPDEST DUP2 DUP2 SUB PUSH1 0x60 DUP4 ADD MSTORE PUSH2 0x3147 DUP2 DUP5 PUSH2 0x30D0 JUMP JUMPDEST SWAP1 POP SWAP6 SWAP5 POP POP POP POP POP JUMP JUMPDEST PUSH0 PUSH1 0x20 DUP3 DUP5 SUB SLT ISZERO PUSH2 0x3167 JUMPI PUSH2 0x3166 PUSH2 0x299F JUMP JUMPDEST JUMPDEST PUSH0 PUSH2 0x3174 DUP5 DUP3 DUP6 ADD PUSH2 0x2F9E JUMP JUMPDEST SWAP2 POP POP SWAP3 SWAP2 POP POP JUMP JUMPDEST PUSH0 PUSH1 0x40 DUP3 ADD SWAP1 POP PUSH2 0x3190 PUSH0 DUP4 ADD DUP6 PUSH2 0x2D56 JUMP JUMPDEST PUSH2 0x319D PUSH1 0x20 DUP4 ADD DUP5 PUSH2 0x2D47 JUMP JUMPDEST SWAP4 SWAP3 POP POP POP JUMP JUMPDEST PUSH0 PUSH1 0x20 DUP3 DUP5 SUB SLT ISZERO PUSH2 0x31B9 JUMPI PUSH2 0x31B8 PUSH2 0x299F JUMP JUMPDEST JUMPDEST PUSH0 PUSH2 0x31C6 DUP5 DUP3 DUP6 ADD PUSH2 0x2F8A JUMP JUMPDEST SWAP2 POP POP SWAP3 SWAP2 POP POP JUMP JUMPDEST PUSH32 0x4E487B7100000000000000000000000000000000000000000000000000000000 PUSH0 MSTORE PUSH1 0x11 PUSH1 0x4 MSTORE PUSH1 0x24 PUSH0 REVERT JUMPDEST PUSH0 PUSH2 0x3206 DUP3 PUSH2 0x2A01 JUMP JUMPDEST SWAP2 POP PUSH32 0xFFFFFFFFFFFFFFFFFFFFFFFFFFFFFFFFFFFFFFFFFFFFFFFFFFFFFFFFFFFFFFFF DUP3 SUB PUSH2 0x3238 JUMPI PUSH2 0x3237 PUSH2 0x31CF JUMP JUMPDEST JUMPDEST PUSH1 0x1 DUP3 ADD SWAP1 POP SWAP2 SWAP1 POP JUMP JUMPDEST PUSH0 PUSH1 0x20 DUP3 DUP5 SUB SLT ISZERO PUSH2 0x3258 JUMPI PUSH2 0x3257 PUSH2 0x299F JUMP JUMPDEST JUMPDEST PUSH0 PUSH2 0x3265 DUP5 DUP3 DUP6 ADD PUSH2 0x2F60 JUMP JUMPDEST SWAP2 POP POP SWAP3 SWAP2 POP POP JUMP JUMPDEST PUSH0 PUSH2 0x3278 DUP3 PUSH2 0x2A01 JUMP JUMPDEST SWAP2 POP PUSH2 0x3283 DUP4 PUSH2 0x2A01 JUMP JUMPDEST SWAP3 POP DUP3 DUP3 SUB SWAP1 POP DUP2 DUP2 GT ISZERO PUSH2 0x329B JUMPI PUSH2 0x329A PUSH2 0x31CF JUMP JUMPDEST JUMPDEST SWAP3 SWAP2 POP POP JUMP JUMPDEST PUSH32 0x417262697472616765206661696C2C206E6F2070726F66697400000000000000 PUSH0 DUP3 ADD MSTORE POP JUMP JUMPDEST PUSH0 PUSH2 0x32D5 PUSH1 0x19 DUP4 PUSH2 0x2E7C JUMP JUMPDEST SWAP2 POP PUSH2 0x32E0 DUP3 PUSH2 0x32A1 JUMP JUMPDEST PUSH1 0x20 DUP3 ADD SWAP1 POP SWAP2 SWAP1 POP JUMP JUMPDEST PUSH0 PUSH1 0x20 DUP3 ADD SWAP1 POP DUP2 DUP2 SUB PUSH0 DUP4 ADD MSTORE PUSH2 0x3302 DUP2 PUSH2 0x32C9 JUMP JUMPDEST SWAP1 POP SWAP2 SWAP1 POP JUMP JUMPDEST PUSH32 0x4E487B7100000000000000000000000000000000000000000000000000000000 PUSH0 MSTORE PUSH1 0x12 PUSH1 0x4 MSTORE PUSH1 0x24 PUSH0 REVERT JUMPDEST PUSH0 PUSH2 0x3340 DUP3 PUSH2 0x2A01 JUMP JUMPDEST SWAP2 POP PUSH2 0x334B DUP4 PUSH2 0x2A01 JUMP JUMPDEST SWAP3 POP DUP3 PUSH2 0x335B JUMPI PUSH2 0x335A PUSH2 0x3309 JUMP JUMPDEST JUMPDEST DUP3 DUP3 DIV SWAP1 POP SWAP3 SWAP2 POP POP JUMP JUMPDEST PUSH2 0x336F DUP2 PUSH2 0x2CD6 JUMP JUMPDEST DUP3 MSTORE POP POP JUMP JUMPDEST PUSH2 0x337E DUP2 PUSH2 0x2A01 JUMP JUMPDEST DUP3 MSTORE POP POP JUMP JUMPDEST PUSH1 0xE0 DUP3 ADD PUSH0 DUP3 ADD MLOAD PUSH2 0x3398 PUSH0 DUP6 ADD DUP3 PUSH2 0x2DCE JUMP JUMPDEST POP PUSH1 0x20 DUP3 ADD MLOAD PUSH2 0x33AB PUSH1 0x20 DUP6 ADD DUP3 PUSH2 0x2DCE JUMP JUMPDEST POP PUSH1 0x40 DUP3 ADD MLOAD PUSH2 0x33BE PUSH1 0x40 DUP6 ADD DUP3 PUSH2 0x3366 JUMP JUMPDEST POP PUSH1 0x60 DUP3 ADD MLOAD PUSH2 0x33D1 PUSH1 0x60 DUP6 ADD DUP3 PUSH2 0x2DCE JUMP JUMPDEST POP PUSH1 0x80 DUP3 ADD MLOAD PUSH2 0x33E4 PUSH1 0x80 DUP6 ADD DUP3 PUSH2 0x2DCE JUMP JUMPDEST POP PUSH1 0xA0 DUP3 ADD MLOAD PUSH2 0x33F7 PUSH1 0xA0 DUP6 ADD DUP3 PUSH2 0x3375 JUMP JUMPDEST POP PUSH1 0xC0 DUP3 ADD MLOAD PUSH2 0x340A PUSH1 0xC0 DUP6 ADD DUP3 PUSH2 0x3375 JUMP JUMPDEST POP POP POP POP JUMP JUMPDEST PUSH0 PUSH1 0xE0 DUP3 ADD SWAP1 POP PUSH2 0x3423 PUSH0 DUP4 ADD DUP5 PUSH2 0x3384 JUMP JUMPDEST SWAP3 SWAP2 POP POP JUMP JUMPDEST PUSH32 0x4C6F73696E67206D6F6E65790000000000000000000000000000000000000000 PUSH0 DUP3 ADD MSTORE POP JUMP JUMPDEST PUSH0 PUSH2 0x345D PUSH1 0xC DUP4 PUSH2 0x2E7C JUMP JUMPDEST SWAP2 POP PUSH2 0x3468 DUP3 PUSH2 0x3429 JUMP JUMPDEST PUSH1 0x20 DUP3 ADD SWAP1 POP SWAP2 SWAP1 POP JUMP JUMPDEST PUSH0 PUSH1 0x20 DUP3 ADD SWAP1 POP DUP2 DUP2 SUB PUSH0 DUP4 ADD MSTORE PUSH2 0x348A DUP2 PUSH2 0x3451 JUMP JUMPDEST SWAP1 POP SWAP2 SWAP1 POP JUMP JUMPDEST PUSH0 PUSH1 0x20 DUP3 ADD SWAP1 POP PUSH2 0x34A4 PUSH0 DUP4 ADD DUP5 PUSH2 0x2D47 JUMP JUMPDEST SWAP3 SWAP2 POP POP JUMP JUMPDEST PUSH32 0x4E487B7100000000000000000000000000000000000000000000000000000000 PUSH0 MSTORE PUSH1 0x32 PUSH1 0x4 MSTORE PUSH1 0x24 PUSH0 REVERT JUMPDEST PUSH32 0x53616D6520706169722061646472657373000000000000000000000000000000 PUSH0 DUP3 ADD MSTORE POP JUMP JUMPDEST PUSH0 PUSH2 0x350B PUSH1 0x11 DUP4 PUSH2 0x2E7C JUMP JUMPDEST SWAP2 POP PUSH2 0x3516 DUP3 PUSH2 0x34D7 JUMP JUMPDEST PUSH1 0x20 DUP3 ADD SWAP1 POP SWAP2 SWAP1 POP JUMP JUMPDEST PUSH0 PUSH1 0x20 DUP3 ADD SWAP1 POP DUP2 DUP2 SUB PUSH0 DUP4 ADD MSTORE PUSH2 0x3538 DUP2 PUSH2 0x34FF JUMP JUMPDEST SWAP1 POP SWAP2 SWAP1 POP JUMP JUMPDEST PUSH32 0x4E6F6E207374616E6461726420756E697377617020414D4D2070616972000000 PUSH0 DUP3 ADD MSTORE POP JUMP JUMPDEST PUSH0 PUSH2 0x3573 PUSH1 0x1D DUP4 PUSH2 0x2E7C JUMP JUMPDEST SWAP2 POP PUSH2 0x357E DUP3 PUSH2 0x353F JUMP JUMPDEST PUSH1 0x20 DUP3 ADD SWAP1 POP SWAP2 SWAP1 POP JUMP JUMPDEST PUSH0 PUSH1 0x20 DUP3 ADD SWAP1 POP DUP2 DUP2 SUB PUSH0 DUP4 ADD MSTORE PUSH2 0x35A0 DUP2 PUSH2 0x3567 JUMP JUMPDEST SWAP1 POP SWAP2 SWAP1 POP JUMP JUMPDEST PUSH32 0x526571756972652073616D6520746F6B656E2070616972000000000000000000 PUSH0 DUP3 ADD MSTORE POP JUMP JUMPDEST PUSH0 PUSH2 0x35DB PUSH1 0x17 DUP4 PUSH2 0x2E7C JUMP JUMPDEST SWAP2 POP PUSH2 0x35E6 DUP3 PUSH2 0x35A7 JUMP JUMPDEST PUSH1 0x20 DUP3 ADD SWAP1 POP SWAP2 SWAP1 POP JUMP JUMPDEST PUSH0 PUSH1 0x20 DUP3 ADD SWAP1 POP DUP2 DUP2 SUB PUSH0 DUP4 ADD MSTORE PUSH2 0x3608 DUP2 PUSH2 0x35CF JUMP JUMPDEST SWAP1 POP SWAP2 SWAP1 POP JUMP JUMPDEST PUSH32 0x4E6F206261736520746F6B656E20696E20706169720000000000000000000000 PUSH0 DUP3 ADD MSTORE POP JUMP JUMPDEST PUSH0 PUSH2 0x3643 PUSH1 0x15 DUP4 PUSH2 0x2E7C JUMP JUMPDEST SWAP2 POP PUSH2 0x364E DUP3 PUSH2 0x360F JUMP JUMPDEST PUSH1 0x20 DUP3 ADD SWAP1 POP SWAP2 SWAP1 POP JUMP JUMPDEST PUSH0 PUSH1 0x20 DUP3 ADD SWAP1 POP DUP2 DUP2 SUB PUSH0 DUP4 ADD MSTORE PUSH2 0x3670 DUP2 PUSH2 0x3637 JUMP JUMPDEST SWAP1 POP SWAP2 SWAP1 POP JUMP JUMPDEST PUSH0 PUSH14 0xFFFFFFFFFFFFFFFFFFFFFFFFFFFF DUP3 AND SWAP1 POP SWAP2 SWAP1 POP JUMP JUMPDEST PUSH2 0x3699 DUP2 PUSH2 0x3677 JUMP JUMPDEST DUP2 EQ PUSH2 0x36A3 JUMPI PUSH0 DUP1 REVERT JUMPDEST POP JUMP JUMPDEST PUSH0 DUP2 MLOAD SWAP1 POP PUSH2 0x36B4 DUP2 PUSH2 0x3690 JUMP JUMPDEST SWAP3 SWAP2 POP POP JUMP JUMPDEST PUSH0 PUSH4 0xFFFFFFFF DUP3 AND SWAP1 POP SWAP2 SWAP1 POP JUMP JUMPDEST PUSH2 0x36D2 DUP2 PUSH2 0x36BA JUMP JUMPDEST DUP2 EQ PUSH2 0x36DC JUMPI PUSH0 DUP1 REVERT JUMPDEST POP JUMP JUMPDEST PUSH0 DUP2 MLOAD SWAP1 POP PUSH2 0x36ED DUP2 PUSH2 0x36C9 JUMP JUMPDEST SWAP3 SWAP2 POP POP JUMP JUMPDEST PUSH0 DUP1 PUSH0 PUSH1 0x60 DUP5 DUP7 SUB SLT ISZERO PUSH2 0x370A JUMPI PUSH2 0x3709 PUSH2 0x299F JUMP JUMPDEST JUMPDEST PUSH0 PUSH2 0x3717 DUP7 DUP3 DUP8 ADD PUSH2 0x36A6 JUMP JUMPDEST SWAP4 POP POP PUSH1 0x20 PUSH2 0x3728 DUP7 DUP3 DUP8 ADD PUSH2 0x36A6 JUMP JUMPDEST SWAP3 POP POP PUSH1 0x40 PUSH2 0x3739 DUP7 DUP3 DUP8 ADD PUSH2 0x36DF JUMP JUMPDEST SWAP2 POP POP SWAP3 POP SWAP3 POP SWAP3 JUMP JUMPDEST PUSH0 DUP2 SWAP1 POP SWAP2 SWAP1 POP JUMP JUMPDEST PUSH0 PUSH2 0x3756 DUP3 PUSH2 0x3743 JUMP JUMPDEST SWAP2 POP PUSH2 0x3761 DUP4 PUSH2 0x3743 JUMP JUMPDEST SWAP3 POP DUP3 DUP3 MUL PUSH2 0x376F DUP2 PUSH2 0x3743 JUMP JUMPDEST SWAP2 POP PUSH32 0x8000000000000000000000000000000000000000000000000000000000000000 DUP5 EQ PUSH0 DUP5 SLT AND ISZERO PUSH2 0x37A6 JUMPI PUSH2 0x37A5 PUSH2 0x31CF JUMP JUMPDEST JUMPDEST DUP3 DUP3 SDIV DUP5 EQ DUP4 ISZERO OR PUSH2 0x37BB JUMPI PUSH2 0x37BA PUSH2 0x31CF JUMP JUMPDEST JUMPDEST POP SWAP3 SWAP2 POP POP JUMP JUMPDEST PUSH0 PUSH2 0x37CC DUP3 PUSH2 0x3743 JUMP JUMPDEST SWAP2 POP PUSH2 0x37D7 DUP4 PUSH2 0x3743 JUMP JUMPDEST SWAP3 POP DUP3 DUP3 SUB SWAP1 POP DUP2 DUP2 SLT PUSH0 DUP5 SLT AND DUP3 DUP3 SGT PUSH0 DUP6 SLT ISZERO AND OR ISZERO PUSH2 0x37FC JUMPI PUSH2 0x37FB PUSH2 0x31CF JUMP JUMPDEST JUMPDEST SWAP3 SWAP2 POP POP JUMP JUMPDEST PUSH0 PUSH2 0x380C DUP3 PUSH2 0x3743 JUMP JUMPDEST SWAP2 POP PUSH2 0x3817 DUP4 PUSH2 0x3743 JUMP JUMPDEST SWAP3 POP DUP3 DUP3 ADD SWAP1 POP DUP3 DUP2 SLT ISZERO PUSH0 DUP4 SLT AND DUP4 DUP3 SLT PUSH0 DUP5 SLT ISZERO AND OR ISZERO PUSH2 0x383D JUMPI PUSH2 0x383C PUSH2 0x31CF JUMP JUMPDEST JUMPDEST SWAP3 SWAP2 POP POP JUMP JUMPDEST PUSH32 0x57726F6E6720696E707574206F72646572000000000000000000000000000000 PUSH0 DUP3 ADD MSTORE POP JUMP JUMPDEST PUSH0 PUSH2 0x3877 PUSH1 0x11 DUP4 PUSH2 0x2E7C JUMP JUMPDEST SWAP2 POP PUSH2 0x3882 DUP3 PUSH2 0x3843 JUMP JUMPDEST PUSH1 0x20 DUP3 ADD SWAP1 POP SWAP2 SWAP1 POP JUMP JUMPDEST PUSH0 PUSH1 0x20 DUP3 ADD SWAP1 POP DUP2 DUP2 SUB PUSH0 DUP4 ADD MSTORE PUSH2 0x38A4 DUP2 PUSH2 0x386B JUMP JUMPDEST SWAP1 POP SWAP2 SWAP1 POP JUMP JUMPDEST PUSH0 PUSH2 0x38B5 DUP3 PUSH2 0x2A01 JUMP JUMPDEST SWAP2 POP PUSH2 0x38C0 DUP4 PUSH2 0x2A01 JUMP JUMPDEST SWAP3 POP DUP3 DUP3 MUL PUSH2 0x38CE DUP2 PUSH2 0x2A01 JUMP JUMPDEST SWAP2 POP DUP3 DUP3 DIV DUP5 EQ DUP4 ISZERO OR PUSH2 0x38E5 JUMPI PUSH2 0x38E4 PUSH2 0x31CF JUMP JUMPDEST JUMPDEST POP SWAP3 SWAP2 POP POP JUMP JUMPDEST PUSH32 0x556E697377617056324C6962726172793A20494E53554646494349454E545F4F PUSH0 DUP3 ADD MSTORE PUSH32 0x55545055545F414D4F554E540000000000000000000000000000000000000000 PUSH1 0x20 DUP3 ADD MSTORE POP JUMP JUMPDEST PUSH0 PUSH2 0x3946 PUSH1 0x2C DUP4 PUSH2 0x2E7C JUMP JUMPDEST SWAP2 POP PUSH2 0x3951 DUP3 PUSH2 0x38EC JUMP JUMPDEST PUSH1 0x40 DUP3 ADD SWAP1 POP SWAP2 SWAP1 POP JUMP JUMPDEST PUSH0 PUSH1 0x20 DUP3 ADD SWAP1 POP DUP2 DUP2 SUB PUSH0 DUP4 ADD MSTORE PUSH2 0x3973 DUP2 PUSH2 0x393A JUMP JUMPDEST SWAP1 POP SWAP2 SWAP1 POP JUMP JUMPDEST PUSH32 0x556E697377617056324C6962726172793A20494E53554646494349454E545F4C PUSH0 DUP3 ADD MSTORE PUSH32 0x4951554944495459000000000000000000000000000000000000000000000000 PUSH1 0x20 DUP3 ADD MSTORE POP JUMP JUMPDEST PUSH0 PUSH2 0x39D4 PUSH1 0x28 DUP4 PUSH2 0x2E7C JUMP JUMPDEST SWAP2 POP PUSH2 0x39DF DUP3 PUSH2 0x397A JUMP JUMPDEST PUSH1 0x40 DUP3 ADD SWAP1 POP SWAP2 SWAP1 POP JUMP JUMPDEST PUSH0 PUSH1 0x20 DUP3 ADD SWAP1 POP DUP2 DUP2 SUB PUSH0 DUP4 ADD MSTORE PUSH2 0x3A01 DUP2 PUSH2 0x39C8 JUMP JUMPDEST SWAP1 POP SWAP2 SWAP1 POP JUMP JUMPDEST PUSH0 PUSH2 0x3A12 DUP3 PUSH2 0x2A01 JUMP JUMPDEST SWAP2 POP PUSH2 0x3A1D DUP4 PUSH2 0x2A01 JUMP JUMPDEST SWAP3 POP DUP3 DUP3 ADD SWAP1 POP DUP1 DUP3 GT ISZERO PUSH2 0x3A35 JUMPI PUSH2 0x3A34 PUSH2 0x31CF JUMP JUMPDEST JUMPDEST SWAP3 SWAP2 POP POP JUMP JUMPDEST PUSH32 0x556E697377617056324C6962726172793A20494E53554646494349454E545F49 PUSH0 DUP3 ADD MSTORE PUSH32 0x4E5055545F414D4F554E54000000000000000000000000000000000000000000 PUSH1 0x20 DUP3 ADD MSTORE POP JUMP JUMPDEST PUSH0 PUSH2 0x3A95 PUSH1 0x2B DUP4 PUSH2 0x2E7C JUMP JUMPDEST SWAP2 POP PUSH2 0x3AA0 DUP3 PUSH2 0x3A3B JUMP JUMPDEST PUSH1 0x40 DUP3 ADD SWAP1 POP SWAP2 SWAP1 POP JUMP JUMPDEST PUSH0 PUSH1 0x20 DUP3 ADD SWAP1 POP DUP2 DUP2 SUB PUSH0 DUP4 ADD MSTORE PUSH2 0x3AC2 DUP2 PUSH2 0x3A89 JUMP JUMPDEST SWAP1 POP SWAP2 SWAP1 POP JUMP JUMPDEST PUSH0 DUP2 MLOAD SWAP1 POP SWAP2 SWAP1 POP JUMP JUMPDEST PUSH0 PUSH2 0x3ADD DUP3 PUSH2 0x3AC9 JUMP JUMPDEST PUSH2 0x3AE7 DUP2 DUP6 PUSH2 0x2E7C JUMP JUMPDEST SWAP4 POP PUSH2 0x3AF7 DUP2 DUP6 PUSH1 0x20 DUP7 ADD PUSH2 0x30A8 JUMP JUMPDEST PUSH2 0x3B00 DUP2 PUSH2 0x2A3C JUMP JUMPDEST DUP5 ADD SWAP2 POP POP SWAP3 SWAP2 POP POP JUMP JUMPDEST PUSH0 PUSH1 0x40 DUP3 ADD SWAP1 POP DUP2 DUP2 SUB PUSH0 DUP4 ADD MSTORE PUSH2 0x3B23 DUP2 DUP6 PUSH2 0x3AD3 JUMP JUMPDEST SWAP1 POP PUSH2 0x3B32 PUSH1 0x20 DUP4 ADD DUP5 PUSH2 0x2D47 JUMP JUMPDEST SWAP4 SWAP3 POP POP POP JUMP JUMPDEST PUSH0 PUSH1 0x40 DUP3 ADD SWAP1 POP DUP2 DUP2 SUB PUSH0 DUP4 ADD MSTORE PUSH2 0x3B51 DUP2 DUP6 PUSH2 0x3AD3 JUMP JUMPDEST SWAP1 POP PUSH2 0x3B60 PUSH1 0x20 DUP4 ADD DUP5 PUSH2 0x2D56 JUMP JUMPDEST SWAP4 SWAP3 POP POP POP JUMP JUMPDEST PUSH0 DUP2 PUSH1 0x1 SHR SWAP1 POP SWAP2 SWAP1 POP JUMP JUMPDEST PUSH0 DUP1 DUP3 SWAP2 POP DUP4 SWAP1 POP JUMPDEST PUSH1 0x1 DUP6 GT ISZERO PUSH2 0x3BBC JUMPI DUP1 DUP7 DIV DUP2 GT ISZERO PUSH2 0x3B98 JUMPI PUSH2 0x3B97 PUSH2 0x31CF JUMP JUMPDEST JUMPDEST PUSH1 0x1 DUP6 AND ISZERO PUSH2 0x3BA7 JUMPI DUP1 DUP3 MUL SWAP2 POP JUMPDEST DUP1 DUP2 MUL SWAP1 POP PUSH2 0x3BB5 DUP6 PUSH2 0x3B67 JUMP JUMPDEST SWAP5 POP PUSH2 0x3B7C JUMP JUMPDEST SWAP5 POP SWAP5 SWAP3 POP POP POP JUMP JUMPDEST PUSH0 DUP3 PUSH0 DUP2 EQ PUSH2 0x3BDB JUMPI PUSH1 0x1 DUP2 EQ PUSH2 0x3BE5 JUMPI PUSH2 0x3BEE JUMP JUMPDEST PUSH1 0x1 SWAP2 POP POP PUSH2 0x3CA5 JUMP JUMPDEST DUP3 SWAP2 POP POP PUSH2 0x3CA5 JUMP JUMPDEST POP DUP2 PUSH2 0x3BFC JUMPI PUSH0 SWAP1 POP PUSH2 0x3CA5 JUMP JUMPDEST PUSH1 0x1 SWAP1 POP PUSH0 DUP3 SGT PUSH1 0x1 DUP2 EQ PUSH2 0x3C17 JUMPI PUSH0 DUP2 EQ PUSH2 0x3C2F JUMPI PUSH2 0x3C43 JUMP JUMPDEST DUP3 DUP7 DIV DUP4 GT ISZERO PUSH2 0x3C2A JUMPI PUSH2 0x3C29 PUSH2 0x31CF JUMP JUMPDEST JUMPDEST PUSH2 0x3C43 JUMP JUMPDEST DUP3 DUP7 SDIV DUP4 SLT ISZERO PUSH2 0x3C42 JUMPI PUSH2 0x3C41 PUSH2 0x31CF JUMP JUMPDEST JUMPDEST JUMPDEST POP PUSH1 0x1 DUP4 AND ISZERO PUSH2 0x3C51 JUMPI DUP2 SWAP1 POP JUMPDEST DUP2 DUP3 MUL SWAP2 POP PUSH2 0x3C5F DUP4 PUSH2 0x3B67 JUMP JUMPDEST SWAP3 POP PUSH2 0x3C6D DUP6 DUP5 DUP5 DUP5 PUSH2 0x3B73 JUMP JUMPDEST SWAP3 POP SWAP1 POP DUP2 DUP6 DIV DUP2 GT PUSH0 DUP3 SGT AND ISZERO PUSH2 0x3C88 JUMPI PUSH2 0x3C87 PUSH2 0x31CF JUMP JUMPDEST JUMPDEST DUP2 DUP5 SDIV DUP2 SLT PUSH0 DUP3 SLT AND ISZERO PUSH2 0x3C9F JUMPI PUSH2 0x3C9E PUSH2 0x31CF JUMP JUMPDEST JUMPDEST DUP2 DUP2 MUL SWAP1 POP JUMPDEST SWAP5 SWAP4 POP POP POP POP JUMP JUMPDEST PUSH0 PUSH1 0xFF DUP3 AND SWAP1 POP SWAP2 SWAP1 POP JUMP JUMPDEST PUSH0 PUSH2 0x3CC3 DUP3 PUSH2 0x3743 JUMP JUMPDEST SWAP2 POP PUSH2 0x3CCE DUP4 PUSH2 0x3CAD JUMP JUMPDEST SWAP3 POP PUSH2 0x3D1C PUSH32 0x7FFFFFFFFFFFFFFFFFFFFFFFFFFFFFFFFFFFFFFFFFFFFFFFFFFFFFFFFFFFFFFF PUSH32 0x8000000000000000000000000000000000000000000000000000000000000000 DUP6 DUP6 PUSH2 0x3BC5 JUMP JUMPDEST SWAP1 POP SWAP3 SWAP2 POP POP JUMP JUMPDEST PUSH32 0x436F6D706C6578206E756D626572000000000000000000000000000000000000 PUSH0 DUP3 ADD MSTORE POP JUMP JUMPDEST PUSH0 PUSH2 0x3D58 PUSH1 0xE DUP4 PUSH2 0x2E7C JUMP JUMPDEST SWAP2 POP PUSH2 0x3D63 DUP3 PUSH2 0x3D24 JUMP JUMPDEST PUSH1 0x20 DUP3 ADD SWAP1 POP SWAP2 SWAP1 POP JUMP JUMPDEST PUSH0 PUSH1 0x20 DUP3 ADD SWAP1 POP DUP2 DUP2 SUB PUSH0 DUP4 ADD MSTORE PUSH2 0x3D85 DUP2 PUSH2 0x3D4C JUMP JUMPDEST SWAP1 POP SWAP2 SWAP1 POP JUMP JUMPDEST PUSH0 PUSH2 0x3D96 DUP3 PUSH2 0x3743 JUMP JUMPDEST SWAP2 POP PUSH32 0x8000000000000000000000000000000000000000000000000000000000000000 DUP3 SUB PUSH2 0x3DC8 JUMPI PUSH2 0x3DC7 PUSH2 0x31CF JUMP JUMPDEST JUMPDEST DUP2 PUSH0 SUB SWAP1 POP SWAP2 SWAP1 POP JUMP JUMPDEST PUSH0 PUSH2 0x3DDC DUP3 PUSH2 0x3743 JUMP JUMPDEST SWAP2 POP PUSH2 0x3DE7 DUP4 PUSH2 0x3743 JUMP JUMPDEST SWAP3 POP DUP3 PUSH2 0x3DF7 JUMPI PUSH2 0x3DF6 PUSH2 0x3309 JUMP JUMPDEST JUMPDEST PUSH1 0x1 PUSH0 SUB DUP4 EQ PUSH32 0x8000000000000000000000000000000000000000000000000000000000000000 DUP4 EQ AND ISZERO PUSH2 0x3E2F JUMPI PUSH2 0x3E2E PUSH2 0x31CF JUMP JUMPDEST JUMPDEST DUP3 DUP3 SDIV SWAP1 POP SWAP3 SWAP2 POP POP JUMP JUMPDEST PUSH32 0x4E487B7100000000000000000000000000000000000000000000000000000000 PUSH0 MSTORE PUSH1 0x31 PUSH1 0x4 MSTORE PUSH1 0x24 PUSH0 REVERT JUMPDEST PUSH32 0x536166654D6174683A206D756C7469706C69636174696F6E206F766572666C6F PUSH0 DUP3 ADD MSTORE PUSH32 0x7700000000000000000000000000000000000000000000000000000000000000 PUSH1 0x20 DUP3 ADD MSTORE POP JUMP JUMPDEST PUSH0 PUSH2 0x3EC1 PUSH1 0x21 DUP4 PUSH2 0x2E7C JUMP JUMPDEST SWAP2 POP PUSH2 0x3ECC DUP3 PUSH2 0x3E67 JUMP JUMPDEST PUSH1 0x40 DUP3 ADD SWAP1 POP SWAP2 SWAP1 POP JUMP JUMPDEST PUSH0 PUSH1 0x20 DUP3 ADD SWAP1 POP DUP2 DUP2 SUB PUSH0 DUP4 ADD MSTORE PUSH2 0x3EEE DUP2 PUSH2 0x3EB5 JUMP JUMPDEST SWAP1 POP SWAP2 SWAP1 POP JUMP JUMPDEST PUSH32 0x4E487B7100000000000000000000000000000000000000000000000000000000 PUSH0 MSTORE PUSH1 0x1 PUSH1 0x4 MSTORE PUSH1 0x24 PUSH0 REVERT JUMPDEST PUSH0 PUSH1 0x20 DUP3 ADD SWAP1 POP DUP2 DUP2 SUB PUSH0 DUP4 ADD MSTORE PUSH2 0x3F3A DUP2 DUP5 PUSH2 0x3AD3 JUMP JUMPDEST SWAP1 POP SWAP3 SWAP2 POP POP JUMP JUMPDEST PUSH32 0x4E487B7100000000000000000000000000000000000000000000000000000000 PUSH0 MSTORE PUSH1 0x51 PUSH1 0x4 MSTORE PUSH1 0x24 PUSH0 REVERT INVALID LOG2 PUSH5 0x6970667358 0x22 SLT KECCAK256 ISZERO 0x4C 0xDD PUSH29 0x126B3A5AF4DBD8E5F622533C724B63210EB4602E9B7A43A14074234A64 PUSH20 0x6F6C634300081400330000000000000000000000 "
		},
		"gasEstimates": {
			"creation": {
				"codeDepositCost": "3258600",
				"executionCost": "infinite",
				"totalCost": "infinite"
			},
			"external": {
				"": "infinite",
				"addBaseToken(address)": "infinite",
				"baseTokensContains(address)": "infinite",
				"flashArbitrage(address,address)": "infinite",
				"getBaseTokens()": "infinite",
				"getProfit(address,address)": "infinite",
				"owner()": "2537",
				"removeBaseToken(address)": "infinite",
				"renounceOwnership()": "infinite",
				"transferOwnership(address)": "infinite",
				"uniswapV2Call(address,uint256,uint256,bytes)": "infinite",
				"withdraw()": "infinite"
			},
			"internal": {
				"calcBorrowAmount(struct OrderedReserves memory)": "infinite",
				"calcSolutionForQuadratic(int256,int256,int256)": "infinite",
				"getAmountIn(uint256,uint256,uint256)": "infinite",
				"getAmountOut(uint256,uint256,uint256)": "infinite",
				"getOrderedReserves(address,address,bool)": "infinite",
				"isbaseTokenSmaller(address,address)": "infinite",
				"sqrt(uint256)": "infinite"
			}
		},
		"methodIdentifiers": {
			"addBaseToken(address)": "83e280d9",
			"baseTokensContains(address)": "21d09426",
			"flashArbitrage(address,address)": "baee64f1",
			"getBaseTokens()": "bed64c2f",
			"getProfit(address,address)": "759eee10",
			"owner()": "8da5cb5b",
			"removeBaseToken(address)": "bbd1e122",
			"renounceOwnership()": "715018a6",
			"transferOwnership(address)": "f2fde38b",
			"uniswapV2Call(address,uint256,uint256,bytes)": "10d1e85c",
			"withdraw()": "3ccfd60b"
		}
	},
	"abi": [
		{
			"inputs": [
				{
					"internalType": "address",
					"name": "_WETH",
					"type": "address"
				}
			],
			"stateMutability": "nonpayable",
			"type": "constructor"
		},
		{
			"inputs": [
				{
					"internalType": "address",
					"name": "owner",
					"type": "address"
				}
			],
			"name": "OwnableInvalidOwner",
			"type": "error"
		},
		{
			"inputs": [
				{
					"internalType": "address",
					"name": "account",
					"type": "address"
				}
			],
			"name": "OwnableUnauthorizedAccount",
			"type": "error"
		},
		{
			"inputs": [
				{
					"internalType": "address",
					"name": "token",
					"type": "address"
				}
			],
			"name": "SafeERC20FailedOperation",
			"type": "error"
		},
		{
			"anonymous": false,
			"inputs": [
				{
					"indexed": true,
					"internalType": "address",
					"name": "token",
					"type": "address"
				}
			],
			"name": "BaseTokenAdded",
			"type": "event"
		},
		{
			"anonymous": false,
			"inputs": [
				{
					"indexed": true,
					"internalType": "address",
					"name": "token",
					"type": "address"
				}
			],
			"name": "BaseTokenRemoved",
			"type": "event"
		},
		{
			"anonymous": false,
			"inputs": [
				{
					"indexed": true,
					"internalType": "address",
					"name": "previousOwner",
					"type": "address"
				},
				{
					"indexed": true,
					"internalType": "address",
					"name": "newOwner",
					"type": "address"
				}
			],
			"name": "OwnershipTransferred",
			"type": "event"
		},
		{
			"anonymous": false,
			"inputs": [
				{
					"indexed": true,
					"internalType": "address",
					"name": "to",
					"type": "address"
				},
				{
					"indexed": true,
					"internalType": "uint256",
					"name": "value",
					"type": "uint256"
				}
			],
			"name": "Withdrawn",
			"type": "event"
		},
		{
			"stateMutability": "nonpayable",
			"type": "fallback"
		},
		{
			"inputs": [
				{
					"internalType": "address",
					"name": "token",
					"type": "address"
				}
			],
			"name": "addBaseToken",
			"outputs": [],
			"stateMutability": "nonpayable",
			"type": "function"
		},
		{
			"inputs": [
				{
					"internalType": "address",
					"name": "token",
					"type": "address"
				}
			],
			"name": "baseTokensContains",
			"outputs": [
				{
					"internalType": "bool",
					"name": "",
					"type": "bool"
				}
			],
			"stateMutability": "view",
			"type": "function"
		},
		{
			"inputs": [
				{
					"internalType": "address",
					"name": "pool0",
					"type": "address"
				},
				{
					"internalType": "address",
					"name": "pool1",
					"type": "address"
				}
			],
			"name": "flashArbitrage",
			"outputs": [],
			"stateMutability": "nonpayable",
			"type": "function"
		},
		{
			"inputs": [],
			"name": "getBaseTokens",
			"outputs": [
				{
					"internalType": "address[]",
					"name": "tokens",
					"type": "address[]"
				}
			],
			"stateMutability": "view",
			"type": "function"
		},
		{
			"inputs": [
				{
					"internalType": "address",
					"name": "pool0",
					"type": "address"
				},
				{
					"internalType": "address",
					"name": "pool1",
					"type": "address"
				}
			],
			"name": "getProfit",
			"outputs": [
				{
					"internalType": "uint256",
					"name": "profit",
					"type": "uint256"
				},
				{
					"internalType": "address",
					"name": "baseToken",
					"type": "address"
				}
			],
			"stateMutability": "view",
			"type": "function"
		},
		{
			"inputs": [],
			"name": "owner",
			"outputs": [
				{
					"internalType": "address",
					"name": "",
					"type": "address"
				}
			],
			"stateMutability": "view",
			"type": "function"
		},
		{
			"inputs": [
				{
					"internalType": "address",
					"name": "token",
					"type": "address"
				}
			],
			"name": "removeBaseToken",
			"outputs": [],
			"stateMutability": "nonpayable",
			"type": "function"
		},
		{
			"inputs": [],
			"name": "renounceOwnership",
			"outputs": [],
			"stateMutability": "nonpayable",
			"type": "function"
		},
		{
			"inputs": [
				{
					"internalType": "address",
					"name": "newOwner",
					"type": "address"
				}
			],
			"name": "transferOwnership",
			"outputs": [],
			"stateMutability": "nonpayable",
			"type": "function"
		},
		{
			"inputs": [
				{
					"internalType": "address",
					"name": "sender",
					"type": "address"
				},
				{
					"internalType": "uint256",
					"name": "amount0",
					"type": "uint256"
				},
				{
					"internalType": "uint256",
					"name": "amount1",
					"type": "uint256"
				},
				{
					"internalType": "bytes",
					"name": "data",
					"type": "bytes"
				}
			],
			"name": "uniswapV2Call",
			"outputs": [],
			"stateMutability": "nonpayable",
			"type": "function"
		},
		{
			"inputs": [],
			"name": "withdraw",
			"outputs": [],
			"stateMutability": "nonpayable",
			"type": "function"
		},
		{
			"stateMutability": "payable",
			"type": "receive"
		}
	]
}