{
	"data": {
		"bytecode": {
			"linkReferences": {},
			"object": "60a06040526001805f6101000a81548173ffffffffffffffffffffffffffffffffffffffff021916908373ffffffffffffffffffffffffffffffffffffffff16021790555034801562000050575f80fd5b50604051620045e7380380620045e783398181016040528101906200007691906200033a565b335f73ffffffffffffffffffffffffffffffffffffffff168173ffffffffffffffffffffffffffffffffffffffff1603620000ea575f6040517f1e4fbdf7000000000000000000000000000000000000000000000000000000008152600401620000e191906200037b565b60405180910390fd5b620000fb816200014e60201b60201c565b508073ffffffffffffffffffffffffffffffffffffffff1660808173ffffffffffffffffffffffffffffffffffffffff1681525050620001468160026200020f60201b90919060201c565b505062000396565b5f805f9054906101000a900473ffffffffffffffffffffffffffffffffffffffff169050815f806101000a81548173ffffffffffffffffffffffffffffffffffffffff021916908373ffffffffffffffffffffffffffffffffffffffff1602179055508173ffffffffffffffffffffffffffffffffffffffff168173ffffffffffffffffffffffffffffffffffffffff167f8be0079c531659141344cd1fd0a4f28419497f9722a3daafe3b4186f6b6457e060405160405180910390a35050565b5f6200023c835f018373ffffffffffffffffffffffffffffffffffffffff165f1b6200024460201b60201c565b905092915050565b5f620002578383620002b560201b60201c565b620002ab57825f0182908060018154018082558091505060019003905f5260205f20015f9091909190915055825f0180549050836001015f8481526020019081526020015f208190555060019050620002af565b5f90505b92915050565b5f80836001015f8481526020019081526020015f20541415905092915050565b5f80fd5b5f73ffffffffffffffffffffffffffffffffffffffff82169050919050565b5f6200030482620002d9565b9050919050565b6200031681620002f8565b811462000321575f80fd5b50565b5f8151905062000334816200030b565b92915050565b5f60208284031215620003525762000351620002d5565b5b5f620003618482850162000324565b91505092915050565b6200037581620002f8565b82525050565b5f602082019050620003905f8301846200036a565b92915050565b608051614238620003af5f395f610e8b01526142385ff3fe60806040526004361061009f575f3560e01c806383e280d91161006357806383e280d9146101db5780638da5cb5b14610203578063baee64f11461022d578063bbd1e12214610255578063bed64c2f1461027d578063f2fde38b146102a7576100a6565b806310d1e85c1461010e57806321d09426146101365780633ccfd60b14610172578063715018a614610188578063759eee101461019e576100a6565b366100a657005b3480156100b1575f80fd5b505f3660605f805f80868660049080926100cd93929190612ac0565b8101906100da9190612ccb565b93509350935093506100ee848484846102cf565b60405180602001604052805f815250945050505050915050805190602001f35b348015610119575f80fd5b50610134600480360381019061012f9190612d86565b6102cf565b005b348015610141575f80fd5b5061015c60048036038101906101579190612e06565b610545565b6040516101699190612e4b565b60405180910390f35b34801561017d575f80fd5b50610186610561565b005b348015610193575f80fd5b5061019c61074c565b005b3480156101a9575f80fd5b506101c460048036038101906101bf9190612e64565b61075f565b6040516101d2929190612ec0565b60405180910390f35b3480156101e6575f80fd5b5061020160048036038101906101fc9190612e06565b6108c9565b005b34801561020e575f80fd5b5061021761092c565b6040516102249190612ee7565b60405180910390f35b348015610238575f80fd5b50610253600480360381019061024e9190612e64565b610953565b005b348015610260575f80fd5b5061027b60048036038101906102769190612e06565b610f91565b005b348015610288575f80fd5b506102916110fc565b60405161029e9190612fb7565b60405180910390f35b3480156102b2575f80fd5b506102cd60048036038101906102c89190612e06565b6111d9565b005b60015f9054906101000a900473ffffffffffffffffffffffffffffffffffffffff1673ffffffffffffffffffffffffffffffffffffffff163373ffffffffffffffffffffffffffffffffffffffff161461035e576040517f08c379a000000000000000000000000000000000000000000000000000000000815260040161035590613031565b60405180910390fd5b3073ffffffffffffffffffffffffffffffffffffffff168473ffffffffffffffffffffffffffffffffffffffff16146103cc576040517f08c379a00000000000000000000000000000000000000000000000000000000081526004016103c390613099565b60405180910390fd5b5f8084116103da57826103dc565b835b90505f828060200190518101906103f391906131be565b9050610428816020015183836060015173ffffffffffffffffffffffffffffffffffffffff1661125d9092919063ffffffff16565b5f80826040015161043e575f8360c00151610445565b8260c001515f5b91509150826020015173ffffffffffffffffffffffffffffffffffffffff1663022c0d9f8383305f67ffffffffffffffff81111561048657610485612ba7565b5b6040519080825280601f01601f1916602001820160405280156104b85781602001600182028036833780820191505090505b506040518563ffffffff1660e01b81526004016104d89493929190613263565b5f604051808303815f87803b1580156104ef575f80fd5b505af1158015610501573d5f803e3d5ffd5b5050505061053b835f01518460a00151856080015173ffffffffffffffffffffffffffffffffffffffff1661125d9092919063ffffffff16565b5050505050505050565b5f61055a8260026112dc90919063ffffffff16565b9050919050565b5f4790505f8111156106045761057561092c565b73ffffffffffffffffffffffffffffffffffffffff166108fc8290811502906040515f60405180830381858888f193505050501580156105b7573d5f803e3d5ffd5b50806105c161092c565b73ffffffffffffffffffffffffffffffffffffffff167f7084f5476618d8e60b11ef0d7d3f06914655adb8793e28ff7f018d4c76d505d560405160405180910390a35b5f5b6106106002611309565b811015610748575f61062c82600261131c90919063ffffffff16565b90508073ffffffffffffffffffffffffffffffffffffffff166370a08231306040518263ffffffff1660e01b81526004016106679190612ee7565b602060405180830381865afa158015610682573d5f803e3d5ffd5b505050506040513d601f19601f820116820180604052508101906106a691906132ad565b92505f831115610734578073ffffffffffffffffffffffffffffffffffffffff1663a9059cbb6106d461092c565b856040518363ffffffff1660e01b81526004016106f29291906132d8565b6020604051808303815f875af115801561070e573d5f803e3d5ffd5b505050506040513d601f19601f8201168201806040525081019061073291906132ff565b505b50808061074090613357565b915050610606565b5050565b610754611333565b61075d5f6113ba565b565b5f805f61076c858561147b565b50509050806107e7578473ffffffffffffffffffffffffffffffffffffffff1663d21220a76040518163ffffffff1660e01b8152600401602060405180830381865afa1580156107be573d5f803e3d5ffd5b505050506040513d601f19601f820116820180604052508101906107e2919061339e565b610855565b8473ffffffffffffffffffffffffffffffffffffffff16630dfe16816040518163ffffffff1660e01b8152600401602060405180830381865afa158015610830573d5f803e3d5ffd5b505050506040513d601f19601f82011682018060405250810190610854919061339e565b5b91505f61086386868461187f565b925050505f61087182611b59565b90505f61088682845f01518560200151611eb0565b90505f61089c8385606001518660400151611fbe565b9050818110156108ae575f96506108bd565b81816108ba91906133c9565b96505b50505050509250929050565b6108d1611333565b6108e58160026120be90919063ffffffff16565b508073ffffffffffffffffffffffffffffffffffffffff167ffa1388d6e7328e9c711a539b0addfc27de8bfb6f5924cce26f80f41023b1525360405160405180910390a250565b5f805f9054906101000a900473ffffffffffffffffffffffffffffffffffffffff16905090565b61095b61295b565b610965838361147b565b83604001845f01856020018373ffffffffffffffffffffffffffffffffffffffff1673ffffffffffffffffffffffffffffffffffffffff168152508373ffffffffffffffffffffffffffffffffffffffff1673ffffffffffffffffffffffffffffffffffffffff1681525083151515158152505050506109e36129df565b6109f28484846040015161187f565b84606001856080018295508373ffffffffffffffffffffffffffffffffffffffff1673ffffffffffffffffffffffffffffffffffffffff168152508373ffffffffffffffffffffffffffffffffffffffff1673ffffffffffffffffffffffffffffffffffffffff16815250505050816060015160015f6101000a81548173ffffffffffffffffffffffffffffffffffffffff021916908373ffffffffffffffffffffffffffffffffffffffff1602179055505f825f015173ffffffffffffffffffffffffffffffffffffffff166370a08231306040518263ffffffff1660e01b8152600401610ae19190612ee7565b602060405180830381865afa158015610afc573d5f803e3d5ffd5b505050506040513d601f19601f82011682018060405250810190610b2091906132ad565b90505f610b2c83611b59565b90505f808560400151610b4057825f610b43565b5f835b915091505f610b5a84875f01518860200151611eb0565b90505f610b708588606001518960400151611fbe565b9050818111610bb4576040517f08c379a0000000000000000000000000000000000000000000000000000000008152600401610bab90613446565b60405180910390fd5b610c116040518060400160405280600781526020017f50726f6669743a00000000000000000000000000000000000000000000000000815250670de0b6b3a76400008484610c0291906133c9565b610c0c9190613491565b6120eb565b610c19612a03565b8860600151815f019073ffffffffffffffffffffffffffffffffffffffff16908173ffffffffffffffffffffffffffffffffffffffff16815250508860800151816020019073ffffffffffffffffffffffffffffffffffffffff16908173ffffffffffffffffffffffffffffffffffffffff168152505088604001518160400190151590811515815250508860200151816060019073ffffffffffffffffffffffffffffffffffffffff16908173ffffffffffffffffffffffffffffffffffffffff1681525050885f0151816080019073ffffffffffffffffffffffffffffffffffffffff16908173ffffffffffffffffffffffffffffffffffffffff1681525050828160a0018181525050818160c00181815250505f81604051602001610d41919061356b565b6040516020818303038152906040529050896060015173ffffffffffffffffffffffffffffffffffffffff1663022c0d9f878730856040518563ffffffff1660e01b8152600401610d959493929190613263565b5f604051808303815f87803b158015610dac575f80fd5b505af1158015610dbe573d5f803e3d5ffd5b50505050505050505050505f835f015173ffffffffffffffffffffffffffffffffffffffff166370a08231306040518263ffffffff1660e01b8152600401610e069190612ee7565b602060405180830381865afa158015610e21573d5f803e3d5ffd5b505050506040513d601f19601f82011682018060405250810190610e4591906132ad565b9050818111610e89576040517f08c379a0000000000000000000000000000000000000000000000000000000008152600401610e80906135ce565b60405180910390fd5b7f000000000000000000000000000000000000000000000000000000000000000073ffffffffffffffffffffffffffffffffffffffff16845f015173ffffffffffffffffffffffffffffffffffffffff1603610f4957835f015173ffffffffffffffffffffffffffffffffffffffff16632e1a7d4d826040518263ffffffff1660e01b8152600401610f1b91906135ec565b5f604051808303815f87803b158015610f32575f80fd5b505af1158015610f44573d5f803e3d5ffd5b505050505b6001805f6101000a81548173ffffffffffffffffffffffffffffffffffffffff021916908373ffffffffffffffffffffffffffffffffffffffff160217905550505050505050565b610f99611333565b5f8173ffffffffffffffffffffffffffffffffffffffff166370a08231306040518263ffffffff1660e01b8152600401610fd39190612ee7565b602060405180830381865afa158015610fee573d5f803e3d5ffd5b505050506040513d601f19601f8201168201806040525081019061101291906132ad565b90505f8111156110a0578173ffffffffffffffffffffffffffffffffffffffff1663a9059cbb61104061092c565b836040518363ffffffff1660e01b815260040161105e9291906132d8565b6020604051808303815f875af115801561107a573d5f803e3d5ffd5b505050506040513d601f19601f8201168201806040525081019061109e91906132ff565b505b6110b482600261218790919063ffffffff16565b508173ffffffffffffffffffffffffffffffffffffffff167fdc23a849435922f20a9732eb85192a9d0c1cb34725ebe6d7de0be10212ba02fb60405160405180910390a25050565b60605f6111096002611309565b90508067ffffffffffffffff81111561112557611124612ba7565b5b6040519080825280602002602001820160405280156111535781602001602082028036833780820191505090505b5091505f5b818110156111d45761117481600261131c90919063ffffffff16565b83828151811061118757611186613605565b5b602002602001019073ffffffffffffffffffffffffffffffffffffffff16908173ffffffffffffffffffffffffffffffffffffffff168152505080806111cc90613357565b915050611158565b505090565b6111e1611333565b5f73ffffffffffffffffffffffffffffffffffffffff168173ffffffffffffffffffffffffffffffffffffffff1603611251575f6040517f1e4fbdf70000000000000000000000000000000000000000000000000000000081526004016112489190612ee7565b60405180910390fd5b61125a816113ba565b50565b6112d7838473ffffffffffffffffffffffffffffffffffffffff1663a9059cbb85856040516024016112909291906132d8565b604051602081830303815290604052915060e01b6020820180517bffffffffffffffffffffffffffffffffffffffffffffffffffffffff83818316178352505050506121b4565b505050565b5f611301835f018373ffffffffffffffffffffffffffffffffffffffff165f1b61224f565b905092915050565b5f611315825f0161226f565b9050919050565b5f611329835f018361227e565b5f1c905092915050565b61133b6122a5565b73ffffffffffffffffffffffffffffffffffffffff1661135961092c565b73ffffffffffffffffffffffffffffffffffffffff16146113b85761137c6122a5565b6040517f118cdaa70000000000000000000000000000000000000000000000000000000081526004016113af9190612ee7565b60405180910390fd5b565b5f805f9054906101000a900473ffffffffffffffffffffffffffffffffffffffff169050815f806101000a81548173ffffffffffffffffffffffffffffffffffffffff021916908373ffffffffffffffffffffffffffffffffffffffff1602179055508173ffffffffffffffffffffffffffffffffffffffff168173ffffffffffffffffffffffffffffffffffffffff167f8be0079c531659141344cd1fd0a4f28419497f9722a3daafe3b4186f6b6457e060405160405180910390a35050565b5f805f8373ffffffffffffffffffffffffffffffffffffffff168573ffffffffffffffffffffffffffffffffffffffff16036114ec576040517f08c379a00000000000000000000000000000000000000000000000000000000081526004016114e39061367c565b60405180910390fd5b5f808673ffffffffffffffffffffffffffffffffffffffff16630dfe16816040518163ffffffff1660e01b8152600401602060405180830381865afa158015611537573d5f803e3d5ffd5b505050506040513d601f19601f8201168201806040525081019061155b919061339e565b8773ffffffffffffffffffffffffffffffffffffffff1663d21220a76040518163ffffffff1660e01b8152600401602060405180830381865afa1580156115a4573d5f803e3d5ffd5b505050506040513d601f19601f820116820180604052508101906115c8919061339e565b915091505f808773ffffffffffffffffffffffffffffffffffffffff16630dfe16816040518163ffffffff1660e01b8152600401602060405180830381865afa158015611617573d5f803e3d5ffd5b505050506040513d601f19601f8201168201806040525081019061163b919061339e565b8873ffffffffffffffffffffffffffffffffffffffff1663d21220a76040518163ffffffff1660e01b8152600401602060405180830381865afa158015611684573d5f803e3d5ffd5b505050506040513d601f19601f820116820180604052508101906116a8919061339e565b915091508273ffffffffffffffffffffffffffffffffffffffff168473ffffffffffffffffffffffffffffffffffffffff1610801561171257508073ffffffffffffffffffffffffffffffffffffffff168273ffffffffffffffffffffffffffffffffffffffff16105b611751576040517f08c379a0000000000000000000000000000000000000000000000000000000008152600401611748906136e4565b60405180910390fd5b8173ffffffffffffffffffffffffffffffffffffffff168473ffffffffffffffffffffffffffffffffffffffff161480156117b757508073ffffffffffffffffffffffffffffffffffffffff168373ffffffffffffffffffffffffffffffffffffffff16145b6117f6576040517f08c379a00000000000000000000000000000000000000000000000000000000081526004016117ed9061374c565b60405180910390fd5b6117ff84610545565b8061180f575061180e83610545565b5b61184e576040517f08c379a0000000000000000000000000000000000000000000000000000000008152600401611845906137b4565b60405180910390fd5b61185784610545565b611863575f8385611868565b600184845b809750819850829950505050505050509250925092565b5f806118896129df565b5f808773ffffffffffffffffffffffffffffffffffffffff16630902f1ac6040518163ffffffff1660e01b8152600401606060405180830381865afa1580156118d4573d5f803e3d5ffd5b505050506040513d601f19601f820116820180604052508101906118f8919061384e565b506dffffffffffffffffffffffffffff1691506dffffffffffffffffffffffffffff1691505f808873ffffffffffffffffffffffffffffffffffffffff16630902f1ac6040518163ffffffff1660e01b8152600401606060405180830381865afa158015611968573d5f803e3d5ffd5b505050506040513d601f19601f8201168201806040525081019061198c919061384e565b506dffffffffffffffffffffffffffff1691506dffffffffffffffffffffffffffff1691505f80896119f3576119d3866119c5876122ac565b6122e490919063ffffffff16565b6119ee856119e0866122ac565b6122e490919063ffffffff16565b611a2a565b611a0e85611a00886122ac565b6122e490919063ffffffff16565b611a2984611a1b876122ac565b6122e490919063ffffffff16565b5b91509150611a41818361231890919063ffffffff16565b15611a8b578b8b809950819a50505089611a5e5784868486611a63565b858585855b8a5f018b6020018c6040018d6060018481525084815250848152508481525050505050611acc565b8a8c809950819a50505089611aa35782848688611aa8565b838387875b8a5f018b6020018c6040018d60600184815250848152508481525084815250505050505b611b0b6040518060400160405280601181526020017f426f72726f772066726f6d20706f6f6c3a0000000000000000000000000000008152508a61232d565b611b4a6040518060400160405280600d81526020017f53656c6c20746f20706f6f6c3a000000000000000000000000000000000000008152508961232d565b50505050505093509350939050565b5f808260200151835f015110611b73578260200151611b78565b825f01515b90505f8360600151846040015110611b94578360600151611b9a565b83604001515b90505f818310611baa5781611bac565b825b90505f69d3c21bcecceda1000000821115611bd25768056bc75e2d631000009050611cfc565b69152d02c7e14af6800000821115611bf457678ac7230489e800009050611cfb565b69021e19e0c9bab2400000821115611c1657670de0b6b3a76400009050611cfa565b683635c9adc5dea00000821115611c375767016345785d8a00009050611cf9565b68056bc75e2d63100000821115611c5757662386f26fc100009050611cf8565b678ac7230489e80000821115611c765766038d7ea4c680009050611cf7565b670de0b6b3a7640000821115611c9457655af3107a40009050611cf6565b67016345785d8a0000821115611cb2576509184e72a0009050611cf5565b662386f26fc10000821115611cce5764e8d4a510009050611cf4565b66038d7ea4c68000821115611cea5764174876e8009050611cf3565b6402540be40090505b5b5b5b5b5b5b5b5b5b5f805f80848a5f0151611d0f9190613491565b858b60400151611d1f9190613491565b868c60200151611d2f9190613491565b878d60600151611d3f9190613491565b93509350935093505f8184611d5491906138a7565b8386611d6091906138a7565b611d6a919061391d565b90505f8486611d79919061395d565b83856002611d8791906138a7565b611d9191906138a7565b611d9b91906138a7565b90505f8486611daa91906138a7565b8488611db691906138a7565b611dc0919061391d565b8486611dcc91906138a7565b611dd691906138a7565b90505f80611de58585856123c9565b915091505f82138015611df757508682125b8015611e0257508582125b80611e2257505f81138015611e1657508681125b8015611e2157508581125b5b611e61576040517f08c379a0000000000000000000000000000000000000000000000000000000008152600401611e58906139e8565b60405180910390fd5b5f82138015611e6f57508682125b8015611e7a57508582125b611e8f578981611e8a9190613a06565b611e9c565b8982611e9b9190613a06565b5b9d5050505050505050505050505050919050565b5f808411611ef3576040517f08c379a0000000000000000000000000000000000000000000000000000000008152600401611eea90613ab7565b60405180910390fd5b5f83118015611f0157505f82115b611f40576040517f08c379a0000000000000000000000000000000000000000000000000000000008152600401611f3790613b45565b60405180910390fd5b5f611f686103e8611f5a87876124b190919063ffffffff16565b6124b190919063ffffffff16565b90505f611f926103e5611f84888761251d90919063ffffffff16565b6124b190919063ffffffff16565b9050611fb360018284611fa59190613491565b61257590919063ffffffff16565b925050509392505050565b5f808411612001576040517f08c379a0000000000000000000000000000000000000000000000000000000008152600401611ff890613bd3565b60405180910390fd5b5f8311801561200f57505f82115b61204e576040517f08c379a000000000000000000000000000000000000000000000000000000000815260040161204590613b45565b60405180910390fd5b5f6120646103e5866124b190919063ffffffff16565b90505f61207a84836124b190919063ffffffff16565b90505f6120a4836120966103e8896124b190919063ffffffff16565b61257590919063ffffffff16565b905080826120b29190613491565b93505050509392505050565b5f6120e3835f018373ffffffffffffffffffffffffffffffffffffffff165f1b6125cd565b905092915050565b6121838282604051602401612101929190613c33565b6040516020818303038152906040527fb60e72cc000000000000000000000000000000000000000000000000000000007bffffffffffffffffffffffffffffffffffffffffffffffffffffffff19166020820180517bffffffffffffffffffffffffffffffffffffffffffffffffffffffff8381831617835250505050612634565b5050565b5f6121ac835f018373ffffffffffffffffffffffffffffffffffffffff165f1b61264e565b905092915050565b5f8060205f8451602086015f885af1806121d3576040513d5f823e3d81fd5b3d92505f519150505f82146121ec576001811415612207565b5f8473ffffffffffffffffffffffffffffffffffffffff163b145b1561224957836040517f5274afe70000000000000000000000000000000000000000000000000000000081526004016122409190612ee7565b60405180910390fd5b50505050565b5f80836001015f8481526020019081526020015f20541415905092915050565b5f815f01805490509050919050565b5f825f01828154811061229457612293613605565b5b905f5260205f200154905092915050565b5f33905090565b6122b4612a93565b60405180602001604052806122da670de0b6b3a76400008561274a90919063ffffffff16565b8152509050919050565b6122ec612a93565b604051806020016040528061230d84865f01516127c190919063ffffffff16565b815250905092915050565b5f80612324848461280a565b14905092915050565b6123c58282604051602401612343929190613c61565b6040516020818303038152906040527f319af333000000000000000000000000000000000000000000000000000000007bffffffffffffffffffffffffffffffffffffffffffffffffffffffff19166020820180517bffffffffffffffffffffffffffffffffffffffffffffffffffffffff8381831617835250505050612634565b5050565b5f805f838660046123da91906138a7565b6123e491906138a7565b6002866123f19190613de1565b6123fb919061391d565b90505f811361243f576040517f08c379a000000000000000000000000000000000000000000000000000000000815260040161243690613e96565b60405180910390fd5b5f61244982612843565b905086600261245891906138a7565b818761246390613eb4565b61246d919061395d565b6124779190613efa565b935086600261248691906138a7565b818761249190613eb4565b61249b919061391d565b6124a59190613efa565b92505050935093915050565b5f808214806124d85750828283856124c99190613a06565b9250826124d69190613491565b145b612517576040517f08c379a000000000000000000000000000000000000000000000000000000000815260040161250e90613fac565b60405180910390fd5b92915050565b5f82828461252b91906133c9565b915081111561256f576040517f08c379a000000000000000000000000000000000000000000000000000000000815260040161256690614014565b60405180910390fd5b92915050565b5f8282846125839190614032565b91508110156125c7576040517f08c379a00000000000000000000000000000000000000000000000000000000081526004016125be906140af565b60405180910390fd5b92915050565b5f6125d8838361224f565b61262a57825f0182908060018154018082558091505060019003905f5260205f20015f9091909190915055825f0180549050836001015f8481526020019081526020015f20819055506001905061262e565b5f90505b92915050565b61264b816126436128d06128ef565b63ffffffff16565b50565b5f80836001015f8481526020019081526020015f205490505f811461273f575f60018261267b91906133c9565b90505f6001865f018054905061269191906133c9565b90508082146126f7575f865f0182815481106126b0576126af613605565b5b905f5260205f200154905080875f0184815481106126d1576126d0613605565b5b905f5260205f20018190555083876001015f8381526020019081526020015f2081905550505b855f0180548061270a576127096140cd565b5b600190038181905f5260205f20015f90559055856001015f8681526020019081526020015f205f905560019350505050612744565b5f9150505b92915050565b5f80830361275a575f90506127bb565b5f82846127679190613a06565b90508284826127769190613491565b146127b6576040517f08c379a00000000000000000000000000000000000000000000000000000000081526004016127ad9061416a565b60405180910390fd5b809150505b92915050565b5f61280283836040518060400160405280601a81526020017f536166654d6174683a206469766973696f6e206279207a65726f0000000000008152506128fa565b905092915050565b5f815f0151835f015103612821576001905061283d565b815f0151835f015111612834575f612837565b60025b60ff1690505b92915050565b5f6001821161285557612854614188565b5b5f620f4240836128659190613a06565b90505f8190508192505f5b6001156128b857600284836128859190613491565b856128909190614032565b61289a9190613491565b90506103e881856128ab91906133c9565b106128b857809350612870565b6103e8846128c69190613491565b9350505050919050565b5f6a636f6e736f6c652e6c6f6790505f80835160208501845afa505050565b612aa5819050919050565b5f8083118290612940576040517f08c379a000000000000000000000000000000000000000000000000000000000815260040161293791906141b5565b60405180910390fd5b505f838561294e9190613491565b9050809150509392505050565b6040518060a001604052805f73ffffffffffffffffffffffffffffffffffffffff1681526020015f73ffffffffffffffffffffffffffffffffffffffff1681526020015f151581526020015f73ffffffffffffffffffffffffffffffffffffffff1681526020015f73ffffffffffffffffffffffffffffffffffffffff1681525090565b60405180608001604052805f81526020015f81526020015f81526020015f81525090565b6040518060e001604052805f73ffffffffffffffffffffffffffffffffffffffff1681526020015f73ffffffffffffffffffffffffffffffffffffffff1681526020015f151581526020015f73ffffffffffffffffffffffffffffffffffffffff1681526020015f73ffffffffffffffffffffffffffffffffffffffff1681526020015f81526020015f81525090565b60405180602001604052805f81525090565b612aad6141d5565b565b5f604051905090565b5f80fd5b5f80fd5b5f8085851115612ad357612ad2612ab8565b5b83861115612ae457612ae3612abc565b5b6001850283019150848603905094509492505050565b5f80fd5b5f80fd5b5f73ffffffffffffffffffffffffffffffffffffffff82169050919050565b5f612b2b82612b02565b9050919050565b612b3b81612b21565b8114612b45575f80fd5b50565b5f81359050612b5681612b32565b92915050565b5f819050919050565b612b6e81612b5c565b8114612b78575f80fd5b50565b5f81359050612b8981612b65565b92915050565b5f80fd5b5f80fd5b5f601f19601f8301169050919050565b7f4e487b71000000000000000000000000000000000000000000000000000000005f52604160045260245ffd5b612bdd82612b97565b810181811067ffffffffffffffff82111715612bfc57612bfb612ba7565b5b80604052505050565b5f612c0e612aaf565b9050612c1a8282612bd4565b919050565b5f67ffffffffffffffff821115612c3957612c38612ba7565b5b612c4282612b97565b9050602081019050919050565b828183375f83830152505050565b5f612c6f612c6a84612c1f565b612c05565b905082815260208101848484011115612c8b57612c8a612b93565b5b612c96848285612c4f565b509392505050565b5f82601f830112612cb257612cb1612b8f565b5b8135612cc2848260208601612c5d565b91505092915050565b5f805f8060808587031215612ce357612ce2612afa565b5b5f612cf087828801612b48565b9450506020612d0187828801612b7b565b9350506040612d1287828801612b7b565b925050606085013567ffffffffffffffff811115612d3357612d32612afe565b5b612d3f87828801612c9e565b91505092959194509250565b5f612d5582612b02565b9050919050565b612d6581612d4b565b8114612d6f575f80fd5b50565b5f81359050612d8081612d5c565b92915050565b5f805f8060808587031215612d9e57612d9d612afa565b5b5f612dab87828801612d72565b9450506020612dbc87828801612b7b565b9350506040612dcd87828801612b7b565b925050606085013567ffffffffffffffff811115612dee57612ded612afe565b5b612dfa87828801612c9e565b91505092959194509250565b5f60208284031215612e1b57612e1a612afa565b5b5f612e2884828501612d72565b91505092915050565b5f8115159050919050565b612e4581612e31565b82525050565b5f602082019050612e5e5f830184612e3c565b92915050565b5f8060408385031215612e7a57612e79612afa565b5b5f612e8785828601612d72565b9250506020612e9885828601612d72565b9150509250929050565b612eab81612b5c565b82525050565b612eba81612d4b565b82525050565b5f604082019050612ed35f830185612ea2565b612ee06020830184612eb1565b9392505050565b5f602082019050612efa5f830184612eb1565b92915050565b5f81519050919050565b5f82825260208201905092915050565b5f819050602082019050919050565b612f3281612d4b565b82525050565b5f612f438383612f29565b60208301905092915050565b5f602082019050919050565b5f612f6582612f00565b612f6f8185612f0a565b9350612f7a83612f1a565b805f5b83811015612faa578151612f918882612f38565b9750612f9c83612f4f565b925050600181019050612f7d565b5085935050505092915050565b5f6020820190508181035f830152612fcf8184612f5b565b905092915050565b5f82825260208201905092915050565b7f4e6f6e207065726d697373696f6e656420616464726573732063616c6c0000005f82015250565b5f61301b601d83612fd7565b915061302682612fe7565b602082019050919050565b5f6020820190508181035f8301526130488161300f565b9050919050565b7f4e6f742066726f6d207468697320636f6e7472616374000000000000000000005f82015250565b5f613083601683612fd7565b915061308e8261304f565b602082019050919050565b5f6020820190508181035f8301526130b081613077565b9050919050565b5f80fd5b5f815190506130c981612d5c565b92915050565b6130d881612e31565b81146130e2575f80fd5b50565b5f815190506130f3816130cf565b92915050565b5f8151905061310781612b65565b92915050565b5f60e08284031215613122576131216130b7565b5b61312c60e0612c05565b90505f61313b848285016130bb565b5f83015250602061314e848285016130bb565b6020830152506040613162848285016130e5565b6040830152506060613176848285016130bb565b606083015250608061318a848285016130bb565b60808301525060a061319e848285016130f9565b60a08301525060c06131b2848285016130f9565b60c08301525092915050565b5f60e082840312156131d3576131d2612afa565b5b5f6131e08482850161310d565b91505092915050565b5f81519050919050565b5f82825260208201905092915050565b5f5b83811015613220578082015181840152602081019050613205565b5f8484015250505050565b5f613235826131e9565b61323f81856131f3565b935061324f818560208601613203565b61325881612b97565b840191505092915050565b5f6080820190506132765f830187612ea2565b6132836020830186612ea2565b6132906040830185612eb1565b81810360608301526132a2818461322b565b905095945050505050565b5f602082840312156132c2576132c1612afa565b5b5f6132cf848285016130f9565b91505092915050565b5f6040820190506132eb5f830185612eb1565b6132f86020830184612ea2565b9392505050565b5f6020828403121561331457613313612afa565b5b5f613321848285016130e5565b91505092915050565b7f4e487b71000000000000000000000000000000000000000000000000000000005f52601160045260245ffd5b5f61336182612b5c565b91507fffffffffffffffffffffffffffffffffffffffffffffffffffffffffffffffff82036133935761339261332a565b5b600182019050919050565b5f602082840312156133b3576133b2612afa565b5b5f6133c0848285016130bb565b91505092915050565b5f6133d382612b5c565b91506133de83612b5c565b92508282039050818111156133f6576133f561332a565b5b92915050565b7f417262697472616765206661696c2c206e6f2070726f666974000000000000005f82015250565b5f613430601983612fd7565b915061343b826133fc565b602082019050919050565b5f6020820190508181035f83015261345d81613424565b9050919050565b7f4e487b71000000000000000000000000000000000000000000000000000000005f52601260045260245ffd5b5f61349b82612b5c565b91506134a683612b5c565b9250826134b6576134b5613464565b5b828204905092915050565b6134ca81612e31565b82525050565b6134d981612b5c565b82525050565b60e082015f8201516134f35f850182612f29565b5060208201516135066020850182612f29565b50604082015161351960408501826134c1565b50606082015161352c6060850182612f29565b50608082015161353f6080850182612f29565b5060a082015161355260a08501826134d0565b5060c082015161356560c08501826134d0565b50505050565b5f60e08201905061357e5f8301846134df565b92915050565b7f4c6f73696e67206d6f6e657900000000000000000000000000000000000000005f82015250565b5f6135b8600c83612fd7565b91506135c382613584565b602082019050919050565b5f6020820190508181035f8301526135e5816135ac565b9050919050565b5f6020820190506135ff5f830184612ea2565b92915050565b7f4e487b71000000000000000000000000000000000000000000000000000000005f52603260045260245ffd5b7f53616d65207061697220616464726573730000000000000000000000000000005f82015250565b5f613666601183612fd7565b915061367182613632565b602082019050919050565b5f6020820190508181035f8301526136938161365a565b9050919050565b7f4e6f6e207374616e6461726420756e697377617020414d4d20706169720000005f82015250565b5f6136ce601d83612fd7565b91506136d98261369a565b602082019050919050565b5f6020820190508181035f8301526136fb816136c2565b9050919050565b7f526571756972652073616d6520746f6b656e20706169720000000000000000005f82015250565b5f613736601783612fd7565b915061374182613702565b602082019050919050565b5f6020820190508181035f8301526137638161372a565b9050919050565b7f4e6f206261736520746f6b656e20696e207061697200000000000000000000005f82015250565b5f61379e601583612fd7565b91506137a98261376a565b602082019050919050565b5f6020820190508181035f8301526137cb81613792565b9050919050565b5f6dffffffffffffffffffffffffffff82169050919050565b6137f4816137d2565b81146137fe575f80fd5b50565b5f8151905061380f816137eb565b92915050565b5f63ffffffff82169050919050565b61382d81613815565b8114613837575f80fd5b50565b5f8151905061384881613824565b92915050565b5f805f6060848603121561386557613864612afa565b5b5f61387286828701613801565b935050602061388386828701613801565b92505060406138948682870161383a565b9150509250925092565b5f819050919050565b5f6138b18261389e565b91506138bc8361389e565b92508282026138ca8161389e565b91507f800000000000000000000000000000000000000000000000000000000000000084145f841216156139015761390061332a565b5b82820584148315176139165761391561332a565b5b5092915050565b5f6139278261389e565b91506139328361389e565b925082820390508181125f8412168282135f8512151617156139575761395661332a565b5b92915050565b5f6139678261389e565b91506139728361389e565b92508282019050828112155f8312168382125f8412151617156139985761399761332a565b5b92915050565b7f57726f6e6720696e707574206f726465720000000000000000000000000000005f82015250565b5f6139d2601183612fd7565b91506139dd8261399e565b602082019050919050565b5f6020820190508181035f8301526139ff816139c6565b9050919050565b5f613a1082612b5c565b9150613a1b83612b5c565b9250828202613a2981612b5c565b91508282048414831517613a4057613a3f61332a565b5b5092915050565b7f556e697377617056324c6962726172793a20494e53554646494349454e545f4f5f8201527f55545055545f414d4f554e540000000000000000000000000000000000000000602082015250565b5f613aa1602c83612fd7565b9150613aac82613a47565b604082019050919050565b5f6020820190508181035f830152613ace81613a95565b9050919050565b7f556e697377617056324c6962726172793a20494e53554646494349454e545f4c5f8201527f4951554944495459000000000000000000000000000000000000000000000000602082015250565b5f613b2f602883612fd7565b9150613b3a82613ad5565b604082019050919050565b5f6020820190508181035f830152613b5c81613b23565b9050919050565b7f556e697377617056324c6962726172793a20494e53554646494349454e545f495f8201527f4e5055545f414d4f554e54000000000000000000000000000000000000000000602082015250565b5f613bbd602b83612fd7565b9150613bc882613b63565b604082019050919050565b5f6020820190508181035f830152613bea81613bb1565b9050919050565b5f81519050919050565b5f613c0582613bf1565b613c0f8185612fd7565b9350613c1f818560208601613203565b613c2881612b97565b840191505092915050565b5f6040820190508181035f830152613c4b8185613bfb565b9050613c5a6020830184612ea2565b9392505050565b5f6040820190508181035f830152613c798185613bfb565b9050613c886020830184612eb1565b9392505050565b5f8160011c9050919050565b5f808291508390505b6001851115613ce457808604811115613cc057613cbf61332a565b5b6001851615613ccf5780820291505b8081029050613cdd85613c8f565b9450613ca4565b94509492505050565b5f825f8114613d035760018114613d0d57613d16565b6001915050613dcd565b82915050613dcd565b5081613d24575f9050613dcd565b600190505f821360018114613d3f575f8114613d5757613d6b565b828604831115613d5257613d5161332a565b5b613d6b565b828605831215613d6a57613d6961332a565b5b5b506001831615613d79578190505b8182029150613d8783613c8f565b9250613d9585848484613c9b565b9250905081850481115f82131615613db057613daf61332a565b5b81840581125f82121615613dc757613dc661332a565b5b81810290505b949350505050565b5f60ff82169050919050565b5f613deb8261389e565b9150613df683613dd5565b9250613e447f7fffffffffffffffffffffffffffffffffffffffffffffffffffffffffffffff7f80000000000000000000000000000000000000000000000000000000000000008585613ced565b905092915050565b7f436f6d706c6578206e756d6265720000000000000000000000000000000000005f82015250565b5f613e80600e83612fd7565b9150613e8b82613e4c565b602082019050919050565b5f6020820190508181035f830152613ead81613e74565b9050919050565b5f613ebe8261389e565b91507f80000000000000000000000000000000000000000000000000000000000000008203613ef057613eef61332a565b5b815f039050919050565b5f613f048261389e565b9150613f0f8361389e565b925082613f1f57613f1e613464565b5b60015f0383147f800000000000000000000000000000000000000000000000000000000000000083141615613f5757613f5661332a565b5b828205905092915050565b7f64732d6d6174682d6d756c2d6f766572666c6f770000000000000000000000005f82015250565b5f613f96601483612fd7565b9150613fa182613f62565b602082019050919050565b5f6020820190508181035f830152613fc381613f8a565b9050919050565b7f64732d6d6174682d7375622d756e646572666c6f7700000000000000000000005f82015250565b5f613ffe601583612fd7565b915061400982613fca565b602082019050919050565b5f6020820190508181035f83015261402b81613ff2565b9050919050565b5f61403c82612b5c565b915061404783612b5c565b925082820190508082111561405f5761405e61332a565b5b92915050565b7f64732d6d6174682d6164642d6f766572666c6f770000000000000000000000005f82015250565b5f614099601483612fd7565b91506140a482614065565b602082019050919050565b5f6020820190508181035f8301526140c68161408d565b9050919050565b7f4e487b71000000000000000000000000000000000000000000000000000000005f52603160045260245ffd5b7f536166654d6174683a206d756c7469706c69636174696f6e206f766572666c6f5f8201527f7700000000000000000000000000000000000000000000000000000000000000602082015250565b5f614154602183612fd7565b915061415f826140fa565b604082019050919050565b5f6020820190508181035f83015261418181614148565b9050919050565b7f4e487b71000000000000000000000000000000000000000000000000000000005f52600160045260245ffd5b5f6020820190508181035f8301526141cd8184613bfb565b905092915050565b7f4e487b71000000000000000000000000000000000000000000000000000000005f52605160045260245ffdfea2646970667358221220ef1a51f1e661dea537e29e95c98fb80ee22583de45dc5cc23b716227607e8f5764736f6c63430008140033",
			"opcodes": "PUSH1 0xA0 PUSH1 0x40 MSTORE PUSH1 0x1 DUP1 PUSH0 PUSH2 0x100 EXP DUP2 SLOAD DUP2 PUSH20 0xFFFFFFFFFFFFFFFFFFFFFFFFFFFFFFFFFFFFFFFF MUL NOT AND SWAP1 DUP4 PUSH20 0xFFFFFFFFFFFFFFFFFFFFFFFFFFFFFFFFFFFFFFFF AND MUL OR SWAP1 SSTORE POP CALLVALUE DUP1 ISZERO PUSH3 0x50 JUMPI PUSH0 DUP1 REVERT JUMPDEST POP PUSH1 0x40 MLOAD PUSH3 0x45E7 CODESIZE SUB DUP1 PUSH3 0x45E7 DUP4 CODECOPY DUP2 DUP2 ADD PUSH1 0x40 MSTORE DUP2 ADD SWAP1 PUSH3 0x76 SWAP2 SWAP1 PUSH3 0x33A JUMP JUMPDEST CALLER PUSH0 PUSH20 0xFFFFFFFFFFFFFFFFFFFFFFFFFFFFFFFFFFFFFFFF AND DUP2 PUSH20 0xFFFFFFFFFFFFFFFFFFFFFFFFFFFFFFFFFFFFFFFF AND SUB PUSH3 0xEA JUMPI PUSH0 PUSH1 0x40 MLOAD PUSH32 0x1E4FBDF700000000000000000000000000000000000000000000000000000000 DUP2 MSTORE PUSH1 0x4 ADD PUSH3 0xE1 SWAP2 SWAP1 PUSH3 0x37B JUMP JUMPDEST PUSH1 0x40 MLOAD DUP1 SWAP2 SUB SWAP1 REVERT JUMPDEST PUSH3 0xFB DUP2 PUSH3 0x14E PUSH1 0x20 SHL PUSH1 0x20 SHR JUMP JUMPDEST POP DUP1 PUSH20 0xFFFFFFFFFFFFFFFFFFFFFFFFFFFFFFFFFFFFFFFF AND PUSH1 0x80 DUP2 PUSH20 0xFFFFFFFFFFFFFFFFFFFFFFFFFFFFFFFFFFFFFFFF AND DUP2 MSTORE POP POP PUSH3 0x146 DUP2 PUSH1 0x2 PUSH3 0x20F PUSH1 0x20 SHL SWAP1 SWAP2 SWAP1 PUSH1 0x20 SHR JUMP JUMPDEST POP POP PUSH3 0x396 JUMP JUMPDEST PUSH0 DUP1 PUSH0 SWAP1 SLOAD SWAP1 PUSH2 0x100 EXP SWAP1 DIV PUSH20 0xFFFFFFFFFFFFFFFFFFFFFFFFFFFFFFFFFFFFFFFF AND SWAP1 POP DUP2 PUSH0 DUP1 PUSH2 0x100 EXP DUP2 SLOAD DUP2 PUSH20 0xFFFFFFFFFFFFFFFFFFFFFFFFFFFFFFFFFFFFFFFF MUL NOT AND SWAP1 DUP4 PUSH20 0xFFFFFFFFFFFFFFFFFFFFFFFFFFFFFFFFFFFFFFFF AND MUL OR SWAP1 SSTORE POP DUP2 PUSH20 0xFFFFFFFFFFFFFFFFFFFFFFFFFFFFFFFFFFFFFFFF AND DUP2 PUSH20 0xFFFFFFFFFFFFFFFFFFFFFFFFFFFFFFFFFFFFFFFF AND PUSH32 0x8BE0079C531659141344CD1FD0A4F28419497F9722A3DAAFE3B4186F6B6457E0 PUSH1 0x40 MLOAD PUSH1 0x40 MLOAD DUP1 SWAP2 SUB SWAP1 LOG3 POP POP JUMP JUMPDEST PUSH0 PUSH3 0x23C DUP4 PUSH0 ADD DUP4 PUSH20 0xFFFFFFFFFFFFFFFFFFFFFFFFFFFFFFFFFFFFFFFF AND PUSH0 SHL PUSH3 0x244 PUSH1 0x20 SHL PUSH1 0x20 SHR JUMP JUMPDEST SWAP1 POP SWAP3 SWAP2 POP POP JUMP JUMPDEST PUSH0 PUSH3 0x257 DUP4 DUP4 PUSH3 0x2B5 PUSH1 0x20 SHL PUSH1 0x20 SHR JUMP JUMPDEST PUSH3 0x2AB JUMPI DUP3 PUSH0 ADD DUP3 SWAP1 DUP1 PUSH1 0x1 DUP2 SLOAD ADD DUP1 DUP3 SSTORE DUP1 SWAP2 POP POP PUSH1 0x1 SWAP1 SUB SWAP1 PUSH0 MSTORE PUSH1 0x20 PUSH0 KECCAK256 ADD PUSH0 SWAP1 SWAP2 SWAP1 SWAP2 SWAP1 SWAP2 POP SSTORE DUP3 PUSH0 ADD DUP1 SLOAD SWAP1 POP DUP4 PUSH1 0x1 ADD PUSH0 DUP5 DUP2 MSTORE PUSH1 0x20 ADD SWAP1 DUP2 MSTORE PUSH1 0x20 ADD PUSH0 KECCAK256 DUP2 SWAP1 SSTORE POP PUSH1 0x1 SWAP1 POP PUSH3 0x2AF JUMP JUMPDEST PUSH0 SWAP1 POP JUMPDEST SWAP3 SWAP2 POP POP JUMP JUMPDEST PUSH0 DUP1 DUP4 PUSH1 0x1 ADD PUSH0 DUP5 DUP2 MSTORE PUSH1 0x20 ADD SWAP1 DUP2 MSTORE PUSH1 0x20 ADD PUSH0 KECCAK256 SLOAD EQ ISZERO SWAP1 POP SWAP3 SWAP2 POP POP JUMP JUMPDEST PUSH0 DUP1 REVERT JUMPDEST PUSH0 PUSH20 0xFFFFFFFFFFFFFFFFFFFFFFFFFFFFFFFFFFFFFFFF DUP3 AND SWAP1 POP SWAP2 SWAP1 POP JUMP JUMPDEST PUSH0 PUSH3 0x304 DUP3 PUSH3 0x2D9 JUMP JUMPDEST SWAP1 POP SWAP2 SWAP1 POP JUMP JUMPDEST PUSH3 0x316 DUP2 PUSH3 0x2F8 JUMP JUMPDEST DUP2 EQ PUSH3 0x321 JUMPI PUSH0 DUP1 REVERT JUMPDEST POP JUMP JUMPDEST PUSH0 DUP2 MLOAD SWAP1 POP PUSH3 0x334 DUP2 PUSH3 0x30B JUMP JUMPDEST SWAP3 SWAP2 POP POP JUMP JUMPDEST PUSH0 PUSH1 0x20 DUP3 DUP5 SUB SLT ISZERO PUSH3 0x352 JUMPI PUSH3 0x351 PUSH3 0x2D5 JUMP JUMPDEST JUMPDEST PUSH0 PUSH3 0x361 DUP5 DUP3 DUP6 ADD PUSH3 0x324 JUMP JUMPDEST SWAP2 POP POP SWAP3 SWAP2 POP POP JUMP JUMPDEST PUSH3 0x375 DUP2 PUSH3 0x2F8 JUMP JUMPDEST DUP3 MSTORE POP POP JUMP JUMPDEST PUSH0 PUSH1 0x20 DUP3 ADD SWAP1 POP PUSH3 0x390 PUSH0 DUP4 ADD DUP5 PUSH3 0x36A JUMP JUMPDEST SWAP3 SWAP2 POP POP JUMP JUMPDEST PUSH1 0x80 MLOAD PUSH2 0x4238 PUSH3 0x3AF PUSH0 CODECOPY PUSH0 PUSH2 0xE8B ADD MSTORE PUSH2 0x4238 PUSH0 RETURN INVALID PUSH1 0x80 PUSH1 0x40 MSTORE PUSH1 0x4 CALLDATASIZE LT PUSH2 0x9F JUMPI PUSH0 CALLDATALOAD PUSH1 0xE0 SHR DUP1 PUSH4 0x83E280D9 GT PUSH2 0x63 JUMPI DUP1 PUSH4 0x83E280D9 EQ PUSH2 0x1DB JUMPI DUP1 PUSH4 0x8DA5CB5B EQ PUSH2 0x203 JUMPI DUP1 PUSH4 0xBAEE64F1 EQ PUSH2 0x22D JUMPI DUP1 PUSH4 0xBBD1E122 EQ PUSH2 0x255 JUMPI DUP1 PUSH4 0xBED64C2F EQ PUSH2 0x27D JUMPI DUP1 PUSH4 0xF2FDE38B EQ PUSH2 0x2A7 JUMPI PUSH2 0xA6 JUMP JUMPDEST DUP1 PUSH4 0x10D1E85C EQ PUSH2 0x10E JUMPI DUP1 PUSH4 0x21D09426 EQ PUSH2 0x136 JUMPI DUP1 PUSH4 0x3CCFD60B EQ PUSH2 0x172 JUMPI DUP1 PUSH4 0x715018A6 EQ PUSH2 0x188 JUMPI DUP1 PUSH4 0x759EEE10 EQ PUSH2 0x19E JUMPI PUSH2 0xA6 JUMP JUMPDEST CALLDATASIZE PUSH2 0xA6 JUMPI STOP JUMPDEST CALLVALUE DUP1 ISZERO PUSH2 0xB1 JUMPI PUSH0 DUP1 REVERT JUMPDEST POP PUSH0 CALLDATASIZE PUSH1 0x60 PUSH0 DUP1 PUSH0 DUP1 DUP7 DUP7 PUSH1 0x4 SWAP1 DUP1 SWAP3 PUSH2 0xCD SWAP4 SWAP3 SWAP2 SWAP1 PUSH2 0x2AC0 JUMP JUMPDEST DUP2 ADD SWAP1 PUSH2 0xDA SWAP2 SWAP1 PUSH2 0x2CCB JUMP JUMPDEST SWAP4 POP SWAP4 POP SWAP4 POP SWAP4 POP PUSH2 0xEE DUP5 DUP5 DUP5 DUP5 PUSH2 0x2CF JUMP JUMPDEST PUSH1 0x40 MLOAD DUP1 PUSH1 0x20 ADD PUSH1 0x40 MSTORE DUP1 PUSH0 DUP2 MSTORE POP SWAP5 POP POP POP POP POP SWAP2 POP POP DUP1 MLOAD SWAP1 PUSH1 0x20 ADD RETURN JUMPDEST CALLVALUE DUP1 ISZERO PUSH2 0x119 JUMPI PUSH0 DUP1 REVERT JUMPDEST POP PUSH2 0x134 PUSH1 0x4 DUP1 CALLDATASIZE SUB DUP2 ADD SWAP1 PUSH2 0x12F SWAP2 SWAP1 PUSH2 0x2D86 JUMP JUMPDEST PUSH2 0x2CF JUMP JUMPDEST STOP JUMPDEST CALLVALUE DUP1 ISZERO PUSH2 0x141 JUMPI PUSH0 DUP1 REVERT JUMPDEST POP PUSH2 0x15C PUSH1 0x4 DUP1 CALLDATASIZE SUB DUP2 ADD SWAP1 PUSH2 0x157 SWAP2 SWAP1 PUSH2 0x2E06 JUMP JUMPDEST PUSH2 0x545 JUMP JUMPDEST PUSH1 0x40 MLOAD PUSH2 0x169 SWAP2 SWAP1 PUSH2 0x2E4B JUMP JUMPDEST PUSH1 0x40 MLOAD DUP1 SWAP2 SUB SWAP1 RETURN JUMPDEST CALLVALUE DUP1 ISZERO PUSH2 0x17D JUMPI PUSH0 DUP1 REVERT JUMPDEST POP PUSH2 0x186 PUSH2 0x561 JUMP JUMPDEST STOP JUMPDEST CALLVALUE DUP1 ISZERO PUSH2 0x193 JUMPI PUSH0 DUP1 REVERT JUMPDEST POP PUSH2 0x19C PUSH2 0x74C JUMP JUMPDEST STOP JUMPDEST CALLVALUE DUP1 ISZERO PUSH2 0x1A9 JUMPI PUSH0 DUP1 REVERT JUMPDEST POP PUSH2 0x1C4 PUSH1 0x4 DUP1 CALLDATASIZE SUB DUP2 ADD SWAP1 PUSH2 0x1BF SWAP2 SWAP1 PUSH2 0x2E64 JUMP JUMPDEST PUSH2 0x75F JUMP JUMPDEST PUSH1 0x40 MLOAD PUSH2 0x1D2 SWAP3 SWAP2 SWAP1 PUSH2 0x2EC0 JUMP JUMPDEST PUSH1 0x40 MLOAD DUP1 SWAP2 SUB SWAP1 RETURN JUMPDEST CALLVALUE DUP1 ISZERO PUSH2 0x1E6 JUMPI PUSH0 DUP1 REVERT JUMPDEST POP PUSH2 0x201 PUSH1 0x4 DUP1 CALLDATASIZE SUB DUP2 ADD SWAP1 PUSH2 0x1FC SWAP2 SWAP1 PUSH2 0x2E06 JUMP JUMPDEST PUSH2 0x8C9 JUMP JUMPDEST STOP JUMPDEST CALLVALUE DUP1 ISZERO PUSH2 0x20E JUMPI PUSH0 DUP1 REVERT JUMPDEST POP PUSH2 0x217 PUSH2 0x92C JUMP JUMPDEST PUSH1 0x40 MLOAD PUSH2 0x224 SWAP2 SWAP1 PUSH2 0x2EE7 JUMP JUMPDEST PUSH1 0x40 MLOAD DUP1 SWAP2 SUB SWAP1 RETURN JUMPDEST CALLVALUE DUP1 ISZERO PUSH2 0x238 JUMPI PUSH0 DUP1 REVERT JUMPDEST POP PUSH2 0x253 PUSH1 0x4 DUP1 CALLDATASIZE SUB DUP2 ADD SWAP1 PUSH2 0x24E SWAP2 SWAP1 PUSH2 0x2E64 JUMP JUMPDEST PUSH2 0x953 JUMP JUMPDEST STOP JUMPDEST CALLVALUE DUP1 ISZERO PUSH2 0x260 JUMPI PUSH0 DUP1 REVERT JUMPDEST POP PUSH2 0x27B PUSH1 0x4 DUP1 CALLDATASIZE SUB DUP2 ADD SWAP1 PUSH2 0x276 SWAP2 SWAP1 PUSH2 0x2E06 JUMP JUMPDEST PUSH2 0xF91 JUMP JUMPDEST STOP JUMPDEST CALLVALUE DUP1 ISZERO PUSH2 0x288 JUMPI PUSH0 DUP1 REVERT JUMPDEST POP PUSH2 0x291 PUSH2 0x10FC JUMP JUMPDEST PUSH1 0x40 MLOAD PUSH2 0x29E SWAP2 SWAP1 PUSH2 0x2FB7 JUMP JUMPDEST PUSH1 0x40 MLOAD DUP1 SWAP2 SUB SWAP1 RETURN JUMPDEST CALLVALUE DUP1 ISZERO PUSH2 0x2B2 JUMPI PUSH0 DUP1 REVERT JUMPDEST POP PUSH2 0x2CD PUSH1 0x4 DUP1 CALLDATASIZE SUB DUP2 ADD SWAP1 PUSH2 0x2C8 SWAP2 SWAP1 PUSH2 0x2E06 JUMP JUMPDEST PUSH2 0x11D9 JUMP JUMPDEST STOP JUMPDEST PUSH1 0x1 PUSH0 SWAP1 SLOAD SWAP1 PUSH2 0x100 EXP SWAP1 DIV PUSH20 0xFFFFFFFFFFFFFFFFFFFFFFFFFFFFFFFFFFFFFFFF AND PUSH20 0xFFFFFFFFFFFFFFFFFFFFFFFFFFFFFFFFFFFFFFFF AND CALLER PUSH20 0xFFFFFFFFFFFFFFFFFFFFFFFFFFFFFFFFFFFFFFFF AND EQ PUSH2 0x35E JUMPI PUSH1 0x40 MLOAD PUSH32 0x8C379A000000000000000000000000000000000000000000000000000000000 DUP2 MSTORE PUSH1 0x4 ADD PUSH2 0x355 SWAP1 PUSH2 0x3031 JUMP JUMPDEST PUSH1 0x40 MLOAD DUP1 SWAP2 SUB SWAP1 REVERT JUMPDEST ADDRESS PUSH20 0xFFFFFFFFFFFFFFFFFFFFFFFFFFFFFFFFFFFFFFFF AND DUP5 PUSH20 0xFFFFFFFFFFFFFFFFFFFFFFFFFFFFFFFFFFFFFFFF AND EQ PUSH2 0x3CC JUMPI PUSH1 0x40 MLOAD PUSH32 0x8C379A000000000000000000000000000000000000000000000000000000000 DUP2 MSTORE PUSH1 0x4 ADD PUSH2 0x3C3 SWAP1 PUSH2 0x3099 JUMP JUMPDEST PUSH1 0x40 MLOAD DUP1 SWAP2 SUB SWAP1 REVERT JUMPDEST PUSH0 DUP1 DUP5 GT PUSH2 0x3DA JUMPI DUP3 PUSH2 0x3DC JUMP JUMPDEST DUP4 JUMPDEST SWAP1 POP PUSH0 DUP3 DUP1 PUSH1 0x20 ADD SWAP1 MLOAD DUP2 ADD SWAP1 PUSH2 0x3F3 SWAP2 SWAP1 PUSH2 0x31BE JUMP JUMPDEST SWAP1 POP PUSH2 0x428 DUP2 PUSH1 0x20 ADD MLOAD DUP4 DUP4 PUSH1 0x60 ADD MLOAD PUSH20 0xFFFFFFFFFFFFFFFFFFFFFFFFFFFFFFFFFFFFFFFF AND PUSH2 0x125D SWAP1 SWAP3 SWAP2 SWAP1 PUSH4 0xFFFFFFFF AND JUMP JUMPDEST PUSH0 DUP1 DUP3 PUSH1 0x40 ADD MLOAD PUSH2 0x43E JUMPI PUSH0 DUP4 PUSH1 0xC0 ADD MLOAD PUSH2 0x445 JUMP JUMPDEST DUP3 PUSH1 0xC0 ADD MLOAD PUSH0 JUMPDEST SWAP2 POP SWAP2 POP DUP3 PUSH1 0x20 ADD MLOAD PUSH20 0xFFFFFFFFFFFFFFFFFFFFFFFFFFFFFFFFFFFFFFFF AND PUSH4 0x22C0D9F DUP4 DUP4 ADDRESS PUSH0 PUSH8 0xFFFFFFFFFFFFFFFF DUP2 GT ISZERO PUSH2 0x486 JUMPI PUSH2 0x485 PUSH2 0x2BA7 JUMP JUMPDEST JUMPDEST PUSH1 0x40 MLOAD SWAP1 DUP1 DUP3 MSTORE DUP1 PUSH1 0x1F ADD PUSH1 0x1F NOT AND PUSH1 0x20 ADD DUP3 ADD PUSH1 0x40 MSTORE DUP1 ISZERO PUSH2 0x4B8 JUMPI DUP2 PUSH1 0x20 ADD PUSH1 0x1 DUP3 MUL DUP1 CALLDATASIZE DUP4 CALLDATACOPY DUP1 DUP3 ADD SWAP2 POP POP SWAP1 POP JUMPDEST POP PUSH1 0x40 MLOAD DUP6 PUSH4 0xFFFFFFFF AND PUSH1 0xE0 SHL DUP2 MSTORE PUSH1 0x4 ADD PUSH2 0x4D8 SWAP5 SWAP4 SWAP3 SWAP2 SWAP1 PUSH2 0x3263 JUMP JUMPDEST PUSH0 PUSH1 0x40 MLOAD DUP1 DUP4 SUB DUP2 PUSH0 DUP8 DUP1 EXTCODESIZE ISZERO DUP1 ISZERO PUSH2 0x4EF JUMPI PUSH0 DUP1 REVERT JUMPDEST POP GAS CALL ISZERO DUP1 ISZERO PUSH2 0x501 JUMPI RETURNDATASIZE PUSH0 DUP1 RETURNDATACOPY RETURNDATASIZE PUSH0 REVERT JUMPDEST POP POP POP POP PUSH2 0x53B DUP4 PUSH0 ADD MLOAD DUP5 PUSH1 0xA0 ADD MLOAD DUP6 PUSH1 0x80 ADD MLOAD PUSH20 0xFFFFFFFFFFFFFFFFFFFFFFFFFFFFFFFFFFFFFFFF AND PUSH2 0x125D SWAP1 SWAP3 SWAP2 SWAP1 PUSH4 0xFFFFFFFF AND JUMP JUMPDEST POP POP POP POP POP POP POP POP JUMP JUMPDEST PUSH0 PUSH2 0x55A DUP3 PUSH1 0x2 PUSH2 0x12DC SWAP1 SWAP2 SWAP1 PUSH4 0xFFFFFFFF AND JUMP JUMPDEST SWAP1 POP SWAP2 SWAP1 POP JUMP JUMPDEST PUSH0 SELFBALANCE SWAP1 POP PUSH0 DUP2 GT ISZERO PUSH2 0x604 JUMPI PUSH2 0x575 PUSH2 0x92C JUMP JUMPDEST PUSH20 0xFFFFFFFFFFFFFFFFFFFFFFFFFFFFFFFFFFFFFFFF AND PUSH2 0x8FC DUP3 SWAP1 DUP2 ISZERO MUL SWAP1 PUSH1 0x40 MLOAD PUSH0 PUSH1 0x40 MLOAD DUP1 DUP4 SUB DUP2 DUP6 DUP9 DUP9 CALL SWAP4 POP POP POP POP ISZERO DUP1 ISZERO PUSH2 0x5B7 JUMPI RETURNDATASIZE PUSH0 DUP1 RETURNDATACOPY RETURNDATASIZE PUSH0 REVERT JUMPDEST POP DUP1 PUSH2 0x5C1 PUSH2 0x92C JUMP JUMPDEST PUSH20 0xFFFFFFFFFFFFFFFFFFFFFFFFFFFFFFFFFFFFFFFF AND PUSH32 0x7084F5476618D8E60B11EF0D7D3F06914655ADB8793E28FF7F018D4C76D505D5 PUSH1 0x40 MLOAD PUSH1 0x40 MLOAD DUP1 SWAP2 SUB SWAP1 LOG3 JUMPDEST PUSH0 JUMPDEST PUSH2 0x610 PUSH1 0x2 PUSH2 0x1309 JUMP JUMPDEST DUP2 LT ISZERO PUSH2 0x748 JUMPI PUSH0 PUSH2 0x62C DUP3 PUSH1 0x2 PUSH2 0x131C SWAP1 SWAP2 SWAP1 PUSH4 0xFFFFFFFF AND JUMP JUMPDEST SWAP1 POP DUP1 PUSH20 0xFFFFFFFFFFFFFFFFFFFFFFFFFFFFFFFFFFFFFFFF AND PUSH4 0x70A08231 ADDRESS PUSH1 0x40 MLOAD DUP3 PUSH4 0xFFFFFFFF AND PUSH1 0xE0 SHL DUP2 MSTORE PUSH1 0x4 ADD PUSH2 0x667 SWAP2 SWAP1 PUSH2 0x2EE7 JUMP JUMPDEST PUSH1 0x20 PUSH1 0x40 MLOAD DUP1 DUP4 SUB DUP2 DUP7 GAS STATICCALL ISZERO DUP1 ISZERO PUSH2 0x682 JUMPI RETURNDATASIZE PUSH0 DUP1 RETURNDATACOPY RETURNDATASIZE PUSH0 REVERT JUMPDEST POP POP POP POP PUSH1 0x40 MLOAD RETURNDATASIZE PUSH1 0x1F NOT PUSH1 0x1F DUP3 ADD AND DUP3 ADD DUP1 PUSH1 0x40 MSTORE POP DUP2 ADD SWAP1 PUSH2 0x6A6 SWAP2 SWAP1 PUSH2 0x32AD JUMP JUMPDEST SWAP3 POP PUSH0 DUP4 GT ISZERO PUSH2 0x734 JUMPI DUP1 PUSH20 0xFFFFFFFFFFFFFFFFFFFFFFFFFFFFFFFFFFFFFFFF AND PUSH4 0xA9059CBB PUSH2 0x6D4 PUSH2 0x92C JUMP JUMPDEST DUP6 PUSH1 0x40 MLOAD DUP4 PUSH4 0xFFFFFFFF AND PUSH1 0xE0 SHL DUP2 MSTORE PUSH1 0x4 ADD PUSH2 0x6F2 SWAP3 SWAP2 SWAP1 PUSH2 0x32D8 JUMP JUMPDEST PUSH1 0x20 PUSH1 0x40 MLOAD DUP1 DUP4 SUB DUP2 PUSH0 DUP8 GAS CALL ISZERO DUP1 ISZERO PUSH2 0x70E JUMPI RETURNDATASIZE PUSH0 DUP1 RETURNDATACOPY RETURNDATASIZE PUSH0 REVERT JUMPDEST POP POP POP POP PUSH1 0x40 MLOAD RETURNDATASIZE PUSH1 0x1F NOT PUSH1 0x1F DUP3 ADD AND DUP3 ADD DUP1 PUSH1 0x40 MSTORE POP DUP2 ADD SWAP1 PUSH2 0x732 SWAP2 SWAP1 PUSH2 0x32FF JUMP JUMPDEST POP JUMPDEST POP DUP1 DUP1 PUSH2 0x740 SWAP1 PUSH2 0x3357 JUMP JUMPDEST SWAP2 POP POP PUSH2 0x606 JUMP JUMPDEST POP POP JUMP JUMPDEST PUSH2 0x754 PUSH2 0x1333 JUMP JUMPDEST PUSH2 0x75D PUSH0 PUSH2 0x13BA JUMP JUMPDEST JUMP JUMPDEST PUSH0 DUP1 PUSH0 PUSH2 0x76C DUP6 DUP6 PUSH2 0x147B JUMP JUMPDEST POP POP SWAP1 POP DUP1 PUSH2 0x7E7 JUMPI DUP5 PUSH20 0xFFFFFFFFFFFFFFFFFFFFFFFFFFFFFFFFFFFFFFFF AND PUSH4 0xD21220A7 PUSH1 0x40 MLOAD DUP2 PUSH4 0xFFFFFFFF AND PUSH1 0xE0 SHL DUP2 MSTORE PUSH1 0x4 ADD PUSH1 0x20 PUSH1 0x40 MLOAD DUP1 DUP4 SUB DUP2 DUP7 GAS STATICCALL ISZERO DUP1 ISZERO PUSH2 0x7BE JUMPI RETURNDATASIZE PUSH0 DUP1 RETURNDATACOPY RETURNDATASIZE PUSH0 REVERT JUMPDEST POP POP POP POP PUSH1 0x40 MLOAD RETURNDATASIZE PUSH1 0x1F NOT PUSH1 0x1F DUP3 ADD AND DUP3 ADD DUP1 PUSH1 0x40 MSTORE POP DUP2 ADD SWAP1 PUSH2 0x7E2 SWAP2 SWAP1 PUSH2 0x339E JUMP JUMPDEST PUSH2 0x855 JUMP JUMPDEST DUP5 PUSH20 0xFFFFFFFFFFFFFFFFFFFFFFFFFFFFFFFFFFFFFFFF AND PUSH4 0xDFE1681 PUSH1 0x40 MLOAD DUP2 PUSH4 0xFFFFFFFF AND PUSH1 0xE0 SHL DUP2 MSTORE PUSH1 0x4 ADD PUSH1 0x20 PUSH1 0x40 MLOAD DUP1 DUP4 SUB DUP2 DUP7 GAS STATICCALL ISZERO DUP1 ISZERO PUSH2 0x830 JUMPI RETURNDATASIZE PUSH0 DUP1 RETURNDATACOPY RETURNDATASIZE PUSH0 REVERT JUMPDEST POP POP POP POP PUSH1 0x40 MLOAD RETURNDATASIZE PUSH1 0x1F NOT PUSH1 0x1F DUP3 ADD AND DUP3 ADD DUP1 PUSH1 0x40 MSTORE POP DUP2 ADD SWAP1 PUSH2 0x854 SWAP2 SWAP1 PUSH2 0x339E JUMP JUMPDEST JUMPDEST SWAP2 POP PUSH0 PUSH2 0x863 DUP7 DUP7 DUP5 PUSH2 0x187F JUMP JUMPDEST SWAP3 POP POP POP PUSH0 PUSH2 0x871 DUP3 PUSH2 0x1B59 JUMP JUMPDEST SWAP1 POP PUSH0 PUSH2 0x886 DUP3 DUP5 PUSH0 ADD MLOAD DUP6 PUSH1 0x20 ADD MLOAD PUSH2 0x1EB0 JUMP JUMPDEST SWAP1 POP PUSH0 PUSH2 0x89C DUP4 DUP6 PUSH1 0x60 ADD MLOAD DUP7 PUSH1 0x40 ADD MLOAD PUSH2 0x1FBE JUMP JUMPDEST SWAP1 POP DUP2 DUP2 LT ISZERO PUSH2 0x8AE JUMPI PUSH0 SWAP7 POP PUSH2 0x8BD JUMP JUMPDEST DUP2 DUP2 PUSH2 0x8BA SWAP2 SWAP1 PUSH2 0x33C9 JUMP JUMPDEST SWAP7 POP JUMPDEST POP POP POP POP POP SWAP3 POP SWAP3 SWAP1 POP JUMP JUMPDEST PUSH2 0x8D1 PUSH2 0x1333 JUMP JUMPDEST PUSH2 0x8E5 DUP2 PUSH1 0x2 PUSH2 0x20BE SWAP1 SWAP2 SWAP1 PUSH4 0xFFFFFFFF AND JUMP JUMPDEST POP DUP1 PUSH20 0xFFFFFFFFFFFFFFFFFFFFFFFFFFFFFFFFFFFFFFFF AND PUSH32 0xFA1388D6E7328E9C711A539B0ADDFC27DE8BFB6F5924CCE26F80F41023B15253 PUSH1 0x40 MLOAD PUSH1 0x40 MLOAD DUP1 SWAP2 SUB SWAP1 LOG2 POP JUMP JUMPDEST PUSH0 DUP1 PUSH0 SWAP1 SLOAD SWAP1 PUSH2 0x100 EXP SWAP1 DIV PUSH20 0xFFFFFFFFFFFFFFFFFFFFFFFFFFFFFFFFFFFFFFFF AND SWAP1 POP SWAP1 JUMP JUMPDEST PUSH2 0x95B PUSH2 0x295B JUMP JUMPDEST PUSH2 0x965 DUP4 DUP4 PUSH2 0x147B JUMP JUMPDEST DUP4 PUSH1 0x40 ADD DUP5 PUSH0 ADD DUP6 PUSH1 0x20 ADD DUP4 PUSH20 0xFFFFFFFFFFFFFFFFFFFFFFFFFFFFFFFFFFFFFFFF AND PUSH20 0xFFFFFFFFFFFFFFFFFFFFFFFFFFFFFFFFFFFFFFFF AND DUP2 MSTORE POP DUP4 PUSH20 0xFFFFFFFFFFFFFFFFFFFFFFFFFFFFFFFFFFFFFFFF AND PUSH20 0xFFFFFFFFFFFFFFFFFFFFFFFFFFFFFFFFFFFFFFFF AND DUP2 MSTORE POP DUP4 ISZERO ISZERO ISZERO ISZERO DUP2 MSTORE POP POP POP POP PUSH2 0x9E3 PUSH2 0x29DF JUMP JUMPDEST PUSH2 0x9F2 DUP5 DUP5 DUP5 PUSH1 0x40 ADD MLOAD PUSH2 0x187F JUMP JUMPDEST DUP5 PUSH1 0x60 ADD DUP6 PUSH1 0x80 ADD DUP3 SWAP6 POP DUP4 PUSH20 0xFFFFFFFFFFFFFFFFFFFFFFFFFFFFFFFFFFFFFFFF AND PUSH20 0xFFFFFFFFFFFFFFFFFFFFFFFFFFFFFFFFFFFFFFFF AND DUP2 MSTORE POP DUP4 PUSH20 0xFFFFFFFFFFFFFFFFFFFFFFFFFFFFFFFFFFFFFFFF AND PUSH20 0xFFFFFFFFFFFFFFFFFFFFFFFFFFFFFFFFFFFFFFFF AND DUP2 MSTORE POP POP POP POP DUP2 PUSH1 0x60 ADD MLOAD PUSH1 0x1 PUSH0 PUSH2 0x100 EXP DUP2 SLOAD DUP2 PUSH20 0xFFFFFFFFFFFFFFFFFFFFFFFFFFFFFFFFFFFFFFFF MUL NOT AND SWAP1 DUP4 PUSH20 0xFFFFFFFFFFFFFFFFFFFFFFFFFFFFFFFFFFFFFFFF AND MUL OR SWAP1 SSTORE POP PUSH0 DUP3 PUSH0 ADD MLOAD PUSH20 0xFFFFFFFFFFFFFFFFFFFFFFFFFFFFFFFFFFFFFFFF AND PUSH4 0x70A08231 ADDRESS PUSH1 0x40 MLOAD DUP3 PUSH4 0xFFFFFFFF AND PUSH1 0xE0 SHL DUP2 MSTORE PUSH1 0x4 ADD PUSH2 0xAE1 SWAP2 SWAP1 PUSH2 0x2EE7 JUMP JUMPDEST PUSH1 0x20 PUSH1 0x40 MLOAD DUP1 DUP4 SUB DUP2 DUP7 GAS STATICCALL ISZERO DUP1 ISZERO PUSH2 0xAFC JUMPI RETURNDATASIZE PUSH0 DUP1 RETURNDATACOPY RETURNDATASIZE PUSH0 REVERT JUMPDEST POP POP POP POP PUSH1 0x40 MLOAD RETURNDATASIZE PUSH1 0x1F NOT PUSH1 0x1F DUP3 ADD AND DUP3 ADD DUP1 PUSH1 0x40 MSTORE POP DUP2 ADD SWAP1 PUSH2 0xB20 SWAP2 SWAP1 PUSH2 0x32AD JUMP JUMPDEST SWAP1 POP PUSH0 PUSH2 0xB2C DUP4 PUSH2 0x1B59 JUMP JUMPDEST SWAP1 POP PUSH0 DUP1 DUP6 PUSH1 0x40 ADD MLOAD PUSH2 0xB40 JUMPI DUP3 PUSH0 PUSH2 0xB43 JUMP JUMPDEST PUSH0 DUP4 JUMPDEST SWAP2 POP SWAP2 POP PUSH0 PUSH2 0xB5A DUP5 DUP8 PUSH0 ADD MLOAD DUP9 PUSH1 0x20 ADD MLOAD PUSH2 0x1EB0 JUMP JUMPDEST SWAP1 POP PUSH0 PUSH2 0xB70 DUP6 DUP9 PUSH1 0x60 ADD MLOAD DUP10 PUSH1 0x40 ADD MLOAD PUSH2 0x1FBE JUMP JUMPDEST SWAP1 POP DUP2 DUP2 GT PUSH2 0xBB4 JUMPI PUSH1 0x40 MLOAD PUSH32 0x8C379A000000000000000000000000000000000000000000000000000000000 DUP2 MSTORE PUSH1 0x4 ADD PUSH2 0xBAB SWAP1 PUSH2 0x3446 JUMP JUMPDEST PUSH1 0x40 MLOAD DUP1 SWAP2 SUB SWAP1 REVERT JUMPDEST PUSH2 0xC11 PUSH1 0x40 MLOAD DUP1 PUSH1 0x40 ADD PUSH1 0x40 MSTORE DUP1 PUSH1 0x7 DUP2 MSTORE PUSH1 0x20 ADD PUSH32 0x50726F6669743A00000000000000000000000000000000000000000000000000 DUP2 MSTORE POP PUSH8 0xDE0B6B3A7640000 DUP5 DUP5 PUSH2 0xC02 SWAP2 SWAP1 PUSH2 0x33C9 JUMP JUMPDEST PUSH2 0xC0C SWAP2 SWAP1 PUSH2 0x3491 JUMP JUMPDEST PUSH2 0x20EB JUMP JUMPDEST PUSH2 0xC19 PUSH2 0x2A03 JUMP JUMPDEST DUP9 PUSH1 0x60 ADD MLOAD DUP2 PUSH0 ADD SWAP1 PUSH20 0xFFFFFFFFFFFFFFFFFFFFFFFFFFFFFFFFFFFFFFFF AND SWAP1 DUP2 PUSH20 0xFFFFFFFFFFFFFFFFFFFFFFFFFFFFFFFFFFFFFFFF AND DUP2 MSTORE POP POP DUP9 PUSH1 0x80 ADD MLOAD DUP2 PUSH1 0x20 ADD SWAP1 PUSH20 0xFFFFFFFFFFFFFFFFFFFFFFFFFFFFFFFFFFFFFFFF AND SWAP1 DUP2 PUSH20 0xFFFFFFFFFFFFFFFFFFFFFFFFFFFFFFFFFFFFFFFF AND DUP2 MSTORE POP POP DUP9 PUSH1 0x40 ADD MLOAD DUP2 PUSH1 0x40 ADD SWAP1 ISZERO ISZERO SWAP1 DUP2 ISZERO ISZERO DUP2 MSTORE POP POP DUP9 PUSH1 0x20 ADD MLOAD DUP2 PUSH1 0x60 ADD SWAP1 PUSH20 0xFFFFFFFFFFFFFFFFFFFFFFFFFFFFFFFFFFFFFFFF AND SWAP1 DUP2 PUSH20 0xFFFFFFFFFFFFFFFFFFFFFFFFFFFFFFFFFFFFFFFF AND DUP2 MSTORE POP POP DUP9 PUSH0 ADD MLOAD DUP2 PUSH1 0x80 ADD SWAP1 PUSH20 0xFFFFFFFFFFFFFFFFFFFFFFFFFFFFFFFFFFFFFFFF AND SWAP1 DUP2 PUSH20 0xFFFFFFFFFFFFFFFFFFFFFFFFFFFFFFFFFFFFFFFF AND DUP2 MSTORE POP POP DUP3 DUP2 PUSH1 0xA0 ADD DUP2 DUP2 MSTORE POP POP DUP2 DUP2 PUSH1 0xC0 ADD DUP2 DUP2 MSTORE POP POP PUSH0 DUP2 PUSH1 0x40 MLOAD PUSH1 0x20 ADD PUSH2 0xD41 SWAP2 SWAP1 PUSH2 0x356B JUMP JUMPDEST PUSH1 0x40 MLOAD PUSH1 0x20 DUP2 DUP4 SUB SUB DUP2 MSTORE SWAP1 PUSH1 0x40 MSTORE SWAP1 POP DUP10 PUSH1 0x60 ADD MLOAD PUSH20 0xFFFFFFFFFFFFFFFFFFFFFFFFFFFFFFFFFFFFFFFF AND PUSH4 0x22C0D9F DUP8 DUP8 ADDRESS DUP6 PUSH1 0x40 MLOAD DUP6 PUSH4 0xFFFFFFFF AND PUSH1 0xE0 SHL DUP2 MSTORE PUSH1 0x4 ADD PUSH2 0xD95 SWAP5 SWAP4 SWAP3 SWAP2 SWAP1 PUSH2 0x3263 JUMP JUMPDEST PUSH0 PUSH1 0x40 MLOAD DUP1 DUP4 SUB DUP2 PUSH0 DUP8 DUP1 EXTCODESIZE ISZERO DUP1 ISZERO PUSH2 0xDAC JUMPI PUSH0 DUP1 REVERT JUMPDEST POP GAS CALL ISZERO DUP1 ISZERO PUSH2 0xDBE JUMPI RETURNDATASIZE PUSH0 DUP1 RETURNDATACOPY RETURNDATASIZE PUSH0 REVERT JUMPDEST POP POP POP POP POP POP POP POP POP POP POP PUSH0 DUP4 PUSH0 ADD MLOAD PUSH20 0xFFFFFFFFFFFFFFFFFFFFFFFFFFFFFFFFFFFFFFFF AND PUSH4 0x70A08231 ADDRESS PUSH1 0x40 MLOAD DUP3 PUSH4 0xFFFFFFFF AND PUSH1 0xE0 SHL DUP2 MSTORE PUSH1 0x4 ADD PUSH2 0xE06 SWAP2 SWAP1 PUSH2 0x2EE7 JUMP JUMPDEST PUSH1 0x20 PUSH1 0x40 MLOAD DUP1 DUP4 SUB DUP2 DUP7 GAS STATICCALL ISZERO DUP1 ISZERO PUSH2 0xE21 JUMPI RETURNDATASIZE PUSH0 DUP1 RETURNDATACOPY RETURNDATASIZE PUSH0 REVERT JUMPDEST POP POP POP POP PUSH1 0x40 MLOAD RETURNDATASIZE PUSH1 0x1F NOT PUSH1 0x1F DUP3 ADD AND DUP3 ADD DUP1 PUSH1 0x40 MSTORE POP DUP2 ADD SWAP1 PUSH2 0xE45 SWAP2 SWAP1 PUSH2 0x32AD JUMP JUMPDEST SWAP1 POP DUP2 DUP2 GT PUSH2 0xE89 JUMPI PUSH1 0x40 MLOAD PUSH32 0x8C379A000000000000000000000000000000000000000000000000000000000 DUP2 MSTORE PUSH1 0x4 ADD PUSH2 0xE80 SWAP1 PUSH2 0x35CE JUMP JUMPDEST PUSH1 0x40 MLOAD DUP1 SWAP2 SUB SWAP1 REVERT JUMPDEST PUSH32 0x0 PUSH20 0xFFFFFFFFFFFFFFFFFFFFFFFFFFFFFFFFFFFFFFFF AND DUP5 PUSH0 ADD MLOAD PUSH20 0xFFFFFFFFFFFFFFFFFFFFFFFFFFFFFFFFFFFFFFFF AND SUB PUSH2 0xF49 JUMPI DUP4 PUSH0 ADD MLOAD PUSH20 0xFFFFFFFFFFFFFFFFFFFFFFFFFFFFFFFFFFFFFFFF AND PUSH4 0x2E1A7D4D DUP3 PUSH1 0x40 MLOAD DUP3 PUSH4 0xFFFFFFFF AND PUSH1 0xE0 SHL DUP2 MSTORE PUSH1 0x4 ADD PUSH2 0xF1B SWAP2 SWAP1 PUSH2 0x35EC JUMP JUMPDEST PUSH0 PUSH1 0x40 MLOAD DUP1 DUP4 SUB DUP2 PUSH0 DUP8 DUP1 EXTCODESIZE ISZERO DUP1 ISZERO PUSH2 0xF32 JUMPI PUSH0 DUP1 REVERT JUMPDEST POP GAS CALL ISZERO DUP1 ISZERO PUSH2 0xF44 JUMPI RETURNDATASIZE PUSH0 DUP1 RETURNDATACOPY RETURNDATASIZE PUSH0 REVERT JUMPDEST POP POP POP POP JUMPDEST PUSH1 0x1 DUP1 PUSH0 PUSH2 0x100 EXP DUP2 SLOAD DUP2 PUSH20 0xFFFFFFFFFFFFFFFFFFFFFFFFFFFFFFFFFFFFFFFF MUL NOT AND SWAP1 DUP4 PUSH20 0xFFFFFFFFFFFFFFFFFFFFFFFFFFFFFFFFFFFFFFFF AND MUL OR SWAP1 SSTORE POP POP POP POP POP POP POP JUMP JUMPDEST PUSH2 0xF99 PUSH2 0x1333 JUMP JUMPDEST PUSH0 DUP2 PUSH20 0xFFFFFFFFFFFFFFFFFFFFFFFFFFFFFFFFFFFFFFFF AND PUSH4 0x70A08231 ADDRESS PUSH1 0x40 MLOAD DUP3 PUSH4 0xFFFFFFFF AND PUSH1 0xE0 SHL DUP2 MSTORE PUSH1 0x4 ADD PUSH2 0xFD3 SWAP2 SWAP1 PUSH2 0x2EE7 JUMP JUMPDEST PUSH1 0x20 PUSH1 0x40 MLOAD DUP1 DUP4 SUB DUP2 DUP7 GAS STATICCALL ISZERO DUP1 ISZERO PUSH2 0xFEE JUMPI RETURNDATASIZE PUSH0 DUP1 RETURNDATACOPY RETURNDATASIZE PUSH0 REVERT JUMPDEST POP POP POP POP PUSH1 0x40 MLOAD RETURNDATASIZE PUSH1 0x1F NOT PUSH1 0x1F DUP3 ADD AND DUP3 ADD DUP1 PUSH1 0x40 MSTORE POP DUP2 ADD SWAP1 PUSH2 0x1012 SWAP2 SWAP1 PUSH2 0x32AD JUMP JUMPDEST SWAP1 POP PUSH0 DUP2 GT ISZERO PUSH2 0x10A0 JUMPI DUP2 PUSH20 0xFFFFFFFFFFFFFFFFFFFFFFFFFFFFFFFFFFFFFFFF AND PUSH4 0xA9059CBB PUSH2 0x1040 PUSH2 0x92C JUMP JUMPDEST DUP4 PUSH1 0x40 MLOAD DUP4 PUSH4 0xFFFFFFFF AND PUSH1 0xE0 SHL DUP2 MSTORE PUSH1 0x4 ADD PUSH2 0x105E SWAP3 SWAP2 SWAP1 PUSH2 0x32D8 JUMP JUMPDEST PUSH1 0x20 PUSH1 0x40 MLOAD DUP1 DUP4 SUB DUP2 PUSH0 DUP8 GAS CALL ISZERO DUP1 ISZERO PUSH2 0x107A JUMPI RETURNDATASIZE PUSH0 DUP1 RETURNDATACOPY RETURNDATASIZE PUSH0 REVERT JUMPDEST POP POP POP POP PUSH1 0x40 MLOAD RETURNDATASIZE PUSH1 0x1F NOT PUSH1 0x1F DUP3 ADD AND DUP3 ADD DUP1 PUSH1 0x40 MSTORE POP DUP2 ADD SWAP1 PUSH2 0x109E SWAP2 SWAP1 PUSH2 0x32FF JUMP JUMPDEST POP JUMPDEST PUSH2 0x10B4 DUP3 PUSH1 0x2 PUSH2 0x2187 SWAP1 SWAP2 SWAP1 PUSH4 0xFFFFFFFF AND JUMP JUMPDEST POP DUP2 PUSH20 0xFFFFFFFFFFFFFFFFFFFFFFFFFFFFFFFFFFFFFFFF AND PUSH32 0xDC23A849435922F20A9732EB85192A9D0C1CB34725EBE6D7DE0BE10212BA02FB PUSH1 0x40 MLOAD PUSH1 0x40 MLOAD DUP1 SWAP2 SUB SWAP1 LOG2 POP POP JUMP JUMPDEST PUSH1 0x60 PUSH0 PUSH2 0x1109 PUSH1 0x2 PUSH2 0x1309 JUMP JUMPDEST SWAP1 POP DUP1 PUSH8 0xFFFFFFFFFFFFFFFF DUP2 GT ISZERO PUSH2 0x1125 JUMPI PUSH2 0x1124 PUSH2 0x2BA7 JUMP JUMPDEST JUMPDEST PUSH1 0x40 MLOAD SWAP1 DUP1 DUP3 MSTORE DUP1 PUSH1 0x20 MUL PUSH1 0x20 ADD DUP3 ADD PUSH1 0x40 MSTORE DUP1 ISZERO PUSH2 0x1153 JUMPI DUP2 PUSH1 0x20 ADD PUSH1 0x20 DUP3 MUL DUP1 CALLDATASIZE DUP4 CALLDATACOPY DUP1 DUP3 ADD SWAP2 POP POP SWAP1 POP JUMPDEST POP SWAP2 POP PUSH0 JUMPDEST DUP2 DUP2 LT ISZERO PUSH2 0x11D4 JUMPI PUSH2 0x1174 DUP2 PUSH1 0x2 PUSH2 0x131C SWAP1 SWAP2 SWAP1 PUSH4 0xFFFFFFFF AND JUMP JUMPDEST DUP4 DUP3 DUP2 MLOAD DUP2 LT PUSH2 0x1187 JUMPI PUSH2 0x1186 PUSH2 0x3605 JUMP JUMPDEST JUMPDEST PUSH1 0x20 MUL PUSH1 0x20 ADD ADD SWAP1 PUSH20 0xFFFFFFFFFFFFFFFFFFFFFFFFFFFFFFFFFFFFFFFF AND SWAP1 DUP2 PUSH20 0xFFFFFFFFFFFFFFFFFFFFFFFFFFFFFFFFFFFFFFFF AND DUP2 MSTORE POP POP DUP1 DUP1 PUSH2 0x11CC SWAP1 PUSH2 0x3357 JUMP JUMPDEST SWAP2 POP POP PUSH2 0x1158 JUMP JUMPDEST POP POP SWAP1 JUMP JUMPDEST PUSH2 0x11E1 PUSH2 0x1333 JUMP JUMPDEST PUSH0 PUSH20 0xFFFFFFFFFFFFFFFFFFFFFFFFFFFFFFFFFFFFFFFF AND DUP2 PUSH20 0xFFFFFFFFFFFFFFFFFFFFFFFFFFFFFFFFFFFFFFFF AND SUB PUSH2 0x1251 JUMPI PUSH0 PUSH1 0x40 MLOAD PUSH32 0x1E4FBDF700000000000000000000000000000000000000000000000000000000 DUP2 MSTORE PUSH1 0x4 ADD PUSH2 0x1248 SWAP2 SWAP1 PUSH2 0x2EE7 JUMP JUMPDEST PUSH1 0x40 MLOAD DUP1 SWAP2 SUB SWAP1 REVERT JUMPDEST PUSH2 0x125A DUP2 PUSH2 0x13BA JUMP JUMPDEST POP JUMP JUMPDEST PUSH2 0x12D7 DUP4 DUP5 PUSH20 0xFFFFFFFFFFFFFFFFFFFFFFFFFFFFFFFFFFFFFFFF AND PUSH4 0xA9059CBB DUP6 DUP6 PUSH1 0x40 MLOAD PUSH1 0x24 ADD PUSH2 0x1290 SWAP3 SWAP2 SWAP1 PUSH2 0x32D8 JUMP JUMPDEST PUSH1 0x40 MLOAD PUSH1 0x20 DUP2 DUP4 SUB SUB DUP2 MSTORE SWAP1 PUSH1 0x40 MSTORE SWAP2 POP PUSH1 0xE0 SHL PUSH1 0x20 DUP3 ADD DUP1 MLOAD PUSH28 0xFFFFFFFFFFFFFFFFFFFFFFFFFFFFFFFFFFFFFFFFFFFFFFFFFFFFFFFF DUP4 DUP2 DUP4 AND OR DUP4 MSTORE POP POP POP POP PUSH2 0x21B4 JUMP JUMPDEST POP POP POP JUMP JUMPDEST PUSH0 PUSH2 0x1301 DUP4 PUSH0 ADD DUP4 PUSH20 0xFFFFFFFFFFFFFFFFFFFFFFFFFFFFFFFFFFFFFFFF AND PUSH0 SHL PUSH2 0x224F JUMP JUMPDEST SWAP1 POP SWAP3 SWAP2 POP POP JUMP JUMPDEST PUSH0 PUSH2 0x1315 DUP3 PUSH0 ADD PUSH2 0x226F JUMP JUMPDEST SWAP1 POP SWAP2 SWAP1 POP JUMP JUMPDEST PUSH0 PUSH2 0x1329 DUP4 PUSH0 ADD DUP4 PUSH2 0x227E JUMP JUMPDEST PUSH0 SHR SWAP1 POP SWAP3 SWAP2 POP POP JUMP JUMPDEST PUSH2 0x133B PUSH2 0x22A5 JUMP JUMPDEST PUSH20 0xFFFFFFFFFFFFFFFFFFFFFFFFFFFFFFFFFFFFFFFF AND PUSH2 0x1359 PUSH2 0x92C JUMP JUMPDEST PUSH20 0xFFFFFFFFFFFFFFFFFFFFFFFFFFFFFFFFFFFFFFFF AND EQ PUSH2 0x13B8 JUMPI PUSH2 0x137C PUSH2 0x22A5 JUMP JUMPDEST PUSH1 0x40 MLOAD PUSH32 0x118CDAA700000000000000000000000000000000000000000000000000000000 DUP2 MSTORE PUSH1 0x4 ADD PUSH2 0x13AF SWAP2 SWAP1 PUSH2 0x2EE7 JUMP JUMPDEST PUSH1 0x40 MLOAD DUP1 SWAP2 SUB SWAP1 REVERT JUMPDEST JUMP JUMPDEST PUSH0 DUP1 PUSH0 SWAP1 SLOAD SWAP1 PUSH2 0x100 EXP SWAP1 DIV PUSH20 0xFFFFFFFFFFFFFFFFFFFFFFFFFFFFFFFFFFFFFFFF AND SWAP1 POP DUP2 PUSH0 DUP1 PUSH2 0x100 EXP DUP2 SLOAD DUP2 PUSH20 0xFFFFFFFFFFFFFFFFFFFFFFFFFFFFFFFFFFFFFFFF MUL NOT AND SWAP1 DUP4 PUSH20 0xFFFFFFFFFFFFFFFFFFFFFFFFFFFFFFFFFFFFFFFF AND MUL OR SWAP1 SSTORE POP DUP2 PUSH20 0xFFFFFFFFFFFFFFFFFFFFFFFFFFFFFFFFFFFFFFFF AND DUP2 PUSH20 0xFFFFFFFFFFFFFFFFFFFFFFFFFFFFFFFFFFFFFFFF AND PUSH32 0x8BE0079C531659141344CD1FD0A4F28419497F9722A3DAAFE3B4186F6B6457E0 PUSH1 0x40 MLOAD PUSH1 0x40 MLOAD DUP1 SWAP2 SUB SWAP1 LOG3 POP POP JUMP JUMPDEST PUSH0 DUP1 PUSH0 DUP4 PUSH20 0xFFFFFFFFFFFFFFFFFFFFFFFFFFFFFFFFFFFFFFFF AND DUP6 PUSH20 0xFFFFFFFFFFFFFFFFFFFFFFFFFFFFFFFFFFFFFFFF AND SUB PUSH2 0x14EC JUMPI PUSH1 0x40 MLOAD PUSH32 0x8C379A000000000000000000000000000000000000000000000000000000000 DUP2 MSTORE PUSH1 0x4 ADD PUSH2 0x14E3 SWAP1 PUSH2 0x367C JUMP JUMPDEST PUSH1 0x40 MLOAD DUP1 SWAP2 SUB SWAP1 REVERT JUMPDEST PUSH0 DUP1 DUP7 PUSH20 0xFFFFFFFFFFFFFFFFFFFFFFFFFFFFFFFFFFFFFFFF AND PUSH4 0xDFE1681 PUSH1 0x40 MLOAD DUP2 PUSH4 0xFFFFFFFF AND PUSH1 0xE0 SHL DUP2 MSTORE PUSH1 0x4 ADD PUSH1 0x20 PUSH1 0x40 MLOAD DUP1 DUP4 SUB DUP2 DUP7 GAS STATICCALL ISZERO DUP1 ISZERO PUSH2 0x1537 JUMPI RETURNDATASIZE PUSH0 DUP1 RETURNDATACOPY RETURNDATASIZE PUSH0 REVERT JUMPDEST POP POP POP POP PUSH1 0x40 MLOAD RETURNDATASIZE PUSH1 0x1F NOT PUSH1 0x1F DUP3 ADD AND DUP3 ADD DUP1 PUSH1 0x40 MSTORE POP DUP2 ADD SWAP1 PUSH2 0x155B SWAP2 SWAP1 PUSH2 0x339E JUMP JUMPDEST DUP8 PUSH20 0xFFFFFFFFFFFFFFFFFFFFFFFFFFFFFFFFFFFFFFFF AND PUSH4 0xD21220A7 PUSH1 0x40 MLOAD DUP2 PUSH4 0xFFFFFFFF AND PUSH1 0xE0 SHL DUP2 MSTORE PUSH1 0x4 ADD PUSH1 0x20 PUSH1 0x40 MLOAD DUP1 DUP4 SUB DUP2 DUP7 GAS STATICCALL ISZERO DUP1 ISZERO PUSH2 0x15A4 JUMPI RETURNDATASIZE PUSH0 DUP1 RETURNDATACOPY RETURNDATASIZE PUSH0 REVERT JUMPDEST POP POP POP POP PUSH1 0x40 MLOAD RETURNDATASIZE PUSH1 0x1F NOT PUSH1 0x1F DUP3 ADD AND DUP3 ADD DUP1 PUSH1 0x40 MSTORE POP DUP2 ADD SWAP1 PUSH2 0x15C8 SWAP2 SWAP1 PUSH2 0x339E JUMP JUMPDEST SWAP2 POP SWAP2 POP PUSH0 DUP1 DUP8 PUSH20 0xFFFFFFFFFFFFFFFFFFFFFFFFFFFFFFFFFFFFFFFF AND PUSH4 0xDFE1681 PUSH1 0x40 MLOAD DUP2 PUSH4 0xFFFFFFFF AND PUSH1 0xE0 SHL DUP2 MSTORE PUSH1 0x4 ADD PUSH1 0x20 PUSH1 0x40 MLOAD DUP1 DUP4 SUB DUP2 DUP7 GAS STATICCALL ISZERO DUP1 ISZERO PUSH2 0x1617 JUMPI RETURNDATASIZE PUSH0 DUP1 RETURNDATACOPY RETURNDATASIZE PUSH0 REVERT JUMPDEST POP POP POP POP PUSH1 0x40 MLOAD RETURNDATASIZE PUSH1 0x1F NOT PUSH1 0x1F DUP3 ADD AND DUP3 ADD DUP1 PUSH1 0x40 MSTORE POP DUP2 ADD SWAP1 PUSH2 0x163B SWAP2 SWAP1 PUSH2 0x339E JUMP JUMPDEST DUP9 PUSH20 0xFFFFFFFFFFFFFFFFFFFFFFFFFFFFFFFFFFFFFFFF AND PUSH4 0xD21220A7 PUSH1 0x40 MLOAD DUP2 PUSH4 0xFFFFFFFF AND PUSH1 0xE0 SHL DUP2 MSTORE PUSH1 0x4 ADD PUSH1 0x20 PUSH1 0x40 MLOAD DUP1 DUP4 SUB DUP2 DUP7 GAS STATICCALL ISZERO DUP1 ISZERO PUSH2 0x1684 JUMPI RETURNDATASIZE PUSH0 DUP1 RETURNDATACOPY RETURNDATASIZE PUSH0 REVERT JUMPDEST POP POP POP POP PUSH1 0x40 MLOAD RETURNDATASIZE PUSH1 0x1F NOT PUSH1 0x1F DUP3 ADD AND DUP3 ADD DUP1 PUSH1 0x40 MSTORE POP DUP2 ADD SWAP1 PUSH2 0x16A8 SWAP2 SWAP1 PUSH2 0x339E JUMP JUMPDEST SWAP2 POP SWAP2 POP DUP3 PUSH20 0xFFFFFFFFFFFFFFFFFFFFFFFFFFFFFFFFFFFFFFFF AND DUP5 PUSH20 0xFFFFFFFFFFFFFFFFFFFFFFFFFFFFFFFFFFFFFFFF AND LT DUP1 ISZERO PUSH2 0x1712 JUMPI POP DUP1 PUSH20 0xFFFFFFFFFFFFFFFFFFFFFFFFFFFFFFFFFFFFFFFF AND DUP3 PUSH20 0xFFFFFFFFFFFFFFFFFFFFFFFFFFFFFFFFFFFFFFFF AND LT JUMPDEST PUSH2 0x1751 JUMPI PUSH1 0x40 MLOAD PUSH32 0x8C379A000000000000000000000000000000000000000000000000000000000 DUP2 MSTORE PUSH1 0x4 ADD PUSH2 0x1748 SWAP1 PUSH2 0x36E4 JUMP JUMPDEST PUSH1 0x40 MLOAD DUP1 SWAP2 SUB SWAP1 REVERT JUMPDEST DUP2 PUSH20 0xFFFFFFFFFFFFFFFFFFFFFFFFFFFFFFFFFFFFFFFF AND DUP5 PUSH20 0xFFFFFFFFFFFFFFFFFFFFFFFFFFFFFFFFFFFFFFFF AND EQ DUP1 ISZERO PUSH2 0x17B7 JUMPI POP DUP1 PUSH20 0xFFFFFFFFFFFFFFFFFFFFFFFFFFFFFFFFFFFFFFFF AND DUP4 PUSH20 0xFFFFFFFFFFFFFFFFFFFFFFFFFFFFFFFFFFFFFFFF AND EQ JUMPDEST PUSH2 0x17F6 JUMPI PUSH1 0x40 MLOAD PUSH32 0x8C379A000000000000000000000000000000000000000000000000000000000 DUP2 MSTORE PUSH1 0x4 ADD PUSH2 0x17ED SWAP1 PUSH2 0x374C JUMP JUMPDEST PUSH1 0x40 MLOAD DUP1 SWAP2 SUB SWAP1 REVERT JUMPDEST PUSH2 0x17FF DUP5 PUSH2 0x545 JUMP JUMPDEST DUP1 PUSH2 0x180F JUMPI POP PUSH2 0x180E DUP4 PUSH2 0x545 JUMP JUMPDEST JUMPDEST PUSH2 0x184E JUMPI PUSH1 0x40 MLOAD PUSH32 0x8C379A000000000000000000000000000000000000000000000000000000000 DUP2 MSTORE PUSH1 0x4 ADD PUSH2 0x1845 SWAP1 PUSH2 0x37B4 JUMP JUMPDEST PUSH1 0x40 MLOAD DUP1 SWAP2 SUB SWAP1 REVERT JUMPDEST PUSH2 0x1857 DUP5 PUSH2 0x545 JUMP JUMPDEST PUSH2 0x1863 JUMPI PUSH0 DUP4 DUP6 PUSH2 0x1868 JUMP JUMPDEST PUSH1 0x1 DUP5 DUP5 JUMPDEST DUP1 SWAP8 POP DUP2 SWAP9 POP DUP3 SWAP10 POP POP POP POP POP POP POP POP SWAP3 POP SWAP3 POP SWAP3 JUMP JUMPDEST PUSH0 DUP1 PUSH2 0x1889 PUSH2 0x29DF JUMP JUMPDEST PUSH0 DUP1 DUP8 PUSH20 0xFFFFFFFFFFFFFFFFFFFFFFFFFFFFFFFFFFFFFFFF AND PUSH4 0x902F1AC PUSH1 0x40 MLOAD DUP2 PUSH4 0xFFFFFFFF AND PUSH1 0xE0 SHL DUP2 MSTORE PUSH1 0x4 ADD PUSH1 0x60 PUSH1 0x40 MLOAD DUP1 DUP4 SUB DUP2 DUP7 GAS STATICCALL ISZERO DUP1 ISZERO PUSH2 0x18D4 JUMPI RETURNDATASIZE PUSH0 DUP1 RETURNDATACOPY RETURNDATASIZE PUSH0 REVERT JUMPDEST POP POP POP POP PUSH1 0x40 MLOAD RETURNDATASIZE PUSH1 0x1F NOT PUSH1 0x1F DUP3 ADD AND DUP3 ADD DUP1 PUSH1 0x40 MSTORE POP DUP2 ADD SWAP1 PUSH2 0x18F8 SWAP2 SWAP1 PUSH2 0x384E JUMP JUMPDEST POP PUSH14 0xFFFFFFFFFFFFFFFFFFFFFFFFFFFF AND SWAP2 POP PUSH14 0xFFFFFFFFFFFFFFFFFFFFFFFFFFFF AND SWAP2 POP PUSH0 DUP1 DUP9 PUSH20 0xFFFFFFFFFFFFFFFFFFFFFFFFFFFFFFFFFFFFFFFF AND PUSH4 0x902F1AC PUSH1 0x40 MLOAD DUP2 PUSH4 0xFFFFFFFF AND PUSH1 0xE0 SHL DUP2 MSTORE PUSH1 0x4 ADD PUSH1 0x60 PUSH1 0x40 MLOAD DUP1 DUP4 SUB DUP2 DUP7 GAS STATICCALL ISZERO DUP1 ISZERO PUSH2 0x1968 JUMPI RETURNDATASIZE PUSH0 DUP1 RETURNDATACOPY RETURNDATASIZE PUSH0 REVERT JUMPDEST POP POP POP POP PUSH1 0x40 MLOAD RETURNDATASIZE PUSH1 0x1F NOT PUSH1 0x1F DUP3 ADD AND DUP3 ADD DUP1 PUSH1 0x40 MSTORE POP DUP2 ADD SWAP1 PUSH2 0x198C SWAP2 SWAP1 PUSH2 0x384E JUMP JUMPDEST POP PUSH14 0xFFFFFFFFFFFFFFFFFFFFFFFFFFFF AND SWAP2 POP PUSH14 0xFFFFFFFFFFFFFFFFFFFFFFFFFFFF AND SWAP2 POP PUSH0 DUP1 DUP10 PUSH2 0x19F3 JUMPI PUSH2 0x19D3 DUP7 PUSH2 0x19C5 DUP8 PUSH2 0x22AC JUMP JUMPDEST PUSH2 0x22E4 SWAP1 SWAP2 SWAP1 PUSH4 0xFFFFFFFF AND JUMP JUMPDEST PUSH2 0x19EE DUP6 PUSH2 0x19E0 DUP7 PUSH2 0x22AC JUMP JUMPDEST PUSH2 0x22E4 SWAP1 SWAP2 SWAP1 PUSH4 0xFFFFFFFF AND JUMP JUMPDEST PUSH2 0x1A2A JUMP JUMPDEST PUSH2 0x1A0E DUP6 PUSH2 0x1A00 DUP9 PUSH2 0x22AC JUMP JUMPDEST PUSH2 0x22E4 SWAP1 SWAP2 SWAP1 PUSH4 0xFFFFFFFF AND JUMP JUMPDEST PUSH2 0x1A29 DUP5 PUSH2 0x1A1B DUP8 PUSH2 0x22AC JUMP JUMPDEST PUSH2 0x22E4 SWAP1 SWAP2 SWAP1 PUSH4 0xFFFFFFFF AND JUMP JUMPDEST JUMPDEST SWAP2 POP SWAP2 POP PUSH2 0x1A41 DUP2 DUP4 PUSH2 0x2318 SWAP1 SWAP2 SWAP1 PUSH4 0xFFFFFFFF AND JUMP JUMPDEST ISZERO PUSH2 0x1A8B JUMPI DUP12 DUP12 DUP1 SWAP10 POP DUP2 SWAP11 POP POP POP DUP10 PUSH2 0x1A5E JUMPI DUP5 DUP7 DUP5 DUP7 PUSH2 0x1A63 JUMP JUMPDEST DUP6 DUP6 DUP6 DUP6 JUMPDEST DUP11 PUSH0 ADD DUP12 PUSH1 0x20 ADD DUP13 PUSH1 0x40 ADD DUP14 PUSH1 0x60 ADD DUP5 DUP2 MSTORE POP DUP5 DUP2 MSTORE POP DUP5 DUP2 MSTORE POP DUP5 DUP2 MSTORE POP POP POP POP POP PUSH2 0x1ACC JUMP JUMPDEST DUP11 DUP13 DUP1 SWAP10 POP DUP2 SWAP11 POP POP POP DUP10 PUSH2 0x1AA3 JUMPI DUP3 DUP5 DUP7 DUP9 PUSH2 0x1AA8 JUMP JUMPDEST DUP4 DUP4 DUP8 DUP8 JUMPDEST DUP11 PUSH0 ADD DUP12 PUSH1 0x20 ADD DUP13 PUSH1 0x40 ADD DUP14 PUSH1 0x60 ADD DUP5 DUP2 MSTORE POP DUP5 DUP2 MSTORE POP DUP5 DUP2 MSTORE POP DUP5 DUP2 MSTORE POP POP POP POP POP JUMPDEST PUSH2 0x1B0B PUSH1 0x40 MLOAD DUP1 PUSH1 0x40 ADD PUSH1 0x40 MSTORE DUP1 PUSH1 0x11 DUP2 MSTORE PUSH1 0x20 ADD PUSH32 0x426F72726F772066726F6D20706F6F6C3A000000000000000000000000000000 DUP2 MSTORE POP DUP11 PUSH2 0x232D JUMP JUMPDEST PUSH2 0x1B4A PUSH1 0x40 MLOAD DUP1 PUSH1 0x40 ADD PUSH1 0x40 MSTORE DUP1 PUSH1 0xD DUP2 MSTORE PUSH1 0x20 ADD PUSH32 0x53656C6C20746F20706F6F6C3A00000000000000000000000000000000000000 DUP2 MSTORE POP DUP10 PUSH2 0x232D JUMP JUMPDEST POP POP POP POP POP POP SWAP4 POP SWAP4 POP SWAP4 SWAP1 POP JUMP JUMPDEST PUSH0 DUP1 DUP3 PUSH1 0x20 ADD MLOAD DUP4 PUSH0 ADD MLOAD LT PUSH2 0x1B73 JUMPI DUP3 PUSH1 0x20 ADD MLOAD PUSH2 0x1B78 JUMP JUMPDEST DUP3 PUSH0 ADD MLOAD JUMPDEST SWAP1 POP PUSH0 DUP4 PUSH1 0x60 ADD MLOAD DUP5 PUSH1 0x40 ADD MLOAD LT PUSH2 0x1B94 JUMPI DUP4 PUSH1 0x60 ADD MLOAD PUSH2 0x1B9A JUMP JUMPDEST DUP4 PUSH1 0x40 ADD MLOAD JUMPDEST SWAP1 POP PUSH0 DUP2 DUP4 LT PUSH2 0x1BAA JUMPI DUP2 PUSH2 0x1BAC JUMP JUMPDEST DUP3 JUMPDEST SWAP1 POP PUSH0 PUSH10 0xD3C21BCECCEDA1000000 DUP3 GT ISZERO PUSH2 0x1BD2 JUMPI PUSH9 0x56BC75E2D63100000 SWAP1 POP PUSH2 0x1CFC JUMP JUMPDEST PUSH10 0x152D02C7E14AF6800000 DUP3 GT ISZERO PUSH2 0x1BF4 JUMPI PUSH8 0x8AC7230489E80000 SWAP1 POP PUSH2 0x1CFB JUMP JUMPDEST PUSH10 0x21E19E0C9BAB2400000 DUP3 GT ISZERO PUSH2 0x1C16 JUMPI PUSH8 0xDE0B6B3A7640000 SWAP1 POP PUSH2 0x1CFA JUMP JUMPDEST PUSH9 0x3635C9ADC5DEA00000 DUP3 GT ISZERO PUSH2 0x1C37 JUMPI PUSH8 0x16345785D8A0000 SWAP1 POP PUSH2 0x1CF9 JUMP JUMPDEST PUSH9 0x56BC75E2D63100000 DUP3 GT ISZERO PUSH2 0x1C57 JUMPI PUSH7 0x2386F26FC10000 SWAP1 POP PUSH2 0x1CF8 JUMP JUMPDEST PUSH8 0x8AC7230489E80000 DUP3 GT ISZERO PUSH2 0x1C76 JUMPI PUSH7 0x38D7EA4C68000 SWAP1 POP PUSH2 0x1CF7 JUMP JUMPDEST PUSH8 0xDE0B6B3A7640000 DUP3 GT ISZERO PUSH2 0x1C94 JUMPI PUSH6 0x5AF3107A4000 SWAP1 POP PUSH2 0x1CF6 JUMP JUMPDEST PUSH8 0x16345785D8A0000 DUP3 GT ISZERO PUSH2 0x1CB2 JUMPI PUSH6 0x9184E72A000 SWAP1 POP PUSH2 0x1CF5 JUMP JUMPDEST PUSH7 0x2386F26FC10000 DUP3 GT ISZERO PUSH2 0x1CCE JUMPI PUSH5 0xE8D4A51000 SWAP1 POP PUSH2 0x1CF4 JUMP JUMPDEST PUSH7 0x38D7EA4C68000 DUP3 GT ISZERO PUSH2 0x1CEA JUMPI PUSH5 0x174876E800 SWAP1 POP PUSH2 0x1CF3 JUMP JUMPDEST PUSH5 0x2540BE400 SWAP1 POP JUMPDEST JUMPDEST JUMPDEST JUMPDEST JUMPDEST JUMPDEST JUMPDEST JUMPDEST JUMPDEST JUMPDEST PUSH0 DUP1 PUSH0 DUP1 DUP5 DUP11 PUSH0 ADD MLOAD PUSH2 0x1D0F SWAP2 SWAP1 PUSH2 0x3491 JUMP JUMPDEST DUP6 DUP12 PUSH1 0x40 ADD MLOAD PUSH2 0x1D1F SWAP2 SWAP1 PUSH2 0x3491 JUMP JUMPDEST DUP7 DUP13 PUSH1 0x20 ADD MLOAD PUSH2 0x1D2F SWAP2 SWAP1 PUSH2 0x3491 JUMP JUMPDEST DUP8 DUP14 PUSH1 0x60 ADD MLOAD PUSH2 0x1D3F SWAP2 SWAP1 PUSH2 0x3491 JUMP JUMPDEST SWAP4 POP SWAP4 POP SWAP4 POP SWAP4 POP PUSH0 DUP2 DUP5 PUSH2 0x1D54 SWAP2 SWAP1 PUSH2 0x38A7 JUMP JUMPDEST DUP4 DUP7 PUSH2 0x1D60 SWAP2 SWAP1 PUSH2 0x38A7 JUMP JUMPDEST PUSH2 0x1D6A SWAP2 SWAP1 PUSH2 0x391D JUMP JUMPDEST SWAP1 POP PUSH0 DUP5 DUP7 PUSH2 0x1D79 SWAP2 SWAP1 PUSH2 0x395D JUMP JUMPDEST DUP4 DUP6 PUSH1 0x2 PUSH2 0x1D87 SWAP2 SWAP1 PUSH2 0x38A7 JUMP JUMPDEST PUSH2 0x1D91 SWAP2 SWAP1 PUSH2 0x38A7 JUMP JUMPDEST PUSH2 0x1D9B SWAP2 SWAP1 PUSH2 0x38A7 JUMP JUMPDEST SWAP1 POP PUSH0 DUP5 DUP7 PUSH2 0x1DAA SWAP2 SWAP1 PUSH2 0x38A7 JUMP JUMPDEST DUP5 DUP9 PUSH2 0x1DB6 SWAP2 SWAP1 PUSH2 0x38A7 JUMP JUMPDEST PUSH2 0x1DC0 SWAP2 SWAP1 PUSH2 0x391D JUMP JUMPDEST DUP5 DUP7 PUSH2 0x1DCC SWAP2 SWAP1 PUSH2 0x38A7 JUMP JUMPDEST PUSH2 0x1DD6 SWAP2 SWAP1 PUSH2 0x38A7 JUMP JUMPDEST SWAP1 POP PUSH0 DUP1 PUSH2 0x1DE5 DUP6 DUP6 DUP6 PUSH2 0x23C9 JUMP JUMPDEST SWAP2 POP SWAP2 POP PUSH0 DUP3 SGT DUP1 ISZERO PUSH2 0x1DF7 JUMPI POP DUP7 DUP3 SLT JUMPDEST DUP1 ISZERO PUSH2 0x1E02 JUMPI POP DUP6 DUP3 SLT JUMPDEST DUP1 PUSH2 0x1E22 JUMPI POP PUSH0 DUP2 SGT DUP1 ISZERO PUSH2 0x1E16 JUMPI POP DUP7 DUP2 SLT JUMPDEST DUP1 ISZERO PUSH2 0x1E21 JUMPI POP DUP6 DUP2 SLT JUMPDEST JUMPDEST PUSH2 0x1E61 JUMPI PUSH1 0x40 MLOAD PUSH32 0x8C379A000000000000000000000000000000000000000000000000000000000 DUP2 MSTORE PUSH1 0x4 ADD PUSH2 0x1E58 SWAP1 PUSH2 0x39E8 JUMP JUMPDEST PUSH1 0x40 MLOAD DUP1 SWAP2 SUB SWAP1 REVERT JUMPDEST PUSH0 DUP3 SGT DUP1 ISZERO PUSH2 0x1E6F JUMPI POP DUP7 DUP3 SLT JUMPDEST DUP1 ISZERO PUSH2 0x1E7A JUMPI POP DUP6 DUP3 SLT JUMPDEST PUSH2 0x1E8F JUMPI DUP10 DUP2 PUSH2 0x1E8A SWAP2 SWAP1 PUSH2 0x3A06 JUMP JUMPDEST PUSH2 0x1E9C JUMP JUMPDEST DUP10 DUP3 PUSH2 0x1E9B SWAP2 SWAP1 PUSH2 0x3A06 JUMP JUMPDEST JUMPDEST SWAP14 POP POP POP POP POP POP POP POP POP POP POP POP POP POP SWAP2 SWAP1 POP JUMP JUMPDEST PUSH0 DUP1 DUP5 GT PUSH2 0x1EF3 JUMPI PUSH1 0x40 MLOAD PUSH32 0x8C379A000000000000000000000000000000000000000000000000000000000 DUP2 MSTORE PUSH1 0x4 ADD PUSH2 0x1EEA SWAP1 PUSH2 0x3AB7 JUMP JUMPDEST PUSH1 0x40 MLOAD DUP1 SWAP2 SUB SWAP1 REVERT JUMPDEST PUSH0 DUP4 GT DUP1 ISZERO PUSH2 0x1F01 JUMPI POP PUSH0 DUP3 GT JUMPDEST PUSH2 0x1F40 JUMPI PUSH1 0x40 MLOAD PUSH32 0x8C379A000000000000000000000000000000000000000000000000000000000 DUP2 MSTORE PUSH1 0x4 ADD PUSH2 0x1F37 SWAP1 PUSH2 0x3B45 JUMP JUMPDEST PUSH1 0x40 MLOAD DUP1 SWAP2 SUB SWAP1 REVERT JUMPDEST PUSH0 PUSH2 0x1F68 PUSH2 0x3E8 PUSH2 0x1F5A DUP8 DUP8 PUSH2 0x24B1 SWAP1 SWAP2 SWAP1 PUSH4 0xFFFFFFFF AND JUMP JUMPDEST PUSH2 0x24B1 SWAP1 SWAP2 SWAP1 PUSH4 0xFFFFFFFF AND JUMP JUMPDEST SWAP1 POP PUSH0 PUSH2 0x1F92 PUSH2 0x3E5 PUSH2 0x1F84 DUP9 DUP8 PUSH2 0x251D SWAP1 SWAP2 SWAP1 PUSH4 0xFFFFFFFF AND JUMP JUMPDEST PUSH2 0x24B1 SWAP1 SWAP2 SWAP1 PUSH4 0xFFFFFFFF AND JUMP JUMPDEST SWAP1 POP PUSH2 0x1FB3 PUSH1 0x1 DUP3 DUP5 PUSH2 0x1FA5 SWAP2 SWAP1 PUSH2 0x3491 JUMP JUMPDEST PUSH2 0x2575 SWAP1 SWAP2 SWAP1 PUSH4 0xFFFFFFFF AND JUMP JUMPDEST SWAP3 POP POP POP SWAP4 SWAP3 POP POP POP JUMP JUMPDEST PUSH0 DUP1 DUP5 GT PUSH2 0x2001 JUMPI PUSH1 0x40 MLOAD PUSH32 0x8C379A000000000000000000000000000000000000000000000000000000000 DUP2 MSTORE PUSH1 0x4 ADD PUSH2 0x1FF8 SWAP1 PUSH2 0x3BD3 JUMP JUMPDEST PUSH1 0x40 MLOAD DUP1 SWAP2 SUB SWAP1 REVERT JUMPDEST PUSH0 DUP4 GT DUP1 ISZERO PUSH2 0x200F JUMPI POP PUSH0 DUP3 GT JUMPDEST PUSH2 0x204E JUMPI PUSH1 0x40 MLOAD PUSH32 0x8C379A000000000000000000000000000000000000000000000000000000000 DUP2 MSTORE PUSH1 0x4 ADD PUSH2 0x2045 SWAP1 PUSH2 0x3B45 JUMP JUMPDEST PUSH1 0x40 MLOAD DUP1 SWAP2 SUB SWAP1 REVERT JUMPDEST PUSH0 PUSH2 0x2064 PUSH2 0x3E5 DUP7 PUSH2 0x24B1 SWAP1 SWAP2 SWAP1 PUSH4 0xFFFFFFFF AND JUMP JUMPDEST SWAP1 POP PUSH0 PUSH2 0x207A DUP5 DUP4 PUSH2 0x24B1 SWAP1 SWAP2 SWAP1 PUSH4 0xFFFFFFFF AND JUMP JUMPDEST SWAP1 POP PUSH0 PUSH2 0x20A4 DUP4 PUSH2 0x2096 PUSH2 0x3E8 DUP10 PUSH2 0x24B1 SWAP1 SWAP2 SWAP1 PUSH4 0xFFFFFFFF AND JUMP JUMPDEST PUSH2 0x2575 SWAP1 SWAP2 SWAP1 PUSH4 0xFFFFFFFF AND JUMP JUMPDEST SWAP1 POP DUP1 DUP3 PUSH2 0x20B2 SWAP2 SWAP1 PUSH2 0x3491 JUMP JUMPDEST SWAP4 POP POP POP POP SWAP4 SWAP3 POP POP POP JUMP JUMPDEST PUSH0 PUSH2 0x20E3 DUP4 PUSH0 ADD DUP4 PUSH20 0xFFFFFFFFFFFFFFFFFFFFFFFFFFFFFFFFFFFFFFFF AND PUSH0 SHL PUSH2 0x25CD JUMP JUMPDEST SWAP1 POP SWAP3 SWAP2 POP POP JUMP JUMPDEST PUSH2 0x2183 DUP3 DUP3 PUSH1 0x40 MLOAD PUSH1 0x24 ADD PUSH2 0x2101 SWAP3 SWAP2 SWAP1 PUSH2 0x3C33 JUMP JUMPDEST PUSH1 0x40 MLOAD PUSH1 0x20 DUP2 DUP4 SUB SUB DUP2 MSTORE SWAP1 PUSH1 0x40 MSTORE PUSH32 0xB60E72CC00000000000000000000000000000000000000000000000000000000 PUSH28 0xFFFFFFFFFFFFFFFFFFFFFFFFFFFFFFFFFFFFFFFFFFFFFFFFFFFFFFFF NOT AND PUSH1 0x20 DUP3 ADD DUP1 MLOAD PUSH28 0xFFFFFFFFFFFFFFFFFFFFFFFFFFFFFFFFFFFFFFFFFFFFFFFFFFFFFFFF DUP4 DUP2 DUP4 AND OR DUP4 MSTORE POP POP POP POP PUSH2 0x2634 JUMP JUMPDEST POP POP JUMP JUMPDEST PUSH0 PUSH2 0x21AC DUP4 PUSH0 ADD DUP4 PUSH20 0xFFFFFFFFFFFFFFFFFFFFFFFFFFFFFFFFFFFFFFFF AND PUSH0 SHL PUSH2 0x264E JUMP JUMPDEST SWAP1 POP SWAP3 SWAP2 POP POP JUMP JUMPDEST PUSH0 DUP1 PUSH1 0x20 PUSH0 DUP5 MLOAD PUSH1 0x20 DUP7 ADD PUSH0 DUP9 GAS CALL DUP1 PUSH2 0x21D3 JUMPI PUSH1 0x40 MLOAD RETURNDATASIZE PUSH0 DUP3 RETURNDATACOPY RETURNDATASIZE DUP2 REVERT JUMPDEST RETURNDATASIZE SWAP3 POP PUSH0 MLOAD SWAP2 POP POP PUSH0 DUP3 EQ PUSH2 0x21EC JUMPI PUSH1 0x1 DUP2 EQ ISZERO PUSH2 0x2207 JUMP JUMPDEST PUSH0 DUP5 PUSH20 0xFFFFFFFFFFFFFFFFFFFFFFFFFFFFFFFFFFFFFFFF AND EXTCODESIZE EQ JUMPDEST ISZERO PUSH2 0x2249 JUMPI DUP4 PUSH1 0x40 MLOAD PUSH32 0x5274AFE700000000000000000000000000000000000000000000000000000000 DUP2 MSTORE PUSH1 0x4 ADD PUSH2 0x2240 SWAP2 SWAP1 PUSH2 0x2EE7 JUMP JUMPDEST PUSH1 0x40 MLOAD DUP1 SWAP2 SUB SWAP1 REVERT JUMPDEST POP POP POP POP JUMP JUMPDEST PUSH0 DUP1 DUP4 PUSH1 0x1 ADD PUSH0 DUP5 DUP2 MSTORE PUSH1 0x20 ADD SWAP1 DUP2 MSTORE PUSH1 0x20 ADD PUSH0 KECCAK256 SLOAD EQ ISZERO SWAP1 POP SWAP3 SWAP2 POP POP JUMP JUMPDEST PUSH0 DUP2 PUSH0 ADD DUP1 SLOAD SWAP1 POP SWAP1 POP SWAP2 SWAP1 POP JUMP JUMPDEST PUSH0 DUP3 PUSH0 ADD DUP3 DUP2 SLOAD DUP2 LT PUSH2 0x2294 JUMPI PUSH2 0x2293 PUSH2 0x3605 JUMP JUMPDEST JUMPDEST SWAP1 PUSH0 MSTORE PUSH1 0x20 PUSH0 KECCAK256 ADD SLOAD SWAP1 POP SWAP3 SWAP2 POP POP JUMP JUMPDEST PUSH0 CALLER SWAP1 POP SWAP1 JUMP JUMPDEST PUSH2 0x22B4 PUSH2 0x2A93 JUMP JUMPDEST PUSH1 0x40 MLOAD DUP1 PUSH1 0x20 ADD PUSH1 0x40 MSTORE DUP1 PUSH2 0x22DA PUSH8 0xDE0B6B3A7640000 DUP6 PUSH2 0x274A SWAP1 SWAP2 SWAP1 PUSH4 0xFFFFFFFF AND JUMP JUMPDEST DUP2 MSTORE POP SWAP1 POP SWAP2 SWAP1 POP JUMP JUMPDEST PUSH2 0x22EC PUSH2 0x2A93 JUMP JUMPDEST PUSH1 0x40 MLOAD DUP1 PUSH1 0x20 ADD PUSH1 0x40 MSTORE DUP1 PUSH2 0x230D DUP5 DUP7 PUSH0 ADD MLOAD PUSH2 0x27C1 SWAP1 SWAP2 SWAP1 PUSH4 0xFFFFFFFF AND JUMP JUMPDEST DUP2 MSTORE POP SWAP1 POP SWAP3 SWAP2 POP POP JUMP JUMPDEST PUSH0 DUP1 PUSH2 0x2324 DUP5 DUP5 PUSH2 0x280A JUMP JUMPDEST EQ SWAP1 POP SWAP3 SWAP2 POP POP JUMP JUMPDEST PUSH2 0x23C5 DUP3 DUP3 PUSH1 0x40 MLOAD PUSH1 0x24 ADD PUSH2 0x2343 SWAP3 SWAP2 SWAP1 PUSH2 0x3C61 JUMP JUMPDEST PUSH1 0x40 MLOAD PUSH1 0x20 DUP2 DUP4 SUB SUB DUP2 MSTORE SWAP1 PUSH1 0x40 MSTORE PUSH32 0x319AF33300000000000000000000000000000000000000000000000000000000 PUSH28 0xFFFFFFFFFFFFFFFFFFFFFFFFFFFFFFFFFFFFFFFFFFFFFFFFFFFFFFFF NOT AND PUSH1 0x20 DUP3 ADD DUP1 MLOAD PUSH28 0xFFFFFFFFFFFFFFFFFFFFFFFFFFFFFFFFFFFFFFFFFFFFFFFFFFFFFFFF DUP4 DUP2 DUP4 AND OR DUP4 MSTORE POP POP POP POP PUSH2 0x2634 JUMP JUMPDEST POP POP JUMP JUMPDEST PUSH0 DUP1 PUSH0 DUP4 DUP7 PUSH1 0x4 PUSH2 0x23DA SWAP2 SWAP1 PUSH2 0x38A7 JUMP JUMPDEST PUSH2 0x23E4 SWAP2 SWAP1 PUSH2 0x38A7 JUMP JUMPDEST PUSH1 0x2 DUP7 PUSH2 0x23F1 SWAP2 SWAP1 PUSH2 0x3DE1 JUMP JUMPDEST PUSH2 0x23FB SWAP2 SWAP1 PUSH2 0x391D JUMP JUMPDEST SWAP1 POP PUSH0 DUP2 SGT PUSH2 0x243F JUMPI PUSH1 0x40 MLOAD PUSH32 0x8C379A000000000000000000000000000000000000000000000000000000000 DUP2 MSTORE PUSH1 0x4 ADD PUSH2 0x2436 SWAP1 PUSH2 0x3E96 JUMP JUMPDEST PUSH1 0x40 MLOAD DUP1 SWAP2 SUB SWAP1 REVERT JUMPDEST PUSH0 PUSH2 0x2449 DUP3 PUSH2 0x2843 JUMP JUMPDEST SWAP1 POP DUP7 PUSH1 0x2 PUSH2 0x2458 SWAP2 SWAP1 PUSH2 0x38A7 JUMP JUMPDEST DUP2 DUP8 PUSH2 0x2463 SWAP1 PUSH2 0x3EB4 JUMP JUMPDEST PUSH2 0x246D SWAP2 SWAP1 PUSH2 0x395D JUMP JUMPDEST PUSH2 0x2477 SWAP2 SWAP1 PUSH2 0x3EFA JUMP JUMPDEST SWAP4 POP DUP7 PUSH1 0x2 PUSH2 0x2486 SWAP2 SWAP1 PUSH2 0x38A7 JUMP JUMPDEST DUP2 DUP8 PUSH2 0x2491 SWAP1 PUSH2 0x3EB4 JUMP JUMPDEST PUSH2 0x249B SWAP2 SWAP1 PUSH2 0x391D JUMP JUMPDEST PUSH2 0x24A5 SWAP2 SWAP1 PUSH2 0x3EFA JUMP JUMPDEST SWAP3 POP POP POP SWAP4 POP SWAP4 SWAP2 POP POP JUMP JUMPDEST PUSH0 DUP1 DUP3 EQ DUP1 PUSH2 0x24D8 JUMPI POP DUP3 DUP3 DUP4 DUP6 PUSH2 0x24C9 SWAP2 SWAP1 PUSH2 0x3A06 JUMP JUMPDEST SWAP3 POP DUP3 PUSH2 0x24D6 SWAP2 SWAP1 PUSH2 0x3491 JUMP JUMPDEST EQ JUMPDEST PUSH2 0x2517 JUMPI PUSH1 0x40 MLOAD PUSH32 0x8C379A000000000000000000000000000000000000000000000000000000000 DUP2 MSTORE PUSH1 0x4 ADD PUSH2 0x250E SWAP1 PUSH2 0x3FAC JUMP JUMPDEST PUSH1 0x40 MLOAD DUP1 SWAP2 SUB SWAP1 REVERT JUMPDEST SWAP3 SWAP2 POP POP JUMP JUMPDEST PUSH0 DUP3 DUP3 DUP5 PUSH2 0x252B SWAP2 SWAP1 PUSH2 0x33C9 JUMP JUMPDEST SWAP2 POP DUP2 GT ISZERO PUSH2 0x256F JUMPI PUSH1 0x40 MLOAD PUSH32 0x8C379A000000000000000000000000000000000000000000000000000000000 DUP2 MSTORE PUSH1 0x4 ADD PUSH2 0x2566 SWAP1 PUSH2 0x4014 JUMP JUMPDEST PUSH1 0x40 MLOAD DUP1 SWAP2 SUB SWAP1 REVERT JUMPDEST SWAP3 SWAP2 POP POP JUMP JUMPDEST PUSH0 DUP3 DUP3 DUP5 PUSH2 0x2583 SWAP2 SWAP1 PUSH2 0x4032 JUMP JUMPDEST SWAP2 POP DUP2 LT ISZERO PUSH2 0x25C7 JUMPI PUSH1 0x40 MLOAD PUSH32 0x8C379A000000000000000000000000000000000000000000000000000000000 DUP2 MSTORE PUSH1 0x4 ADD PUSH2 0x25BE SWAP1 PUSH2 0x40AF JUMP JUMPDEST PUSH1 0x40 MLOAD DUP1 SWAP2 SUB SWAP1 REVERT JUMPDEST SWAP3 SWAP2 POP POP JUMP JUMPDEST PUSH0 PUSH2 0x25D8 DUP4 DUP4 PUSH2 0x224F JUMP JUMPDEST PUSH2 0x262A JUMPI DUP3 PUSH0 ADD DUP3 SWAP1 DUP1 PUSH1 0x1 DUP2 SLOAD ADD DUP1 DUP3 SSTORE DUP1 SWAP2 POP POP PUSH1 0x1 SWAP1 SUB SWAP1 PUSH0 MSTORE PUSH1 0x20 PUSH0 KECCAK256 ADD PUSH0 SWAP1 SWAP2 SWAP1 SWAP2 SWAP1 SWAP2 POP SSTORE DUP3 PUSH0 ADD DUP1 SLOAD SWAP1 POP DUP4 PUSH1 0x1 ADD PUSH0 DUP5 DUP2 MSTORE PUSH1 0x20 ADD SWAP1 DUP2 MSTORE PUSH1 0x20 ADD PUSH0 KECCAK256 DUP2 SWAP1 SSTORE POP PUSH1 0x1 SWAP1 POP PUSH2 0x262E JUMP JUMPDEST PUSH0 SWAP1 POP JUMPDEST SWAP3 SWAP2 POP POP JUMP JUMPDEST PUSH2 0x264B DUP2 PUSH2 0x2643 PUSH2 0x28D0 PUSH2 0x28EF JUMP JUMPDEST PUSH4 0xFFFFFFFF AND JUMP JUMPDEST POP JUMP JUMPDEST PUSH0 DUP1 DUP4 PUSH1 0x1 ADD PUSH0 DUP5 DUP2 MSTORE PUSH1 0x20 ADD SWAP1 DUP2 MSTORE PUSH1 0x20 ADD PUSH0 KECCAK256 SLOAD SWAP1 POP PUSH0 DUP2 EQ PUSH2 0x273F JUMPI PUSH0 PUSH1 0x1 DUP3 PUSH2 0x267B SWAP2 SWAP1 PUSH2 0x33C9 JUMP JUMPDEST SWAP1 POP PUSH0 PUSH1 0x1 DUP7 PUSH0 ADD DUP1 SLOAD SWAP1 POP PUSH2 0x2691 SWAP2 SWAP1 PUSH2 0x33C9 JUMP JUMPDEST SWAP1 POP DUP1 DUP3 EQ PUSH2 0x26F7 JUMPI PUSH0 DUP7 PUSH0 ADD DUP3 DUP2 SLOAD DUP2 LT PUSH2 0x26B0 JUMPI PUSH2 0x26AF PUSH2 0x3605 JUMP JUMPDEST JUMPDEST SWAP1 PUSH0 MSTORE PUSH1 0x20 PUSH0 KECCAK256 ADD SLOAD SWAP1 POP DUP1 DUP8 PUSH0 ADD DUP5 DUP2 SLOAD DUP2 LT PUSH2 0x26D1 JUMPI PUSH2 0x26D0 PUSH2 0x3605 JUMP JUMPDEST JUMPDEST SWAP1 PUSH0 MSTORE PUSH1 0x20 PUSH0 KECCAK256 ADD DUP2 SWAP1 SSTORE POP DUP4 DUP8 PUSH1 0x1 ADD PUSH0 DUP4 DUP2 MSTORE PUSH1 0x20 ADD SWAP1 DUP2 MSTORE PUSH1 0x20 ADD PUSH0 KECCAK256 DUP2 SWAP1 SSTORE POP POP JUMPDEST DUP6 PUSH0 ADD DUP1 SLOAD DUP1 PUSH2 0x270A JUMPI PUSH2 0x2709 PUSH2 0x40CD JUMP JUMPDEST JUMPDEST PUSH1 0x1 SWAP1 SUB DUP2 DUP2 SWAP1 PUSH0 MSTORE PUSH1 0x20 PUSH0 KECCAK256 ADD PUSH0 SWAP1 SSTORE SWAP1 SSTORE DUP6 PUSH1 0x1 ADD PUSH0 DUP7 DUP2 MSTORE PUSH1 0x20 ADD SWAP1 DUP2 MSTORE PUSH1 0x20 ADD PUSH0 KECCAK256 PUSH0 SWAP1 SSTORE PUSH1 0x1 SWAP4 POP POP POP POP PUSH2 0x2744 JUMP JUMPDEST PUSH0 SWAP2 POP POP JUMPDEST SWAP3 SWAP2 POP POP JUMP JUMPDEST PUSH0 DUP1 DUP4 SUB PUSH2 0x275A JUMPI PUSH0 SWAP1 POP PUSH2 0x27BB JUMP JUMPDEST PUSH0 DUP3 DUP5 PUSH2 0x2767 SWAP2 SWAP1 PUSH2 0x3A06 JUMP JUMPDEST SWAP1 POP DUP3 DUP5 DUP3 PUSH2 0x2776 SWAP2 SWAP1 PUSH2 0x3491 JUMP JUMPDEST EQ PUSH2 0x27B6 JUMPI PUSH1 0x40 MLOAD PUSH32 0x8C379A000000000000000000000000000000000000000000000000000000000 DUP2 MSTORE PUSH1 0x4 ADD PUSH2 0x27AD SWAP1 PUSH2 0x416A JUMP JUMPDEST PUSH1 0x40 MLOAD DUP1 SWAP2 SUB SWAP1 REVERT JUMPDEST DUP1 SWAP2 POP POP JUMPDEST SWAP3 SWAP2 POP POP JUMP JUMPDEST PUSH0 PUSH2 0x2802 DUP4 DUP4 PUSH1 0x40 MLOAD DUP1 PUSH1 0x40 ADD PUSH1 0x40 MSTORE DUP1 PUSH1 0x1A DUP2 MSTORE PUSH1 0x20 ADD PUSH32 0x536166654D6174683A206469766973696F6E206279207A65726F000000000000 DUP2 MSTORE POP PUSH2 0x28FA JUMP JUMPDEST SWAP1 POP SWAP3 SWAP2 POP POP JUMP JUMPDEST PUSH0 DUP2 PUSH0 ADD MLOAD DUP4 PUSH0 ADD MLOAD SUB PUSH2 0x2821 JUMPI PUSH1 0x1 SWAP1 POP PUSH2 0x283D JUMP JUMPDEST DUP2 PUSH0 ADD MLOAD DUP4 PUSH0 ADD MLOAD GT PUSH2 0x2834 JUMPI PUSH0 PUSH2 0x2837 JUMP JUMPDEST PUSH1 0x2 JUMPDEST PUSH1 0xFF AND SWAP1 POP JUMPDEST SWAP3 SWAP2 POP POP JUMP JUMPDEST PUSH0 PUSH1 0x1 DUP3 GT PUSH2 0x2855 JUMPI PUSH2 0x2854 PUSH2 0x4188 JUMP JUMPDEST JUMPDEST PUSH0 PUSH3 0xF4240 DUP4 PUSH2 0x2865 SWAP2 SWAP1 PUSH2 0x3A06 JUMP JUMPDEST SWAP1 POP PUSH0 DUP2 SWAP1 POP DUP2 SWAP3 POP PUSH0 JUMPDEST PUSH1 0x1 ISZERO PUSH2 0x28B8 JUMPI PUSH1 0x2 DUP5 DUP4 PUSH2 0x2885 SWAP2 SWAP1 PUSH2 0x3491 JUMP JUMPDEST DUP6 PUSH2 0x2890 SWAP2 SWAP1 PUSH2 0x4032 JUMP JUMPDEST PUSH2 0x289A SWAP2 SWAP1 PUSH2 0x3491 JUMP JUMPDEST SWAP1 POP PUSH2 0x3E8 DUP2 DUP6 PUSH2 0x28AB SWAP2 SWAP1 PUSH2 0x33C9 JUMP JUMPDEST LT PUSH2 0x28B8 JUMPI DUP1 SWAP4 POP PUSH2 0x2870 JUMP JUMPDEST PUSH2 0x3E8 DUP5 PUSH2 0x28C6 SWAP2 SWAP1 PUSH2 0x3491 JUMP JUMPDEST SWAP4 POP POP POP POP SWAP2 SWAP1 POP JUMP JUMPDEST PUSH0 PUSH11 0x636F6E736F6C652E6C6F67 SWAP1 POP PUSH0 DUP1 DUP4 MLOAD PUSH1 0x20 DUP6 ADD DUP5 GAS STATICCALL POP POP POP JUMP JUMPDEST PUSH2 0x2AA5 DUP2 SWAP1 POP SWAP2 SWAP1 POP JUMP JUMPDEST PUSH0 DUP1 DUP4 GT DUP3 SWAP1 PUSH2 0x2940 JUMPI PUSH1 0x40 MLOAD PUSH32 0x8C379A000000000000000000000000000000000000000000000000000000000 DUP2 MSTORE PUSH1 0x4 ADD PUSH2 0x2937 SWAP2 SWAP1 PUSH2 0x41B5 JUMP JUMPDEST PUSH1 0x40 MLOAD DUP1 SWAP2 SUB SWAP1 REVERT JUMPDEST POP PUSH0 DUP4 DUP6 PUSH2 0x294E SWAP2 SWAP1 PUSH2 0x3491 JUMP JUMPDEST SWAP1 POP DUP1 SWAP2 POP POP SWAP4 SWAP3 POP POP POP JUMP JUMPDEST PUSH1 0x40 MLOAD DUP1 PUSH1 0xA0 ADD PUSH1 0x40 MSTORE DUP1 PUSH0 PUSH20 0xFFFFFFFFFFFFFFFFFFFFFFFFFFFFFFFFFFFFFFFF AND DUP2 MSTORE PUSH1 0x20 ADD PUSH0 PUSH20 0xFFFFFFFFFFFFFFFFFFFFFFFFFFFFFFFFFFFFFFFF AND DUP2 MSTORE PUSH1 0x20 ADD PUSH0 ISZERO ISZERO DUP2 MSTORE PUSH1 0x20 ADD PUSH0 PUSH20 0xFFFFFFFFFFFFFFFFFFFFFFFFFFFFFFFFFFFFFFFF AND DUP2 MSTORE PUSH1 0x20 ADD PUSH0 PUSH20 0xFFFFFFFFFFFFFFFFFFFFFFFFFFFFFFFFFFFFFFFF AND DUP2 MSTORE POP SWAP1 JUMP JUMPDEST PUSH1 0x40 MLOAD DUP1 PUSH1 0x80 ADD PUSH1 0x40 MSTORE DUP1 PUSH0 DUP2 MSTORE PUSH1 0x20 ADD PUSH0 DUP2 MSTORE PUSH1 0x20 ADD PUSH0 DUP2 MSTORE PUSH1 0x20 ADD PUSH0 DUP2 MSTORE POP SWAP1 JUMP JUMPDEST PUSH1 0x40 MLOAD DUP1 PUSH1 0xE0 ADD PUSH1 0x40 MSTORE DUP1 PUSH0 PUSH20 0xFFFFFFFFFFFFFFFFFFFFFFFFFFFFFFFFFFFFFFFF AND DUP2 MSTORE PUSH1 0x20 ADD PUSH0 PUSH20 0xFFFFFFFFFFFFFFFFFFFFFFFFFFFFFFFFFFFFFFFF AND DUP2 MSTORE PUSH1 0x20 ADD PUSH0 ISZERO ISZERO DUP2 MSTORE PUSH1 0x20 ADD PUSH0 PUSH20 0xFFFFFFFFFFFFFFFFFFFFFFFFFFFFFFFFFFFFFFFF AND DUP2 MSTORE PUSH1 0x20 ADD PUSH0 PUSH20 0xFFFFFFFFFFFFFFFFFFFFFFFFFFFFFFFFFFFFFFFF AND DUP2 MSTORE PUSH1 0x20 ADD PUSH0 DUP2 MSTORE PUSH1 0x20 ADD PUSH0 DUP2 MSTORE POP SWAP1 JUMP JUMPDEST PUSH1 0x40 MLOAD DUP1 PUSH1 0x20 ADD PUSH1 0x40 MSTORE DUP1 PUSH0 DUP2 MSTORE POP SWAP1 JUMP JUMPDEST PUSH2 0x2AAD PUSH2 0x41D5 JUMP JUMPDEST JUMP JUMPDEST PUSH0 PUSH1 0x40 MLOAD SWAP1 POP SWAP1 JUMP JUMPDEST PUSH0 DUP1 REVERT JUMPDEST PUSH0 DUP1 REVERT JUMPDEST PUSH0 DUP1 DUP6 DUP6 GT ISZERO PUSH2 0x2AD3 JUMPI PUSH2 0x2AD2 PUSH2 0x2AB8 JUMP JUMPDEST JUMPDEST DUP4 DUP7 GT ISZERO PUSH2 0x2AE4 JUMPI PUSH2 0x2AE3 PUSH2 0x2ABC JUMP JUMPDEST JUMPDEST PUSH1 0x1 DUP6 MUL DUP4 ADD SWAP2 POP DUP5 DUP7 SUB SWAP1 POP SWAP5 POP SWAP5 SWAP3 POP POP POP JUMP JUMPDEST PUSH0 DUP1 REVERT JUMPDEST PUSH0 DUP1 REVERT JUMPDEST PUSH0 PUSH20 0xFFFFFFFFFFFFFFFFFFFFFFFFFFFFFFFFFFFFFFFF DUP3 AND SWAP1 POP SWAP2 SWAP1 POP JUMP JUMPDEST PUSH0 PUSH2 0x2B2B DUP3 PUSH2 0x2B02 JUMP JUMPDEST SWAP1 POP SWAP2 SWAP1 POP JUMP JUMPDEST PUSH2 0x2B3B DUP2 PUSH2 0x2B21 JUMP JUMPDEST DUP2 EQ PUSH2 0x2B45 JUMPI PUSH0 DUP1 REVERT JUMPDEST POP JUMP JUMPDEST PUSH0 DUP2 CALLDATALOAD SWAP1 POP PUSH2 0x2B56 DUP2 PUSH2 0x2B32 JUMP JUMPDEST SWAP3 SWAP2 POP POP JUMP JUMPDEST PUSH0 DUP2 SWAP1 POP SWAP2 SWAP1 POP JUMP JUMPDEST PUSH2 0x2B6E DUP2 PUSH2 0x2B5C JUMP JUMPDEST DUP2 EQ PUSH2 0x2B78 JUMPI PUSH0 DUP1 REVERT JUMPDEST POP JUMP JUMPDEST PUSH0 DUP2 CALLDATALOAD SWAP1 POP PUSH2 0x2B89 DUP2 PUSH2 0x2B65 JUMP JUMPDEST SWAP3 SWAP2 POP POP JUMP JUMPDEST PUSH0 DUP1 REVERT JUMPDEST PUSH0 DUP1 REVERT JUMPDEST PUSH0 PUSH1 0x1F NOT PUSH1 0x1F DUP4 ADD AND SWAP1 POP SWAP2 SWAP1 POP JUMP JUMPDEST PUSH32 0x4E487B7100000000000000000000000000000000000000000000000000000000 PUSH0 MSTORE PUSH1 0x41 PUSH1 0x4 MSTORE PUSH1 0x24 PUSH0 REVERT JUMPDEST PUSH2 0x2BDD DUP3 PUSH2 0x2B97 JUMP JUMPDEST DUP2 ADD DUP2 DUP2 LT PUSH8 0xFFFFFFFFFFFFFFFF DUP3 GT OR ISZERO PUSH2 0x2BFC JUMPI PUSH2 0x2BFB PUSH2 0x2BA7 JUMP JUMPDEST JUMPDEST DUP1 PUSH1 0x40 MSTORE POP POP POP JUMP JUMPDEST PUSH0 PUSH2 0x2C0E PUSH2 0x2AAF JUMP JUMPDEST SWAP1 POP PUSH2 0x2C1A DUP3 DUP3 PUSH2 0x2BD4 JUMP JUMPDEST SWAP2 SWAP1 POP JUMP JUMPDEST PUSH0 PUSH8 0xFFFFFFFFFFFFFFFF DUP3 GT ISZERO PUSH2 0x2C39 JUMPI PUSH2 0x2C38 PUSH2 0x2BA7 JUMP JUMPDEST JUMPDEST PUSH2 0x2C42 DUP3 PUSH2 0x2B97 JUMP JUMPDEST SWAP1 POP PUSH1 0x20 DUP2 ADD SWAP1 POP SWAP2 SWAP1 POP JUMP JUMPDEST DUP3 DUP2 DUP4 CALLDATACOPY PUSH0 DUP4 DUP4 ADD MSTORE POP POP POP JUMP JUMPDEST PUSH0 PUSH2 0x2C6F PUSH2 0x2C6A DUP5 PUSH2 0x2C1F JUMP JUMPDEST PUSH2 0x2C05 JUMP JUMPDEST SWAP1 POP DUP3 DUP2 MSTORE PUSH1 0x20 DUP2 ADD DUP5 DUP5 DUP5 ADD GT ISZERO PUSH2 0x2C8B JUMPI PUSH2 0x2C8A PUSH2 0x2B93 JUMP JUMPDEST JUMPDEST PUSH2 0x2C96 DUP5 DUP3 DUP6 PUSH2 0x2C4F JUMP JUMPDEST POP SWAP4 SWAP3 POP POP POP JUMP JUMPDEST PUSH0 DUP3 PUSH1 0x1F DUP4 ADD SLT PUSH2 0x2CB2 JUMPI PUSH2 0x2CB1 PUSH2 0x2B8F JUMP JUMPDEST JUMPDEST DUP2 CALLDATALOAD PUSH2 0x2CC2 DUP5 DUP3 PUSH1 0x20 DUP7 ADD PUSH2 0x2C5D JUMP JUMPDEST SWAP2 POP POP SWAP3 SWAP2 POP POP JUMP JUMPDEST PUSH0 DUP1 PUSH0 DUP1 PUSH1 0x80 DUP6 DUP8 SUB SLT ISZERO PUSH2 0x2CE3 JUMPI PUSH2 0x2CE2 PUSH2 0x2AFA JUMP JUMPDEST JUMPDEST PUSH0 PUSH2 0x2CF0 DUP8 DUP3 DUP9 ADD PUSH2 0x2B48 JUMP JUMPDEST SWAP5 POP POP PUSH1 0x20 PUSH2 0x2D01 DUP8 DUP3 DUP9 ADD PUSH2 0x2B7B JUMP JUMPDEST SWAP4 POP POP PUSH1 0x40 PUSH2 0x2D12 DUP8 DUP3 DUP9 ADD PUSH2 0x2B7B JUMP JUMPDEST SWAP3 POP POP PUSH1 0x60 DUP6 ADD CALLDATALOAD PUSH8 0xFFFFFFFFFFFFFFFF DUP2 GT ISZERO PUSH2 0x2D33 JUMPI PUSH2 0x2D32 PUSH2 0x2AFE JUMP JUMPDEST JUMPDEST PUSH2 0x2D3F DUP8 DUP3 DUP9 ADD PUSH2 0x2C9E JUMP JUMPDEST SWAP2 POP POP SWAP3 SWAP6 SWAP2 SWAP5 POP SWAP3 POP JUMP JUMPDEST PUSH0 PUSH2 0x2D55 DUP3 PUSH2 0x2B02 JUMP JUMPDEST SWAP1 POP SWAP2 SWAP1 POP JUMP JUMPDEST PUSH2 0x2D65 DUP2 PUSH2 0x2D4B JUMP JUMPDEST DUP2 EQ PUSH2 0x2D6F JUMPI PUSH0 DUP1 REVERT JUMPDEST POP JUMP JUMPDEST PUSH0 DUP2 CALLDATALOAD SWAP1 POP PUSH2 0x2D80 DUP2 PUSH2 0x2D5C JUMP JUMPDEST SWAP3 SWAP2 POP POP JUMP JUMPDEST PUSH0 DUP1 PUSH0 DUP1 PUSH1 0x80 DUP6 DUP8 SUB SLT ISZERO PUSH2 0x2D9E JUMPI PUSH2 0x2D9D PUSH2 0x2AFA JUMP JUMPDEST JUMPDEST PUSH0 PUSH2 0x2DAB DUP8 DUP3 DUP9 ADD PUSH2 0x2D72 JUMP JUMPDEST SWAP5 POP POP PUSH1 0x20 PUSH2 0x2DBC DUP8 DUP3 DUP9 ADD PUSH2 0x2B7B JUMP JUMPDEST SWAP4 POP POP PUSH1 0x40 PUSH2 0x2DCD DUP8 DUP3 DUP9 ADD PUSH2 0x2B7B JUMP JUMPDEST SWAP3 POP POP PUSH1 0x60 DUP6 ADD CALLDATALOAD PUSH8 0xFFFFFFFFFFFFFFFF DUP2 GT ISZERO PUSH2 0x2DEE JUMPI PUSH2 0x2DED PUSH2 0x2AFE JUMP JUMPDEST JUMPDEST PUSH2 0x2DFA DUP8 DUP3 DUP9 ADD PUSH2 0x2C9E JUMP JUMPDEST SWAP2 POP POP SWAP3 SWAP6 SWAP2 SWAP5 POP SWAP3 POP JUMP JUMPDEST PUSH0 PUSH1 0x20 DUP3 DUP5 SUB SLT ISZERO PUSH2 0x2E1B JUMPI PUSH2 0x2E1A PUSH2 0x2AFA JUMP JUMPDEST JUMPDEST PUSH0 PUSH2 0x2E28 DUP5 DUP3 DUP6 ADD PUSH2 0x2D72 JUMP JUMPDEST SWAP2 POP POP SWAP3 SWAP2 POP POP JUMP JUMPDEST PUSH0 DUP2 ISZERO ISZERO SWAP1 POP SWAP2 SWAP1 POP JUMP JUMPDEST PUSH2 0x2E45 DUP2 PUSH2 0x2E31 JUMP JUMPDEST DUP3 MSTORE POP POP JUMP JUMPDEST PUSH0 PUSH1 0x20 DUP3 ADD SWAP1 POP PUSH2 0x2E5E PUSH0 DUP4 ADD DUP5 PUSH2 0x2E3C JUMP JUMPDEST SWAP3 SWAP2 POP POP JUMP JUMPDEST PUSH0 DUP1 PUSH1 0x40 DUP4 DUP6 SUB SLT ISZERO PUSH2 0x2E7A JUMPI PUSH2 0x2E79 PUSH2 0x2AFA JUMP JUMPDEST JUMPDEST PUSH0 PUSH2 0x2E87 DUP6 DUP3 DUP7 ADD PUSH2 0x2D72 JUMP JUMPDEST SWAP3 POP POP PUSH1 0x20 PUSH2 0x2E98 DUP6 DUP3 DUP7 ADD PUSH2 0x2D72 JUMP JUMPDEST SWAP2 POP POP SWAP3 POP SWAP3 SWAP1 POP JUMP JUMPDEST PUSH2 0x2EAB DUP2 PUSH2 0x2B5C JUMP JUMPDEST DUP3 MSTORE POP POP JUMP JUMPDEST PUSH2 0x2EBA DUP2 PUSH2 0x2D4B JUMP JUMPDEST DUP3 MSTORE POP POP JUMP JUMPDEST PUSH0 PUSH1 0x40 DUP3 ADD SWAP1 POP PUSH2 0x2ED3 PUSH0 DUP4 ADD DUP6 PUSH2 0x2EA2 JUMP JUMPDEST PUSH2 0x2EE0 PUSH1 0x20 DUP4 ADD DUP5 PUSH2 0x2EB1 JUMP JUMPDEST SWAP4 SWAP3 POP POP POP JUMP JUMPDEST PUSH0 PUSH1 0x20 DUP3 ADD SWAP1 POP PUSH2 0x2EFA PUSH0 DUP4 ADD DUP5 PUSH2 0x2EB1 JUMP JUMPDEST SWAP3 SWAP2 POP POP JUMP JUMPDEST PUSH0 DUP2 MLOAD SWAP1 POP SWAP2 SWAP1 POP JUMP JUMPDEST PUSH0 DUP3 DUP3 MSTORE PUSH1 0x20 DUP3 ADD SWAP1 POP SWAP3 SWAP2 POP POP JUMP JUMPDEST PUSH0 DUP2 SWAP1 POP PUSH1 0x20 DUP3 ADD SWAP1 POP SWAP2 SWAP1 POP JUMP JUMPDEST PUSH2 0x2F32 DUP2 PUSH2 0x2D4B JUMP JUMPDEST DUP3 MSTORE POP POP JUMP JUMPDEST PUSH0 PUSH2 0x2F43 DUP4 DUP4 PUSH2 0x2F29 JUMP JUMPDEST PUSH1 0x20 DUP4 ADD SWAP1 POP SWAP3 SWAP2 POP POP JUMP JUMPDEST PUSH0 PUSH1 0x20 DUP3 ADD SWAP1 POP SWAP2 SWAP1 POP JUMP JUMPDEST PUSH0 PUSH2 0x2F65 DUP3 PUSH2 0x2F00 JUMP JUMPDEST PUSH2 0x2F6F DUP2 DUP6 PUSH2 0x2F0A JUMP JUMPDEST SWAP4 POP PUSH2 0x2F7A DUP4 PUSH2 0x2F1A JUMP JUMPDEST DUP1 PUSH0 JUMPDEST DUP4 DUP2 LT ISZERO PUSH2 0x2FAA JUMPI DUP2 MLOAD PUSH2 0x2F91 DUP9 DUP3 PUSH2 0x2F38 JUMP JUMPDEST SWAP8 POP PUSH2 0x2F9C DUP4 PUSH2 0x2F4F JUMP JUMPDEST SWAP3 POP POP PUSH1 0x1 DUP2 ADD SWAP1 POP PUSH2 0x2F7D JUMP JUMPDEST POP DUP6 SWAP4 POP POP POP POP SWAP3 SWAP2 POP POP JUMP JUMPDEST PUSH0 PUSH1 0x20 DUP3 ADD SWAP1 POP DUP2 DUP2 SUB PUSH0 DUP4 ADD MSTORE PUSH2 0x2FCF DUP2 DUP5 PUSH2 0x2F5B JUMP JUMPDEST SWAP1 POP SWAP3 SWAP2 POP POP JUMP JUMPDEST PUSH0 DUP3 DUP3 MSTORE PUSH1 0x20 DUP3 ADD SWAP1 POP SWAP3 SWAP2 POP POP JUMP JUMPDEST PUSH32 0x4E6F6E207065726D697373696F6E656420616464726573732063616C6C000000 PUSH0 DUP3 ADD MSTORE POP JUMP JUMPDEST PUSH0 PUSH2 0x301B PUSH1 0x1D DUP4 PUSH2 0x2FD7 JUMP JUMPDEST SWAP2 POP PUSH2 0x3026 DUP3 PUSH2 0x2FE7 JUMP JUMPDEST PUSH1 0x20 DUP3 ADD SWAP1 POP SWAP2 SWAP1 POP JUMP JUMPDEST PUSH0 PUSH1 0x20 DUP3 ADD SWAP1 POP DUP2 DUP2 SUB PUSH0 DUP4 ADD MSTORE PUSH2 0x3048 DUP2 PUSH2 0x300F JUMP JUMPDEST SWAP1 POP SWAP2 SWAP1 POP JUMP JUMPDEST PUSH32 0x4E6F742066726F6D207468697320636F6E747261637400000000000000000000 PUSH0 DUP3 ADD MSTORE POP JUMP JUMPDEST PUSH0 PUSH2 0x3083 PUSH1 0x16 DUP4 PUSH2 0x2FD7 JUMP JUMPDEST SWAP2 POP PUSH2 0x308E DUP3 PUSH2 0x304F JUMP JUMPDEST PUSH1 0x20 DUP3 ADD SWAP1 POP SWAP2 SWAP1 POP JUMP JUMPDEST PUSH0 PUSH1 0x20 DUP3 ADD SWAP1 POP DUP2 DUP2 SUB PUSH0 DUP4 ADD MSTORE PUSH2 0x30B0 DUP2 PUSH2 0x3077 JUMP JUMPDEST SWAP1 POP SWAP2 SWAP1 POP JUMP JUMPDEST PUSH0 DUP1 REVERT JUMPDEST PUSH0 DUP2 MLOAD SWAP1 POP PUSH2 0x30C9 DUP2 PUSH2 0x2D5C JUMP JUMPDEST SWAP3 SWAP2 POP POP JUMP JUMPDEST PUSH2 0x30D8 DUP2 PUSH2 0x2E31 JUMP JUMPDEST DUP2 EQ PUSH2 0x30E2 JUMPI PUSH0 DUP1 REVERT JUMPDEST POP JUMP JUMPDEST PUSH0 DUP2 MLOAD SWAP1 POP PUSH2 0x30F3 DUP2 PUSH2 0x30CF JUMP JUMPDEST SWAP3 SWAP2 POP POP JUMP JUMPDEST PUSH0 DUP2 MLOAD SWAP1 POP PUSH2 0x3107 DUP2 PUSH2 0x2B65 JUMP JUMPDEST SWAP3 SWAP2 POP POP JUMP JUMPDEST PUSH0 PUSH1 0xE0 DUP3 DUP5 SUB SLT ISZERO PUSH2 0x3122 JUMPI PUSH2 0x3121 PUSH2 0x30B7 JUMP JUMPDEST JUMPDEST PUSH2 0x312C PUSH1 0xE0 PUSH2 0x2C05 JUMP JUMPDEST SWAP1 POP PUSH0 PUSH2 0x313B DUP5 DUP3 DUP6 ADD PUSH2 0x30BB JUMP JUMPDEST PUSH0 DUP4 ADD MSTORE POP PUSH1 0x20 PUSH2 0x314E DUP5 DUP3 DUP6 ADD PUSH2 0x30BB JUMP JUMPDEST PUSH1 0x20 DUP4 ADD MSTORE POP PUSH1 0x40 PUSH2 0x3162 DUP5 DUP3 DUP6 ADD PUSH2 0x30E5 JUMP JUMPDEST PUSH1 0x40 DUP4 ADD MSTORE POP PUSH1 0x60 PUSH2 0x3176 DUP5 DUP3 DUP6 ADD PUSH2 0x30BB JUMP JUMPDEST PUSH1 0x60 DUP4 ADD MSTORE POP PUSH1 0x80 PUSH2 0x318A DUP5 DUP3 DUP6 ADD PUSH2 0x30BB JUMP JUMPDEST PUSH1 0x80 DUP4 ADD MSTORE POP PUSH1 0xA0 PUSH2 0x319E DUP5 DUP3 DUP6 ADD PUSH2 0x30F9 JUMP JUMPDEST PUSH1 0xA0 DUP4 ADD MSTORE POP PUSH1 0xC0 PUSH2 0x31B2 DUP5 DUP3 DUP6 ADD PUSH2 0x30F9 JUMP JUMPDEST PUSH1 0xC0 DUP4 ADD MSTORE POP SWAP3 SWAP2 POP POP JUMP JUMPDEST PUSH0 PUSH1 0xE0 DUP3 DUP5 SUB SLT ISZERO PUSH2 0x31D3 JUMPI PUSH2 0x31D2 PUSH2 0x2AFA JUMP JUMPDEST JUMPDEST PUSH0 PUSH2 0x31E0 DUP5 DUP3 DUP6 ADD PUSH2 0x310D JUMP JUMPDEST SWAP2 POP POP SWAP3 SWAP2 POP POP JUMP JUMPDEST PUSH0 DUP2 MLOAD SWAP1 POP SWAP2 SWAP1 POP JUMP JUMPDEST PUSH0 DUP3 DUP3 MSTORE PUSH1 0x20 DUP3 ADD SWAP1 POP SWAP3 SWAP2 POP POP JUMP JUMPDEST PUSH0 JUMPDEST DUP4 DUP2 LT ISZERO PUSH2 0x3220 JUMPI DUP1 DUP3 ADD MLOAD DUP2 DUP5 ADD MSTORE PUSH1 0x20 DUP2 ADD SWAP1 POP PUSH2 0x3205 JUMP JUMPDEST PUSH0 DUP5 DUP5 ADD MSTORE POP POP POP POP JUMP JUMPDEST PUSH0 PUSH2 0x3235 DUP3 PUSH2 0x31E9 JUMP JUMPDEST PUSH2 0x323F DUP2 DUP6 PUSH2 0x31F3 JUMP JUMPDEST SWAP4 POP PUSH2 0x324F DUP2 DUP6 PUSH1 0x20 DUP7 ADD PUSH2 0x3203 JUMP JUMPDEST PUSH2 0x3258 DUP2 PUSH2 0x2B97 JUMP JUMPDEST DUP5 ADD SWAP2 POP POP SWAP3 SWAP2 POP POP JUMP JUMPDEST PUSH0 PUSH1 0x80 DUP3 ADD SWAP1 POP PUSH2 0x3276 PUSH0 DUP4 ADD DUP8 PUSH2 0x2EA2 JUMP JUMPDEST PUSH2 0x3283 PUSH1 0x20 DUP4 ADD DUP7 PUSH2 0x2EA2 JUMP JUMPDEST PUSH2 0x3290 PUSH1 0x40 DUP4 ADD DUP6 PUSH2 0x2EB1 JUMP JUMPDEST DUP2 DUP2 SUB PUSH1 0x60 DUP4 ADD MSTORE PUSH2 0x32A2 DUP2 DUP5 PUSH2 0x322B JUMP JUMPDEST SWAP1 POP SWAP6 SWAP5 POP POP POP POP POP JUMP JUMPDEST PUSH0 PUSH1 0x20 DUP3 DUP5 SUB SLT ISZERO PUSH2 0x32C2 JUMPI PUSH2 0x32C1 PUSH2 0x2AFA JUMP JUMPDEST JUMPDEST PUSH0 PUSH2 0x32CF DUP5 DUP3 DUP6 ADD PUSH2 0x30F9 JUMP JUMPDEST SWAP2 POP POP SWAP3 SWAP2 POP POP JUMP JUMPDEST PUSH0 PUSH1 0x40 DUP3 ADD SWAP1 POP PUSH2 0x32EB PUSH0 DUP4 ADD DUP6 PUSH2 0x2EB1 JUMP JUMPDEST PUSH2 0x32F8 PUSH1 0x20 DUP4 ADD DUP5 PUSH2 0x2EA2 JUMP JUMPDEST SWAP4 SWAP3 POP POP POP JUMP JUMPDEST PUSH0 PUSH1 0x20 DUP3 DUP5 SUB SLT ISZERO PUSH2 0x3314 JUMPI PUSH2 0x3313 PUSH2 0x2AFA JUMP JUMPDEST JUMPDEST PUSH0 PUSH2 0x3321 DUP5 DUP3 DUP6 ADD PUSH2 0x30E5 JUMP JUMPDEST SWAP2 POP POP SWAP3 SWAP2 POP POP JUMP JUMPDEST PUSH32 0x4E487B7100000000000000000000000000000000000000000000000000000000 PUSH0 MSTORE PUSH1 0x11 PUSH1 0x4 MSTORE PUSH1 0x24 PUSH0 REVERT JUMPDEST PUSH0 PUSH2 0x3361 DUP3 PUSH2 0x2B5C JUMP JUMPDEST SWAP2 POP PUSH32 0xFFFFFFFFFFFFFFFFFFFFFFFFFFFFFFFFFFFFFFFFFFFFFFFFFFFFFFFFFFFFFFFF DUP3 SUB PUSH2 0x3393 JUMPI PUSH2 0x3392 PUSH2 0x332A JUMP JUMPDEST JUMPDEST PUSH1 0x1 DUP3 ADD SWAP1 POP SWAP2 SWAP1 POP JUMP JUMPDEST PUSH0 PUSH1 0x20 DUP3 DUP5 SUB SLT ISZERO PUSH2 0x33B3 JUMPI PUSH2 0x33B2 PUSH2 0x2AFA JUMP JUMPDEST JUMPDEST PUSH0 PUSH2 0x33C0 DUP5 DUP3 DUP6 ADD PUSH2 0x30BB JUMP JUMPDEST SWAP2 POP POP SWAP3 SWAP2 POP POP JUMP JUMPDEST PUSH0 PUSH2 0x33D3 DUP3 PUSH2 0x2B5C JUMP JUMPDEST SWAP2 POP PUSH2 0x33DE DUP4 PUSH2 0x2B5C JUMP JUMPDEST SWAP3 POP DUP3 DUP3 SUB SWAP1 POP DUP2 DUP2 GT ISZERO PUSH2 0x33F6 JUMPI PUSH2 0x33F5 PUSH2 0x332A JUMP JUMPDEST JUMPDEST SWAP3 SWAP2 POP POP JUMP JUMPDEST PUSH32 0x417262697472616765206661696C2C206E6F2070726F66697400000000000000 PUSH0 DUP3 ADD MSTORE POP JUMP JUMPDEST PUSH0 PUSH2 0x3430 PUSH1 0x19 DUP4 PUSH2 0x2FD7 JUMP JUMPDEST SWAP2 POP PUSH2 0x343B DUP3 PUSH2 0x33FC JUMP JUMPDEST PUSH1 0x20 DUP3 ADD SWAP1 POP SWAP2 SWAP1 POP JUMP JUMPDEST PUSH0 PUSH1 0x20 DUP3 ADD SWAP1 POP DUP2 DUP2 SUB PUSH0 DUP4 ADD MSTORE PUSH2 0x345D DUP2 PUSH2 0x3424 JUMP JUMPDEST SWAP1 POP SWAP2 SWAP1 POP JUMP JUMPDEST PUSH32 0x4E487B7100000000000000000000000000000000000000000000000000000000 PUSH0 MSTORE PUSH1 0x12 PUSH1 0x4 MSTORE PUSH1 0x24 PUSH0 REVERT JUMPDEST PUSH0 PUSH2 0x349B DUP3 PUSH2 0x2B5C JUMP JUMPDEST SWAP2 POP PUSH2 0x34A6 DUP4 PUSH2 0x2B5C JUMP JUMPDEST SWAP3 POP DUP3 PUSH2 0x34B6 JUMPI PUSH2 0x34B5 PUSH2 0x3464 JUMP JUMPDEST JUMPDEST DUP3 DUP3 DIV SWAP1 POP SWAP3 SWAP2 POP POP JUMP JUMPDEST PUSH2 0x34CA DUP2 PUSH2 0x2E31 JUMP JUMPDEST DUP3 MSTORE POP POP JUMP JUMPDEST PUSH2 0x34D9 DUP2 PUSH2 0x2B5C JUMP JUMPDEST DUP3 MSTORE POP POP JUMP JUMPDEST PUSH1 0xE0 DUP3 ADD PUSH0 DUP3 ADD MLOAD PUSH2 0x34F3 PUSH0 DUP6 ADD DUP3 PUSH2 0x2F29 JUMP JUMPDEST POP PUSH1 0x20 DUP3 ADD MLOAD PUSH2 0x3506 PUSH1 0x20 DUP6 ADD DUP3 PUSH2 0x2F29 JUMP JUMPDEST POP PUSH1 0x40 DUP3 ADD MLOAD PUSH2 0x3519 PUSH1 0x40 DUP6 ADD DUP3 PUSH2 0x34C1 JUMP JUMPDEST POP PUSH1 0x60 DUP3 ADD MLOAD PUSH2 0x352C PUSH1 0x60 DUP6 ADD DUP3 PUSH2 0x2F29 JUMP JUMPDEST POP PUSH1 0x80 DUP3 ADD MLOAD PUSH2 0x353F PUSH1 0x80 DUP6 ADD DUP3 PUSH2 0x2F29 JUMP JUMPDEST POP PUSH1 0xA0 DUP3 ADD MLOAD PUSH2 0x3552 PUSH1 0xA0 DUP6 ADD DUP3 PUSH2 0x34D0 JUMP JUMPDEST POP PUSH1 0xC0 DUP3 ADD MLOAD PUSH2 0x3565 PUSH1 0xC0 DUP6 ADD DUP3 PUSH2 0x34D0 JUMP JUMPDEST POP POP POP POP JUMP JUMPDEST PUSH0 PUSH1 0xE0 DUP3 ADD SWAP1 POP PUSH2 0x357E PUSH0 DUP4 ADD DUP5 PUSH2 0x34DF JUMP JUMPDEST SWAP3 SWAP2 POP POP JUMP JUMPDEST PUSH32 0x4C6F73696E67206D6F6E65790000000000000000000000000000000000000000 PUSH0 DUP3 ADD MSTORE POP JUMP JUMPDEST PUSH0 PUSH2 0x35B8 PUSH1 0xC DUP4 PUSH2 0x2FD7 JUMP JUMPDEST SWAP2 POP PUSH2 0x35C3 DUP3 PUSH2 0x3584 JUMP JUMPDEST PUSH1 0x20 DUP3 ADD SWAP1 POP SWAP2 SWAP1 POP JUMP JUMPDEST PUSH0 PUSH1 0x20 DUP3 ADD SWAP1 POP DUP2 DUP2 SUB PUSH0 DUP4 ADD MSTORE PUSH2 0x35E5 DUP2 PUSH2 0x35AC JUMP JUMPDEST SWAP1 POP SWAP2 SWAP1 POP JUMP JUMPDEST PUSH0 PUSH1 0x20 DUP3 ADD SWAP1 POP PUSH2 0x35FF PUSH0 DUP4 ADD DUP5 PUSH2 0x2EA2 JUMP JUMPDEST SWAP3 SWAP2 POP POP JUMP JUMPDEST PUSH32 0x4E487B7100000000000000000000000000000000000000000000000000000000 PUSH0 MSTORE PUSH1 0x32 PUSH1 0x4 MSTORE PUSH1 0x24 PUSH0 REVERT JUMPDEST PUSH32 0x53616D6520706169722061646472657373000000000000000000000000000000 PUSH0 DUP3 ADD MSTORE POP JUMP JUMPDEST PUSH0 PUSH2 0x3666 PUSH1 0x11 DUP4 PUSH2 0x2FD7 JUMP JUMPDEST SWAP2 POP PUSH2 0x3671 DUP3 PUSH2 0x3632 JUMP JUMPDEST PUSH1 0x20 DUP3 ADD SWAP1 POP SWAP2 SWAP1 POP JUMP JUMPDEST PUSH0 PUSH1 0x20 DUP3 ADD SWAP1 POP DUP2 DUP2 SUB PUSH0 DUP4 ADD MSTORE PUSH2 0x3693 DUP2 PUSH2 0x365A JUMP JUMPDEST SWAP1 POP SWAP2 SWAP1 POP JUMP JUMPDEST PUSH32 0x4E6F6E207374616E6461726420756E697377617020414D4D2070616972000000 PUSH0 DUP3 ADD MSTORE POP JUMP JUMPDEST PUSH0 PUSH2 0x36CE PUSH1 0x1D DUP4 PUSH2 0x2FD7 JUMP JUMPDEST SWAP2 POP PUSH2 0x36D9 DUP3 PUSH2 0x369A JUMP JUMPDEST PUSH1 0x20 DUP3 ADD SWAP1 POP SWAP2 SWAP1 POP JUMP JUMPDEST PUSH0 PUSH1 0x20 DUP3 ADD SWAP1 POP DUP2 DUP2 SUB PUSH0 DUP4 ADD MSTORE PUSH2 0x36FB DUP2 PUSH2 0x36C2 JUMP JUMPDEST SWAP1 POP SWAP2 SWAP1 POP JUMP JUMPDEST PUSH32 0x526571756972652073616D6520746F6B656E2070616972000000000000000000 PUSH0 DUP3 ADD MSTORE POP JUMP JUMPDEST PUSH0 PUSH2 0x3736 PUSH1 0x17 DUP4 PUSH2 0x2FD7 JUMP JUMPDEST SWAP2 POP PUSH2 0x3741 DUP3 PUSH2 0x3702 JUMP JUMPDEST PUSH1 0x20 DUP3 ADD SWAP1 POP SWAP2 SWAP1 POP JUMP JUMPDEST PUSH0 PUSH1 0x20 DUP3 ADD SWAP1 POP DUP2 DUP2 SUB PUSH0 DUP4 ADD MSTORE PUSH2 0x3763 DUP2 PUSH2 0x372A JUMP JUMPDEST SWAP1 POP SWAP2 SWAP1 POP JUMP JUMPDEST PUSH32 0x4E6F206261736520746F6B656E20696E20706169720000000000000000000000 PUSH0 DUP3 ADD MSTORE POP JUMP JUMPDEST PUSH0 PUSH2 0x379E PUSH1 0x15 DUP4 PUSH2 0x2FD7 JUMP JUMPDEST SWAP2 POP PUSH2 0x37A9 DUP3 PUSH2 0x376A JUMP JUMPDEST PUSH1 0x20 DUP3 ADD SWAP1 POP SWAP2 SWAP1 POP JUMP JUMPDEST PUSH0 PUSH1 0x20 DUP3 ADD SWAP1 POP DUP2 DUP2 SUB PUSH0 DUP4 ADD MSTORE PUSH2 0x37CB DUP2 PUSH2 0x3792 JUMP JUMPDEST SWAP1 POP SWAP2 SWAP1 POP JUMP JUMPDEST PUSH0 PUSH14 0xFFFFFFFFFFFFFFFFFFFFFFFFFFFF DUP3 AND SWAP1 POP SWAP2 SWAP1 POP JUMP JUMPDEST PUSH2 0x37F4 DUP2 PUSH2 0x37D2 JUMP JUMPDEST DUP2 EQ PUSH2 0x37FE JUMPI PUSH0 DUP1 REVERT JUMPDEST POP JUMP JUMPDEST PUSH0 DUP2 MLOAD SWAP1 POP PUSH2 0x380F DUP2 PUSH2 0x37EB JUMP JUMPDEST SWAP3 SWAP2 POP POP JUMP JUMPDEST PUSH0 PUSH4 0xFFFFFFFF DUP3 AND SWAP1 POP SWAP2 SWAP1 POP JUMP JUMPDEST PUSH2 0x382D DUP2 PUSH2 0x3815 JUMP JUMPDEST DUP2 EQ PUSH2 0x3837 JUMPI PUSH0 DUP1 REVERT JUMPDEST POP JUMP JUMPDEST PUSH0 DUP2 MLOAD SWAP1 POP PUSH2 0x3848 DUP2 PUSH2 0x3824 JUMP JUMPDEST SWAP3 SWAP2 POP POP JUMP JUMPDEST PUSH0 DUP1 PUSH0 PUSH1 0x60 DUP5 DUP7 SUB SLT ISZERO PUSH2 0x3865 JUMPI PUSH2 0x3864 PUSH2 0x2AFA JUMP JUMPDEST JUMPDEST PUSH0 PUSH2 0x3872 DUP7 DUP3 DUP8 ADD PUSH2 0x3801 JUMP JUMPDEST SWAP4 POP POP PUSH1 0x20 PUSH2 0x3883 DUP7 DUP3 DUP8 ADD PUSH2 0x3801 JUMP JUMPDEST SWAP3 POP POP PUSH1 0x40 PUSH2 0x3894 DUP7 DUP3 DUP8 ADD PUSH2 0x383A JUMP JUMPDEST SWAP2 POP POP SWAP3 POP SWAP3 POP SWAP3 JUMP JUMPDEST PUSH0 DUP2 SWAP1 POP SWAP2 SWAP1 POP JUMP JUMPDEST PUSH0 PUSH2 0x38B1 DUP3 PUSH2 0x389E JUMP JUMPDEST SWAP2 POP PUSH2 0x38BC DUP4 PUSH2 0x389E JUMP JUMPDEST SWAP3 POP DUP3 DUP3 MUL PUSH2 0x38CA DUP2 PUSH2 0x389E JUMP JUMPDEST SWAP2 POP PUSH32 0x8000000000000000000000000000000000000000000000000000000000000000 DUP5 EQ PUSH0 DUP5 SLT AND ISZERO PUSH2 0x3901 JUMPI PUSH2 0x3900 PUSH2 0x332A JUMP JUMPDEST JUMPDEST DUP3 DUP3 SDIV DUP5 EQ DUP4 ISZERO OR PUSH2 0x3916 JUMPI PUSH2 0x3915 PUSH2 0x332A JUMP JUMPDEST JUMPDEST POP SWAP3 SWAP2 POP POP JUMP JUMPDEST PUSH0 PUSH2 0x3927 DUP3 PUSH2 0x389E JUMP JUMPDEST SWAP2 POP PUSH2 0x3932 DUP4 PUSH2 0x389E JUMP JUMPDEST SWAP3 POP DUP3 DUP3 SUB SWAP1 POP DUP2 DUP2 SLT PUSH0 DUP5 SLT AND DUP3 DUP3 SGT PUSH0 DUP6 SLT ISZERO AND OR ISZERO PUSH2 0x3957 JUMPI PUSH2 0x3956 PUSH2 0x332A JUMP JUMPDEST JUMPDEST SWAP3 SWAP2 POP POP JUMP JUMPDEST PUSH0 PUSH2 0x3967 DUP3 PUSH2 0x389E JUMP JUMPDEST SWAP2 POP PUSH2 0x3972 DUP4 PUSH2 0x389E JUMP JUMPDEST SWAP3 POP DUP3 DUP3 ADD SWAP1 POP DUP3 DUP2 SLT ISZERO PUSH0 DUP4 SLT AND DUP4 DUP3 SLT PUSH0 DUP5 SLT ISZERO AND OR ISZERO PUSH2 0x3998 JUMPI PUSH2 0x3997 PUSH2 0x332A JUMP JUMPDEST JUMPDEST SWAP3 SWAP2 POP POP JUMP JUMPDEST PUSH32 0x57726F6E6720696E707574206F72646572000000000000000000000000000000 PUSH0 DUP3 ADD MSTORE POP JUMP JUMPDEST PUSH0 PUSH2 0x39D2 PUSH1 0x11 DUP4 PUSH2 0x2FD7 JUMP JUMPDEST SWAP2 POP PUSH2 0x39DD DUP3 PUSH2 0x399E JUMP JUMPDEST PUSH1 0x20 DUP3 ADD SWAP1 POP SWAP2 SWAP1 POP JUMP JUMPDEST PUSH0 PUSH1 0x20 DUP3 ADD SWAP1 POP DUP2 DUP2 SUB PUSH0 DUP4 ADD MSTORE PUSH2 0x39FF DUP2 PUSH2 0x39C6 JUMP JUMPDEST SWAP1 POP SWAP2 SWAP1 POP JUMP JUMPDEST PUSH0 PUSH2 0x3A10 DUP3 PUSH2 0x2B5C JUMP JUMPDEST SWAP2 POP PUSH2 0x3A1B DUP4 PUSH2 0x2B5C JUMP JUMPDEST SWAP3 POP DUP3 DUP3 MUL PUSH2 0x3A29 DUP2 PUSH2 0x2B5C JUMP JUMPDEST SWAP2 POP DUP3 DUP3 DIV DUP5 EQ DUP4 ISZERO OR PUSH2 0x3A40 JUMPI PUSH2 0x3A3F PUSH2 0x332A JUMP JUMPDEST JUMPDEST POP SWAP3 SWAP2 POP POP JUMP JUMPDEST PUSH32 0x556E697377617056324C6962726172793A20494E53554646494349454E545F4F PUSH0 DUP3 ADD MSTORE PUSH32 0x55545055545F414D4F554E540000000000000000000000000000000000000000 PUSH1 0x20 DUP3 ADD MSTORE POP JUMP JUMPDEST PUSH0 PUSH2 0x3AA1 PUSH1 0x2C DUP4 PUSH2 0x2FD7 JUMP JUMPDEST SWAP2 POP PUSH2 0x3AAC DUP3 PUSH2 0x3A47 JUMP JUMPDEST PUSH1 0x40 DUP3 ADD SWAP1 POP SWAP2 SWAP1 POP JUMP JUMPDEST PUSH0 PUSH1 0x20 DUP3 ADD SWAP1 POP DUP2 DUP2 SUB PUSH0 DUP4 ADD MSTORE PUSH2 0x3ACE DUP2 PUSH2 0x3A95 JUMP JUMPDEST SWAP1 POP SWAP2 SWAP1 POP JUMP JUMPDEST PUSH32 0x556E697377617056324C6962726172793A20494E53554646494349454E545F4C PUSH0 DUP3 ADD MSTORE PUSH32 0x4951554944495459000000000000000000000000000000000000000000000000 PUSH1 0x20 DUP3 ADD MSTORE POP JUMP JUMPDEST PUSH0 PUSH2 0x3B2F PUSH1 0x28 DUP4 PUSH2 0x2FD7 JUMP JUMPDEST SWAP2 POP PUSH2 0x3B3A DUP3 PUSH2 0x3AD5 JUMP JUMPDEST PUSH1 0x40 DUP3 ADD SWAP1 POP SWAP2 SWAP1 POP JUMP JUMPDEST PUSH0 PUSH1 0x20 DUP3 ADD SWAP1 POP DUP2 DUP2 SUB PUSH0 DUP4 ADD MSTORE PUSH2 0x3B5C DUP2 PUSH2 0x3B23 JUMP JUMPDEST SWAP1 POP SWAP2 SWAP1 POP JUMP JUMPDEST PUSH32 0x556E697377617056324C6962726172793A20494E53554646494349454E545F49 PUSH0 DUP3 ADD MSTORE PUSH32 0x4E5055545F414D4F554E54000000000000000000000000000000000000000000 PUSH1 0x20 DUP3 ADD MSTORE POP JUMP JUMPDEST PUSH0 PUSH2 0x3BBD PUSH1 0x2B DUP4 PUSH2 0x2FD7 JUMP JUMPDEST SWAP2 POP PUSH2 0x3BC8 DUP3 PUSH2 0x3B63 JUMP JUMPDEST PUSH1 0x40 DUP3 ADD SWAP1 POP SWAP2 SWAP1 POP JUMP JUMPDEST PUSH0 PUSH1 0x20 DUP3 ADD SWAP1 POP DUP2 DUP2 SUB PUSH0 DUP4 ADD MSTORE PUSH2 0x3BEA DUP2 PUSH2 0x3BB1 JUMP JUMPDEST SWAP1 POP SWAP2 SWAP1 POP JUMP JUMPDEST PUSH0 DUP2 MLOAD SWAP1 POP SWAP2 SWAP1 POP JUMP JUMPDEST PUSH0 PUSH2 0x3C05 DUP3 PUSH2 0x3BF1 JUMP JUMPDEST PUSH2 0x3C0F DUP2 DUP6 PUSH2 0x2FD7 JUMP JUMPDEST SWAP4 POP PUSH2 0x3C1F DUP2 DUP6 PUSH1 0x20 DUP7 ADD PUSH2 0x3203 JUMP JUMPDEST PUSH2 0x3C28 DUP2 PUSH2 0x2B97 JUMP JUMPDEST DUP5 ADD SWAP2 POP POP SWAP3 SWAP2 POP POP JUMP JUMPDEST PUSH0 PUSH1 0x40 DUP3 ADD SWAP1 POP DUP2 DUP2 SUB PUSH0 DUP4 ADD MSTORE PUSH2 0x3C4B DUP2 DUP6 PUSH2 0x3BFB JUMP JUMPDEST SWAP1 POP PUSH2 0x3C5A PUSH1 0x20 DUP4 ADD DUP5 PUSH2 0x2EA2 JUMP JUMPDEST SWAP4 SWAP3 POP POP POP JUMP JUMPDEST PUSH0 PUSH1 0x40 DUP3 ADD SWAP1 POP DUP2 DUP2 SUB PUSH0 DUP4 ADD MSTORE PUSH2 0x3C79 DUP2 DUP6 PUSH2 0x3BFB JUMP JUMPDEST SWAP1 POP PUSH2 0x3C88 PUSH1 0x20 DUP4 ADD DUP5 PUSH2 0x2EB1 JUMP JUMPDEST SWAP4 SWAP3 POP POP POP JUMP JUMPDEST PUSH0 DUP2 PUSH1 0x1 SHR SWAP1 POP SWAP2 SWAP1 POP JUMP JUMPDEST PUSH0 DUP1 DUP3 SWAP2 POP DUP4 SWAP1 POP JUMPDEST PUSH1 0x1 DUP6 GT ISZERO PUSH2 0x3CE4 JUMPI DUP1 DUP7 DIV DUP2 GT ISZERO PUSH2 0x3CC0 JUMPI PUSH2 0x3CBF PUSH2 0x332A JUMP JUMPDEST JUMPDEST PUSH1 0x1 DUP6 AND ISZERO PUSH2 0x3CCF JUMPI DUP1 DUP3 MUL SWAP2 POP JUMPDEST DUP1 DUP2 MUL SWAP1 POP PUSH2 0x3CDD DUP6 PUSH2 0x3C8F JUMP JUMPDEST SWAP5 POP PUSH2 0x3CA4 JUMP JUMPDEST SWAP5 POP SWAP5 SWAP3 POP POP POP JUMP JUMPDEST PUSH0 DUP3 PUSH0 DUP2 EQ PUSH2 0x3D03 JUMPI PUSH1 0x1 DUP2 EQ PUSH2 0x3D0D JUMPI PUSH2 0x3D16 JUMP JUMPDEST PUSH1 0x1 SWAP2 POP POP PUSH2 0x3DCD JUMP JUMPDEST DUP3 SWAP2 POP POP PUSH2 0x3DCD JUMP JUMPDEST POP DUP2 PUSH2 0x3D24 JUMPI PUSH0 SWAP1 POP PUSH2 0x3DCD JUMP JUMPDEST PUSH1 0x1 SWAP1 POP PUSH0 DUP3 SGT PUSH1 0x1 DUP2 EQ PUSH2 0x3D3F JUMPI PUSH0 DUP2 EQ PUSH2 0x3D57 JUMPI PUSH2 0x3D6B JUMP JUMPDEST DUP3 DUP7 DIV DUP4 GT ISZERO PUSH2 0x3D52 JUMPI PUSH2 0x3D51 PUSH2 0x332A JUMP JUMPDEST JUMPDEST PUSH2 0x3D6B JUMP JUMPDEST DUP3 DUP7 SDIV DUP4 SLT ISZERO PUSH2 0x3D6A JUMPI PUSH2 0x3D69 PUSH2 0x332A JUMP JUMPDEST JUMPDEST JUMPDEST POP PUSH1 0x1 DUP4 AND ISZERO PUSH2 0x3D79 JUMPI DUP2 SWAP1 POP JUMPDEST DUP2 DUP3 MUL SWAP2 POP PUSH2 0x3D87 DUP4 PUSH2 0x3C8F JUMP JUMPDEST SWAP3 POP PUSH2 0x3D95 DUP6 DUP5 DUP5 DUP5 PUSH2 0x3C9B JUMP JUMPDEST SWAP3 POP SWAP1 POP DUP2 DUP6 DIV DUP2 GT PUSH0 DUP3 SGT AND ISZERO PUSH2 0x3DB0 JUMPI PUSH2 0x3DAF PUSH2 0x332A JUMP JUMPDEST JUMPDEST DUP2 DUP5 SDIV DUP2 SLT PUSH0 DUP3 SLT AND ISZERO PUSH2 0x3DC7 JUMPI PUSH2 0x3DC6 PUSH2 0x332A JUMP JUMPDEST JUMPDEST DUP2 DUP2 MUL SWAP1 POP JUMPDEST SWAP5 SWAP4 POP POP POP POP JUMP JUMPDEST PUSH0 PUSH1 0xFF DUP3 AND SWAP1 POP SWAP2 SWAP1 POP JUMP JUMPDEST PUSH0 PUSH2 0x3DEB DUP3 PUSH2 0x389E JUMP JUMPDEST SWAP2 POP PUSH2 0x3DF6 DUP4 PUSH2 0x3DD5 JUMP JUMPDEST SWAP3 POP PUSH2 0x3E44 PUSH32 0x7FFFFFFFFFFFFFFFFFFFFFFFFFFFFFFFFFFFFFFFFFFFFFFFFFFFFFFFFFFFFFFF PUSH32 0x8000000000000000000000000000000000000000000000000000000000000000 DUP6 DUP6 PUSH2 0x3CED JUMP JUMPDEST SWAP1 POP SWAP3 SWAP2 POP POP JUMP JUMPDEST PUSH32 0x436F6D706C6578206E756D626572000000000000000000000000000000000000 PUSH0 DUP3 ADD MSTORE POP JUMP JUMPDEST PUSH0 PUSH2 0x3E80 PUSH1 0xE DUP4 PUSH2 0x2FD7 JUMP JUMPDEST SWAP2 POP PUSH2 0x3E8B DUP3 PUSH2 0x3E4C JUMP JUMPDEST PUSH1 0x20 DUP3 ADD SWAP1 POP SWAP2 SWAP1 POP JUMP JUMPDEST PUSH0 PUSH1 0x20 DUP3 ADD SWAP1 POP DUP2 DUP2 SUB PUSH0 DUP4 ADD MSTORE PUSH2 0x3EAD DUP2 PUSH2 0x3E74 JUMP JUMPDEST SWAP1 POP SWAP2 SWAP1 POP JUMP JUMPDEST PUSH0 PUSH2 0x3EBE DUP3 PUSH2 0x389E JUMP JUMPDEST SWAP2 POP PUSH32 0x8000000000000000000000000000000000000000000000000000000000000000 DUP3 SUB PUSH2 0x3EF0 JUMPI PUSH2 0x3EEF PUSH2 0x332A JUMP JUMPDEST JUMPDEST DUP2 PUSH0 SUB SWAP1 POP SWAP2 SWAP1 POP JUMP JUMPDEST PUSH0 PUSH2 0x3F04 DUP3 PUSH2 0x389E JUMP JUMPDEST SWAP2 POP PUSH2 0x3F0F DUP4 PUSH2 0x389E JUMP JUMPDEST SWAP3 POP DUP3 PUSH2 0x3F1F JUMPI PUSH2 0x3F1E PUSH2 0x3464 JUMP JUMPDEST JUMPDEST PUSH1 0x1 PUSH0 SUB DUP4 EQ PUSH32 0x8000000000000000000000000000000000000000000000000000000000000000 DUP4 EQ AND ISZERO PUSH2 0x3F57 JUMPI PUSH2 0x3F56 PUSH2 0x332A JUMP JUMPDEST JUMPDEST DUP3 DUP3 SDIV SWAP1 POP SWAP3 SWAP2 POP POP JUMP JUMPDEST PUSH32 0x64732D6D6174682D6D756C2D6F766572666C6F77000000000000000000000000 PUSH0 DUP3 ADD MSTORE POP JUMP JUMPDEST PUSH0 PUSH2 0x3F96 PUSH1 0x14 DUP4 PUSH2 0x2FD7 JUMP JUMPDEST SWAP2 POP PUSH2 0x3FA1 DUP3 PUSH2 0x3F62 JUMP JUMPDEST PUSH1 0x20 DUP3 ADD SWAP1 POP SWAP2 SWAP1 POP JUMP JUMPDEST PUSH0 PUSH1 0x20 DUP3 ADD SWAP1 POP DUP2 DUP2 SUB PUSH0 DUP4 ADD MSTORE PUSH2 0x3FC3 DUP2 PUSH2 0x3F8A JUMP JUMPDEST SWAP1 POP SWAP2 SWAP1 POP JUMP JUMPDEST PUSH32 0x64732D6D6174682D7375622D756E646572666C6F770000000000000000000000 PUSH0 DUP3 ADD MSTORE POP JUMP JUMPDEST PUSH0 PUSH2 0x3FFE PUSH1 0x15 DUP4 PUSH2 0x2FD7 JUMP JUMPDEST SWAP2 POP PUSH2 0x4009 DUP3 PUSH2 0x3FCA JUMP JUMPDEST PUSH1 0x20 DUP3 ADD SWAP1 POP SWAP2 SWAP1 POP JUMP JUMPDEST PUSH0 PUSH1 0x20 DUP3 ADD SWAP1 POP DUP2 DUP2 SUB PUSH0 DUP4 ADD MSTORE PUSH2 0x402B DUP2 PUSH2 0x3FF2 JUMP JUMPDEST SWAP1 POP SWAP2 SWAP1 POP JUMP JUMPDEST PUSH0 PUSH2 0x403C DUP3 PUSH2 0x2B5C JUMP JUMPDEST SWAP2 POP PUSH2 0x4047 DUP4 PUSH2 0x2B5C JUMP JUMPDEST SWAP3 POP DUP3 DUP3 ADD SWAP1 POP DUP1 DUP3 GT ISZERO PUSH2 0x405F JUMPI PUSH2 0x405E PUSH2 0x332A JUMP JUMPDEST JUMPDEST SWAP3 SWAP2 POP POP JUMP JUMPDEST PUSH32 0x64732D6D6174682D6164642D6F766572666C6F77000000000000000000000000 PUSH0 DUP3 ADD MSTORE POP JUMP JUMPDEST PUSH0 PUSH2 0x4099 PUSH1 0x14 DUP4 PUSH2 0x2FD7 JUMP JUMPDEST SWAP2 POP PUSH2 0x40A4 DUP3 PUSH2 0x4065 JUMP JUMPDEST PUSH1 0x20 DUP3 ADD SWAP1 POP SWAP2 SWAP1 POP JUMP JUMPDEST PUSH0 PUSH1 0x20 DUP3 ADD SWAP1 POP DUP2 DUP2 SUB PUSH0 DUP4 ADD MSTORE PUSH2 0x40C6 DUP2 PUSH2 0x408D JUMP JUMPDEST SWAP1 POP SWAP2 SWAP1 POP JUMP JUMPDEST PUSH32 0x4E487B7100000000000000000000000000000000000000000000000000000000 PUSH0 MSTORE PUSH1 0x31 PUSH1 0x4 MSTORE PUSH1 0x24 PUSH0 REVERT JUMPDEST PUSH32 0x536166654D6174683A206D756C7469706C69636174696F6E206F766572666C6F PUSH0 DUP3 ADD MSTORE PUSH32 0x7700000000000000000000000000000000000000000000000000000000000000 PUSH1 0x20 DUP3 ADD MSTORE POP JUMP JUMPDEST PUSH0 PUSH2 0x4154 PUSH1 0x21 DUP4 PUSH2 0x2FD7 JUMP JUMPDEST SWAP2 POP PUSH2 0x415F DUP3 PUSH2 0x40FA JUMP JUMPDEST PUSH1 0x40 DUP3 ADD SWAP1 POP SWAP2 SWAP1 POP JUMP JUMPDEST PUSH0 PUSH1 0x20 DUP3 ADD SWAP1 POP DUP2 DUP2 SUB PUSH0 DUP4 ADD MSTORE PUSH2 0x4181 DUP2 PUSH2 0x4148 JUMP JUMPDEST SWAP1 POP SWAP2 SWAP1 POP JUMP JUMPDEST PUSH32 0x4E487B7100000000000000000000000000000000000000000000000000000000 PUSH0 MSTORE PUSH1 0x1 PUSH1 0x4 MSTORE PUSH1 0x24 PUSH0 REVERT JUMPDEST PUSH0 PUSH1 0x20 DUP3 ADD SWAP1 POP DUP2 DUP2 SUB PUSH0 DUP4 ADD MSTORE PUSH2 0x41CD DUP2 DUP5 PUSH2 0x3BFB JUMP JUMPDEST SWAP1 POP SWAP3 SWAP2 POP POP JUMP JUMPDEST PUSH32 0x4E487B7100000000000000000000000000000000000000000000000000000000 PUSH0 MSTORE PUSH1 0x51 PUSH1 0x4 MSTORE PUSH1 0x24 PUSH0 REVERT INVALID LOG2 PUSH5 0x6970667358 0x22 SLT KECCAK256 0xEF BYTE MLOAD CALL 0xE6 PUSH2 0xDEA5 CALLDATACOPY 0xE2 SWAP15 SWAP6 0xC9 DUP16 0xB8 0xE 0xE2 0x25 DUP4 0xDE GASLIMIT 0xDC 0x5C 0xC2 EXTCODESIZE PUSH18 0x6227607E8F5764736F6C6343000814003300 "
		},
		"gasEstimates": {
			"creation": {
				"codeDepositCost": "3390400",
				"executionCost": "infinite",
				"totalCost": "infinite"
			},
			"external": {
				"": "infinite",
				"addBaseToken(address)": "infinite",
				"baseTokensContains(address)": "infinite",
				"flashArbitrage(address,address)": "infinite",
				"getBaseTokens()": "infinite",
				"getProfit(address,address)": "infinite",
				"owner()": "2537",
				"removeBaseToken(address)": "infinite",
				"renounceOwnership()": "infinite",
				"transferOwnership(address)": "infinite",
				"uniswapV2Call(address,uint256,uint256,bytes)": "infinite",
				"withdraw()": "infinite"
			},
			"internal": {
				"calcBorrowAmount(struct OrderedReserves memory)": "infinite",
				"calcSolutionForQuadratic(int256,int256,int256)": "infinite",
				"getAmountIn(uint256,uint256,uint256)": "infinite",
				"getAmountOut(uint256,uint256,uint256)": "infinite",
				"getOrderedReserves(address,address,bool)": "infinite",
				"isbaseTokenSmaller(address,address)": "infinite",
				"sqrt(uint256)": "infinite"
			}
		},
		"methodIdentifiers": {
			"addBaseToken(address)": "83e280d9",
			"baseTokensContains(address)": "21d09426",
			"flashArbitrage(address,address)": "baee64f1",
			"getBaseTokens()": "bed64c2f",
			"getProfit(address,address)": "759eee10",
			"owner()": "8da5cb5b",
			"removeBaseToken(address)": "bbd1e122",
			"renounceOwnership()": "715018a6",
			"transferOwnership(address)": "f2fde38b",
			"uniswapV2Call(address,uint256,uint256,bytes)": "10d1e85c",
			"withdraw()": "3ccfd60b"
		}
	},
	"abi": [
		{
			"inputs": [
				{
					"internalType": "address",
					"name": "_WETH",
					"type": "address"
				}
			],
			"stateMutability": "nonpayable",
			"type": "constructor"
		},
		{
			"inputs": [
				{
					"internalType": "address",
					"name": "owner",
					"type": "address"
				}
			],
			"name": "OwnableInvalidOwner",
			"type": "error"
		},
		{
			"inputs": [
				{
					"internalType": "address",
					"name": "account",
					"type": "address"
				}
			],
			"name": "OwnableUnauthorizedAccount",
			"type": "error"
		},
		{
			"inputs": [
				{
					"internalType": "address",
					"name": "token",
					"type": "address"
				}
			],
			"name": "SafeERC20FailedOperation",
			"type": "error"
		},
		{
			"anonymous": false,
			"inputs": [
				{
					"indexed": true,
					"internalType": "address",
					"name": "token",
					"type": "address"
				}
			],
			"name": "BaseTokenAdded",
			"type": "event"
		},
		{
			"anonymous": false,
			"inputs": [
				{
					"indexed": true,
					"internalType": "address",
					"name": "token",
					"type": "address"
				}
			],
			"name": "BaseTokenRemoved",
			"type": "event"
		},
		{
			"anonymous": false,
			"inputs": [
				{
					"indexed": true,
					"internalType": "address",
					"name": "previousOwner",
					"type": "address"
				},
				{
					"indexed": true,
					"internalType": "address",
					"name": "newOwner",
					"type": "address"
				}
			],
			"name": "OwnershipTransferred",
			"type": "event"
		},
		{
			"anonymous": false,
			"inputs": [
				{
					"indexed": true,
					"internalType": "address",
					"name": "to",
					"type": "address"
				},
				{
					"indexed": true,
					"internalType": "uint256",
					"name": "value",
					"type": "uint256"
				}
			],
			"name": "Withdrawn",
			"type": "event"
		},
		{
			"stateMutability": "nonpayable",
			"type": "fallback"
		},
		{
			"inputs": [
				{
					"internalType": "address",
					"name": "token",
					"type": "address"
				}
			],
			"name": "addBaseToken",
			"outputs": [],
			"stateMutability": "nonpayable",
			"type": "function"
		},
		{
			"inputs": [
				{
					"internalType": "address",
					"name": "token",
					"type": "address"
				}
			],
			"name": "baseTokensContains",
			"outputs": [
				{
					"internalType": "bool",
					"name": "",
					"type": "bool"
				}
			],
			"stateMutability": "view",
			"type": "function"
		},
		{
			"inputs": [
				{
					"internalType": "address",
					"name": "pool0",
					"type": "address"
				},
				{
					"internalType": "address",
					"name": "pool1",
					"type": "address"
				}
			],
			"name": "flashArbitrage",
			"outputs": [],
			"stateMutability": "nonpayable",
			"type": "function"
		},
		{
			"inputs": [],
			"name": "getBaseTokens",
			"outputs": [
				{
					"internalType": "address[]",
					"name": "tokens",
					"type": "address[]"
				}
			],
			"stateMutability": "view",
			"type": "function"
		},
		{
			"inputs": [
				{
					"internalType": "address",
					"name": "pool0",
					"type": "address"
				},
				{
					"internalType": "address",
					"name": "pool1",
					"type": "address"
				}
			],
			"name": "getProfit",
			"outputs": [
				{
					"internalType": "uint256",
					"name": "profit",
					"type": "uint256"
				},
				{
					"internalType": "address",
					"name": "baseToken",
					"type": "address"
				}
			],
			"stateMutability": "view",
			"type": "function"
		},
		{
			"inputs": [],
			"name": "owner",
			"outputs": [
				{
					"internalType": "address",
					"name": "",
					"type": "address"
				}
			],
			"stateMutability": "view",
			"type": "function"
		},
		{
			"inputs": [
				{
					"internalType": "address",
					"name": "token",
					"type": "address"
				}
			],
			"name": "removeBaseToken",
			"outputs": [],
			"stateMutability": "nonpayable",
			"type": "function"
		},
		{
			"inputs": [],
			"name": "renounceOwnership",
			"outputs": [],
			"stateMutability": "nonpayable",
			"type": "function"
		},
		{
			"inputs": [
				{
					"internalType": "address",
					"name": "newOwner",
					"type": "address"
				}
			],
			"name": "transferOwnership",
			"outputs": [],
			"stateMutability": "nonpayable",
			"type": "function"
		},
		{
			"inputs": [
				{
					"internalType": "address",
					"name": "sender",
					"type": "address"
				},
				{
					"internalType": "uint256",
					"name": "amount0",
					"type": "uint256"
				},
				{
					"internalType": "uint256",
					"name": "amount1",
					"type": "uint256"
				},
				{
					"internalType": "bytes",
					"name": "data",
					"type": "bytes"
				}
			],
			"name": "uniswapV2Call",
			"outputs": [],
			"stateMutability": "nonpayable",
			"type": "function"
		},
		{
			"inputs": [],
			"name": "withdraw",
			"outputs": [],
			"stateMutability": "nonpayable",
			"type": "function"
		},
		{
			"stateMutability": "payable",
			"type": "receive"
		}
	]
}