{
	"data": {
		"bytecode": {
			"linkReferences": {},
			"object": "608060405234801561000f575f80fd5b5061014a8061001d5f395ff3fe608060405234801561000f575f80fd5b5060043610610029575f3560e01c8063c3780a3a1461002d575b5f80fd5b610035610037565b005b5f601990507f69a6cf7852823a03f1e0278fa944045502fae9fb546695dbf1f50521651a8b738160405161006b91906100e8565b60405180910390a150565b5f82825260208201905092915050565b7f48656c6c6f2c20576f726c6421000000000000000000000000000000000000005f82015250565b5f6100ba600d83610076565b91506100c582610086565b602082019050919050565b5f819050919050565b6100e2816100d0565b82525050565b5f6040820190508181035f8301526100ff816100ae565b905061010e60208301846100d9565b9291505056fea264697066735822122031118a5ade8d3cfd34b4767888ea52b6efe408a3118a32c26ed5615a8bfced6264736f6c63430008140033",
			"opcodes": "PUSH1 0x80 PUSH1 0x40 MSTORE CALLVALUE DUP1 ISZERO PUSH2 0xF JUMPI PUSH0 DUP1 REVERT JUMPDEST POP PUSH2 0x14A DUP1 PUSH2 0x1D PUSH0 CODECOPY PUSH0 RETURN INVALID PUSH1 0x80 PUSH1 0x40 MSTORE CALLVALUE DUP1 ISZERO PUSH2 0xF JUMPI PUSH0 DUP1 REVERT JUMPDEST POP PUSH1 0x4 CALLDATASIZE LT PUSH2 0x29 JUMPI PUSH0 CALLDATALOAD PUSH1 0xE0 SHR DUP1 PUSH4 0xC3780A3A EQ PUSH2 0x2D JUMPI JUMPDEST PUSH0 DUP1 REVERT JUMPDEST PUSH2 0x35 PUSH2 0x37 JUMP JUMPDEST STOP JUMPDEST PUSH0 PUSH1 0x19 SWAP1 POP PUSH32 0x69A6CF7852823A03F1E0278FA944045502FAE9FB546695DBF1F50521651A8B73 DUP2 PUSH1 0x40 MLOAD PUSH2 0x6B SWAP2 SWAP1 PUSH2 0xE8 JUMP JUMPDEST PUSH1 0x40 MLOAD DUP1 SWAP2 SUB SWAP1 LOG1 POP JUMP JUMPDEST PUSH0 DUP3 DUP3 MSTORE PUSH1 0x20 DUP3 ADD SWAP1 POP SWAP3 SWAP2 POP POP JUMP JUMPDEST PUSH32 0x48656C6C6F2C20576F726C642100000000000000000000000000000000000000 PUSH0 DUP3 ADD MSTORE POP JUMP JUMPDEST PUSH0 PUSH2 0xBA PUSH1 0xD DUP4 PUSH2 0x76 JUMP JUMPDEST SWAP2 POP PUSH2 0xC5 DUP3 PUSH2 0x86 JUMP JUMPDEST PUSH1 0x20 DUP3 ADD SWAP1 POP SWAP2 SWAP1 POP JUMP JUMPDEST PUSH0 DUP2 SWAP1 POP SWAP2 SWAP1 POP JUMP JUMPDEST PUSH2 0xE2 DUP2 PUSH2 0xD0 JUMP JUMPDEST DUP3 MSTORE POP POP JUMP JUMPDEST PUSH0 PUSH1 0x40 DUP3 ADD SWAP1 POP DUP2 DUP2 SUB PUSH0 DUP4 ADD MSTORE PUSH2 0xFF DUP2 PUSH2 0xAE JUMP JUMPDEST SWAP1 POP PUSH2 0x10E PUSH1 0x20 DUP4 ADD DUP5 PUSH2 0xD9 JUMP JUMPDEST SWAP3 SWAP2 POP POP JUMP INVALID LOG2 PUSH5 0x6970667358 0x22 SLT KECCAK256 BALANCE GT DUP11 GAS 0xDE DUP14 EXTCODECOPY REVERT CALLVALUE 0xB4 PUSH23 0x7888EA52B6EFE408A3118A32C26ED5615A8BFCED626473 PUSH16 0x6C634300081400330000000000000000 "
		},
		"gasEstimates": {
			"creation": {
				"codeDepositCost": "66000",
				"executionCost": "115",
				"totalCost": "66115"
			},
			"external": {
				"myFunction()": "2288"
			}
		},
		"methodIdentifiers": {
			"myFunction()": "c3780a3a"
		}
	},
	"abi": [
		{
			"anonymous": false,
			"inputs": [
				{
					"indexed": false,
					"internalType": "string",
					"name": "message",
					"type": "string"
				},
				{
					"indexed": false,
					"internalType": "uint256",
					"name": "num",
					"type": "uint256"
				}
			],
			"name": "LogMessage",
			"type": "event"
		},
		{
			"inputs": [],
			"name": "myFunction",
			"outputs": [],
			"stateMutability": "nonpayable",
			"type": "function"
		}
	]
}