{
	"data": {
		"bytecode": {
			"linkReferences": {},
			"object": "6080604052348015600e575f80fd5b50610d128061001c5f395ff3fe608060405234801561000f575f80fd5b5060043610610034575f3560e01c8063df791e5014610038578063ec0a63d814610054575b5f80fd5b610052600480360381019061004d91906107e5565b610085565b005b61006e60048036038101906100699190610835565b610374565b60405161007c92919061086f565b60405180910390f35b5f8390505f8173ffffffffffffffffffffffffffffffffffffffff16630dfe16816040518163ffffffff1660e01b8152600401602060405180830381865afa1580156100d3573d5f803e3d5ffd5b505050506040513d601f19601f820116820180604052508101906100f791906108aa565b90505f8273ffffffffffffffffffffffffffffffffffffffff1663d21220a76040518163ffffffff1660e01b8152600401602060405180830381865afa158015610143573d5f803e3d5ffd5b505050506040513d601f19601f8201168201806040525081019061016791906108aa565b90505f8061017488610374565b915091508373ffffffffffffffffffffffffffffffffffffffff168773ffffffffffffffffffffffffffffffffffffffff1614806101dd57508273ffffffffffffffffffffffffffffffffffffffff168773ffffffffffffffffffffffffffffffffffffffff16145b61021c576040517f08c379a00000000000000000000000000000000000000000000000000000000081526004016102139061092f565b60405180910390fd5b5f8473ffffffffffffffffffffffffffffffffffffffff168873ffffffffffffffffffffffffffffffffffffffff1614610256575f610259565b60015b905061028689888a73ffffffffffffffffffffffffffffffffffffffff166105569092919063ffffffff16565b5f808261029e576102988985876105d5565b5f6102ab565b5f6102aa8a87876105d5565b5b915091508a73ffffffffffffffffffffffffffffffffffffffff1663022c0d9f8383305f67ffffffffffffffff8111156102e8576102e761094d565b5b6040519080825280601f01601f19166020018201604052801561031a5781602001600182028036833780820191505090505b506040518563ffffffff1660e01b815260040161033a94939291906109f9565b5f604051808303815f87803b158015610351575f80fd5b505af1158015610363573d5f803e3d5ffd5b505050505050505050505050505050565b5f805f8390505f8173ffffffffffffffffffffffffffffffffffffffff16630dfe16816040518163ffffffff1660e01b8152600401602060405180830381865afa1580156103c4573d5f803e3d5ffd5b505050506040513d601f19601f820116820180604052508101906103e891906108aa565b90505f8273ffffffffffffffffffffffffffffffffffffffff1663d21220a76040518163ffffffff1660e01b8152600401602060405180830381865afa158015610434573d5f803e3d5ffd5b505050506040513d601f19601f8201168201806040525081019061045891906108aa565b90508173ffffffffffffffffffffffffffffffffffffffff166370a08231876040518263ffffffff1660e01b81526004016104939190610a43565b602060405180830381865afa1580156104ae573d5f803e3d5ffd5b505050506040513d601f19601f820116820180604052508101906104d29190610a70565b94508073ffffffffffffffffffffffffffffffffffffffff166370a08231876040518263ffffffff1660e01b815260040161050d9190610a43565b602060405180830381865afa158015610528573d5f803e3d5ffd5b505050506040513d601f19601f8201168201806040525081019061054c9190610a70565b9350505050915091565b6105d0838473ffffffffffffffffffffffffffffffffffffffff1663a9059cbb8585604051602401610589929190610a9b565b604051602081830303815290604052915060e01b6020820180517bffffffffffffffffffffffffffffffffffffffffffffffffffffffff83818316178352505050506106b9565b505050565b5f808411610618576040517f08c379a000000000000000000000000000000000000000000000000000000000815260040161060f90610b32565b60405180910390fd5b5f8311801561062657505f82115b610665576040517f08c379a000000000000000000000000000000000000000000000000000000000815260040161065c90610bc0565b60405180910390fd5b5f6103e5856106749190610c0b565b90505f83826106839190610c0b565b90505f826103e8876106959190610c0b565b61069f9190610c4c565b905080826106ad9190610cac565b93505050509392505050565b5f8060205f8451602086015f885af1806106d8576040513d5f823e3d81fd5b3d92505f519150505f82146106f157600181141561070c565b5f8473ffffffffffffffffffffffffffffffffffffffff163b145b1561074e57836040517f5274afe70000000000000000000000000000000000000000000000000000000081526004016107459190610a43565b60405180910390fd5b50505050565b5f80fd5b5f73ffffffffffffffffffffffffffffffffffffffff82169050919050565b5f61078182610758565b9050919050565b61079181610777565b811461079b575f80fd5b50565b5f813590506107ac81610788565b92915050565b5f819050919050565b6107c4816107b2565b81146107ce575f80fd5b50565b5f813590506107df816107bb565b92915050565b5f805f606084860312156107fc576107fb610754565b5b5f6108098682870161079e565b935050602061081a8682870161079e565b925050604061082b868287016107d1565b9150509250925092565b5f6020828403121561084a57610849610754565b5b5f6108578482850161079e565b91505092915050565b610869816107b2565b82525050565b5f6040820190506108825f830185610860565b61088f6020830184610860565b9392505050565b5f815190506108a481610788565b92915050565b5f602082840312156108bf576108be610754565b5b5f6108cc84828501610896565b91505092915050565b5f82825260208201905092915050565b7f4e6f20746f6b656e20696e2070616972000000000000000000000000000000005f82015250565b5f6109196010836108d5565b9150610924826108e5565b602082019050919050565b5f6020820190508181035f8301526109468161090d565b9050919050565b7f4e487b71000000000000000000000000000000000000000000000000000000005f52604160045260245ffd5b61098381610777565b82525050565b5f81519050919050565b5f82825260208201905092915050565b8281835e5f83830152505050565b5f601f19601f8301169050919050565b5f6109cb82610989565b6109d58185610993565b93506109e58185602086016109a3565b6109ee816109b1565b840191505092915050565b5f608082019050610a0c5f830187610860565b610a196020830186610860565b610a26604083018561097a565b8181036060830152610a3881846109c1565b905095945050505050565b5f602082019050610a565f83018461097a565b92915050565b5f81519050610a6a816107bb565b92915050565b5f60208284031215610a8557610a84610754565b5b5f610a9284828501610a5c565b91505092915050565b5f604082019050610aae5f83018561097a565b610abb6020830184610860565b9392505050565b7f556e697377617056324c6962726172793a20494e53554646494349454e545f495f8201527f4e5055545f414d4f554e54000000000000000000000000000000000000000000602082015250565b5f610b1c602b836108d5565b9150610b2782610ac2565b604082019050919050565b5f6020820190508181035f830152610b4981610b10565b9050919050565b7f556e697377617056324c6962726172793a20494e53554646494349454e545f4c5f8201527f4951554944495459000000000000000000000000000000000000000000000000602082015250565b5f610baa6028836108d5565b9150610bb582610b50565b604082019050919050565b5f6020820190508181035f830152610bd781610b9e565b9050919050565b7f4e487b71000000000000000000000000000000000000000000000000000000005f52601160045260245ffd5b5f610c15826107b2565b9150610c20836107b2565b9250828202610c2e816107b2565b91508282048414831517610c4557610c44610bde565b5b5092915050565b5f610c56826107b2565b9150610c61836107b2565b9250828201905080821115610c7957610c78610bde565b5b92915050565b7f4e487b71000000000000000000000000000000000000000000000000000000005f52601260045260245ffd5b5f610cb6826107b2565b9150610cc1836107b2565b925082610cd157610cd0610c7f565b5b82820490509291505056fea2646970667358221220f9a8ac423a8e1dc8c8bf623710f10524c972c9adab17cc6f577ff7f9e8044e5064736f6c634300081a0033",
			"opcodes": "PUSH1 0x80 PUSH1 0x40 MSTORE CALLVALUE DUP1 ISZERO PUSH1 0xE JUMPI PUSH0 DUP1 REVERT JUMPDEST POP PUSH2 0xD12 DUP1 PUSH2 0x1C PUSH0 CODECOPY PUSH0 RETURN INVALID PUSH1 0x80 PUSH1 0x40 MSTORE CALLVALUE DUP1 ISZERO PUSH2 0xF JUMPI PUSH0 DUP1 REVERT JUMPDEST POP PUSH1 0x4 CALLDATASIZE LT PUSH2 0x34 JUMPI PUSH0 CALLDATALOAD PUSH1 0xE0 SHR DUP1 PUSH4 0xDF791E50 EQ PUSH2 0x38 JUMPI DUP1 PUSH4 0xEC0A63D8 EQ PUSH2 0x54 JUMPI JUMPDEST PUSH0 DUP1 REVERT JUMPDEST PUSH2 0x52 PUSH1 0x4 DUP1 CALLDATASIZE SUB DUP2 ADD SWAP1 PUSH2 0x4D SWAP2 SWAP1 PUSH2 0x7E5 JUMP JUMPDEST PUSH2 0x85 JUMP JUMPDEST STOP JUMPDEST PUSH2 0x6E PUSH1 0x4 DUP1 CALLDATASIZE SUB DUP2 ADD SWAP1 PUSH2 0x69 SWAP2 SWAP1 PUSH2 0x835 JUMP JUMPDEST PUSH2 0x374 JUMP JUMPDEST PUSH1 0x40 MLOAD PUSH2 0x7C SWAP3 SWAP2 SWAP1 PUSH2 0x86F JUMP JUMPDEST PUSH1 0x40 MLOAD DUP1 SWAP2 SUB SWAP1 RETURN JUMPDEST PUSH0 DUP4 SWAP1 POP PUSH0 DUP2 PUSH20 0xFFFFFFFFFFFFFFFFFFFFFFFFFFFFFFFFFFFFFFFF AND PUSH4 0xDFE1681 PUSH1 0x40 MLOAD DUP2 PUSH4 0xFFFFFFFF AND PUSH1 0xE0 SHL DUP2 MSTORE PUSH1 0x4 ADD PUSH1 0x20 PUSH1 0x40 MLOAD DUP1 DUP4 SUB DUP2 DUP7 GAS STATICCALL ISZERO DUP1 ISZERO PUSH2 0xD3 JUMPI RETURNDATASIZE PUSH0 DUP1 RETURNDATACOPY RETURNDATASIZE PUSH0 REVERT JUMPDEST POP POP POP POP PUSH1 0x40 MLOAD RETURNDATASIZE PUSH1 0x1F NOT PUSH1 0x1F DUP3 ADD AND DUP3 ADD DUP1 PUSH1 0x40 MSTORE POP DUP2 ADD SWAP1 PUSH2 0xF7 SWAP2 SWAP1 PUSH2 0x8AA JUMP JUMPDEST SWAP1 POP PUSH0 DUP3 PUSH20 0xFFFFFFFFFFFFFFFFFFFFFFFFFFFFFFFFFFFFFFFF AND PUSH4 0xD21220A7 PUSH1 0x40 MLOAD DUP2 PUSH4 0xFFFFFFFF AND PUSH1 0xE0 SHL DUP2 MSTORE PUSH1 0x4 ADD PUSH1 0x20 PUSH1 0x40 MLOAD DUP1 DUP4 SUB DUP2 DUP7 GAS STATICCALL ISZERO DUP1 ISZERO PUSH2 0x143 JUMPI RETURNDATASIZE PUSH0 DUP1 RETURNDATACOPY RETURNDATASIZE PUSH0 REVERT JUMPDEST POP POP POP POP PUSH1 0x40 MLOAD RETURNDATASIZE PUSH1 0x1F NOT PUSH1 0x1F DUP3 ADD AND DUP3 ADD DUP1 PUSH1 0x40 MSTORE POP DUP2 ADD SWAP1 PUSH2 0x167 SWAP2 SWAP1 PUSH2 0x8AA JUMP JUMPDEST SWAP1 POP PUSH0 DUP1 PUSH2 0x174 DUP9 PUSH2 0x374 JUMP JUMPDEST SWAP2 POP SWAP2 POP DUP4 PUSH20 0xFFFFFFFFFFFFFFFFFFFFFFFFFFFFFFFFFFFFFFFF AND DUP8 PUSH20 0xFFFFFFFFFFFFFFFFFFFFFFFFFFFFFFFFFFFFFFFF AND EQ DUP1 PUSH2 0x1DD JUMPI POP DUP3 PUSH20 0xFFFFFFFFFFFFFFFFFFFFFFFFFFFFFFFFFFFFFFFF AND DUP8 PUSH20 0xFFFFFFFFFFFFFFFFFFFFFFFFFFFFFFFFFFFFFFFF AND EQ JUMPDEST PUSH2 0x21C JUMPI PUSH1 0x40 MLOAD PUSH32 0x8C379A000000000000000000000000000000000000000000000000000000000 DUP2 MSTORE PUSH1 0x4 ADD PUSH2 0x213 SWAP1 PUSH2 0x92F JUMP JUMPDEST PUSH1 0x40 MLOAD DUP1 SWAP2 SUB SWAP1 REVERT JUMPDEST PUSH0 DUP5 PUSH20 0xFFFFFFFFFFFFFFFFFFFFFFFFFFFFFFFFFFFFFFFF AND DUP9 PUSH20 0xFFFFFFFFFFFFFFFFFFFFFFFFFFFFFFFFFFFFFFFF AND EQ PUSH2 0x256 JUMPI PUSH0 PUSH2 0x259 JUMP JUMPDEST PUSH1 0x1 JUMPDEST SWAP1 POP PUSH2 0x286 DUP10 DUP9 DUP11 PUSH20 0xFFFFFFFFFFFFFFFFFFFFFFFFFFFFFFFFFFFFFFFF AND PUSH2 0x556 SWAP1 SWAP3 SWAP2 SWAP1 PUSH4 0xFFFFFFFF AND JUMP JUMPDEST PUSH0 DUP1 DUP3 PUSH2 0x29E JUMPI PUSH2 0x298 DUP10 DUP6 DUP8 PUSH2 0x5D5 JUMP JUMPDEST PUSH0 PUSH2 0x2AB JUMP JUMPDEST PUSH0 PUSH2 0x2AA DUP11 DUP8 DUP8 PUSH2 0x5D5 JUMP JUMPDEST JUMPDEST SWAP2 POP SWAP2 POP DUP11 PUSH20 0xFFFFFFFFFFFFFFFFFFFFFFFFFFFFFFFFFFFFFFFF AND PUSH4 0x22C0D9F DUP4 DUP4 ADDRESS PUSH0 PUSH8 0xFFFFFFFFFFFFFFFF DUP2 GT ISZERO PUSH2 0x2E8 JUMPI PUSH2 0x2E7 PUSH2 0x94D JUMP JUMPDEST JUMPDEST PUSH1 0x40 MLOAD SWAP1 DUP1 DUP3 MSTORE DUP1 PUSH1 0x1F ADD PUSH1 0x1F NOT AND PUSH1 0x20 ADD DUP3 ADD PUSH1 0x40 MSTORE DUP1 ISZERO PUSH2 0x31A JUMPI DUP2 PUSH1 0x20 ADD PUSH1 0x1 DUP3 MUL DUP1 CALLDATASIZE DUP4 CALLDATACOPY DUP1 DUP3 ADD SWAP2 POP POP SWAP1 POP JUMPDEST POP PUSH1 0x40 MLOAD DUP6 PUSH4 0xFFFFFFFF AND PUSH1 0xE0 SHL DUP2 MSTORE PUSH1 0x4 ADD PUSH2 0x33A SWAP5 SWAP4 SWAP3 SWAP2 SWAP1 PUSH2 0x9F9 JUMP JUMPDEST PUSH0 PUSH1 0x40 MLOAD DUP1 DUP4 SUB DUP2 PUSH0 DUP8 DUP1 EXTCODESIZE ISZERO DUP1 ISZERO PUSH2 0x351 JUMPI PUSH0 DUP1 REVERT JUMPDEST POP GAS CALL ISZERO DUP1 ISZERO PUSH2 0x363 JUMPI RETURNDATASIZE PUSH0 DUP1 RETURNDATACOPY RETURNDATASIZE PUSH0 REVERT JUMPDEST POP POP POP POP POP POP POP POP POP POP POP POP POP POP POP JUMP JUMPDEST PUSH0 DUP1 PUSH0 DUP4 SWAP1 POP PUSH0 DUP2 PUSH20 0xFFFFFFFFFFFFFFFFFFFFFFFFFFFFFFFFFFFFFFFF AND PUSH4 0xDFE1681 PUSH1 0x40 MLOAD DUP2 PUSH4 0xFFFFFFFF AND PUSH1 0xE0 SHL DUP2 MSTORE PUSH1 0x4 ADD PUSH1 0x20 PUSH1 0x40 MLOAD DUP1 DUP4 SUB DUP2 DUP7 GAS STATICCALL ISZERO DUP1 ISZERO PUSH2 0x3C4 JUMPI RETURNDATASIZE PUSH0 DUP1 RETURNDATACOPY RETURNDATASIZE PUSH0 REVERT JUMPDEST POP POP POP POP PUSH1 0x40 MLOAD RETURNDATASIZE PUSH1 0x1F NOT PUSH1 0x1F DUP3 ADD AND DUP3 ADD DUP1 PUSH1 0x40 MSTORE POP DUP2 ADD SWAP1 PUSH2 0x3E8 SWAP2 SWAP1 PUSH2 0x8AA JUMP JUMPDEST SWAP1 POP PUSH0 DUP3 PUSH20 0xFFFFFFFFFFFFFFFFFFFFFFFFFFFFFFFFFFFFFFFF AND PUSH4 0xD21220A7 PUSH1 0x40 MLOAD DUP2 PUSH4 0xFFFFFFFF AND PUSH1 0xE0 SHL DUP2 MSTORE PUSH1 0x4 ADD PUSH1 0x20 PUSH1 0x40 MLOAD DUP1 DUP4 SUB DUP2 DUP7 GAS STATICCALL ISZERO DUP1 ISZERO PUSH2 0x434 JUMPI RETURNDATASIZE PUSH0 DUP1 RETURNDATACOPY RETURNDATASIZE PUSH0 REVERT JUMPDEST POP POP POP POP PUSH1 0x40 MLOAD RETURNDATASIZE PUSH1 0x1F NOT PUSH1 0x1F DUP3 ADD AND DUP3 ADD DUP1 PUSH1 0x40 MSTORE POP DUP2 ADD SWAP1 PUSH2 0x458 SWAP2 SWAP1 PUSH2 0x8AA JUMP JUMPDEST SWAP1 POP DUP2 PUSH20 0xFFFFFFFFFFFFFFFFFFFFFFFFFFFFFFFFFFFFFFFF AND PUSH4 0x70A08231 DUP8 PUSH1 0x40 MLOAD DUP3 PUSH4 0xFFFFFFFF AND PUSH1 0xE0 SHL DUP2 MSTORE PUSH1 0x4 ADD PUSH2 0x493 SWAP2 SWAP1 PUSH2 0xA43 JUMP JUMPDEST PUSH1 0x20 PUSH1 0x40 MLOAD DUP1 DUP4 SUB DUP2 DUP7 GAS STATICCALL ISZERO DUP1 ISZERO PUSH2 0x4AE JUMPI RETURNDATASIZE PUSH0 DUP1 RETURNDATACOPY RETURNDATASIZE PUSH0 REVERT JUMPDEST POP POP POP POP PUSH1 0x40 MLOAD RETURNDATASIZE PUSH1 0x1F NOT PUSH1 0x1F DUP3 ADD AND DUP3 ADD DUP1 PUSH1 0x40 MSTORE POP DUP2 ADD SWAP1 PUSH2 0x4D2 SWAP2 SWAP1 PUSH2 0xA70 JUMP JUMPDEST SWAP5 POP DUP1 PUSH20 0xFFFFFFFFFFFFFFFFFFFFFFFFFFFFFFFFFFFFFFFF AND PUSH4 0x70A08231 DUP8 PUSH1 0x40 MLOAD DUP3 PUSH4 0xFFFFFFFF AND PUSH1 0xE0 SHL DUP2 MSTORE PUSH1 0x4 ADD PUSH2 0x50D SWAP2 SWAP1 PUSH2 0xA43 JUMP JUMPDEST PUSH1 0x20 PUSH1 0x40 MLOAD DUP1 DUP4 SUB DUP2 DUP7 GAS STATICCALL ISZERO DUP1 ISZERO PUSH2 0x528 JUMPI RETURNDATASIZE PUSH0 DUP1 RETURNDATACOPY RETURNDATASIZE PUSH0 REVERT JUMPDEST POP POP POP POP PUSH1 0x40 MLOAD RETURNDATASIZE PUSH1 0x1F NOT PUSH1 0x1F DUP3 ADD AND DUP3 ADD DUP1 PUSH1 0x40 MSTORE POP DUP2 ADD SWAP1 PUSH2 0x54C SWAP2 SWAP1 PUSH2 0xA70 JUMP JUMPDEST SWAP4 POP POP POP POP SWAP2 POP SWAP2 JUMP JUMPDEST PUSH2 0x5D0 DUP4 DUP5 PUSH20 0xFFFFFFFFFFFFFFFFFFFFFFFFFFFFFFFFFFFFFFFF AND PUSH4 0xA9059CBB DUP6 DUP6 PUSH1 0x40 MLOAD PUSH1 0x24 ADD PUSH2 0x589 SWAP3 SWAP2 SWAP1 PUSH2 0xA9B JUMP JUMPDEST PUSH1 0x40 MLOAD PUSH1 0x20 DUP2 DUP4 SUB SUB DUP2 MSTORE SWAP1 PUSH1 0x40 MSTORE SWAP2 POP PUSH1 0xE0 SHL PUSH1 0x20 DUP3 ADD DUP1 MLOAD PUSH28 0xFFFFFFFFFFFFFFFFFFFFFFFFFFFFFFFFFFFFFFFFFFFFFFFFFFFFFFFF DUP4 DUP2 DUP4 AND OR DUP4 MSTORE POP POP POP POP PUSH2 0x6B9 JUMP JUMPDEST POP POP POP JUMP JUMPDEST PUSH0 DUP1 DUP5 GT PUSH2 0x618 JUMPI PUSH1 0x40 MLOAD PUSH32 0x8C379A000000000000000000000000000000000000000000000000000000000 DUP2 MSTORE PUSH1 0x4 ADD PUSH2 0x60F SWAP1 PUSH2 0xB32 JUMP JUMPDEST PUSH1 0x40 MLOAD DUP1 SWAP2 SUB SWAP1 REVERT JUMPDEST PUSH0 DUP4 GT DUP1 ISZERO PUSH2 0x626 JUMPI POP PUSH0 DUP3 GT JUMPDEST PUSH2 0x665 JUMPI PUSH1 0x40 MLOAD PUSH32 0x8C379A000000000000000000000000000000000000000000000000000000000 DUP2 MSTORE PUSH1 0x4 ADD PUSH2 0x65C SWAP1 PUSH2 0xBC0 JUMP JUMPDEST PUSH1 0x40 MLOAD DUP1 SWAP2 SUB SWAP1 REVERT JUMPDEST PUSH0 PUSH2 0x3E5 DUP6 PUSH2 0x674 SWAP2 SWAP1 PUSH2 0xC0B JUMP JUMPDEST SWAP1 POP PUSH0 DUP4 DUP3 PUSH2 0x683 SWAP2 SWAP1 PUSH2 0xC0B JUMP JUMPDEST SWAP1 POP PUSH0 DUP3 PUSH2 0x3E8 DUP8 PUSH2 0x695 SWAP2 SWAP1 PUSH2 0xC0B JUMP JUMPDEST PUSH2 0x69F SWAP2 SWAP1 PUSH2 0xC4C JUMP JUMPDEST SWAP1 POP DUP1 DUP3 PUSH2 0x6AD SWAP2 SWAP1 PUSH2 0xCAC JUMP JUMPDEST SWAP4 POP POP POP POP SWAP4 SWAP3 POP POP POP JUMP JUMPDEST PUSH0 DUP1 PUSH1 0x20 PUSH0 DUP5 MLOAD PUSH1 0x20 DUP7 ADD PUSH0 DUP9 GAS CALL DUP1 PUSH2 0x6D8 JUMPI PUSH1 0x40 MLOAD RETURNDATASIZE PUSH0 DUP3 RETURNDATACOPY RETURNDATASIZE DUP2 REVERT JUMPDEST RETURNDATASIZE SWAP3 POP PUSH0 MLOAD SWAP2 POP POP PUSH0 DUP3 EQ PUSH2 0x6F1 JUMPI PUSH1 0x1 DUP2 EQ ISZERO PUSH2 0x70C JUMP JUMPDEST PUSH0 DUP5 PUSH20 0xFFFFFFFFFFFFFFFFFFFFFFFFFFFFFFFFFFFFFFFF AND EXTCODESIZE EQ JUMPDEST ISZERO PUSH2 0x74E JUMPI DUP4 PUSH1 0x40 MLOAD PUSH32 0x5274AFE700000000000000000000000000000000000000000000000000000000 DUP2 MSTORE PUSH1 0x4 ADD PUSH2 0x745 SWAP2 SWAP1 PUSH2 0xA43 JUMP JUMPDEST PUSH1 0x40 MLOAD DUP1 SWAP2 SUB SWAP1 REVERT JUMPDEST POP POP POP POP JUMP JUMPDEST PUSH0 DUP1 REVERT JUMPDEST PUSH0 PUSH20 0xFFFFFFFFFFFFFFFFFFFFFFFFFFFFFFFFFFFFFFFF DUP3 AND SWAP1 POP SWAP2 SWAP1 POP JUMP JUMPDEST PUSH0 PUSH2 0x781 DUP3 PUSH2 0x758 JUMP JUMPDEST SWAP1 POP SWAP2 SWAP1 POP JUMP JUMPDEST PUSH2 0x791 DUP2 PUSH2 0x777 JUMP JUMPDEST DUP2 EQ PUSH2 0x79B JUMPI PUSH0 DUP1 REVERT JUMPDEST POP JUMP JUMPDEST PUSH0 DUP2 CALLDATALOAD SWAP1 POP PUSH2 0x7AC DUP2 PUSH2 0x788 JUMP JUMPDEST SWAP3 SWAP2 POP POP JUMP JUMPDEST PUSH0 DUP2 SWAP1 POP SWAP2 SWAP1 POP JUMP JUMPDEST PUSH2 0x7C4 DUP2 PUSH2 0x7B2 JUMP JUMPDEST DUP2 EQ PUSH2 0x7CE JUMPI PUSH0 DUP1 REVERT JUMPDEST POP JUMP JUMPDEST PUSH0 DUP2 CALLDATALOAD SWAP1 POP PUSH2 0x7DF DUP2 PUSH2 0x7BB JUMP JUMPDEST SWAP3 SWAP2 POP POP JUMP JUMPDEST PUSH0 DUP1 PUSH0 PUSH1 0x60 DUP5 DUP7 SUB SLT ISZERO PUSH2 0x7FC JUMPI PUSH2 0x7FB PUSH2 0x754 JUMP JUMPDEST JUMPDEST PUSH0 PUSH2 0x809 DUP7 DUP3 DUP8 ADD PUSH2 0x79E JUMP JUMPDEST SWAP4 POP POP PUSH1 0x20 PUSH2 0x81A DUP7 DUP3 DUP8 ADD PUSH2 0x79E JUMP JUMPDEST SWAP3 POP POP PUSH1 0x40 PUSH2 0x82B DUP7 DUP3 DUP8 ADD PUSH2 0x7D1 JUMP JUMPDEST SWAP2 POP POP SWAP3 POP SWAP3 POP SWAP3 JUMP JUMPDEST PUSH0 PUSH1 0x20 DUP3 DUP5 SUB SLT ISZERO PUSH2 0x84A JUMPI PUSH2 0x849 PUSH2 0x754 JUMP JUMPDEST JUMPDEST PUSH0 PUSH2 0x857 DUP5 DUP3 DUP6 ADD PUSH2 0x79E JUMP JUMPDEST SWAP2 POP POP SWAP3 SWAP2 POP POP JUMP JUMPDEST PUSH2 0x869 DUP2 PUSH2 0x7B2 JUMP JUMPDEST DUP3 MSTORE POP POP JUMP JUMPDEST PUSH0 PUSH1 0x40 DUP3 ADD SWAP1 POP PUSH2 0x882 PUSH0 DUP4 ADD DUP6 PUSH2 0x860 JUMP JUMPDEST PUSH2 0x88F PUSH1 0x20 DUP4 ADD DUP5 PUSH2 0x860 JUMP JUMPDEST SWAP4 SWAP3 POP POP POP JUMP JUMPDEST PUSH0 DUP2 MLOAD SWAP1 POP PUSH2 0x8A4 DUP2 PUSH2 0x788 JUMP JUMPDEST SWAP3 SWAP2 POP POP JUMP JUMPDEST PUSH0 PUSH1 0x20 DUP3 DUP5 SUB SLT ISZERO PUSH2 0x8BF JUMPI PUSH2 0x8BE PUSH2 0x754 JUMP JUMPDEST JUMPDEST PUSH0 PUSH2 0x8CC DUP5 DUP3 DUP6 ADD PUSH2 0x896 JUMP JUMPDEST SWAP2 POP POP SWAP3 SWAP2 POP POP JUMP JUMPDEST PUSH0 DUP3 DUP3 MSTORE PUSH1 0x20 DUP3 ADD SWAP1 POP SWAP3 SWAP2 POP POP JUMP JUMPDEST PUSH32 0x4E6F20746F6B656E20696E207061697200000000000000000000000000000000 PUSH0 DUP3 ADD MSTORE POP JUMP JUMPDEST PUSH0 PUSH2 0x919 PUSH1 0x10 DUP4 PUSH2 0x8D5 JUMP JUMPDEST SWAP2 POP PUSH2 0x924 DUP3 PUSH2 0x8E5 JUMP JUMPDEST PUSH1 0x20 DUP3 ADD SWAP1 POP SWAP2 SWAP1 POP JUMP JUMPDEST PUSH0 PUSH1 0x20 DUP3 ADD SWAP1 POP DUP2 DUP2 SUB PUSH0 DUP4 ADD MSTORE PUSH2 0x946 DUP2 PUSH2 0x90D JUMP JUMPDEST SWAP1 POP SWAP2 SWAP1 POP JUMP JUMPDEST PUSH32 0x4E487B7100000000000000000000000000000000000000000000000000000000 PUSH0 MSTORE PUSH1 0x41 PUSH1 0x4 MSTORE PUSH1 0x24 PUSH0 REVERT JUMPDEST PUSH2 0x983 DUP2 PUSH2 0x777 JUMP JUMPDEST DUP3 MSTORE POP POP JUMP JUMPDEST PUSH0 DUP2 MLOAD SWAP1 POP SWAP2 SWAP1 POP JUMP JUMPDEST PUSH0 DUP3 DUP3 MSTORE PUSH1 0x20 DUP3 ADD SWAP1 POP SWAP3 SWAP2 POP POP JUMP JUMPDEST DUP3 DUP2 DUP4 MCOPY PUSH0 DUP4 DUP4 ADD MSTORE POP POP POP JUMP JUMPDEST PUSH0 PUSH1 0x1F NOT PUSH1 0x1F DUP4 ADD AND SWAP1 POP SWAP2 SWAP1 POP JUMP JUMPDEST PUSH0 PUSH2 0x9CB DUP3 PUSH2 0x989 JUMP JUMPDEST PUSH2 0x9D5 DUP2 DUP6 PUSH2 0x993 JUMP JUMPDEST SWAP4 POP PUSH2 0x9E5 DUP2 DUP6 PUSH1 0x20 DUP7 ADD PUSH2 0x9A3 JUMP JUMPDEST PUSH2 0x9EE DUP2 PUSH2 0x9B1 JUMP JUMPDEST DUP5 ADD SWAP2 POP POP SWAP3 SWAP2 POP POP JUMP JUMPDEST PUSH0 PUSH1 0x80 DUP3 ADD SWAP1 POP PUSH2 0xA0C PUSH0 DUP4 ADD DUP8 PUSH2 0x860 JUMP JUMPDEST PUSH2 0xA19 PUSH1 0x20 DUP4 ADD DUP7 PUSH2 0x860 JUMP JUMPDEST PUSH2 0xA26 PUSH1 0x40 DUP4 ADD DUP6 PUSH2 0x97A JUMP JUMPDEST DUP2 DUP2 SUB PUSH1 0x60 DUP4 ADD MSTORE PUSH2 0xA38 DUP2 DUP5 PUSH2 0x9C1 JUMP JUMPDEST SWAP1 POP SWAP6 SWAP5 POP POP POP POP POP JUMP JUMPDEST PUSH0 PUSH1 0x20 DUP3 ADD SWAP1 POP PUSH2 0xA56 PUSH0 DUP4 ADD DUP5 PUSH2 0x97A JUMP JUMPDEST SWAP3 SWAP2 POP POP JUMP JUMPDEST PUSH0 DUP2 MLOAD SWAP1 POP PUSH2 0xA6A DUP2 PUSH2 0x7BB JUMP JUMPDEST SWAP3 SWAP2 POP POP JUMP JUMPDEST PUSH0 PUSH1 0x20 DUP3 DUP5 SUB SLT ISZERO PUSH2 0xA85 JUMPI PUSH2 0xA84 PUSH2 0x754 JUMP JUMPDEST JUMPDEST PUSH0 PUSH2 0xA92 DUP5 DUP3 DUP6 ADD PUSH2 0xA5C JUMP JUMPDEST SWAP2 POP POP SWAP3 SWAP2 POP POP JUMP JUMPDEST PUSH0 PUSH1 0x40 DUP3 ADD SWAP1 POP PUSH2 0xAAE PUSH0 DUP4 ADD DUP6 PUSH2 0x97A JUMP JUMPDEST PUSH2 0xABB PUSH1 0x20 DUP4 ADD DUP5 PUSH2 0x860 JUMP JUMPDEST SWAP4 SWAP3 POP POP POP JUMP JUMPDEST PUSH32 0x556E697377617056324C6962726172793A20494E53554646494349454E545F49 PUSH0 DUP3 ADD MSTORE PUSH32 0x4E5055545F414D4F554E54000000000000000000000000000000000000000000 PUSH1 0x20 DUP3 ADD MSTORE POP JUMP JUMPDEST PUSH0 PUSH2 0xB1C PUSH1 0x2B DUP4 PUSH2 0x8D5 JUMP JUMPDEST SWAP2 POP PUSH2 0xB27 DUP3 PUSH2 0xAC2 JUMP JUMPDEST PUSH1 0x40 DUP3 ADD SWAP1 POP SWAP2 SWAP1 POP JUMP JUMPDEST PUSH0 PUSH1 0x20 DUP3 ADD SWAP1 POP DUP2 DUP2 SUB PUSH0 DUP4 ADD MSTORE PUSH2 0xB49 DUP2 PUSH2 0xB10 JUMP JUMPDEST SWAP1 POP SWAP2 SWAP1 POP JUMP JUMPDEST PUSH32 0x556E697377617056324C6962726172793A20494E53554646494349454E545F4C PUSH0 DUP3 ADD MSTORE PUSH32 0x4951554944495459000000000000000000000000000000000000000000000000 PUSH1 0x20 DUP3 ADD MSTORE POP JUMP JUMPDEST PUSH0 PUSH2 0xBAA PUSH1 0x28 DUP4 PUSH2 0x8D5 JUMP JUMPDEST SWAP2 POP PUSH2 0xBB5 DUP3 PUSH2 0xB50 JUMP JUMPDEST PUSH1 0x40 DUP3 ADD SWAP1 POP SWAP2 SWAP1 POP JUMP JUMPDEST PUSH0 PUSH1 0x20 DUP3 ADD SWAP1 POP DUP2 DUP2 SUB PUSH0 DUP4 ADD MSTORE PUSH2 0xBD7 DUP2 PUSH2 0xB9E JUMP JUMPDEST SWAP1 POP SWAP2 SWAP1 POP JUMP JUMPDEST PUSH32 0x4E487B7100000000000000000000000000000000000000000000000000000000 PUSH0 MSTORE PUSH1 0x11 PUSH1 0x4 MSTORE PUSH1 0x24 PUSH0 REVERT JUMPDEST PUSH0 PUSH2 0xC15 DUP3 PUSH2 0x7B2 JUMP JUMPDEST SWAP2 POP PUSH2 0xC20 DUP4 PUSH2 0x7B2 JUMP JUMPDEST SWAP3 POP DUP3 DUP3 MUL PUSH2 0xC2E DUP2 PUSH2 0x7B2 JUMP JUMPDEST SWAP2 POP DUP3 DUP3 DIV DUP5 EQ DUP4 ISZERO OR PUSH2 0xC45 JUMPI PUSH2 0xC44 PUSH2 0xBDE JUMP JUMPDEST JUMPDEST POP SWAP3 SWAP2 POP POP JUMP JUMPDEST PUSH0 PUSH2 0xC56 DUP3 PUSH2 0x7B2 JUMP JUMPDEST SWAP2 POP PUSH2 0xC61 DUP4 PUSH2 0x7B2 JUMP JUMPDEST SWAP3 POP DUP3 DUP3 ADD SWAP1 POP DUP1 DUP3 GT ISZERO PUSH2 0xC79 JUMPI PUSH2 0xC78 PUSH2 0xBDE JUMP JUMPDEST JUMPDEST SWAP3 SWAP2 POP POP JUMP JUMPDEST PUSH32 0x4E487B7100000000000000000000000000000000000000000000000000000000 PUSH0 MSTORE PUSH1 0x12 PUSH1 0x4 MSTORE PUSH1 0x24 PUSH0 REVERT JUMPDEST PUSH0 PUSH2 0xCB6 DUP3 PUSH2 0x7B2 JUMP JUMPDEST SWAP2 POP PUSH2 0xCC1 DUP4 PUSH2 0x7B2 JUMP JUMPDEST SWAP3 POP DUP3 PUSH2 0xCD1 JUMPI PUSH2 0xCD0 PUSH2 0xC7F JUMP JUMPDEST JUMPDEST DUP3 DUP3 DIV SWAP1 POP SWAP3 SWAP2 POP POP JUMP INVALID LOG2 PUSH5 0x6970667358 0x22 SLT KECCAK256 0xF9 0xA8 0xAC TIMESTAMP GASPRICE DUP15 SAR 0xC8 0xC8 0xBF PUSH3 0x3710F1 SDIV 0x24 0xC9 PUSH19 0xC9ADAB17CC6F577FF7F9E8044E5064736F6C63 NUMBER STOP ADDMOD BYTE STOP CALLER "
		},
		"gasEstimates": {
			"creation": {
				"codeDepositCost": "669200",
				"executionCost": "700",
				"totalCost": "669900"
			},
			"external": {
				"getReservesV2(address)": "infinite",
				"swap(address,address,uint256)": "infinite"
			},
			"internal": {
				"getAmountIn(uint256,uint256,uint256)": "infinite",
				"getAmountOut(uint256,uint256,uint256)": "infinite"
			}
		},
		"methodIdentifiers": {
			"getReservesV2(address)": "ec0a63d8",
			"swap(address,address,uint256)": "df791e50"
		}
	},
	"abi": [
		{
			"inputs": [
				{
					"internalType": "address",
					"name": "token",
					"type": "address"
				}
			],
			"name": "SafeERC20FailedOperation",
			"type": "error"
		},
		{
			"inputs": [
				{
					"internalType": "address",
					"name": "pair",
					"type": "address"
				}
			],
			"name": "getReservesV2",
			"outputs": [
				{
					"internalType": "uint256",
					"name": "reserve0",
					"type": "uint256"
				},
				{
					"internalType": "uint256",
					"name": "reserve1",
					"type": "uint256"
				}
			],
			"stateMutability": "view",
			"type": "function"
		},
		{
			"inputs": [
				{
					"internalType": "address",
					"name": "swap_pool",
					"type": "address"
				},
				{
					"internalType": "address",
					"name": "token_in",
					"type": "address"
				},
				{
					"internalType": "uint256",
					"name": "amount_in",
					"type": "uint256"
				}
			],
			"name": "swap",
			"outputs": [],
			"stateMutability": "nonpayable",
			"type": "function"
		}
	]
}