{
	"data": {
		"bytecode": {
			"linkReferences": {},
			"object": "608060405234801561000f575f80fd5b50336040518060400160405280600d81526020017f43727970746f20426561737473000000000000000000000000000000000000008152506040518060400160405280600681526020017f4342454153540000000000000000000000000000000000000000000000000000815250816002908161008c91906104a0565b50806003908161009c91906104a0565b506100ab61017060201b60201c565b5f819055506100be61017060201b60201c565b6100cc61017460201b60201c565b10156100e9576100e863fed8210f60e01b61019b60201b60201c565b5b50505f73ffffffffffffffffffffffffffffffffffffffff168173ffffffffffffffffffffffffffffffffffffffff160361015b575f6040517f1e4fbdf700000000000000000000000000000000000000000000000000000000815260040161015291906105ae565b60405180910390fd5b61016a816101a360201b60201c565b506105c7565b5f90565b5f7fffffffffffffffffffffffffffffffffffffffffffffffffffffffffffffffff905090565b805f5260045ffd5b5f60095f9054906101000a900473ffffffffffffffffffffffffffffffffffffffff1690508160095f6101000a81548173ffffffffffffffffffffffffffffffffffffffff021916908373ffffffffffffffffffffffffffffffffffffffff1602179055508173ffffffffffffffffffffffffffffffffffffffff168173ffffffffffffffffffffffffffffffffffffffff167f8be0079c531659141344cd1fd0a4f28419497f9722a3daafe3b4186f6b6457e060405160405180910390a35050565b5f81519050919050565b7f4e487b71000000000000000000000000000000000000000000000000000000005f52604160045260245ffd5b7f4e487b71000000000000000000000000000000000000000000000000000000005f52602260045260245ffd5b5f60028204905060018216806102e157607f821691505b6020821081036102f4576102f361029d565b5b50919050565b5f819050815f5260205f209050919050565b5f6020601f8301049050919050565b5f82821b905092915050565b5f600883026103567fffffffffffffffffffffffffffffffffffffffffffffffffffffffffffffffff8261031b565b610360868361031b565b95508019841693508086168417925050509392505050565b5f819050919050565b5f819050919050565b5f6103a461039f61039a84610378565b610381565b610378565b9050919050565b5f819050919050565b6103bd8361038a565b6103d16103c9826103ab565b848454610327565b825550505050565b5f90565b6103e56103d9565b6103f08184846103b4565b505050565b5b81811015610413576104085f826103dd565b6001810190506103f6565b5050565b601f82111561045857610429816102fa565b6104328461030c565b81016020851015610441578190505b61045561044d8561030c565b8301826103f5565b50505b505050565b5f82821c905092915050565b5f6104785f198460080261045d565b1980831691505092915050565b5f6104908383610469565b9150826002028217905092915050565b6104a982610266565b67ffffffffffffffff8111156104c2576104c1610270565b5b6104cc82546102ca565b6104d7828285610417565b5f60209050601f831160018114610508575f84156104f6578287015190505b6105008582610485565b865550610567565b601f198416610516866102fa565b5f5b8281101561053d57848901518255600182019150602085019450602081019050610518565b8683101561055a5784890151610556601f891682610469565b8355505b6001600288020188555050505b505050505050565b5f73ffffffffffffffffffffffffffffffffffffffff82169050919050565b5f6105988261056f565b9050919050565b6105a88161058e565b82525050565b5f6020820190506105c15f83018461059f565b92915050565b6153ea806105d45f395ff3fe6080604052600436106101cc575f3560e01c806376294ef7116100f6578063b1def23511610094578063ccc47dec11610063578063ccc47dec1461062e578063e05c57bf1461066c578063e985e9c5146106ab578063f2fde38b146106e7576101cc565b8063b1def23514610584578063b88d4fde146105ac578063c0463711146105c8578063c87b56dd146105f2576101cc565b80638da5cb5b116100d05780638da5cb5b146104e057806395d89b411461050a578063a0712d6814610534578063a22cb4651461055c576101cc565b806376294ef7146104645780637adbf9731461048e5780637dc0d1d0146104b6576101cc565b806342842e0e1161016e5780636c9f6f291161013d5780636c9f6f29146103c05780636e762d6e146103ea57806370a0823114610412578063715018a61461044e576101cc565b806342842e0e14610312578063446ecf3f1461032e578063502f43a81461035a5780636352211e14610384576101cc565b8063095ea7b3116101aa578063095ea7b31461027257806318160ddd1461028e57806323b872dd146102b857806341c84de8146102d4576101cc565b806301ffc9a7146101d057806306fdde031461020c578063081812fc14610236575b5f80fd5b3480156101db575f80fd5b506101f660048036038101906101f191906137d7565b61070f565b604051610203919061381c565b60405180910390f35b348015610217575f80fd5b506102206107a0565b60405161022d91906138a5565b60405180910390f35b348015610241575f80fd5b5061025c600480360381019061025791906138f8565b610830565b6040516102699190613962565b60405180910390f35b61028c600480360381019061028791906139a5565b610889565b005b348015610299575f80fd5b506102a2610899565b6040516102af91906139f2565b60405180910390f35b6102d260048036038101906102cd9190613a0b565b6108e4565b005b3480156102df575f80fd5b506102fa60048036038101906102f591906138f8565b610b65565b60405161030993929190613ace565b60405180910390f35b61032c60048036038101906103279190613a0b565b610c46565b005b348015610339575f80fd5b50610342610c65565b60405161035193929190613ace565b60405180910390f35b348015610365575f80fd5b5061036e610d2a565b60405161037b91906139f2565b60405180910390f35b34801561038f575f80fd5b506103aa60048036038101906103a591906138f8565b610d30565b6040516103b79190613962565b60405180910390f35b3480156103cb575f80fd5b506103d4610d41565b6040516103e191906139f2565b60405180910390f35b3480156103f5575f80fd5b50610410600480360381019061040b91906138f8565b610d4d565b005b34801561041d575f80fd5b5061043860048036038101906104339190613b03565b610de8565b60405161044591906139f2565b60405180910390f35b348015610459575f80fd5b50610462610e7c565b005b34801561046f575f80fd5b50610478610e8f565b6040516104859190613b2e565b60405180910390f35b348015610499575f80fd5b506104b460048036038101906104af9190613b03565b610ea2565b005b3480156104c1575f80fd5b506104ca610eed565b6040516104d79190613962565b60405180910390f35b3480156104eb575f80fd5b506104f4610f12565b6040516105019190613962565b60405180910390f35b348015610515575f80fd5b5061051e610f3a565b60405161052b91906138a5565b60405180910390f35b34801561053f575f80fd5b5061055a600480360381019061055591906138f8565b610fca565b005b348015610567575f80fd5b50610582600480360381019061057d9190613b71565b61150a565b005b34801561058f575f80fd5b506105aa60048036038101906105a591906138f8565b611610565b005b6105c660048036038101906105c19190613cdb565b6118d8565b005b3480156105d3575f80fd5b506105dc611929565b6040516105e991906139f2565b60405180910390f35b3480156105fd575f80fd5b50610618600480360381019061061391906138f8565b61192f565b60405161062591906138a5565b60405180910390f35b348015610639575f80fd5b50610654600480360381019061064f91906138f8565b611c46565b60405161066393929190613ace565b60405180910390f35b348015610677575f80fd5b50610692600480360381019061068d91906138f8565b611c87565b6040516106a29493929190613d5b565b60405180910390f35b3480156106b6575f80fd5b506106d160048036038101906106cc9190613dba565b611ecb565b6040516106de919061381c565b60405180910390f35b3480156106f2575f80fd5b5061070d60048036038101906107089190613b03565b611f59565b005b5f6301ffc9a760e01b827bffffffffffffffffffffffffffffffffffffffffffffffffffffffff1916148061076957506380ac58cd60e01b827bffffffffffffffffffffffffffffffffffffffffffffffffffffffff1916145b806107995750635b5e139f60e01b827bffffffffffffffffffffffffffffffffffffffffffffffffffffffff1916145b9050919050565b6060600280546107af90613e25565b80601f01602080910402602001604051908101604052809291908181526020018280546107db90613e25565b80156108265780601f106107fd57610100808354040283529160200191610826565b820191905f5260205f20905b81548152906001019060200180831161080957829003601f168201915b5050505050905090565b5f61083a82611fdd565b61084f5761084e63cf4700e460e01b612080565b5b60065f8381526020019081526020015f205f015f9054906101000a900473ffffffffffffffffffffffffffffffffffffffff169050919050565b61089582826001612088565b5050565b5f6108a26121b2565b6001545f54030390507fffffffffffffffffffffffffffffffffffffffffffffffffffffffffffffffff6108d46121b6565b146108e157600854810190505b90565b5f6108ee826121dd565b90505f8473ffffffffffffffffffffffffffffffffffffffff169050808273ffffffffffffffffffffffffffffffffffffffff16146109385761093763a114810060e01b612080565b5b5f80610943856122ec565b9150915061096f818461095461230f565b73ffffffffffffffffffffffffffffffffffffffff16612316565b61099a576109848761097f61230f565b611ecb565b610999576109986359c896be60e01b612080565b5b5b6109a78787876001612327565b80156109b1575f82555b60055f8873ffffffffffffffffffffffffffffffffffffffff1673ffffffffffffffffffffffffffffffffffffffff1681526020019081526020015f205f8154600190039190508190555060055f8773ffffffffffffffffffffffffffffffffffffffff1673ffffffffffffffffffffffffffffffffffffffff1681526020019081526020015f205f815460010191905081905550610a7986610a5589898861232d565b7c020000000000000000000000000000000000000000000000000000000017612354565b60045f8781526020019081526020015f20819055505f7c0200000000000000000000000000000000000000000000000000000000851603610af5575f6001860190505f60045f8381526020019081526020015f205403610af3575f548114610af2578460045f8381526020019081526020015f20819055505b5b505b5f8673ffffffffffffffffffffffffffffffffffffffff1690508581857fddf252ad1be2c89b69c2b068fc378daa952ba7f163c4a11628f55a4df523b3ef5f80a45f8103610b4e57610b4d63ea553b3460e01b612080565b5b610b5b888888600161237e565b5050505050505050565b5f805f600b805490508410610baf576040517f08c379a0000000000000000000000000000000000000000000000000000000008152600401610ba690613e9f565b60405180910390fd5b5f600b8581548110610bc457610bc3613ebd565b5b905f5260205f2090600302016040518060600160405290815f8201548152602001600182015f9054906101000a900460ff166004811115610c0857610c07613a5b565b5b6004811115610c1a57610c19613a5b565b5b81526020016002820154815250509050805f015181602001518260400151935093509350509193909250565b610c6083838360405180602001604052805f8152506118d8565b505050565b5f805f80600b8054905003610c83575f600242925092509250610d25565b5f600b6001600b80549050610c989190613f17565b81548110610ca957610ca8613ebd565b5b905f5260205f2090600302016040518060600160405290815f8201548152602001600182015f9054906101000a900460ff166004811115610ced57610cec613a5b565b5b6004811115610cff57610cfe613a5b565b5b81526020016002820154815250509050805f015181602001518260400151935093509350505b909192565b600d5481565b5f610d3a826121dd565b9050919050565b5f600b80549050905090565b600e5f9054906101000a900473ffffffffffffffffffffffffffffffffffffffff1673ffffffffffffffffffffffffffffffffffffffff163373ffffffffffffffffffffffffffffffffffffffff1614610ddc576040517f08c379a0000000000000000000000000000000000000000000000000000000008152600401610dd390613f94565b60405180910390fd5b610de581611610565b50565b5f8073ffffffffffffffffffffffffffffffffffffffff168273ffffffffffffffffffffffffffffffffffffffff1603610e2d57610e2c638f4eb60460e01b612080565b5b67ffffffffffffffff60055f8473ffffffffffffffffffffffffffffffffffffffff1673ffffffffffffffffffffffffffffffffffffffff1681526020019081526020015f2054169050919050565b610e84612384565b610e8d5f61240b565b565b600e60149054906101000a900460ff1681565b610eaa612384565b80600e5f6101000a81548173ffffffffffffffffffffffffffffffffffffffff021916908373ffffffffffffffffffffffffffffffffffffffff16021790555050565b600e5f9054906101000a900473ffffffffffffffffffffffffffffffffffffffff1681565b5f60095f9054906101000a900473ffffffffffffffffffffffffffffffffffffffff16905090565b606060038054610f4990613e25565b80601f0160208091040260200160405190810160405280929190818152602001828054610f7590613e25565b8015610fc05780601f10610f9757610100808354040283529160200191610fc0565b820191905f5260205f20905b815481529060010190602001808311610fa357829003601f168201915b5050505050905090565b5f610fd36124ce565b9050610fdf33836124d6565b5f5b82811015611505575f42338385610ff89190613fb2565b60405160200161100a9392919061404a565b604051602081830303815290604052805190602001205f1c90505f8060028361103391906140b3565b14611073576040518060400160405280600481526020017f42656172000000000000000000000000000000000000000000000000000000008152506110aa565b6040518060400160405280600481526020017f42756c6c000000000000000000000000000000000000000000000000000000008152505b90505f60405180608001604052806040518060400160405280600881526020017f4f6273696469616e00000000000000000000000000000000000000000000000081525081526020016040518060400160405280600581526020017f536e6f777900000000000000000000000000000000000000000000000000000081525081526020016040518060400160405280600981526020017f466c616d65636f6174000000000000000000000000000000000000000000000081525081526020016040518060400160405280600981526020017f417a75726568696465000000000000000000000000000000000000000000000081525081525090505f60405180608001604052806040518060400160405280600781526020017f456d6572616c640000000000000000000000000000000000000000000000000081525081526020016040518060400160405280600781526020017f4372696d736f6e0000000000000000000000000000000000000000000000000081525081526020016040518060400160405280600481526020017f566f69640000000000000000000000000000000000000000000000000000000081525081526020016040518060400160405280600881526020017f536170706869726500000000000000000000000000000000000000000000000081525081525090505f60405180608001604052806040518060400160405280600b81526020017f476f6c64656e205065616b00000000000000000000000000000000000000000081525081526020016040518060400160405280600981526020017f53746f726d72697365000000000000000000000000000000000000000000000081525081526020016040518060400160405280600d81526020017f4d69646e69676874205a6f6e650000000000000000000000000000000000000081525081526020016040518060400160405280600b81526020017f41726374696320476c6f7700000000000000000000000000000000000000000081525081525090505f836004876113a391906140b3565b600481106113b4576113b3613ebd565b5b602002015190505f836004600889901c6113ce91906140b3565b600481106113df576113de613ebd565b5b602002015190505f83600460108a901c6113f991906140b3565b6004811061140a57611409613ebd565b5b602002015190505f898b61141e9190613fb2565b9050604051806080016040528089815260200185815260200184815260200183815250600c5f8c8e6114509190613fb2565b81526020019081526020015f205f820151815f0190816114709190614280565b5060208201518160010190816114869190614280565b50604082015181600201908161149c9190614280565b5060608201518160030190816114b29190614280565b509050507fbdede1f7a03f693215684f4651bfa43cb490b654df9143d39ee4b35849914ee033826040516114e792919061434f565b60405180910390a15050505050505050508080600101915050610fe1565b505050565b8060075f61151661230f565b73ffffffffffffffffffffffffffffffffffffffff1673ffffffffffffffffffffffffffffffffffffffff1681526020019081526020015f205f8473ffffffffffffffffffffffffffffffffffffffff1673ffffffffffffffffffffffffffffffffffffffff1681526020019081526020015f205f6101000a81548160ff0219169083151502179055508173ffffffffffffffffffffffffffffffffffffffff166115bf61230f565b73ffffffffffffffffffffffffffffffffffffffff167f17307eab39ab6107e8899845ad3d59bd9653f200f220920489ca2b5937696c3183604051611604919061381c565b60405180910390a35050565b611618612384565b610258600a546116289190613fb2565b42101561166a576040517f08c379a0000000000000000000000000000000000000000000000000000000008152600401611661906143c0565b60405180910390fd5b60648111156116ae576040517f08c379a00000000000000000000000000000000000000000000000000000000081526004016116a590614428565b60405180910390fd5b80600d8190555060148110156116ed575f600e60146101000a81548160ff021916908360048111156116e3576116e2613a5b565b5b02179055506117c7565b6028811015611726576001600e60146101000a81548160ff0219169083600481111561171c5761171b613a5b565b5b02179055506117c6565b603c81101561175f576002600e60146101000a81548160ff0219169083600481111561175557611754613a5b565b5b02179055506117c5565b6050811015611798576003600e60146101000a81548160ff0219169083600481111561178e5761178d613a5b565b5b02179055506117c4565b6004600e60146101000a81548160ff021916908360048111156117be576117bd613a5b565b5b02179055505b5b5b5b5f6117d06124ce565b03156118ce576117de6124f3565b600b6040518060600160405280838152602001600e60149054906101000a900460ff16600481111561181357611812613a5b565b5b815260200142815250908060018154018082558091505060019003905f5260205f2090600302015f909190919091505f820151815f01556020820151816001015f6101000a81548160ff0219169083600481111561187457611873613a5b565b5b02179055506040820151816002015550507f02c9d577b572b68c917c351fb7b06431ae28416cdd1283a61fa37f7b935c163881600e60149054906101000a900460ff166040516118c5929190614446565b60405180910390a15b42600a8190555050565b6118e38484846108e4565b5f8373ffffffffffffffffffffffffffffffffffffffff163b146119235761190d84848484612ad6565b6119225761192163d1a57ed660e01b612080565b5b5b50505050565b600a5481565b606061193a82611fdd565b611979576040517f08c379a0000000000000000000000000000000000000000000000000000000008152600401611970906144b7565b60405180910390fd5b5f600c5f8481526020019081526020015f206040518060800160405290815f820180546119a590613e25565b80601f01602080910402602001604051908101604052809291908181526020018280546119d190613e25565b8015611a1c5780601f106119f357610100808354040283529160200191611a1c565b820191905f5260205f20905b8154815290600101906020018083116119ff57829003601f168201915b50505050508152602001600182018054611a3590613e25565b80601f0160208091040260200160405190810160405280929190818152602001828054611a6190613e25565b8015611aac5780601f10611a8357610100808354040283529160200191611aac565b820191905f5260205f20905b815481529060010190602001808311611a8f57829003601f168201915b50505050508152602001600282018054611ac590613e25565b80601f0160208091040260200160405190810160405280929190818152602001828054611af190613e25565b8015611b3c5780601f10611b1357610100808354040283529160200191611b3c565b820191905f5260205f20905b815481529060010190602001808311611b1f57829003601f168201915b50505050508152602001600382018054611b5590613e25565b80601f0160208091040260200160405190810160405280929190818152602001828054611b8190613e25565b8015611bcc5780601f10611ba357610100808354040283529160200191611bcc565b820191905f5260205f20905b815481529060010190602001808311611baf57829003601f168201915b50505050508152505090505f611be182612c00565b9050611bec84612c9b565b81835f0151846020015185604001518660600151611c18600e60149054906101000a900460ff16612cea565b604051602001611c2e9796959493929190614a23565b60405160208183030381529060405292505050919050565b600b8181548110611c55575f80fd5b905f5260205f2090600302015f91509050805f015490806001015f9054906101000a900460ff16908060020154905083565b600c602052805f5260405f205f91509050805f018054611ca690613e25565b80601f0160208091040260200160405190810160405280929190818152602001828054611cd290613e25565b8015611d1d5780601f10611cf457610100808354040283529160200191611d1d565b820191905f5260205f20905b815481529060010190602001808311611d0057829003601f168201915b505050505090806001018054611d3290613e25565b80601f0160208091040260200160405190810160405280929190818152602001828054611d5e90613e25565b8015611da95780601f10611d8057610100808354040283529160200191611da9565b820191905f5260205f20905b815481529060010190602001808311611d8c57829003601f168201915b505050505090806002018054611dbe90613e25565b80601f0160208091040260200160405190810160405280929190818152602001828054611dea90613e25565b8015611e355780601f10611e0c57610100808354040283529160200191611e35565b820191905f5260205f20905b815481529060010190602001808311611e1857829003601f168201915b505050505090806003018054611e4a90613e25565b80601f0160208091040260200160405190810160405280929190818152602001828054611e7690613e25565b8015611ec15780601f10611e9857610100808354040283529160200191611ec1565b820191905f5260205f20905b815481529060010190602001808311611ea457829003601f168201915b5050505050905084565b5f60075f8473ffffffffffffffffffffffffffffffffffffffff1673ffffffffffffffffffffffffffffffffffffffff1681526020019081526020015f205f8373ffffffffffffffffffffffffffffffffffffffff1673ffffffffffffffffffffffffffffffffffffffff1681526020019081526020015f205f9054906101000a900460ff16905092915050565b611f61612384565b5f73ffffffffffffffffffffffffffffffffffffffff168173ffffffffffffffffffffffffffffffffffffffff1603611fd1575f6040517f1e4fbdf7000000000000000000000000000000000000000000000000000000008152600401611fc89190613962565b60405180910390fd5b611fda8161240b565b50565b5f81611fe76121b2565b1161207a57611ff46121b6565b82111561201c5761201560045f8481526020019081526020015f2054612f35565b905061207b565b5f54821015612079575f5b5f60045f8581526020019081526020015f205491508103612053578261204c90614b58565b9250612027565b5f7c01000000000000000000000000000000000000000000000000000000008216149150505b5b5b919050565b805f5260045ffd5b5f61209283610d30565b90508180156120d457508073ffffffffffffffffffffffffffffffffffffffff166120bb61230f565b73ffffffffffffffffffffffffffffffffffffffff1614155b15612100576120ea816120e561230f565b611ecb565b6120ff576120fe63cfb3b94260e01b612080565b5b5b8360065f8581526020019081526020015f205f015f6101000a81548173ffffffffffffffffffffffffffffffffffffffff021916908373ffffffffffffffffffffffffffffffffffffffff160217905550828473ffffffffffffffffffffffffffffffffffffffff168273ffffffffffffffffffffffffffffffffffffffff167f8c5be1e5ebec7d5bd14f71427d1e84f3dd0314c0f7b2291e5b200ac8c7c3b92560405160405180910390a450505050565b5f90565b5f7fffffffffffffffffffffffffffffffffffffffffffffffffffffffffffffffff905090565b5f816121e76121b2565b116122d65760045f8381526020019081526020015f205490506122086121b6565b82111561222d5761221881612f35565b6122e75761222c63df2d9b4260e01b612080565b5b5f81036122ae575f54821061224d5761224c63df2d9b4260e01b612080565b5b5b60045f836001900393508381526020019081526020015f205490505f8103156122a9575f7c0100000000000000000000000000000000000000000000000000000000821603156122e7576122a863df2d9b4260e01b612080565b5b61224e565b5f7c0100000000000000000000000000000000000000000000000000000000821603156122e7575b6122e663df2d9b4260e01b612080565b5b919050565b5f805f60065f8581526020019081526020015f2090508092508254915050915091565b5f33905090565b5f8382148383141790509392505050565b50505050565b5f8060e883901c905060e8612343868684612f75565b62ffffff16901b9150509392505050565b5f73ffffffffffffffffffffffffffffffffffffffff83169250814260a01b178317905092915050565b50505050565b61238c612f7d565b73ffffffffffffffffffffffffffffffffffffffff166123aa610f12565b73ffffffffffffffffffffffffffffffffffffffff1614612409576123cd612f7d565b6040517f118cdaa70000000000000000000000000000000000000000000000000000000081526004016124009190613962565b60405180910390fd5b565b5f60095f9054906101000a900473ffffffffffffffffffffffffffffffffffffffff1690508160095f6101000a81548173ffffffffffffffffffffffffffffffffffffffff021916908373ffffffffffffffffffffffffffffffffffffffff1602179055508173ffffffffffffffffffffffffffffffffffffffff168173ffffffffffffffffffffffffffffffffffffffff167f8be0079c531659141344cd1fd0a4f28419497f9722a3daafe3b4186f6b6457e060405160405180910390a35050565b5f8054905090565b6124ef828260405180602001604052805f815250612f84565b5050565b5f5b6124fd6124ce565b811015612ad3575f600c5f8381526020019081526020015f2090505f600481111561252b5761252a613a5b565b5b600e60149054906101000a900460ff16600481111561254d5761254c613a5b565b5b0361262c576040518060400160405280600581526020017f417368656e0000000000000000000000000000000000000000000000000000008152508160010190816125989190614280565b506040518060400160405280600b81526020017f44696d20456d6572616c640000000000000000000000000000000000000000008152508160020190816125df9190614280565b506040518060400160405280600781526020017f466f677665696c000000000000000000000000000000000000000000000000008152508160030190816126269190614280565b50612a7f565b600160048111156126405761263f613a5b565b5b600e60149054906101000a900460ff16600481111561266257612661613a5b565b5b03612741576040518060400160405280600681526020017f536861646f7700000000000000000000000000000000000000000000000000008152508160010190816126ad9190614280565b506040518060400160405280600c81526020017f44756c6c204372696d736f6e00000000000000000000000000000000000000008152508160020190816126f49190614280565b506040518060400160405280600d81526020017f436c6f756465642052696467650000000000000000000000000000000000000081525081600301908161273b9190614280565b50612a7e565b6002600481111561275557612754613a5b565b5b600e60149054906101000a900460ff16600481111561277757612776613a5b565b5b03612856576040518060400160405280600881526020017f4f6273696469616e0000000000000000000000000000000000000000000000008152508160010190816127c29190614280565b506040518060400160405280600781526020017f456d6572616c64000000000000000000000000000000000000000000000000008152508160020190816128099190614280565b506040518060400160405280600b81526020017f476f6c64656e205065616b0000000000000000000000000000000000000000008152508160030190816128509190614280565b50612a7d565b6003600481111561286a57612869613a5b565b5b600e60149054906101000a900460ff16600481111561288c5761288b613a5b565b5b0361296b576040518060400160405280600a81526020017f427269676874676f6c64000000000000000000000000000000000000000000008152508160010190816128d79190614280565b506040518060400160405280600d81526020017f476c6f77696e6720416d6265720000000000000000000000000000000000000081525081600201908161291e9190614280565b506040518060400160405280600e81526020017f53756e72697365205374657070650000000000000000000000000000000000008152508160030190816129659190614280565b50612a7c565b60048081111561297e5761297d613a5b565b5b600e60149054906101000a900460ff1660048111156129a05761299f613a5b565b5b03612a7b576040518060400160405280600d81526020017f52616469616e7420466c616d65000000000000000000000000000000000000008152508160010190816129eb9190614280565b506040518060400160405280601081526020017f426c617a696e6720536170706869726500000000000000000000000000000000815250816002019081612a329190614280565b506040518060400160405280600d81526020017f4175726f7261205a656e69746800000000000000000000000000000000000000815250816003019081612a799190614280565b505b5b5b5b5b7f31e58f4a957f448d548b411ba956e44a16d593eb38f50b4163d7a362faa5073a82826001018360020184600301604051612abd9493929190614c00565b60405180910390a15080806001019150506124f5565b50565b5f8373ffffffffffffffffffffffffffffffffffffffff1663150b7a02612afb61230f565b8786866040518563ffffffff1660e01b8152600401612b1d9493929190614caa565b6020604051808303815f875af1925050508015612b5857506040513d601f19601f82011682018060405250810190612b559190614d08565b60015b612bad573d805f8114612b86576040519150601f19603f3d011682016040523d82523d5f602084013e612b8b565b606091505b505f815103612ba557612ba463d1a57ed660e01b612080565b5b805181602001fd5b63150b7a0260e01b7bffffffffffffffffffffffffffffffffffffffffffffffffffffffff1916817bffffffffffffffffffffffffffffffffffffffffffffffffffffffff191614915050949350505050565b60605f612c1b600e60149054906101000a900460ff16612ffa565b90505f612c3a600e60149054906101000a900460ff16855f0151613245565b90505f612c59855f0151600e60149054906101000a900460ff166133b6565b9050828183876020015188604001518960600151604051602001612c82969594939291906152c3565b6040516020818303038152906040529350505050919050565b606060a060405101806040526020810391505f825281835b600115612cd557600184039350600a81066030018453600a8104905080612cb3575b50828103602084039350808452505050919050565b60605f6004811115612cff57612cfe613a5b565b5b826004811115612d1257612d11613a5b565b5b03612d54576040518060400160405280600c81526020017f56657279204265617269736800000000000000000000000000000000000000008152509050612f30565b60016004811115612d6857612d67613a5b565b5b826004811115612d7b57612d7a613a5b565b5b03612dbd576040518060400160405280600781526020017f42656172697368000000000000000000000000000000000000000000000000008152509050612f30565b60026004811115612dd157612dd0613a5b565b5b826004811115612de457612de3613a5b565b5b03612e26576040518060400160405280600781526020017f4e65757472616c000000000000000000000000000000000000000000000000008152509050612f30565b60036004811115612e3a57612e39613a5b565b5b826004811115612e4d57612e4c613a5b565b5b03612e8f576040518060400160405280600781526020017f42756c6c697368000000000000000000000000000000000000000000000000008152509050612f30565b600480811115612ea257612ea1613a5b565b5b826004811115612eb557612eb4613a5b565b5b03612ef7576040518060400160405280600c81526020017f566572792042756c6c69736800000000000000000000000000000000000000008152509050612f30565b6040518060400160405280600781526020017f556e6b6e6f776e0000000000000000000000000000000000000000000000000081525090505b919050565b5f7c0100000000000000000000000000000000000000000000000000000000821673ffffffffffffffffffffffffffffffffffffffff8316119050919050565b5f9392505050565b5f33905090565b612f8e8383613604565b5f8373ffffffffffffffffffffffffffffffffffffffff163b14612ff5575f805490505f83820390505b612fca5f868380600101945086612ad6565b612fdf57612fde63d1a57ed660e01b612080565b5b818110612fb857815f5414612ff2575f80fd5b50505b505050565b60605f600481111561300f5761300e613a5b565b5b82600481111561302257613021613a5b565b5b03613064576040518060400160405280600781526020017f23326333653530000000000000000000000000000000000000000000000000008152509050613240565b6001600481111561307857613077613a5b565b5b82600481111561308b5761308a613a5b565b5b036130cd576040518060400160405280600781526020017f23333434393565000000000000000000000000000000000000000000000000008152509050613240565b600260048111156130e1576130e0613a5b565b5b8260048111156130f4576130f3613a5b565b5b03613136576040518060400160405280600781526020017f23376638633864000000000000000000000000000000000000000000000000008152509050613240565b6003600481111561314a57613149613a5b565b5b82600481111561315d5761315c613a5b565b5b0361319f576040518060400160405280600781526020017f23323761653630000000000000000000000000000000000000000000000000008152509050613240565b6004808111156131b2576131b1613a5b565b5b8260048111156131c5576131c4613a5b565b5b03613207576040518060400160405280600781526020017f23326563633731000000000000000000000000000000000000000000000000008152509050613240565b6040518060400160405280600781526020017f233030303030300000000000000000000000000000000000000000000000000081525090505b919050565b606060048081111561325a57613259613a5b565b5b83600481111561326d5761326c613a5b565b5b148061329c57505f600481111561328757613286613a5b565b5b83600481111561329a57613299613a5b565b5b145b156132de576040518060400160405280600681526020017f526167696e67000000000000000000000000000000000000000000000000000081525090506133b0565b600360048111156132f2576132f1613a5b565b5b83600481111561330557613304613a5b565b5b14806133355750600160048111156133205761331f613a5b565b5b83600481111561333357613332613a5b565b5b145b15613377576040518060400160405280600881526020017f416769746174656400000000000000000000000000000000000000000000000081525090506133b0565b6040518060400160405280600481526020017f43616c6d0000000000000000000000000000000000000000000000000000000081525090505b92915050565b60607f5a1dbd6648596f258b93ca02cee0751be10a72e99a552b0c3cbafc7e216e09aa8380519060200120036134f4576004808111156133f9576133f8613a5b565b5b82600481111561340c5761340b613a5b565b5b0361344e576040518060400160405280600781526020017f42756c6c2055700000000000000000000000000000000000000000000000000081525090506135fe565b6003600481111561346257613461613a5b565b5b82600481111561347557613474613a5b565b5b036134b7576040518060400160405280600481526020017f42756c6c0000000000000000000000000000000000000000000000000000000081525090506135fe565b6040518060400160405280600c81526020017f42756c6c204e65757472616c000000000000000000000000000000000000000081525090506135fe565b5f600481111561350757613506613a5b565b5b82600481111561351a57613519613a5b565b5b0361355c576040518060400160405280600981526020017f4265617220446f776e000000000000000000000000000000000000000000000081525090506135fe565b600160048111156135705761356f613a5b565b5b82600481111561358357613582613a5b565b5b036135c5576040518060400160405280600481526020017f426561720000000000000000000000000000000000000000000000000000000081525090506135fe565b6040518060400160405280600c81526020017f42656172204e65757472616c000000000000000000000000000000000000000081525090505b92915050565b5f805490505f82036136215761362063b562e8dd60e01b612080565b5b61362d5f848385612327565b61364b8361363c5f865f61232d565b61364585613762565b17612354565b60045f8381526020019081526020015f2081905550600160406001901b17820260055f8573ffffffffffffffffffffffffffffffffffffffff1673ffffffffffffffffffffffffffffffffffffffff1681526020019081526020015f205f82825401925050819055505f8373ffffffffffffffffffffffffffffffffffffffff1690505f81036136e6576136e5632e07630060e01b612080565b5b5f83830190505f8390506136f86121b6565b600183031115613713576137126381647e3a60e01b612080565b5b5b80835f7fddf252ad1be2c89b69c2b068fc378daa952ba7f163c4a11628f55a4df523b3ef5f80a481816001019150810361371457815f8190555050505061375d5f84838561237e565b505050565b5f6001821460e11b9050919050565b5f604051905090565b5f80fd5b5f80fd5b5f7fffffffff0000000000000000000000000000000000000000000000000000000082169050919050565b6137b681613782565b81146137c0575f80fd5b50565b5f813590506137d1816137ad565b92915050565b5f602082840312156137ec576137eb61377a565b5b5f6137f9848285016137c3565b91505092915050565b5f8115159050919050565b61381681613802565b82525050565b5f60208201905061382f5f83018461380d565b92915050565b5f81519050919050565b5f82825260208201905092915050565b8281835e5f83830152505050565b5f601f19601f8301169050919050565b5f61387782613835565b613881818561383f565b935061389181856020860161384f565b61389a8161385d565b840191505092915050565b5f6020820190508181035f8301526138bd818461386d565b905092915050565b5f819050919050565b6138d7816138c5565b81146138e1575f80fd5b50565b5f813590506138f2816138ce565b92915050565b5f6020828403121561390d5761390c61377a565b5b5f61391a848285016138e4565b91505092915050565b5f73ffffffffffffffffffffffffffffffffffffffff82169050919050565b5f61394c82613923565b9050919050565b61395c81613942565b82525050565b5f6020820190506139755f830184613953565b92915050565b61398481613942565b811461398e575f80fd5b50565b5f8135905061399f8161397b565b92915050565b5f80604083850312156139bb576139ba61377a565b5b5f6139c885828601613991565b92505060206139d9858286016138e4565b9150509250929050565b6139ec816138c5565b82525050565b5f602082019050613a055f8301846139e3565b92915050565b5f805f60608486031215613a2257613a2161377a565b5b5f613a2f86828701613991565b9350506020613a4086828701613991565b9250506040613a51868287016138e4565b9150509250925092565b7f4e487b71000000000000000000000000000000000000000000000000000000005f52602160045260245ffd5b60058110613a9957613a98613a5b565b5b50565b5f819050613aa982613a88565b919050565b5f613ab882613a9c565b9050919050565b613ac881613aae565b82525050565b5f606082019050613ae15f8301866139e3565b613aee6020830185613abf565b613afb60408301846139e3565b949350505050565b5f60208284031215613b1857613b1761377a565b5b5f613b2584828501613991565b91505092915050565b5f602082019050613b415f830184613abf565b92915050565b613b5081613802565b8114613b5a575f80fd5b50565b5f81359050613b6b81613b47565b92915050565b5f8060408385031215613b8757613b8661377a565b5b5f613b9485828601613991565b9250506020613ba585828601613b5d565b9150509250929050565b5f80fd5b5f80fd5b7f4e487b71000000000000000000000000000000000000000000000000000000005f52604160045260245ffd5b613bed8261385d565b810181811067ffffffffffffffff82111715613c0c57613c0b613bb7565b5b80604052505050565b5f613c1e613771565b9050613c2a8282613be4565b919050565b5f67ffffffffffffffff821115613c4957613c48613bb7565b5b613c528261385d565b9050602081019050919050565b828183375f83830152505050565b5f613c7f613c7a84613c2f565b613c15565b905082815260208101848484011115613c9b57613c9a613bb3565b5b613ca6848285613c5f565b509392505050565b5f82601f830112613cc257613cc1613baf565b5b8135613cd2848260208601613c6d565b91505092915050565b5f805f8060808587031215613cf357613cf261377a565b5b5f613d0087828801613991565b9450506020613d1187828801613991565b9350506040613d22878288016138e4565b925050606085013567ffffffffffffffff811115613d4357613d4261377e565b5b613d4f87828801613cae565b91505092959194509250565b5f6080820190508181035f830152613d73818761386d565b90508181036020830152613d87818661386d565b90508181036040830152613d9b818561386d565b90508181036060830152613daf818461386d565b905095945050505050565b5f8060408385031215613dd057613dcf61377a565b5b5f613ddd85828601613991565b9250506020613dee85828601613991565b9150509250929050565b7f4e487b71000000000000000000000000000000000000000000000000000000005f52602260045260245ffd5b5f6002820490506001821680613e3c57607f821691505b602082108103613e4f57613e4e613df8565b5b50919050565b7f496e76616c696420696e646578000000000000000000000000000000000000005f82015250565b5f613e89600d8361383f565b9150613e9482613e55565b602082019050919050565b5f6020820190508181035f830152613eb681613e7d565b9050919050565b7f4e487b71000000000000000000000000000000000000000000000000000000005f52603260045260245ffd5b7f4e487b71000000000000000000000000000000000000000000000000000000005f52601160045260245ffd5b5f613f21826138c5565b9150613f2c836138c5565b9250828203905081811115613f4457613f43613eea565b5b92915050565b7f4e6f7420617574686f72697a6564206f7261636c6500000000000000000000005f82015250565b5f613f7e60158361383f565b9150613f8982613f4a565b602082019050919050565b5f6020820190508181035f830152613fab81613f72565b9050919050565b5f613fbc826138c5565b9150613fc7836138c5565b9250828201905080821115613fdf57613fde613eea565b5b92915050565b5f819050919050565b613fff613ffa826138c5565b613fe5565b82525050565b5f8160601b9050919050565b5f61401b82614005565b9050919050565b5f61402c82614011565b9050919050565b61404461403f82613942565b614022565b82525050565b5f6140558286613fee565b6020820191506140658285614033565b6014820191506140758284613fee565b602082019150819050949350505050565b7f4e487b71000000000000000000000000000000000000000000000000000000005f52601260045260245ffd5b5f6140bd826138c5565b91506140c8836138c5565b9250826140d8576140d7614086565b5b828206905092915050565b5f819050815f5260205f209050919050565b5f6020601f8301049050919050565b5f82821b905092915050565b5f6008830261413f7fffffffffffffffffffffffffffffffffffffffffffffffffffffffffffffffff82614104565b6141498683614104565b95508019841693508086168417925050509392505050565b5f819050919050565b5f61418461417f61417a846138c5565b614161565b6138c5565b9050919050565b5f819050919050565b61419d8361416a565b6141b16141a98261418b565b848454614110565b825550505050565b5f90565b6141c56141b9565b6141d0818484614194565b505050565b5b818110156141f3576141e85f826141bd565b6001810190506141d6565b5050565b601f82111561423857614209816140e3565b614212846140f5565b81016020851015614221578190505b61423561422d856140f5565b8301826141d5565b50505b505050565b5f82821c905092915050565b5f6142585f198460080261423d565b1980831691505092915050565b5f6142708383614249565b9150826002028217905092915050565b61428982613835565b67ffffffffffffffff8111156142a2576142a1613bb7565b5b6142ac8254613e25565b6142b78282856141f7565b5f60209050601f8311600181146142e8575f84156142d6578287015190505b6142e08582614265565b865550614347565b601f1984166142f6866140e3565b5f5b8281101561431d578489015182556001820191506020850194506020810190506142f8565b8683101561433a5784890151614336601f891682614249565b8355505b6001600288020188555050505b505050505050565b5f6040820190506143625f830185613953565b61436f60208301846139e3565b9392505050565b7f436f6f6c646f776e2061637469766500000000000000000000000000000000005f82015250565b5f6143aa600f8361383f565b91506143b582614376565b602082019050919050565b5f6020820190508181035f8301526143d78161439e565b9050919050565b7f4d61782073656e74696d656e74206973203130300000000000000000000000005f82015250565b5f61441260148361383f565b915061441d826143de565b602082019050919050565b5f6020820190508181035f83015261443f81614406565b9050919050565b5f6040820190506144595f8301856139e3565b6144666020830184613abf565b9392505050565b7f446f6573206e6f742065786973740000000000000000000000000000000000005f82015250565b5f6144a1600e8361383f565b91506144ac8261446d565b602082019050919050565b5f6020820190508181035f8301526144ce81614495565b9050919050565b5f81905092915050565b7f646174613a6170706c69636174696f6e2f6a736f6e3b757466382c7b000000005f82015250565b5f614513601c836144d5565b915061451e826144df565b601c82019050919050565b7f226e616d65223a2243727970746f2042656173742023000000000000000000005f82015250565b5f61455d6016836144d5565b915061456882614529565b601682019050919050565b5f61457d82613835565b61458781856144d5565b935061459781856020860161384f565b80840191505092915050565b7f222c0000000000000000000000000000000000000000000000000000000000005f82015250565b5f6145d76002836144d5565b91506145e2826145a3565b600282019050919050565b7f226465736372697074696f6e223a2253656e7469656e74204e465420746861745f8201527f2065766f6c7665732077697468206d61726b65742073656e74696d656e742e2260208201527f2c00000000000000000000000000000000000000000000000000000000000000604082015250565b5f61466d6041836144d5565b9150614678826145ed565b604182019050919050565b7f22696d616765223a22646174613a696d6167652f7376672b786d6c3b757466385f8201527f2c00000000000000000000000000000000000000000000000000000000000000602082015250565b5f6146dd6021836144d5565b91506146e882614683565b602182019050919050565b7f2261747472696275746573223a5b0000000000000000000000000000000000005f82015250565b5f614727600e836144d5565b9150614732826146f3565b600e82019050919050565b7f7b2274726169745f74797065223a2254797065222c2276616c7565223a2200005f82015250565b5f614771601e836144d5565b915061477c8261473d565b601e82019050919050565b7f227d2c00000000000000000000000000000000000000000000000000000000005f82015250565b5f6147bb6003836144d5565b91506147c682614787565b600382019050919050565b7f7b2274726169745f74797065223a22467572222c2276616c7565223a220000005f82015250565b5f614805601d836144d5565b9150614810826147d1565b601d82019050919050565b7f7b2274726169745f74797065223a2245796573222c2276616c7565223a2200005f82015250565b5f61484f601e836144d5565b915061485a8261481b565b601e82019050919050565b7f7b2274726169745f74797065223a224261636b67726f756e64222c2276616c755f8201527f65223a2200000000000000000000000000000000000000000000000000000000602082015250565b5f6148bf6024836144d5565b91506148ca82614865565b602482019050919050565b7f7b2274726169745f74797065223a2253656e74696d656e74222c2276616c75655f8201527f223a220000000000000000000000000000000000000000000000000000000000602082015250565b5f61492f6023836144d5565b915061493a826148d5565b602382019050919050565b7f227d0000000000000000000000000000000000000000000000000000000000005f82015250565b5f6149796002836144d5565b915061498482614945565b600282019050919050565b7f5d000000000000000000000000000000000000000000000000000000000000005f82015250565b5f6149c36001836144d5565b91506149ce8261498f565b600182019050919050565b7f7d000000000000000000000000000000000000000000000000000000000000005f82015250565b5f614a0d6001836144d5565b9150614a18826149d9565b600182019050919050565b5f614a2d82614507565b9150614a3882614551565b9150614a44828a614573565b9150614a4f826145cb565b9150614a5a82614661565b9150614a65826146d1565b9150614a718289614573565b9150614a7c826145cb565b9150614a878261471b565b9150614a9282614765565b9150614a9e8288614573565b9150614aa9826147af565b9150614ab4826147f9565b9150614ac08287614573565b9150614acb826147af565b9150614ad682614843565b9150614ae28286614573565b9150614aed826147af565b9150614af8826148b3565b9150614b048285614573565b9150614b0f826147af565b9150614b1a82614923565b9150614b268284614573565b9150614b318261496d565b9150614b3c826149b7565b9150614b4782614a01565b915081905098975050505050505050565b5f614b62826138c5565b91505f8203614b7457614b73613eea565b5b600182039050919050565b5f8154614b8b81613e25565b614b95818661383f565b9450600182165f8114614baf5760018114614bc557614bf7565b60ff198316865281151560200286019350614bf7565b614bce856140e3565b5f5b83811015614bef57815481890152600182019150602081019050614bd0565b808801955050505b50505092915050565b5f608082019050614c135f8301876139e3565b8181036020830152614c258186614b7f565b90508181036040830152614c398185614b7f565b90508181036060830152614c4d8184614b7f565b905095945050505050565b5f81519050919050565b5f82825260208201905092915050565b5f614c7c82614c58565b614c868185614c62565b9350614c9681856020860161384f565b614c9f8161385d565b840191505092915050565b5f608082019050614cbd5f830187613953565b614cca6020830186613953565b614cd760408301856139e3565b8181036060830152614ce98184614c72565b905095945050505050565b5f81519050614d02816137ad565b92915050565b5f60208284031215614d1d57614d1c61377a565b5b5f614d2a84828501614cf4565b91505092915050565b7f3c73766720786d6c6e733d27687474703a2f2f7777772e77332e6f72672f32305f8201527f30302f737667272077696474683d2733303027206865696768743d273330302760208201527f3e00000000000000000000000000000000000000000000000000000000000000604082015250565b5f614db36041836144d5565b9150614dbe82614d33565b604182019050919050565b7f3c726563742077696474683d273130302527206865696768743d2731303025275f8201527f2066696c6c3d2700000000000000000000000000000000000000000000000000602082015250565b5f614e236027836144d5565b9150614e2e82614dc9565b602782019050919050565b7f272f3e00000000000000000000000000000000000000000000000000000000005f82015250565b5f614e6d6003836144d5565b9150614e7882614e39565b600382019050919050565b7f3c7465787420783d273530252720793d273330252720646f6d696e616e742d625f8201527f6173656c696e653d276d6964646c652720746578742d616e63686f723d276d6960208201527f64646c652720666f6e742d73697a653d273230272066696c6c3d27776869746560408201527f273e000000000000000000000000000000000000000000000000000000000000606082015250565b5f614f296062836144d5565b9150614f3482614e83565b606282019050919050565b7f3c2f746578743e000000000000000000000000000000000000000000000000005f82015250565b5f614f736007836144d5565b9150614f7e82614f3f565b600782019050919050565b7f3c7465787420783d273530252720793d273435252720646f6d696e616e742d625f8201527f6173656c696e653d276d6964646c652720746578742d616e63686f723d276d6960208201527f64646c652720666f6e742d73697a653d273134272066696c6c3d27776869746560408201527f273e4d6f6f643a20000000000000000000000000000000000000000000000000606082015250565b5f61502f6068836144d5565b915061503a82614f89565b606882019050919050565b7f3c7465787420783d273530252720793d273630252720646f6d696e616e742d625f8201527f6173656c696e653d276d6964646c652720746578742d616e63686f723d276d6960208201527f64646c652720666f6e742d73697a653d273134272066696c6c3d27776869746560408201527f273e4675723a2000000000000000000000000000000000000000000000000000606082015250565b5f6150eb6067836144d5565b91506150f682615045565b606782019050919050565b7f3c7465787420783d273530252720793d273730252720646f6d696e616e742d625f8201527f6173656c696e653d276d6964646c652720746578742d616e63686f723d276d6960208201527f64646c652720666f6e742d73697a653d273134272066696c6c3d27776869746560408201527f273e457965733a20000000000000000000000000000000000000000000000000606082015250565b5f6151a76068836144d5565b91506151b282615101565b606882019050919050565b7f3c7465787420783d273530252720793d273830252720646f6d696e616e742d625f8201527f6173656c696e653d276d6964646c652720746578742d616e63686f723d276d6960208201527f64646c652720666f6e742d73697a653d273134272066696c6c3d27776869746560408201527f273e42473a200000000000000000000000000000000000000000000000000000606082015250565b5f6152636066836144d5565b915061526e826151bd565b606682019050919050565b7f3c2f7376673e00000000000000000000000000000000000000000000000000005f82015250565b5f6152ad6006836144d5565b91506152b882615279565b600682019050919050565b5f6152cd82614da7565b91506152d882614e17565b91506152e48289614573565b91506152ef82614e61565b91506152fa82614f1d565b91506153068288614573565b915061531182614f67565b915061531c82615023565b91506153288287614573565b915061533382614f67565b915061533e826150df565b915061534a8286614573565b915061535582614f67565b91506153608261519b565b915061536c8285614573565b915061537782614f67565b915061538282615257565b915061538e8284614573565b915061539982614f67565b91506153a4826152a1565b915081905097965050505050505056fea2646970667358221220d038d5cd3afc591d610826a3ad0ba4b9f90e7756ba10d27237db42866b65122464736f6c634300081a0033",
			"opcodes": "PUSH1 0x80 PUSH1 0x40 MSTORE CALLVALUE DUP1 ISZERO PUSH2 0xF JUMPI PUSH0 DUP1 REVERT JUMPDEST POP CALLER PUSH1 0x40 MLOAD DUP1 PUSH1 0x40 ADD PUSH1 0x40 MSTORE DUP1 PUSH1 0xD DUP2 MSTORE PUSH1 0x20 ADD PUSH32 0x43727970746F2042656173747300000000000000000000000000000000000000 DUP2 MSTORE POP PUSH1 0x40 MLOAD DUP1 PUSH1 0x40 ADD PUSH1 0x40 MSTORE DUP1 PUSH1 0x6 DUP2 MSTORE PUSH1 0x20 ADD PUSH32 0x4342454153540000000000000000000000000000000000000000000000000000 DUP2 MSTORE POP DUP2 PUSH1 0x2 SWAP1 DUP2 PUSH2 0x8C SWAP2 SWAP1 PUSH2 0x4A0 JUMP JUMPDEST POP DUP1 PUSH1 0x3 SWAP1 DUP2 PUSH2 0x9C SWAP2 SWAP1 PUSH2 0x4A0 JUMP JUMPDEST POP PUSH2 0xAB PUSH2 0x170 PUSH1 0x20 SHL PUSH1 0x20 SHR JUMP JUMPDEST PUSH0 DUP2 SWAP1 SSTORE POP PUSH2 0xBE PUSH2 0x170 PUSH1 0x20 SHL PUSH1 0x20 SHR JUMP JUMPDEST PUSH2 0xCC PUSH2 0x174 PUSH1 0x20 SHL PUSH1 0x20 SHR JUMP JUMPDEST LT ISZERO PUSH2 0xE9 JUMPI PUSH2 0xE8 PUSH4 0xFED8210F PUSH1 0xE0 SHL PUSH2 0x19B PUSH1 0x20 SHL PUSH1 0x20 SHR JUMP JUMPDEST JUMPDEST POP POP PUSH0 PUSH20 0xFFFFFFFFFFFFFFFFFFFFFFFFFFFFFFFFFFFFFFFF AND DUP2 PUSH20 0xFFFFFFFFFFFFFFFFFFFFFFFFFFFFFFFFFFFFFFFF AND SUB PUSH2 0x15B JUMPI PUSH0 PUSH1 0x40 MLOAD PUSH32 0x1E4FBDF700000000000000000000000000000000000000000000000000000000 DUP2 MSTORE PUSH1 0x4 ADD PUSH2 0x152 SWAP2 SWAP1 PUSH2 0x5AE JUMP JUMPDEST PUSH1 0x40 MLOAD DUP1 SWAP2 SUB SWAP1 REVERT JUMPDEST PUSH2 0x16A DUP2 PUSH2 0x1A3 PUSH1 0x20 SHL PUSH1 0x20 SHR JUMP JUMPDEST POP PUSH2 0x5C7 JUMP JUMPDEST PUSH0 SWAP1 JUMP JUMPDEST PUSH0 PUSH32 0xFFFFFFFFFFFFFFFFFFFFFFFFFFFFFFFFFFFFFFFFFFFFFFFFFFFFFFFFFFFFFFFF SWAP1 POP SWAP1 JUMP JUMPDEST DUP1 PUSH0 MSTORE PUSH1 0x4 PUSH0 REVERT JUMPDEST PUSH0 PUSH1 0x9 PUSH0 SWAP1 SLOAD SWAP1 PUSH2 0x100 EXP SWAP1 DIV PUSH20 0xFFFFFFFFFFFFFFFFFFFFFFFFFFFFFFFFFFFFFFFF AND SWAP1 POP DUP2 PUSH1 0x9 PUSH0 PUSH2 0x100 EXP DUP2 SLOAD DUP2 PUSH20 0xFFFFFFFFFFFFFFFFFFFFFFFFFFFFFFFFFFFFFFFF MUL NOT AND SWAP1 DUP4 PUSH20 0xFFFFFFFFFFFFFFFFFFFFFFFFFFFFFFFFFFFFFFFF AND MUL OR SWAP1 SSTORE POP DUP2 PUSH20 0xFFFFFFFFFFFFFFFFFFFFFFFFFFFFFFFFFFFFFFFF AND DUP2 PUSH20 0xFFFFFFFFFFFFFFFFFFFFFFFFFFFFFFFFFFFFFFFF AND PUSH32 0x8BE0079C531659141344CD1FD0A4F28419497F9722A3DAAFE3B4186F6B6457E0 PUSH1 0x40 MLOAD PUSH1 0x40 MLOAD DUP1 SWAP2 SUB SWAP1 LOG3 POP POP JUMP JUMPDEST PUSH0 DUP2 MLOAD SWAP1 POP SWAP2 SWAP1 POP JUMP JUMPDEST PUSH32 0x4E487B7100000000000000000000000000000000000000000000000000000000 PUSH0 MSTORE PUSH1 0x41 PUSH1 0x4 MSTORE PUSH1 0x24 PUSH0 REVERT JUMPDEST PUSH32 0x4E487B7100000000000000000000000000000000000000000000000000000000 PUSH0 MSTORE PUSH1 0x22 PUSH1 0x4 MSTORE PUSH1 0x24 PUSH0 REVERT JUMPDEST PUSH0 PUSH1 0x2 DUP3 DIV SWAP1 POP PUSH1 0x1 DUP3 AND DUP1 PUSH2 0x2E1 JUMPI PUSH1 0x7F DUP3 AND SWAP2 POP JUMPDEST PUSH1 0x20 DUP3 LT DUP2 SUB PUSH2 0x2F4 JUMPI PUSH2 0x2F3 PUSH2 0x29D JUMP JUMPDEST JUMPDEST POP SWAP2 SWAP1 POP JUMP JUMPDEST PUSH0 DUP2 SWAP1 POP DUP2 PUSH0 MSTORE PUSH1 0x20 PUSH0 KECCAK256 SWAP1 POP SWAP2 SWAP1 POP JUMP JUMPDEST PUSH0 PUSH1 0x20 PUSH1 0x1F DUP4 ADD DIV SWAP1 POP SWAP2 SWAP1 POP JUMP JUMPDEST PUSH0 DUP3 DUP3 SHL SWAP1 POP SWAP3 SWAP2 POP POP JUMP JUMPDEST PUSH0 PUSH1 0x8 DUP4 MUL PUSH2 0x356 PUSH32 0xFFFFFFFFFFFFFFFFFFFFFFFFFFFFFFFFFFFFFFFFFFFFFFFFFFFFFFFFFFFFFFFF DUP3 PUSH2 0x31B JUMP JUMPDEST PUSH2 0x360 DUP7 DUP4 PUSH2 0x31B JUMP JUMPDEST SWAP6 POP DUP1 NOT DUP5 AND SWAP4 POP DUP1 DUP7 AND DUP5 OR SWAP3 POP POP POP SWAP4 SWAP3 POP POP POP JUMP JUMPDEST PUSH0 DUP2 SWAP1 POP SWAP2 SWAP1 POP JUMP JUMPDEST PUSH0 DUP2 SWAP1 POP SWAP2 SWAP1 POP JUMP JUMPDEST PUSH0 PUSH2 0x3A4 PUSH2 0x39F PUSH2 0x39A DUP5 PUSH2 0x378 JUMP JUMPDEST PUSH2 0x381 JUMP JUMPDEST PUSH2 0x378 JUMP JUMPDEST SWAP1 POP SWAP2 SWAP1 POP JUMP JUMPDEST PUSH0 DUP2 SWAP1 POP SWAP2 SWAP1 POP JUMP JUMPDEST PUSH2 0x3BD DUP4 PUSH2 0x38A JUMP JUMPDEST PUSH2 0x3D1 PUSH2 0x3C9 DUP3 PUSH2 0x3AB JUMP JUMPDEST DUP5 DUP5 SLOAD PUSH2 0x327 JUMP JUMPDEST DUP3 SSTORE POP POP POP POP JUMP JUMPDEST PUSH0 SWAP1 JUMP JUMPDEST PUSH2 0x3E5 PUSH2 0x3D9 JUMP JUMPDEST PUSH2 0x3F0 DUP2 DUP5 DUP5 PUSH2 0x3B4 JUMP JUMPDEST POP POP POP JUMP JUMPDEST JUMPDEST DUP2 DUP2 LT ISZERO PUSH2 0x413 JUMPI PUSH2 0x408 PUSH0 DUP3 PUSH2 0x3DD JUMP JUMPDEST PUSH1 0x1 DUP2 ADD SWAP1 POP PUSH2 0x3F6 JUMP JUMPDEST POP POP JUMP JUMPDEST PUSH1 0x1F DUP3 GT ISZERO PUSH2 0x458 JUMPI PUSH2 0x429 DUP2 PUSH2 0x2FA JUMP JUMPDEST PUSH2 0x432 DUP5 PUSH2 0x30C JUMP JUMPDEST DUP2 ADD PUSH1 0x20 DUP6 LT ISZERO PUSH2 0x441 JUMPI DUP2 SWAP1 POP JUMPDEST PUSH2 0x455 PUSH2 0x44D DUP6 PUSH2 0x30C JUMP JUMPDEST DUP4 ADD DUP3 PUSH2 0x3F5 JUMP JUMPDEST POP POP JUMPDEST POP POP POP JUMP JUMPDEST PUSH0 DUP3 DUP3 SHR SWAP1 POP SWAP3 SWAP2 POP POP JUMP JUMPDEST PUSH0 PUSH2 0x478 PUSH0 NOT DUP5 PUSH1 0x8 MUL PUSH2 0x45D JUMP JUMPDEST NOT DUP1 DUP4 AND SWAP2 POP POP SWAP3 SWAP2 POP POP JUMP JUMPDEST PUSH0 PUSH2 0x490 DUP4 DUP4 PUSH2 0x469 JUMP JUMPDEST SWAP2 POP DUP3 PUSH1 0x2 MUL DUP3 OR SWAP1 POP SWAP3 SWAP2 POP POP JUMP JUMPDEST PUSH2 0x4A9 DUP3 PUSH2 0x266 JUMP JUMPDEST PUSH8 0xFFFFFFFFFFFFFFFF DUP2 GT ISZERO PUSH2 0x4C2 JUMPI PUSH2 0x4C1 PUSH2 0x270 JUMP JUMPDEST JUMPDEST PUSH2 0x4CC DUP3 SLOAD PUSH2 0x2CA JUMP JUMPDEST PUSH2 0x4D7 DUP3 DUP3 DUP6 PUSH2 0x417 JUMP JUMPDEST PUSH0 PUSH1 0x20 SWAP1 POP PUSH1 0x1F DUP4 GT PUSH1 0x1 DUP2 EQ PUSH2 0x508 JUMPI PUSH0 DUP5 ISZERO PUSH2 0x4F6 JUMPI DUP3 DUP8 ADD MLOAD SWAP1 POP JUMPDEST PUSH2 0x500 DUP6 DUP3 PUSH2 0x485 JUMP JUMPDEST DUP7 SSTORE POP PUSH2 0x567 JUMP JUMPDEST PUSH1 0x1F NOT DUP5 AND PUSH2 0x516 DUP7 PUSH2 0x2FA JUMP JUMPDEST PUSH0 JUMPDEST DUP3 DUP2 LT ISZERO PUSH2 0x53D JUMPI DUP5 DUP10 ADD MLOAD DUP3 SSTORE PUSH1 0x1 DUP3 ADD SWAP2 POP PUSH1 0x20 DUP6 ADD SWAP5 POP PUSH1 0x20 DUP2 ADD SWAP1 POP PUSH2 0x518 JUMP JUMPDEST DUP7 DUP4 LT ISZERO PUSH2 0x55A JUMPI DUP5 DUP10 ADD MLOAD PUSH2 0x556 PUSH1 0x1F DUP10 AND DUP3 PUSH2 0x469 JUMP JUMPDEST DUP4 SSTORE POP JUMPDEST PUSH1 0x1 PUSH1 0x2 DUP9 MUL ADD DUP9 SSTORE POP POP POP JUMPDEST POP POP POP POP POP POP JUMP JUMPDEST PUSH0 PUSH20 0xFFFFFFFFFFFFFFFFFFFFFFFFFFFFFFFFFFFFFFFF DUP3 AND SWAP1 POP SWAP2 SWAP1 POP JUMP JUMPDEST PUSH0 PUSH2 0x598 DUP3 PUSH2 0x56F JUMP JUMPDEST SWAP1 POP SWAP2 SWAP1 POP JUMP JUMPDEST PUSH2 0x5A8 DUP2 PUSH2 0x58E JUMP JUMPDEST DUP3 MSTORE POP POP JUMP JUMPDEST PUSH0 PUSH1 0x20 DUP3 ADD SWAP1 POP PUSH2 0x5C1 PUSH0 DUP4 ADD DUP5 PUSH2 0x59F JUMP JUMPDEST SWAP3 SWAP2 POP POP JUMP JUMPDEST PUSH2 0x53EA DUP1 PUSH2 0x5D4 PUSH0 CODECOPY PUSH0 RETURN INVALID PUSH1 0x80 PUSH1 0x40 MSTORE PUSH1 0x4 CALLDATASIZE LT PUSH2 0x1CC JUMPI PUSH0 CALLDATALOAD PUSH1 0xE0 SHR DUP1 PUSH4 0x76294EF7 GT PUSH2 0xF6 JUMPI DUP1 PUSH4 0xB1DEF235 GT PUSH2 0x94 JUMPI DUP1 PUSH4 0xCCC47DEC GT PUSH2 0x63 JUMPI DUP1 PUSH4 0xCCC47DEC EQ PUSH2 0x62E JUMPI DUP1 PUSH4 0xE05C57BF EQ PUSH2 0x66C JUMPI DUP1 PUSH4 0xE985E9C5 EQ PUSH2 0x6AB JUMPI DUP1 PUSH4 0xF2FDE38B EQ PUSH2 0x6E7 JUMPI PUSH2 0x1CC JUMP JUMPDEST DUP1 PUSH4 0xB1DEF235 EQ PUSH2 0x584 JUMPI DUP1 PUSH4 0xB88D4FDE EQ PUSH2 0x5AC JUMPI DUP1 PUSH4 0xC0463711 EQ PUSH2 0x5C8 JUMPI DUP1 PUSH4 0xC87B56DD EQ PUSH2 0x5F2 JUMPI PUSH2 0x1CC JUMP JUMPDEST DUP1 PUSH4 0x8DA5CB5B GT PUSH2 0xD0 JUMPI DUP1 PUSH4 0x8DA5CB5B EQ PUSH2 0x4E0 JUMPI DUP1 PUSH4 0x95D89B41 EQ PUSH2 0x50A JUMPI DUP1 PUSH4 0xA0712D68 EQ PUSH2 0x534 JUMPI DUP1 PUSH4 0xA22CB465 EQ PUSH2 0x55C JUMPI PUSH2 0x1CC JUMP JUMPDEST DUP1 PUSH4 0x76294EF7 EQ PUSH2 0x464 JUMPI DUP1 PUSH4 0x7ADBF973 EQ PUSH2 0x48E JUMPI DUP1 PUSH4 0x7DC0D1D0 EQ PUSH2 0x4B6 JUMPI PUSH2 0x1CC JUMP JUMPDEST DUP1 PUSH4 0x42842E0E GT PUSH2 0x16E JUMPI DUP1 PUSH4 0x6C9F6F29 GT PUSH2 0x13D JUMPI DUP1 PUSH4 0x6C9F6F29 EQ PUSH2 0x3C0 JUMPI DUP1 PUSH4 0x6E762D6E EQ PUSH2 0x3EA JUMPI DUP1 PUSH4 0x70A08231 EQ PUSH2 0x412 JUMPI DUP1 PUSH4 0x715018A6 EQ PUSH2 0x44E JUMPI PUSH2 0x1CC JUMP JUMPDEST DUP1 PUSH4 0x42842E0E EQ PUSH2 0x312 JUMPI DUP1 PUSH4 0x446ECF3F EQ PUSH2 0x32E JUMPI DUP1 PUSH4 0x502F43A8 EQ PUSH2 0x35A JUMPI DUP1 PUSH4 0x6352211E EQ PUSH2 0x384 JUMPI PUSH2 0x1CC JUMP JUMPDEST DUP1 PUSH4 0x95EA7B3 GT PUSH2 0x1AA JUMPI DUP1 PUSH4 0x95EA7B3 EQ PUSH2 0x272 JUMPI DUP1 PUSH4 0x18160DDD EQ PUSH2 0x28E JUMPI DUP1 PUSH4 0x23B872DD EQ PUSH2 0x2B8 JUMPI DUP1 PUSH4 0x41C84DE8 EQ PUSH2 0x2D4 JUMPI PUSH2 0x1CC JUMP JUMPDEST DUP1 PUSH4 0x1FFC9A7 EQ PUSH2 0x1D0 JUMPI DUP1 PUSH4 0x6FDDE03 EQ PUSH2 0x20C JUMPI DUP1 PUSH4 0x81812FC EQ PUSH2 0x236 JUMPI JUMPDEST PUSH0 DUP1 REVERT JUMPDEST CALLVALUE DUP1 ISZERO PUSH2 0x1DB JUMPI PUSH0 DUP1 REVERT JUMPDEST POP PUSH2 0x1F6 PUSH1 0x4 DUP1 CALLDATASIZE SUB DUP2 ADD SWAP1 PUSH2 0x1F1 SWAP2 SWAP1 PUSH2 0x37D7 JUMP JUMPDEST PUSH2 0x70F JUMP JUMPDEST PUSH1 0x40 MLOAD PUSH2 0x203 SWAP2 SWAP1 PUSH2 0x381C JUMP JUMPDEST PUSH1 0x40 MLOAD DUP1 SWAP2 SUB SWAP1 RETURN JUMPDEST CALLVALUE DUP1 ISZERO PUSH2 0x217 JUMPI PUSH0 DUP1 REVERT JUMPDEST POP PUSH2 0x220 PUSH2 0x7A0 JUMP JUMPDEST PUSH1 0x40 MLOAD PUSH2 0x22D SWAP2 SWAP1 PUSH2 0x38A5 JUMP JUMPDEST PUSH1 0x40 MLOAD DUP1 SWAP2 SUB SWAP1 RETURN JUMPDEST CALLVALUE DUP1 ISZERO PUSH2 0x241 JUMPI PUSH0 DUP1 REVERT JUMPDEST POP PUSH2 0x25C PUSH1 0x4 DUP1 CALLDATASIZE SUB DUP2 ADD SWAP1 PUSH2 0x257 SWAP2 SWAP1 PUSH2 0x38F8 JUMP JUMPDEST PUSH2 0x830 JUMP JUMPDEST PUSH1 0x40 MLOAD PUSH2 0x269 SWAP2 SWAP1 PUSH2 0x3962 JUMP JUMPDEST PUSH1 0x40 MLOAD DUP1 SWAP2 SUB SWAP1 RETURN JUMPDEST PUSH2 0x28C PUSH1 0x4 DUP1 CALLDATASIZE SUB DUP2 ADD SWAP1 PUSH2 0x287 SWAP2 SWAP1 PUSH2 0x39A5 JUMP JUMPDEST PUSH2 0x889 JUMP JUMPDEST STOP JUMPDEST CALLVALUE DUP1 ISZERO PUSH2 0x299 JUMPI PUSH0 DUP1 REVERT JUMPDEST POP PUSH2 0x2A2 PUSH2 0x899 JUMP JUMPDEST PUSH1 0x40 MLOAD PUSH2 0x2AF SWAP2 SWAP1 PUSH2 0x39F2 JUMP JUMPDEST PUSH1 0x40 MLOAD DUP1 SWAP2 SUB SWAP1 RETURN JUMPDEST PUSH2 0x2D2 PUSH1 0x4 DUP1 CALLDATASIZE SUB DUP2 ADD SWAP1 PUSH2 0x2CD SWAP2 SWAP1 PUSH2 0x3A0B JUMP JUMPDEST PUSH2 0x8E4 JUMP JUMPDEST STOP JUMPDEST CALLVALUE DUP1 ISZERO PUSH2 0x2DF JUMPI PUSH0 DUP1 REVERT JUMPDEST POP PUSH2 0x2FA PUSH1 0x4 DUP1 CALLDATASIZE SUB DUP2 ADD SWAP1 PUSH2 0x2F5 SWAP2 SWAP1 PUSH2 0x38F8 JUMP JUMPDEST PUSH2 0xB65 JUMP JUMPDEST PUSH1 0x40 MLOAD PUSH2 0x309 SWAP4 SWAP3 SWAP2 SWAP1 PUSH2 0x3ACE JUMP JUMPDEST PUSH1 0x40 MLOAD DUP1 SWAP2 SUB SWAP1 RETURN JUMPDEST PUSH2 0x32C PUSH1 0x4 DUP1 CALLDATASIZE SUB DUP2 ADD SWAP1 PUSH2 0x327 SWAP2 SWAP1 PUSH2 0x3A0B JUMP JUMPDEST PUSH2 0xC46 JUMP JUMPDEST STOP JUMPDEST CALLVALUE DUP1 ISZERO PUSH2 0x339 JUMPI PUSH0 DUP1 REVERT JUMPDEST POP PUSH2 0x342 PUSH2 0xC65 JUMP JUMPDEST PUSH1 0x40 MLOAD PUSH2 0x351 SWAP4 SWAP3 SWAP2 SWAP1 PUSH2 0x3ACE JUMP JUMPDEST PUSH1 0x40 MLOAD DUP1 SWAP2 SUB SWAP1 RETURN JUMPDEST CALLVALUE DUP1 ISZERO PUSH2 0x365 JUMPI PUSH0 DUP1 REVERT JUMPDEST POP PUSH2 0x36E PUSH2 0xD2A JUMP JUMPDEST PUSH1 0x40 MLOAD PUSH2 0x37B SWAP2 SWAP1 PUSH2 0x39F2 JUMP JUMPDEST PUSH1 0x40 MLOAD DUP1 SWAP2 SUB SWAP1 RETURN JUMPDEST CALLVALUE DUP1 ISZERO PUSH2 0x38F JUMPI PUSH0 DUP1 REVERT JUMPDEST POP PUSH2 0x3AA PUSH1 0x4 DUP1 CALLDATASIZE SUB DUP2 ADD SWAP1 PUSH2 0x3A5 SWAP2 SWAP1 PUSH2 0x38F8 JUMP JUMPDEST PUSH2 0xD30 JUMP JUMPDEST PUSH1 0x40 MLOAD PUSH2 0x3B7 SWAP2 SWAP1 PUSH2 0x3962 JUMP JUMPDEST PUSH1 0x40 MLOAD DUP1 SWAP2 SUB SWAP1 RETURN JUMPDEST CALLVALUE DUP1 ISZERO PUSH2 0x3CB JUMPI PUSH0 DUP1 REVERT JUMPDEST POP PUSH2 0x3D4 PUSH2 0xD41 JUMP JUMPDEST PUSH1 0x40 MLOAD PUSH2 0x3E1 SWAP2 SWAP1 PUSH2 0x39F2 JUMP JUMPDEST PUSH1 0x40 MLOAD DUP1 SWAP2 SUB SWAP1 RETURN JUMPDEST CALLVALUE DUP1 ISZERO PUSH2 0x3F5 JUMPI PUSH0 DUP1 REVERT JUMPDEST POP PUSH2 0x410 PUSH1 0x4 DUP1 CALLDATASIZE SUB DUP2 ADD SWAP1 PUSH2 0x40B SWAP2 SWAP1 PUSH2 0x38F8 JUMP JUMPDEST PUSH2 0xD4D JUMP JUMPDEST STOP JUMPDEST CALLVALUE DUP1 ISZERO PUSH2 0x41D JUMPI PUSH0 DUP1 REVERT JUMPDEST POP PUSH2 0x438 PUSH1 0x4 DUP1 CALLDATASIZE SUB DUP2 ADD SWAP1 PUSH2 0x433 SWAP2 SWAP1 PUSH2 0x3B03 JUMP JUMPDEST PUSH2 0xDE8 JUMP JUMPDEST PUSH1 0x40 MLOAD PUSH2 0x445 SWAP2 SWAP1 PUSH2 0x39F2 JUMP JUMPDEST PUSH1 0x40 MLOAD DUP1 SWAP2 SUB SWAP1 RETURN JUMPDEST CALLVALUE DUP1 ISZERO PUSH2 0x459 JUMPI PUSH0 DUP1 REVERT JUMPDEST POP PUSH2 0x462 PUSH2 0xE7C JUMP JUMPDEST STOP JUMPDEST CALLVALUE DUP1 ISZERO PUSH2 0x46F JUMPI PUSH0 DUP1 REVERT JUMPDEST POP PUSH2 0x478 PUSH2 0xE8F JUMP JUMPDEST PUSH1 0x40 MLOAD PUSH2 0x485 SWAP2 SWAP1 PUSH2 0x3B2E JUMP JUMPDEST PUSH1 0x40 MLOAD DUP1 SWAP2 SUB SWAP1 RETURN JUMPDEST CALLVALUE DUP1 ISZERO PUSH2 0x499 JUMPI PUSH0 DUP1 REVERT JUMPDEST POP PUSH2 0x4B4 PUSH1 0x4 DUP1 CALLDATASIZE SUB DUP2 ADD SWAP1 PUSH2 0x4AF SWAP2 SWAP1 PUSH2 0x3B03 JUMP JUMPDEST PUSH2 0xEA2 JUMP JUMPDEST STOP JUMPDEST CALLVALUE DUP1 ISZERO PUSH2 0x4C1 JUMPI PUSH0 DUP1 REVERT JUMPDEST POP PUSH2 0x4CA PUSH2 0xEED JUMP JUMPDEST PUSH1 0x40 MLOAD PUSH2 0x4D7 SWAP2 SWAP1 PUSH2 0x3962 JUMP JUMPDEST PUSH1 0x40 MLOAD DUP1 SWAP2 SUB SWAP1 RETURN JUMPDEST CALLVALUE DUP1 ISZERO PUSH2 0x4EB JUMPI PUSH0 DUP1 REVERT JUMPDEST POP PUSH2 0x4F4 PUSH2 0xF12 JUMP JUMPDEST PUSH1 0x40 MLOAD PUSH2 0x501 SWAP2 SWAP1 PUSH2 0x3962 JUMP JUMPDEST PUSH1 0x40 MLOAD DUP1 SWAP2 SUB SWAP1 RETURN JUMPDEST CALLVALUE DUP1 ISZERO PUSH2 0x515 JUMPI PUSH0 DUP1 REVERT JUMPDEST POP PUSH2 0x51E PUSH2 0xF3A JUMP JUMPDEST PUSH1 0x40 MLOAD PUSH2 0x52B SWAP2 SWAP1 PUSH2 0x38A5 JUMP JUMPDEST PUSH1 0x40 MLOAD DUP1 SWAP2 SUB SWAP1 RETURN JUMPDEST CALLVALUE DUP1 ISZERO PUSH2 0x53F JUMPI PUSH0 DUP1 REVERT JUMPDEST POP PUSH2 0x55A PUSH1 0x4 DUP1 CALLDATASIZE SUB DUP2 ADD SWAP1 PUSH2 0x555 SWAP2 SWAP1 PUSH2 0x38F8 JUMP JUMPDEST PUSH2 0xFCA JUMP JUMPDEST STOP JUMPDEST CALLVALUE DUP1 ISZERO PUSH2 0x567 JUMPI PUSH0 DUP1 REVERT JUMPDEST POP PUSH2 0x582 PUSH1 0x4 DUP1 CALLDATASIZE SUB DUP2 ADD SWAP1 PUSH2 0x57D SWAP2 SWAP1 PUSH2 0x3B71 JUMP JUMPDEST PUSH2 0x150A JUMP JUMPDEST STOP JUMPDEST CALLVALUE DUP1 ISZERO PUSH2 0x58F JUMPI PUSH0 DUP1 REVERT JUMPDEST POP PUSH2 0x5AA PUSH1 0x4 DUP1 CALLDATASIZE SUB DUP2 ADD SWAP1 PUSH2 0x5A5 SWAP2 SWAP1 PUSH2 0x38F8 JUMP JUMPDEST PUSH2 0x1610 JUMP JUMPDEST STOP JUMPDEST PUSH2 0x5C6 PUSH1 0x4 DUP1 CALLDATASIZE SUB DUP2 ADD SWAP1 PUSH2 0x5C1 SWAP2 SWAP1 PUSH2 0x3CDB JUMP JUMPDEST PUSH2 0x18D8 JUMP JUMPDEST STOP JUMPDEST CALLVALUE DUP1 ISZERO PUSH2 0x5D3 JUMPI PUSH0 DUP1 REVERT JUMPDEST POP PUSH2 0x5DC PUSH2 0x1929 JUMP JUMPDEST PUSH1 0x40 MLOAD PUSH2 0x5E9 SWAP2 SWAP1 PUSH2 0x39F2 JUMP JUMPDEST PUSH1 0x40 MLOAD DUP1 SWAP2 SUB SWAP1 RETURN JUMPDEST CALLVALUE DUP1 ISZERO PUSH2 0x5FD JUMPI PUSH0 DUP1 REVERT JUMPDEST POP PUSH2 0x618 PUSH1 0x4 DUP1 CALLDATASIZE SUB DUP2 ADD SWAP1 PUSH2 0x613 SWAP2 SWAP1 PUSH2 0x38F8 JUMP JUMPDEST PUSH2 0x192F JUMP JUMPDEST PUSH1 0x40 MLOAD PUSH2 0x625 SWAP2 SWAP1 PUSH2 0x38A5 JUMP JUMPDEST PUSH1 0x40 MLOAD DUP1 SWAP2 SUB SWAP1 RETURN JUMPDEST CALLVALUE DUP1 ISZERO PUSH2 0x639 JUMPI PUSH0 DUP1 REVERT JUMPDEST POP PUSH2 0x654 PUSH1 0x4 DUP1 CALLDATASIZE SUB DUP2 ADD SWAP1 PUSH2 0x64F SWAP2 SWAP1 PUSH2 0x38F8 JUMP JUMPDEST PUSH2 0x1C46 JUMP JUMPDEST PUSH1 0x40 MLOAD PUSH2 0x663 SWAP4 SWAP3 SWAP2 SWAP1 PUSH2 0x3ACE JUMP JUMPDEST PUSH1 0x40 MLOAD DUP1 SWAP2 SUB SWAP1 RETURN JUMPDEST CALLVALUE DUP1 ISZERO PUSH2 0x677 JUMPI PUSH0 DUP1 REVERT JUMPDEST POP PUSH2 0x692 PUSH1 0x4 DUP1 CALLDATASIZE SUB DUP2 ADD SWAP1 PUSH2 0x68D SWAP2 SWAP1 PUSH2 0x38F8 JUMP JUMPDEST PUSH2 0x1C87 JUMP JUMPDEST PUSH1 0x40 MLOAD PUSH2 0x6A2 SWAP5 SWAP4 SWAP3 SWAP2 SWAP1 PUSH2 0x3D5B JUMP JUMPDEST PUSH1 0x40 MLOAD DUP1 SWAP2 SUB SWAP1 RETURN JUMPDEST CALLVALUE DUP1 ISZERO PUSH2 0x6B6 JUMPI PUSH0 DUP1 REVERT JUMPDEST POP PUSH2 0x6D1 PUSH1 0x4 DUP1 CALLDATASIZE SUB DUP2 ADD SWAP1 PUSH2 0x6CC SWAP2 SWAP1 PUSH2 0x3DBA JUMP JUMPDEST PUSH2 0x1ECB JUMP JUMPDEST PUSH1 0x40 MLOAD PUSH2 0x6DE SWAP2 SWAP1 PUSH2 0x381C JUMP JUMPDEST PUSH1 0x40 MLOAD DUP1 SWAP2 SUB SWAP1 RETURN JUMPDEST CALLVALUE DUP1 ISZERO PUSH2 0x6F2 JUMPI PUSH0 DUP1 REVERT JUMPDEST POP PUSH2 0x70D PUSH1 0x4 DUP1 CALLDATASIZE SUB DUP2 ADD SWAP1 PUSH2 0x708 SWAP2 SWAP1 PUSH2 0x3B03 JUMP JUMPDEST PUSH2 0x1F59 JUMP JUMPDEST STOP JUMPDEST PUSH0 PUSH4 0x1FFC9A7 PUSH1 0xE0 SHL DUP3 PUSH28 0xFFFFFFFFFFFFFFFFFFFFFFFFFFFFFFFFFFFFFFFFFFFFFFFFFFFFFFFF NOT AND EQ DUP1 PUSH2 0x769 JUMPI POP PUSH4 0x80AC58CD PUSH1 0xE0 SHL DUP3 PUSH28 0xFFFFFFFFFFFFFFFFFFFFFFFFFFFFFFFFFFFFFFFFFFFFFFFFFFFFFFFF NOT AND EQ JUMPDEST DUP1 PUSH2 0x799 JUMPI POP PUSH4 0x5B5E139F PUSH1 0xE0 SHL DUP3 PUSH28 0xFFFFFFFFFFFFFFFFFFFFFFFFFFFFFFFFFFFFFFFFFFFFFFFFFFFFFFFF NOT AND EQ JUMPDEST SWAP1 POP SWAP2 SWAP1 POP JUMP JUMPDEST PUSH1 0x60 PUSH1 0x2 DUP1 SLOAD PUSH2 0x7AF SWAP1 PUSH2 0x3E25 JUMP JUMPDEST DUP1 PUSH1 0x1F ADD PUSH1 0x20 DUP1 SWAP2 DIV MUL PUSH1 0x20 ADD PUSH1 0x40 MLOAD SWAP1 DUP2 ADD PUSH1 0x40 MSTORE DUP1 SWAP3 SWAP2 SWAP1 DUP2 DUP2 MSTORE PUSH1 0x20 ADD DUP3 DUP1 SLOAD PUSH2 0x7DB SWAP1 PUSH2 0x3E25 JUMP JUMPDEST DUP1 ISZERO PUSH2 0x826 JUMPI DUP1 PUSH1 0x1F LT PUSH2 0x7FD JUMPI PUSH2 0x100 DUP1 DUP4 SLOAD DIV MUL DUP4 MSTORE SWAP2 PUSH1 0x20 ADD SWAP2 PUSH2 0x826 JUMP JUMPDEST DUP3 ADD SWAP2 SWAP1 PUSH0 MSTORE PUSH1 0x20 PUSH0 KECCAK256 SWAP1 JUMPDEST DUP2 SLOAD DUP2 MSTORE SWAP1 PUSH1 0x1 ADD SWAP1 PUSH1 0x20 ADD DUP1 DUP4 GT PUSH2 0x809 JUMPI DUP3 SWAP1 SUB PUSH1 0x1F AND DUP3 ADD SWAP2 JUMPDEST POP POP POP POP POP SWAP1 POP SWAP1 JUMP JUMPDEST PUSH0 PUSH2 0x83A DUP3 PUSH2 0x1FDD JUMP JUMPDEST PUSH2 0x84F JUMPI PUSH2 0x84E PUSH4 0xCF4700E4 PUSH1 0xE0 SHL PUSH2 0x2080 JUMP JUMPDEST JUMPDEST PUSH1 0x6 PUSH0 DUP4 DUP2 MSTORE PUSH1 0x20 ADD SWAP1 DUP2 MSTORE PUSH1 0x20 ADD PUSH0 KECCAK256 PUSH0 ADD PUSH0 SWAP1 SLOAD SWAP1 PUSH2 0x100 EXP SWAP1 DIV PUSH20 0xFFFFFFFFFFFFFFFFFFFFFFFFFFFFFFFFFFFFFFFF AND SWAP1 POP SWAP2 SWAP1 POP JUMP JUMPDEST PUSH2 0x895 DUP3 DUP3 PUSH1 0x1 PUSH2 0x2088 JUMP JUMPDEST POP POP JUMP JUMPDEST PUSH0 PUSH2 0x8A2 PUSH2 0x21B2 JUMP JUMPDEST PUSH1 0x1 SLOAD PUSH0 SLOAD SUB SUB SWAP1 POP PUSH32 0xFFFFFFFFFFFFFFFFFFFFFFFFFFFFFFFFFFFFFFFFFFFFFFFFFFFFFFFFFFFFFFFF PUSH2 0x8D4 PUSH2 0x21B6 JUMP JUMPDEST EQ PUSH2 0x8E1 JUMPI PUSH1 0x8 SLOAD DUP2 ADD SWAP1 POP JUMPDEST SWAP1 JUMP JUMPDEST PUSH0 PUSH2 0x8EE DUP3 PUSH2 0x21DD JUMP JUMPDEST SWAP1 POP PUSH0 DUP5 PUSH20 0xFFFFFFFFFFFFFFFFFFFFFFFFFFFFFFFFFFFFFFFF AND SWAP1 POP DUP1 DUP3 PUSH20 0xFFFFFFFFFFFFFFFFFFFFFFFFFFFFFFFFFFFFFFFF AND EQ PUSH2 0x938 JUMPI PUSH2 0x937 PUSH4 0xA1148100 PUSH1 0xE0 SHL PUSH2 0x2080 JUMP JUMPDEST JUMPDEST PUSH0 DUP1 PUSH2 0x943 DUP6 PUSH2 0x22EC JUMP JUMPDEST SWAP2 POP SWAP2 POP PUSH2 0x96F DUP2 DUP5 PUSH2 0x954 PUSH2 0x230F JUMP JUMPDEST PUSH20 0xFFFFFFFFFFFFFFFFFFFFFFFFFFFFFFFFFFFFFFFF AND PUSH2 0x2316 JUMP JUMPDEST PUSH2 0x99A JUMPI PUSH2 0x984 DUP8 PUSH2 0x97F PUSH2 0x230F JUMP JUMPDEST PUSH2 0x1ECB JUMP JUMPDEST PUSH2 0x999 JUMPI PUSH2 0x998 PUSH4 0x59C896BE PUSH1 0xE0 SHL PUSH2 0x2080 JUMP JUMPDEST JUMPDEST JUMPDEST PUSH2 0x9A7 DUP8 DUP8 DUP8 PUSH1 0x1 PUSH2 0x2327 JUMP JUMPDEST DUP1 ISZERO PUSH2 0x9B1 JUMPI PUSH0 DUP3 SSTORE JUMPDEST PUSH1 0x5 PUSH0 DUP9 PUSH20 0xFFFFFFFFFFFFFFFFFFFFFFFFFFFFFFFFFFFFFFFF AND PUSH20 0xFFFFFFFFFFFFFFFFFFFFFFFFFFFFFFFFFFFFFFFF AND DUP2 MSTORE PUSH1 0x20 ADD SWAP1 DUP2 MSTORE PUSH1 0x20 ADD PUSH0 KECCAK256 PUSH0 DUP2 SLOAD PUSH1 0x1 SWAP1 SUB SWAP2 SWAP1 POP DUP2 SWAP1 SSTORE POP PUSH1 0x5 PUSH0 DUP8 PUSH20 0xFFFFFFFFFFFFFFFFFFFFFFFFFFFFFFFFFFFFFFFF AND PUSH20 0xFFFFFFFFFFFFFFFFFFFFFFFFFFFFFFFFFFFFFFFF AND DUP2 MSTORE PUSH1 0x20 ADD SWAP1 DUP2 MSTORE PUSH1 0x20 ADD PUSH0 KECCAK256 PUSH0 DUP2 SLOAD PUSH1 0x1 ADD SWAP2 SWAP1 POP DUP2 SWAP1 SSTORE POP PUSH2 0xA79 DUP7 PUSH2 0xA55 DUP10 DUP10 DUP9 PUSH2 0x232D JUMP JUMPDEST PUSH29 0x200000000000000000000000000000000000000000000000000000000 OR PUSH2 0x2354 JUMP JUMPDEST PUSH1 0x4 PUSH0 DUP8 DUP2 MSTORE PUSH1 0x20 ADD SWAP1 DUP2 MSTORE PUSH1 0x20 ADD PUSH0 KECCAK256 DUP2 SWAP1 SSTORE POP PUSH0 PUSH29 0x200000000000000000000000000000000000000000000000000000000 DUP6 AND SUB PUSH2 0xAF5 JUMPI PUSH0 PUSH1 0x1 DUP7 ADD SWAP1 POP PUSH0 PUSH1 0x4 PUSH0 DUP4 DUP2 MSTORE PUSH1 0x20 ADD SWAP1 DUP2 MSTORE PUSH1 0x20 ADD PUSH0 KECCAK256 SLOAD SUB PUSH2 0xAF3 JUMPI PUSH0 SLOAD DUP2 EQ PUSH2 0xAF2 JUMPI DUP5 PUSH1 0x4 PUSH0 DUP4 DUP2 MSTORE PUSH1 0x20 ADD SWAP1 DUP2 MSTORE PUSH1 0x20 ADD PUSH0 KECCAK256 DUP2 SWAP1 SSTORE POP JUMPDEST JUMPDEST POP JUMPDEST PUSH0 DUP7 PUSH20 0xFFFFFFFFFFFFFFFFFFFFFFFFFFFFFFFFFFFFFFFF AND SWAP1 POP DUP6 DUP2 DUP6 PUSH32 0xDDF252AD1BE2C89B69C2B068FC378DAA952BA7F163C4A11628F55A4DF523B3EF PUSH0 DUP1 LOG4 PUSH0 DUP2 SUB PUSH2 0xB4E JUMPI PUSH2 0xB4D PUSH4 0xEA553B34 PUSH1 0xE0 SHL PUSH2 0x2080 JUMP JUMPDEST JUMPDEST PUSH2 0xB5B DUP9 DUP9 DUP9 PUSH1 0x1 PUSH2 0x237E JUMP JUMPDEST POP POP POP POP POP POP POP POP JUMP JUMPDEST PUSH0 DUP1 PUSH0 PUSH1 0xB DUP1 SLOAD SWAP1 POP DUP5 LT PUSH2 0xBAF JUMPI PUSH1 0x40 MLOAD PUSH32 0x8C379A000000000000000000000000000000000000000000000000000000000 DUP2 MSTORE PUSH1 0x4 ADD PUSH2 0xBA6 SWAP1 PUSH2 0x3E9F JUMP JUMPDEST PUSH1 0x40 MLOAD DUP1 SWAP2 SUB SWAP1 REVERT JUMPDEST PUSH0 PUSH1 0xB DUP6 DUP2 SLOAD DUP2 LT PUSH2 0xBC4 JUMPI PUSH2 0xBC3 PUSH2 0x3EBD JUMP JUMPDEST JUMPDEST SWAP1 PUSH0 MSTORE PUSH1 0x20 PUSH0 KECCAK256 SWAP1 PUSH1 0x3 MUL ADD PUSH1 0x40 MLOAD DUP1 PUSH1 0x60 ADD PUSH1 0x40 MSTORE SWAP1 DUP2 PUSH0 DUP3 ADD SLOAD DUP2 MSTORE PUSH1 0x20 ADD PUSH1 0x1 DUP3 ADD PUSH0 SWAP1 SLOAD SWAP1 PUSH2 0x100 EXP SWAP1 DIV PUSH1 0xFF AND PUSH1 0x4 DUP2 GT ISZERO PUSH2 0xC08 JUMPI PUSH2 0xC07 PUSH2 0x3A5B JUMP JUMPDEST JUMPDEST PUSH1 0x4 DUP2 GT ISZERO PUSH2 0xC1A JUMPI PUSH2 0xC19 PUSH2 0x3A5B JUMP JUMPDEST JUMPDEST DUP2 MSTORE PUSH1 0x20 ADD PUSH1 0x2 DUP3 ADD SLOAD DUP2 MSTORE POP POP SWAP1 POP DUP1 PUSH0 ADD MLOAD DUP2 PUSH1 0x20 ADD MLOAD DUP3 PUSH1 0x40 ADD MLOAD SWAP4 POP SWAP4 POP SWAP4 POP POP SWAP2 SWAP4 SWAP1 SWAP3 POP JUMP JUMPDEST PUSH2 0xC60 DUP4 DUP4 DUP4 PUSH1 0x40 MLOAD DUP1 PUSH1 0x20 ADD PUSH1 0x40 MSTORE DUP1 PUSH0 DUP2 MSTORE POP PUSH2 0x18D8 JUMP JUMPDEST POP POP POP JUMP JUMPDEST PUSH0 DUP1 PUSH0 DUP1 PUSH1 0xB DUP1 SLOAD SWAP1 POP SUB PUSH2 0xC83 JUMPI PUSH0 PUSH1 0x2 TIMESTAMP SWAP3 POP SWAP3 POP SWAP3 POP PUSH2 0xD25 JUMP JUMPDEST PUSH0 PUSH1 0xB PUSH1 0x1 PUSH1 0xB DUP1 SLOAD SWAP1 POP PUSH2 0xC98 SWAP2 SWAP1 PUSH2 0x3F17 JUMP JUMPDEST DUP2 SLOAD DUP2 LT PUSH2 0xCA9 JUMPI PUSH2 0xCA8 PUSH2 0x3EBD JUMP JUMPDEST JUMPDEST SWAP1 PUSH0 MSTORE PUSH1 0x20 PUSH0 KECCAK256 SWAP1 PUSH1 0x3 MUL ADD PUSH1 0x40 MLOAD DUP1 PUSH1 0x60 ADD PUSH1 0x40 MSTORE SWAP1 DUP2 PUSH0 DUP3 ADD SLOAD DUP2 MSTORE PUSH1 0x20 ADD PUSH1 0x1 DUP3 ADD PUSH0 SWAP1 SLOAD SWAP1 PUSH2 0x100 EXP SWAP1 DIV PUSH1 0xFF AND PUSH1 0x4 DUP2 GT ISZERO PUSH2 0xCED JUMPI PUSH2 0xCEC PUSH2 0x3A5B JUMP JUMPDEST JUMPDEST PUSH1 0x4 DUP2 GT ISZERO PUSH2 0xCFF JUMPI PUSH2 0xCFE PUSH2 0x3A5B JUMP JUMPDEST JUMPDEST DUP2 MSTORE PUSH1 0x20 ADD PUSH1 0x2 DUP3 ADD SLOAD DUP2 MSTORE POP POP SWAP1 POP DUP1 PUSH0 ADD MLOAD DUP2 PUSH1 0x20 ADD MLOAD DUP3 PUSH1 0x40 ADD MLOAD SWAP4 POP SWAP4 POP SWAP4 POP POP JUMPDEST SWAP1 SWAP2 SWAP3 JUMP JUMPDEST PUSH1 0xD SLOAD DUP2 JUMP JUMPDEST PUSH0 PUSH2 0xD3A DUP3 PUSH2 0x21DD JUMP JUMPDEST SWAP1 POP SWAP2 SWAP1 POP JUMP JUMPDEST PUSH0 PUSH1 0xB DUP1 SLOAD SWAP1 POP SWAP1 POP SWAP1 JUMP JUMPDEST PUSH1 0xE PUSH0 SWAP1 SLOAD SWAP1 PUSH2 0x100 EXP SWAP1 DIV PUSH20 0xFFFFFFFFFFFFFFFFFFFFFFFFFFFFFFFFFFFFFFFF AND PUSH20 0xFFFFFFFFFFFFFFFFFFFFFFFFFFFFFFFFFFFFFFFF AND CALLER PUSH20 0xFFFFFFFFFFFFFFFFFFFFFFFFFFFFFFFFFFFFFFFF AND EQ PUSH2 0xDDC JUMPI PUSH1 0x40 MLOAD PUSH32 0x8C379A000000000000000000000000000000000000000000000000000000000 DUP2 MSTORE PUSH1 0x4 ADD PUSH2 0xDD3 SWAP1 PUSH2 0x3F94 JUMP JUMPDEST PUSH1 0x40 MLOAD DUP1 SWAP2 SUB SWAP1 REVERT JUMPDEST PUSH2 0xDE5 DUP2 PUSH2 0x1610 JUMP JUMPDEST POP JUMP JUMPDEST PUSH0 DUP1 PUSH20 0xFFFFFFFFFFFFFFFFFFFFFFFFFFFFFFFFFFFFFFFF AND DUP3 PUSH20 0xFFFFFFFFFFFFFFFFFFFFFFFFFFFFFFFFFFFFFFFF AND SUB PUSH2 0xE2D JUMPI PUSH2 0xE2C PUSH4 0x8F4EB604 PUSH1 0xE0 SHL PUSH2 0x2080 JUMP JUMPDEST JUMPDEST PUSH8 0xFFFFFFFFFFFFFFFF PUSH1 0x5 PUSH0 DUP5 PUSH20 0xFFFFFFFFFFFFFFFFFFFFFFFFFFFFFFFFFFFFFFFF AND PUSH20 0xFFFFFFFFFFFFFFFFFFFFFFFFFFFFFFFFFFFFFFFF AND DUP2 MSTORE PUSH1 0x20 ADD SWAP1 DUP2 MSTORE PUSH1 0x20 ADD PUSH0 KECCAK256 SLOAD AND SWAP1 POP SWAP2 SWAP1 POP JUMP JUMPDEST PUSH2 0xE84 PUSH2 0x2384 JUMP JUMPDEST PUSH2 0xE8D PUSH0 PUSH2 0x240B JUMP JUMPDEST JUMP JUMPDEST PUSH1 0xE PUSH1 0x14 SWAP1 SLOAD SWAP1 PUSH2 0x100 EXP SWAP1 DIV PUSH1 0xFF AND DUP2 JUMP JUMPDEST PUSH2 0xEAA PUSH2 0x2384 JUMP JUMPDEST DUP1 PUSH1 0xE PUSH0 PUSH2 0x100 EXP DUP2 SLOAD DUP2 PUSH20 0xFFFFFFFFFFFFFFFFFFFFFFFFFFFFFFFFFFFFFFFF MUL NOT AND SWAP1 DUP4 PUSH20 0xFFFFFFFFFFFFFFFFFFFFFFFFFFFFFFFFFFFFFFFF AND MUL OR SWAP1 SSTORE POP POP JUMP JUMPDEST PUSH1 0xE PUSH0 SWAP1 SLOAD SWAP1 PUSH2 0x100 EXP SWAP1 DIV PUSH20 0xFFFFFFFFFFFFFFFFFFFFFFFFFFFFFFFFFFFFFFFF AND DUP2 JUMP JUMPDEST PUSH0 PUSH1 0x9 PUSH0 SWAP1 SLOAD SWAP1 PUSH2 0x100 EXP SWAP1 DIV PUSH20 0xFFFFFFFFFFFFFFFFFFFFFFFFFFFFFFFFFFFFFFFF AND SWAP1 POP SWAP1 JUMP JUMPDEST PUSH1 0x60 PUSH1 0x3 DUP1 SLOAD PUSH2 0xF49 SWAP1 PUSH2 0x3E25 JUMP JUMPDEST DUP1 PUSH1 0x1F ADD PUSH1 0x20 DUP1 SWAP2 DIV MUL PUSH1 0x20 ADD PUSH1 0x40 MLOAD SWAP1 DUP2 ADD PUSH1 0x40 MSTORE DUP1 SWAP3 SWAP2 SWAP1 DUP2 DUP2 MSTORE PUSH1 0x20 ADD DUP3 DUP1 SLOAD PUSH2 0xF75 SWAP1 PUSH2 0x3E25 JUMP JUMPDEST DUP1 ISZERO PUSH2 0xFC0 JUMPI DUP1 PUSH1 0x1F LT PUSH2 0xF97 JUMPI PUSH2 0x100 DUP1 DUP4 SLOAD DIV MUL DUP4 MSTORE SWAP2 PUSH1 0x20 ADD SWAP2 PUSH2 0xFC0 JUMP JUMPDEST DUP3 ADD SWAP2 SWAP1 PUSH0 MSTORE PUSH1 0x20 PUSH0 KECCAK256 SWAP1 JUMPDEST DUP2 SLOAD DUP2 MSTORE SWAP1 PUSH1 0x1 ADD SWAP1 PUSH1 0x20 ADD DUP1 DUP4 GT PUSH2 0xFA3 JUMPI DUP3 SWAP1 SUB PUSH1 0x1F AND DUP3 ADD SWAP2 JUMPDEST POP POP POP POP POP SWAP1 POP SWAP1 JUMP JUMPDEST PUSH0 PUSH2 0xFD3 PUSH2 0x24CE JUMP JUMPDEST SWAP1 POP PUSH2 0xFDF CALLER DUP4 PUSH2 0x24D6 JUMP JUMPDEST PUSH0 JUMPDEST DUP3 DUP2 LT ISZERO PUSH2 0x1505 JUMPI PUSH0 TIMESTAMP CALLER DUP4 DUP6 PUSH2 0xFF8 SWAP2 SWAP1 PUSH2 0x3FB2 JUMP JUMPDEST PUSH1 0x40 MLOAD PUSH1 0x20 ADD PUSH2 0x100A SWAP4 SWAP3 SWAP2 SWAP1 PUSH2 0x404A JUMP JUMPDEST PUSH1 0x40 MLOAD PUSH1 0x20 DUP2 DUP4 SUB SUB DUP2 MSTORE SWAP1 PUSH1 0x40 MSTORE DUP1 MLOAD SWAP1 PUSH1 0x20 ADD KECCAK256 PUSH0 SHR SWAP1 POP PUSH0 DUP1 PUSH1 0x2 DUP4 PUSH2 0x1033 SWAP2 SWAP1 PUSH2 0x40B3 JUMP JUMPDEST EQ PUSH2 0x1073 JUMPI PUSH1 0x40 MLOAD DUP1 PUSH1 0x40 ADD PUSH1 0x40 MSTORE DUP1 PUSH1 0x4 DUP2 MSTORE PUSH1 0x20 ADD PUSH32 0x4265617200000000000000000000000000000000000000000000000000000000 DUP2 MSTORE POP PUSH2 0x10AA JUMP JUMPDEST PUSH1 0x40 MLOAD DUP1 PUSH1 0x40 ADD PUSH1 0x40 MSTORE DUP1 PUSH1 0x4 DUP2 MSTORE PUSH1 0x20 ADD PUSH32 0x42756C6C00000000000000000000000000000000000000000000000000000000 DUP2 MSTORE POP JUMPDEST SWAP1 POP PUSH0 PUSH1 0x40 MLOAD DUP1 PUSH1 0x80 ADD PUSH1 0x40 MSTORE DUP1 PUSH1 0x40 MLOAD DUP1 PUSH1 0x40 ADD PUSH1 0x40 MSTORE DUP1 PUSH1 0x8 DUP2 MSTORE PUSH1 0x20 ADD PUSH32 0x4F6273696469616E000000000000000000000000000000000000000000000000 DUP2 MSTORE POP DUP2 MSTORE PUSH1 0x20 ADD PUSH1 0x40 MLOAD DUP1 PUSH1 0x40 ADD PUSH1 0x40 MSTORE DUP1 PUSH1 0x5 DUP2 MSTORE PUSH1 0x20 ADD PUSH32 0x536E6F7779000000000000000000000000000000000000000000000000000000 DUP2 MSTORE POP DUP2 MSTORE PUSH1 0x20 ADD PUSH1 0x40 MLOAD DUP1 PUSH1 0x40 ADD PUSH1 0x40 MSTORE DUP1 PUSH1 0x9 DUP2 MSTORE PUSH1 0x20 ADD PUSH32 0x466C616D65636F61740000000000000000000000000000000000000000000000 DUP2 MSTORE POP DUP2 MSTORE PUSH1 0x20 ADD PUSH1 0x40 MLOAD DUP1 PUSH1 0x40 ADD PUSH1 0x40 MSTORE DUP1 PUSH1 0x9 DUP2 MSTORE PUSH1 0x20 ADD PUSH32 0x417A757265686964650000000000000000000000000000000000000000000000 DUP2 MSTORE POP DUP2 MSTORE POP SWAP1 POP PUSH0 PUSH1 0x40 MLOAD DUP1 PUSH1 0x80 ADD PUSH1 0x40 MSTORE DUP1 PUSH1 0x40 MLOAD DUP1 PUSH1 0x40 ADD PUSH1 0x40 MSTORE DUP1 PUSH1 0x7 DUP2 MSTORE PUSH1 0x20 ADD PUSH32 0x456D6572616C6400000000000000000000000000000000000000000000000000 DUP2 MSTORE POP DUP2 MSTORE PUSH1 0x20 ADD PUSH1 0x40 MLOAD DUP1 PUSH1 0x40 ADD PUSH1 0x40 MSTORE DUP1 PUSH1 0x7 DUP2 MSTORE PUSH1 0x20 ADD PUSH32 0x4372696D736F6E00000000000000000000000000000000000000000000000000 DUP2 MSTORE POP DUP2 MSTORE PUSH1 0x20 ADD PUSH1 0x40 MLOAD DUP1 PUSH1 0x40 ADD PUSH1 0x40 MSTORE DUP1 PUSH1 0x4 DUP2 MSTORE PUSH1 0x20 ADD PUSH32 0x566F696400000000000000000000000000000000000000000000000000000000 DUP2 MSTORE POP DUP2 MSTORE PUSH1 0x20 ADD PUSH1 0x40 MLOAD DUP1 PUSH1 0x40 ADD PUSH1 0x40 MSTORE DUP1 PUSH1 0x8 DUP2 MSTORE PUSH1 0x20 ADD PUSH32 0x5361707068697265000000000000000000000000000000000000000000000000 DUP2 MSTORE POP DUP2 MSTORE POP SWAP1 POP PUSH0 PUSH1 0x40 MLOAD DUP1 PUSH1 0x80 ADD PUSH1 0x40 MSTORE DUP1 PUSH1 0x40 MLOAD DUP1 PUSH1 0x40 ADD PUSH1 0x40 MSTORE DUP1 PUSH1 0xB DUP2 MSTORE PUSH1 0x20 ADD PUSH32 0x476F6C64656E205065616B000000000000000000000000000000000000000000 DUP2 MSTORE POP DUP2 MSTORE PUSH1 0x20 ADD PUSH1 0x40 MLOAD DUP1 PUSH1 0x40 ADD PUSH1 0x40 MSTORE DUP1 PUSH1 0x9 DUP2 MSTORE PUSH1 0x20 ADD PUSH32 0x53746F726D726973650000000000000000000000000000000000000000000000 DUP2 MSTORE POP DUP2 MSTORE PUSH1 0x20 ADD PUSH1 0x40 MLOAD DUP1 PUSH1 0x40 ADD PUSH1 0x40 MSTORE DUP1 PUSH1 0xD DUP2 MSTORE PUSH1 0x20 ADD PUSH32 0x4D69646E69676874205A6F6E6500000000000000000000000000000000000000 DUP2 MSTORE POP DUP2 MSTORE PUSH1 0x20 ADD PUSH1 0x40 MLOAD DUP1 PUSH1 0x40 ADD PUSH1 0x40 MSTORE DUP1 PUSH1 0xB DUP2 MSTORE PUSH1 0x20 ADD PUSH32 0x41726374696320476C6F77000000000000000000000000000000000000000000 DUP2 MSTORE POP DUP2 MSTORE POP SWAP1 POP PUSH0 DUP4 PUSH1 0x4 DUP8 PUSH2 0x13A3 SWAP2 SWAP1 PUSH2 0x40B3 JUMP JUMPDEST PUSH1 0x4 DUP2 LT PUSH2 0x13B4 JUMPI PUSH2 0x13B3 PUSH2 0x3EBD JUMP JUMPDEST JUMPDEST PUSH1 0x20 MUL ADD MLOAD SWAP1 POP PUSH0 DUP4 PUSH1 0x4 PUSH1 0x8 DUP10 SWAP1 SHR PUSH2 0x13CE SWAP2 SWAP1 PUSH2 0x40B3 JUMP JUMPDEST PUSH1 0x4 DUP2 LT PUSH2 0x13DF JUMPI PUSH2 0x13DE PUSH2 0x3EBD JUMP JUMPDEST JUMPDEST PUSH1 0x20 MUL ADD MLOAD SWAP1 POP PUSH0 DUP4 PUSH1 0x4 PUSH1 0x10 DUP11 SWAP1 SHR PUSH2 0x13F9 SWAP2 SWAP1 PUSH2 0x40B3 JUMP JUMPDEST PUSH1 0x4 DUP2 LT PUSH2 0x140A JUMPI PUSH2 0x1409 PUSH2 0x3EBD JUMP JUMPDEST JUMPDEST PUSH1 0x20 MUL ADD MLOAD SWAP1 POP PUSH0 DUP10 DUP12 PUSH2 0x141E SWAP2 SWAP1 PUSH2 0x3FB2 JUMP JUMPDEST SWAP1 POP PUSH1 0x40 MLOAD DUP1 PUSH1 0x80 ADD PUSH1 0x40 MSTORE DUP1 DUP10 DUP2 MSTORE PUSH1 0x20 ADD DUP6 DUP2 MSTORE PUSH1 0x20 ADD DUP5 DUP2 MSTORE PUSH1 0x20 ADD DUP4 DUP2 MSTORE POP PUSH1 0xC PUSH0 DUP13 DUP15 PUSH2 0x1450 SWAP2 SWAP1 PUSH2 0x3FB2 JUMP JUMPDEST DUP2 MSTORE PUSH1 0x20 ADD SWAP1 DUP2 MSTORE PUSH1 0x20 ADD PUSH0 KECCAK256 PUSH0 DUP3 ADD MLOAD DUP2 PUSH0 ADD SWAP1 DUP2 PUSH2 0x1470 SWAP2 SWAP1 PUSH2 0x4280 JUMP JUMPDEST POP PUSH1 0x20 DUP3 ADD MLOAD DUP2 PUSH1 0x1 ADD SWAP1 DUP2 PUSH2 0x1486 SWAP2 SWAP1 PUSH2 0x4280 JUMP JUMPDEST POP PUSH1 0x40 DUP3 ADD MLOAD DUP2 PUSH1 0x2 ADD SWAP1 DUP2 PUSH2 0x149C SWAP2 SWAP1 PUSH2 0x4280 JUMP JUMPDEST POP PUSH1 0x60 DUP3 ADD MLOAD DUP2 PUSH1 0x3 ADD SWAP1 DUP2 PUSH2 0x14B2 SWAP2 SWAP1 PUSH2 0x4280 JUMP JUMPDEST POP SWAP1 POP POP PUSH32 0xBDEDE1F7A03F693215684F4651BFA43CB490B654DF9143D39EE4B35849914EE0 CALLER DUP3 PUSH1 0x40 MLOAD PUSH2 0x14E7 SWAP3 SWAP2 SWAP1 PUSH2 0x434F JUMP JUMPDEST PUSH1 0x40 MLOAD DUP1 SWAP2 SUB SWAP1 LOG1 POP POP POP POP POP POP POP POP POP DUP1 DUP1 PUSH1 0x1 ADD SWAP2 POP POP PUSH2 0xFE1 JUMP JUMPDEST POP POP POP JUMP JUMPDEST DUP1 PUSH1 0x7 PUSH0 PUSH2 0x1516 PUSH2 0x230F JUMP JUMPDEST PUSH20 0xFFFFFFFFFFFFFFFFFFFFFFFFFFFFFFFFFFFFFFFF AND PUSH20 0xFFFFFFFFFFFFFFFFFFFFFFFFFFFFFFFFFFFFFFFF AND DUP2 MSTORE PUSH1 0x20 ADD SWAP1 DUP2 MSTORE PUSH1 0x20 ADD PUSH0 KECCAK256 PUSH0 DUP5 PUSH20 0xFFFFFFFFFFFFFFFFFFFFFFFFFFFFFFFFFFFFFFFF AND PUSH20 0xFFFFFFFFFFFFFFFFFFFFFFFFFFFFFFFFFFFFFFFF AND DUP2 MSTORE PUSH1 0x20 ADD SWAP1 DUP2 MSTORE PUSH1 0x20 ADD PUSH0 KECCAK256 PUSH0 PUSH2 0x100 EXP DUP2 SLOAD DUP2 PUSH1 0xFF MUL NOT AND SWAP1 DUP4 ISZERO ISZERO MUL OR SWAP1 SSTORE POP DUP2 PUSH20 0xFFFFFFFFFFFFFFFFFFFFFFFFFFFFFFFFFFFFFFFF AND PUSH2 0x15BF PUSH2 0x230F JUMP JUMPDEST PUSH20 0xFFFFFFFFFFFFFFFFFFFFFFFFFFFFFFFFFFFFFFFF AND PUSH32 0x17307EAB39AB6107E8899845AD3D59BD9653F200F220920489CA2B5937696C31 DUP4 PUSH1 0x40 MLOAD PUSH2 0x1604 SWAP2 SWAP1 PUSH2 0x381C JUMP JUMPDEST PUSH1 0x40 MLOAD DUP1 SWAP2 SUB SWAP1 LOG3 POP POP JUMP JUMPDEST PUSH2 0x1618 PUSH2 0x2384 JUMP JUMPDEST PUSH2 0x258 PUSH1 0xA SLOAD PUSH2 0x1628 SWAP2 SWAP1 PUSH2 0x3FB2 JUMP JUMPDEST TIMESTAMP LT ISZERO PUSH2 0x166A JUMPI PUSH1 0x40 MLOAD PUSH32 0x8C379A000000000000000000000000000000000000000000000000000000000 DUP2 MSTORE PUSH1 0x4 ADD PUSH2 0x1661 SWAP1 PUSH2 0x43C0 JUMP JUMPDEST PUSH1 0x40 MLOAD DUP1 SWAP2 SUB SWAP1 REVERT JUMPDEST PUSH1 0x64 DUP2 GT ISZERO PUSH2 0x16AE JUMPI PUSH1 0x40 MLOAD PUSH32 0x8C379A000000000000000000000000000000000000000000000000000000000 DUP2 MSTORE PUSH1 0x4 ADD PUSH2 0x16A5 SWAP1 PUSH2 0x4428 JUMP JUMPDEST PUSH1 0x40 MLOAD DUP1 SWAP2 SUB SWAP1 REVERT JUMPDEST DUP1 PUSH1 0xD DUP2 SWAP1 SSTORE POP PUSH1 0x14 DUP2 LT ISZERO PUSH2 0x16ED JUMPI PUSH0 PUSH1 0xE PUSH1 0x14 PUSH2 0x100 EXP DUP2 SLOAD DUP2 PUSH1 0xFF MUL NOT AND SWAP1 DUP4 PUSH1 0x4 DUP2 GT ISZERO PUSH2 0x16E3 JUMPI PUSH2 0x16E2 PUSH2 0x3A5B JUMP JUMPDEST JUMPDEST MUL OR SWAP1 SSTORE POP PUSH2 0x17C7 JUMP JUMPDEST PUSH1 0x28 DUP2 LT ISZERO PUSH2 0x1726 JUMPI PUSH1 0x1 PUSH1 0xE PUSH1 0x14 PUSH2 0x100 EXP DUP2 SLOAD DUP2 PUSH1 0xFF MUL NOT AND SWAP1 DUP4 PUSH1 0x4 DUP2 GT ISZERO PUSH2 0x171C JUMPI PUSH2 0x171B PUSH2 0x3A5B JUMP JUMPDEST JUMPDEST MUL OR SWAP1 SSTORE POP PUSH2 0x17C6 JUMP JUMPDEST PUSH1 0x3C DUP2 LT ISZERO PUSH2 0x175F JUMPI PUSH1 0x2 PUSH1 0xE PUSH1 0x14 PUSH2 0x100 EXP DUP2 SLOAD DUP2 PUSH1 0xFF MUL NOT AND SWAP1 DUP4 PUSH1 0x4 DUP2 GT ISZERO PUSH2 0x1755 JUMPI PUSH2 0x1754 PUSH2 0x3A5B JUMP JUMPDEST JUMPDEST MUL OR SWAP1 SSTORE POP PUSH2 0x17C5 JUMP JUMPDEST PUSH1 0x50 DUP2 LT ISZERO PUSH2 0x1798 JUMPI PUSH1 0x3 PUSH1 0xE PUSH1 0x14 PUSH2 0x100 EXP DUP2 SLOAD DUP2 PUSH1 0xFF MUL NOT AND SWAP1 DUP4 PUSH1 0x4 DUP2 GT ISZERO PUSH2 0x178E JUMPI PUSH2 0x178D PUSH2 0x3A5B JUMP JUMPDEST JUMPDEST MUL OR SWAP1 SSTORE POP PUSH2 0x17C4 JUMP JUMPDEST PUSH1 0x4 PUSH1 0xE PUSH1 0x14 PUSH2 0x100 EXP DUP2 SLOAD DUP2 PUSH1 0xFF MUL NOT AND SWAP1 DUP4 PUSH1 0x4 DUP2 GT ISZERO PUSH2 0x17BE JUMPI PUSH2 0x17BD PUSH2 0x3A5B JUMP JUMPDEST JUMPDEST MUL OR SWAP1 SSTORE POP JUMPDEST JUMPDEST JUMPDEST JUMPDEST PUSH0 PUSH2 0x17D0 PUSH2 0x24CE JUMP JUMPDEST SUB ISZERO PUSH2 0x18CE JUMPI PUSH2 0x17DE PUSH2 0x24F3 JUMP JUMPDEST PUSH1 0xB PUSH1 0x40 MLOAD DUP1 PUSH1 0x60 ADD PUSH1 0x40 MSTORE DUP1 DUP4 DUP2 MSTORE PUSH1 0x20 ADD PUSH1 0xE PUSH1 0x14 SWAP1 SLOAD SWAP1 PUSH2 0x100 EXP SWAP1 DIV PUSH1 0xFF AND PUSH1 0x4 DUP2 GT ISZERO PUSH2 0x1813 JUMPI PUSH2 0x1812 PUSH2 0x3A5B JUMP JUMPDEST JUMPDEST DUP2 MSTORE PUSH1 0x20 ADD TIMESTAMP DUP2 MSTORE POP SWAP1 DUP1 PUSH1 0x1 DUP2 SLOAD ADD DUP1 DUP3 SSTORE DUP1 SWAP2 POP POP PUSH1 0x1 SWAP1 SUB SWAP1 PUSH0 MSTORE PUSH1 0x20 PUSH0 KECCAK256 SWAP1 PUSH1 0x3 MUL ADD PUSH0 SWAP1 SWAP2 SWAP1 SWAP2 SWAP1 SWAP2 POP PUSH0 DUP3 ADD MLOAD DUP2 PUSH0 ADD SSTORE PUSH1 0x20 DUP3 ADD MLOAD DUP2 PUSH1 0x1 ADD PUSH0 PUSH2 0x100 EXP DUP2 SLOAD DUP2 PUSH1 0xFF MUL NOT AND SWAP1 DUP4 PUSH1 0x4 DUP2 GT ISZERO PUSH2 0x1874 JUMPI PUSH2 0x1873 PUSH2 0x3A5B JUMP JUMPDEST JUMPDEST MUL OR SWAP1 SSTORE POP PUSH1 0x40 DUP3 ADD MLOAD DUP2 PUSH1 0x2 ADD SSTORE POP POP PUSH32 0x2C9D577B572B68C917C351FB7B06431AE28416CDD1283A61FA37F7B935C1638 DUP2 PUSH1 0xE PUSH1 0x14 SWAP1 SLOAD SWAP1 PUSH2 0x100 EXP SWAP1 DIV PUSH1 0xFF AND PUSH1 0x40 MLOAD PUSH2 0x18C5 SWAP3 SWAP2 SWAP1 PUSH2 0x4446 JUMP JUMPDEST PUSH1 0x40 MLOAD DUP1 SWAP2 SUB SWAP1 LOG1 JUMPDEST TIMESTAMP PUSH1 0xA DUP2 SWAP1 SSTORE POP POP JUMP JUMPDEST PUSH2 0x18E3 DUP5 DUP5 DUP5 PUSH2 0x8E4 JUMP JUMPDEST PUSH0 DUP4 PUSH20 0xFFFFFFFFFFFFFFFFFFFFFFFFFFFFFFFFFFFFFFFF AND EXTCODESIZE EQ PUSH2 0x1923 JUMPI PUSH2 0x190D DUP5 DUP5 DUP5 DUP5 PUSH2 0x2AD6 JUMP JUMPDEST PUSH2 0x1922 JUMPI PUSH2 0x1921 PUSH4 0xD1A57ED6 PUSH1 0xE0 SHL PUSH2 0x2080 JUMP JUMPDEST JUMPDEST JUMPDEST POP POP POP POP JUMP JUMPDEST PUSH1 0xA SLOAD DUP2 JUMP JUMPDEST PUSH1 0x60 PUSH2 0x193A DUP3 PUSH2 0x1FDD JUMP JUMPDEST PUSH2 0x1979 JUMPI PUSH1 0x40 MLOAD PUSH32 0x8C379A000000000000000000000000000000000000000000000000000000000 DUP2 MSTORE PUSH1 0x4 ADD PUSH2 0x1970 SWAP1 PUSH2 0x44B7 JUMP JUMPDEST PUSH1 0x40 MLOAD DUP1 SWAP2 SUB SWAP1 REVERT JUMPDEST PUSH0 PUSH1 0xC PUSH0 DUP5 DUP2 MSTORE PUSH1 0x20 ADD SWAP1 DUP2 MSTORE PUSH1 0x20 ADD PUSH0 KECCAK256 PUSH1 0x40 MLOAD DUP1 PUSH1 0x80 ADD PUSH1 0x40 MSTORE SWAP1 DUP2 PUSH0 DUP3 ADD DUP1 SLOAD PUSH2 0x19A5 SWAP1 PUSH2 0x3E25 JUMP JUMPDEST DUP1 PUSH1 0x1F ADD PUSH1 0x20 DUP1 SWAP2 DIV MUL PUSH1 0x20 ADD PUSH1 0x40 MLOAD SWAP1 DUP2 ADD PUSH1 0x40 MSTORE DUP1 SWAP3 SWAP2 SWAP1 DUP2 DUP2 MSTORE PUSH1 0x20 ADD DUP3 DUP1 SLOAD PUSH2 0x19D1 SWAP1 PUSH2 0x3E25 JUMP JUMPDEST DUP1 ISZERO PUSH2 0x1A1C JUMPI DUP1 PUSH1 0x1F LT PUSH2 0x19F3 JUMPI PUSH2 0x100 DUP1 DUP4 SLOAD DIV MUL DUP4 MSTORE SWAP2 PUSH1 0x20 ADD SWAP2 PUSH2 0x1A1C JUMP JUMPDEST DUP3 ADD SWAP2 SWAP1 PUSH0 MSTORE PUSH1 0x20 PUSH0 KECCAK256 SWAP1 JUMPDEST DUP2 SLOAD DUP2 MSTORE SWAP1 PUSH1 0x1 ADD SWAP1 PUSH1 0x20 ADD DUP1 DUP4 GT PUSH2 0x19FF JUMPI DUP3 SWAP1 SUB PUSH1 0x1F AND DUP3 ADD SWAP2 JUMPDEST POP POP POP POP POP DUP2 MSTORE PUSH1 0x20 ADD PUSH1 0x1 DUP3 ADD DUP1 SLOAD PUSH2 0x1A35 SWAP1 PUSH2 0x3E25 JUMP JUMPDEST DUP1 PUSH1 0x1F ADD PUSH1 0x20 DUP1 SWAP2 DIV MUL PUSH1 0x20 ADD PUSH1 0x40 MLOAD SWAP1 DUP2 ADD PUSH1 0x40 MSTORE DUP1 SWAP3 SWAP2 SWAP1 DUP2 DUP2 MSTORE PUSH1 0x20 ADD DUP3 DUP1 SLOAD PUSH2 0x1A61 SWAP1 PUSH2 0x3E25 JUMP JUMPDEST DUP1 ISZERO PUSH2 0x1AAC JUMPI DUP1 PUSH1 0x1F LT PUSH2 0x1A83 JUMPI PUSH2 0x100 DUP1 DUP4 SLOAD DIV MUL DUP4 MSTORE SWAP2 PUSH1 0x20 ADD SWAP2 PUSH2 0x1AAC JUMP JUMPDEST DUP3 ADD SWAP2 SWAP1 PUSH0 MSTORE PUSH1 0x20 PUSH0 KECCAK256 SWAP1 JUMPDEST DUP2 SLOAD DUP2 MSTORE SWAP1 PUSH1 0x1 ADD SWAP1 PUSH1 0x20 ADD DUP1 DUP4 GT PUSH2 0x1A8F JUMPI DUP3 SWAP1 SUB PUSH1 0x1F AND DUP3 ADD SWAP2 JUMPDEST POP POP POP POP POP DUP2 MSTORE PUSH1 0x20 ADD PUSH1 0x2 DUP3 ADD DUP1 SLOAD PUSH2 0x1AC5 SWAP1 PUSH2 0x3E25 JUMP JUMPDEST DUP1 PUSH1 0x1F ADD PUSH1 0x20 DUP1 SWAP2 DIV MUL PUSH1 0x20 ADD PUSH1 0x40 MLOAD SWAP1 DUP2 ADD PUSH1 0x40 MSTORE DUP1 SWAP3 SWAP2 SWAP1 DUP2 DUP2 MSTORE PUSH1 0x20 ADD DUP3 DUP1 SLOAD PUSH2 0x1AF1 SWAP1 PUSH2 0x3E25 JUMP JUMPDEST DUP1 ISZERO PUSH2 0x1B3C JUMPI DUP1 PUSH1 0x1F LT PUSH2 0x1B13 JUMPI PUSH2 0x100 DUP1 DUP4 SLOAD DIV MUL DUP4 MSTORE SWAP2 PUSH1 0x20 ADD SWAP2 PUSH2 0x1B3C JUMP JUMPDEST DUP3 ADD SWAP2 SWAP1 PUSH0 MSTORE PUSH1 0x20 PUSH0 KECCAK256 SWAP1 JUMPDEST DUP2 SLOAD DUP2 MSTORE SWAP1 PUSH1 0x1 ADD SWAP1 PUSH1 0x20 ADD DUP1 DUP4 GT PUSH2 0x1B1F JUMPI DUP3 SWAP1 SUB PUSH1 0x1F AND DUP3 ADD SWAP2 JUMPDEST POP POP POP POP POP DUP2 MSTORE PUSH1 0x20 ADD PUSH1 0x3 DUP3 ADD DUP1 SLOAD PUSH2 0x1B55 SWAP1 PUSH2 0x3E25 JUMP JUMPDEST DUP1 PUSH1 0x1F ADD PUSH1 0x20 DUP1 SWAP2 DIV MUL PUSH1 0x20 ADD PUSH1 0x40 MLOAD SWAP1 DUP2 ADD PUSH1 0x40 MSTORE DUP1 SWAP3 SWAP2 SWAP1 DUP2 DUP2 MSTORE PUSH1 0x20 ADD DUP3 DUP1 SLOAD PUSH2 0x1B81 SWAP1 PUSH2 0x3E25 JUMP JUMPDEST DUP1 ISZERO PUSH2 0x1BCC JUMPI DUP1 PUSH1 0x1F LT PUSH2 0x1BA3 JUMPI PUSH2 0x100 DUP1 DUP4 SLOAD DIV MUL DUP4 MSTORE SWAP2 PUSH1 0x20 ADD SWAP2 PUSH2 0x1BCC JUMP JUMPDEST DUP3 ADD SWAP2 SWAP1 PUSH0 MSTORE PUSH1 0x20 PUSH0 KECCAK256 SWAP1 JUMPDEST DUP2 SLOAD DUP2 MSTORE SWAP1 PUSH1 0x1 ADD SWAP1 PUSH1 0x20 ADD DUP1 DUP4 GT PUSH2 0x1BAF JUMPI DUP3 SWAP1 SUB PUSH1 0x1F AND DUP3 ADD SWAP2 JUMPDEST POP POP POP POP POP DUP2 MSTORE POP POP SWAP1 POP PUSH0 PUSH2 0x1BE1 DUP3 PUSH2 0x2C00 JUMP JUMPDEST SWAP1 POP PUSH2 0x1BEC DUP5 PUSH2 0x2C9B JUMP JUMPDEST DUP2 DUP4 PUSH0 ADD MLOAD DUP5 PUSH1 0x20 ADD MLOAD DUP6 PUSH1 0x40 ADD MLOAD DUP7 PUSH1 0x60 ADD MLOAD PUSH2 0x1C18 PUSH1 0xE PUSH1 0x14 SWAP1 SLOAD SWAP1 PUSH2 0x100 EXP SWAP1 DIV PUSH1 0xFF AND PUSH2 0x2CEA JUMP JUMPDEST PUSH1 0x40 MLOAD PUSH1 0x20 ADD PUSH2 0x1C2E SWAP8 SWAP7 SWAP6 SWAP5 SWAP4 SWAP3 SWAP2 SWAP1 PUSH2 0x4A23 JUMP JUMPDEST PUSH1 0x40 MLOAD PUSH1 0x20 DUP2 DUP4 SUB SUB DUP2 MSTORE SWAP1 PUSH1 0x40 MSTORE SWAP3 POP POP POP SWAP2 SWAP1 POP JUMP JUMPDEST PUSH1 0xB DUP2 DUP2 SLOAD DUP2 LT PUSH2 0x1C55 JUMPI PUSH0 DUP1 REVERT JUMPDEST SWAP1 PUSH0 MSTORE PUSH1 0x20 PUSH0 KECCAK256 SWAP1 PUSH1 0x3 MUL ADD PUSH0 SWAP2 POP SWAP1 POP DUP1 PUSH0 ADD SLOAD SWAP1 DUP1 PUSH1 0x1 ADD PUSH0 SWAP1 SLOAD SWAP1 PUSH2 0x100 EXP SWAP1 DIV PUSH1 0xFF AND SWAP1 DUP1 PUSH1 0x2 ADD SLOAD SWAP1 POP DUP4 JUMP JUMPDEST PUSH1 0xC PUSH1 0x20 MSTORE DUP1 PUSH0 MSTORE PUSH1 0x40 PUSH0 KECCAK256 PUSH0 SWAP2 POP SWAP1 POP DUP1 PUSH0 ADD DUP1 SLOAD PUSH2 0x1CA6 SWAP1 PUSH2 0x3E25 JUMP JUMPDEST DUP1 PUSH1 0x1F ADD PUSH1 0x20 DUP1 SWAP2 DIV MUL PUSH1 0x20 ADD PUSH1 0x40 MLOAD SWAP1 DUP2 ADD PUSH1 0x40 MSTORE DUP1 SWAP3 SWAP2 SWAP1 DUP2 DUP2 MSTORE PUSH1 0x20 ADD DUP3 DUP1 SLOAD PUSH2 0x1CD2 SWAP1 PUSH2 0x3E25 JUMP JUMPDEST DUP1 ISZERO PUSH2 0x1D1D JUMPI DUP1 PUSH1 0x1F LT PUSH2 0x1CF4 JUMPI PUSH2 0x100 DUP1 DUP4 SLOAD DIV MUL DUP4 MSTORE SWAP2 PUSH1 0x20 ADD SWAP2 PUSH2 0x1D1D JUMP JUMPDEST DUP3 ADD SWAP2 SWAP1 PUSH0 MSTORE PUSH1 0x20 PUSH0 KECCAK256 SWAP1 JUMPDEST DUP2 SLOAD DUP2 MSTORE SWAP1 PUSH1 0x1 ADD SWAP1 PUSH1 0x20 ADD DUP1 DUP4 GT PUSH2 0x1D00 JUMPI DUP3 SWAP1 SUB PUSH1 0x1F AND DUP3 ADD SWAP2 JUMPDEST POP POP POP POP POP SWAP1 DUP1 PUSH1 0x1 ADD DUP1 SLOAD PUSH2 0x1D32 SWAP1 PUSH2 0x3E25 JUMP JUMPDEST DUP1 PUSH1 0x1F ADD PUSH1 0x20 DUP1 SWAP2 DIV MUL PUSH1 0x20 ADD PUSH1 0x40 MLOAD SWAP1 DUP2 ADD PUSH1 0x40 MSTORE DUP1 SWAP3 SWAP2 SWAP1 DUP2 DUP2 MSTORE PUSH1 0x20 ADD DUP3 DUP1 SLOAD PUSH2 0x1D5E SWAP1 PUSH2 0x3E25 JUMP JUMPDEST DUP1 ISZERO PUSH2 0x1DA9 JUMPI DUP1 PUSH1 0x1F LT PUSH2 0x1D80 JUMPI PUSH2 0x100 DUP1 DUP4 SLOAD DIV MUL DUP4 MSTORE SWAP2 PUSH1 0x20 ADD SWAP2 PUSH2 0x1DA9 JUMP JUMPDEST DUP3 ADD SWAP2 SWAP1 PUSH0 MSTORE PUSH1 0x20 PUSH0 KECCAK256 SWAP1 JUMPDEST DUP2 SLOAD DUP2 MSTORE SWAP1 PUSH1 0x1 ADD SWAP1 PUSH1 0x20 ADD DUP1 DUP4 GT PUSH2 0x1D8C JUMPI DUP3 SWAP1 SUB PUSH1 0x1F AND DUP3 ADD SWAP2 JUMPDEST POP POP POP POP POP SWAP1 DUP1 PUSH1 0x2 ADD DUP1 SLOAD PUSH2 0x1DBE SWAP1 PUSH2 0x3E25 JUMP JUMPDEST DUP1 PUSH1 0x1F ADD PUSH1 0x20 DUP1 SWAP2 DIV MUL PUSH1 0x20 ADD PUSH1 0x40 MLOAD SWAP1 DUP2 ADD PUSH1 0x40 MSTORE DUP1 SWAP3 SWAP2 SWAP1 DUP2 DUP2 MSTORE PUSH1 0x20 ADD DUP3 DUP1 SLOAD PUSH2 0x1DEA SWAP1 PUSH2 0x3E25 JUMP JUMPDEST DUP1 ISZERO PUSH2 0x1E35 JUMPI DUP1 PUSH1 0x1F LT PUSH2 0x1E0C JUMPI PUSH2 0x100 DUP1 DUP4 SLOAD DIV MUL DUP4 MSTORE SWAP2 PUSH1 0x20 ADD SWAP2 PUSH2 0x1E35 JUMP JUMPDEST DUP3 ADD SWAP2 SWAP1 PUSH0 MSTORE PUSH1 0x20 PUSH0 KECCAK256 SWAP1 JUMPDEST DUP2 SLOAD DUP2 MSTORE SWAP1 PUSH1 0x1 ADD SWAP1 PUSH1 0x20 ADD DUP1 DUP4 GT PUSH2 0x1E18 JUMPI DUP3 SWAP1 SUB PUSH1 0x1F AND DUP3 ADD SWAP2 JUMPDEST POP POP POP POP POP SWAP1 DUP1 PUSH1 0x3 ADD DUP1 SLOAD PUSH2 0x1E4A SWAP1 PUSH2 0x3E25 JUMP JUMPDEST DUP1 PUSH1 0x1F ADD PUSH1 0x20 DUP1 SWAP2 DIV MUL PUSH1 0x20 ADD PUSH1 0x40 MLOAD SWAP1 DUP2 ADD PUSH1 0x40 MSTORE DUP1 SWAP3 SWAP2 SWAP1 DUP2 DUP2 MSTORE PUSH1 0x20 ADD DUP3 DUP1 SLOAD PUSH2 0x1E76 SWAP1 PUSH2 0x3E25 JUMP JUMPDEST DUP1 ISZERO PUSH2 0x1EC1 JUMPI DUP1 PUSH1 0x1F LT PUSH2 0x1E98 JUMPI PUSH2 0x100 DUP1 DUP4 SLOAD DIV MUL DUP4 MSTORE SWAP2 PUSH1 0x20 ADD SWAP2 PUSH2 0x1EC1 JUMP JUMPDEST DUP3 ADD SWAP2 SWAP1 PUSH0 MSTORE PUSH1 0x20 PUSH0 KECCAK256 SWAP1 JUMPDEST DUP2 SLOAD DUP2 MSTORE SWAP1 PUSH1 0x1 ADD SWAP1 PUSH1 0x20 ADD DUP1 DUP4 GT PUSH2 0x1EA4 JUMPI DUP3 SWAP1 SUB PUSH1 0x1F AND DUP3 ADD SWAP2 JUMPDEST POP POP POP POP POP SWAP1 POP DUP5 JUMP JUMPDEST PUSH0 PUSH1 0x7 PUSH0 DUP5 PUSH20 0xFFFFFFFFFFFFFFFFFFFFFFFFFFFFFFFFFFFFFFFF AND PUSH20 0xFFFFFFFFFFFFFFFFFFFFFFFFFFFFFFFFFFFFFFFF AND DUP2 MSTORE PUSH1 0x20 ADD SWAP1 DUP2 MSTORE PUSH1 0x20 ADD PUSH0 KECCAK256 PUSH0 DUP4 PUSH20 0xFFFFFFFFFFFFFFFFFFFFFFFFFFFFFFFFFFFFFFFF AND PUSH20 0xFFFFFFFFFFFFFFFFFFFFFFFFFFFFFFFFFFFFFFFF AND DUP2 MSTORE PUSH1 0x20 ADD SWAP1 DUP2 MSTORE PUSH1 0x20 ADD PUSH0 KECCAK256 PUSH0 SWAP1 SLOAD SWAP1 PUSH2 0x100 EXP SWAP1 DIV PUSH1 0xFF AND SWAP1 POP SWAP3 SWAP2 POP POP JUMP JUMPDEST PUSH2 0x1F61 PUSH2 0x2384 JUMP JUMPDEST PUSH0 PUSH20 0xFFFFFFFFFFFFFFFFFFFFFFFFFFFFFFFFFFFFFFFF AND DUP2 PUSH20 0xFFFFFFFFFFFFFFFFFFFFFFFFFFFFFFFFFFFFFFFF AND SUB PUSH2 0x1FD1 JUMPI PUSH0 PUSH1 0x40 MLOAD PUSH32 0x1E4FBDF700000000000000000000000000000000000000000000000000000000 DUP2 MSTORE PUSH1 0x4 ADD PUSH2 0x1FC8 SWAP2 SWAP1 PUSH2 0x3962 JUMP JUMPDEST PUSH1 0x40 MLOAD DUP1 SWAP2 SUB SWAP1 REVERT JUMPDEST PUSH2 0x1FDA DUP2 PUSH2 0x240B JUMP JUMPDEST POP JUMP JUMPDEST PUSH0 DUP2 PUSH2 0x1FE7 PUSH2 0x21B2 JUMP JUMPDEST GT PUSH2 0x207A JUMPI PUSH2 0x1FF4 PUSH2 0x21B6 JUMP JUMPDEST DUP3 GT ISZERO PUSH2 0x201C JUMPI PUSH2 0x2015 PUSH1 0x4 PUSH0 DUP5 DUP2 MSTORE PUSH1 0x20 ADD SWAP1 DUP2 MSTORE PUSH1 0x20 ADD PUSH0 KECCAK256 SLOAD PUSH2 0x2F35 JUMP JUMPDEST SWAP1 POP PUSH2 0x207B JUMP JUMPDEST PUSH0 SLOAD DUP3 LT ISZERO PUSH2 0x2079 JUMPI PUSH0 JUMPDEST PUSH0 PUSH1 0x4 PUSH0 DUP6 DUP2 MSTORE PUSH1 0x20 ADD SWAP1 DUP2 MSTORE PUSH1 0x20 ADD PUSH0 KECCAK256 SLOAD SWAP2 POP DUP2 SUB PUSH2 0x2053 JUMPI DUP3 PUSH2 0x204C SWAP1 PUSH2 0x4B58 JUMP JUMPDEST SWAP3 POP PUSH2 0x2027 JUMP JUMPDEST PUSH0 PUSH29 0x100000000000000000000000000000000000000000000000000000000 DUP3 AND EQ SWAP2 POP POP JUMPDEST JUMPDEST JUMPDEST SWAP2 SWAP1 POP JUMP JUMPDEST DUP1 PUSH0 MSTORE PUSH1 0x4 PUSH0 REVERT JUMPDEST PUSH0 PUSH2 0x2092 DUP4 PUSH2 0xD30 JUMP JUMPDEST SWAP1 POP DUP2 DUP1 ISZERO PUSH2 0x20D4 JUMPI POP DUP1 PUSH20 0xFFFFFFFFFFFFFFFFFFFFFFFFFFFFFFFFFFFFFFFF AND PUSH2 0x20BB PUSH2 0x230F JUMP JUMPDEST PUSH20 0xFFFFFFFFFFFFFFFFFFFFFFFFFFFFFFFFFFFFFFFF AND EQ ISZERO JUMPDEST ISZERO PUSH2 0x2100 JUMPI PUSH2 0x20EA DUP2 PUSH2 0x20E5 PUSH2 0x230F JUMP JUMPDEST PUSH2 0x1ECB JUMP JUMPDEST PUSH2 0x20FF JUMPI PUSH2 0x20FE PUSH4 0xCFB3B942 PUSH1 0xE0 SHL PUSH2 0x2080 JUMP JUMPDEST JUMPDEST JUMPDEST DUP4 PUSH1 0x6 PUSH0 DUP6 DUP2 MSTORE PUSH1 0x20 ADD SWAP1 DUP2 MSTORE PUSH1 0x20 ADD PUSH0 KECCAK256 PUSH0 ADD PUSH0 PUSH2 0x100 EXP DUP2 SLOAD DUP2 PUSH20 0xFFFFFFFFFFFFFFFFFFFFFFFFFFFFFFFFFFFFFFFF MUL NOT AND SWAP1 DUP4 PUSH20 0xFFFFFFFFFFFFFFFFFFFFFFFFFFFFFFFFFFFFFFFF AND MUL OR SWAP1 SSTORE POP DUP3 DUP5 PUSH20 0xFFFFFFFFFFFFFFFFFFFFFFFFFFFFFFFFFFFFFFFF AND DUP3 PUSH20 0xFFFFFFFFFFFFFFFFFFFFFFFFFFFFFFFFFFFFFFFF AND PUSH32 0x8C5BE1E5EBEC7D5BD14F71427D1E84F3DD0314C0F7B2291E5B200AC8C7C3B925 PUSH1 0x40 MLOAD PUSH1 0x40 MLOAD DUP1 SWAP2 SUB SWAP1 LOG4 POP POP POP POP JUMP JUMPDEST PUSH0 SWAP1 JUMP JUMPDEST PUSH0 PUSH32 0xFFFFFFFFFFFFFFFFFFFFFFFFFFFFFFFFFFFFFFFFFFFFFFFFFFFFFFFFFFFFFFFF SWAP1 POP SWAP1 JUMP JUMPDEST PUSH0 DUP2 PUSH2 0x21E7 PUSH2 0x21B2 JUMP JUMPDEST GT PUSH2 0x22D6 JUMPI PUSH1 0x4 PUSH0 DUP4 DUP2 MSTORE PUSH1 0x20 ADD SWAP1 DUP2 MSTORE PUSH1 0x20 ADD PUSH0 KECCAK256 SLOAD SWAP1 POP PUSH2 0x2208 PUSH2 0x21B6 JUMP JUMPDEST DUP3 GT ISZERO PUSH2 0x222D JUMPI PUSH2 0x2218 DUP2 PUSH2 0x2F35 JUMP JUMPDEST PUSH2 0x22E7 JUMPI PUSH2 0x222C PUSH4 0xDF2D9B42 PUSH1 0xE0 SHL PUSH2 0x2080 JUMP JUMPDEST JUMPDEST PUSH0 DUP2 SUB PUSH2 0x22AE JUMPI PUSH0 SLOAD DUP3 LT PUSH2 0x224D JUMPI PUSH2 0x224C PUSH4 0xDF2D9B42 PUSH1 0xE0 SHL PUSH2 0x2080 JUMP JUMPDEST JUMPDEST JUMPDEST PUSH1 0x4 PUSH0 DUP4 PUSH1 0x1 SWAP1 SUB SWAP4 POP DUP4 DUP2 MSTORE PUSH1 0x20 ADD SWAP1 DUP2 MSTORE PUSH1 0x20 ADD PUSH0 KECCAK256 SLOAD SWAP1 POP PUSH0 DUP2 SUB ISZERO PUSH2 0x22A9 JUMPI PUSH0 PUSH29 0x100000000000000000000000000000000000000000000000000000000 DUP3 AND SUB ISZERO PUSH2 0x22E7 JUMPI PUSH2 0x22A8 PUSH4 0xDF2D9B42 PUSH1 0xE0 SHL PUSH2 0x2080 JUMP JUMPDEST JUMPDEST PUSH2 0x224E JUMP JUMPDEST PUSH0 PUSH29 0x100000000000000000000000000000000000000000000000000000000 DUP3 AND SUB ISZERO PUSH2 0x22E7 JUMPI JUMPDEST PUSH2 0x22E6 PUSH4 0xDF2D9B42 PUSH1 0xE0 SHL PUSH2 0x2080 JUMP JUMPDEST JUMPDEST SWAP2 SWAP1 POP JUMP JUMPDEST PUSH0 DUP1 PUSH0 PUSH1 0x6 PUSH0 DUP6 DUP2 MSTORE PUSH1 0x20 ADD SWAP1 DUP2 MSTORE PUSH1 0x20 ADD PUSH0 KECCAK256 SWAP1 POP DUP1 SWAP3 POP DUP3 SLOAD SWAP2 POP POP SWAP2 POP SWAP2 JUMP JUMPDEST PUSH0 CALLER SWAP1 POP SWAP1 JUMP JUMPDEST PUSH0 DUP4 DUP3 EQ DUP4 DUP4 EQ OR SWAP1 POP SWAP4 SWAP3 POP POP POP JUMP JUMPDEST POP POP POP POP JUMP JUMPDEST PUSH0 DUP1 PUSH1 0xE8 DUP4 SWAP1 SHR SWAP1 POP PUSH1 0xE8 PUSH2 0x2343 DUP7 DUP7 DUP5 PUSH2 0x2F75 JUMP JUMPDEST PUSH3 0xFFFFFF AND SWAP1 SHL SWAP2 POP POP SWAP4 SWAP3 POP POP POP JUMP JUMPDEST PUSH0 PUSH20 0xFFFFFFFFFFFFFFFFFFFFFFFFFFFFFFFFFFFFFFFF DUP4 AND SWAP3 POP DUP2 TIMESTAMP PUSH1 0xA0 SHL OR DUP4 OR SWAP1 POP SWAP3 SWAP2 POP POP JUMP JUMPDEST POP POP POP POP JUMP JUMPDEST PUSH2 0x238C PUSH2 0x2F7D JUMP JUMPDEST PUSH20 0xFFFFFFFFFFFFFFFFFFFFFFFFFFFFFFFFFFFFFFFF AND PUSH2 0x23AA PUSH2 0xF12 JUMP JUMPDEST PUSH20 0xFFFFFFFFFFFFFFFFFFFFFFFFFFFFFFFFFFFFFFFF AND EQ PUSH2 0x2409 JUMPI PUSH2 0x23CD PUSH2 0x2F7D JUMP JUMPDEST PUSH1 0x40 MLOAD PUSH32 0x118CDAA700000000000000000000000000000000000000000000000000000000 DUP2 MSTORE PUSH1 0x4 ADD PUSH2 0x2400 SWAP2 SWAP1 PUSH2 0x3962 JUMP JUMPDEST PUSH1 0x40 MLOAD DUP1 SWAP2 SUB SWAP1 REVERT JUMPDEST JUMP JUMPDEST PUSH0 PUSH1 0x9 PUSH0 SWAP1 SLOAD SWAP1 PUSH2 0x100 EXP SWAP1 DIV PUSH20 0xFFFFFFFFFFFFFFFFFFFFFFFFFFFFFFFFFFFFFFFF AND SWAP1 POP DUP2 PUSH1 0x9 PUSH0 PUSH2 0x100 EXP DUP2 SLOAD DUP2 PUSH20 0xFFFFFFFFFFFFFFFFFFFFFFFFFFFFFFFFFFFFFFFF MUL NOT AND SWAP1 DUP4 PUSH20 0xFFFFFFFFFFFFFFFFFFFFFFFFFFFFFFFFFFFFFFFF AND MUL OR SWAP1 SSTORE POP DUP2 PUSH20 0xFFFFFFFFFFFFFFFFFFFFFFFFFFFFFFFFFFFFFFFF AND DUP2 PUSH20 0xFFFFFFFFFFFFFFFFFFFFFFFFFFFFFFFFFFFFFFFF AND PUSH32 0x8BE0079C531659141344CD1FD0A4F28419497F9722A3DAAFE3B4186F6B6457E0 PUSH1 0x40 MLOAD PUSH1 0x40 MLOAD DUP1 SWAP2 SUB SWAP1 LOG3 POP POP JUMP JUMPDEST PUSH0 DUP1 SLOAD SWAP1 POP SWAP1 JUMP JUMPDEST PUSH2 0x24EF DUP3 DUP3 PUSH1 0x40 MLOAD DUP1 PUSH1 0x20 ADD PUSH1 0x40 MSTORE DUP1 PUSH0 DUP2 MSTORE POP PUSH2 0x2F84 JUMP JUMPDEST POP POP JUMP JUMPDEST PUSH0 JUMPDEST PUSH2 0x24FD PUSH2 0x24CE JUMP JUMPDEST DUP2 LT ISZERO PUSH2 0x2AD3 JUMPI PUSH0 PUSH1 0xC PUSH0 DUP4 DUP2 MSTORE PUSH1 0x20 ADD SWAP1 DUP2 MSTORE PUSH1 0x20 ADD PUSH0 KECCAK256 SWAP1 POP PUSH0 PUSH1 0x4 DUP2 GT ISZERO PUSH2 0x252B JUMPI PUSH2 0x252A PUSH2 0x3A5B JUMP JUMPDEST JUMPDEST PUSH1 0xE PUSH1 0x14 SWAP1 SLOAD SWAP1 PUSH2 0x100 EXP SWAP1 DIV PUSH1 0xFF AND PUSH1 0x4 DUP2 GT ISZERO PUSH2 0x254D JUMPI PUSH2 0x254C PUSH2 0x3A5B JUMP JUMPDEST JUMPDEST SUB PUSH2 0x262C JUMPI PUSH1 0x40 MLOAD DUP1 PUSH1 0x40 ADD PUSH1 0x40 MSTORE DUP1 PUSH1 0x5 DUP2 MSTORE PUSH1 0x20 ADD PUSH32 0x417368656E000000000000000000000000000000000000000000000000000000 DUP2 MSTORE POP DUP2 PUSH1 0x1 ADD SWAP1 DUP2 PUSH2 0x2598 SWAP2 SWAP1 PUSH2 0x4280 JUMP JUMPDEST POP PUSH1 0x40 MLOAD DUP1 PUSH1 0x40 ADD PUSH1 0x40 MSTORE DUP1 PUSH1 0xB DUP2 MSTORE PUSH1 0x20 ADD PUSH32 0x44696D20456D6572616C64000000000000000000000000000000000000000000 DUP2 MSTORE POP DUP2 PUSH1 0x2 ADD SWAP1 DUP2 PUSH2 0x25DF SWAP2 SWAP1 PUSH2 0x4280 JUMP JUMPDEST POP PUSH1 0x40 MLOAD DUP1 PUSH1 0x40 ADD PUSH1 0x40 MSTORE DUP1 PUSH1 0x7 DUP2 MSTORE PUSH1 0x20 ADD PUSH32 0x466F677665696C00000000000000000000000000000000000000000000000000 DUP2 MSTORE POP DUP2 PUSH1 0x3 ADD SWAP1 DUP2 PUSH2 0x2626 SWAP2 SWAP1 PUSH2 0x4280 JUMP JUMPDEST POP PUSH2 0x2A7F JUMP JUMPDEST PUSH1 0x1 PUSH1 0x4 DUP2 GT ISZERO PUSH2 0x2640 JUMPI PUSH2 0x263F PUSH2 0x3A5B JUMP JUMPDEST JUMPDEST PUSH1 0xE PUSH1 0x14 SWAP1 SLOAD SWAP1 PUSH2 0x100 EXP SWAP1 DIV PUSH1 0xFF AND PUSH1 0x4 DUP2 GT ISZERO PUSH2 0x2662 JUMPI PUSH2 0x2661 PUSH2 0x3A5B JUMP JUMPDEST JUMPDEST SUB PUSH2 0x2741 JUMPI PUSH1 0x40 MLOAD DUP1 PUSH1 0x40 ADD PUSH1 0x40 MSTORE DUP1 PUSH1 0x6 DUP2 MSTORE PUSH1 0x20 ADD PUSH32 0x536861646F770000000000000000000000000000000000000000000000000000 DUP2 MSTORE POP DUP2 PUSH1 0x1 ADD SWAP1 DUP2 PUSH2 0x26AD SWAP2 SWAP1 PUSH2 0x4280 JUMP JUMPDEST POP PUSH1 0x40 MLOAD DUP1 PUSH1 0x40 ADD PUSH1 0x40 MSTORE DUP1 PUSH1 0xC DUP2 MSTORE PUSH1 0x20 ADD PUSH32 0x44756C6C204372696D736F6E0000000000000000000000000000000000000000 DUP2 MSTORE POP DUP2 PUSH1 0x2 ADD SWAP1 DUP2 PUSH2 0x26F4 SWAP2 SWAP1 PUSH2 0x4280 JUMP JUMPDEST POP PUSH1 0x40 MLOAD DUP1 PUSH1 0x40 ADD PUSH1 0x40 MSTORE DUP1 PUSH1 0xD DUP2 MSTORE PUSH1 0x20 ADD PUSH32 0x436C6F7564656420526964676500000000000000000000000000000000000000 DUP2 MSTORE POP DUP2 PUSH1 0x3 ADD SWAP1 DUP2 PUSH2 0x273B SWAP2 SWAP1 PUSH2 0x4280 JUMP JUMPDEST POP PUSH2 0x2A7E JUMP JUMPDEST PUSH1 0x2 PUSH1 0x4 DUP2 GT ISZERO PUSH2 0x2755 JUMPI PUSH2 0x2754 PUSH2 0x3A5B JUMP JUMPDEST JUMPDEST PUSH1 0xE PUSH1 0x14 SWAP1 SLOAD SWAP1 PUSH2 0x100 EXP SWAP1 DIV PUSH1 0xFF AND PUSH1 0x4 DUP2 GT ISZERO PUSH2 0x2777 JUMPI PUSH2 0x2776 PUSH2 0x3A5B JUMP JUMPDEST JUMPDEST SUB PUSH2 0x2856 JUMPI PUSH1 0x40 MLOAD DUP1 PUSH1 0x40 ADD PUSH1 0x40 MSTORE DUP1 PUSH1 0x8 DUP2 MSTORE PUSH1 0x20 ADD PUSH32 0x4F6273696469616E000000000000000000000000000000000000000000000000 DUP2 MSTORE POP DUP2 PUSH1 0x1 ADD SWAP1 DUP2 PUSH2 0x27C2 SWAP2 SWAP1 PUSH2 0x4280 JUMP JUMPDEST POP PUSH1 0x40 MLOAD DUP1 PUSH1 0x40 ADD PUSH1 0x40 MSTORE DUP1 PUSH1 0x7 DUP2 MSTORE PUSH1 0x20 ADD PUSH32 0x456D6572616C6400000000000000000000000000000000000000000000000000 DUP2 MSTORE POP DUP2 PUSH1 0x2 ADD SWAP1 DUP2 PUSH2 0x2809 SWAP2 SWAP1 PUSH2 0x4280 JUMP JUMPDEST POP PUSH1 0x40 MLOAD DUP1 PUSH1 0x40 ADD PUSH1 0x40 MSTORE DUP1 PUSH1 0xB DUP2 MSTORE PUSH1 0x20 ADD PUSH32 0x476F6C64656E205065616B000000000000000000000000000000000000000000 DUP2 MSTORE POP DUP2 PUSH1 0x3 ADD SWAP1 DUP2 PUSH2 0x2850 SWAP2 SWAP1 PUSH2 0x4280 JUMP JUMPDEST POP PUSH2 0x2A7D JUMP JUMPDEST PUSH1 0x3 PUSH1 0x4 DUP2 GT ISZERO PUSH2 0x286A JUMPI PUSH2 0x2869 PUSH2 0x3A5B JUMP JUMPDEST JUMPDEST PUSH1 0xE PUSH1 0x14 SWAP1 SLOAD SWAP1 PUSH2 0x100 EXP SWAP1 DIV PUSH1 0xFF AND PUSH1 0x4 DUP2 GT ISZERO PUSH2 0x288C JUMPI PUSH2 0x288B PUSH2 0x3A5B JUMP JUMPDEST JUMPDEST SUB PUSH2 0x296B JUMPI PUSH1 0x40 MLOAD DUP1 PUSH1 0x40 ADD PUSH1 0x40 MSTORE DUP1 PUSH1 0xA DUP2 MSTORE PUSH1 0x20 ADD PUSH32 0x427269676874676F6C6400000000000000000000000000000000000000000000 DUP2 MSTORE POP DUP2 PUSH1 0x1 ADD SWAP1 DUP2 PUSH2 0x28D7 SWAP2 SWAP1 PUSH2 0x4280 JUMP JUMPDEST POP PUSH1 0x40 MLOAD DUP1 PUSH1 0x40 ADD PUSH1 0x40 MSTORE DUP1 PUSH1 0xD DUP2 MSTORE PUSH1 0x20 ADD PUSH32 0x476C6F77696E6720416D62657200000000000000000000000000000000000000 DUP2 MSTORE POP DUP2 PUSH1 0x2 ADD SWAP1 DUP2 PUSH2 0x291E SWAP2 SWAP1 PUSH2 0x4280 JUMP JUMPDEST POP PUSH1 0x40 MLOAD DUP1 PUSH1 0x40 ADD PUSH1 0x40 MSTORE DUP1 PUSH1 0xE DUP2 MSTORE PUSH1 0x20 ADD PUSH32 0x53756E7269736520537465707065000000000000000000000000000000000000 DUP2 MSTORE POP DUP2 PUSH1 0x3 ADD SWAP1 DUP2 PUSH2 0x2965 SWAP2 SWAP1 PUSH2 0x4280 JUMP JUMPDEST POP PUSH2 0x2A7C JUMP JUMPDEST PUSH1 0x4 DUP1 DUP2 GT ISZERO PUSH2 0x297E JUMPI PUSH2 0x297D PUSH2 0x3A5B JUMP JUMPDEST JUMPDEST PUSH1 0xE PUSH1 0x14 SWAP1 SLOAD SWAP1 PUSH2 0x100 EXP SWAP1 DIV PUSH1 0xFF AND PUSH1 0x4 DUP2 GT ISZERO PUSH2 0x29A0 JUMPI PUSH2 0x299F PUSH2 0x3A5B JUMP JUMPDEST JUMPDEST SUB PUSH2 0x2A7B JUMPI PUSH1 0x40 MLOAD DUP1 PUSH1 0x40 ADD PUSH1 0x40 MSTORE DUP1 PUSH1 0xD DUP2 MSTORE PUSH1 0x20 ADD PUSH32 0x52616469616E7420466C616D6500000000000000000000000000000000000000 DUP2 MSTORE POP DUP2 PUSH1 0x1 ADD SWAP1 DUP2 PUSH2 0x29EB SWAP2 SWAP1 PUSH2 0x4280 JUMP JUMPDEST POP PUSH1 0x40 MLOAD DUP1 PUSH1 0x40 ADD PUSH1 0x40 MSTORE DUP1 PUSH1 0x10 DUP2 MSTORE PUSH1 0x20 ADD PUSH32 0x426C617A696E6720536170706869726500000000000000000000000000000000 DUP2 MSTORE POP DUP2 PUSH1 0x2 ADD SWAP1 DUP2 PUSH2 0x2A32 SWAP2 SWAP1 PUSH2 0x4280 JUMP JUMPDEST POP PUSH1 0x40 MLOAD DUP1 PUSH1 0x40 ADD PUSH1 0x40 MSTORE DUP1 PUSH1 0xD DUP2 MSTORE PUSH1 0x20 ADD PUSH32 0x4175726F7261205A656E69746800000000000000000000000000000000000000 DUP2 MSTORE POP DUP2 PUSH1 0x3 ADD SWAP1 DUP2 PUSH2 0x2A79 SWAP2 SWAP1 PUSH2 0x4280 JUMP JUMPDEST POP JUMPDEST JUMPDEST JUMPDEST JUMPDEST JUMPDEST PUSH32 0x31E58F4A957F448D548B411BA956E44A16D593EB38F50B4163D7A362FAA5073A DUP3 DUP3 PUSH1 0x1 ADD DUP4 PUSH1 0x2 ADD DUP5 PUSH1 0x3 ADD PUSH1 0x40 MLOAD PUSH2 0x2ABD SWAP5 SWAP4 SWAP3 SWAP2 SWAP1 PUSH2 0x4C00 JUMP JUMPDEST PUSH1 0x40 MLOAD DUP1 SWAP2 SUB SWAP1 LOG1 POP DUP1 DUP1 PUSH1 0x1 ADD SWAP2 POP POP PUSH2 0x24F5 JUMP JUMPDEST POP JUMP JUMPDEST PUSH0 DUP4 PUSH20 0xFFFFFFFFFFFFFFFFFFFFFFFFFFFFFFFFFFFFFFFF AND PUSH4 0x150B7A02 PUSH2 0x2AFB PUSH2 0x230F JUMP JUMPDEST DUP8 DUP7 DUP7 PUSH1 0x40 MLOAD DUP6 PUSH4 0xFFFFFFFF AND PUSH1 0xE0 SHL DUP2 MSTORE PUSH1 0x4 ADD PUSH2 0x2B1D SWAP5 SWAP4 SWAP3 SWAP2 SWAP1 PUSH2 0x4CAA JUMP JUMPDEST PUSH1 0x20 PUSH1 0x40 MLOAD DUP1 DUP4 SUB DUP2 PUSH0 DUP8 GAS CALL SWAP3 POP POP POP DUP1 ISZERO PUSH2 0x2B58 JUMPI POP PUSH1 0x40 MLOAD RETURNDATASIZE PUSH1 0x1F NOT PUSH1 0x1F DUP3 ADD AND DUP3 ADD DUP1 PUSH1 0x40 MSTORE POP DUP2 ADD SWAP1 PUSH2 0x2B55 SWAP2 SWAP1 PUSH2 0x4D08 JUMP JUMPDEST PUSH1 0x1 JUMPDEST PUSH2 0x2BAD JUMPI RETURNDATASIZE DUP1 PUSH0 DUP2 EQ PUSH2 0x2B86 JUMPI PUSH1 0x40 MLOAD SWAP2 POP PUSH1 0x1F NOT PUSH1 0x3F RETURNDATASIZE ADD AND DUP3 ADD PUSH1 0x40 MSTORE RETURNDATASIZE DUP3 MSTORE RETURNDATASIZE PUSH0 PUSH1 0x20 DUP5 ADD RETURNDATACOPY PUSH2 0x2B8B JUMP JUMPDEST PUSH1 0x60 SWAP2 POP JUMPDEST POP PUSH0 DUP2 MLOAD SUB PUSH2 0x2BA5 JUMPI PUSH2 0x2BA4 PUSH4 0xD1A57ED6 PUSH1 0xE0 SHL PUSH2 0x2080 JUMP JUMPDEST JUMPDEST DUP1 MLOAD DUP2 PUSH1 0x20 ADD REVERT JUMPDEST PUSH4 0x150B7A02 PUSH1 0xE0 SHL PUSH28 0xFFFFFFFFFFFFFFFFFFFFFFFFFFFFFFFFFFFFFFFFFFFFFFFFFFFFFFFF NOT AND DUP2 PUSH28 0xFFFFFFFFFFFFFFFFFFFFFFFFFFFFFFFFFFFFFFFFFFFFFFFFFFFFFFFF NOT AND EQ SWAP2 POP POP SWAP5 SWAP4 POP POP POP POP JUMP JUMPDEST PUSH1 0x60 PUSH0 PUSH2 0x2C1B PUSH1 0xE PUSH1 0x14 SWAP1 SLOAD SWAP1 PUSH2 0x100 EXP SWAP1 DIV PUSH1 0xFF AND PUSH2 0x2FFA JUMP JUMPDEST SWAP1 POP PUSH0 PUSH2 0x2C3A PUSH1 0xE PUSH1 0x14 SWAP1 SLOAD SWAP1 PUSH2 0x100 EXP SWAP1 DIV PUSH1 0xFF AND DUP6 PUSH0 ADD MLOAD PUSH2 0x3245 JUMP JUMPDEST SWAP1 POP PUSH0 PUSH2 0x2C59 DUP6 PUSH0 ADD MLOAD PUSH1 0xE PUSH1 0x14 SWAP1 SLOAD SWAP1 PUSH2 0x100 EXP SWAP1 DIV PUSH1 0xFF AND PUSH2 0x33B6 JUMP JUMPDEST SWAP1 POP DUP3 DUP2 DUP4 DUP8 PUSH1 0x20 ADD MLOAD DUP9 PUSH1 0x40 ADD MLOAD DUP10 PUSH1 0x60 ADD MLOAD PUSH1 0x40 MLOAD PUSH1 0x20 ADD PUSH2 0x2C82 SWAP7 SWAP6 SWAP5 SWAP4 SWAP3 SWAP2 SWAP1 PUSH2 0x52C3 JUMP JUMPDEST PUSH1 0x40 MLOAD PUSH1 0x20 DUP2 DUP4 SUB SUB DUP2 MSTORE SWAP1 PUSH1 0x40 MSTORE SWAP4 POP POP POP POP SWAP2 SWAP1 POP JUMP JUMPDEST PUSH1 0x60 PUSH1 0xA0 PUSH1 0x40 MLOAD ADD DUP1 PUSH1 0x40 MSTORE PUSH1 0x20 DUP2 SUB SWAP2 POP PUSH0 DUP3 MSTORE DUP2 DUP4 JUMPDEST PUSH1 0x1 ISZERO PUSH2 0x2CD5 JUMPI PUSH1 0x1 DUP5 SUB SWAP4 POP PUSH1 0xA DUP2 MOD PUSH1 0x30 ADD DUP5 MSTORE8 PUSH1 0xA DUP2 DIV SWAP1 POP DUP1 PUSH2 0x2CB3 JUMPI JUMPDEST POP DUP3 DUP2 SUB PUSH1 0x20 DUP5 SUB SWAP4 POP DUP1 DUP5 MSTORE POP POP POP SWAP2 SWAP1 POP JUMP JUMPDEST PUSH1 0x60 PUSH0 PUSH1 0x4 DUP2 GT ISZERO PUSH2 0x2CFF JUMPI PUSH2 0x2CFE PUSH2 0x3A5B JUMP JUMPDEST JUMPDEST DUP3 PUSH1 0x4 DUP2 GT ISZERO PUSH2 0x2D12 JUMPI PUSH2 0x2D11 PUSH2 0x3A5B JUMP JUMPDEST JUMPDEST SUB PUSH2 0x2D54 JUMPI PUSH1 0x40 MLOAD DUP1 PUSH1 0x40 ADD PUSH1 0x40 MSTORE DUP1 PUSH1 0xC DUP2 MSTORE PUSH1 0x20 ADD PUSH32 0x5665727920426561726973680000000000000000000000000000000000000000 DUP2 MSTORE POP SWAP1 POP PUSH2 0x2F30 JUMP JUMPDEST PUSH1 0x1 PUSH1 0x4 DUP2 GT ISZERO PUSH2 0x2D68 JUMPI PUSH2 0x2D67 PUSH2 0x3A5B JUMP JUMPDEST JUMPDEST DUP3 PUSH1 0x4 DUP2 GT ISZERO PUSH2 0x2D7B JUMPI PUSH2 0x2D7A PUSH2 0x3A5B JUMP JUMPDEST JUMPDEST SUB PUSH2 0x2DBD JUMPI PUSH1 0x40 MLOAD DUP1 PUSH1 0x40 ADD PUSH1 0x40 MSTORE DUP1 PUSH1 0x7 DUP2 MSTORE PUSH1 0x20 ADD PUSH32 0x4265617269736800000000000000000000000000000000000000000000000000 DUP2 MSTORE POP SWAP1 POP PUSH2 0x2F30 JUMP JUMPDEST PUSH1 0x2 PUSH1 0x4 DUP2 GT ISZERO PUSH2 0x2DD1 JUMPI PUSH2 0x2DD0 PUSH2 0x3A5B JUMP JUMPDEST JUMPDEST DUP3 PUSH1 0x4 DUP2 GT ISZERO PUSH2 0x2DE4 JUMPI PUSH2 0x2DE3 PUSH2 0x3A5B JUMP JUMPDEST JUMPDEST SUB PUSH2 0x2E26 JUMPI PUSH1 0x40 MLOAD DUP1 PUSH1 0x40 ADD PUSH1 0x40 MSTORE DUP1 PUSH1 0x7 DUP2 MSTORE PUSH1 0x20 ADD PUSH32 0x4E65757472616C00000000000000000000000000000000000000000000000000 DUP2 MSTORE POP SWAP1 POP PUSH2 0x2F30 JUMP JUMPDEST PUSH1 0x3 PUSH1 0x4 DUP2 GT ISZERO PUSH2 0x2E3A JUMPI PUSH2 0x2E39 PUSH2 0x3A5B JUMP JUMPDEST JUMPDEST DUP3 PUSH1 0x4 DUP2 GT ISZERO PUSH2 0x2E4D JUMPI PUSH2 0x2E4C PUSH2 0x3A5B JUMP JUMPDEST JUMPDEST SUB PUSH2 0x2E8F JUMPI PUSH1 0x40 MLOAD DUP1 PUSH1 0x40 ADD PUSH1 0x40 MSTORE DUP1 PUSH1 0x7 DUP2 MSTORE PUSH1 0x20 ADD PUSH32 0x42756C6C69736800000000000000000000000000000000000000000000000000 DUP2 MSTORE POP SWAP1 POP PUSH2 0x2F30 JUMP JUMPDEST PUSH1 0x4 DUP1 DUP2 GT ISZERO PUSH2 0x2EA2 JUMPI PUSH2 0x2EA1 PUSH2 0x3A5B JUMP JUMPDEST JUMPDEST DUP3 PUSH1 0x4 DUP2 GT ISZERO PUSH2 0x2EB5 JUMPI PUSH2 0x2EB4 PUSH2 0x3A5B JUMP JUMPDEST JUMPDEST SUB PUSH2 0x2EF7 JUMPI PUSH1 0x40 MLOAD DUP1 PUSH1 0x40 ADD PUSH1 0x40 MSTORE DUP1 PUSH1 0xC DUP2 MSTORE PUSH1 0x20 ADD PUSH32 0x566572792042756C6C6973680000000000000000000000000000000000000000 DUP2 MSTORE POP SWAP1 POP PUSH2 0x2F30 JUMP JUMPDEST PUSH1 0x40 MLOAD DUP1 PUSH1 0x40 ADD PUSH1 0x40 MSTORE DUP1 PUSH1 0x7 DUP2 MSTORE PUSH1 0x20 ADD PUSH32 0x556E6B6E6F776E00000000000000000000000000000000000000000000000000 DUP2 MSTORE POP SWAP1 POP JUMPDEST SWAP2 SWAP1 POP JUMP JUMPDEST PUSH0 PUSH29 0x100000000000000000000000000000000000000000000000000000000 DUP3 AND PUSH20 0xFFFFFFFFFFFFFFFFFFFFFFFFFFFFFFFFFFFFFFFF DUP4 AND GT SWAP1 POP SWAP2 SWAP1 POP JUMP JUMPDEST PUSH0 SWAP4 SWAP3 POP POP POP JUMP JUMPDEST PUSH0 CALLER SWAP1 POP SWAP1 JUMP JUMPDEST PUSH2 0x2F8E DUP4 DUP4 PUSH2 0x3604 JUMP JUMPDEST PUSH0 DUP4 PUSH20 0xFFFFFFFFFFFFFFFFFFFFFFFFFFFFFFFFFFFFFFFF AND EXTCODESIZE EQ PUSH2 0x2FF5 JUMPI PUSH0 DUP1 SLOAD SWAP1 POP PUSH0 DUP4 DUP3 SUB SWAP1 POP JUMPDEST PUSH2 0x2FCA PUSH0 DUP7 DUP4 DUP1 PUSH1 0x1 ADD SWAP5 POP DUP7 PUSH2 0x2AD6 JUMP JUMPDEST PUSH2 0x2FDF JUMPI PUSH2 0x2FDE PUSH4 0xD1A57ED6 PUSH1 0xE0 SHL PUSH2 0x2080 JUMP JUMPDEST JUMPDEST DUP2 DUP2 LT PUSH2 0x2FB8 JUMPI DUP2 PUSH0 SLOAD EQ PUSH2 0x2FF2 JUMPI PUSH0 DUP1 REVERT JUMPDEST POP POP JUMPDEST POP POP POP JUMP JUMPDEST PUSH1 0x60 PUSH0 PUSH1 0x4 DUP2 GT ISZERO PUSH2 0x300F JUMPI PUSH2 0x300E PUSH2 0x3A5B JUMP JUMPDEST JUMPDEST DUP3 PUSH1 0x4 DUP2 GT ISZERO PUSH2 0x3022 JUMPI PUSH2 0x3021 PUSH2 0x3A5B JUMP JUMPDEST JUMPDEST SUB PUSH2 0x3064 JUMPI PUSH1 0x40 MLOAD DUP1 PUSH1 0x40 ADD PUSH1 0x40 MSTORE DUP1 PUSH1 0x7 DUP2 MSTORE PUSH1 0x20 ADD PUSH32 0x2332633365353000000000000000000000000000000000000000000000000000 DUP2 MSTORE POP SWAP1 POP PUSH2 0x3240 JUMP JUMPDEST PUSH1 0x1 PUSH1 0x4 DUP2 GT ISZERO PUSH2 0x3078 JUMPI PUSH2 0x3077 PUSH2 0x3A5B JUMP JUMPDEST JUMPDEST DUP3 PUSH1 0x4 DUP2 GT ISZERO PUSH2 0x308B JUMPI PUSH2 0x308A PUSH2 0x3A5B JUMP JUMPDEST JUMPDEST SUB PUSH2 0x30CD JUMPI PUSH1 0x40 MLOAD DUP1 PUSH1 0x40 ADD PUSH1 0x40 MSTORE DUP1 PUSH1 0x7 DUP2 MSTORE PUSH1 0x20 ADD PUSH32 0x2333343439356500000000000000000000000000000000000000000000000000 DUP2 MSTORE POP SWAP1 POP PUSH2 0x3240 JUMP JUMPDEST PUSH1 0x2 PUSH1 0x4 DUP2 GT ISZERO PUSH2 0x30E1 JUMPI PUSH2 0x30E0 PUSH2 0x3A5B JUMP JUMPDEST JUMPDEST DUP3 PUSH1 0x4 DUP2 GT ISZERO PUSH2 0x30F4 JUMPI PUSH2 0x30F3 PUSH2 0x3A5B JUMP JUMPDEST JUMPDEST SUB PUSH2 0x3136 JUMPI PUSH1 0x40 MLOAD DUP1 PUSH1 0x40 ADD PUSH1 0x40 MSTORE DUP1 PUSH1 0x7 DUP2 MSTORE PUSH1 0x20 ADD PUSH32 0x2337663863386400000000000000000000000000000000000000000000000000 DUP2 MSTORE POP SWAP1 POP PUSH2 0x3240 JUMP JUMPDEST PUSH1 0x3 PUSH1 0x4 DUP2 GT ISZERO PUSH2 0x314A JUMPI PUSH2 0x3149 PUSH2 0x3A5B JUMP JUMPDEST JUMPDEST DUP3 PUSH1 0x4 DUP2 GT ISZERO PUSH2 0x315D JUMPI PUSH2 0x315C PUSH2 0x3A5B JUMP JUMPDEST JUMPDEST SUB PUSH2 0x319F JUMPI PUSH1 0x40 MLOAD DUP1 PUSH1 0x40 ADD PUSH1 0x40 MSTORE DUP1 PUSH1 0x7 DUP2 MSTORE PUSH1 0x20 ADD PUSH32 0x2332376165363000000000000000000000000000000000000000000000000000 DUP2 MSTORE POP SWAP1 POP PUSH2 0x3240 JUMP JUMPDEST PUSH1 0x4 DUP1 DUP2 GT ISZERO PUSH2 0x31B2 JUMPI PUSH2 0x31B1 PUSH2 0x3A5B JUMP JUMPDEST JUMPDEST DUP3 PUSH1 0x4 DUP2 GT ISZERO PUSH2 0x31C5 JUMPI PUSH2 0x31C4 PUSH2 0x3A5B JUMP JUMPDEST JUMPDEST SUB PUSH2 0x3207 JUMPI PUSH1 0x40 MLOAD DUP1 PUSH1 0x40 ADD PUSH1 0x40 MSTORE DUP1 PUSH1 0x7 DUP2 MSTORE PUSH1 0x20 ADD PUSH32 0x2332656363373100000000000000000000000000000000000000000000000000 DUP2 MSTORE POP SWAP1 POP PUSH2 0x3240 JUMP JUMPDEST PUSH1 0x40 MLOAD DUP1 PUSH1 0x40 ADD PUSH1 0x40 MSTORE DUP1 PUSH1 0x7 DUP2 MSTORE PUSH1 0x20 ADD PUSH32 0x2330303030303000000000000000000000000000000000000000000000000000 DUP2 MSTORE POP SWAP1 POP JUMPDEST SWAP2 SWAP1 POP JUMP JUMPDEST PUSH1 0x60 PUSH1 0x4 DUP1 DUP2 GT ISZERO PUSH2 0x325A JUMPI PUSH2 0x3259 PUSH2 0x3A5B JUMP JUMPDEST JUMPDEST DUP4 PUSH1 0x4 DUP2 GT ISZERO PUSH2 0x326D JUMPI PUSH2 0x326C PUSH2 0x3A5B JUMP JUMPDEST JUMPDEST EQ DUP1 PUSH2 0x329C JUMPI POP PUSH0 PUSH1 0x4 DUP2 GT ISZERO PUSH2 0x3287 JUMPI PUSH2 0x3286 PUSH2 0x3A5B JUMP JUMPDEST JUMPDEST DUP4 PUSH1 0x4 DUP2 GT ISZERO PUSH2 0x329A JUMPI PUSH2 0x3299 PUSH2 0x3A5B JUMP JUMPDEST JUMPDEST EQ JUMPDEST ISZERO PUSH2 0x32DE JUMPI PUSH1 0x40 MLOAD DUP1 PUSH1 0x40 ADD PUSH1 0x40 MSTORE DUP1 PUSH1 0x6 DUP2 MSTORE PUSH1 0x20 ADD PUSH32 0x526167696E670000000000000000000000000000000000000000000000000000 DUP2 MSTORE POP SWAP1 POP PUSH2 0x33B0 JUMP JUMPDEST PUSH1 0x3 PUSH1 0x4 DUP2 GT ISZERO PUSH2 0x32F2 JUMPI PUSH2 0x32F1 PUSH2 0x3A5B JUMP JUMPDEST JUMPDEST DUP4 PUSH1 0x4 DUP2 GT ISZERO PUSH2 0x3305 JUMPI PUSH2 0x3304 PUSH2 0x3A5B JUMP JUMPDEST JUMPDEST EQ DUP1 PUSH2 0x3335 JUMPI POP PUSH1 0x1 PUSH1 0x4 DUP2 GT ISZERO PUSH2 0x3320 JUMPI PUSH2 0x331F PUSH2 0x3A5B JUMP JUMPDEST JUMPDEST DUP4 PUSH1 0x4 DUP2 GT ISZERO PUSH2 0x3333 JUMPI PUSH2 0x3332 PUSH2 0x3A5B JUMP JUMPDEST JUMPDEST EQ JUMPDEST ISZERO PUSH2 0x3377 JUMPI PUSH1 0x40 MLOAD DUP1 PUSH1 0x40 ADD PUSH1 0x40 MSTORE DUP1 PUSH1 0x8 DUP2 MSTORE PUSH1 0x20 ADD PUSH32 0x4167697461746564000000000000000000000000000000000000000000000000 DUP2 MSTORE POP SWAP1 POP PUSH2 0x33B0 JUMP JUMPDEST PUSH1 0x40 MLOAD DUP1 PUSH1 0x40 ADD PUSH1 0x40 MSTORE DUP1 PUSH1 0x4 DUP2 MSTORE PUSH1 0x20 ADD PUSH32 0x43616C6D00000000000000000000000000000000000000000000000000000000 DUP2 MSTORE POP SWAP1 POP JUMPDEST SWAP3 SWAP2 POP POP JUMP JUMPDEST PUSH1 0x60 PUSH32 0x5A1DBD6648596F258B93CA02CEE0751BE10A72E99A552B0C3CBAFC7E216E09AA DUP4 DUP1 MLOAD SWAP1 PUSH1 0x20 ADD KECCAK256 SUB PUSH2 0x34F4 JUMPI PUSH1 0x4 DUP1 DUP2 GT ISZERO PUSH2 0x33F9 JUMPI PUSH2 0x33F8 PUSH2 0x3A5B JUMP JUMPDEST JUMPDEST DUP3 PUSH1 0x4 DUP2 GT ISZERO PUSH2 0x340C JUMPI PUSH2 0x340B PUSH2 0x3A5B JUMP JUMPDEST JUMPDEST SUB PUSH2 0x344E JUMPI PUSH1 0x40 MLOAD DUP1 PUSH1 0x40 ADD PUSH1 0x40 MSTORE DUP1 PUSH1 0x7 DUP2 MSTORE PUSH1 0x20 ADD PUSH32 0x42756C6C20557000000000000000000000000000000000000000000000000000 DUP2 MSTORE POP SWAP1 POP PUSH2 0x35FE JUMP JUMPDEST PUSH1 0x3 PUSH1 0x4 DUP2 GT ISZERO PUSH2 0x3462 JUMPI PUSH2 0x3461 PUSH2 0x3A5B JUMP JUMPDEST JUMPDEST DUP3 PUSH1 0x4 DUP2 GT ISZERO PUSH2 0x3475 JUMPI PUSH2 0x3474 PUSH2 0x3A5B JUMP JUMPDEST JUMPDEST SUB PUSH2 0x34B7 JUMPI PUSH1 0x40 MLOAD DUP1 PUSH1 0x40 ADD PUSH1 0x40 MSTORE DUP1 PUSH1 0x4 DUP2 MSTORE PUSH1 0x20 ADD PUSH32 0x42756C6C00000000000000000000000000000000000000000000000000000000 DUP2 MSTORE POP SWAP1 POP PUSH2 0x35FE JUMP JUMPDEST PUSH1 0x40 MLOAD DUP1 PUSH1 0x40 ADD PUSH1 0x40 MSTORE DUP1 PUSH1 0xC DUP2 MSTORE PUSH1 0x20 ADD PUSH32 0x42756C6C204E65757472616C0000000000000000000000000000000000000000 DUP2 MSTORE POP SWAP1 POP PUSH2 0x35FE JUMP JUMPDEST PUSH0 PUSH1 0x4 DUP2 GT ISZERO PUSH2 0x3507 JUMPI PUSH2 0x3506 PUSH2 0x3A5B JUMP JUMPDEST JUMPDEST DUP3 PUSH1 0x4 DUP2 GT ISZERO PUSH2 0x351A JUMPI PUSH2 0x3519 PUSH2 0x3A5B JUMP JUMPDEST JUMPDEST SUB PUSH2 0x355C JUMPI PUSH1 0x40 MLOAD DUP1 PUSH1 0x40 ADD PUSH1 0x40 MSTORE DUP1 PUSH1 0x9 DUP2 MSTORE PUSH1 0x20 ADD PUSH32 0x4265617220446F776E0000000000000000000000000000000000000000000000 DUP2 MSTORE POP SWAP1 POP PUSH2 0x35FE JUMP JUMPDEST PUSH1 0x1 PUSH1 0x4 DUP2 GT ISZERO PUSH2 0x3570 JUMPI PUSH2 0x356F PUSH2 0x3A5B JUMP JUMPDEST JUMPDEST DUP3 PUSH1 0x4 DUP2 GT ISZERO PUSH2 0x3583 JUMPI PUSH2 0x3582 PUSH2 0x3A5B JUMP JUMPDEST JUMPDEST SUB PUSH2 0x35C5 JUMPI PUSH1 0x40 MLOAD DUP1 PUSH1 0x40 ADD PUSH1 0x40 MSTORE DUP1 PUSH1 0x4 DUP2 MSTORE PUSH1 0x20 ADD PUSH32 0x4265617200000000000000000000000000000000000000000000000000000000 DUP2 MSTORE POP SWAP1 POP PUSH2 0x35FE JUMP JUMPDEST PUSH1 0x40 MLOAD DUP1 PUSH1 0x40 ADD PUSH1 0x40 MSTORE DUP1 PUSH1 0xC DUP2 MSTORE PUSH1 0x20 ADD PUSH32 0x42656172204E65757472616C0000000000000000000000000000000000000000 DUP2 MSTORE POP SWAP1 POP JUMPDEST SWAP3 SWAP2 POP POP JUMP JUMPDEST PUSH0 DUP1 SLOAD SWAP1 POP PUSH0 DUP3 SUB PUSH2 0x3621 JUMPI PUSH2 0x3620 PUSH4 0xB562E8DD PUSH1 0xE0 SHL PUSH2 0x2080 JUMP JUMPDEST JUMPDEST PUSH2 0x362D PUSH0 DUP5 DUP4 DUP6 PUSH2 0x2327 JUMP JUMPDEST PUSH2 0x364B DUP4 PUSH2 0x363C PUSH0 DUP7 PUSH0 PUSH2 0x232D JUMP JUMPDEST PUSH2 0x3645 DUP6 PUSH2 0x3762 JUMP JUMPDEST OR PUSH2 0x2354 JUMP JUMPDEST PUSH1 0x4 PUSH0 DUP4 DUP2 MSTORE PUSH1 0x20 ADD SWAP1 DUP2 MSTORE PUSH1 0x20 ADD PUSH0 KECCAK256 DUP2 SWAP1 SSTORE POP PUSH1 0x1 PUSH1 0x40 PUSH1 0x1 SWAP1 SHL OR DUP3 MUL PUSH1 0x5 PUSH0 DUP6 PUSH20 0xFFFFFFFFFFFFFFFFFFFFFFFFFFFFFFFFFFFFFFFF AND PUSH20 0xFFFFFFFFFFFFFFFFFFFFFFFFFFFFFFFFFFFFFFFF AND DUP2 MSTORE PUSH1 0x20 ADD SWAP1 DUP2 MSTORE PUSH1 0x20 ADD PUSH0 KECCAK256 PUSH0 DUP3 DUP3 SLOAD ADD SWAP3 POP POP DUP2 SWAP1 SSTORE POP PUSH0 DUP4 PUSH20 0xFFFFFFFFFFFFFFFFFFFFFFFFFFFFFFFFFFFFFFFF AND SWAP1 POP PUSH0 DUP2 SUB PUSH2 0x36E6 JUMPI PUSH2 0x36E5 PUSH4 0x2E076300 PUSH1 0xE0 SHL PUSH2 0x2080 JUMP JUMPDEST JUMPDEST PUSH0 DUP4 DUP4 ADD SWAP1 POP PUSH0 DUP4 SWAP1 POP PUSH2 0x36F8 PUSH2 0x21B6 JUMP JUMPDEST PUSH1 0x1 DUP4 SUB GT ISZERO PUSH2 0x3713 JUMPI PUSH2 0x3712 PUSH4 0x81647E3A PUSH1 0xE0 SHL PUSH2 0x2080 JUMP JUMPDEST JUMPDEST JUMPDEST DUP1 DUP4 PUSH0 PUSH32 0xDDF252AD1BE2C89B69C2B068FC378DAA952BA7F163C4A11628F55A4DF523B3EF PUSH0 DUP1 LOG4 DUP2 DUP2 PUSH1 0x1 ADD SWAP2 POP DUP2 SUB PUSH2 0x3714 JUMPI DUP2 PUSH0 DUP2 SWAP1 SSTORE POP POP POP POP PUSH2 0x375D PUSH0 DUP5 DUP4 DUP6 PUSH2 0x237E JUMP JUMPDEST POP POP POP JUMP JUMPDEST PUSH0 PUSH1 0x1 DUP3 EQ PUSH1 0xE1 SHL SWAP1 POP SWAP2 SWAP1 POP JUMP JUMPDEST PUSH0 PUSH1 0x40 MLOAD SWAP1 POP SWAP1 JUMP JUMPDEST PUSH0 DUP1 REVERT JUMPDEST PUSH0 DUP1 REVERT JUMPDEST PUSH0 PUSH32 0xFFFFFFFF00000000000000000000000000000000000000000000000000000000 DUP3 AND SWAP1 POP SWAP2 SWAP1 POP JUMP JUMPDEST PUSH2 0x37B6 DUP2 PUSH2 0x3782 JUMP JUMPDEST DUP2 EQ PUSH2 0x37C0 JUMPI PUSH0 DUP1 REVERT JUMPDEST POP JUMP JUMPDEST PUSH0 DUP2 CALLDATALOAD SWAP1 POP PUSH2 0x37D1 DUP2 PUSH2 0x37AD JUMP JUMPDEST SWAP3 SWAP2 POP POP JUMP JUMPDEST PUSH0 PUSH1 0x20 DUP3 DUP5 SUB SLT ISZERO PUSH2 0x37EC JUMPI PUSH2 0x37EB PUSH2 0x377A JUMP JUMPDEST JUMPDEST PUSH0 PUSH2 0x37F9 DUP5 DUP3 DUP6 ADD PUSH2 0x37C3 JUMP JUMPDEST SWAP2 POP POP SWAP3 SWAP2 POP POP JUMP JUMPDEST PUSH0 DUP2 ISZERO ISZERO SWAP1 POP SWAP2 SWAP1 POP JUMP JUMPDEST PUSH2 0x3816 DUP2 PUSH2 0x3802 JUMP JUMPDEST DUP3 MSTORE POP POP JUMP JUMPDEST PUSH0 PUSH1 0x20 DUP3 ADD SWAP1 POP PUSH2 0x382F PUSH0 DUP4 ADD DUP5 PUSH2 0x380D JUMP JUMPDEST SWAP3 SWAP2 POP POP JUMP JUMPDEST PUSH0 DUP2 MLOAD SWAP1 POP SWAP2 SWAP1 POP JUMP JUMPDEST PUSH0 DUP3 DUP3 MSTORE PUSH1 0x20 DUP3 ADD SWAP1 POP SWAP3 SWAP2 POP POP JUMP JUMPDEST DUP3 DUP2 DUP4 MCOPY PUSH0 DUP4 DUP4 ADD MSTORE POP POP POP JUMP JUMPDEST PUSH0 PUSH1 0x1F NOT PUSH1 0x1F DUP4 ADD AND SWAP1 POP SWAP2 SWAP1 POP JUMP JUMPDEST PUSH0 PUSH2 0x3877 DUP3 PUSH2 0x3835 JUMP JUMPDEST PUSH2 0x3881 DUP2 DUP6 PUSH2 0x383F JUMP JUMPDEST SWAP4 POP PUSH2 0x3891 DUP2 DUP6 PUSH1 0x20 DUP7 ADD PUSH2 0x384F JUMP JUMPDEST PUSH2 0x389A DUP2 PUSH2 0x385D JUMP JUMPDEST DUP5 ADD SWAP2 POP POP SWAP3 SWAP2 POP POP JUMP JUMPDEST PUSH0 PUSH1 0x20 DUP3 ADD SWAP1 POP DUP2 DUP2 SUB PUSH0 DUP4 ADD MSTORE PUSH2 0x38BD DUP2 DUP5 PUSH2 0x386D JUMP JUMPDEST SWAP1 POP SWAP3 SWAP2 POP POP JUMP JUMPDEST PUSH0 DUP2 SWAP1 POP SWAP2 SWAP1 POP JUMP JUMPDEST PUSH2 0x38D7 DUP2 PUSH2 0x38C5 JUMP JUMPDEST DUP2 EQ PUSH2 0x38E1 JUMPI PUSH0 DUP1 REVERT JUMPDEST POP JUMP JUMPDEST PUSH0 DUP2 CALLDATALOAD SWAP1 POP PUSH2 0x38F2 DUP2 PUSH2 0x38CE JUMP JUMPDEST SWAP3 SWAP2 POP POP JUMP JUMPDEST PUSH0 PUSH1 0x20 DUP3 DUP5 SUB SLT ISZERO PUSH2 0x390D JUMPI PUSH2 0x390C PUSH2 0x377A JUMP JUMPDEST JUMPDEST PUSH0 PUSH2 0x391A DUP5 DUP3 DUP6 ADD PUSH2 0x38E4 JUMP JUMPDEST SWAP2 POP POP SWAP3 SWAP2 POP POP JUMP JUMPDEST PUSH0 PUSH20 0xFFFFFFFFFFFFFFFFFFFFFFFFFFFFFFFFFFFFFFFF DUP3 AND SWAP1 POP SWAP2 SWAP1 POP JUMP JUMPDEST PUSH0 PUSH2 0x394C DUP3 PUSH2 0x3923 JUMP JUMPDEST SWAP1 POP SWAP2 SWAP1 POP JUMP JUMPDEST PUSH2 0x395C DUP2 PUSH2 0x3942 JUMP JUMPDEST DUP3 MSTORE POP POP JUMP JUMPDEST PUSH0 PUSH1 0x20 DUP3 ADD SWAP1 POP PUSH2 0x3975 PUSH0 DUP4 ADD DUP5 PUSH2 0x3953 JUMP JUMPDEST SWAP3 SWAP2 POP POP JUMP JUMPDEST PUSH2 0x3984 DUP2 PUSH2 0x3942 JUMP JUMPDEST DUP2 EQ PUSH2 0x398E JUMPI PUSH0 DUP1 REVERT JUMPDEST POP JUMP JUMPDEST PUSH0 DUP2 CALLDATALOAD SWAP1 POP PUSH2 0x399F DUP2 PUSH2 0x397B JUMP JUMPDEST SWAP3 SWAP2 POP POP JUMP JUMPDEST PUSH0 DUP1 PUSH1 0x40 DUP4 DUP6 SUB SLT ISZERO PUSH2 0x39BB JUMPI PUSH2 0x39BA PUSH2 0x377A JUMP JUMPDEST JUMPDEST PUSH0 PUSH2 0x39C8 DUP6 DUP3 DUP7 ADD PUSH2 0x3991 JUMP JUMPDEST SWAP3 POP POP PUSH1 0x20 PUSH2 0x39D9 DUP6 DUP3 DUP7 ADD PUSH2 0x38E4 JUMP JUMPDEST SWAP2 POP POP SWAP3 POP SWAP3 SWAP1 POP JUMP JUMPDEST PUSH2 0x39EC DUP2 PUSH2 0x38C5 JUMP JUMPDEST DUP3 MSTORE POP POP JUMP JUMPDEST PUSH0 PUSH1 0x20 DUP3 ADD SWAP1 POP PUSH2 0x3A05 PUSH0 DUP4 ADD DUP5 PUSH2 0x39E3 JUMP JUMPDEST SWAP3 SWAP2 POP POP JUMP JUMPDEST PUSH0 DUP1 PUSH0 PUSH1 0x60 DUP5 DUP7 SUB SLT ISZERO PUSH2 0x3A22 JUMPI PUSH2 0x3A21 PUSH2 0x377A JUMP JUMPDEST JUMPDEST PUSH0 PUSH2 0x3A2F DUP7 DUP3 DUP8 ADD PUSH2 0x3991 JUMP JUMPDEST SWAP4 POP POP PUSH1 0x20 PUSH2 0x3A40 DUP7 DUP3 DUP8 ADD PUSH2 0x3991 JUMP JUMPDEST SWAP3 POP POP PUSH1 0x40 PUSH2 0x3A51 DUP7 DUP3 DUP8 ADD PUSH2 0x38E4 JUMP JUMPDEST SWAP2 POP POP SWAP3 POP SWAP3 POP SWAP3 JUMP JUMPDEST PUSH32 0x4E487B7100000000000000000000000000000000000000000000000000000000 PUSH0 MSTORE PUSH1 0x21 PUSH1 0x4 MSTORE PUSH1 0x24 PUSH0 REVERT JUMPDEST PUSH1 0x5 DUP2 LT PUSH2 0x3A99 JUMPI PUSH2 0x3A98 PUSH2 0x3A5B JUMP JUMPDEST JUMPDEST POP JUMP JUMPDEST PUSH0 DUP2 SWAP1 POP PUSH2 0x3AA9 DUP3 PUSH2 0x3A88 JUMP JUMPDEST SWAP2 SWAP1 POP JUMP JUMPDEST PUSH0 PUSH2 0x3AB8 DUP3 PUSH2 0x3A9C JUMP JUMPDEST SWAP1 POP SWAP2 SWAP1 POP JUMP JUMPDEST PUSH2 0x3AC8 DUP2 PUSH2 0x3AAE JUMP JUMPDEST DUP3 MSTORE POP POP JUMP JUMPDEST PUSH0 PUSH1 0x60 DUP3 ADD SWAP1 POP PUSH2 0x3AE1 PUSH0 DUP4 ADD DUP7 PUSH2 0x39E3 JUMP JUMPDEST PUSH2 0x3AEE PUSH1 0x20 DUP4 ADD DUP6 PUSH2 0x3ABF JUMP JUMPDEST PUSH2 0x3AFB PUSH1 0x40 DUP4 ADD DUP5 PUSH2 0x39E3 JUMP JUMPDEST SWAP5 SWAP4 POP POP POP POP JUMP JUMPDEST PUSH0 PUSH1 0x20 DUP3 DUP5 SUB SLT ISZERO PUSH2 0x3B18 JUMPI PUSH2 0x3B17 PUSH2 0x377A JUMP JUMPDEST JUMPDEST PUSH0 PUSH2 0x3B25 DUP5 DUP3 DUP6 ADD PUSH2 0x3991 JUMP JUMPDEST SWAP2 POP POP SWAP3 SWAP2 POP POP JUMP JUMPDEST PUSH0 PUSH1 0x20 DUP3 ADD SWAP1 POP PUSH2 0x3B41 PUSH0 DUP4 ADD DUP5 PUSH2 0x3ABF JUMP JUMPDEST SWAP3 SWAP2 POP POP JUMP JUMPDEST PUSH2 0x3B50 DUP2 PUSH2 0x3802 JUMP JUMPDEST DUP2 EQ PUSH2 0x3B5A JUMPI PUSH0 DUP1 REVERT JUMPDEST POP JUMP JUMPDEST PUSH0 DUP2 CALLDATALOAD SWAP1 POP PUSH2 0x3B6B DUP2 PUSH2 0x3B47 JUMP JUMPDEST SWAP3 SWAP2 POP POP JUMP JUMPDEST PUSH0 DUP1 PUSH1 0x40 DUP4 DUP6 SUB SLT ISZERO PUSH2 0x3B87 JUMPI PUSH2 0x3B86 PUSH2 0x377A JUMP JUMPDEST JUMPDEST PUSH0 PUSH2 0x3B94 DUP6 DUP3 DUP7 ADD PUSH2 0x3991 JUMP JUMPDEST SWAP3 POP POP PUSH1 0x20 PUSH2 0x3BA5 DUP6 DUP3 DUP7 ADD PUSH2 0x3B5D JUMP JUMPDEST SWAP2 POP POP SWAP3 POP SWAP3 SWAP1 POP JUMP JUMPDEST PUSH0 DUP1 REVERT JUMPDEST PUSH0 DUP1 REVERT JUMPDEST PUSH32 0x4E487B7100000000000000000000000000000000000000000000000000000000 PUSH0 MSTORE PUSH1 0x41 PUSH1 0x4 MSTORE PUSH1 0x24 PUSH0 REVERT JUMPDEST PUSH2 0x3BED DUP3 PUSH2 0x385D JUMP JUMPDEST DUP2 ADD DUP2 DUP2 LT PUSH8 0xFFFFFFFFFFFFFFFF DUP3 GT OR ISZERO PUSH2 0x3C0C JUMPI PUSH2 0x3C0B PUSH2 0x3BB7 JUMP JUMPDEST JUMPDEST DUP1 PUSH1 0x40 MSTORE POP POP POP JUMP JUMPDEST PUSH0 PUSH2 0x3C1E PUSH2 0x3771 JUMP JUMPDEST SWAP1 POP PUSH2 0x3C2A DUP3 DUP3 PUSH2 0x3BE4 JUMP JUMPDEST SWAP2 SWAP1 POP JUMP JUMPDEST PUSH0 PUSH8 0xFFFFFFFFFFFFFFFF DUP3 GT ISZERO PUSH2 0x3C49 JUMPI PUSH2 0x3C48 PUSH2 0x3BB7 JUMP JUMPDEST JUMPDEST PUSH2 0x3C52 DUP3 PUSH2 0x385D JUMP JUMPDEST SWAP1 POP PUSH1 0x20 DUP2 ADD SWAP1 POP SWAP2 SWAP1 POP JUMP JUMPDEST DUP3 DUP2 DUP4 CALLDATACOPY PUSH0 DUP4 DUP4 ADD MSTORE POP POP POP JUMP JUMPDEST PUSH0 PUSH2 0x3C7F PUSH2 0x3C7A DUP5 PUSH2 0x3C2F JUMP JUMPDEST PUSH2 0x3C15 JUMP JUMPDEST SWAP1 POP DUP3 DUP2 MSTORE PUSH1 0x20 DUP2 ADD DUP5 DUP5 DUP5 ADD GT ISZERO PUSH2 0x3C9B JUMPI PUSH2 0x3C9A PUSH2 0x3BB3 JUMP JUMPDEST JUMPDEST PUSH2 0x3CA6 DUP5 DUP3 DUP6 PUSH2 0x3C5F JUMP JUMPDEST POP SWAP4 SWAP3 POP POP POP JUMP JUMPDEST PUSH0 DUP3 PUSH1 0x1F DUP4 ADD SLT PUSH2 0x3CC2 JUMPI PUSH2 0x3CC1 PUSH2 0x3BAF JUMP JUMPDEST JUMPDEST DUP2 CALLDATALOAD PUSH2 0x3CD2 DUP5 DUP3 PUSH1 0x20 DUP7 ADD PUSH2 0x3C6D JUMP JUMPDEST SWAP2 POP POP SWAP3 SWAP2 POP POP JUMP JUMPDEST PUSH0 DUP1 PUSH0 DUP1 PUSH1 0x80 DUP6 DUP8 SUB SLT ISZERO PUSH2 0x3CF3 JUMPI PUSH2 0x3CF2 PUSH2 0x377A JUMP JUMPDEST JUMPDEST PUSH0 PUSH2 0x3D00 DUP8 DUP3 DUP9 ADD PUSH2 0x3991 JUMP JUMPDEST SWAP5 POP POP PUSH1 0x20 PUSH2 0x3D11 DUP8 DUP3 DUP9 ADD PUSH2 0x3991 JUMP JUMPDEST SWAP4 POP POP PUSH1 0x40 PUSH2 0x3D22 DUP8 DUP3 DUP9 ADD PUSH2 0x38E4 JUMP JUMPDEST SWAP3 POP POP PUSH1 0x60 DUP6 ADD CALLDATALOAD PUSH8 0xFFFFFFFFFFFFFFFF DUP2 GT ISZERO PUSH2 0x3D43 JUMPI PUSH2 0x3D42 PUSH2 0x377E JUMP JUMPDEST JUMPDEST PUSH2 0x3D4F DUP8 DUP3 DUP9 ADD PUSH2 0x3CAE JUMP JUMPDEST SWAP2 POP POP SWAP3 SWAP6 SWAP2 SWAP5 POP SWAP3 POP JUMP JUMPDEST PUSH0 PUSH1 0x80 DUP3 ADD SWAP1 POP DUP2 DUP2 SUB PUSH0 DUP4 ADD MSTORE PUSH2 0x3D73 DUP2 DUP8 PUSH2 0x386D JUMP JUMPDEST SWAP1 POP DUP2 DUP2 SUB PUSH1 0x20 DUP4 ADD MSTORE PUSH2 0x3D87 DUP2 DUP7 PUSH2 0x386D JUMP JUMPDEST SWAP1 POP DUP2 DUP2 SUB PUSH1 0x40 DUP4 ADD MSTORE PUSH2 0x3D9B DUP2 DUP6 PUSH2 0x386D JUMP JUMPDEST SWAP1 POP DUP2 DUP2 SUB PUSH1 0x60 DUP4 ADD MSTORE PUSH2 0x3DAF DUP2 DUP5 PUSH2 0x386D JUMP JUMPDEST SWAP1 POP SWAP6 SWAP5 POP POP POP POP POP JUMP JUMPDEST PUSH0 DUP1 PUSH1 0x40 DUP4 DUP6 SUB SLT ISZERO PUSH2 0x3DD0 JUMPI PUSH2 0x3DCF PUSH2 0x377A JUMP JUMPDEST JUMPDEST PUSH0 PUSH2 0x3DDD DUP6 DUP3 DUP7 ADD PUSH2 0x3991 JUMP JUMPDEST SWAP3 POP POP PUSH1 0x20 PUSH2 0x3DEE DUP6 DUP3 DUP7 ADD PUSH2 0x3991 JUMP JUMPDEST SWAP2 POP POP SWAP3 POP SWAP3 SWAP1 POP JUMP JUMPDEST PUSH32 0x4E487B7100000000000000000000000000000000000000000000000000000000 PUSH0 MSTORE PUSH1 0x22 PUSH1 0x4 MSTORE PUSH1 0x24 PUSH0 REVERT JUMPDEST PUSH0 PUSH1 0x2 DUP3 DIV SWAP1 POP PUSH1 0x1 DUP3 AND DUP1 PUSH2 0x3E3C JUMPI PUSH1 0x7F DUP3 AND SWAP2 POP JUMPDEST PUSH1 0x20 DUP3 LT DUP2 SUB PUSH2 0x3E4F JUMPI PUSH2 0x3E4E PUSH2 0x3DF8 JUMP JUMPDEST JUMPDEST POP SWAP2 SWAP1 POP JUMP JUMPDEST PUSH32 0x496E76616C696420696E64657800000000000000000000000000000000000000 PUSH0 DUP3 ADD MSTORE POP JUMP JUMPDEST PUSH0 PUSH2 0x3E89 PUSH1 0xD DUP4 PUSH2 0x383F JUMP JUMPDEST SWAP2 POP PUSH2 0x3E94 DUP3 PUSH2 0x3E55 JUMP JUMPDEST PUSH1 0x20 DUP3 ADD SWAP1 POP SWAP2 SWAP1 POP JUMP JUMPDEST PUSH0 PUSH1 0x20 DUP3 ADD SWAP1 POP DUP2 DUP2 SUB PUSH0 DUP4 ADD MSTORE PUSH2 0x3EB6 DUP2 PUSH2 0x3E7D JUMP JUMPDEST SWAP1 POP SWAP2 SWAP1 POP JUMP JUMPDEST PUSH32 0x4E487B7100000000000000000000000000000000000000000000000000000000 PUSH0 MSTORE PUSH1 0x32 PUSH1 0x4 MSTORE PUSH1 0x24 PUSH0 REVERT JUMPDEST PUSH32 0x4E487B7100000000000000000000000000000000000000000000000000000000 PUSH0 MSTORE PUSH1 0x11 PUSH1 0x4 MSTORE PUSH1 0x24 PUSH0 REVERT JUMPDEST PUSH0 PUSH2 0x3F21 DUP3 PUSH2 0x38C5 JUMP JUMPDEST SWAP2 POP PUSH2 0x3F2C DUP4 PUSH2 0x38C5 JUMP JUMPDEST SWAP3 POP DUP3 DUP3 SUB SWAP1 POP DUP2 DUP2 GT ISZERO PUSH2 0x3F44 JUMPI PUSH2 0x3F43 PUSH2 0x3EEA JUMP JUMPDEST JUMPDEST SWAP3 SWAP2 POP POP JUMP JUMPDEST PUSH32 0x4E6F7420617574686F72697A6564206F7261636C650000000000000000000000 PUSH0 DUP3 ADD MSTORE POP JUMP JUMPDEST PUSH0 PUSH2 0x3F7E PUSH1 0x15 DUP4 PUSH2 0x383F JUMP JUMPDEST SWAP2 POP PUSH2 0x3F89 DUP3 PUSH2 0x3F4A JUMP JUMPDEST PUSH1 0x20 DUP3 ADD SWAP1 POP SWAP2 SWAP1 POP JUMP JUMPDEST PUSH0 PUSH1 0x20 DUP3 ADD SWAP1 POP DUP2 DUP2 SUB PUSH0 DUP4 ADD MSTORE PUSH2 0x3FAB DUP2 PUSH2 0x3F72 JUMP JUMPDEST SWAP1 POP SWAP2 SWAP1 POP JUMP JUMPDEST PUSH0 PUSH2 0x3FBC DUP3 PUSH2 0x38C5 JUMP JUMPDEST SWAP2 POP PUSH2 0x3FC7 DUP4 PUSH2 0x38C5 JUMP JUMPDEST SWAP3 POP DUP3 DUP3 ADD SWAP1 POP DUP1 DUP3 GT ISZERO PUSH2 0x3FDF JUMPI PUSH2 0x3FDE PUSH2 0x3EEA JUMP JUMPDEST JUMPDEST SWAP3 SWAP2 POP POP JUMP JUMPDEST PUSH0 DUP2 SWAP1 POP SWAP2 SWAP1 POP JUMP JUMPDEST PUSH2 0x3FFF PUSH2 0x3FFA DUP3 PUSH2 0x38C5 JUMP JUMPDEST PUSH2 0x3FE5 JUMP JUMPDEST DUP3 MSTORE POP POP JUMP JUMPDEST PUSH0 DUP2 PUSH1 0x60 SHL SWAP1 POP SWAP2 SWAP1 POP JUMP JUMPDEST PUSH0 PUSH2 0x401B DUP3 PUSH2 0x4005 JUMP JUMPDEST SWAP1 POP SWAP2 SWAP1 POP JUMP JUMPDEST PUSH0 PUSH2 0x402C DUP3 PUSH2 0x4011 JUMP JUMPDEST SWAP1 POP SWAP2 SWAP1 POP JUMP JUMPDEST PUSH2 0x4044 PUSH2 0x403F DUP3 PUSH2 0x3942 JUMP JUMPDEST PUSH2 0x4022 JUMP JUMPDEST DUP3 MSTORE POP POP JUMP JUMPDEST PUSH0 PUSH2 0x4055 DUP3 DUP7 PUSH2 0x3FEE JUMP JUMPDEST PUSH1 0x20 DUP3 ADD SWAP2 POP PUSH2 0x4065 DUP3 DUP6 PUSH2 0x4033 JUMP JUMPDEST PUSH1 0x14 DUP3 ADD SWAP2 POP PUSH2 0x4075 DUP3 DUP5 PUSH2 0x3FEE JUMP JUMPDEST PUSH1 0x20 DUP3 ADD SWAP2 POP DUP2 SWAP1 POP SWAP5 SWAP4 POP POP POP POP JUMP JUMPDEST PUSH32 0x4E487B7100000000000000000000000000000000000000000000000000000000 PUSH0 MSTORE PUSH1 0x12 PUSH1 0x4 MSTORE PUSH1 0x24 PUSH0 REVERT JUMPDEST PUSH0 PUSH2 0x40BD DUP3 PUSH2 0x38C5 JUMP JUMPDEST SWAP2 POP PUSH2 0x40C8 DUP4 PUSH2 0x38C5 JUMP JUMPDEST SWAP3 POP DUP3 PUSH2 0x40D8 JUMPI PUSH2 0x40D7 PUSH2 0x4086 JUMP JUMPDEST JUMPDEST DUP3 DUP3 MOD SWAP1 POP SWAP3 SWAP2 POP POP JUMP JUMPDEST PUSH0 DUP2 SWAP1 POP DUP2 PUSH0 MSTORE PUSH1 0x20 PUSH0 KECCAK256 SWAP1 POP SWAP2 SWAP1 POP JUMP JUMPDEST PUSH0 PUSH1 0x20 PUSH1 0x1F DUP4 ADD DIV SWAP1 POP SWAP2 SWAP1 POP JUMP JUMPDEST PUSH0 DUP3 DUP3 SHL SWAP1 POP SWAP3 SWAP2 POP POP JUMP JUMPDEST PUSH0 PUSH1 0x8 DUP4 MUL PUSH2 0x413F PUSH32 0xFFFFFFFFFFFFFFFFFFFFFFFFFFFFFFFFFFFFFFFFFFFFFFFFFFFFFFFFFFFFFFFF DUP3 PUSH2 0x4104 JUMP JUMPDEST PUSH2 0x4149 DUP7 DUP4 PUSH2 0x4104 JUMP JUMPDEST SWAP6 POP DUP1 NOT DUP5 AND SWAP4 POP DUP1 DUP7 AND DUP5 OR SWAP3 POP POP POP SWAP4 SWAP3 POP POP POP JUMP JUMPDEST PUSH0 DUP2 SWAP1 POP SWAP2 SWAP1 POP JUMP JUMPDEST PUSH0 PUSH2 0x4184 PUSH2 0x417F PUSH2 0x417A DUP5 PUSH2 0x38C5 JUMP JUMPDEST PUSH2 0x4161 JUMP JUMPDEST PUSH2 0x38C5 JUMP JUMPDEST SWAP1 POP SWAP2 SWAP1 POP JUMP JUMPDEST PUSH0 DUP2 SWAP1 POP SWAP2 SWAP1 POP JUMP JUMPDEST PUSH2 0x419D DUP4 PUSH2 0x416A JUMP JUMPDEST PUSH2 0x41B1 PUSH2 0x41A9 DUP3 PUSH2 0x418B JUMP JUMPDEST DUP5 DUP5 SLOAD PUSH2 0x4110 JUMP JUMPDEST DUP3 SSTORE POP POP POP POP JUMP JUMPDEST PUSH0 SWAP1 JUMP JUMPDEST PUSH2 0x41C5 PUSH2 0x41B9 JUMP JUMPDEST PUSH2 0x41D0 DUP2 DUP5 DUP5 PUSH2 0x4194 JUMP JUMPDEST POP POP POP JUMP JUMPDEST JUMPDEST DUP2 DUP2 LT ISZERO PUSH2 0x41F3 JUMPI PUSH2 0x41E8 PUSH0 DUP3 PUSH2 0x41BD JUMP JUMPDEST PUSH1 0x1 DUP2 ADD SWAP1 POP PUSH2 0x41D6 JUMP JUMPDEST POP POP JUMP JUMPDEST PUSH1 0x1F DUP3 GT ISZERO PUSH2 0x4238 JUMPI PUSH2 0x4209 DUP2 PUSH2 0x40E3 JUMP JUMPDEST PUSH2 0x4212 DUP5 PUSH2 0x40F5 JUMP JUMPDEST DUP2 ADD PUSH1 0x20 DUP6 LT ISZERO PUSH2 0x4221 JUMPI DUP2 SWAP1 POP JUMPDEST PUSH2 0x4235 PUSH2 0x422D DUP6 PUSH2 0x40F5 JUMP JUMPDEST DUP4 ADD DUP3 PUSH2 0x41D5 JUMP JUMPDEST POP POP JUMPDEST POP POP POP JUMP JUMPDEST PUSH0 DUP3 DUP3 SHR SWAP1 POP SWAP3 SWAP2 POP POP JUMP JUMPDEST PUSH0 PUSH2 0x4258 PUSH0 NOT DUP5 PUSH1 0x8 MUL PUSH2 0x423D JUMP JUMPDEST NOT DUP1 DUP4 AND SWAP2 POP POP SWAP3 SWAP2 POP POP JUMP JUMPDEST PUSH0 PUSH2 0x4270 DUP4 DUP4 PUSH2 0x4249 JUMP JUMPDEST SWAP2 POP DUP3 PUSH1 0x2 MUL DUP3 OR SWAP1 POP SWAP3 SWAP2 POP POP JUMP JUMPDEST PUSH2 0x4289 DUP3 PUSH2 0x3835 JUMP JUMPDEST PUSH8 0xFFFFFFFFFFFFFFFF DUP2 GT ISZERO PUSH2 0x42A2 JUMPI PUSH2 0x42A1 PUSH2 0x3BB7 JUMP JUMPDEST JUMPDEST PUSH2 0x42AC DUP3 SLOAD PUSH2 0x3E25 JUMP JUMPDEST PUSH2 0x42B7 DUP3 DUP3 DUP6 PUSH2 0x41F7 JUMP JUMPDEST PUSH0 PUSH1 0x20 SWAP1 POP PUSH1 0x1F DUP4 GT PUSH1 0x1 DUP2 EQ PUSH2 0x42E8 JUMPI PUSH0 DUP5 ISZERO PUSH2 0x42D6 JUMPI DUP3 DUP8 ADD MLOAD SWAP1 POP JUMPDEST PUSH2 0x42E0 DUP6 DUP3 PUSH2 0x4265 JUMP JUMPDEST DUP7 SSTORE POP PUSH2 0x4347 JUMP JUMPDEST PUSH1 0x1F NOT DUP5 AND PUSH2 0x42F6 DUP7 PUSH2 0x40E3 JUMP JUMPDEST PUSH0 JUMPDEST DUP3 DUP2 LT ISZERO PUSH2 0x431D JUMPI DUP5 DUP10 ADD MLOAD DUP3 SSTORE PUSH1 0x1 DUP3 ADD SWAP2 POP PUSH1 0x20 DUP6 ADD SWAP5 POP PUSH1 0x20 DUP2 ADD SWAP1 POP PUSH2 0x42F8 JUMP JUMPDEST DUP7 DUP4 LT ISZERO PUSH2 0x433A JUMPI DUP5 DUP10 ADD MLOAD PUSH2 0x4336 PUSH1 0x1F DUP10 AND DUP3 PUSH2 0x4249 JUMP JUMPDEST DUP4 SSTORE POP JUMPDEST PUSH1 0x1 PUSH1 0x2 DUP9 MUL ADD DUP9 SSTORE POP POP POP JUMPDEST POP POP POP POP POP POP JUMP JUMPDEST PUSH0 PUSH1 0x40 DUP3 ADD SWAP1 POP PUSH2 0x4362 PUSH0 DUP4 ADD DUP6 PUSH2 0x3953 JUMP JUMPDEST PUSH2 0x436F PUSH1 0x20 DUP4 ADD DUP5 PUSH2 0x39E3 JUMP JUMPDEST SWAP4 SWAP3 POP POP POP JUMP JUMPDEST PUSH32 0x436F6F6C646F776E206163746976650000000000000000000000000000000000 PUSH0 DUP3 ADD MSTORE POP JUMP JUMPDEST PUSH0 PUSH2 0x43AA PUSH1 0xF DUP4 PUSH2 0x383F JUMP JUMPDEST SWAP2 POP PUSH2 0x43B5 DUP3 PUSH2 0x4376 JUMP JUMPDEST PUSH1 0x20 DUP3 ADD SWAP1 POP SWAP2 SWAP1 POP JUMP JUMPDEST PUSH0 PUSH1 0x20 DUP3 ADD SWAP1 POP DUP2 DUP2 SUB PUSH0 DUP4 ADD MSTORE PUSH2 0x43D7 DUP2 PUSH2 0x439E JUMP JUMPDEST SWAP1 POP SWAP2 SWAP1 POP JUMP JUMPDEST PUSH32 0x4D61782073656E74696D656E7420697320313030000000000000000000000000 PUSH0 DUP3 ADD MSTORE POP JUMP JUMPDEST PUSH0 PUSH2 0x4412 PUSH1 0x14 DUP4 PUSH2 0x383F JUMP JUMPDEST SWAP2 POP PUSH2 0x441D DUP3 PUSH2 0x43DE JUMP JUMPDEST PUSH1 0x20 DUP3 ADD SWAP1 POP SWAP2 SWAP1 POP JUMP JUMPDEST PUSH0 PUSH1 0x20 DUP3 ADD SWAP1 POP DUP2 DUP2 SUB PUSH0 DUP4 ADD MSTORE PUSH2 0x443F DUP2 PUSH2 0x4406 JUMP JUMPDEST SWAP1 POP SWAP2 SWAP1 POP JUMP JUMPDEST PUSH0 PUSH1 0x40 DUP3 ADD SWAP1 POP PUSH2 0x4459 PUSH0 DUP4 ADD DUP6 PUSH2 0x39E3 JUMP JUMPDEST PUSH2 0x4466 PUSH1 0x20 DUP4 ADD DUP5 PUSH2 0x3ABF JUMP JUMPDEST SWAP4 SWAP3 POP POP POP JUMP JUMPDEST PUSH32 0x446F6573206E6F74206578697374000000000000000000000000000000000000 PUSH0 DUP3 ADD MSTORE POP JUMP JUMPDEST PUSH0 PUSH2 0x44A1 PUSH1 0xE DUP4 PUSH2 0x383F JUMP JUMPDEST SWAP2 POP PUSH2 0x44AC DUP3 PUSH2 0x446D JUMP JUMPDEST PUSH1 0x20 DUP3 ADD SWAP1 POP SWAP2 SWAP1 POP JUMP JUMPDEST PUSH0 PUSH1 0x20 DUP3 ADD SWAP1 POP DUP2 DUP2 SUB PUSH0 DUP4 ADD MSTORE PUSH2 0x44CE DUP2 PUSH2 0x4495 JUMP JUMPDEST SWAP1 POP SWAP2 SWAP1 POP JUMP JUMPDEST PUSH0 DUP2 SWAP1 POP SWAP3 SWAP2 POP POP JUMP JUMPDEST PUSH32 0x646174613A6170706C69636174696F6E2F6A736F6E3B757466382C7B00000000 PUSH0 DUP3 ADD MSTORE POP JUMP JUMPDEST PUSH0 PUSH2 0x4513 PUSH1 0x1C DUP4 PUSH2 0x44D5 JUMP JUMPDEST SWAP2 POP PUSH2 0x451E DUP3 PUSH2 0x44DF JUMP JUMPDEST PUSH1 0x1C DUP3 ADD SWAP1 POP SWAP2 SWAP1 POP JUMP JUMPDEST PUSH32 0x226E616D65223A2243727970746F204265617374202300000000000000000000 PUSH0 DUP3 ADD MSTORE POP JUMP JUMPDEST PUSH0 PUSH2 0x455D PUSH1 0x16 DUP4 PUSH2 0x44D5 JUMP JUMPDEST SWAP2 POP PUSH2 0x4568 DUP3 PUSH2 0x4529 JUMP JUMPDEST PUSH1 0x16 DUP3 ADD SWAP1 POP SWAP2 SWAP1 POP JUMP JUMPDEST PUSH0 PUSH2 0x457D DUP3 PUSH2 0x3835 JUMP JUMPDEST PUSH2 0x4587 DUP2 DUP6 PUSH2 0x44D5 JUMP JUMPDEST SWAP4 POP PUSH2 0x4597 DUP2 DUP6 PUSH1 0x20 DUP7 ADD PUSH2 0x384F JUMP JUMPDEST DUP1 DUP5 ADD SWAP2 POP POP SWAP3 SWAP2 POP POP JUMP JUMPDEST PUSH32 0x222C000000000000000000000000000000000000000000000000000000000000 PUSH0 DUP3 ADD MSTORE POP JUMP JUMPDEST PUSH0 PUSH2 0x45D7 PUSH1 0x2 DUP4 PUSH2 0x44D5 JUMP JUMPDEST SWAP2 POP PUSH2 0x45E2 DUP3 PUSH2 0x45A3 JUMP JUMPDEST PUSH1 0x2 DUP3 ADD SWAP1 POP SWAP2 SWAP1 POP JUMP JUMPDEST PUSH32 0x226465736372697074696F6E223A2253656E7469656E74204E46542074686174 PUSH0 DUP3 ADD MSTORE PUSH32 0x2065766F6C7665732077697468206D61726B65742073656E74696D656E742E22 PUSH1 0x20 DUP3 ADD MSTORE PUSH32 0x2C00000000000000000000000000000000000000000000000000000000000000 PUSH1 0x40 DUP3 ADD MSTORE POP JUMP JUMPDEST PUSH0 PUSH2 0x466D PUSH1 0x41 DUP4 PUSH2 0x44D5 JUMP JUMPDEST SWAP2 POP PUSH2 0x4678 DUP3 PUSH2 0x45ED JUMP JUMPDEST PUSH1 0x41 DUP3 ADD SWAP1 POP SWAP2 SWAP1 POP JUMP JUMPDEST PUSH32 0x22696D616765223A22646174613A696D6167652F7376672B786D6C3B75746638 PUSH0 DUP3 ADD MSTORE PUSH32 0x2C00000000000000000000000000000000000000000000000000000000000000 PUSH1 0x20 DUP3 ADD MSTORE POP JUMP JUMPDEST PUSH0 PUSH2 0x46DD PUSH1 0x21 DUP4 PUSH2 0x44D5 JUMP JUMPDEST SWAP2 POP PUSH2 0x46E8 DUP3 PUSH2 0x4683 JUMP JUMPDEST PUSH1 0x21 DUP3 ADD SWAP1 POP SWAP2 SWAP1 POP JUMP JUMPDEST PUSH32 0x2261747472696275746573223A5B000000000000000000000000000000000000 PUSH0 DUP3 ADD MSTORE POP JUMP JUMPDEST PUSH0 PUSH2 0x4727 PUSH1 0xE DUP4 PUSH2 0x44D5 JUMP JUMPDEST SWAP2 POP PUSH2 0x4732 DUP3 PUSH2 0x46F3 JUMP JUMPDEST PUSH1 0xE DUP3 ADD SWAP1 POP SWAP2 SWAP1 POP JUMP JUMPDEST PUSH32 0x7B2274726169745F74797065223A2254797065222C2276616C7565223A220000 PUSH0 DUP3 ADD MSTORE POP JUMP JUMPDEST PUSH0 PUSH2 0x4771 PUSH1 0x1E DUP4 PUSH2 0x44D5 JUMP JUMPDEST SWAP2 POP PUSH2 0x477C DUP3 PUSH2 0x473D JUMP JUMPDEST PUSH1 0x1E DUP3 ADD SWAP1 POP SWAP2 SWAP1 POP JUMP JUMPDEST PUSH32 0x227D2C0000000000000000000000000000000000000000000000000000000000 PUSH0 DUP3 ADD MSTORE POP JUMP JUMPDEST PUSH0 PUSH2 0x47BB PUSH1 0x3 DUP4 PUSH2 0x44D5 JUMP JUMPDEST SWAP2 POP PUSH2 0x47C6 DUP3 PUSH2 0x4787 JUMP JUMPDEST PUSH1 0x3 DUP3 ADD SWAP1 POP SWAP2 SWAP1 POP JUMP JUMPDEST PUSH32 0x7B2274726169745F74797065223A22467572222C2276616C7565223A22000000 PUSH0 DUP3 ADD MSTORE POP JUMP JUMPDEST PUSH0 PUSH2 0x4805 PUSH1 0x1D DUP4 PUSH2 0x44D5 JUMP JUMPDEST SWAP2 POP PUSH2 0x4810 DUP3 PUSH2 0x47D1 JUMP JUMPDEST PUSH1 0x1D DUP3 ADD SWAP1 POP SWAP2 SWAP1 POP JUMP JUMPDEST PUSH32 0x7B2274726169745F74797065223A2245796573222C2276616C7565223A220000 PUSH0 DUP3 ADD MSTORE POP JUMP JUMPDEST PUSH0 PUSH2 0x484F PUSH1 0x1E DUP4 PUSH2 0x44D5 JUMP JUMPDEST SWAP2 POP PUSH2 0x485A DUP3 PUSH2 0x481B JUMP JUMPDEST PUSH1 0x1E DUP3 ADD SWAP1 POP SWAP2 SWAP1 POP JUMP JUMPDEST PUSH32 0x7B2274726169745F74797065223A224261636B67726F756E64222C2276616C75 PUSH0 DUP3 ADD MSTORE PUSH32 0x65223A2200000000000000000000000000000000000000000000000000000000 PUSH1 0x20 DUP3 ADD MSTORE POP JUMP JUMPDEST PUSH0 PUSH2 0x48BF PUSH1 0x24 DUP4 PUSH2 0x44D5 JUMP JUMPDEST SWAP2 POP PUSH2 0x48CA DUP3 PUSH2 0x4865 JUMP JUMPDEST PUSH1 0x24 DUP3 ADD SWAP1 POP SWAP2 SWAP1 POP JUMP JUMPDEST PUSH32 0x7B2274726169745F74797065223A2253656E74696D656E74222C2276616C7565 PUSH0 DUP3 ADD MSTORE PUSH32 0x223A220000000000000000000000000000000000000000000000000000000000 PUSH1 0x20 DUP3 ADD MSTORE POP JUMP JUMPDEST PUSH0 PUSH2 0x492F PUSH1 0x23 DUP4 PUSH2 0x44D5 JUMP JUMPDEST SWAP2 POP PUSH2 0x493A DUP3 PUSH2 0x48D5 JUMP JUMPDEST PUSH1 0x23 DUP3 ADD SWAP1 POP SWAP2 SWAP1 POP JUMP JUMPDEST PUSH32 0x227D000000000000000000000000000000000000000000000000000000000000 PUSH0 DUP3 ADD MSTORE POP JUMP JUMPDEST PUSH0 PUSH2 0x4979 PUSH1 0x2 DUP4 PUSH2 0x44D5 JUMP JUMPDEST SWAP2 POP PUSH2 0x4984 DUP3 PUSH2 0x4945 JUMP JUMPDEST PUSH1 0x2 DUP3 ADD SWAP1 POP SWAP2 SWAP1 POP JUMP JUMPDEST PUSH32 0x5D00000000000000000000000000000000000000000000000000000000000000 PUSH0 DUP3 ADD MSTORE POP JUMP JUMPDEST PUSH0 PUSH2 0x49C3 PUSH1 0x1 DUP4 PUSH2 0x44D5 JUMP JUMPDEST SWAP2 POP PUSH2 0x49CE DUP3 PUSH2 0x498F JUMP JUMPDEST PUSH1 0x1 DUP3 ADD SWAP1 POP SWAP2 SWAP1 POP JUMP JUMPDEST PUSH32 0x7D00000000000000000000000000000000000000000000000000000000000000 PUSH0 DUP3 ADD MSTORE POP JUMP JUMPDEST PUSH0 PUSH2 0x4A0D PUSH1 0x1 DUP4 PUSH2 0x44D5 JUMP JUMPDEST SWAP2 POP PUSH2 0x4A18 DUP3 PUSH2 0x49D9 JUMP JUMPDEST PUSH1 0x1 DUP3 ADD SWAP1 POP SWAP2 SWAP1 POP JUMP JUMPDEST PUSH0 PUSH2 0x4A2D DUP3 PUSH2 0x4507 JUMP JUMPDEST SWAP2 POP PUSH2 0x4A38 DUP3 PUSH2 0x4551 JUMP JUMPDEST SWAP2 POP PUSH2 0x4A44 DUP3 DUP11 PUSH2 0x4573 JUMP JUMPDEST SWAP2 POP PUSH2 0x4A4F DUP3 PUSH2 0x45CB JUMP JUMPDEST SWAP2 POP PUSH2 0x4A5A DUP3 PUSH2 0x4661 JUMP JUMPDEST SWAP2 POP PUSH2 0x4A65 DUP3 PUSH2 0x46D1 JUMP JUMPDEST SWAP2 POP PUSH2 0x4A71 DUP3 DUP10 PUSH2 0x4573 JUMP JUMPDEST SWAP2 POP PUSH2 0x4A7C DUP3 PUSH2 0x45CB JUMP JUMPDEST SWAP2 POP PUSH2 0x4A87 DUP3 PUSH2 0x471B JUMP JUMPDEST SWAP2 POP PUSH2 0x4A92 DUP3 PUSH2 0x4765 JUMP JUMPDEST SWAP2 POP PUSH2 0x4A9E DUP3 DUP9 PUSH2 0x4573 JUMP JUMPDEST SWAP2 POP PUSH2 0x4AA9 DUP3 PUSH2 0x47AF JUMP JUMPDEST SWAP2 POP PUSH2 0x4AB4 DUP3 PUSH2 0x47F9 JUMP JUMPDEST SWAP2 POP PUSH2 0x4AC0 DUP3 DUP8 PUSH2 0x4573 JUMP JUMPDEST SWAP2 POP PUSH2 0x4ACB DUP3 PUSH2 0x47AF JUMP JUMPDEST SWAP2 POP PUSH2 0x4AD6 DUP3 PUSH2 0x4843 JUMP JUMPDEST SWAP2 POP PUSH2 0x4AE2 DUP3 DUP7 PUSH2 0x4573 JUMP JUMPDEST SWAP2 POP PUSH2 0x4AED DUP3 PUSH2 0x47AF JUMP JUMPDEST SWAP2 POP PUSH2 0x4AF8 DUP3 PUSH2 0x48B3 JUMP JUMPDEST SWAP2 POP PUSH2 0x4B04 DUP3 DUP6 PUSH2 0x4573 JUMP JUMPDEST SWAP2 POP PUSH2 0x4B0F DUP3 PUSH2 0x47AF JUMP JUMPDEST SWAP2 POP PUSH2 0x4B1A DUP3 PUSH2 0x4923 JUMP JUMPDEST SWAP2 POP PUSH2 0x4B26 DUP3 DUP5 PUSH2 0x4573 JUMP JUMPDEST SWAP2 POP PUSH2 0x4B31 DUP3 PUSH2 0x496D JUMP JUMPDEST SWAP2 POP PUSH2 0x4B3C DUP3 PUSH2 0x49B7 JUMP JUMPDEST SWAP2 POP PUSH2 0x4B47 DUP3 PUSH2 0x4A01 JUMP JUMPDEST SWAP2 POP DUP2 SWAP1 POP SWAP9 SWAP8 POP POP POP POP POP POP POP POP JUMP JUMPDEST PUSH0 PUSH2 0x4B62 DUP3 PUSH2 0x38C5 JUMP JUMPDEST SWAP2 POP PUSH0 DUP3 SUB PUSH2 0x4B74 JUMPI PUSH2 0x4B73 PUSH2 0x3EEA JUMP JUMPDEST JUMPDEST PUSH1 0x1 DUP3 SUB SWAP1 POP SWAP2 SWAP1 POP JUMP JUMPDEST PUSH0 DUP2 SLOAD PUSH2 0x4B8B DUP2 PUSH2 0x3E25 JUMP JUMPDEST PUSH2 0x4B95 DUP2 DUP7 PUSH2 0x383F JUMP JUMPDEST SWAP5 POP PUSH1 0x1 DUP3 AND PUSH0 DUP2 EQ PUSH2 0x4BAF JUMPI PUSH1 0x1 DUP2 EQ PUSH2 0x4BC5 JUMPI PUSH2 0x4BF7 JUMP JUMPDEST PUSH1 0xFF NOT DUP4 AND DUP7 MSTORE DUP2 ISZERO ISZERO PUSH1 0x20 MUL DUP7 ADD SWAP4 POP PUSH2 0x4BF7 JUMP JUMPDEST PUSH2 0x4BCE DUP6 PUSH2 0x40E3 JUMP JUMPDEST PUSH0 JUMPDEST DUP4 DUP2 LT ISZERO PUSH2 0x4BEF JUMPI DUP2 SLOAD DUP2 DUP10 ADD MSTORE PUSH1 0x1 DUP3 ADD SWAP2 POP PUSH1 0x20 DUP2 ADD SWAP1 POP PUSH2 0x4BD0 JUMP JUMPDEST DUP1 DUP9 ADD SWAP6 POP POP POP JUMPDEST POP POP POP SWAP3 SWAP2 POP POP JUMP JUMPDEST PUSH0 PUSH1 0x80 DUP3 ADD SWAP1 POP PUSH2 0x4C13 PUSH0 DUP4 ADD DUP8 PUSH2 0x39E3 JUMP JUMPDEST DUP2 DUP2 SUB PUSH1 0x20 DUP4 ADD MSTORE PUSH2 0x4C25 DUP2 DUP7 PUSH2 0x4B7F JUMP JUMPDEST SWAP1 POP DUP2 DUP2 SUB PUSH1 0x40 DUP4 ADD MSTORE PUSH2 0x4C39 DUP2 DUP6 PUSH2 0x4B7F JUMP JUMPDEST SWAP1 POP DUP2 DUP2 SUB PUSH1 0x60 DUP4 ADD MSTORE PUSH2 0x4C4D DUP2 DUP5 PUSH2 0x4B7F JUMP JUMPDEST SWAP1 POP SWAP6 SWAP5 POP POP POP POP POP JUMP JUMPDEST PUSH0 DUP2 MLOAD SWAP1 POP SWAP2 SWAP1 POP JUMP JUMPDEST PUSH0 DUP3 DUP3 MSTORE PUSH1 0x20 DUP3 ADD SWAP1 POP SWAP3 SWAP2 POP POP JUMP JUMPDEST PUSH0 PUSH2 0x4C7C DUP3 PUSH2 0x4C58 JUMP JUMPDEST PUSH2 0x4C86 DUP2 DUP6 PUSH2 0x4C62 JUMP JUMPDEST SWAP4 POP PUSH2 0x4C96 DUP2 DUP6 PUSH1 0x20 DUP7 ADD PUSH2 0x384F JUMP JUMPDEST PUSH2 0x4C9F DUP2 PUSH2 0x385D JUMP JUMPDEST DUP5 ADD SWAP2 POP POP SWAP3 SWAP2 POP POP JUMP JUMPDEST PUSH0 PUSH1 0x80 DUP3 ADD SWAP1 POP PUSH2 0x4CBD PUSH0 DUP4 ADD DUP8 PUSH2 0x3953 JUMP JUMPDEST PUSH2 0x4CCA PUSH1 0x20 DUP4 ADD DUP7 PUSH2 0x3953 JUMP JUMPDEST PUSH2 0x4CD7 PUSH1 0x40 DUP4 ADD DUP6 PUSH2 0x39E3 JUMP JUMPDEST DUP2 DUP2 SUB PUSH1 0x60 DUP4 ADD MSTORE PUSH2 0x4CE9 DUP2 DUP5 PUSH2 0x4C72 JUMP JUMPDEST SWAP1 POP SWAP6 SWAP5 POP POP POP POP POP JUMP JUMPDEST PUSH0 DUP2 MLOAD SWAP1 POP PUSH2 0x4D02 DUP2 PUSH2 0x37AD JUMP JUMPDEST SWAP3 SWAP2 POP POP JUMP JUMPDEST PUSH0 PUSH1 0x20 DUP3 DUP5 SUB SLT ISZERO PUSH2 0x4D1D JUMPI PUSH2 0x4D1C PUSH2 0x377A JUMP JUMPDEST JUMPDEST PUSH0 PUSH2 0x4D2A DUP5 DUP3 DUP6 ADD PUSH2 0x4CF4 JUMP JUMPDEST SWAP2 POP POP SWAP3 SWAP2 POP POP JUMP JUMPDEST PUSH32 0x3C73766720786D6C6E733D27687474703A2F2F7777772E77332E6F72672F3230 PUSH0 DUP3 ADD MSTORE PUSH32 0x30302F737667272077696474683D2733303027206865696768743D2733303027 PUSH1 0x20 DUP3 ADD MSTORE PUSH32 0x3E00000000000000000000000000000000000000000000000000000000000000 PUSH1 0x40 DUP3 ADD MSTORE POP JUMP JUMPDEST PUSH0 PUSH2 0x4DB3 PUSH1 0x41 DUP4 PUSH2 0x44D5 JUMP JUMPDEST SWAP2 POP PUSH2 0x4DBE DUP3 PUSH2 0x4D33 JUMP JUMPDEST PUSH1 0x41 DUP3 ADD SWAP1 POP SWAP2 SWAP1 POP JUMP JUMPDEST PUSH32 0x3C726563742077696474683D273130302527206865696768743D273130302527 PUSH0 DUP3 ADD MSTORE PUSH32 0x2066696C6C3D2700000000000000000000000000000000000000000000000000 PUSH1 0x20 DUP3 ADD MSTORE POP JUMP JUMPDEST PUSH0 PUSH2 0x4E23 PUSH1 0x27 DUP4 PUSH2 0x44D5 JUMP JUMPDEST SWAP2 POP PUSH2 0x4E2E DUP3 PUSH2 0x4DC9 JUMP JUMPDEST PUSH1 0x27 DUP3 ADD SWAP1 POP SWAP2 SWAP1 POP JUMP JUMPDEST PUSH32 0x272F3E0000000000000000000000000000000000000000000000000000000000 PUSH0 DUP3 ADD MSTORE POP JUMP JUMPDEST PUSH0 PUSH2 0x4E6D PUSH1 0x3 DUP4 PUSH2 0x44D5 JUMP JUMPDEST SWAP2 POP PUSH2 0x4E78 DUP3 PUSH2 0x4E39 JUMP JUMPDEST PUSH1 0x3 DUP3 ADD SWAP1 POP SWAP2 SWAP1 POP JUMP JUMPDEST PUSH32 0x3C7465787420783D273530252720793D273330252720646F6D696E616E742D62 PUSH0 DUP3 ADD MSTORE PUSH32 0x6173656C696E653D276D6964646C652720746578742D616E63686F723D276D69 PUSH1 0x20 DUP3 ADD MSTORE PUSH32 0x64646C652720666F6E742D73697A653D273230272066696C6C3D277768697465 PUSH1 0x40 DUP3 ADD MSTORE PUSH32 0x273E000000000000000000000000000000000000000000000000000000000000 PUSH1 0x60 DUP3 ADD MSTORE POP JUMP JUMPDEST PUSH0 PUSH2 0x4F29 PUSH1 0x62 DUP4 PUSH2 0x44D5 JUMP JUMPDEST SWAP2 POP PUSH2 0x4F34 DUP3 PUSH2 0x4E83 JUMP JUMPDEST PUSH1 0x62 DUP3 ADD SWAP1 POP SWAP2 SWAP1 POP JUMP JUMPDEST PUSH32 0x3C2F746578743E00000000000000000000000000000000000000000000000000 PUSH0 DUP3 ADD MSTORE POP JUMP JUMPDEST PUSH0 PUSH2 0x4F73 PUSH1 0x7 DUP4 PUSH2 0x44D5 JUMP JUMPDEST SWAP2 POP PUSH2 0x4F7E DUP3 PUSH2 0x4F3F JUMP JUMPDEST PUSH1 0x7 DUP3 ADD SWAP1 POP SWAP2 SWAP1 POP JUMP JUMPDEST PUSH32 0x3C7465787420783D273530252720793D273435252720646F6D696E616E742D62 PUSH0 DUP3 ADD MSTORE PUSH32 0x6173656C696E653D276D6964646C652720746578742D616E63686F723D276D69 PUSH1 0x20 DUP3 ADD MSTORE PUSH32 0x64646C652720666F6E742D73697A653D273134272066696C6C3D277768697465 PUSH1 0x40 DUP3 ADD MSTORE PUSH32 0x273E4D6F6F643A20000000000000000000000000000000000000000000000000 PUSH1 0x60 DUP3 ADD MSTORE POP JUMP JUMPDEST PUSH0 PUSH2 0x502F PUSH1 0x68 DUP4 PUSH2 0x44D5 JUMP JUMPDEST SWAP2 POP PUSH2 0x503A DUP3 PUSH2 0x4F89 JUMP JUMPDEST PUSH1 0x68 DUP3 ADD SWAP1 POP SWAP2 SWAP1 POP JUMP JUMPDEST PUSH32 0x3C7465787420783D273530252720793D273630252720646F6D696E616E742D62 PUSH0 DUP3 ADD MSTORE PUSH32 0x6173656C696E653D276D6964646C652720746578742D616E63686F723D276D69 PUSH1 0x20 DUP3 ADD MSTORE PUSH32 0x64646C652720666F6E742D73697A653D273134272066696C6C3D277768697465 PUSH1 0x40 DUP3 ADD MSTORE PUSH32 0x273E4675723A2000000000000000000000000000000000000000000000000000 PUSH1 0x60 DUP3 ADD MSTORE POP JUMP JUMPDEST PUSH0 PUSH2 0x50EB PUSH1 0x67 DUP4 PUSH2 0x44D5 JUMP JUMPDEST SWAP2 POP PUSH2 0x50F6 DUP3 PUSH2 0x5045 JUMP JUMPDEST PUSH1 0x67 DUP3 ADD SWAP1 POP SWAP2 SWAP1 POP JUMP JUMPDEST PUSH32 0x3C7465787420783D273530252720793D273730252720646F6D696E616E742D62 PUSH0 DUP3 ADD MSTORE PUSH32 0x6173656C696E653D276D6964646C652720746578742D616E63686F723D276D69 PUSH1 0x20 DUP3 ADD MSTORE PUSH32 0x64646C652720666F6E742D73697A653D273134272066696C6C3D277768697465 PUSH1 0x40 DUP3 ADD MSTORE PUSH32 0x273E457965733A20000000000000000000000000000000000000000000000000 PUSH1 0x60 DUP3 ADD MSTORE POP JUMP JUMPDEST PUSH0 PUSH2 0x51A7 PUSH1 0x68 DUP4 PUSH2 0x44D5 JUMP JUMPDEST SWAP2 POP PUSH2 0x51B2 DUP3 PUSH2 0x5101 JUMP JUMPDEST PUSH1 0x68 DUP3 ADD SWAP1 POP SWAP2 SWAP1 POP JUMP JUMPDEST PUSH32 0x3C7465787420783D273530252720793D273830252720646F6D696E616E742D62 PUSH0 DUP3 ADD MSTORE PUSH32 0x6173656C696E653D276D6964646C652720746578742D616E63686F723D276D69 PUSH1 0x20 DUP3 ADD MSTORE PUSH32 0x64646C652720666F6E742D73697A653D273134272066696C6C3D277768697465 PUSH1 0x40 DUP3 ADD MSTORE PUSH32 0x273E42473A200000000000000000000000000000000000000000000000000000 PUSH1 0x60 DUP3 ADD MSTORE POP JUMP JUMPDEST PUSH0 PUSH2 0x5263 PUSH1 0x66 DUP4 PUSH2 0x44D5 JUMP JUMPDEST SWAP2 POP PUSH2 0x526E DUP3 PUSH2 0x51BD JUMP JUMPDEST PUSH1 0x66 DUP3 ADD SWAP1 POP SWAP2 SWAP1 POP JUMP JUMPDEST PUSH32 0x3C2F7376673E0000000000000000000000000000000000000000000000000000 PUSH0 DUP3 ADD MSTORE POP JUMP JUMPDEST PUSH0 PUSH2 0x52AD PUSH1 0x6 DUP4 PUSH2 0x44D5 JUMP JUMPDEST SWAP2 POP PUSH2 0x52B8 DUP3 PUSH2 0x5279 JUMP JUMPDEST PUSH1 0x6 DUP3 ADD SWAP1 POP SWAP2 SWAP1 POP JUMP JUMPDEST PUSH0 PUSH2 0x52CD DUP3 PUSH2 0x4DA7 JUMP JUMPDEST SWAP2 POP PUSH2 0x52D8 DUP3 PUSH2 0x4E17 JUMP JUMPDEST SWAP2 POP PUSH2 0x52E4 DUP3 DUP10 PUSH2 0x4573 JUMP JUMPDEST SWAP2 POP PUSH2 0x52EF DUP3 PUSH2 0x4E61 JUMP JUMPDEST SWAP2 POP PUSH2 0x52FA DUP3 PUSH2 0x4F1D JUMP JUMPDEST SWAP2 POP PUSH2 0x5306 DUP3 DUP9 PUSH2 0x4573 JUMP JUMPDEST SWAP2 POP PUSH2 0x5311 DUP3 PUSH2 0x4F67 JUMP JUMPDEST SWAP2 POP PUSH2 0x531C DUP3 PUSH2 0x5023 JUMP JUMPDEST SWAP2 POP PUSH2 0x5328 DUP3 DUP8 PUSH2 0x4573 JUMP JUMPDEST SWAP2 POP PUSH2 0x5333 DUP3 PUSH2 0x4F67 JUMP JUMPDEST SWAP2 POP PUSH2 0x533E DUP3 PUSH2 0x50DF JUMP JUMPDEST SWAP2 POP PUSH2 0x534A DUP3 DUP7 PUSH2 0x4573 JUMP JUMPDEST SWAP2 POP PUSH2 0x5355 DUP3 PUSH2 0x4F67 JUMP JUMPDEST SWAP2 POP PUSH2 0x5360 DUP3 PUSH2 0x519B JUMP JUMPDEST SWAP2 POP PUSH2 0x536C DUP3 DUP6 PUSH2 0x4573 JUMP JUMPDEST SWAP2 POP PUSH2 0x5377 DUP3 PUSH2 0x4F67 JUMP JUMPDEST SWAP2 POP PUSH2 0x5382 DUP3 PUSH2 0x5257 JUMP JUMPDEST SWAP2 POP PUSH2 0x538E DUP3 DUP5 PUSH2 0x4573 JUMP JUMPDEST SWAP2 POP PUSH2 0x5399 DUP3 PUSH2 0x4F67 JUMP JUMPDEST SWAP2 POP PUSH2 0x53A4 DUP3 PUSH2 0x52A1 JUMP JUMPDEST SWAP2 POP DUP2 SWAP1 POP SWAP8 SWAP7 POP POP POP POP POP POP POP JUMP INVALID LOG2 PUSH5 0x6970667358 0x22 SLT KECCAK256 0xD0 CODESIZE 0xD5 0xCD GASPRICE 0xFC MSIZE SAR PUSH2 0x826 LOG3 0xAD SIGNEXTEND LOG4 0xB9 0xF9 0xE PUSH24 0x56BA10D27237DB42866B65122464736F6C634300081A0033 "
		},
		"gasEstimates": {
			"creation": {
				"codeDepositCost": "4296400",
				"executionCost": "infinite",
				"totalCost": "infinite"
			},
			"external": {
				"approve(address,uint256)": "infinite",
				"balanceOf(address)": "2959",
				"currentSentiment()": "2651",
				"getApproved(uint256)": "infinite",
				"getLatestSentiment()": "infinite",
				"getSentimentHistoryLength()": "2485",
				"getSentimentSnapshot(uint256)": "infinite",
				"isApprovedForAll(address,address)": "infinite",
				"lastUpdate()": "2514",
				"mint(uint256)": "infinite",
				"name()": "infinite",
				"oracle()": "2598",
				"owner()": "2560",
				"ownerOf(uint256)": "infinite",
				"receiveSentimentScore(uint256)": "infinite",
				"renounceOwnership()": "infinite",
				"safeTransferFrom(address,address,uint256)": "infinite",
				"safeTransferFrom(address,address,uint256,bytes)": "infinite",
				"sentimentHistory(uint256)": "infinite",
				"sentimentScore()": "2515",
				"setApprovalForAll(address,bool)": "infinite",
				"setOracle(address)": "infinite",
				"supportsInterface(bytes4)": "759",
				"symbol()": "infinite",
				"tokenTraits(uint256)": "infinite",
				"tokenURI(uint256)": "infinite",
				"totalSupply()": "4694",
				"transferFrom(address,address,uint256)": "infinite",
				"transferOwnership(address)": "infinite",
				"updateSentiment(uint256)": "infinite"
			},
			"internal": {
				"beastIcon(string memory,enum CryptoBeasts.SentimentLevel)": "infinite",
				"evolveTraits()": "infinite",
				"generateSVG(struct CryptoBeasts.Traits memory)": "infinite",
				"sentimentColor(enum CryptoBeasts.SentimentLevel)": "infinite",
				"sentimentLevelToString(enum CryptoBeasts.SentimentLevel)": "infinite",
				"sentimentMood(enum CryptoBeasts.SentimentLevel,string memory)": "infinite"
			}
		},
		"methodIdentifiers": {
			"approve(address,uint256)": "095ea7b3",
			"balanceOf(address)": "70a08231",
			"currentSentiment()": "76294ef7",
			"getApproved(uint256)": "081812fc",
			"getLatestSentiment()": "446ecf3f",
			"getSentimentHistoryLength()": "6c9f6f29",
			"getSentimentSnapshot(uint256)": "41c84de8",
			"isApprovedForAll(address,address)": "e985e9c5",
			"lastUpdate()": "c0463711",
			"mint(uint256)": "a0712d68",
			"name()": "06fdde03",
			"oracle()": "7dc0d1d0",
			"owner()": "8da5cb5b",
			"ownerOf(uint256)": "6352211e",
			"receiveSentimentScore(uint256)": "6e762d6e",
			"renounceOwnership()": "715018a6",
			"safeTransferFrom(address,address,uint256)": "42842e0e",
			"safeTransferFrom(address,address,uint256,bytes)": "b88d4fde",
			"sentimentHistory(uint256)": "ccc47dec",
			"sentimentScore()": "502f43a8",
			"setApprovalForAll(address,bool)": "a22cb465",
			"setOracle(address)": "7adbf973",
			"supportsInterface(bytes4)": "01ffc9a7",
			"symbol()": "95d89b41",
			"tokenTraits(uint256)": "e05c57bf",
			"tokenURI(uint256)": "c87b56dd",
			"totalSupply()": "18160ddd",
			"transferFrom(address,address,uint256)": "23b872dd",
			"transferOwnership(address)": "f2fde38b",
			"updateSentiment(uint256)": "b1def235"
		}
	},
	"abi": [
		{
			"inputs": [],
			"stateMutability": "nonpayable",
			"type": "constructor"
		},
		{
			"inputs": [],
			"name": "ApprovalCallerNotOwnerNorApproved",
			"type": "error"
		},
		{
			"inputs": [],
			"name": "ApprovalQueryForNonexistentToken",
			"type": "error"
		},
		{
			"inputs": [],
			"name": "BalanceQueryForZeroAddress",
			"type": "error"
		},
		{
			"inputs": [],
			"name": "MintERC2309QuantityExceedsLimit",
			"type": "error"
		},
		{
			"inputs": [],
			"name": "MintToZeroAddress",
			"type": "error"
		},
		{
			"inputs": [],
			"name": "MintZeroQuantity",
			"type": "error"
		},
		{
			"inputs": [],
			"name": "NotCompatibleWithSpotMints",
			"type": "error"
		},
		{
			"inputs": [
				{
					"internalType": "address",
					"name": "owner",
					"type": "address"
				}
			],
			"name": "OwnableInvalidOwner",
			"type": "error"
		},
		{
			"inputs": [
				{
					"internalType": "address",
					"name": "account",
					"type": "address"
				}
			],
			"name": "OwnableUnauthorizedAccount",
			"type": "error"
		},
		{
			"inputs": [],
			"name": "OwnerQueryForNonexistentToken",
			"type": "error"
		},
		{
			"inputs": [],
			"name": "OwnershipNotInitializedForExtraData",
			"type": "error"
		},
		{
			"inputs": [],
			"name": "SequentialMintExceedsLimit",
			"type": "error"
		},
		{
			"inputs": [],
			"name": "SequentialUpToTooSmall",
			"type": "error"
		},
		{
			"inputs": [],
			"name": "SpotMintTokenIdTooSmall",
			"type": "error"
		},
		{
			"inputs": [],
			"name": "TokenAlreadyExists",
			"type": "error"
		},
		{
			"inputs": [],
			"name": "TokenIdsNotStrictlyAscending",
			"type": "error"
		},
		{
			"inputs": [],
			"name": "TransferCallerNotOwnerNorApproved",
			"type": "error"
		},
		{
			"inputs": [],
			"name": "TransferFromIncorrectOwner",
			"type": "error"
		},
		{
			"inputs": [],
			"name": "TransferToNonERC721ReceiverImplementer",
			"type": "error"
		},
		{
			"inputs": [],
			"name": "TransferToZeroAddress",
			"type": "error"
		},
		{
			"inputs": [],
			"name": "URIQueryForNonexistentToken",
			"type": "error"
		},
		{
			"anonymous": false,
			"inputs": [
				{
					"indexed": true,
					"internalType": "address",
					"name": "owner",
					"type": "address"
				},
				{
					"indexed": true,
					"internalType": "address",
					"name": "approved",
					"type": "address"
				},
				{
					"indexed": true,
					"internalType": "uint256",
					"name": "tokenId",
					"type": "uint256"
				}
			],
			"name": "Approval",
			"type": "event"
		},
		{
			"anonymous": false,
			"inputs": [
				{
					"indexed": true,
					"internalType": "address",
					"name": "owner",
					"type": "address"
				},
				{
					"indexed": true,
					"internalType": "address",
					"name": "operator",
					"type": "address"
				},
				{
					"indexed": false,
					"internalType": "bool",
					"name": "approved",
					"type": "bool"
				}
			],
			"name": "ApprovalForAll",
			"type": "event"
		},
		{
			"anonymous": false,
			"inputs": [
				{
					"indexed": false,
					"internalType": "address",
					"name": "owner",
					"type": "address"
				},
				{
					"indexed": false,
					"internalType": "uint256",
					"name": "tokenId",
					"type": "uint256"
				}
			],
			"name": "BeastMinted",
			"type": "event"
		},
		{
			"anonymous": false,
			"inputs": [
				{
					"indexed": true,
					"internalType": "uint256",
					"name": "fromTokenId",
					"type": "uint256"
				},
				{
					"indexed": false,
					"internalType": "uint256",
					"name": "toTokenId",
					"type": "uint256"
				},
				{
					"indexed": true,
					"internalType": "address",
					"name": "from",
					"type": "address"
				},
				{
					"indexed": true,
					"internalType": "address",
					"name": "to",
					"type": "address"
				}
			],
			"name": "ConsecutiveTransfer",
			"type": "event"
		},
		{
			"anonymous": false,
			"inputs": [
				{
					"indexed": true,
					"internalType": "address",
					"name": "previousOwner",
					"type": "address"
				},
				{
					"indexed": true,
					"internalType": "address",
					"name": "newOwner",
					"type": "address"
				}
			],
			"name": "OwnershipTransferred",
			"type": "event"
		},
		{
			"anonymous": false,
			"inputs": [
				{
					"indexed": false,
					"internalType": "uint256",
					"name": "newScore",
					"type": "uint256"
				},
				{
					"indexed": false,
					"internalType": "enum CryptoBeasts.SentimentLevel",
					"name": "newSentiment",
					"type": "uint8"
				}
			],
			"name": "SentimentUpdated",
			"type": "event"
		},
		{
			"anonymous": false,
			"inputs": [
				{
					"indexed": false,
					"internalType": "uint256",
					"name": "tokenId",
					"type": "uint256"
				},
				{
					"indexed": false,
					"internalType": "string",
					"name": "newFur",
					"type": "string"
				},
				{
					"indexed": false,
					"internalType": "string",
					"name": "newEyes",
					"type": "string"
				},
				{
					"indexed": false,
					"internalType": "string",
					"name": "newBackground",
					"type": "string"
				}
			],
			"name": "TraitsEvolved",
			"type": "event"
		},
		{
			"anonymous": false,
			"inputs": [
				{
					"indexed": true,
					"internalType": "address",
					"name": "from",
					"type": "address"
				},
				{
					"indexed": true,
					"internalType": "address",
					"name": "to",
					"type": "address"
				},
				{
					"indexed": true,
					"internalType": "uint256",
					"name": "tokenId",
					"type": "uint256"
				}
			],
			"name": "Transfer",
			"type": "event"
		},
		{
			"inputs": [
				{
					"internalType": "address",
					"name": "to",
					"type": "address"
				},
				{
					"internalType": "uint256",
					"name": "tokenId",
					"type": "uint256"
				}
			],
			"name": "approve",
			"outputs": [],
			"stateMutability": "payable",
			"type": "function"
		},
		{
			"inputs": [
				{
					"internalType": "address",
					"name": "owner",
					"type": "address"
				}
			],
			"name": "balanceOf",
			"outputs": [
				{
					"internalType": "uint256",
					"name": "",
					"type": "uint256"
				}
			],
			"stateMutability": "view",
			"type": "function"
		},
		{
			"inputs": [],
			"name": "currentSentiment",
			"outputs": [
				{
					"internalType": "enum CryptoBeasts.SentimentLevel",
					"name": "",
					"type": "uint8"
				}
			],
			"stateMutability": "view",
			"type": "function"
		},
		{
			"inputs": [
				{
					"internalType": "uint256",
					"name": "tokenId",
					"type": "uint256"
				}
			],
			"name": "getApproved",
			"outputs": [
				{
					"internalType": "address",
					"name": "",
					"type": "address"
				}
			],
			"stateMutability": "view",
			"type": "function"
		},
		{
			"inputs": [],
			"name": "getLatestSentiment",
			"outputs": [
				{
					"internalType": "uint256",
					"name": "",
					"type": "uint256"
				},
				{
					"internalType": "enum CryptoBeasts.SentimentLevel",
					"name": "",
					"type": "uint8"
				},
				{
					"internalType": "uint256",
					"name": "",
					"type": "uint256"
				}
			],
			"stateMutability": "view",
			"type": "function"
		},
		{
			"inputs": [],
			"name": "getSentimentHistoryLength",
			"outputs": [
				{
					"internalType": "uint256",
					"name": "",
					"type": "uint256"
				}
			],
			"stateMutability": "view",
			"type": "function"
		},
		{
			"inputs": [
				{
					"internalType": "uint256",
					"name": "index",
					"type": "uint256"
				}
			],
			"name": "getSentimentSnapshot",
			"outputs": [
				{
					"internalType": "uint256",
					"name": "",
					"type": "uint256"
				},
				{
					"internalType": "enum CryptoBeasts.SentimentLevel",
					"name": "",
					"type": "uint8"
				},
				{
					"internalType": "uint256",
					"name": "",
					"type": "uint256"
				}
			],
			"stateMutability": "view",
			"type": "function"
		},
		{
			"inputs": [
				{
					"internalType": "address",
					"name": "owner",
					"type": "address"
				},
				{
					"internalType": "address",
					"name": "operator",
					"type": "address"
				}
			],
			"name": "isApprovedForAll",
			"outputs": [
				{
					"internalType": "bool",
					"name": "",
					"type": "bool"
				}
			],
			"stateMutability": "view",
			"type": "function"
		},
		{
			"inputs": [],
			"name": "lastUpdate",
			"outputs": [
				{
					"internalType": "uint256",
					"name": "",
					"type": "uint256"
				}
			],
			"stateMutability": "view",
			"type": "function"
		},
		{
			"inputs": [
				{
					"internalType": "uint256",
					"name": "quantity",
					"type": "uint256"
				}
			],
			"name": "mint",
			"outputs": [],
			"stateMutability": "nonpayable",
			"type": "function"
		},
		{
			"inputs": [],
			"name": "name",
			"outputs": [
				{
					"internalType": "string",
					"name": "",
					"type": "string"
				}
			],
			"stateMutability": "view",
			"type": "function"
		},
		{
			"inputs": [],
			"name": "oracle",
			"outputs": [
				{
					"internalType": "address",
					"name": "",
					"type": "address"
				}
			],
			"stateMutability": "view",
			"type": "function"
		},
		{
			"inputs": [],
			"name": "owner",
			"outputs": [
				{
					"internalType": "address",
					"name": "",
					"type": "address"
				}
			],
			"stateMutability": "view",
			"type": "function"
		},
		{
			"inputs": [
				{
					"internalType": "uint256",
					"name": "tokenId",
					"type": "uint256"
				}
			],
			"name": "ownerOf",
			"outputs": [
				{
					"internalType": "address",
					"name": "",
					"type": "address"
				}
			],
			"stateMutability": "view",
			"type": "function"
		},
		{
			"inputs": [
				{
					"internalType": "uint256",
					"name": "score",
					"type": "uint256"
				}
			],
			"name": "receiveSentimentScore",
			"outputs": [],
			"stateMutability": "nonpayable",
			"type": "function"
		},
		{
			"inputs": [],
			"name": "renounceOwnership",
			"outputs": [],
			"stateMutability": "nonpayable",
			"type": "function"
		},
		{
			"inputs": [
				{
					"internalType": "address",
					"name": "from",
					"type": "address"
				},
				{
					"internalType": "address",
					"name": "to",
					"type": "address"
				},
				{
					"internalType": "uint256",
					"name": "tokenId",
					"type": "uint256"
				}
			],
			"name": "safeTransferFrom",
			"outputs": [],
			"stateMutability": "payable",
			"type": "function"
		},
		{
			"inputs": [
				{
					"internalType": "address",
					"name": "from",
					"type": "address"
				},
				{
					"internalType": "address",
					"name": "to",
					"type": "address"
				},
				{
					"internalType": "uint256",
					"name": "tokenId",
					"type": "uint256"
				},
				{
					"internalType": "bytes",
					"name": "_data",
					"type": "bytes"
				}
			],
			"name": "safeTransferFrom",
			"outputs": [],
			"stateMutability": "payable",
			"type": "function"
		},
		{
			"inputs": [
				{
					"internalType": "uint256",
					"name": "",
					"type": "uint256"
				}
			],
			"name": "sentimentHistory",
			"outputs": [
				{
					"internalType": "uint256",
					"name": "score",
					"type": "uint256"
				},
				{
					"internalType": "enum CryptoBeasts.SentimentLevel",
					"name": "level",
					"type": "uint8"
				},
				{
					"internalType": "uint256",
					"name": "timestamp",
					"type": "uint256"
				}
			],
			"stateMutability": "view",
			"type": "function"
		},
		{
			"inputs": [],
			"name": "sentimentScore",
			"outputs": [
				{
					"internalType": "uint256",
					"name": "",
					"type": "uint256"
				}
			],
			"stateMutability": "view",
			"type": "function"
		},
		{
			"inputs": [
				{
					"internalType": "address",
					"name": "operator",
					"type": "address"
				},
				{
					"internalType": "bool",
					"name": "approved",
					"type": "bool"
				}
			],
			"name": "setApprovalForAll",
			"outputs": [],
			"stateMutability": "nonpayable",
			"type": "function"
		},
		{
			"inputs": [
				{
					"internalType": "address",
					"name": "_oracle",
					"type": "address"
				}
			],
			"name": "setOracle",
			"outputs": [],
			"stateMutability": "nonpayable",
			"type": "function"
		},
		{
			"inputs": [
				{
					"internalType": "bytes4",
					"name": "interfaceId",
					"type": "bytes4"
				}
			],
			"name": "supportsInterface",
			"outputs": [
				{
					"internalType": "bool",
					"name": "",
					"type": "bool"
				}
			],
			"stateMutability": "view",
			"type": "function"
		},
		{
			"inputs": [],
			"name": "symbol",
			"outputs": [
				{
					"internalType": "string",
					"name": "",
					"type": "string"
				}
			],
			"stateMutability": "view",
			"type": "function"
		},
		{
			"inputs": [
				{
					"internalType": "uint256",
					"name": "",
					"type": "uint256"
				}
			],
			"name": "tokenTraits",
			"outputs": [
				{
					"internalType": "string",
					"name": "beastType",
					"type": "string"
				},
				{
					"internalType": "string",
					"name": "fur",
					"type": "string"
				},
				{
					"internalType": "string",
					"name": "eyes",
					"type": "string"
				},
				{
					"internalType": "string",
					"name": "background",
					"type": "string"
				}
			],
			"stateMutability": "view",
			"type": "function"
		},
		{
			"inputs": [
				{
					"internalType": "uint256",
					"name": "tokenId",
					"type": "uint256"
				}
			],
			"name": "tokenURI",
			"outputs": [
				{
					"internalType": "string",
					"name": "",
					"type": "string"
				}
			],
			"stateMutability": "view",
			"type": "function"
		},
		{
			"inputs": [],
			"name": "totalSupply",
			"outputs": [
				{
					"internalType": "uint256",
					"name": "result",
					"type": "uint256"
				}
			],
			"stateMutability": "view",
			"type": "function"
		},
		{
			"inputs": [
				{
					"internalType": "address",
					"name": "from",
					"type": "address"
				},
				{
					"internalType": "address",
					"name": "to",
					"type": "address"
				},
				{
					"internalType": "uint256",
					"name": "tokenId",
					"type": "uint256"
				}
			],
			"name": "transferFrom",
			"outputs": [],
			"stateMutability": "payable",
			"type": "function"
		},
		{
			"inputs": [
				{
					"internalType": "address",
					"name": "newOwner",
					"type": "address"
				}
			],
			"name": "transferOwnership",
			"outputs": [],
			"stateMutability": "nonpayable",
			"type": "function"
		},
		{
			"inputs": [
				{
					"internalType": "uint256",
					"name": "newScore",
					"type": "uint256"
				}
			],
			"name": "updateSentiment",
			"outputs": [],
			"stateMutability": "nonpayable",
			"type": "function"
		}
	]
}